:020000040800F2
:1000000000500020D5A6000875A70008F990000848
:1000100075A7000875A7000875A700080000000074
:1000200000000000000000000000000075A70008AC
:1000300075A700080000000075A70008F7810008F8
:1000400075A7000875A7000875A7000875A7000820
:1000500075A7000875A70008B1500008AF50000848
:1000600075A700080582000875A7000875A7000895
:1000700075A7000875A700080574000875A7000893
:10008000B350000875A7000875A7000875A70008F9
:1000900075A7000875A7000875A70008AD500008EF
:1000A00075A70008D171000875A70008E171000864
:1000B000C1710008B1710008A1710008ED2E00089F
:1000C000F12E0008E52E0008E92E000875A70008AB
:1000D00075A70008F9730008ED730008E1730008C4
:1000E0000982000875A7000875A700080000000035
:1000F0000000000000000000000000000000000000
:0C01000000000000000000005FF808F1A3
:100110002DE9F04F774B784D9DB0C5F8983000230E
:10012000C5F89C3006F056FC18B906F03DFD06F007
:1001300059F906F0FDF9714A714C1378714E43F08C
:100140000103137000230A930B930C934FF4E013F5
:100150000D932368B07B43F480332360A36943F09D
:100160001003A361236803F400330B930A9B01334C
:100170000A930B9B1BB90A9BB3F5A06FF2D12368BE
:100180005F4913F4003301D0022315E00A6842F0FE
:1001900001020A600A93236803F002030B930A9B8F
:1001A00001330A930B9B1BB90A9BB3F5A06FF2D1E5
:1001B00023689B0739D501230C93534B53491A6885
:1001C00042F010021A601A6822F003021A601A68DC
:1001D00042F002021A606368636063686360636888
:1001E00043F4806363604A4B1A68043B22F0704218
:1001F0005A60484A0A60626822F47C1262605A6857
:1002000042F000425A60DA6822F40042DA609B68E9
:100210001F0449BF404B4FF4E0130B604FF48013B1
:100220000D930C9B012B01D117E0FEE7022B18D197
:1002300068B10D9BB3F5801F02D14FF4A01305E008
:100240000D9BB3F5E01F02D14FF400130D930D9AEF
:100250006368134343F4803302E0636843F460133C
:100260006360236843F0807323602268244B92010B
:10027000FBD55A6822F003025A605A6842F0020223
:100280005A6063681E4803F00C03082BF9D14368D9
:10029000224A03F00C03042B03D0082B03D01D4B80
:1002A00012E00B6810E043684768C3F38343FF0321
:1002B00003F1020301D41A4805E0406810F4003F3E
:1002C000086818BF40084343136063681548C3F3C8
:1002D00003130344187E1368C3401360F37B0D4A75
:1002E000003318BF012385F8A0300B6893421BD15F
:1002F00001221DE09B5F0008B80000201C260020A2
:1003000000100240580A002000200240380000205F
:100310000410014000127A00001BB70048000020C2
:1003200000093D0054C10008954A934202D10222BF
:10033000944B1A70DFF8A4B2934B0DF1700ACBF80E
:100340000C30A369DFF8989243F00103A361636A5C
:100350008E4FC5F8A430636A4FF0000843F08073F5
:100360006362A369484643F01C03A3614FF6FF7321
:100370002AF82C3D51468DF8468004F0A4FF3846FB
:10038000514604F0A0FF8248514604F09CFF4FF014
:1003900010038DF83E3002231CA98DF83F304FF436
:1003A000007321F8343D4846C9F8103004F08BFF43
:1003B000784A5046536843F00073536007F038FBA7
:1003C000754A119B4146B3FBF2F3744A74481360BB
:1003D00018220BF0B6F8734B4FF47A721B68DFF8F3
:1003E000D0C1B3FBF2F3704A013B5360F0238BF8AA
:1003F00023300723C2F808801360B368DFF8E4B144
:10040000DFF8E481CBF8003098E80F008AE80F00AD
:10041000A369CDF80CC043F00803A361A369119848
:1004200043F00803A36108233B6110233B6112A939
:1004300004F049FF139814A904F045FFDBF80030DD
:10044000CDF8109013F0080FDDF80CC013D09CF815
:100450008E31012B0FD8554B9CF88F21D3F8A43047
:1004600013F0805300F0C98505E0514B002283F85A
:100470008F2106F03DFA642007F0B3FEA0224D481C
:1004800000210BF05EF8E369002243F00703E3610B
:10049000A36943F4006343F00C03A361434B0027BB
:1004A00003F1A801575401320E2AF7D1FF2283F835
:1004B000B62083F8B72083F8B82083F8B9203E4BE4
:1004C0003E4A39461A603E483C22DBF800400BF0B9
:1004D00038F83946C4F3801805233A4A384F885C07
:1004E0000C224A43D055B8F1000F07D11E3801281D
:1004F0009FBFFF2003F1FF33D055DBB20131052947
:10050000EBD1314A31491370314B96F805B0C5F83B
:10051000BC30C0330B602F4B244A03EBCB035B781A
:10052000A10648BF0123C2F8C03085F8BAB0002345
:1005300040F2DC52284820F813200133082BF7D171
:10054000103000211C220AF0FCFF14F40073DFF8C5
:100550009C9004F400674BD0A20408D457B196F8DD
:10056000821109F10C02012908BF4A4604E0CDF8C6
:100570000C9002E009F10C020392C5F8ECA038E0FF
:10058000001BB7002C2600200005FA05000C0140D6
:10059000001001400000014040420F0008230020ED
:1005A000981300204800002010E000E0B800002070
:1005B000580A00209024002000230020480C00202E
:1005C000C4220020EBD50008C0220020BC2500205A
:1005D000680A002090D300087C01002000ED00E0B4
:1005E00000080140681200207CC1000854C10008C6
:1005F0000393BBF10E0F04D00BF0EF0BBBF1080F10
:1006000002D1012285F8E6200120059307F082FD42
:10061000C4F3400285F8DA20C4F3403285F8D420D0
:10062000C4F3C03285F8D90085F8DC8085F8D7207E
:10063000059B3FB196F8827107F1FF3EDEF100079E
:1006400047EB0E07003318BF012385F8DE30D5F8DD
:10065000C030B6F84401003318BF012385F8DF30FD
:10066000C4F3005385F8E030B6F84631C4F30042D5
:10067000A5F8E430B6F8523104F0010185F8DD2028
:10068000A5F8E230C4F3C002C4F38043E404A5F843
:10069000EA0048BFB74885F8DB3048BFB0F84C41A6
:1006A000B6F8503148BFB448A5F8E83048BFA0F8C4
:1006B000EA40B3F5FA7F84BF0023A5F8EA3096F844
:1006C000D231AE4885F8F030002385F8F130437020
:1006D00095F8E63085F8D870002B85F8D51085F8A8
:1006E000D6200CBF0023022301B902B1013309EB6C
:1006F0008309D9F838309A1E1A33079300230692DB
:100700000593069BDFF870B233F8024F06934FF65D
:10071000FF739C4200F08B819BF8D920E3B2240A3E
:10072000E5B21AB19A1E012A40F27C819BF8DC20C6
:1007300032B193491A018958924A914200F072816C
:100740009BF8DD0030B18E491A0189588D4A9142DB
:1007500000F068819BF8DA2052B18949049E01EBD0
:1007600003114A68B24203D10A89102A00F05A8163
:100770009BF8D72052B18249049E01EB03114A68CD
:10078000B24203D10A89022A00F04C819BF8D8209A
:1007900052B17B497C4E01EB03114A68B24203D14E
:1007A0000A89022A00F03E81DBF8EC607EB1744FCA
:1007B000326807EB03177968914208D13A89B1880A
:1007C000914200F02F81F188914200F02B81022CA0
:1007D00002D19BF8D42003E0012C04D19BF8D52052
:1007E000002A00F01F819BF8DF20654C1E0162B1DA
:1007F000614A92F8E62042B9A3F10802012A04D81E
:10080000A25962498A4208BF04259BF8E02034447B
:100810005AB1594A92F8E6203AB910B10C3B012B73
:1008200001E0043B032B40F2E680012D44D1DFF8C8
:100830005091FF238BF838318BF8393109EB0603DF
:100840005A7B586803F108081B890027ADF844302B
:1008500011A902238BF83C71CBF848418DF8473041
:100860008DF846208BF8F470CBF8F870CBF8FC705C
:10087000CBF80071CBF834718BF83A718BF83B717F
:1008800004F021FD59F8060098F802103A4604F0E9
:10089000B8FB204639462A4606F0FEFC3C4B3D4953
:1008A000CBF84C313C4BCBF85471CBF8503120464F
:1008B0000A1D06F039FDB5E0022D4BD19DF814302C
:1008C0001C2101FB03FC2C4B9DF8141003EB0C08BE
:1008D000012388F83C310893294B88F83D119A1977
:1008E000517B0027506802F1080912898DF84610E3
:1008F00088F83E7111A988F84671C8F84841CDF8CA
:1009000024C0ADF844208DF8475004F0DCFC1C4BAB
:1009100099F8021098593A4604F073FB089B204658
:100920001A46394606F0B8FC134B1C4ADDF824C0C1
:10093000C8F84C219C441A4A0CF5A671C8F85021FD
:10094000C8F8547120460A1D06F0EEFC059B0133E1
:10095000059367E0032D4CD19BF8DB20064B9BF8F9
:10096000F260104D02B3204608214FF6FF720023BB
:1009700033E000BF580A0020B8000020A901002081
:10098000B0D2000800040040000C0140002C0140DF
:10099000354D000804020020154E00083D500008A7
:1009A0000D4D00081C230020B3F8E820B3F8EA300E
:1009B000B2F5FA7F0BD988492046B1FBF2F2082143
:1009C00092B204F073FD854B45F826000AE0844995
:1009D0002046B1FBF2F2012192B204F067FD814B97
:1009E00045F82600C3609BF8F23001338BF8F230F3
:1009F00018E0042D16D1BBF8E220794B204693FB7A
:100A0000F2F20121BBF8E43092B29BF8F15004F00D
:100A10004DFD9BF8F1300BEB85050133C5F81C0249
:100A20008BF8F130069B079A93427FF46AAE6E4DC5
:100A30006E4F95F8F13095F8BA6085F83C32A6F122
:100A400017030024022B3C701AD8D5F8BC300021C3
:100A5000185903EB040809F061FA18B1D5F8C03051
:100A60006BBB25E0624B04EB030E98E80F008EE8A9
:100A70000F003B7810340133C02C3B70E5D1EDE71B
:100A80005C4B13F836C003EBC603D3F8048087F839
:100A900000C0B8F1000FE1D06445DFDA544A230109
:100AA00003EB020E43440FCB01348EE80F00F3E753
:100AB000514B1A68994612F4805F26D11FE04F4BC4
:100AC0004F4A03EBC60393F84800DC6C1070002C0F
:100AD000EED000238342EBDAC3EBC3016218D2F8F5
:100AE0000080DFF83CC1013341F80C8001EB0C0EB3
:100AF0009188AEF8041092798EF80620EAE706F0A5
:100B0000EF03082B3F4B26D127E03F78012FF6D982
:100B1000374B03F1080403EB071303F118071034F4
:100B2000BC42ECD054F8100C4FF07C5109F062F844
:100B30004FF07C5144F8100C54F8140C09F05AF89A
:100B40004FF07C5144F8140C54F80C0C09F052F896
:100B500044F80C0CE3E70E2E08D11A78182E42F058
:100B600010021A7008D108F0C1F905E01A78192EA0
:100B700022F010021A70F5E708F09CF9D9F800305D
:100B8000214A58035CBF012385F8003313781F4FB7
:100B900043F0040313703B781D4C022B34BF142325
:100BA00010238DF846304FF002038DF84730A369CB
:100BB0004FF4805243F00403ADF8442038BF0026C0
:100BC000A36128BF0126134811A904F07CFB124B36
:100BD00046B3124A27E000BF00127A00354E0008E3
:100BE00040420F00254E0008B800002018230020C6
:100BF000F802002090D300086812002054C10008B9
:100C000048250020851200201C2600202C260020CC
:100C1000001002400008014020260020017F00084B
:100C200049250020554A00201A6007F0EFFA544B7E
:100C3000544E93E80300A3698AE8030043F00803D5
:100C4000A361119812A904F03EFBE369304643F416
:100C50008043E3612369514643F4804323611823B1
:100C60008DF846304FF42043ADF844304FF0030385
:100C70008DF8473004F027FB4FF0040C4FF480430D
:100C8000304651468DF846C0CDF810C04FF480581C
:100C9000ADF8443004F017FB1023304651468DF870
:100CA0004630ADF8448004F00EFB2369322043F453
:100CB00080432361236923F480432361324B1A88E4
:100CC00002F4415242F4457242F003021A80998BB9
:100CD000072221F400610904090C99831A821A88F9
:100CE00092B242F040021A809F23C6F810808DF81D
:100CF0003C3000238DF83D308DF83E308DF83F308C
:100D000007F06FFADDF810C0C6F81480624650464E
:100D10000FA902F049F9C6F810809DF846309DF8F9
:100D200045201B0243EA02439DF847201343174A1C
:100D3000934214D0322007F054FAC6F81480F520FC
:100D400002F068F9FF2002F065F97028C6F81080FB
:100D500005D13B78022B02BF03220D4B1A703B7862
:100D6000032B0CBF1F20022007F054F93B78032B04
:100D700010D0012003F082F811E000BF157F0008B9
:100D80006CC20008000C0140003800401520200013
:100D90002C260020022007F0BDF90028E9D0D9F860
:100DA0000060DFF8E0A206F400434FF0100904935E
:100DB0000AF2013006F4006300214A4605933F78A9
:100DC0000AF0BFFB4FF6FF73ADF83C3002234FF043
:100DD00000081E408DF83E308DF83F8010D01CA9D1
:100DE00021F8349D9F4806F0D5FF012604220723F1
:100DF0008AF801238AF802838AF803638AF80433A5
:100E0000049B93B102231CA921F8343D954806F0B8
:100E1000C1FF0123F21885F8053385F8073307234E
:100E200085F8066385F80833D6B2012F13D920233D
:100E30001CA921F8343D8B4806F0ACFF05230122A4
:100E400085F8093385F80B23731C072285F80A639C
:100E500085F80C23DEB2059B9BB102231CA921F867
:100E6000343D814806F096FF0923012285F80D33B1
:100E700085F80F23731C072285F80E6385F810236D
:100E8000DEB26368794843F4404363606369774D39
:100E900043F001036361A36943F40073A36103F0AA
:100EA000ACFE11A803F07EFE714B00241193714B30
:100EB000012E129394BF2346802316934FF4807320
:100EC00017934FF480631893202311A91993284690
:100ED0004FF4005314961A93139415941B9403F033
:100EE0006EFE2B68644A43F001032B605368012EA9
:100EF00023F4702394BF0021012123F4807343EA7B
:100F00000123536091685D4B013E0B40214643F441
:100F1000602343F002039360D36AF6B223F47003B4
:100F200043EA0656D6620123554842189478002CAD
:100F30004ED00C5C581C092CC0B2D2784E4E0ED943
:100F4000A4F10A05F76805EB45054FF0070E0EFA08
:100F500005FE27EA0E07AA403A43F2600BE0376924
:100F600004EB440E072505FA0EF527EA050502FAFB
:100F70000EF22A433261062B3F4D0CD85A1E6F6B7E
:100F800002EB82021F23934027EA030604FA02F3CE
:100F900033436B631BE00C2B0CD8DA1F2F6B02EB77
:100FA00082021F23934027EA030604FA02F3334325
:100FB0002B630CE0A3F10D02EF6A02EB82021F2308
:100FC000934027EA030604FA02F33343EB62034635
:100FD00004311029A8D1284B9A6842F480729A6093
:100FE0009A6842F001029A609A6842F008029A6098
:100FF0009968214A090747D5FAE7013A092A3FF6D5
:101000003AAAD8F83801039310237B615146CAF8F5
:101010000000049804F057F9049B3C201A4608236A
:10102000136107F0DEF810233B61039B1F4696F81F
:101030008F319F42BFF619AA049BDFF82C904FF026
:101040000808C9F810807820C3F8148007F0BEF8AB
:10105000049BC9F814807820C3F8108007F0B6F814
:101060000137E4E700080140000C0140080002409D
:101070004C240140CA03002000240140FDF7F1FF89
:10108000B9030020B8000020936843F00403936084
:10109000C34B9A685207FBD49A6842F4A0029A6044
:1010A000C04BB3F85801002840F03687B3F95A21F5
:1010B000002A40F03187B3F95C31002B40F02C87D7
:1010C000B94F3B689B0301D502F014F8B74CB54DFE
:1010D000D4F81C63B5F86001B6F9566095F85F1155
:1010E00095F8672195F86831009603F0F9F810B982
:1010F000012007F091F8AE4A0A26137843F0020364
:101100001370AC4B10225A6108221A61DFF8A482D6
:101110001920D8F80C30013E83F01003C8F80C30C9
:10112000D8F80C3083F00803C8F80C3007F059F8F1
:10113000012007F06BF8192007F053F8002007F0A2
:1011400065F816F0FF06E1D10823C8F81030102624
:10115000994BC8F810601A68994612F0080F09D028
:10116000964BC8F814601B689847954B0122C8F845
:1011700010601A70934E308808F0E8FCDBF82033DA
:101180008046187B08F0E2FC8F4908F033FD8F4958
:1011900008F028FC05F0B2F80146404608F02AFDA8
:1011A0000AF0A0FC8A4B414618808A4808F0D6FD18
:1011B000894908F0D3FD894BCBF824038249D868CC
:1011C00008F018FD864908F015FD8649B5F84E313E
:1011D000854ACBF82C13DBF81CE3CBF83413B5F8B5
:1011E0009411ABF83033002313809370CBF82803AD
:1011F0000EF179028BF838331FFA81FCDFF82C826C
:101200007A48D8F800A0DFF828B20AF5967A20F8D4
:1012100013C04BF823A00133122BEFD1D7F800A055
:101220000EF1C90E1AF4805F08BFB5F89AC1A0F894
:1012300006C01378B3B9937892F803C0634511D20E
:101240000BB1013B01E00CF1010303EB830392F8C6
:1012500001C003EB830303F561739BB20CF1040C33
:1012600020F81C3004327245E3D11AF0080F00F068
:10127000108195F88E31062B00F20481DFE803F02F
:1012800004070E355172720045F2F05301E042F648
:10129000F823A4F8843302F09BFBF2E042F6F82333
:1012A0000901A4F884330A2391FBF3F10023A1F58B
:1012B000B0614F4A42F823100133122BF9D14D4A45
:1012C0004D49402011604D4A137006F047FF002839
:1012D00000F0D88001234FF0070B90F90000402167
:1012E0008DE80808464A474BC6E042F6F823464ACE
:1012F000A4F884333F4B40201A60404B10221A70F0
:1013000006F02CFF002800F0BD8001234FF0000AFA
:1013100090F9000040218DE808043C4A4FF4E13385
:10132000AAE042F6F8233A4AA4F88433314B40202D
:101330001A60324B08221A7006F010FF002800F0E5
:10134000A18001234FF0000C90F9000040218DE8AE
:101350000810304A4FF4E13306F08AFE134BC3F80D
:1013600088038BE042F6F8222449A4F88423062B54
:101370004FF00C02DFF8BCE027480A705CD0274928
:1013800000230B708EF800300370254B1B21197061
:10139000244B4FF4E13A1A70234B05221A705AE09D
:1013A00000240140580A002068120020B8000020E4
:1013B0001C260020000C014070120020D4130020D5
:1013C000E40900200000002035FA8E3CDB0FC93F05
:1013D0007A1200200AE81C4100401C46201300201D
:1013E000BD378635DE0B0020C0120020100A002019
:1013F000B42100201C0000202B7500087C12002066
:10140000A9770008A086010027750008FD7600086E
:1014100023750008B17600081D2200201C22002040
:101420001E220020B12100201F2200204C0A002093
:10143000F4030020B22100200021017059488EF8E9
:10144000001001705849212008705849DFF890A118
:101450000A70574A1370574A574B40201A6006F0DB
:101460007DFE78B101234FF0000E90F900008DE869
:1014700008405346514A402106F0FAFD003018BF9B
:10148000012030B9AB684E4A23F00803AB604A4BE9
:101490001A603B684B4A13F4804F1FBF1221117032
:1014A0004948454918BF086042F20101194099B105
:1014B00044F62061A4F88413990441BF08211170F7
:1014C00042483D4948BF0860D80741BF0C21117010
:1014D0003F48394948BF08601178043951701906EE
:1014E00040F19580DFF8FCA04FF0000B394B3A48F3
:1014F00059461522C4F88C3304938AF801B0CAF80F
:1015000004B0CAF808B00AF01CF8049B0220053B9E
:10151000C4F89033D8F800308AF800B0CAF8183010
:10152000D8F80030CAF814B08AF81CB0CAF80C30E9
:1015300006F014FE88B390F805E09AF80130274AC7
:101540000C2101FB032191F82111714504D00133D5
:10155000DBB2042BF3D900238AF8013095F8EB3184
:101560004FF00C0E002B9AF8013018BF03210EFB30
:10157000032208BF01214FF0000A90F9000092F801
:1015800021310091CDF804A00221524606F070FDF1
:10159000DFF850B0C4F8940330BBAB6823F080038D
:1015A000AB602CE01C2200201E220020B121002074
:1015B0001F220020697400081C000020917500089B
:1015C0007D7500087C120020597500086D750008B3
:1015D0005D750008480C0020A812002054C10008C6
:1015E00090D003008812002001238BF80030D8F837
:1015F0000030CBF814A0CBF818308BF81CA0D4F82E
:101600001C0300F5C573C4F8983305F07FFD3B68F3
:101610009A0555D5D34A039B4FF0100AC4F89C3362
:101620009369D14843F001039361039B0EA91B8882
:101630008DF83AA0ADF8383002238DF83B3003F036
:1016400042FE039BC8485B880EA9ADF838300423DE
:101650008DF83A3003F037FE039B0120197A03F02E
:101660001DFE039BC14A5B684FF0000B536111A83C
:101670008DF849A04FF0010A11938DF848B08DF80C
:101680004AA006F049FB039B0FA85B7A8DF83EB099
:101690008DF83C3003238DF83D308DF83FA001F0EC
:1016A00065FCD8F800303C3BC4F8A033D9F80030D2
:1016B00043F01003C9F800304FF0FF33C4F8A433EF
:1016C000AB4B4FF0000AC4F8A8338033C4F8AC33F6
:1016D0003B68DFF8BCB2DB0384F8B0A340F1D080F4
:1016E00005F00AFA05F040FA05F028FA40F22A3C23
:1016F00001238BF8B0330BF2B13B6246584651469A
:10170000CDF814C0049309F01CFF964A99489169DA
:10171000DFF8809241F0040191614021ADF838106A
:1017200018218DF83B1003218DF83A100EA9039271
:1017300006F030FB039A9048D169049B41F0020106
:10174000D1618E490968B1FBF0F1B9F800000139A7
:1017500020F45C700004000CA9F8000089B21D2080
:10176000A9F82C00A9F82810A9F81430B9F820100D
:10177000049321F001010904090CA9F82010B9F81B
:101780002010B9F804E0B9F8180021F0020120F0A7
:10179000730000040904000C090C1FFA8EFE40F0CF
:1017A000600041F00101A9F804E0A9F81800A9F8C7
:1017B00034A0A9F82010B9F8181021F00801090484
:1017C000090C41F00801A9F81810B9F844106FEAA3
:1017D00041416FEA514189B2A9F84410516941F081
:1017E00001015161664A1046039203F006FA11A8FE
:1017F00003F0D8F96349039A1191802116914FF4AF
:101800008071DDF814C017914FF400511046CDF8E7
:1018100048B01A914FF0100B11A9CDF850C0CDF877
:101820004CB0CDF854A0CDF860A0CDF864A0CDF8B0
:101830006CA003F0C4F9B9F80C10039A89B241F412
:101840000071A9F80C101168049B41F002011160AD
:101850000FA88DF83CB08DF83D308DF83EA08DF886
:101860003F3001F083FB5146474B1A68474B43F822
:10187000212001312029F7D103F032FC03F030FCA4
:101880003B68580540F17381D4F85CA70420C4F884
:1018900060A706F063FC04218346C4F8640706F0E1
:1018A00053FC84F8680704900820C4F86CA706F07D
:1018B00055FC0821C4F8700706F046FCDFF8D0900C
:1018C00084F8740700212C2209F2757009F039FEA2
:1018D0004FF07D038E2284F87627E0224FF07C0CB7
:1018E000002184F8782709F2A1702C2284F875C7AA
:1018F000CDF80CC084F8A03709F023FE4FF07D032B
:10190000DDF80CC08A2284F8A2271020A02284F8D7
:10191000A42784F8A1C784F8CC37C4F8D0A706F070
:101920001DFC1021C4F8D40706F00EFC84F8D8077B
:101930002020C4F8DCA706F011FC2021C4F8E00741
:1019400006F002FC049B84F8E407184605F070F8E2
:1019500094F8E52782423ED098B3BBF1000F3AD00D
:101960001AE000BF00100240000C014000040140DA
:10197000840C00200008014000366E014800002061
:101980006C00024034040040B0C2000894070020FC
:10199000B80000200004004002239BF900000093DF
:1019A0009AF801300421003318BF0123019300226B
:1019B0004FF4165306F05CFBC9F8E80758B1012351
:1019C00007E00390D9F8E80706F03CFB039BC9F851
:1019D000E83789F8E53794F8740705F029F894F8A2
:1019E000EC37DFF84094834282461CD098B1D9F896
:1019F0007037C3B100224FF0010A93F900000821AB
:101A0000CDF800A001924FF4964306F031FBC9F8DF
:101A1000F00730B907E0D9F8F00706F013FBC9F872
:101A2000F0A789F8ECA794F8D80705F001F894F826
:101A3000F437DFF8F0938342834660D000283DD02E
:101A4000D9F8D427002A5AD0D37992F90000002B74
:101A50004FF00202DFF8D0E308BF03230092002218
:101A6000019210215EF8233006F002FB8246C4F892
:101A7000F807002843D099F84A30022B0DD099F886
:101A80009620022A02D109F14C0906E02BB1002A66
:101A900009F14C0918BF4FF00009C4F8FC97B9F1DF
:101AA000000F09D0484600214C2209F04AFD0223CC
:101AB000C9F800A089F84A3001231EE0D9F8F8A738
:101AC000D9F80030534507D1504606F0BBFA4846D6
:101AD00059464C2209F035FDE36C534507D1504679
:101AE00006F0B0FAC64800214C2209F02AFD504603
:101AF00006F0A8FA0023C4F8F83784F8F43794F80D
:101B0000E40704F095FF94F80038DFF81893834257
:101B100082462CD008B3D9F8E03743B3D9F8DC2794
:101B200093F9000052780323002A0CBF08220922EF
:101B300000930192202100224FF4614306F098FAAD
:101B4000C4F8040898B1012389F8083889F80038E6
:101B5000D8F80030C9F80C3809E0D9F8040806F0C4
:101B600071FAC9F804A889F808A889F800A8A54B53
:101B70001B78022B68D1A44A4FF00008138832204A
:101B800023F040031B041B0C138013884FF480596F
:101B900023F038031B041B0C138013889BB243F003
:101BA000400313809F238DF83C308DF83D808DF8E5
:101BB0003E808DF83F8006F014FB8DF84580DFF8FD
:101BC00058820422C8F8149011A80FA901F0ECF96A
:101BD000C8F810909DF846309DF845201B0243EA56
:101BE00002429DF847301343884A934219D00AD8DD
:101BF000A2F51A42033A93420CD002F51A4202327D
:101C0000934209D01BE0824A934205D001329342AD
:101C100007D014E0202300E08023B3804FF48073CA
:101C200002E04FF48073B380F3803389B2881B02E3
:101C3000F36053433361774B01221A7004E00023B1
:101C4000B380F380F36033613369002B00F01381BC
:101C50004FEAD328CDF80C804FF0000AC2452EDAA7
:101C60000AEB08094FEA69094FEAC92303228DF8F4
:101C70003C2000261A0C1B0A8DF83D208DF83E30C2
:101C80008DF83F6001F008FAC8B1634B4FF4805CF7
:101C9000C3F814C00FA9042230460DF1440BCDF84F
:101CA00014C0049301F080F958463146102201F027
:101CB0007BF9049BDDF814C0C3F810C00AE0039B55
:101CC00094F81128DB02049394F81038934200F042
:101CD000CF800BE05BF82630013340F019810136EC
:101CE000042EF7D1CDF80C90C846B7E74B499A427D
:101CF00001EB03000F90109108D3D31A1193002326
:101D00001293119B129A02EB03095EE0C3F1800368
:101D100011931292F5E7D4F894885FFA88F609EBEC
:101D20000603B3F5807F3E4B88BFC6F580761B69FE
:101D300098BF4E46984580F096800223DFF8D8A0E1
:101D40008DF838304FEA18434FF4805B8DF8393006
:101D50004FEA18238DF83A308DF83B8001F09CF95A
:101D6000CAF814B0062001F055F92A4B0122CAF82E
:101D700010B000201A700EA9CAF814B0042201F0A5
:101D800013F9DDF844B0BBF1000F22D0B34531D2D6
:101D90000F9B002019465A46039301F005F9039B57
:101DA000CBEB060A03EB0B0100230F911193DDF837
:101DB00048B0BBF1000F0ED1174B4FF48052C6EB69
:101DC000090946441A61C4F89468B9F1000FA2D118
:101DD00049E0B246EBE7D34528D2DDF840A0002029
:101DE00051465A4601F0E0F80AEB0B01002310912E
:101DF0001293E1E7B2464FF0000C11AB19E000BFBF
:101E0000040100202C2600200038004018BA2000D1
:101E10001740EF00500A0020000C0140CA080020C3
:101E200000000020B800002098D1000812AB4FF04D
:101E3000040C0DF13C0B06935BF80C30524619462E
:101E40000020CDF814C0039301F0AEF8039BDDF839
:101E500014C003EB0A02069B4BF80C201A68CAEB6D
:101E600002021A60A8E7002384F8113884F81038B9
:101E7000049BC4F894383B6813F4002318BF012373
:101E800084F8983806F086F96A4B4FF47A72186035
:101E90006B79052B04BF4FF4C873A4F89A38664BCE
:101EA0001A80664BC8221A80654A137843F00803EB
:101EB0001370644A137823F00203137040F6020390
:101EC0003A6813406BB16049604B1960604B032165
:101ED0001970604B012119700023A4F89C38A4F8F4
:101EE0009E38930341BF5C4B04221A71DA7844BFD9
:101EF00042F00102DA70AB68584A3B60012384F873
:101F00000033137863F07F0313701DB0BDE8F08FCA
:101F100009F1010AC146E7E6514B00221A7000B2EE
:101F200007F014FE4F4907F065FE4F4C0646B4F922
:101F30005A0107F00BFE4B4907F05CFE0546B4F969
:101F40005C0107F003FE474907F054FE4749044689
:101F5000304607F047FD04F0D1F98046304604F0E2
:101F6000CDF942490646284607F03CFD04F0C6F983
:101F70000746284604F0C2F93C490546204607F0CA
:101F800031FD04F0BBF98246204604F0B7F9414622
:101F90008146504607F02EFE41460490484607F021
:101FA00029FE51460590304607F024FE494606902A
:101FB000304607F01FFE39460790504607F01AFEDC
:101FC0002B4C4946206007F1004007F013FE2946DC
:101FD0006060A560069807F00DFE0146059807F0C1
:101FE00001FD2946E060079807F004FE01460498C9
:101FF00007F0F6FC3946206106F1004007F0FAFDD3
:1020000029466061049807F0F5FD0146079807F03E
:10201000E7FC2946A061059807F0ECFD014606980B
:1020200007F0E0FC4146E061384607F0E3FD20623E
:10203000FFF746B8A009002024260020262600200D
:102040008512002029260020D00B00206C120020D1
:10205000AB2200203F000020541200201C2600204C
:102060001500002035FA8E3C580A0020DB0FC93FCE
:10207000B00900202DE9F04F87B06C4C02916C49FB
:1020800022880E680546C2EB26135B435200C2EB62
:10209000E602B4F902601B135643B4F90420B4F904
:1020A0000A0053439B1303EBE62606EB86038033BB
:1020B0001B12B6F5FA384FEAE67704934B6847F1FE
:1020C000FF39A8FB08AB039308FB09F3B4F9082018
:1020D0000BEB430BE389A6610593D31708FB03F1D0
:1020E00002FB0911A8FB02230B44C1171F030AFBC3
:1020F00001F300FB0B33AAFB00011603194447EA66
:102100001257020A42EA016292194FEA2123E68835
:102110007B410032A2FB060143F5004306FB03119D
:102120004B100093CB170193DDE900231343B4F860
:1021300010E0B4F80CC06DD00FFA8EF0C1170AFB96
:1021400001F1AAFB002300FB0B11BDF914600B4445
:10215000F71708FB07F106FB0911A8FB06670F44F8
:1021600079047004801841EAD6315941039B0FFA73
:102170008CF8C3F5801E7246D317002212184FEA5E
:10218000CE764FEAC3774FEAC8034B4147EA5E0772
:10219000B61A67EB030740F63543A6FB030103FBC2
:1021A0000711DDE9002307F031FFB4F916204E13C3
:1021B00002FB06FE470B47EAC147D31707FB03EEB6
:1021C000A2FB07235643734407FB0366A2FB0723C6
:1021D0003344560E46EAC3168219B4F914604FEA26
:1021E000636741EB07037143F71700FB0717A6FB73
:1021F00000013944C60C46EA413692194FEAE147DC
:102200004FEA1221B4F912207B4141EA0361130124
:102210000B4400E000230DB11B0A2B60029B13B19D
:102220001A46049B136007B0BDE8F08FB41300207A
:1022300058090020704770476B4B6C4A2DE9F04FEE
:102240005E8994684FEA062AB4EB0A0A9C884FF02C
:1022500000054FEA04481C894FF0000BA4FB0A67F5
:1022600065EB0B0B04FB0B77F40944EA476418EBAE
:1022700004065C884FF000094FEAE7154FEAC438BE
:10228000DC8849EB050787B0CDE90467A4FB0A6742
:1022900004FB0B77340A44EA076418EB04064FEAA0
:1022A00027259C894FF0000949EB0507CDE9006718
:1022B000AAFB046704FB0B77F40D44EA472414F5EA
:1022C000FA664FEAE75545F10007B6F5FA6F77F180
:1022D0000003CDE90267964666DADDE90489A4FBCE
:1022E000046704FB05F34FF0050C07EB4307A6FB5F
:1022F0000C230CFB07335F104FEA3206B8EB0608DD
:102300004FEA920646EA837669EB07099F10DDE9FA
:102310000023921B63EB0703CDE90023DDE902678D
:10232000334A4FF0FF33964277EB0303CDE904893C
:1023300027DA40F6AC520023A4185D4104FB05F3F4
:10234000A4FB04456FF0060205EB4305664202FB61
:102350000566A4FB0223334418EB020649EB03078E
:10236000CDE904670B26A4FB062306FB0533DDE954
:1023700000455B104FEA3202A41A65EB0305CDE974
:102380000045DDE902450AFB0BF3AAFB0AAB0BEBA8
:10239000430B4FEADA7242EA4B02A41A4FEAEB739C
:1023A00065EB0305CDE90245DEF80C40009B019D7D
:1023B000A4FB032304FB05334FEA525848EAC32821
:1023C0004FEA6359DDE90423B8EB020269EB03032A
:1023D0009946D30B43EA494300B1036009B1029B1C
:1023E0000B6007B0BDE8F08F4813002058090020AB
:1023F00024FAFFFF2DE9F041324C334D62892B8ADC
:10240000B4F904809A1A2389B4F902E05A43B4F962
:102410001230D613B4F91420DB02324493FBF2F2EB
:1024200032440A26E2615643A2F57A6202FB02F3C5
:10243000B4F90EC002FB0EFE02FB08F2B4F90C80E8
:102440001B130CFB03FC03FB08F31B1403EB6232AE
:102450000232E388921002F5004253434CF25032AC
:10246000B4F920704FEAEE2EB4F900400EEBEC2CDC
:102470000CEB8404BC406D690234A5EBA4043A4122
:1024800062434FEAD3384EBFB2FBF8F35400B4FBBB
:10249000F8F340F6DE3448BF5B001A125243624341
:1024A0000A4C08365C43241404EB224202F6CF6245
:1024B000361103EB221300B1036001B10E60BDE8D9
:1024C000F08100BF5C1300205809002043E3FFFFA8
:1024D00013B50C4B04465B681B20022101AA9847E8
:1024E00070B19DF804209DF8053043EA022303F5FE
:1024F0004E5310334FF48C7293FBF2F3233323804B
:1025000002B010BD3413002037B5104B04465D688F
:10251000187806216A46A847A8B19DF800209DF8C2
:102520000130012043EA022323809DF802209DF818
:10253000033043EA022363809DF804209DF80530B0
:1025400043EA0223A38003B030BD00BF3413002050
:1025500013B5104B04465B683B2006216A4698473A
:10256000A8B19DF800209DF80130012043EA022324
:1025700023809DF802209DF8033043EA0223638004
:102580009DF804209DF8053043EA0223A38002B0A1
:1025900010BD00BF34130020B0F5807F0ED0BB28E3
:1025A0000ED861280ED829280ED813280ED809284D
:1025B0000ED8002814BF0620002070470020704766
:1025C00001207047022070470320704704207047A5
:1025D0000520704710B5224C2368998A89B211F4FE
:1025E000706F1EBF1F4A0120107611F4E06F2BD0D0
:1025F0001A8B9A88890522F480624FEA02424FEAD8
:1026000012429A8020D41A8892051DD41A88D005C7
:102610000FD51A88D105FCD41A8892B242F4007200
:102620001A801A889205FCD40F4B187801F026FC0A
:102630000AE01A8892B242F400721A809A8822F450
:1026400040721204120C9A802268938A23F47063F9
:102650001B041B0C9382054B00221A7010BD00BF97
:10266000F812002058090020FC120020101300204E
:10267000054A08B5138801339BB21380034B1878C1
:1026800001F0FCFB002008BDAC220020FC12002061
:1026900008B54FF4804005F06FFB012801BF044BE3
:1026A0004FF480425A61034B08BF587608BD00BF03
:1026B000000401405809002010B5054C2368186932
:1026C00005F05AFB18B123681A69024B5A6110BD14
:1026D0004013002000040140F8B50E461746084C90
:1026E0004FF48055656140F0800000F093FC38465F
:1026F0000021324600F058FC25610120F8BD00BFE2
:10270000000C014070B50E46054C4FF480556561D4
:1027100000F080FC304600F07DFC2561012070BD9A
:10272000000C014070B5FFF737FF104C054619202B
:1027300005F057FDA36815200021984710B9022025
:1027400005F06AFD45F01801A368C9B21620984744
:10275000A368002117209847A36801213D209847CE
:10276000A3683E200121BDE87040184734130020C3
:10277000F0B5274D85B0AB7E002B46D1254C2368A4
:10278000002B42D01A68244E12B1B1690A43B261DB
:102790009A889868ADF8002002228DF803206946D7
:1027A00004228DF8022002F08EFDB369002743F069
:1027B0000103B36123680126187B197D02F06EFDC9
:1027C0002368164993F9150005F070FD2368144A33
:1027D0001B695361029308230DEB03008DF80D3044
:1027E0008DF80C708DF80E6005F096FA236801A83C
:1027F0005B7D8DF806708DF8043003238DF805306D
:102800008DF8076000F0B2FBAE7605B0F0BD00BFFA
:10281000580900204013002000100240B92600088B
:102820000004014037B50446FFF7A2FF254B1A68A4
:10283000254B9A420ED14FF40053ADF804300223D9
:102840008DF80730042321480DEB03018DF8063085
:1028500002F039FD2046FFF79FFE05461C4C802103
:10286000A3686B209847642005F0BBFCA368072190
:1028700068209847642005F0B4FCA36800216B2011
:102880009847642005F0ADFCA36801216B209847B0
:10289000A36818211B209847A36810211C20984783
:1028A000A36829461A209847A36800211920984751
:1028B000A368122137209847A36801213820984740
:1028C00003B030BD38000020001BB70000100140ED
:1028D0003413002008B5FFF74BFF024B4FF4805232
:1028E0001A8008BD0000002070B50446FFF740FFC5
:1028F0002046FFF751FE0546144C8021A3686B204B
:102900009847642005F06DFCA368002119209847C2
:10291000A36803216B2098470F2005F062FCA36891
:1029200029461A209847A36818211B209847A368B6
:1029300010211C209847A368022137209847A368DC
:1029400038200121BDE87040184700BF3413002033
:1029500008B5FFF70DFF074B5B7813B1012B03D0D0
:1029600008BD4FF4006201E04FF48052024B1A8020
:1029700008BD00BF301300200000002010B540004B
:10298000204CC0B220702048204C0170204800210B
:102990000170012020701F4C23601F4C23601F4BCF
:1029A0001A701F4A1F4B107019761F49086811468C
:1029B0001A4630B383889C0515D40388DB050DD4F3
:1029C00047F230530488A40502D5013BFAD112E046
:1029D0008BB103889BB243F48073038083889BB2DE
:1029E00043F44073838047F23053087810B1013BC1
:1029F000FBD100E013B9BDE8104039E6107E80F04D
:102A0000010010BD0213002000130020FE12002060
:102A100008130020041300200C13002001130020D1
:102A20001013002058090020F812002007B5F721E4
:102A30006B4606227620FFF7A1FF9DF800309DF837
:102A400001101B0343EA01139DF80210094A43EAEF
:102A5000111353609DF803309DF804101B0343EAE3
:102A600001139DF8051043EA1113136003B05DF8DC
:102A700004FB00BF5809002007B5002101AB032269
:102A80007720FFF77BFF9DF805309DF804001B02BF
:102A900043EA00439DF80600184303B05DF804FBC9
:102AA00008B5FFF7E9FF014BD86008BD58090020C1
:102AB00008B5FFF7E1FF014B986008BD58090020F9
:102AC0000F4B13B51B780F4C0BB1637EB3B10322D0
:102AD00001AB7720F621FFF751FF9DF805309DF8F7
:102AE00004201B0243EA02439DF806201343064AD2
:102AF000B2F92020C2F10802D340636102B010BDD8
:102B00002C000020580900205C1300200A4B13B54C
:102B10001B780A4C0BB1637E63B1022201AB7720B4
:102B2000F621FFF72BFF9DF804209DF8053043EABE
:102B30000223238202B010BD2C000020580900207F
:102B400030B505460C46134629462246BDE83040BE
:102B5000682013E713B50622044601211C206B46AA
:102B6000FFF70CFF08B39DF801309DF80020042109
:102B700043EA022242F38D0292FBF1F29DF8023009
:102B800022809DF8032042EA032242F38D0292FB49
:102B9000F1F29DF8043062809DF8052042EA03239B
:102BA00043F38D0393FBF1F3A38002B010BD13B583
:102BB00006220446022118206B46FFF7DFFEB8B15B
:102BC0009DF800309DF801209B0803EB0223238031
:102BD0009DF802309DF803209B0803EB02236380DD
:102BE0009DF804309DF805209B0803EB0223A38089
:102BF00002B010BD314B2DE9F3411B780546002B87
:102C00003BD0002426462746A046013453203221DB
:102C100008226B46E4B2FFF7B1FE08B9002049E094
:102C20009DF801209DF80030202C03EB02231BB2FD
:102C30009DF8032098449DF8023003EB02231BB259
:102C40001F449DF805209DF8043003EB02231BB2BE
:102C50001E449DF8073003F07F0301D0002BD4D130
:102C600098FBF4F897FBF4F796FBF4F6144BA5F8F1
:102C700000806F80AE80DC761CE05320322106227B
:102C80006B46FFF77BFE0028C8D09DF801209DF819
:102C9000003003EB02232B809DF803209DF80230C7
:102CA00003EB02236B809DF805209DF8043003EBB5
:102CB0000223AB8002B0BDE8F08100BF46130020C4
:102CC0005809002013B502AB03F8012D4000214A3A
:102CD000C0B21070204A00201170204901220A70F1
:102CE0001F4908701F490B601F490B601F4B20498B
:102CF0001A700A701F4B204A187610681A4630B3B3
:102D000083889C0515D40388DB050DD447F2305326
:102D10000488A40502D5013BFAD112E08BB10388E7
:102D20009BB243F48073038083889BB243F4407367
:102D3000838047F23053087810B1013BFBD100E0AB
:102D400013B9FFF795FC02E0107E80F0010002B09D
:102D500010BD00BF02130020001300200813002044
:102D6000FE1200200C130020041300200113002089
:102D70001013002058090020F81200207620F421BA
:102D800031229FE77720482101229BE777205821B5
:102D9000012297E7064B002193F82020054B920172
:102DA000343259767720F42102F0FC028AE700BF22
:102DB0005C13002058090020034B00225A7677202C
:102DC000F4212E227EE700BF5809002003460A4660
:102DD0006820194676E713B500222A211C20FFF748
:102DE00071FF0E2102221C20FFF76CFF0F2103222E
:102DF0001C20FFF767FF2B2112221C20FFF762FF28
:102E0000164A02249369164843F004039361202371
:102E1000ADF8043004230DEB03018DF806308DF876
:102E2000074002F050FA22462C211C20FFF74AFFEF
:102E30002D2101221C20FFF745FF2E2100221C20FE
:102E4000FFF740FF2A2105221C20FFF73BFF054B1F
:102E50004FF480721A8002B010BD00BF0010024013
:102E6000000801400000002008B50F2108221820AA
:102E7000FFF728FF0E2218201021FFF723FF024B37
:102E80004FF480521A8008BD0000002008B5134B93
:102E900053201B782D2108227BB1FFF713FF31212E
:102EA0000A225320FFF70EFF2C210C225320FFF79C
:102EB00009FF53203821902209E0FFF703FF312159
:102EC0000A225320FFF7FEFE53202C210A22FFF78F
:102ED000F9FE40F20912024B1A8008BD4613002089
:102EE0000000002001F0D6B8FFF774BB01F0D2B8A3
:102EF000FFF770BB10B504460E4B185C00F005FFE1
:102F00000D4B33F91410B1F57A7F05DBB1F5FA6F8B
:102F1000A8BF4FF4FA6101E04FF47A71A1F57A711C
:102F20000A2391FBF3F1BDE810400920C9B203F078
:102F300095BD00BFF5D50008100A00200EB403B5FA
:102F400003AB53F8042B074968468DE80A0006498D
:102F500003F0C8F8009B00221A7002B05DF804EB81
:102F600003B07047340A00203D5F00080C4B0D4948
:102F7000DA684378D243C2F30222C2F104029340DA
:102F800002781B01DBB20A4482F800330378012285
:102F9000580903F01F0302FA03F341F82030704789
:102FA00000ED00E000E100E070B5184B9B894FF4A4
:102FB0007A7342B311B10C78013107E0FF2405E0C8
:102FC0004FF6FF75013B9BB2AB420FD00F4D2E89E0
:102FD000B607F5D5A4B2AC810C4C2589ED070BD40E
:102FE0004FF6FF74013B9BB2A342F5D1084A538FC1
:102FF00001339BB2538706E0A489A4B208B10470E0
:103000000130013AD5E7012070BD00BF0038004013
:10301000100A002040F2E9330F4A1189890704D4CD
:10302000013B9BB2002BF7D10BE040F2E93380B2B9
:103030009081094A1189C9070AD4013B9BB2002B30
:10304000F7D1064AFF20538F01339BB25387704755
:103050009089C0B2704700BF00380040100A0020BD
:1030600007B50B4A0B48936901A943F0100393611C
:103070004FF40053ADF8043002238DF807301023CD
:103080008DF8063002F01FF903B05DF804FB00BFB5
:103090000010024000100140F7B5144CE76B94F8A3
:1030A00040309BB10523124D8DF800304FF480560F
:1030B00000238DF8013001A86E6169460222FFF7F6
:1030C00073FF2E619DF8053003F0010303F0010248
:1030D00084F8402033B1054BDB6BDB1B062BDED9BC
:1030E000002000E0012003B0F0BD00BF100A002066
:1030F000000C01402DE9F341C82005F072F8AE2024
:1031000000F027FE08B100F029FEA64C84F841002B
:10311000C82005F066F804F5E77300210C2204F6D8
:103120004400636408F00DFA022384F8473805F080
:1031300031F8D4F85038C31A002BC0F2458300F59B
:10314000433303F5A073C4F85038974B1E7894F8B6
:103150005438C6F38006F31A18BF012384F8546864
:1031600066B1002B00F0308394F8453884F8463877
:10317000012384F8453884F8443834E04BB194F89E
:10318000473843F0020384F8473894F8463884F807
:10319000453894F8472802F0020101F0FF0341B9D5
:1031A0008049D1F84C18411A002903DB02F00103D1
:1031B00000E0012303F001057A4984F8445893B1F3
:1031C000D50710D591F8482805230132D2B2B2FBB9
:1031D000F3F303EB8303D31A744ADBB281F8483864
:1031E000D35C81F8453894F844286E4B9AB393F831
:1031F000472822F0020283F847286D4A0244AE2095
:10320000C3F84C2800F0A5FD08B100F0A7FD84F834
:103210004100002800F0D882B02000F09AFD402044
:1032200000F097FD002000F094FD102000F091FDCB
:103230004FF48065013D0020ADB200F061FD002D2E
:10324000F8D1284600F0F9FD94F84528594B53F879
:10325000220000F075FD94F84130002B00F0B4829C
:10326000504B93F84538062B00F28882DFE813F0C4
:103270000700860218007D004F016E01AE014E4925
:103280004E4A4F4B4F48FFF759FE012000F0D5FD45
:103290004C4800F055FD022000F0CFFD4A4892E175
:1032A000D4F858383F4D9A072AD5484F00223B782A
:1032B0004749009305F124001346FFF73FFE03F052
:1032C00009FC012000F0B9FD05F1240000F038FDF3
:1032D000D5F85C083A7805796FF0630102FB05F3D5
:1032E0004B43C17802204D1B5543B3FBF5F5EDB2BE
:1032F00000F0A3FD2946152003F0B0FB032500E0F4
:103300000125D4F85838274F1B0540F13782002299
:10331000134600922F4907F12400FFF70FFE03F038
:10332000D9FB284600F089FD07F1240000F008FDD4
:10333000D7F85C38988906F009FC0746681C00F04D
:103340007CFD3846244906F055FC394606F006FD5A
:1033500006F016FE01466428A8BF642121EAE17147
:103360001520C9B203F07AFB08E2012000F065FDE8
:103370001A4800F0E5FCD4F860389D0734D50023E6
:10338000009301931649174A0E48FFF7D7FD03F043
:10339000A1FB022000F051FD0A4800F0D1FC0325FA
:1033A00023E000BF100A002029260020F0D50008E5
:1033B000404B4C00A4C800080AD6000813D60008E9
:1033C0001AD60008340A002022D600083F00002048
:1033D00027D600083FD600080000C84254D600088F
:1033E0006AD6000879D600080225D4F86038D807D4
:1033F00012D5002300930193CA49CB4ACB48FFF76B
:103400009DFD6F1C03F066FB284600F016FDFFB221
:10341000C64800F095FC3D46D4F86038C44F190703
:103420001BD5B7F96628B7F964380092B7F9682850
:10343000BC49019207F12400BE4AFFF77FFD05F168
:10344000010803F047FB284600F0F7FC5FFA88F814
:1034500007F1240000F074FC45460023009301931B
:10346000B54AB049B148FFF769FD03F033FB284680
:1034700000F0E3FCAD4800F063FCAC49002002F032
:10348000C7FDAA4808F0A1F86F1CFFB2C1B2092914
:103490000BD84B1CDBB22144202281F824200021D0
:1034A000E21882F825101946F1E7DFF88082002043
:1034B000414402F0ADFD03F00DFB384600F0BDFCC9
:1034C000404600F03DFC4146002002F0A1FD404690
:1034D00008F07BF80235EDB2C7B2092F0BD87B1C80
:1034E000DBB22744202287F824200021E21882F84A
:1034F00025101F46F1E7B4F96A0806F027FB08EB30
:10350000070102F085FD03F0E5FA284658E00025A2
:1035100094F86C38AB4240F231810E2D00F02E81D0
:103520006808013000F089FC2846FFF7E3FC804B77
:1035300093F86C38AB4206D9202000F0E6FB681CFB
:10354000C0B2FFF7D7FC0235EDB2E1E77B4994F852
:10355000FC277648FFF7F2FC012000F06EFC734870
:1035600000F0EEFB94F86E5875492A466F48FFF755
:10357000E5FC022000F061FC6C4800F0E1FB0C234C
:1035800003FB05456F4995F8FF2795F8FE37674817
:10359000FFF7D4FC03F09EFA032000F04EFC6348D2
:1035A00000F0CEFB95F8041895F8022895F803383A
:1035B0005E4800916449FFF7C1FC03F08BFA0420D8
:1035C00000F03BFC594800F0BBFBD7E0D4F858288A
:1035D000574B120640F1CC80D3F870284AB1002234
:1035E000C3F8702893F87428013202F0030283F8BC
:1035F00074280121002000F02CFC94F87438534A00
:103600001025D05C00F081FB0220012100F021FC9C
:10361000A02000F07AFB013DFAD194F875384C49AE
:1036200013F0020F14BF59234E232A463F48FFF7D9
:1036300085FC03F04FFA022000F0FFFB3B4800F04E
:103640007FFB2B4643492A463848FFF777FC03F0B7
:1036500041FA032000F0F1FB344800F071FB3E49D1
:103660002A463248FFF76AFC03F021FA042000F0F2
:10367000E4FB2E4800F064FB2A4638492B48FFF74C
:103680005DFC03F014FA04210A2000F0E2FB274855
:1036900000F056FB32492A462448FFF74FFC03F05E
:1036A00006FA052000F0C9FB204800F049FBD4F8D9
:1036B0007C28D4F880382B491C48FFF73FFC03F0E6
:1036C000F6F905210A2000F0C4FB184800F038FB89
:1036D000D4F88838D4F884282349D21A1348FFF73D
:1036E0002DFC03F0E4F9062000F0A7FB0F4800F0E2
:1036F00027FBD4F880281D490C48FFF71FFC03F076
:10370000D6F906210A2000F0A4FB084800F018FBB7
:103710000648152200F6740107F082FF03F0C7F98E
:1037200007204DE76AD600087DD60008340A00203D
:10373000100A00207BDA000881D6000885D6000830
:1037400091D60008A2D60008B3D60008C5D6000856
:10375000CAD60008DBD60008E8D60008F0D6000874
:10376000F7D60008FED6000807D700080ED70008D5
:1037700093F8472842F0020283F8472826BB94F8C2
:10378000D0380021052B97BF144A3F259B181D7F79
:10379000122000F05EFB284600F0B7FA002113204B
:1037A00000F057FB212000F0B0FA1420002100F0B7
:1037B00050FB94F8D4580A4B585D013505F00305C9
:1037C00000F0A3FA84F8D45804F0E4FC054B034459
:1037D000C4F84C3802B0BDE8F08100BFA4C80008AE
:1037E000C5D60008404B4C00F8B5614B054693F830
:1037F0003C380C46012B15D1114606F0AFFA4FF0BC
:103800007E5106F0EDF80546014606F0F3F929462B
:1038100006F0F0F9294606F0EDF904F100444FF006
:103820007E5199E0022B5DD110464FF07C5106F09D
:10383000E1F90146284606F091FA4FF07E5105461F
:1038400006F076FBF8B12946284606F0D3F9014682
:103850004FF07E5006F0C4F805F0C0FD08F07EF988
:1038600006460F4604F100404FF07C5106F0C2F9C5
:1038700005F0B4FD002204460D46304639463D4B66
:1038800005F04CFC21E028464FF0804106F0A8F8F6
:10389000014606F0AFF901464FF07E5006F0A0F861
:1038A00005F09CFD08F05AF906460F4620464FF0F9
:1038B0007C5106F09FF905F091FD002204460D466B
:1038C000304639462B4B05F02BFC02460B46204672
:1038D000294605F0D7FD0022002305F021FC06F063
:1038E0002BF8F8BD032B41D110464FF07C5106F068
:1038F00081F90146284606F031FA4FF07E5105461F
:1039000006F016FB78B14FF07C51204606F072F9B4
:10391000294606F06FF9294606F06CF9294606F0AB
:1039200069F929461CE028464FF0804106F058F816
:103930004FF07C51054604F1004006F05BF9294642
:103940000446284606F056F9294606F053F929465A
:1039500006F050F94FF0804106F042F8014620464B
:1039600006F048F9002106F03DF8F8BDF8BD00BFAB
:10397000100A00200000F03F08B52A22104800215C
:1039800007F0DFFD0F4B00220F490520515C01328B
:1039900083F8F21183F8F70106210020052A83F845
:1039A000F61183F8F90183F8F81103F10803EBD15C
:1039B000064B0122A3F83C22522283F8382208BD8C
:1039C000480C0020580A0020EBD50008100A0020FF
:1039D00007B51C4B03F66C02C3F8D82893F8D62120
:1039E0005AB1012A14D1032183F8DC18072183F886
:1039F000DE2883F8DD180C2208E0022183F8DC18A9
:103A0000032183F8DE2883F8DD18072283F86C2869
:103A10000D4A0E4B40201A6004F0A0FB70B1012249
:103A2000002390F9000040218DE80C00084A4FF473
:103A3000E13304F01DFB003018BF012003B05DF836
:103A400004FB00BF100A0020157500081C000020B0
:103A50006576000837B5044603211E2006226B4612
:103A6000FEF78CFF70B39DF801309DF80000164DF5
:103A700043EA002000B206F069F8296806F0BAF8B7
:103A800006F07EFA9DF8033020809DF8020043EA9C
:103A9000002000B206F05AF8A96806F0ABF806F06C
:103AA0006FFA9DF80530A0809DF8040043EA0020DD
:103AB00000B206F04BF8696806F09CF806F060FA70
:103AC0006080012003B030BD2000002010B5054CFF
:103AD0002368186904F050F918B123681A69024B79
:103AE0005A6110BDD0130020000401402DE9F043BD
:103AF0007B4A87B01368904693B11A681AB1794926
:103B0000886902438A619A889868ADF80020022289
:103B10008DF80320694604228DF8022001F0D3FBC2
:103B2000322004F05EFB002111221E20FFF7CAF8AC
:103B3000012160221E20FFF7C5F8642004F051FB2C
:103B4000002402A8FFF786FF274626460A25022101
:103B500001221E20FFF7B6F8322004F042FB02A833
:103B6000FFF778FFBDF90820BDF90A1014448A4216
:103B7000A8BF0A46BDF90C300F4493421E44A8BFAB
:103B8000134613F5805F09DD574A013DD36883F082
:103B90001003D360DBD14FF0010901E04FF00009C1
:103BA0001E2000211222FFF78DF80A250221012292
:103BB0001E20FFF787F8322004F013FB02A8FFF75E
:103BC00049FFBDF90820BDF90A10A41A8A42A8BF0E
:103BD0000A46BDF90C307F1A9342A6EB0306A8BF34
:103BE000134613F5805F07DD3F4A013DD36883F03C
:103BF0001003D360DAD101E04FF00009204605F050
:103C0000A5FF0146394806F0A9F8394D20F00040DB
:103C10002860384605F09AFF0146344806F09EF8C1
:103C200020F000406860304605F090FF01463148C2
:103C300006F094F820F00040A860002170221E20B9
:103C4000FFF740F8012120221E20FFF73BF81E203D
:103C500002210022FFF736F8642004F0C2FAB9F11D
:103C6000000F04D14FF07E532B606B60AB60D8F82F
:103C700000301B4C1A7B002A2FD01A7D6AB31949D9
:103C800000268A69012542F001028A61187B197DAC
:103C900001F004FB2368184993F9150004F006FBB2
:103CA0002368164A1B6904A8536104930C238DF8FA
:103CB00015308DF814608DF8165004F02DF8236837
:103CC00001A85B7D8DF806608DF8043003238DF824
:103CD00005308DF80750FFF749F907B0BDE8F083CC
:103CE000D013002000100240000C014000406F463D
:103CF0002000002001C05E46CD3A000800040140CB
:103D0000024640213C20FEF7DDBF70B500EB80008D
:103D1000094CA0F1A1059C3825440444074B15F833
:103D2000010F1E787040FFF7EBFFA542F6D1304639
:103D3000BDE87040E4E700BFE8C800082A2600207C
:103D400010B5441E14F8010F10B1FFF7DEFFF9E7BC
:103D500010BD024680213C20FEF7B4BF10B5D42030
:103D6000FFF7F7FF8020FFF7F4FFA820FFF7F1FF30
:103D70003F20FFF7EEFFD320FFF7EBFF0020FFF718
:103D8000E8FF4020FFF7E5FF8D20FFF7E2FF14205A
:103D9000FFF7DFFFA120FFF7DCFFC820FFF7D9FF07
:103DA000DA20FFF7D6FF1220FFF7D3FF8120FFF7BD
:103DB000D0FFCF20FFF7CDFFD920FFF7CAFFF120BA
:103DC000FFF7C7FFDB20FFF7C4FF4020FFF7C1FF6D
:103DD000A420FFF7BEFFA620FFF7BBFFAF20FFF731
:103DE000B8FFA620FFF7B5FFAE20FFF7B2FF2020F7
:103DF000FFF7AFFF0020FFF7ACFFB020FFF7A9FFF0
:103E00004020FFF7A6FF0020FFF7A3FF1020FFF7D9
:103E1000A0FF4FF48064013C0020A4B2FFF770FFC4
:103E2000002CF8D18120FFF794FFC820FFF791FF05
:103E3000AF20FFF78EFF012010BD08B55038C0B28B
:103E4000FFF787FF0020FFF784FFBDE80840102040
:103E50007FE710B504465039C8B2FFF77AFF04EB8C
:103E60004400400000F00E00FFF773FF062060439F
:103E7000BDE81040C0F3031010306AE7012828BFE6
:103E800001202DE9F04F0646794F142000FB067102
:103E9000784BD1F8A4421E711C60774BD1F8B42244
:103EA000DD69B1F8AC822A43DA61A288B1F8AEA22A
:103EB00022F44072D1F8A852120489B0120C4AEAD6
:103EC0000809A28003A9C5F8109002228DF80E00FF
:103ED00028460193ADF80C908DF80F2001F0F3F90E
:103EE000019B00971F464FF0080BAA6818EA020FC3
:103EF00003D10A2004F06AF9F7E70A20C5F8148014
:103F000004F064F9C5F810800A2004F05FF9BBF1F1
:103F1000010BEAD1C5F814A00A2004F057F9C5F83E
:103F200014800A2004F052F9C5F810800A2004F029
:103F30004DF90222C5F810A028468DF80F2003A9DC
:103F40001C228DF80E20ADF80C9001F0BCF94B4A04
:103F50004B4994423A6903A80BBF42F4001242F461
:103F600080023A613A610BBF3A693A6922F4001261
:103F700022F480023A61A38823F440731B041B0CD3
:103F8000A380404B93F800803F4BB8F1000F14BF63
:103F90009846884623889BB243F001032380A58876
:103FA00003F046FD059A394825F03F05B2FBF0F0D5
:103FB0002D042D0C0543ADB2A580218808EB4803E4
:103FC00021F001010904090C21804FF49671B2FB24
:103FD000F3F301FB00F24FF47A7192FBF1F29BB222
:103FE000002B08BF0123013243F4004392B2228424
:103FF000A3832388009A9BB243F001032380238884
:10400000002523F4816323F002031B041B0C23808F
:104010004FF480432381142303FB062696F8B13224
:10402000012403A88DF80C308DF80D508DF80E503A
:104030008DF80F40FEF79AFF96F8B0329DF80F20EA
:104040008DF80C308DF80D508DF80E501AB103A874
:10405000FEF78CFF08E05A0903F01F039C4002F1B1
:1040600020030B4A42F8234009B0BDE8F08F00BF9F
:10407000E8C80008F8120020001002400054004078
:10408000801A06005801002000350C0040420F0045
:1040900000E100E0914B70B51A68908A80B2C1B21D
:1040A000CE072ED5118821F400610904090C118076
:1040B000118889B241F48061118000215971997988
:1040C00099B1D97911B9197AFF290ED10121D97184
:1040D000597A022901BF118889B241F40061118027
:1040E000997A41F001011182E2E0997A01F0FE0132
:1040F00011821A7AFF2A00F0DB80784AFF21517181
:10410000D6E08D073AD5BFF35F8F587AC0B2012849
:1041100013D1997989B1D97979B1118821F4806164
:104120000904090C1180BFF35F8F118B1188D872BD
:1041300089B241F4007111801BE0118BBFF35F8FD6
:10414000587A664902280AD1887940B1C97931B1D3
:10415000118821F480610904090C1180A2E0587AC9
:104160005E49032805D1887918B1C979002940F042
:104170009980918889B241F4806198E04C0757D5C5
:104180000121D9729979002938D0D979002935D0FF
:10419000597A1088022959791ED920F480600004C8
:1041A000000C1080148ADD68C8B2E4B249B26C54C5
:1041B0001188DC6889B241F4007111801968821C91
:1041C0005A710A8A0130D2B240B222548A8892B21D
:1041D00042F480628A8026E080B240F40070108051
:1041E000148ADD68C8B2E4B249B26C54128A411C28
:1041F00049B2D2B203306A54587114E0D9793748C1
:1042000009B9017C41B1118889B241F40071118072
:104210005A7901325A7106E0118889B241F48071ED
:1042200011800122C27119680A88D205FCD43FE0CE
:1042300001F0400101F0FF04E1B15879168ADD6810
:10424000C4B2611C40B2F6B22E54C9B25D7A597143
:1042500049B2C81C854201BF908820F480600004E8
:10426000000C08BF90805A7A8A4221D11B4A02343E
:1042700054711DE006061BD5597948B2451C0AD079
:104280005C690131205CC9B21082587A597149B217
:1042900088420DD106E0197A5C711182997909B9C9
:1042A000597A29B9918821F480610904090C918017
:1042B000597A93F9050001318842084A0CD100214E
:1042C000D171D17A31B111688A8822F44072120416
:1042D000120C8A8000221A7670BD00BFF8120020EE
:1042E0002DE9F04F8FB0019283460C220E46A5486F
:1042F00000211D46BDF960A007F023F9002110221E
:10430000A14807F01EF9A14AA14B92F800909046EF
:1043100003F11802B9F1010F94BF99469146994CE7
:10432000002739460C222777677704F1200007F031
:1043300008F92320C4F82C9003F053FF75200121C5
:104340000DF11702FEF7FCFBA0B1924B38466362F9
:10435000914B0121A36206AA432384F82030FEF783
:10436000EFFB9DF8183003F07E038DF8183000281D
:1043700043D14AE094F8303063BB884A884F936950
:104380004FF4805943F00803936110238DF82230D5
:104390003846032308A98DF82330ADF8209000F0AB
:1043A00092FF804AC7F81090138823F040031B0443
:1043B0001B0C1380138823F038031B041B0C43F0E1
:1043C0000803138013889BB243F04003138001233A
:1043D00084F830307520012108AAFEF77DF99DF898
:1043E0002030702B51D105232377432384F82030CC
:1043F0006D4B63626D4BA36247E0682B05D10123CF
:1044000023771D2384F820303FE09DF8173003F018
:104410007E03682B8DF8173033D1022306202377D3
:104420000146636A08AA98479DF8251001F0010229
:104430009DF8231001F001014B0043EA82019DF831
:10444000212002F001030B4309D05BB2012B01D103
:10445000002302E0022B0DD10123637715E0494BC5
:104460000C205B6A012107AA98479DF81C3013F0C5
:104470000F0303D1032003F0CFFE06E0042BEBD1A2
:10448000E6E7702B04BF04232377227F0020022A53
:104490003C4B84F8310009D14549D960454919613F
:1044A00045499961012183F831101BE0012A0BD1A4
:1044B000424983F83120D9603E49042219614049BC
:1044C00059613D4999610DE0043A012A00F23883AF
:1044D0003C4ADA60374A1A61374A9A61012283F806
:1044E00031200722384B394999460A701A680291DF
:1044F00042F001021A60364F00233B70082E00F292
:10450000B280DFE806F00BB00B2C6F8D2CA2A2005E
:10451000012E40F2B4802E4B00261E7098F8003019
:10452000012B1CD84FF0000C0EAB03F818CD532014
:1045300061460122CDF80CC0FEF720FA78B19DF853
:104540002030DDF80CC0E52B09D1224B84F832C0B5
:104550002360214B636004233B70022387E0227FAA
:10456000084B022A3ED11D4A1A601D4A5A605B7FE1
:10457000002B0CBF6F236E23237201233B70032398
:1045800075E000BF14130020201300202C2600200B
:10459000B4CB0008412B0008CD2D000800100240CC
:1045A000000C014000380040D9260008052700080B
:1045B000E92800080925000890C1793D2527000851
:1045C000D124000825280008701200204000002097
:1045D0002B2600208D2E0008F52B000851290008FD
:1045E0005125000898F80030012B19D800220EAB95
:1045F00003F8182D1C200D210122FEF7BFF978B118
:104600009DF820302A2B01D01A2B09D1C54A84F8F5
:1046100033302260C44A02233B706260042326E0E8
:1046200000210EAB03F8181D18200122FEF7A6F991
:1046300058B19DF82030FB2B07D1BC4B2360BC4BFD
:10464000636001233B70052311E0237FB94A043BDB
:10465000012B3FF65DAFB84B1360B84B536001239D
:104660003B70082303E0012E09D9002643E7029A94
:104670005370D9F8003043F00203C9F8003098F8BD
:104680000030012B05D1FEF7EBFCAD4B4FF400528F
:104690005A61042D00F2B981DFE815F00500C00170
:1046A0006400050082010A2003F09BFD7720A02111
:1046B000012207ABFEF762F9002853D01E21012228
:1046C0007720FEF7FFFA4FF42F6003F07FFD0026FE
:1046D000A6F160010025C9B2022208AB77208DF84F
:1046E00020508DF82150FEF749F99DF821309DF8B2
:1046F000202043EA02228F4B03F13401725202362A
:10470000102EE5D1B3F842102A4601F00F0601F44D
:104710007F41A3F842102B46012722F001002044DC
:10472000808E002818BF0027D50703D5C0B24340AC
:10473000082002E083EA1023FAE71D0448BF83F44F
:10474000C05301384FEA4303F7D10132102AE4D1B4
:104750003143784AA4F8421027B9C3F303339E4289
:1047600000F0CD8194F84450002D40F0E181744E6A
:10477000FEF776FC28244FF48047304607A9ADF8B1
:104780001C708DF81E4000F09EFD4FF40053336105
:1047900020466C4903F08AFD0E21022000F07EFDC8
:1047A0000823089708A801278DF825308DF8245094
:1047B0008DF826704FF0030903F0AEFA06A88DF8C5
:1047C00018408DF819908DF81A508DF81B70FEF76F
:1047D000CDFB142003F005FDD02177203A4607AB2E
:1047E000FEF7CCF8534C3146002800F0B9809DF814
:1047F0001C30A4F86890552B84F85F3040F0B080EE
:10480000D1213A4607AB7720FEF7B8F89DF81C3067
:10481000772003F00F021B0984F8602084F86130D0
:10482000162208ABAA21FEF7A9F89DF820209DF8D2
:10483000213043EA0223A4F848309DF822209DF855
:10484000233043EA0223A4F84A309DF824209DF83F
:10485000253043EA0223A4F84C309DF826209DF829
:10486000273043EA0223A4F84E309DF828209DF813
:10487000293043EA0223A4F850309DF82A209DF8FD
:104880002B3043EA0223A4F852309DF82C209DF8E7
:104890002D3043EA0223A4F854309DF82E209DF8D1
:1048A0002F3043EA0223A4F856309DF830209DF8BB
:1048B000313043EA0223A4F858309DF832209DF8A5
:1048C000333043EA0223A4F85A309DF834209DF88F
:1048D000353043EA0223A4F85C3041F27073A4F847
:1048E0006C3046F67813A4F86E30174B2367174BDD
:1048F0006367174BA367174BE367174BC4F8803008
:1049000094F8443043B9FEF757FA42F6E06003F0FA
:104910005DFCB568C5F38035104B1D70012384F82C
:10492000443005E1D72D0008552B0008692E0008FA
:10493000AF2B000814130020D528000851250008CB
:104940000010014091260008B92D00080D2B000829
:10495000952D0008C12A0008F52300082C0000202E
:10496000794A136823F48043136000237748DA0000
:1049700000F18404A5186E68754DAE420AD114F991
:104980003340282C06D183180022C3F8882083F8EE
:10499000842002E00133032BE8D14FF400534B6134
:1049A0006A4C94F89C50002D40F0BC80142003F019
:1049B00018FC04F19D037620D0210122FDF7DEFFD3
:1049C00094F89D30582B29D104F1A0038821182296
:1049D0007620FDF7D3FF7620F4213122FEF772F91D
:1049E000012384F89C305B4BA4F86C5063675A4BEE
:1049F000236745F6D813A4F86E30584BA367584B7D
:104A0000E367584BC4F880308CE0012D06D0564B3C
:104A1000564A9D70136843F004031360534D4B4C8A
:104A20002B6813F0020F01D023689847E3685846BB
:104A300098474F4B98F8009003F11802B9F1010F15
:104A400094BF99469146019F4A4E002333700FB19F
:104A5000022F69D14FF000080EAB03F8188D1E200D
:104A60000A210122DFF8E4B0C4F8BC90FDF786FF0C
:104A700098B19DF82030482B5CD13F4B0222CBF8F7
:104A8000C0303E4BCBF8C43003233370364BDA7062
:104A90002B6843F008032B6001E080464AE0384B66
:104AA00093F854210AB184F8312093F855210AB1C2
:104AB00034490A7093F8563103B133702B681B07E1
:104AC00018D564269AFBF6F5284605F03FF8074608
:104AD00006FB15A000B205F039F82B4905F08AF85D
:104AE0000146384604F07EFF284905F083F8C4F8F3
:104AF000C80002E00023C4F8C830012020E042F2E0
:104B00001073A2F86C30A2F86E30214B03251367A6
:104B1000204B5367204B9367204BD367204BC2F841
:104B2000803074E7042572E7012FB8D91F468BE760
:104B300002256CE7012FB2D9002786F8008089E7AB
:104B40000FB0BDE8F08F00BF000401401413002037
:104B50009126000835220008372200087D2D000824
:104B60002D2A000875200008400000207012002047
:104B7000E4CB00082D260020ED3A0008553A000845
:104B8000580A00202B2600208988883C00002041FC
:104B90008D2D0008B12A0008852D0008A12A0008E3
:104BA000392200080023036043608360C36003610F
:104BB00043618361C36103624362836270478A68B1
:104BC00010B50C6A036814430A6923F4FF431443C5
:104BD0004A6923F0700314438A691443CA69144371
:104BE0004A6A14438A6A224313430360CB684360D2
:104BF0000B6883604B68C36010BD4FF6FE7302689C
:104C0000134003600023036043608360C360294B4B
:104C1000984201D1284A27E0284B984201D1264AE0
:104C20002AE0274B984201D1234A2DE0254B984298
:104C300001D1214A30E0244B984201D11E4A33E091
:104C4000224B984204D11C4A536843F470032EE06F
:104C50001F4B984204D1184A536843F0706326E012
:104C60001C4B984204D11C4A536843F00F031EE0CA
:104C70001A4B984204D1184A536843F0F00316E0E7
:104C8000174B984204D1144A536843F470630EE002
:104C9000144B984204D1104A536843F4704306E021
:104CA000114B984204D10C4A536843F4702353606B
:104CB000704700BF08000240000002401C00024094
:104CC0003000024044000240580002406C000240A4
:104CD0008000024008040240000402401C0402401C
:104CE0003004024044040240580402408379DB0748
:104CF00048BFB1FA81F1D0F8343148BF49095A6848
:104D00001B8909B1136170475361704710F80A3C61
:104D10000133DBB20A2B84BF10F8131C044A00F8DD
:104D20000A3C82BF002322F8113000F80A3C704789
:104D3000FC210020334A70B5136C9068194440F68A
:104D40008C23081A98429160D060516013463BD979
:104D5000127893F9451010468A420BD1111F082989
:104D600008D893F84610182901D8013103E083F8D8
:104D7000442002E0002183F8461093F94440214981
:104D8000A24219D191F84740B4B10C3100249442A9
:104D900006DA51F8046F1C4D25F814600134F6E76B
:104DA0000C2805D01849002421F810400130F7E7FD
:104DB000164801780131017083F845200022012155
:104DC0001A7083F8471070BD92F84710C9B140F2CD
:104DD000DA51A0F2EF248C4208D811780B2905D8BB
:104DE0000B1D0131117042F8230070BD002283F8C1
:104DF0004720074B03F13002002143F8041F934280
:104E0000FAD170BDAC010020FC210020E01300208D
:104E1000B8010020024A136C013319441164704731
:104E2000AC010020024B53F820301B6819807047FA
:104E30001C230020074BA1F57A7153F820301A6823
:104E40001B8959434FF47A7391FBF3F189B21180B6
:104E5000704700BF1C23002038B50D4B0D4D9968DD
:104E60000D4B1A681C465288114203D003F092F988
:104E7000686007E003F08EF96B68984282BFC01A41
:104E8000064B186023685A68054B5A6138BD00BF4D
:104E9000000C0140E01300205404002030000020EA
:104EA0000004014090F83B3210B57BB990F83A32DB
:104EB00090F83942A34209D2B0F8401201229A4038
:104EC0000A430133A0F84022DBB2F3E710BD1FB55F
:104ED0000123ADF80830ADF80410002301A9ADF8A6
:104EE0000A30ADF80C30ADF8062002F002FE05B035
:104EF0005DF804FB10B5A0F5127494F83C22BAB921
:104F0000A36A616A994228D0591CA069A162C35C56
:104F10002069DBB25B0043F400738142A4F83E32A7
:104F20004FF00A0384F83D3228BFA262012312E049
:104F300094F93D327BB1B4F83E1220464B08A4F8F8
:104F40003E3201F00101FFF7D1FE94F83D32013B02
:104F500084F83D3201E084F83C3294F83832002B7A
:104F60004ED194F839320133DBB2092B84F839324F
:104F700003D12046BDE8104094E70A2B40D194F8B5
:104F80003B322BB9B4F8403243F00103A4F840326D
:104F90006379D9071CD5B4F84002820501D4C30750
:104FA00005D4B4F844320133A4F8443210E0E36A83
:104FB000C0F347000BB198470AE0E3696269D05437
:104FC000E369E1680133B3FBF1F201FB1233E36102
:104FD000012284F8382294F83B220023012A84F825
:104FE00039320DD1A27984F83B32236B12F0010FD4
:104FF0001868997A0CBF02220022BDE8104066E7CB
:1050000010BD1FB50123ADF808300023ADF80C30FA
:10501000ADF80A30084BADF804101B7801A9012B3C
:1050200008BF0323ADF8062008BFADF80C3002F02E
:1050300060FD05B05DF804FBA801002038B510F84C
:105040000E2C044650F8043C52B9012200F80E2CF4
:1050500020F80C1C997A18680222BDE83840D0E785
:1050600030F80C2C20F80A1C891A89B220F8081C88
:10507000074A10F80F0C002522F8101004F80E5CF7
:105080001868997A2A46FFF7BCFF04F8065C38BD19
:10509000FC210020044B53F820301BB107289CBF93
:1050A0001B681980704700BFD4020020D4E6D3E605
:1050B000D2E6084A13689B020BD5074B00211970F2
:1050C0004FF6FE730549086803400B604FF4001368
:1050D00053607047000002402E2600206C00024002
:1050E0002DE9F047664DAB686649581C0A788E4634
:1050F00002F0FF060AB10346F6E73746AB60687D6B
:105100002B6995F81480AA7D39B2202900F09C8083
:10511000DFF880C10CEB8103DC789B783CF8211030
:10512000C3F1FF039BB2002B65D04FF03C0CB1FBE9
:10513000FCF9C3F1FF0363431B12B9F1050F5DD8FE
:10514000DFE809F0030B1A293A4AE01A4143B1FBA0
:10515000FCF0DAB21044C0B251E0B1FBFCF00CFB41
:10516000101189B2DAB2C1F13C01E31A4B43B3FB2F
:10517000FCFC204694442CE0B1FBFCF00CFB10112D
:10518000E21A89B24A43B2FBFCF25FFA83F8424466
:10519000D2B2204632E0B1FBFCF90CFB191189B206
:1051A000E01AC1F13C014843B0FBFCF05FFA83F820
:1051B0004044C0B2224621E0B1FBFCF80CFB1811C0
:1051C000D8B289B2E31A01FB03F2B2FBFCFC22461F
:1051D00084445FFA8CF412E0B1FBFCF80CFB18116C
:1051E00089B2D8B2C1F13C01E31A4B43B3FBFCF2E4
:1051F0000244D2B203E02246204600E044464FEA91
:10520000042C4CEA004C4CEA020C17234FF0010826
:1052100008FA03F806F1170118EA0C0FA1EB0301D5
:10522000DFF8748014BF4FF011094FF0090989B2FB
:1052300013F1FF3308F80190E8D218360137B6B2FF
:10524000BFB2114BA0465FE72B6101238EF80030FF
:1052500040F22A33AA750D4AE9810D4985F8148078
:105260006875AE81536000238B840B889BB243F03A
:1052700001030B80136843F001031360BDE8F0875E
:10528000E01300202E260020F41300206C000240C2
:1052900000040040940700206904002001F003038B
:1052A00001F0FC0101F1804101F5803110B59B0056
:1052B0008C680F229A4024EA02028A608A68984029
:1052C00002438A6010BDF0B5B1F800E000234EFA49
:1052D00003F2D50725D58E784FEAD30CF40648BFE4
:1052E000CC7806F00F0203F0070748BF2243BF0047
:1052F00050F82C500F24BC4025EA0404BA40224345
:10530000282E40F82C2005D1C46801229A4024EAB6
:10531000020205E0482E04D1C46801229A402243CB
:10532000C2600133102BD2D1F0BD2DE9F04F1E46E3
:105330004FF414734343554D85B005F1180480466E
:105340009146E718A24610B92B44514A03E00128C0
:1053500005D1504A2B449A641032C3F84C214FF4C3
:10536000147303FB08F34C48EC180AEB030203F533
:105370009C7334325344A0616164E262236300226F
:105380004FF480714FF0010BD4F84C31032061626F
:10539000A2636263A1622264E26384F8542284F807
:1053A00050B284F85122A4F85A22A4F85C22C4F81E
:1053B00020906077A67784F85E8258681B8904F590
:1053C000A4724FF0020CADF80C3003A91023019227
:1053D0008DF80E308DF80FC0CDF800C0FFF773FFC9
:1053E000A36CDDF800C0597B58681B898DF80E103E
:1053F00003A9ADF80C308DF80FC0FFF764FF5946D4
:105400003846FFF773FC322002F0EBFE234B019A83
:105410001B68D2F804B01A46B2FBF9F1B1F5803F2F
:1054200003D3012AF8D95208F6E71D4A4FF4147441
:10543000B3FBF2F204FB08F8584689B2D2B201F08D
:105440002BFF05EB0809174B08F512780AEB080447
:105450000022C9F860325846214601F065FFD9F8AC
:10546000485016F0010F0CBF022200222868A97ACA
:10547000FFF72DFD0C4B2846C9F86432211D002290
:1054800001F052FF384605B0BDE8F08FE013002070
:10549000F0D2000810D3000814CC00084800002007
:1054A00040420F00F54E0008C55900082DE9F743AA
:1054B0008E460546DFF8A092114699F8B844006878
:1054C000164698467246631C89F8B83401F090FE7F
:1054D0002B8901A9ADF8043018238DF806306868CF
:1054E00002238DF80730FFF7EEFEAB7A09F2BC47D6
:1054F000240127442A6849460C2B00F2F680DFE895
:1055000013F00D00F400F400F4005100F400F40076
:10551000F4008A00F400F400F400C200138CDFF8F9
:105520003CC223F001031B041B0C1384138CB2F840
:1055300004E0108B624520F073004FEA00404FEA10
:1055400010409BB21FFA8EFE40F0700014D00CF594
:10555000006C624510D00CF5406C62450CD00CF527
:10556000806C624508D00CF5806C624504D023F055
:10557000020343F0030307E023F00E032EF4407E02
:1055800043F003034EF4807EA2F804E01083A2F8F7
:1055900034801384138B23F008031B041B0C43F08B
:1055A000080336E0138CDFF8B4C123F010031B04AA
:1055B0001B0C1384138CB2F804E0108B624520F4AA
:1055C000E6404FEA00404FEA10409BB21FFA8EFEC1
:1055D00040F4E04008D00CF5006C624504D023F0A4
:1055E000200343F0300307E023F0E0032EF4406E85
:1055F00043F030034EF4806EA2F804E01083A2F86A
:1056000038801384138B23F400631B041B0C43F4B6
:105610000063138369E0138CDFF840C123F48073C7
:105620001B041B0C1384138CB2F804E0908B6245AE
:1056300020F073004FEA00404FEA10409BB21FFA7F
:105640008EFE40F0700008D00CF5006C624504D06E
:1056500023F4007343F4407307E023F460632EF4F3
:10566000405E43F440734EF4805EA2F804E0908301
:10567000A2F83C801384938B23F008031B041B0CBB
:1056800043F0080330E0138CDFF8D0C023F48053DC
:105690001B041B0C1384108CB2F804E0938B20F4D1
:1056A000005023F4E6431B0400041B0C000C62456D
:1056B0001FFA8EFE43F4E04340F4405003D00CF553
:1056C000006C624503D12EF4804E4EF4804EA2F859
:1056D00004E09383A2F840801084938B23F400634A
:1056E0001B041B0C43F4006393832B7B43B1B2F880
:1056F00044306FEA43436FEA53439BB2A2F844300D
:1057000013889BB243F001031380AB7A0C2B19D89A
:10571000DFE803F0071818180B1818180F181818D6
:1057200013000B1902F134000AE00B1902F13800E2
:1057300006E00B1902F13C0002E00B1902F14000F7
:10574000C3F8BC0438460C44A4F8C464C4F8C024AC
:1057500003B0BDE8F08300BFE0130020002C01403F
:10576000026B0346C16810B5406942B11A6C8C1ACD
:10577000013A08BF0A46005D1A64C0B210BD1A6A39
:10578000805C01328A4228BF0022C0B21A6210BD7A
:10579000436B13B190F844007047836A406A1B1A48
:1057A000584258417047426A816A03698A4238BF49
:1057B000D218521A416B21B149680A44591E8A42D3
:1057C00003D2013B981AC0B2704700207047036BA8
:1057D00013B15B68016C01E0C369016A8B423CBF95
:1057E000C2689B18581AC0B27047426A806A131A7E
:1057F0005842584170474171704743799B070AD519
:10580000436A8269D154436A01690133B3FBF1F2FF
:1058100001FB123343627047427902F0020202F048
:10582000FF0342B10369426A806A013BDBB2101A8E
:1058300023EA0000704718467047437913F00103CC
:105840001FBFC36803F1FF32C369006A1DBF181A86
:105850001040C0B218467047437910B513F00103E9
:1058600004460DD0FFF7E9FF58B1236A6269E16889
:10587000D05C0133B3FBF1F201FB1233236210BDA4
:10588000184610BDF0B5046D8279A389467923F4DA
:10589000005312F0020F4FEA03434FEA13430CBFC9
:1058A00000214FF4005112F0040FA38114BF4FF4F4
:1058B000806E4FF0000E16F0010F8768054614BF8A
:1058C00004200020B307238A48BF40F008029BB29F
:1058D00023F4405343EA01032382A18948BF90B2D5
:1058E00089B221F4B05121F00C014EEA010140EAE5
:1058F0000102A281A38A87B023F440731B041B0C0E
:10590000A38201A802F094F8039B049E254A9442C6
:1059100018BF1E46A389192272431BB2002BB4BFC5
:105920007E00BE00B2FBF6F66427B6FBF7F000017E
:10593000010907FB1163A28912B2002AB7BFD9007F
:105940001A013231B1FBF7F2A7BF3232B2FBF7F3E3
:1059500002F007021043A8BF03F00F03AA79A8BF03
:10596000184380B212F0010F20812B6D06D00E4932
:105970008B4202BF042001F54841086112F0080F74
:105980009A8A0BBF22F0080292B2120442F0080277
:1059900008BF120C9A829A8992B242F400529A81FC
:1059A00007B0F0BD0038014000440040417169E794
:1059B000816067E703460A4690F84602D96A9B79F8
:1059C000FFF7B3BC38B5A0F513746379A579DB078D
:1059D00046D594F8383205F00105F3B1226B106812
:1059E000838DC3F34E03838494F83C3223B1B4F81F
:1059F00042320133A4F84232917A6A00FFF767FA23
:105A0000012384F83B32002384F8393284F83A3297
:105A100084F83832A4F8403238BD94F83B3220463E
:105A2000012B04BF94F8393284F83A32FFF73AFA7E
:105A300094F83B22236B3AB9012284F83B22186880
:105A4000997A05FA02F207E0002284F83B22954297
:105A50001868997A08BF0222BDE83840FFF737BAC4
:105A600038BD026D70B515880446ADB2A90613D5D0
:105A7000036B8BB9C36A1BB1908880B298470BE067
:105A8000E169928840694E1CD2B2E6614254E169F4
:105A9000E268914228BFE3612B0613D5636AA26ACC
:105AA0009A42236D0AD0511CA069A162825C9A803F
:105AB0002369994206D30023A36270BDDA6822F0FD
:105AC0008002DA6070BD836A8169426B1944D160DB
:105AD000416A994297BF0169CB1ACB1A536096BFAE
