:020000040800F2
:10000000005000206DAC00080DAD0008DD90000828
:100010000DAD00080DAD00080DAD0008000000009A
:100020000000000000000000000000000DAD00080E
:100030000DAD0008000000000DAD0008AB79000810
:100040000DAD00080DAD00080DAD00080DAD0008A8
:100050000DAD00080DAD0008F1820008EF82000828
:100060000DAD0008B97900080DAD00080DAD000810
:100070000DAD00080DAD0008759600080DAD000827
:10008000F38200080DAD00080DAD00080DAD0008AD
:100090000DAD00080DAD00080DAD0008ED820008A3
:1000A0000DAD00084D9400080DAD00085D940008EA
:1000B000419400083194000821940008BD2C0008E8
:1000C000C12C0008B52C0008B92C00080DAD0008A3
:1000D0000DAD00086D960008659600085D96000855
:1000E000BD7900080DAD00080DAD0008000000004E
:1000F0000000000000000000000000000000000000
:0C01000000000000000000005FF808F1A3
:100110002DE9F04F824B834C9FB0C4F898300023F8
:10012000C4F89C3005F05EF918B905F07DF906F0C9
:1001300083FA06F027FB7C4A7C4D1378A87B43F0BA
:100140000103137000230A930B930C934FF4E013F5
:100150000D93774B9A461A6842F480321A609A6976
:1001600042F010029A61DAF8003003F400330B9386
:100170000A9B01330A930B9B1BB90A9BB3F5A06F33
:10018000F1D1DAF800306A4913F4003301D00223C8
:1001900017E00A6842F001020A600A93DAF80030B8
:1001A00003F002030B930A9B01330A930B9B1BB9C9
:1001B0000A9BB3F5A06FF1D1DAF800309A0741D568
:1001C00001230C935B4B5C491A6842F010021A60E1
:1001D0001A6822F003021A601A6842F002021A60DA
:1001E000DAF80430CAF80430DAF80430CAF8043017
:1001F000DAF8043043F48063CAF804304F4B1A68CD
:10020000043B22F070425A604D4A1160DAF8041043
:1002100021F47C11CAF80410596841F0004159607A
:10022000D96821F40041D9609B681B0449BF454B44
:100230004FF4E01313604FF480130D930C9B012BCC
:1002400001D118E0FEE7022B1BD168B10D9BB3F57D
:10025000801F02D14FF4A01305E00D9BB3F5E01F02
:1002600002D14FF400130D930D99DAF804300B43CB
:1002700043F4803303E0DAF8043043F46013CAF83F
:100280000430DAF8003043F08073CAF80030DAF84E
:100290000010274B8F01FAD5596821F003015960EE
:1002A000596841F002015960DAF80430204803F03F
:1002B0000C03082BF8D14368234903F00C03042BEB
:1002C00003D0082B03D01C4B12E0136810E04368E6
:1002D0004668C3F38343F60303F1020301D41B48CA
:1002E00005E0406810F4003F106818BF4008434321
:1002F0000B60DAF804301648C3F303130344187E86
:100300000B68C3400B60EB7B003318BF012384F8FC
:10031000A0301368084A93421CD101221EE000BF9E
:10032000F7610008B8000020A8280020B4090020C8
:10033000001002400020024000127A000410014028
:1003400030000020001BB7004800002000093D00DD
:1003500098ED0008B34A934202D10222B24B1A70C0
:10036000DFF81C83B14BDFF81CB3C8F80C30DAF8A7
:100370001830AF4E43F00103CAF81830DAF82430D1
:100380000027C4F8A430DAF82430584643F08073CC
:10039000CAF82430DAF818304FF0100943F01C0383
:1003A000CAF818301EAB02934FF6FF73029A8DF80D
:1003B0004E7022F82C3D1146029208F0A4F8304607
:1003C000029908F0A0F89B48029908F09CF80223D3
:1003D0001EA98DF847304FF4007321F8343D8DF895
:1003E00046905846CBF8103008F08DF8924A0298A3
:1003F000536843F00073536006F0EEFE8F4A139B80
:100400003946B3FBF2F38E4A8E48136018220BF084
:1004100048FD8D4B4FF47A721B68DFF83CC2B3FB8A
:10042000F2F38A4A013B5360F02388F82330072314
:1004300097601360AB68DFF85082029FC8F8003005
:10044000834BCDF80CC00FCB87E80F00DAF81830DB
:10045000139843F00803CAF81830DAF8183014A9D2
:1004600043F00803CAF8183008233361C6F8109027
:1004700008F049F8159816A908F045F8D8F80030A2
:10048000CDF810B013F0080FDDF80CC013D09CF8B5
:100490008E31012B0FD86F4A9CF88F31D2F8A420EF
:1004A00012F0805B00F01D8505E06B4B002283F8A5
:1004B0008F2106F047FB642007F06DFAA022674801
:1004C00000210BF0EEFCDAF81C30002243F00703A9
:1004D000CAF81C30DAF8183043F4006343F00C0318
:1004E000CAF818305B4B4FF0000903F1A80102F87D
:1004F000019001320E2AF5D1FF2283F8B62083F84D
:10050000B72083F8B82083F8B920554B554A49469F
:100510001A6055483C22D8F800600BF0C2FC4946EE
:10052000C6F380170523514ADFF83CE1885C0C22B2
:100530004A4302F80E0047B91E3801289FBFFF202A
:1005400003F1FF3302F80E00DBB201310529EAD1D5
:10055000474A95F805901370464BB106C4F8BC3075
:1005600003F1C003C4F8C030434B3A4A03EBC9035C
:100570005B7848BF0123C2F8C43000213F481C22E9
:1005800084F8BA900BF08DFC16F4005BDFF8FC8069
:1005900006F4006108D151B195F8822108F10C03ED
:1005A000012A08BF434604E0CDF80C8002E008F1C0
:1005B0000C0303931E4BB9F10E0F0F93039B5B8843
:1005C000ADF84030039B1B88ADF842300FABC4F848
:1005D000E03004D009F0EF09B9F1080F02D101238E
:1005E00084F8DA300120059107F068F9C6F340037A
:1005F0001BF1000B059984F8CE3018BF4FF0010BAA
:10060000C6F3C03384F8CD0084F8D07084F8C8B045
:1006100084F8CB3000293BD095F882315F1E7B42B5
:100620007B4136E0001BB700FA2900200005FA05DF
:10063000000C0140001001400000014040420F004A
:1006400034250020781D00204800002010E000E044
:10065000C0ED0008B8000020B4090020AC2700203D
:100660002C250020A40B0020F0240020F401010818
:10067000EC240020C40900207CFF00088001002039
:1006800000ED00E000080140C411002098ED0008D2
:100690000B4684F8CC30C6F3004384F8D130C6F35F
:1006A000402384F8D230D4F8C430B5F84401003384
:1006B00018BF012384F8D330C6F3005384F8D43034
:1006C000B5F8463106F00101A4F8D830B5F852313A
:1006D000C6F3C002A4F8D630C6F38043F604A4F8EB
:1006E000DE0048BFB64884F8CF3048BFB0F84C6150
:1006F000B5F8503148BFB348A4F8DC3048BFA0F883
:10070000DE60B3F5FA7F84BF0023A4F8DE3095F8ED
:10071000D231AD4884F8E430002384F8E5304370EA
:1007200094F8DA3084F8C910002B84F8CA200CBF82
:100730000023022301B902B1013308EB83039B6B51
:100740009A1E1A330793002306920593069BDFF83F
:1007500074B233F8024F06934FF6FF739C4200F0D9
:100760008C819BF8CD20E3B2240AE5B21AB19A1E1F
:10077000012A40F27D819BF8D02032B193491A01C1
:100780008958934A914200F073819BF8D10030B1AF
:100790008E491A0189588E4A914200F069819BF86E
:1007A000CE2052B18949049E01EB03114A68B2423E
:1007B00003D10A89102A00F05B819BF8CB2052B14B
:1007C0008249049E01EB03114A68B24203D10A89AF
:1007D000022A00F04D819BF8CC2052B17B497D4E1E
:1007E00001EB03114A68B24203D10A89022A00F0E0
:1007F0003F81DBF8E0607EB1744F326807EB03178E
:100800007968914208D13A89B188914200F03081EB
:10081000F188914200F02C81022C02D19BF8C82073
:1008200003E0012C04D19BF8C920002A00F02081AC
:100830009BF8D320654C1E0162B1624A92F8DA201F
:1008400042B9A3F10802012A04D8A25962498A4296
:1008500008BF04259BF8D42034445AB1594A92F871
:10086000DA203AB910B10C3B012B01E0043B032B19
:1008700040F2E780012D44D1DFF85091FF238BF83F
:100880002C318BF82D3109EB06035A7B586803F1A4
:1008900008081B890027ADF84C3013A902238BF8F8
:1008A0003071CBF83C418DF84F308DF84E208BF8ED
:1008B000E870CBF8EC70CBF8F070CBF8F470CBF8B4
:1008C00028718BF82E718BF82F7107F01CFE59F8E8
:1008D000060098F802103A4603F00FFC204639460D
:1008E0002A4608F017FE3D4B3D49CBF840313D4BC1
:1008F000CBF84871CBF8443120460A1D08F052FE6F
:10090000B6E0022D4CD19DF814204FF01C0C0CFBCE
:1009100002FC2C4B002703EB0C0808939DF81430C5
:1009200088F8327188F831314FF0010388F830319E
:10093000264B88F83A719A19517B506802F10809E0
:1009400012898DF84E10C8F83C4113A9CDF824C087
:10095000ADF84C208DF84F5007F0D5FD1B4B99F8A2
:10096000021098593A4603F0C8FB20463946012246
:1009700008F0D0FD1C49089BDDF824C0C8F84011E0
:100980001A496344C8F8441103F5A071C8F84871C6
:1009900020460A1D08F006FE059B0133059367E01B
:1009A000032D4CD19BF8CF20064B9BF8E660104DF1
:1009B00002B3204608214FF6FF72002333E000BF48
:1009C000B4090020B80000209D0100209CFE000812
:1009D00000040040000C0140002C0140118100087F
:1009E000F8010020F181000835820008E980000844
:1009F00098250020B3F8DC20B3F8DE30B2F5FA7F9A
:100A00000BD98E492046B1FBF2F2082192B207F0D1
:100A1000ACFD8B4B45F826000AE08A492046B1FB25
:100A2000F2F2012192B207F0A0FD874B45F82600B3
:100A3000C3609BF8E63001338BF8E63018E0042DF4
:100A400016D1BBF8D6207F4B204693FBF2F2012152
:100A5000BBF8D83092B29BF8E55007F086FD9BF8C2
:100A6000E5300BEB85050133C5F810028BF8E53056
:100A7000069B079A93427FF469AE744B744C1A68D4
:100A8000984612F4802F02D1012384F83032714A43
:100A9000714E1378714843F00403137033784FF4A8
:100AA0008052022B34BF142310238DF84E304FF0A8
:100AB00002038DF84F30DAF81830ADF84C2043F0CF
:100AC0000403CAF8183034BF0025012513A907F024
:100AD0001AFD634B0DB1634A00E0634A00201A60BF
:100AE00006F06EFF614B624D93E80300029B4FF0EE
:100AF000030983E80300DAF81830139843F0080379
:100B0000CAF8183014A907F0FEFCDAF81C302846A1
:100B100043F48043CAF81C30DAF81030029943F4E9
:100B20008043CAF8103018238DF84E304FF420431C
:100B3000ADF84C308DF84F9007F0E5FC4FF0040C09
:100B40004FF48043284602998DF84EC0CDF810C06E
:100B50004FF48057ADF84C3007F0D5FC10230299C4
:100B600028468DF84E30ADF84C7007F0CCFCDAF822
:100B70001030322043F48043CAF81030DAF81030D5
:100B800023F48043CAF810303A4B1A8802F44152D9
:100B900042F4457242EA09021A809A8B22F40062FA
:100BA0001204120C9A8307221A821A8892B242F017
:100BB00040021A809F232F618DF8443000238DF866
:100BC00045308DF846308DF8473006F0E4FEDDF80C
:100BD00010C06F616246029811A902F0CDF82F6132
:100BE0009DF84E309DF84D201B0243EA02439DF8CC
:100BF0004F201343204A934212D0322006F0CBFEFE
:100C00006F61F52002F0EEF8FF2002F0EBF870289B
:100C10002F6105D13378022B04BF0F4B83F800906E
:100C20003378032B0CBF1F20022006F0C7FD33785A
:100C3000032B23D0012004F0E3F824E000127A0013
:100C40001182000840420F0001820008C4110020F8
:100C5000B8000020A8280020FA2900200008014040
:100C6000E4290020A9760008BD760008E0ED000820
:100C7000000C01400038004015202000022006F042
:100C80001DFE0028D6D0D8F80050DFF8E0924FF0D3
:100C9000100A05F4004309F2312000215246029364
:100CA00036780BF0FEF84FF6FF73ADF844300223B0
:100CB00005F400674FF000081D408DF846308DF8B0
:100CC000478010D01EA921F834AD9E4806F036FCAE
:100CD000042389F831320125072389F8328289F803
:100CE000335289F83432029B93B102231EA921F8B2
:100CF000343D944806F022FC0123EA1884F835328A
:100D000084F83732072384F8365284F83832D5B263
:100D1000012E13D920231EA921F8343D894806F05D
:100D20000DFC0523012284F8393284F83B226B1C28
:100D3000072284F83A5284F83C22DDB29FB10223A4
:100D40001EA921F8343D804806F0F8FB0923012252
:100D500084F83D3284F83F226B1C072284F83E520F
:100D600084F84022DDB2794E79487368002443F458
:100D700040437360736943F001037361B36943F4E3
:100D80000073B36103F063FE13A803F035FE714BEB
:100D9000012D1393704B0796149394BF2346802321
:100DA00018934FF4807319934FF48063A6F6F87686
:100DB0001A93202313A91B9330464FF40053169522
:100DC0001C93159417941D9403F023FE3368634A13
:100DD00043F0010333605368012D23F4702394BF63
:100DE0000021012123F4807343EA012353609168B9
:100DF0005B4B013D0B4043F4602343F002039360DF
:100E0000D36AEDB223F4700343EA0555D56201239A
:100E100054490A19907800284ED0605C591C092862
:100E2000C9B2D2784D4E0ED9A0F10A05F76805EB8C
:100E300045054FF0070E0EFA05FE27EA0E07AA40F9
:100E40003A43F2600BE0376900EB400E072505FAE4
:100E50000EF527EA050502FA0EF22A433261062B47
:100E60003E4D0CD8013B6E6B03EB83031F229A406F
:100E700026EA020200FA03F313436B631BE00C2B18
:100E80000CD8DA1F2F6B02EB82021F23934027EA54
:100E9000030600FA02F333432B630CE0A3F10D02C7
:100EA000EF6A02EB82021F23934027EA030600FA4F
:100EB00002F33343EB620B460434102CA8D1274BCA
:100EC0009A6842F480729A609A6842F001029A60CD
:100ED0009A6842F008029A609968204A080747D544
:100EE000FAE7013B092B3FF6E6AA1F4BC6F8149020
:100EF000986E029B18601946049807F004FB049B47
:100F00003C201A460823136106F045FDC6F81090F0
:100F10005E4695F88F319E42BFF6C7AA049BDFF864
:100F200028900827C9F8107078205F6106F028FD26
:100F3000049BC9F8147078201F6106F021FD01366A
:100F4000E7E700BF00080140000C0140001002402C
:100F5000080002404C240140FA0200200024014015
:100F6000FDF7F1FFE9020020C0ED0008B800002005
:100F7000936843F004039360B44B9A685107FBD421
:100F80009A6842F4A0029A60B14BB3F85801002865
:100F900040F0F286B3F95A21002A40F0ED86B3F909
:100FA0005C31002B40F0E886AA4D2B689A0301D5EE
:100FB00001F088FFA84CA64ED4F84C72B6F8600138
:100FC000B7F9567096F85F1196F8672196F8683170
:100FD000009703F0AFF810B9012006F0F7FC9F4A24
:100FE0000A27137843F0020313709D4B10225A61B5
:100FF00008221A61DFF868821920D8F80C30013F06
:1010000083F01003C8F80C30D8F80C3083F00803D4
:10101000C8F80C3006F0BFFC012006F0D1FC192006
:1010200006F0B9FC002006F0CBFC17F0FF07E1D179
:1010300008234FF010098B4FC8F81030C8F81090F3
:101040003B681B0709D5884BC8F814901B68984764
:10105000864B0122C8F810901A70854B188809F049
:1010600041F8DBF850328046187B09F03BF88149A3
:1010700009F08CF8804908F081FF05F069FA014613
:10108000404609F083F80CF033F97C4B4146188058
:101090007B4809F02FF97B4909F02CF97A4BCBF802
:1010A00054027449D86809F071F8784909F06EF86B
:1010B0007749B6F84E31774ACBF85C12DBF84CE250
:1010C000CBF86412B6F89411ABF8603200231380A9
:1010D0009370CBF858020EF179028BF868321FFA40
:1010E00081FCDFF8E0816C48D8F80090DFF8D8A1E7
:1010F00009F5967920F813C04AF823900133122B92
:10110000EFD1D5F800900EF1C90E19F4805F08BF39
:10111000B6F89AC1A0F806C01378B3B9937892F8DC
:1011200003C0634511D20BB1013B01E00CF1010397
:1011300003EB830392F801C003EB830303F56173B0
:101140009BB20CF1040C20F81C3004327245E3D140
:1011500019F0080F00F0078196F88E31062B00F287
:10116000FB80DFE803F004070E3551B3B30045F20E
:10117000F05301E042F6F823A4F8B43202F010FB79
:10118000E9E042F6F8230901A4F8B4320A2391FBFE
:10119000F3F10023A1F5B061404A42F82310013376
:1011A000122BF9D13E4A3F49402011603E4A13704C
:1011B00006F0A8FB002800F0CF8001234FF0070ABB
:1011C00090F9000040218DE80804384A384BBDE012
:1011D00042F6F823374AA4F8B432314B40201A6063
:1011E000314B10221A7006F08DFB002800F0B480FD
:1011F00001234FF0000990F9000040218DE808021A
:101200002D4A4FF4E133A1E042F6F8232B4AA4F82B
:10121000B432234B40201A60234B08221A7006F088
:1012200071FB002800F0988001234FF0000C90F92A
:10123000000040218DE80810214A4FF4E13306F008
:10124000EBFA054BC3F8B80282E000BF002401406E
:10125000B4090020C4110020B8000020A8280020F4
:10126000000C0140CC110020B41D0020F00800202B
:101270000000002035FA8E3CDB0FC93FD61100205C
:101280000AE81C4100401C46001D0020BD37863581
:101290003A0B00201C1200206C090020DC230020E7
:1012A000180000208B6C0008D8110020096F00087E
:1012B000A0860100876C00085D6E0008836C000842
:1012C000116E0008A80900202403002042F6F8222D
:1012D0006A49A4F8B422062B4FF00C02DFF8D4C1FF
:1012E000DFF8D4E166480A7010D000238CF8003093
:1012F0008EF800300370634B1B211970624B4FF462
:10130000E1391A70614B05221A700EE0002101705C
:101310008CF800108EF800105A49212008705A49A4
:10132000DFF898910A70594A1370594A594B402076
:101330001A6006F0E7FA78B101234FF0000E90F939
:1013400000008DE808404B46534A402106F064FAFD
:10135000003018BF012030B9B368504A23F00803A9
:10136000B3604C4B1A602B68444A13F4804F1FBF84
:10137000122111704A48474918BF086042F2010122
:10138000194099B144F620619804A4F8B41241BF01
:101390000821117043483F4948BF0860D90741BF41
:1013A0000C21117040483B4948BF086011781B066A
:1013B000A1F10401517040F19A80DFF804914FF0DF
:1013C000000ADFF800B1394851461522C4F8BCB212
:1013D00089F801A0C9F804A0C9F808A00AF061FDC5
:1013E000ABF10503C4F8C032D8F800300220C9F8C8
:1013F0001830D8F8003089F800A0C9F814A089F88E
:101400001CA0C9F80C3006F07DFA88B390F805E00E
:1014100099F80130264A0C2101FB032191F8511063
:10142000714504D00133DBB2042BF3D9002389F8D2
:10143000013096F8EB314FF00C0E002B99F801308B
:1014400018BF03210EFB032208BF01214FF0000942
:1014500090F9000092F851300091CDF804900221EB
:101460004A4606F0D9F9DFF858A0C4F8C40258BBC0
:10147000B36823F08003B36031E000BFD8110020CF
:101480004424002046240020D923002047240020A3
:10149000C96B000818000020F16C0008DD6C000822
:1014A000B96C0008CD6C0008BD6C00080412002067
:1014B00098ED0008DA2300204524002090D0030096
:1014C000E4110020A40B002001238AF80030D8F892
:1014D0000030CAF81490CAF818308AF81C90D4F872
:1014E0004C0200F5C573C4F8C83207F04FFF039BE8
:1014F0000426C4F8CC32079B4FF0030B9A69C54809
:1015000042F001029A61039B0EA91A888DF83A6095
:10151000ADF838208DF83BB006F0F5FF039BBD48D1
:101520005A880EA9ADF838208DF83A6006F0EBFF26
:10153000039B0120197A06F0D1FF039BB6495A6834
:101540004FF010034A6100264FF0010813A81392D0
:101550008DF851308DF850608DF8528005F0B0FF55
:10156000039B11A85A7A8DF845B08DF844208DF868
:1015700046608DF8478001F0E1FBA84A84F8E062FC
:101580001268DFF8BC923C3AC4F8D0223A68DFF81F
:10159000B4A242F010023A604FF0FF32C4F8D422F5
:1015A0009F4AC4F8D8228032C4F8DC222A68D403C7
:1015B00040F1B08040F22A3707F090FE09F2E129AD
:1015C00007F0C4FE07F0ACFE09F8018C31463A463C
:1015D00048460AF066FCDAF81820924842F0040205
:1015E000CAF818204022ADF838200EA918228DF82C
:1015F0003B208DF83AB005F0A1FFDAF81C208A49AB
:1016000042F00202CAF81C20884A894C1268DFF8AE
:1016100038B2B2FBF1F22188013A21F45C7109047D
:10162000090C218092B21D21A1852285A4F8148085
:10163000228C22F001021204120C2284228CA08837
:10164000218B22F0020221F0730109041204090C1B
:10165000120C41F0600180B242EA0802A0802183AE
:10166000A6862284228B584622F008021204120C0D
:1016700042F008022283B4F844206FEA42426FEA43
:10168000524292B2A4F84420DAF8142042EA080246
:10169000CAF8142003F0DBF913A803F0ADF9654B89
:1016A0005846139310231593802318934FF4807397
:1016B000199313A94FF400531C93CDF8509016972B
:1016C00017961A961B961D9603F0A3F9A38911A8E5
:1016D0009BB243F40073A381DBF8003043F00203B4
:1016E000CBF800304FF010038DF845808DF8443072
:1016F0008DF846608DF8478001F020FB4E4B1A684C
:101700004E4B43F826200136202EF7D106F008FE76
:1017100006F006FE2B68580540F16081484C042015
:10172000D4F88C664FF07C0AC4F8906606F0EAF8AC
:1017300004218046C4F8940606F0DAF8074684F8D7
:1017400098060820C4F89C6606F0DCF80821C4F866
:10175000A00606F0CDF8002184F8A4062C2204F29D
:10176000A5600AF09EFB8E232C22002184F8A63669
:101770004FF07D09E02304F2D16084F8A83684F8A4
:10178000A5A684F8D0960AF08CFB8A2384F8D2367A
:101790001020A02384F8D43684F8D1A684F8FC96CF
:1017A000C4F8006706F0AEF81021C4F8040706F08C
:1017B0009FF884F808072020C4F80C6706F0A2F808
:1017C0002021C4F8100706F093F884F8140738466F
:1017D00004F01CFC94F81537074683423ED0A8B3AA
:1017E000B8F1000F3AD0022398F900000093737803
:1017F0000421003318BF0123019300224FF4165334
:1018000006F00AF8C4F8180740B3012384F8153726
:1018100024E000BF000C014000040140A8090020A2
:10182000E00B00200008014000366E014800002057
:10183000000400403404004024EE0008C4060020E8
:10184000B8000020001002406C000240D4F81807D5
:1018500005F0CCFFC4F8187784F8157794F8A4063F
:1018600004F0D4FB94F81C37B94E834207461AD0D3
:1018700088B1D6F8A036B3B10022012793F9000051
:101880000821009701924FF4964305F0C5FFC6F872
:10189000200730B907E0D6F8200705F0A7FFC6F803
:1018A000207786F81C7794F8080704F0AFFB94F8CB
:1018B0002437A74E8342804659D0002837D0D6F827
:1018C0000427002A53D0D37992F90000002B4FF05F
:1018D0000202A04F08BF03230092002257F82330D2
:1018E0000192102105F098FF0746C4F82807002848
:1018F0003DD096F84A30022B0BD096F89620022A5B
:1019000001D14C3605E023B1002A06F14C0618BF80
:101910000026C4F82C6746B1304600214C220AF05C
:10192000C0FA0223376086F84A3001231DE0D6F85A
:1019300028773368BB4207D1384605F057FF304659
:1019400041464C220AF0ADFAE36CBB4207D138465F
:1019500005F04CFF804800214C220AF0A2FA3846DC
:1019600005F044FF0023C4F8283784F8243794F89E
:10197000140704F04BFB94F83037754E834207464A
:101980002CD008B3D6F8103743B3D6F80C2793F908
:10199000000052780323002A0CBF0822092200937A
:1019A0000192202100224FF4614305F035FFC4F875
:1019B000340798B1012386F8383786F83037674BFB
:1019C0001B68C6F83C3709E0D6F8340705F00EFF6F
:1019D000C6F8347786F8387786F83077604B614CF4
:1019E0001B78022B64D1604A00261388322023F032
:1019F00040031B041B0C138013884FF4805723F003
:101A000038031B041B0C138013889BB243F0400364
:101A100013809F238DF844308DF845608DF8466023
:101A20008DF8476005F0B7FF8DF84D604F4E0422EA
:101A3000776113A811A901F09FF937619DF84E3025
:101A40009DF84D201B0243EA02429DF84F3013439C
:101A5000474A934219D00AD8A2F51A42033A934250
:101A60000CD002F51A420232934209D01BE0414ADF
:101A7000934205D00132934207D014E0202300E0C6
:101A80008023A3804FF4807302E04FF48073A3801F
:101A9000E3802389A2881B02E36053432361364B12
:101AA00001221A7004E00023A380E380E360236135
:101AB0002369002B00F00D814FEAD328C1464FF077
:101AC000000AC2452CDA0AEB08077F10FB0203224A
:101AD0008DF8442000261A0C1B0A8DF845208DF83D
:101AE00046308DF8476001F0BFF9C8B11F4B4FF485
:101AF000805CC3F814C011A9042230460DF14C0BD0
:101B0000CDF80CC0029301F037F958463146102247
:101B100001F032F9029BDDF80CC0C3F810C00BE0F5
:101B20000B4E4FEAC923039396F8412796F84037A6
:101B3000934200F0CB8021E05BF82630013340F087
:101B400017810136042EF7D1B846B946B9E700BF70
:101B5000B8000020E0FA000804010020A8090020D5
:101B6000FA2900200000002000380040000C01404D
:101B700018BA20001740EF00AC09002006F24271AD
:101B8000C8189A421190129108D3D31A13930023C4
:101B90001493139B149A02EB03095BE0C3F18003D7
:101BA00013931492F5E7D6F8C4875FFA88F709EB28
:101BB0000703B3F5807F23698CBFC7F580774F4655
:101BC00098457ED20223DFF8D0A28DF838304FEA54
:101BD00018434FF4805B8DF839304FEA18238DF8A5
:101BE0003A308DF83B8001F03FF9CAF814B0062076
:101BF00001F0F8F8A74B0122CAF810B000201A70C3
:101C00000EA9CAF814B0042201F0B6F8DDF84CB001
:101C1000BBF1000F22D0BB4531D2119B00201946E9
:101C20005A46029301F0A8F8029BCBEB070A03EB9C
:101C30000B01002311911393DDF850B0BBF1000F9D
:101C40000ED1954B4FF48052C7EB090947441A61F6
:101C5000C6F8C477B9F1000FA5D132E0BA46EBE778
:101C6000D34511D2DDF848A0002051465A4601F074
:101C700083F80AEB0B01002312911493E1E7BA46B3
:101C80004FF0000C13AB02E014AB4FF0040C0DF15D
:101C9000440B05935BF80C30524619460020CDF8F2
:101CA00010C0029301F068F8029BDDF810C003EB4E
:101CB0000A02059B4BF80C201A68CAEB02021A6054
:101CC000BFE7002386F8413786F84037039BC6F804
:101CD000C4372B68714C13F4002318BF012384F818
:101CE000C83705F031FE6E4B4FF47A7118606D4BBA
:101CF0005A79052A04BF4FF4C872A4F8CA276A4A61
:101D000011806A4AC821118069490A7842F00802A4
:101D10000A7068490A7822F002020A7040F602024C
:101D200029680A406AB16448644A1060644A032022
:101D30001070644A012010700022A4F8CC27A4F887
:101D4000CE278A0341BF604A04211171D1789B6874
:101D500044BF41F00101D1705C4A2B60012384F83B
:101D60003032137863F07F0313701FB0BDE8F08F3B
:101D700007F1010A4F46E8E6554B00221A7000B2FF
:101D800008F0B0F9534908F001FA464C0646B4F998
:101D90005A0108F0A7F94F4908F0F8F90546B4F9D7
:101DA0005C0108F09FF94B4908F0F0F94A490446F4
:101DB000304608F0E3F804F0CBFB8046304604F0F0
:101DC000C7FB45490646284608F0D8F804F0C0FB92
:101DD0000746284604F0BCFB3F490546204608F06C
:101DE000CDF804F0B5FB8246204604F0B1FB414635
:101DF0008146504608F0CAF941460290484608F02C
:101E0000C5F951460490304608F0C0F9494605909E
:101E1000304608F0BBF939460690504608F0B6F94E
:101E20002E4C4946206007F1004008F0AFF92946E2
:101E30006060A560059808F0A9F90146049808F0CB
:101E40009DF82946E060069808F0A0F9014602983E
:101E500008F092F83946206106F1004008F096F942
:101E600029466061029808F091F90146069808F049
:101E700083F82946A061049808F088F9014605987E
:101E800008F07CF84146E061384608F07FF92062AE
:101E9000FFF78AB8AC090020000C0140B800002010
:101EA000AC080020B4090020F4290020F629002005
:101EB000E1110020F82900202C0B0020C81100207F
:101EC000D82400203C000020B0110020A8280020C9
:101ED0001400002035FA8E3CDB0FC93FBC080020FF
:101EE0002DE9F04F87B06C4C02916C4922880E6846
:101EF0000546C2EB26135B435200C2EBE602B4F97F
:101F000002601B135643B4F90420B4F90A0053438A
:101F10009B1303EBE62606EB860380331B12B6F514
:101F2000FA384FEAE67704934B6847F1FF39A8FB8C
:101F300008AB039308FB09F3B4F908200BEB430B40
:101F4000E389A6610593D31708FB03F102FB09118E
:101F5000A8FB02230B44C1171F030AFB01F300FB7C
:101F60000B33AAFB00011603194447EA1257020A71
:101F700042EA016292194FEA2123E6887B4100324E
:101F8000A2FB060143F5004306FB03114B1000932F
:101F9000CB170193DDE900231343B4F810E0B4F844
:101FA0000CC06DD00FFA8EF0C1170AFB01F1AAFB2D
:101FB000002300FB0B11BDF914600B44F71708FB5D
:101FC00007F106FB0911A8FB06670F4479047004AA
:101FD000801841EAD6315941039B0FFA8CF8C3F5BA
:101FE000801E7246D317002212184FEACE764FEAAF
:101FF000C3774FEAC8034B4147EA5E07B61A67EB5F
:10200000030740F63543A6FB030103FB0711DDE997
:10201000002308F0C7FAB4F916204E1302FB06FE9F
:10202000470B47EAC147D31707FB03EEA2FB072381
:102030005643734407FB0366A2FB07233344560E43
:1020400046EAC3168219B4F914604FEA636741EB9C
:1020500007037143F71700FB0717A6FB000139447C
:10206000C60C46EA413692194FEAE1474FEA12217F
:10207000B4F912207B4141EA036113010B4400E0F3
:1020800000230DB11B0A2B60029B13B11A46049B5F
:10209000136007B0BDE8F08F941D002044090020B4
:1020A000704770476B4B6C4A2DE9F04F5E8994681E
:1020B0004FEA062AB4EB0A0A9C884FF000054FEA63
:1020C00004481C894FF0000BA4FB0A6765EB0B0B5F
:1020D00004FB0B77F40944EA476418EB04065C88B8
:1020E0004FF000094FEAE7154FEAC438DC8849EBA6
:1020F000050787B0CDE90467A4FB0A6704FB0B77EB
:10210000340A44EA076418EB04064FEA27259C8941
:102110004FF0000949EB0507CDE90067AAFB04670A
:1021200004FB0B77F40D44EA472414F5FA664FEAF2
:10213000E75545F10007B6F5FA6F77F10003CDE9F1
:102140000267964666DADDE90489A4FB046704FBAE
:1021500005F34FF0050C07EB4307A6FB0C230CFB24
:1021600007335F104FEA3206B8EB06084FEA9206D3
:1021700046EA837669EB07099F10DDE90023921B8D
:1021800063EB0703CDE90023DDE90267334A4FF033
:10219000FF33964277EB0303CDE9048927DA40F653
:1021A000AC520023A4185D4104FB05F3A4FB0445D5
:1021B0006FF0060205EB4305664202FB0566A4FBD1
:1021C0000223334418EB020649EB0307CDE9046709
:1021D0000B26A4FB062306FB0533DDE900455B1057
:1021E0004FEA3202A41A65EB0305CDE90045DDE9AB
:1021F00002450AFB0BF3AAFB0AAB0BEB430B4FEABE
:10220000DA7242EA4B02A41A4FEAEB7365EB03055C
:10221000CDE90245DEF80C40009B019DA4FB0323A1
:1022200004FB05334FEA525848EAC3284FEA635982
:10223000DDE90423B8EB020269EB03039946D30BF3
:1022400043EA494300B1036009B1029B0B6007B048
:10225000BDE8F08F281D00204409002024FAFFFF6C
:102260002DE9F041324C334D62892B8AB4F9048058
:102270009A1A2389B4F902E05A43B4F91230D613FA
:10228000B4F91420DB02324493FBF2F232440A2602
:10229000E2615643A2F57A6202FB02F3B4F90EC082
:1022A00002FB0EFE02FB08F2B4F90C801B130CFBC0
:1022B00003FC03FB08F31B1403EB62320232E388D6
:1022C000921002F5004253434CF25032B4F92070A0
:1022D0004FEAEE2EB4F900400EEBEC2C0CEB84042C
:1022E000BC406D690234A5EBA4043A4162434FEA55
:1022F000D3384EBFB2FBF8F35400B4FBF8F340F60A
:10230000DE3448BF5B001A12524362430A4C08365F
:102310005C43241404EB224202F6CF62361103EB35
:10232000221300B1036001B10E60BDE8F08100BF6F
:102330003C1D00204409002043E3FFFF13B50C4B74
:1023400004465B681B20022101AA984770B19DF8E2
:1023500004209DF8053043EA022303F54E53103361
:102360004FF48C7293FBF2F32333238002B010BD41
:10237000141D002037B5104B04465D6818780621FF
:102380006A46A847A8B19DF800209DF801300120B9
:1023900043EA022323809DF802209DF8033043EA9C
:1023A000022363809DF804209DF8053043EA022350
:1023B000A38003B030BD00BF141D002013B5104B27
:1023C00004465B683B2006216A469847A8B19DF801
:1023D00000209DF80130012043EA022323809DF86C
:1023E00002209DF8033043EA022363809DF8042015
:1023F0009DF8053043EA0223A38002B010BD00BF60
:10240000141D0020B0F5807F0ED0BB280ED86128A7
:102410000ED829280ED813280ED809280ED800283F
:1024200014BF06200020704700207047012070472D
:102430000220704703207047042070470520704732
:10244000054A08B5138801339BB21380034B1878F3
:1024500002F0D6FC002008BDDA240020C41D0020B4
:1024600008B54FF4804005F05BF8012801BF044B2C
:102470004FF480425A61034B08BF187608BD00BF75
:10248000000401404409002010B5054C2368186978
:1024900005F046F818B123681A69024B5A6110BD5D
:1024A000201D002000040140F8B50E461746084CD8
:1024B0004FF48055656140F0800000F093FC384691
:1024C0000021324600F058FC25610120F8BD00BF14
:1024D000000C014070B50E46054C4FF48055656107
:1024E00000F080FC304600F07DFC2561012070BDCD
:1024F000000C014070B5FFF785FF104C0546192010
:1025000005F049FAA36815200021984710B9022068
:1025100005F05CFA45F01801A368C9B21620984787
:10252000A368002117209847A36801213D20984700
:10253000A3683E200121BDE870401847141D00200B
:10254000F0B5274D85B06B7E002B46D1254C236816
:10255000002B42D01A68244E12B1B1690A43B2610D
:102560009A889868ADF8002002228DF80320694609
:1025700004228DF8022005F0C6FFB369002743F05E
:102580000103B36123680126187B197D05F0A6FFBE
:102590002368164993F9150005F062FA2368144A76
:1025A0001B695361029308230DEB03008DF80D3076
:1025B0008DF80C708DF80E6004F082FF236801A87E
:1025C0005B7D8DF806708DF8043003238DF805309F
:1025D0008DF8076000F0B2FB6E7605B0F0BD00BF6D
:1025E00044090020201D002000100240892400081A
:1025F0000004014037B50446FFF7A2FF254B1A68D7
:10260000254B9A420ED14FF40053ADF8043002230B
:102610008DF80730042321480DEB03018DF80630B7
:1026200005F071FF2046FFF7EDFE05461C4C8021AA
:10263000A3686B209847642005F0ADF9A3680721D3
:1026400068209847642005F0A6F9A36800216B2054
:102650009847642005F09FF9A36801216B209847F3
:10266000A36818211B209847A36810211C209847B5
:10267000A36829461A209847A36800211920984783
:10268000A368122137209847A36801213820984772
:1026900003B030BD30000020001BB7000010014027
:1026A000141D002008B5FFF74BFF024B4FF480527A
:1026B0001A8008BD0000002070B50446FFF740FFF7
:1026C0002046FFF79FFE0546144C8021A3686B202F
:1026D0009847642005F05FF9A36800211920984706
:1026E000A36803216B2098470F2005F054F9A368D5
:1026F00029461A209847A36818211B209847A368E9
:1027000010211C209847A368022137209847A3680E
:1027100038200121BDE87040184700BF141D00207B
:1027200008B5FFF70DFF074B5B7813B1012B03D002
:1027300008BD4FF4006201E04FF48052024B1A8052
:1027400008BD00BF101D00200000002010B5400093
:10275000204CC0B220702048204C0170204800213D
:102760000170012020701F4C23601F4C23601F4B01
:102770001A701F4A1F4B107019701F4908681146C4
:102780001A4630B383889C0515D40388DB050DD425
:1027900047F230530488A40502D5013BFAD112E078
:1027A0008BB103889BB243F48073038083889BB210
:1027B00043F44073838047F23053087810B1013BF3
:1027C000FBD100E013B9BDE8104039E6107880F085
:1027D000010010BDCA1D0020C81D0020C61D00201C
:1027E000D01D0020CC1D0020D41D0020C91D0020BC
:1027F000D81D0020D91D0020C01D002007B5F721DD
:102800006B4606227620FFF7A1FF9DF800309DF869
:1028100001101B0343EA01139DF80210094A43EA21
:10282000111353609DF803309DF804101B0343EA15
:1028300001139DF8051043EA1113136003B05DF80E
:1028400004FB00BF4409002007B5002101AB0322AF
:102850007720FFF77BFF9DF805309DF804001B02F1
:1028600043EA00439DF80600184303B05DF804FBFB
:1028700008B5FFF7E9FF014BD86008BD4409002007
:1028800008B5FFF7E1FF014B986008BD440900203F
:102890000F4B13B51B780F4C0BB1237EB3B1032242
:1028A00001AB7720F621FFF751FF9DF805309DF829
:1028B00004201B0243EA02439DF806201343064A04
:1028C000B2F92020C2F10802D340636102B010BD0A
:1028D0001C000020440900203C1D00200A4B13B5B9
:1028E0001B780A4C0BB1237E63B1022201AB772027
:1028F000F621FFF72BFF9DF804209DF8053043EAF1
:102900000223238202B010BD1C00002044090020D5
:1029100030B505460C46134629462246BDE83040F0
:10292000682013E713B50622044601211C206B46DC
:10293000FFF70CFF08B39DF801309DF8002004213B
:1029400043EA022242F38D0292FBF1F29DF802303B
:1029500022809DF8032042EA032242F38D0292FB7B
:10296000F1F29DF8043062809DF8052042EA0323CD
:1029700043F38D0393FBF1F3A38002B010BD13B5B5
:1029800006220446022118206B46FFF7DFFEB8B18D
:102990009DF800309DF801209B0803EB0223238063
:1029A0009DF802309DF803209B0803EB022363800F
:1029B0009DF804309DF805209B0803EB0223A380BB
:1029C00002B010BD314B2DE9F3411B780546002BB9
:1029D0003BD0002426462746A0460134532032210E
:1029E00008226B46E4B2FFF7B1FE08B9002049E0C7
:1029F0009DF801209DF80030202C03EB02231BB230
:102A00009DF8032098449DF8023003EB02231BB28B
:102A10001F449DF805209DF8043003EB02231BB2F0
:102A20001E449DF8073003F07F0301D0002BD4D162
:102A300098FBF4F897FBF4F796FBF4F6144BA5F823
:102A400000806F80AE809C761CE0532032210622ED
:102A50006B46FFF77BFE0028C8D09DF801209DF84B
:102A6000003003EB02232B809DF803209DF80230F9
:102A700003EB02236B809DF805209DF8043003EBE7
:102A80000223AB8002B0BDE8F08100BF261D00200C
:102A90004409002013B502AB03F8012D4000214A80
:102AA000C0B21070204A00201170204901220A7023
:102AB0001F4908701F490B601F490B601F4B2049BD
:102AC0001A700A701F4B204A187010681A4630B3EB
:102AD00083889C0515D40388DB050DD447F2305359
:102AE0000488A40502D5013BFAD112E08BB103881A
:102AF0009BB243F48073038083889BB243F440739A
:102B0000838047F23053087810B1013BFBD100E0DD
:102B100013B9FFF795FC02E0107880F0010002B0D5
:102B200010BD00BFCA1D0020C81D0020D01D002000
:102B3000C61D0020D41D0020CC1D0020C91D002072
:102B4000D81D0020D91D0020C01D00207620F421B2
:102B500031229FE77720482101229BE777205821E7
:102B6000012297E7064B002193F82020054B9201A4
:102B7000343219767720F42102F0FC028AE700BF94
:102B80003C1D002044090020034B00221A767720C8
:102B9000F4212E227EE700BF4409002003460A46A6
:102BA0006820194676E713B500222A211C20FFF77A
:102BB00071FF0E2102221C20FFF76CFF0F21032260
:102BC0001C20FFF767FF2B2112221C20FFF762FF5A
:102BD000164A02249369164843F0040393612023A4
:102BE000ADF8043004230DEB03018DF806308DF8A9
:102BF000074005F088FC22462C211C20FFF74AFFE5
:102C00002D2101221C20FFF745FF2E2100221C2030
:102C1000FFF740FF2A2105221C20FFF73BFF054B51
:102C20004FF480721A8002B010BD00BF0010024045
:102C3000000801400000002008B50F2108221820DC
:102C4000FFF728FF0E2218201021FFF723FF024B69
:102C50004FF480521A8008BD0000002008B5134BC5
:102C600053201B782D2108227BB1FFF713FF312160
:102C70000A225320FFF70EFF2C210C225320FFF7CE
:102C800009FF53203821902209E0FFF703FF31218B
:102C90000A225320FFF7FEFE53202C210A22FFF7C1
:102CA000F9FE40F20912024B1A8008BD261D0020D1
:102CB0000000002002F0ACB902F0D0BA02F0A8B9CE
:102CC00002F0CCBA10B504460E4B185C05F013FEAA
:102CD0000D4B33F91410B1F57A7F05DBB1F5FA6FBE
:102CE000A8BF4FF4FA6101E04FF47A71A1F57A714F
:102CF0000A2391FBF3F1BDE810400920C9B203F0AB
:102D00009BB900BFFE0101086C0900200EB403B599
:102D100003AB53F8042B074968468DE80A000649BF
:102D200003F00AFB009B00221A7002B05DF804EB6E
:102D300003B0704790090020996100080C4B0D49C1
:102D4000DA684378D243C2F30222C2F1040293400C
:102D500002781B01DBB20A4482F8003303780122B7
:102D6000580903F01F0302FA03F341F820307047BB
:102D700000ED00E000E100E070B5184B9B894FF4D6
:102D80007A7342B311B10C78013107E0FF2405E0FA
:102D90004FF6FF75013B9BB2AB420FD00F4D2E8912
:102DA000B607F5D5A4B2AC810C4C2589ED070BD440
:102DB0004FF6FF74013B9BB2A342F5D1084A538FF3
:102DC00001339BB2538706E0A489A4B208B1047012
:102DD0000130013AD5E7012070BD00BF0038004046
:102DE0006C09002040F2E9330F4A1189890704D4A5
:102DF000013B9BB2002BF7D10BE040F2E93380B2EC
:102E00009081094A1189C9070AD4013B9BB2002B62
:102E1000F7D1064AFF20538F01339BB25387704787
:102E20009089C0B2704700BF003800406C09002094
:102E300007B50B4A0B48936901A943F0100393614E
:102E40004FF40053ADF8043002238DF807301023FF
:102E50008DF8063005F057FB03B05DF804FB00BFAA
:102E60000010024000100140F7B5144CE76B94F8D5
:102E700040309BB10523124D8DF800304FF4805641
:102E800000238DF8013001A86E6169460222FFF728
:102E900073FF2E619DF8053003F0010303F001027A
:102EA00084F8402033B1054BDB6BDB1B062BDED9EE
:102EB000002000E0012003B0F0BD00BF6C0900203D
:102EC000000C01402DE9F341C82004F064FDAE2060
:102ED00001F091FF08B105F09FFCA64C84F8410079
:102EE000C82004F058FD04F5E77300210C2204F615
:102EF0004400636408F0D5FF022384F8473804F0E7
:102F000023FDD4F85038C31A002BC0F2458300F5D6
:102F1000433303F5A073C4F85038974B1E7894F8E8
:102F20005438C6F38006F31A18BF012384F8546896
:102F300066B1002B00F0308394F8453884F84638A9
:102F4000012384F8453884F8443834E04BB194F8D0
:102F5000473843F0020384F8473894F8463884F839
:102F6000453894F8472802F0020101F0FF0341B907
:102F70008049D1F84C18411A002903DB02F0010303
:102F800000E0012303F001057A4984F8445893B125
:102F9000D50710D591F8482805230132D2B2B2FBEB
:102FA000F3F303EB8303D31A744ADBB281F8483896
:102FB000D35C81F8453894F844286E4B9AB393F863
:102FC000472822F0020283F847286D4A0244AE20C7
:102FD000C3F84C2801F00FFF08B105F01DFC84F880
:102FE0004100002800F0D882B02001F004FF40200A
:102FF00001F001FF002001F0FEFE102001F0FBFEB9
:103000004FF48065013D0020ADB201F0EFFE002DD0
:10301000F8D1284605F093FC94F84528594B53F80D
:10302000220005F083FC94F84130002B00F0B482BC
:10303000504B93F84538062B00F28882DFE813F0F6
:103040000700860218007D004F016E01AE014E4957
:103050004E4A4F4B4F48FFF759FE012005F06FFCD9
:103060004C4805F063FC022005F069FC4A4892E1F7
:10307000D4F858383F4D9A072AD5484F00223B785C
:103080004749009305F124001346FFF73FFE03F084
:103090000FF8012005F053FC05F1240005F046FC73
:1030A000D5F85C083A7805796FF0630102FB05F307
:1030B0004B43C17802204D1B5543B3FBF5F5EDB2F0
:1030C00005F03DFC2946152002F0B6FF032500E07F
:1030D0000125D4F85838274F1B0540F137820022CC
:1030E000134600922F4907F12400FFF70FFE02F06C
:1030F000DFFF284605F023FC07F1240005F016FC4D
:10310000D7F85C38988906F0EDFF0746681C05F093
:1031100016FC3846244907F039F8394607F0EAF832
:1031200007F0FAF901466428A8BF642121EAE17199
:103130001520C9B202F080FF08E2012005F0FFFB74
:103140001A4805F0F3FBD4F860389D0734D5002306
:10315000009301931649174A0E48FFF7D7FD02F076
:10316000A7FF022005F0EBFB0A4805F0DFFB032573
:1031700023E000BF6C090020F8290020F9010108B4
:10318000404B4C0058F30008130201081C020108D0
:1031900022020108900900202A0201083C000020B8
:1031A0002F020108470201080000C8425C02010822
:1031B00072020108810201080225D4F86038D8079C
:1031C00012D5002300930193CA49CB4ACB48FFF79D
:1031D0009DFD6F1C02F06CFF284605F0B0FBFFB2AE
:1031E000C64805F0A3FB3D46D4F86038C44F190724
:1031F0001BD5B7F96628B7F964380092B7F9682883
:10320000BC49019207F12400BE4AFFF77FFD05F19A
:10321000010802F04DFF284605F091FB5FFA88F89F
:1032200007F1240005F082FB45460023009301933B
:10323000B54AB049B148FFF769FD02F039FF2846A9
:1032400005F07DFBAD4805F071FBAC49002003F0B3
:1032500009F8AA4808F081FE6F1CFFB2C1B2092923
:103260000BD84B1CDBB22144202281F82420002102
:10327000E21882F825101946F1E7DFF88082002075
:10328000414402F0EFFF02F013FF384605F057FB10
:10329000404605F04BFB4146002002F0E3FF40466C
:1032A00008F05BFE0235EDB2C7B2092F0BD87B1CCC
:1032B000DBB22744202287F824200021E21882F87C
:1032C00025101F46F1E7B4F96A0806F00BFF08EB7A
:1032D000070102F0C7FF02F0EBFE284658E0002588
:1032E00094F86C38AB4240F231810E2D00F02E8103
:1032F0006808013005F023FB2846FFF7E3FC804B0C
:1033000093F86C38AB4206D9202005F0F4FA681C1B
:10331000C0B2FFF7D7FC0235EDB2E1E77B4994F884
:10332000FC277648FFF7F2FC012005F008FB734804
:1033300005F0FCFA94F86E5875492A466F48FFF775
:10334000E5FC022005F0FBFA6C4805F0EFFA0C23CF
:1033500003FB05456F4995F8FF2795F8FE37674849
:10336000FFF7D4FC02F0A4FE032005F0E8FA63485E
:1033700005F0DCFA95F8041895F8022895F803385A
:103380005E4800916449FFF7C1FC02F091FE042001
:1033900005F0D5FA594805F0C9FAD7E0D4F858280D
:1033A000574B120640F1CC80D3F870284AB1002266
:1033B000C3F8702893F87428013202F0030283F8EE
:1033C00074280121002005F0C7FA94F87438534A94
:1033D0001025D05C05F08FFA0220012105F0BCFA1F
:1033E000A02005F088FA013DFAD194F875384C49CF
:1033F00013F0020F14BF59234E232A463F48FFF70C
:1034000085FC02F055FE022005F099FA3B4805F0D4
:103410008DFA2B4643492A463848FFF777FC02F0DD
:1034200047FE032005F08BFA344805F07FFA3E4949
:103430002A463248FFF76AFC02F027FE042005F016
:103440007EFA2E4805F072FA2A4638492B48FFF7D3
:103450005DFC02F01AFE04210A2005F07DFA2748DF
:1034600005F064FA32492A462448FFF74FFC02F07F
:103470000CFE052005F063FA204805F057FAD4F851
:103480007C28D4F880382B491C48FFF73FFC02F019
:10349000FCFD05210A2005F05FFA184805F046FA00
:1034A000D4F88838D4F884282349D21A1348FFF76F
:1034B0002DFC02F0EAFD062005F041FA0F4805F068
:1034C00035FAD4F880281D490C48FFF71FFC02F09C
:1034D000DCFD06210A2005F03FFA084805F026FA2F
:1034E0000648152200F6740108F062FD02F0CDFDD9
:1034F00007204DE7720201088502010890090020AB
:103500006C0900208F060108890201088D0201085C
:1035100099020108AA020108BB020108CD020108B4
:10352000D2020108E3020108F0020108F8020108D2
:10353000FF020108060301080F0301081603010832
:1035400093F8472842F0020283F8472826BB94F8F4
:10355000D0380021052B97BF144A3F259B181D7FAB
:10356000122005F0F9F9284605F0C5F900211320CD
:1035700005F0F2F9212005F0BEF91420002105F034
:10358000EBF994F8D4580A4B585D013505F0030562
:1035900005F0B1F984F8D45804F0D6F9054B03448A
:1035A000C4F84C3802B0BDE8F08100BF58F3000801
:1035B000CD020108404B4C00F8B5614B054693F82D
:1035C0003C380C46012B15D1114606F093FE4FF006
:1035D0007E5106F0D1FC0546014606F0D7FD29468E
:1035E00006F0D4FD294606F0D1FD04F100444FF069
:1035F0007E5199E0022B5DD110464FF07C5106F0D0
:10360000C5FD0146284606F075FE4FF07E51054681
:1036100006F05AFFF8B12946284606F0B7FD0146E4
:103620004FF07E5006F0A8FC06F0A4F909F09EFECB
:1036300006460F4604F100404FF07C5106F0A6FD0F
:1036400006F098F9002204460D46304639463D4BB7
:1036500006F030F821E028464FF0804106F08CFC5F
:10366000014606F093FD01464FF07E5006F084FCC3
:1036700006F080F909F07AFE06460F4620464FF024
:103680007C5106F083FD06F075F9002204460D46D4
:10369000304639462B4B06F00FF802460B462046C3
:1036A000294606F0BBF90022002306F005F806F0D3
:1036B0000FFCF8BD032B41D110464FF07C5106F0B2
:1036C00065FD0146284606F015FE4FF07E51054681
:1036D00006F0FAFE78B14FF07C51204606F056FD18
:1036E000294606F053FD294606F050FD294606F00E
:1036F0004DFD29461CE028464FF0804106F03CFC79
:103700004FF07C51054604F1004006F03FFD29468C
:103710000446284606F03AFD294606F037FD2946BC
:1037200006F034FD4FF0804106F026FC01462046AD
:1037300006F02CFD002106F021FCF8BDF8BD00BF0D
:103740006C0900200000F03F08B52A221048002133
:1037500008F0A7FB0F4B00220F490520515C0132F6
:1037600083F8F21183F8F70106210020052A83F877
:10377000F61183F8F90183F8F81103F10803EBD18E
:10378000064B0122A3F83C22522283F8382208BDBE
:10379000A40B0020B4090020F40101086C090020EA
:1037A00007B51C4B03F66C02C3F8D82893F8D62152
:1037B0005AB1012A14D1032183F8DC18072183F8B8
:1037C000DE2883F8DD180C2208E0022183F8DC18DB
:1037D000032183F8DE2883F8DD18072283F86C289C
:1037E0000D4A0E4B40201A6004F08CF870B1012293
:1037F000002390F9000040218DE80C00084A4FF4A6
:10380000E13304F009F8003018BF012003B05DF87F
:1038100004FB00BF6C090020756C00081800002034
:10382000C56D0008426A806A131A584258417047B1
:103830004171704743799B070AD5436A8269D15425
:10384000436A01690133B3FBF1F201FB12334362B6
:103850007047427902F0020202F0FF0342B10369AD
:10386000426A806A013BDBB2101A23EA000070470B
:1038700018467047437913F001031FBFC36803F173
:10388000FF32C369006A1DBF181A1040C0B2184643
:103890007047437910B513F0010304460DD0FFF7CC
:1038A000E9FF58B1236A6269E168D05C0133B3FB78
:1038B000F1F201FB1233236210BD184610BD90F8DF
:1038C0003B3210B57BB990F83A3290F83942A342B6
:1038D00009D2B0F8401201229A400A430133A0F8FD
:1038E0004022DBB2F3E710BD8379DB0748BFB1FAB2
:1038F00081F1D0F8343148BF49095A681B8909B1B0
:1039000013617047536170471FB50123ADF808304C
:10391000ADF80410002301A9ADF80A30ADF80C3061
:10392000ADF8062003F0B9FC05B05DF804FB38B52E
:10393000A0F513746379A579DB0745D594F838327F
:1039400005F00105F3B1226B1068838DC3F34E03BC
:10395000838494F83C3223B1B4F842320133A4F8A2
:103960004232917A6A00FFF7CFFF012384F83B329D
:10397000002384F8393284F83A3284F83832A4F8D3
:10398000403238BD94F83B322046012B04BF94F8F6
:10399000393284F83A32FFF792FF94F83B22236BD6
:1039A0003AB9012284F83B221868997A05FA02F2A2
:1039B00007E0002284F83B2295421868997A08BFF4
:1039C0000222BDE838409FE738BD10B5A0F512745B
:1039D00094F83C22BAB9A36A616A994228D0591C6A
:1039E000A069A162C35C2069DBB25B0043F4007391
:1039F0008142A4F83E324FF00A0384F83D3228BFDA
:103A0000A262012312E094F93D327BB1B4F83E1278
:103A100020464B08A4F83E3201F00101FFF764FF95
:103A200094F83D32013B84F83D3201E084F83C32A9
:103A300094F83832002B4ED194F839320133DBB28E
:103A4000092B84F8393203D12046BDE8104036E70F
:103A50000A2B40D194F83B322BB9B4F8403243F0F2
:103A60000103A4F840326379D9071CD5B4F84002A9
:103A7000820501D4C30705D4B4F844320133A4F855
:103A8000443210E0E36AC0F347000BB198470AE004
:103A9000E3696269D054E369E1680133B3FBF1F291
:103AA00001FB1233E361012284F8382294F83B22AF
:103AB0000023012A84F839320DD1A27984F83B32EF
:103AC000236B12F0010F1868997A0CBF02220022B2
:103AD000BDE8104018E710BDF0B5046D8279A389E8
:103AE000467923F4005312F0020F4FEA03434FEAE2
:103AF00013430CBF00214FF4005112F0040FA381B7
:103B000014BF4FF4806E4FF0000E16F0010F87685F
:103B1000054614BF04200020B307238A48BF40F0A5
:103B200008029BB223F4405343EA01032382A18994
:103B300048BF90B289B221F4B05121F00C014EEA95
:103B4000010140EA0102A281A38A87B023F44073F5
:103B50001B041B0CA38201A803F03EFB039B049EE5
:103B6000254A944218BF1E46A389192272431BB2EC
:103B7000002BB4BF7E00BE00B2FBF6F66427B6FB96
:103B8000F7F00001010907FB1163A28912B2002AB4
:103B9000B7BFD9001A013231B1FBF7F2A7BF3232F9
:103BA000B2FBF7F302F007021043A8BF03F00F03C4
:103BB000AA79A8BF184380B212F0010F20812B6DA3
:103BC00006D00E498B4202BF042001F5484108612E
:103BD00012F0080F9A8A0BBF22F0080292B2120468
:103BE00042F0080208BF120C9A829A8992B242F4FB
:103BF00000529A8107B0F0BD0038014000440040F7
:103C00002DE9F0431D469D4B8DB098428946904664
:103C10009DF8507052D19A4B9A4A9B491A609B4A20
:103C2000C3F808805A6102F580729A614FF480727D
:103C3000DA601A61964A18651A63A2F54842543A46
:103C4000DA649A645963934B3C079A6942F4804260
:103C50009A615A6942F001025A614FF002038DF8ED
:103C600003304FF40073ADF8003001D51C230FE092
:103C7000A80706D51823884869468DF8023004F055
:103C800042FCE9070AD54FF48063ADF800304823C1
:103C9000814869468DF8023004F035FC0E238DF81A
:103CA00004300022012301A88DF805308DF806208C
:103CB0008DF80730724CFFF741F89DE0774B984242
:103CC0004AD1774B6F4AC3F808801A604FF480726C
:103CD000DA601A61734A18655A6102F580729A6156
:103CE000714A9A64DA646B4BDA6942F40032DA6141
:103CF0005A6942F001025A6102238DF803303A07F3
:103D00004FF00403ADF8003001D51C230EE0AB07E3
:103D100006D51823604869468DF8023004F0F3FB9D
:103D2000EE0709D50823ADF8003048235A48694604
:103D30008DF8023004F0E7FB26238DF804300022D2
:103D4000012301A88DF805308DF806208DF8073085
:103D5000534CFEF7F3FF4FE0544B984240F0F38092
:103D6000534B484AC3F808801A60524A18655A6192
:103D700002F580729A614FF48072DA601A614E4ADD
:103D80003C079A64DA64434BDA6942F48022DA61D0
:103D90009A6942F008029A614FF002038DF80330ED
:103DA0004FF48063ADF8003001D51C230FE0A80765
:103DB00006D51823414869468DF8023004F0A3FB6C
:103DC000E9070AD54FF40063ADF8003048233B48BB
:103DD00069468DF8023004F096FB27238DF80430F5
:103DE0000022012301A88DF805308DF806208DF8FA
:103DF0000730FEF7A3FF2E4C0026012384F8443041
:103E00002662E661A6626662C4F82C906571C4F809
:103E10000880A7712046FFF75FFEEA0758D5236B9D
:103E2000002B4DD001A800F0E7FDE36C206B01935F
:103E30004FF480530A9380230693E3680B96049310
:103E400020230993636905960293079608960396C3
:103E500000F0FDFD01A9206B00F0DBFD226B216D60
:103E6000136843F0010313608B8A9BB243F0400355
:103E70008B8253689BB223642AE000BF0038014064
:103E80008C2900209CF300084400024054120020BA
:103E90005800024000100240000801400044004069
:103EA00038290020541400200444004000480040F9
:103EB000E42800205416002004480040000C014073
:103EC0004FF6DF72236D1A80DA6842F02002DA6062
:103ED000AB0730D5636B002B28D001A800F08CFD18
:103EE000A36C002501934FF480530A93802306931B
:103EF0002369606B0493102303930B950595079535
:103F00000895099500F0A3FD606B01A900F081FD03
:103F1000636B1A6842F002021A60226D5D605D6098
:103F2000938A9BB243F08003938204E0226DD368AE
:103F300043F08003D360226D204693899BB243F403
:103F40000053938100E000200DB0BDE8F0832DE91F
:103F5000F04F1E464FF4147343435C4D85B005F596
:103F6000C06480469146E718A24610B92B44584ACF
:103F700003E0012806D1574A2B44C3F830261032FB
:103F8000C3F834274FF4147303FB08F35248EC18BA
:103F90000AEB030203F59C7334325344C4F8000661
:103FA000C4F82C16C4F81426C4F8183600224FF4AE
:103FB00080714FF0010BD4F834370320C4F80C168D
:103FC000C4F82026C4F81C26C4F81016C4F8282605
:103FD000C4F8242684F83C2884F838B884F83928B2
:103FE000A4F84228A4F84428C4F8089684F80506E2
:103FF00084F8066684F8468858681B8904F5E662EA
:104000004FF0020CADF80C3003A9102301928DF88B
:104010000E308DF80FC0CDF800C004F074FAD4F85B
:104020003036DDF800C0597B58681B898DF80E10BA
:1040300003A9ADF80C308DF80FC004F064FA5946AE
:104040003846FFF751FC322003F0A5FC234B019AC0
:104050001B68D2F804B01A46B2FBF9F1B1F5803F03
:1040600003D3012AF8D95208F6E71D4A4FF4147415
:10407000B3FBF2F204FB08F8584689B2D2B205F05D
:1040800049FA05EB0809174B08F512780AEB080402
:104090000022C9F848385846214605F083FAD9F875
:1040A000305616F0010F0CBF022200222868A97AB0
:1040B000FFF72AFC0C4B2846C9F84C38211D00227A
:1040C00005F070FA384605B0BDE8F08F54120020B4
:1040D000DCFE0008FCFE0008B8F3000848000020E1
:1040E00040420F00CB3900082F39000803460A462A
:1040F00090F84602D96A9B7929E71FB50123ADF8EC
:1041000008300023ADF80C30ADF80A30084BADF89C
:1041100004101B7801A9012B08BF0323ADF806206A
:1041200008BFADF80C3003F0B8F805B05DF804FB3B
:104130009C0100202DE9F04F8FB0019283460C22A4
:104140000E46A54800211D46BDF960A007F0A9FE56
:1041500000211022A14807F0A4FEA14AA14B92F829
:104160000090904603F11802B9F1010F94BF9946EF
:104170009146994C002739460C222777677704F13E
:10418000200007F08EFE2320C4F82C9003F003FCDF
:10419000752001210DF11702FEF7BAFBA0B1924B79
:1041A00038466362914B0121A36206AA432384F837
:1041B0002030FEF7ADFB9DF8183003F07E038DF83C
:1041C0001830002843D14AE094F8303063BB884A65
:1041D000884F93694FF4805943F00803936110238B
:1041E0008DF822303846032308A98DF82330ADF826
:1041F000209004F088F9804AC7F81090138823F0C3
:1042000040031B041B0C1380138823F038031B048A
:104210001B0C43F00803138013889BB243F0400348
:104220001380012384F830307520012108AAFEF79D
:104230003BF99DF82030702B51D105232377432380
:1042400084F820306D4B63626D4BA36247E0682BAE
:1042500005D1012323771D2384F820303FE09DF80A
:10426000173003F07E03682B8DF8173033D102230B
:10427000062023770146636A08AA98479DF825100F
:1042800001F001029DF8231001F001014B0043EA07
:1042900082019DF8212002F001030B4309D05BB29B
:1042A000012B01D1002302E0022B0DD10123637702
:1042B00015E0494B0C205B6A012107AA98479DF83D
:1042C0001C3013F00F0303D1032003F07FFB06E043
:1042D000042BEBD1E6E7702B04BF04232377227F66
:1042E0000020022A3C4B84F8310009D14549D960AD
:1042F0004549196145499961012183F831101BE055
:10430000012A0BD1424983F83120D9603E49042269
:104310001961404959613D4999610DE0043A012A0A
:1043200000F238833C4ADA60374A1A61374A9A61A8
:10433000012283F831200722384B394999460A7007
:104340001A68029142F001021A60364F00233B7056
:10435000082E00F2B280DFE806F00BB00B2C6F8D58
:104360002CA2A200012E40F2B4802E4B00261E701B
:1043700098F80030012B1CD84FF0000C0EAB03F85E
:1043800018CD532061460122CDF80CC0FEF7DEF9AE
:1043900078B19DF82030DDF80CC0E52B09D1224B17
:1043A00084F832C02360214B636004233B700223F6
:1043B00087E0227F084B022A3ED11D4A1A601D4A1F
:1043C0005A605B7F002B0CBF6F236E232372012387
:1043D0003B70032375E000BFF41C0020001D00208B
:1043E000FA290020D4F30008112900089D2B0008A9
:1043F00000100240000C014000380040A9240008D1
:10440000D5240008B92600087523000890C1793D1D
:10441000F52400083D230008F5250008CC110020F4
:104420003D000020F92900205D2C0008C529000866
:1044300021270008BD23000898F80030012B19D867
:1044400000220EAB03F8182D1C200D210122FEF7CF
:104450007DF978B19DF820302A2B01D01A2B09D193
:10446000C54A84F833302260C44A02233B7062603C
:10447000042326E000210EAB03F8181D18200122AA
:10448000FEF764F958B19DF82030FB2B07D1BC4BE7
:104490002360BC4B636001233B70052311E0237F45
:1044A000B94A043B012B3FF65DAFB84B1360B84BE4
:1044B000536001233B70082303E0012E09D9002635
:1044C00043E7029A5370D9F8003043F00203C9F869
:1044D000003098F80030012B05D1FEF7A9FCAD4B58
:1044E0004FF400525A61042D00F2B981DFE815F053
:1044F0000500C0016400050082010A2003F04BFAA8
:104500007720A021012207ABFEF720F9002853D025
:104510001E2101227720FEF7BDFA4FF42F6003F031
:104520002FFA0026A6F160010025C9B2022208ABCD
:1045300077208DF820508DF82150FEF707F99DF86F
:1045400021309DF8202043EA02228F4B03F13401F1
:1045500072520236102EE5D1B3F842102A4601F00D
:104560000F0601F47F41A3F842102B46012722F0E9
:1045700001002044808E002818BF0027D50703D5EE
:10458000C0B24340082002E083EA1023FAE71D048A
:1045900048BF83F4C05301384FEA4303F7D10132D7
:1045A000102AE4D13143784AA4F8421027B9C3F362
:1045B00003339E4200F0CD8194F84450002D40F02A
:1045C000E181744EFEF734FC28244FF480473046D6
:1045D00007A9ADF81C708DF81E4003F094FF4FF44E
:1045E0000053336120466C4903F03AFA0E21022051
:1045F00003F074FF0823089708A801278DF82530D9
:104600008DF824508DF826704FF0030902F058FF02
:1046100006A88DF818408DF819908DF81A508DF86D
:104620001B70FEF78BFB142003F0B5F9D021772027
:104630003A4607ABFEF78AF8534C3146002800F0A3
:10464000B9809DF81C30A4F86890552B84F85F3031
:1046500040F0B080D1213A4607AB7720FEF776F8DC
:104660009DF81C30772003F00F021B0984F86020AE
:1046700084F86130162208ABAA21FEF767F89DF88E
:1046800020209DF8213043EA0223A4F848309DF809
:1046900022209DF8233043EA0223A4F84A309DF8F3
:1046A00024209DF8253043EA0223A4F84C309DF8DD
:1046B00026209DF8273043EA0223A4F84E309DF8C7
:1046C00028209DF8293043EA0223A4F850309DF8B1
:1046D0002A209DF82B3043EA0223A4F852309DF89B
:1046E0002C209DF82D3043EA0223A4F854309DF885
:1046F0002E209DF82F3043EA0223A4F856309DF86F
:1047000030209DF8313043EA0223A4F858309DF858
:1047100032209DF8333043EA0223A4F85A309DF842
:1047200034209DF8353043EA0223A4F85C3041F28E
:104730007073A4F86C3046F67813A4F86E30174BFB
:104740002367174B6367174BA367174BE367174B39
:10475000C4F8803094F8443043B9FEF715FA42F6B5
:10476000E06003F00DF9B568C5F38035104B1D709E
:10477000012384F8443005E1A72B0008252900080F
:10478000392C00087F290008F41C0020A526000809
:10479000BD2300080010014061240008892B000897
:1047A000DD280008652B0008912800086122000818
:1047B0001C000020794A136823F48043136000230F
:1047C0007748DA0000F18404A5186E68754DAE4292
:1047D0000AD114F93340282C06D183180022C3F8DB
:1047E000882083F8842002E00133032BE8D14FF4C2
:1047F00000534B616A4C94F89C50002D40F0BC80F3
:10480000142003F0C8F804F19D037620D021012282
:10481000FDF79CFF94F89D30582B29D104F1A0039B
:10482000882118227620FDF791FF7620F42131228D
:10483000FEF730F9012384F89C305B4BA4F86C50F0
:1048400063675A4B236745F6D813A4F86E30584B6C
:10485000A367584BE367584BC4F880308CE0012DB8
:1048600006D0564B564A9D70136843F004031360FC
:10487000534D4B4C2B6813F0020F01D0236898471F
:10488000E368584698474F4B98F8009003F1180298
:10489000B9F1010F94BF99469146019F4A4E0023FA
:1048A00033700FB1022F69D14FF000080EAB03F83F
:1048B000188D1E200A210122DFF8E4B0C4F8BC9054
:1048C000FDF744FF98B19DF82030482B5CD13F4B59
:1048D0000222CBF8C0303E4BCBF8C43003233370F8
:1048E000364BDA702B6843F008032B6001E08046FA
:1048F0004AE0384B93F854210AB184F8312093F8F8
:1049000055210AB134490A7093F8563103B1337016
:104910002B681B0718D564269AFBF6F5284605F088
:10492000E1FB074606FB15A000B205F0DBFB2B49B7
:1049300005F02CFC0146384605F020FB284905F01F
:1049400025FCC4F8C80002E00023C4F8C8300120E8
:1049500020E042F21073A2F86C30A2F86E30214BC6
:1049600003251367204B5367204B9367204BD36776
:10497000204BC2F8803074E7042572E7012FB8D9C4
:104980001F468BE702256CE7012FB2D9002786F876
:10499000008089E70FB0BDE8F08F00BF0004014040
:1049A000F41C002061240008A1200008A3200008B6
:1049B0004D2B0008FD270008E11E00083D000020E7
:1049C000CC11002004F40008FB290020D94B00087A
:1049D000414B0008B4090020F92900208988883C4F
:1049E000000020415D2B000881280008552B00089D
:1049F00071280008A520000800230360436083603D
:104A0000C360036143618361C36103624362836284
:104A100070478A6810B50C6A036814430A6923F466
:104A2000FF4314434A6923F0700314438A69144313
:104A3000CA6914434A6A14438A6A224313430360CF
:104A4000CB6843600B6883604B68C36010BD4FF652
:104A5000FE730268134003600023036043608360B9
:104A6000C360294B984201D1284A27E0284B98423D
:104A700001D1264A2AE0274B984201D1234A2DE052
:104A8000254B984201D1214A30E0244B984201D174
:104A90001E4A33E0224B984204D11C4A536843F427
:104AA00070032EE01F4B984204D1184A536843F01C
:104AB000706326E01C4B984204D11C4A536843F0B3
:104AC0000F031EE01A4B984204D1184A536843F072
:104AD000F00316E0174B984204D1144A536843F48C
:104AE00070630EE0144B984204D1104A536843F4AB
:104AF000704306E0114B984204D10C4A536843F4CA
:104B000070235360704700BF08000240000002405D
:104B10001C000240300002404400024058000240A5
:104B20006C00024080000240080402400004024081
:104B30001C04024030040240440402405804024075
:104B400037B5044603211E2006226B46FDF7FEFD05
:104B500070B39DF801309DF80000164D43EA002027
:104B600000B205F0BFFA296805F010FB05F0D4FC8F
:104B70009DF8033020809DF8020043EA002000B237
:104B800005F0B0FAA96805F001FB05F0C5FC9DF839
:104B90000530A0809DF8040043EA002000B205F033
:104BA000A1FA696805F0F2FA05F0B6FC6080012010
:104BB00003B030BD2000002010B5054C23681869F3
:104BC00002F0AEFC18B123681A69024B5A6110BD9D
:104BD000B01D0020000401402DE9F0437B4A87B05E
:104BE0001368904693B11A681AB1794988690243EB
:104BF0008A619A889868ADF8002002228DF8032017
:104C0000694604228DF8022003F07DFC322002F078
:104C1000C2FE002111221E20FDF73CFF012160226F
:104C20001E20FDF737FF642002F0B5FE002402A825
:104C3000FFF786FF274626460A25022101221E206D
:104C4000FDF728FF322002F0A6FE02A8FFF778FF4A
:104C5000BDF90820BDF90A1014448A42A8BF0A46CB
:104C6000BDF90C300F4493421E44A8BF134613F500
:104C7000805F09DD574A013DD36883F01003D3609C
:104C8000DBD14FF0010901E04FF000091E200021A7
:104C90001222FDF7FFFE0A25022101221E20FDF748
:104CA000F9FE322002F077FE02A8FFF749FFBDF9B6
:104CB0000820BDF90A10A41A8A42A8BF0A46BDF905
:104CC0000C307F1A9342A6EB0306A8BF134613F5D8
:104CD000805F07DD3F4A013DD36883F01003D36056
:104CE000DAD101E04FF00009204605F0FBF901465A
:104CF000394805F0FFFA394D20F000402860384669
:104D000005F0F0F90146344805F0F4FA20F00040CF
:104D10006860304605F0E6F90146314805F0EAFAE8
:104D200020F00040A860002170221E20FDF7B2FE96
:104D3000012120221E20FDF7ADFE1E2002210022AF
:104D4000FDF7A8FE642002F026FEB9F1000F04D1A1
:104D50004FF07E532B606B60AB60D8F800301B4C7B
:104D60001A7B002A2FD01A7D6AB3194900268A6956
:104D7000012542F001028A61187B197D03F0AEFB28
:104D80002368184993F9150002F06AFE2368164A51
:104D90001B6904A8536104930C238DF815308DF81A
:104DA00014608DF8165002F08BFB236801A85B7D20
:104DB0008DF806608DF8043003238DF805308DF8EA
:104DC0000750FDF7BBFF07B0BDE8F083B01D002022
:104DD00000100240000C014000406F4620000020FF
:104DE00001C05E46B94B0008000401400246402164
:104DF0003C20FDF74FBE024680213C20FDF74ABE15
:104E0000012828BF01202DE9F04F0646142000FBA1
:104E100006F3764F89B0F918FC58754B0A691C6087
:104E20001E71744BB1F80880DD69B1F80AA02A43FD
:104E3000DA61A2884D6822F440721204120C4AEA28
:104E40000809A28003A9C5F8109002228DF80E006F
:104E500028460193ADF80C908DF80F2003F053FB1A
:104E6000019B00971F464FF0080BAA6818EA020F33
:104E700003D10A2002F084FDF7E70A20C5F8148068
:104E800002F07EFDC5F810800A2002F079FDBBF12A
:104E9000010BEAD1C5F814A00A2002F071FDC5F893
:104EA00014800A2002F06CFDC5F810800A2002F080
:104EB00067FD0222C5F810A028468DF80F2003A92F
:104EC0001C228DF80E20ADF80C9003F01CFB4A4A12
:104ED0004A4994423A6903A80BBF42F4001242F4D3
:104EE00080023A613A610BBF3A693A6922F40012D2
:104EF00022F480023A61A38823F440731B041B0C44
:104F0000A3803F4B93F800803E4BB8F1000F14BFD5
:104F10009846884623889BB243F001032380A588E6
:104F200002F05AF9059A384825F03F05B2FBF0F037
:104F30002D042D0C0543ADB2A580218808EB480354
:104F400021F001010904090C21804FF49671B2FB94
:104F5000F3F301FB00F24FF47A7192FBF1F29BB292
:104F6000002B08BF0123013243F4004392B2228494
:104F7000A3832388009A9BB243F0010323802388F4
:104F8000002523F4816323F002031B041B0C238000
:104F90004FF480432381142303FB0626737B0124F3
:104FA00003A88DF80C308DF80D508DF80E508DF84B
:104FB0000F40FDF7C3FE337B9DF80F208DF80C30BA
:104FC0008DF80D508DF80E501AB103A8FDF7B6FEFE
:104FD00008E05A0903F01F039C4002F120030B4A2A
:104FE00042F8234009B0BDE8F08F00BF34F4000858
:104FF000C01D00200010024000540040801A06002E
:105000005801002000350C0040420F0000E100E094
:10501000914B70B51A68908A80B2C1B2CE072ED576
:10502000118821F400610904090C1180118889B2EA
:1050300041F48061118000215971997999B1D97930
:1050400011B9197AFF290ED10121D971597A022992
:1050500001BF118889B241F400611180997A41F051
:1050600001011182E2E0997A01F0FE0111821A7ABF
:10507000FF2A00F0DB80784AFF215171D6E08D07CE
:105080003AD5BFF35F8F587AC0B2012813D199790E
:1050900089B1D97979B1118821F480610904090CA9
:1050A0001180BFF35F8F118B1188D87289B241F4E0
:1050B000007111801BE0118BBFF35F8F587A664936
:1050C00002280AD1887940B1C97931B1118821F417
:1050D00080610904090C1180A2E0587A5E49032816
:1050E00005D1887918B1C979002940F09980918853
:1050F00089B241F4806198E04C0757D50121D972FB
:105100009979002938D0D979002935D0597A108871
:10511000022959791ED920F480600004000C108007
:10512000148ADD68C8B2E4B249B26C541188DC68F4
:1051300089B241F4007111801968821C5A710A8A7F
:105140000130D2B240B222548A8892B242F48062D4
:105150008A8026E080B240F400701080148ADD68F6
:10516000C8B2E4B249B26C54128A411C49B2D2B2FC
:1051700003306A54587114E0D979374809B9017C71
:1051800041B1118889B241F4007111805A7901321C
:105190005A7106E0118889B241F4807111800122B0
:1051A000C27119680A88D205FCD43FE001F04001C1
:1051B00001F0FF04E1B15879168ADD68C4B2611CC0
:1051C00040B2F6B22E54C9B25D7A597149B2C81CC8
:1051D000854201BF908820F480600004000C08BF65
:1051E00090805A7A8A4221D11B4A023454711DE0C0
:1051F00006061BD5597948B2451C0AD05C690131B5
:10520000205CC9B21082587A597149B288420DD1D6
:1052100006E0197A5C711182997909B9597A29B92C
:10522000918821F480610904090C9180597A93F9DD
:10523000050001318842084A0CD10021D171D17A90
:1052400031B111688A8822F440721204120C8A80EB
:1052500000221A7670BD00BFC01D002010B5204C82
:105260002368998A89B211F4706F1CBF012262769B
:1052700011F4E06F2AD01A8B9A88890522F4806293
:105280004FEA02424FEA12429A801FD41A889205CE
:105290001CD41A88D0050ED51A88D105FCD41A88DA
:1052A00092B242F400721A801A889205FCD42079D6
:1052B000FFF7A6FD0AE01A8892B242F400721A8043
:1052C0009A8822F440721204120C9A802268938AFF
:1052D00023F470631B041B0C93820023237610BD00
:1052E000C01D00200B88584080EA0010C0B21B0A85
:1052F00083EA101343EA002383EAC0030B8070475C
:10530000421E002012F8013FA3F13001092904D800
:105310000A2101FB00303038F4E7704738B51748F0
:10532000FFF7EEFF6422B0FBF2F302FB1302144B13
:10533000124C534322782146A2F13005092D04F185
:105340000104F7D92E2A0DD142F2107411F8012F61
:10535000303AD5B2092D05D802FB04330A22B4FB3A
:10536000F2F4F3E706220333B3FBF2F36422B0FB5B
:10537000F2F0044A02FB003038BD00BFDC1D002003
:10538000A086010040420F0038B5154B1C4614F8AA
:10539000015BA5F12D0255425541002D08BF1C4669
:1053A0002046FFF7ADFF6423584323461A4613F8FF
:1053B000011BA1F13004092CF8D92E290DD1537805
:1053C000303BD9B2092908D80A2101FB03009378A0
:1053D000303BDAB2092A98BFC01805B1404238BD47
:1053E000DC1D00200E4B1A786B2A16D140F2FC729D
:1053F0005988914211D11A79BE2A0ED193F8DD272E
:105400000020EF2A0BD113F8012B5040054A93429C
:10541000F9D1B0FA80F0400970470020704770471A
:1054200000F80108FCFF01082DE9F84FB94C0021F4
:1054300040F2FC722046B84E06F033FD04F53B7393
:10544000B64A3360B64F0023137004F2B6723A6066
:105450006B222270032262714FF41672A4F862214B
:10546000FA22A4F864212A22A4F860214FF4FA72E7
:10547000A4F86A21012284F85E2184F87A2184F854
:105480008221052284F82B2240F2DC52A4F89421D8
:1054900040F24C42A4F8962140F26C72A4F8982194
:1054A00040F27532A4F89A2140F6430225462021A5
:1054B000A16084F866116E2184F878110A2184F8BD
:1054C00079112B2184F87B11212184F87C1123216F
:1054D00084F87D114FF4C871A4F87E11A4F89C21C2
:1054E000032BCCBF0122002203F1010384F89E218B
:1054F00014BF1E220522122B84F89F2104F10204FE
:10550000EED14FF47A73A5F8C231A5F8C631A5F8EB
:10551000CA31A5F8CE31A5F8443140F27E5340F2AD
:105520007E41A5F8483140F2EA53A5F84011A5F8AC
:105530004A3140F23A7140F2B4534FF4FA62A5F89E
:10554000C421A5F8C821A5F8CC21A5F8D0210522B1
:1055500085F8DE21C8224FF001084FF03209A5F886
:10556000E2214FF4C8724FF01E0A4FF0190B85F874
:10557000E08185F8E18185F8E481A5F8E621A5F8C8
:105580004211A5F84C31A5F84E9185F8938185F824
:10559000DD8185F8EA81A5F8502185F8ED8185F84F
:1055A00091A185F8DFB1A5F85291FEF7CDF840F64C
:1055B000AC533468AB810F200023EB73AB73607185
:1055C0002220A0710E20172120744FF00A0E3520E2
:1055D0006175A175A0765521212084F812E04FF065
:1055E000640EE17060742D21532084F81CE04FF0AC
:1055F000780E28226173E07684F80AE05A20DFF8FA
:1056000040E121754FF4FA7184F80080E375A373CB
:105610002376E3736376207284F81E80627084F8C8
:105620000BA0A27084F80CA084F8049084F807B052
:105630006272A4F84E103B49C4F838E0C4F83CE06C
:10564000DFF800E1E162216361633749C4F828E0D3
:10565000DFF8F4E02164DFF8F4C03449C4F848E02E
:105660004FF04B0E84F8523084F8513084F85030AB
:10567000C4F820C0C4F824C0616484F84CE085F804
:10568000B607412085F8B70740F2DC5085F8B937F6
:1056900085F8BD3785F8BE3785F8BA3785F8BB374A
:1056A00085F8BC3785F8B897A5F8C007A4F8583036
:1056B000A4F85A30A4F85630042384F85C3015233B
:1056C00084F868301A4B216684F8642084F86520D9
:1056D000E366184B84F878802367174BDFF87080F7
:1056E000636718F8011F002936D0DFF86890484634
:1056F00006F025FC0028F4D009F1080398423FBFCA
:105700000E4BC9EB00004019C3EB080338BF80F80B
:105710008631E6E7B409002004030020DA110020F6
:10572000B8220020CDCCCC3E0AD7233C0000A040BC
:105730009A99193FF6287C3F3D0A773F54030108A8
:105740008FC2F53C00006040000040403333B33F5F
:1057500053030108FE0101082046282384F8133171
:10576000012384F814314FF44873A4F816310A2346
:1057700084F8111184F8121184F8181185F8D431C5
:10578000C82385F8D5314FF47A73A5F8D631642350
:1057900085F8D811A5F8DA310E2303FB01436FF029
:1057A000170E83F819E14FF0030E83F81AE16FF03A
:1057B0002F0E83F81BE14FF0070E83F81CE16FF00A
:1057C000230E83F81DE14FF0050E83F81EE1013131
:1057D0004FF05A0E80F820E180F821E164234FF069
:1057E000FF0E082980F81F3180F822E14FF00002F7
:1057F00000F10E00D0D1A4F890314FF49673A4F8C4
:1058000092312823A4F894311346C821A4F88A11B0
:10581000142184F88C111E2184F88D11012184F843
:10582000892184F88E11EA1810334FF00008C02B3C
:10583000C2F81080F7D14A480021402206F031FB1F
:105840000023DFF83491EA1853F80910043308688C
:10585000382B444CC2F8AC02F3D10021802204F56D
:105860000B7006F01EFB09F13801702204F50B7075
:1058700006F00CFB03F032FD03F068FD03F050FD71
:10588000002384F8DC3784F8F23184F8EA3784F8AE
:10589000EB37A4F84233344B40F6C412C3F800800F
:1058A00040F21A43A4F8F03740F2E9732F484FF45E
:1058B000BF61A4F8E027A4F8F2371422282301805E
:1058C0003668A4F8E227A4F8E817FA2228492948FC
:1058D00084F8F53704234FF00209A4F8E42784F88C
:1058E000F6370A220F230125016084F8E627C4F861
:1058F000EC1784F8F73784F8FA27082331464FF479
:10590000CC7284F8F69104F28440A4F8F83784F855
:10591000DA5784F8DB5784F8F45706F0B7FA4FF4F7
:10592000CC7204F21C60314606F0B0FA3B681A688B
:10593000C4F8C2275A68C4F8C6279A68C4F8CA27A8
:105940001A68C4F8CE275A68C4F8D2279A6884F82F
:10595000D854C4F8D62784F87096BDE8F88F00BFF5
:10596000600C0020B40900203409002038250020F4
:105970000000B4423C2500205CF400082DE9F74FFC
:105980006F4C0023E17C02462374092900F28B80CE
:10599000DFE801F0050516281F30384A5C76FE2A3C
:1059A00040F081800223E374002384F843304FF0F9
:1059B000FF3384F8422084F8403084F8413072E0AC
:1059C00010466049237584F84320FFF78BFC0423BD
:1059D00006E010465B4984F84420FFF783FC03236C
:1059E000E37460E01046574984F84520FFF77AFCDD
:1059F0000523F5E71046534984F84620FFF772FC6B
:105A00000623EDE74E4B104603F1400184F8472092
:105A10000093FFF767FC94F84320009B0AB9082322
:105A2000DEE70722DA743EE0217D10464B1C21445C
:105A3000DBB281F84820434923750093FFF752FCFD
:105A400094F84320009B9A422DD1E8E794F8473020
:105A50003D49DFF8ECC00B4493F8A8000CF140017D
:105A60000192CDF800C0FFF73DFCDDF800C0237DBA
:105A7000019A092163448CF8131083F8482012E03E
:105A80002F4B217D012019441874D87481F84920C6
:105A900093F84790DE6C1D6D5F6DD3F8588093F8D6
:105AA00064A093F865B0217C254A012907D192F8BA
:105AB00044305375138B03B953830133238300237D
:105AC000A374002939D0B9F1180F03D0B9F1210F0F
:105AD0001AD032E0642397FBF3F795FBF3F51B4BE9
