:020000040800F2
:100000000050002035AF0008D5AF0008DD93000890
:10001000D5AF0008D5AF0008D5AF0008000000003C
:10002000000000000000000000000000D5AF000844
:10003000D5AF000800000000D5AF00080386000817
:10004000D5AF0008D5AF0008D5AF0008D5AF000880
:10005000D5AF0008D5AF0008513900084D39000868
:10006000D5AF000811860008D5AF0008D5AF00084D
:10007000D5AF0008D5AF00084D470008D5AF000840
:10008000D96F0008D5AF0008D5AF0008D5AF00087C
:10009000D5AF0008D5AF0008D5AF00084939000832
:1000A000D5AF0008A9560008D5AF0008B95600081A
:1000B0009956000889560008795600082D2F000827
:1000C000312F0008252F0008292F0008D5AF000880
:1000D000D5AF0008454700083D47000835470008F0
:1000E00015860008D5AF0008D5AF00080000000055
:1000F0000000000000000000000000000000000000
:0C01000000000000000000005FF808F1A3
:100110002DE9F04F824B834C9FB0C4F898300023F8
:10012000C4F89C3005F0DEFA18B905F0FDFA06F0C7
:1001300031FC06F0D5FC7C4A7C4D1378A87B43F05B
:100140000103137000230A930B930C934FF4E013F5
:100150000D93774B9A461A6842F480321A609A6976
:1001600042F010029A61DAF8003003F400330B9386
:100170000A9B01330A930B9B1BB90A9BB3F5A06F33
:10018000F1D1DAF800306A4913F4003301D00223C8
:1001900017E00A6842F001020A600A93DAF80030B8
:1001A00003F002030B930A9B01330A930B9B1BB9C9
:1001B0000A9BB3F5A06FF1D1DAF800309A0741D568
:1001C00001230C935B4B5C491A6842F010021A60E1
:1001D0001A6822F003021A601A6842F002021A60DA
:1001E000DAF80430CAF80430DAF80430CAF8043017
:1001F000DAF8043043F48063CAF804304F4B1A68CD
:10020000043B22F070425A604D4A1160DAF8041043
:1002100021F47C11CAF80410596841F0004159607A
:10022000D96821F40041D9609B681B0449BF454B44
:100230004FF4E01313604FF480130D930C9B012BCC
:1002400001D118E0FEE7022B1BD168B10D9BB3F57D
:10025000801F02D14FF4A01305E00D9BB3F5E01F02
:1002600002D14FF400130D930D99DAF804300B43CB
:1002700043F4803303E0DAF8043043F46013CAF83F
:100280000430DAF8003043F08073CAF80030DAF84E
:100290000010274B8F01FAD5596821F003015960EE
:1002A000596841F002015960DAF80430204803F03F
:1002B0000C03082BF8D14368234903F00C03042BEB
:1002C00003D0082B03D01C4B12E0136810E04368E6
:1002D0004668C3F38343F60303F1020301D41B48CA
:1002E00005E0406810F4003F106818BF4008434321
:1002F0000B60DAF804301648C3F303130344187E86
:100300000B68C3400B60EB7B003318BF012384F8FC
:10031000A0301368084A93421CD101221EE000BF9E
:100320003B650008C00000201C240020742400202D
:10033000001002400020024000127A000410014028
:100340002C000020001BB7005000002000093D00D9
:1003500084FD0008B64A934202D10222B54B1A70BE
:10036000DFF82883B44B0DF1780BC8F80C30DAF8BD
:100370001830DFF81CC343F00103CAF81830DAF86C
:100380002430AE4EC4F8A430DAF82430604643F08E
:100390008073CAF82430DAF81830002743F01C03C1
:1003A000CAF818304FF6FF732BF82C3D5946CDF89C
:1003B00008C08DF84E7006F01AFF3046594606F018
:1003C00016FF9F48594606F012FFDDF808C00223C9
:1003D0001EA98DF847304FF010094FF400736046A6
:1003E00021F8343D8DF84690CCF81030CDF808C097
:1003F00006F0FDFE934A5846536843F0007353607D
:1004000007F01AFD904A139B3946B3FBF2F38F4A6B
:100410008F48136018220CF082FC8E4B4FF47A72D6
:100420001B68B3FBF2F38C4A013B5360F02388F85E
:100430002330072397601360AB68DFF85882874F3B
:10044000C8F8003097E80F008BE80F00DAF8183092
:10045000139843F00803CAF81830DAF8183014A9D2
:1004600043F00803CAF8183008233361C6F8109027
:1004700006F0BDFE159816A906F0B9FED8F80030B2
:10048000DDF808C013F0080FCDF80CC015D0744B80
:1004900093F88E31012B10D8724A714BD2F8A420F8
:1004A00093F88F3112F0805200F0328505E06C4BEA
:1004B000002283F88F2106F0F3FC642008F097F8FF
:1004C000A022694800210CF02AFCDAF81C30002236
:1004D00043F00703CAF81C30DAF8183043F400631D
:1004E00043F00C03CAF818305E4B4FF0000903F1DB
:1004F000A80102F8019001320E2AF5D1FF2283F8FB
:10050000B62083F8B72083F8B82083F8B920574B7A
:10051000574A49461A6057483C22D8F800600CF008
:10052000FEFB4946C6F380170523534ADFF844E132
:10053000885C0C224A4302F80E0047B91E38012895
:100540009FBFFF2003F1FF3302F80E00DBB2013141
:100550000529EAD1494A95F805901370484BB10630
:10056000C4F8BC3003F1C003C4F8C030454B3D4A69
:1005700003EBC9035B7848BF0123C2F8C4300021F4
:1005800041481C2284F8BA900CF0C9FB16F4005CB8
:10059000DFF8048106F4006108D151B195F8822199
:1005A00008F10C03012A08BF434604E0CDF8088097
:1005B00002E008F10C030293204BB9F10E0F0F93E8
:1005C000029B5B88ADF84030029B1B88ADF842303F
:1005D0000FABC4F8E03004D009F0EF09B9F1080F0F
:1005E00002D1012384F8DA3001200591CDF810C042
:1005F00007F090FFDDF810C0C6F3400384F8CE305A
:100600001CF1000318BF0123059984F8C830C6F314
:10061000C03384F8CD0084F8D07084F8CB30002942
:100620003CD095F882315F1E7B427B4137E000BFB2
:10063000001BB7009A2C00200005FA05000C0140B1
:10064000001001400000014040420F0080210020C6
:100650004C1200205000002010E000E0ACFD00082B
:1006600074240020C00000202023002078210020D6
:10067000642600203C2100204F1D01083921002064
:1006800084240020C41001088801002000ED00E04F
:10069000000801408C21002084FD00080B4684F8EE
:1006A000CC30C6F3004384F8D130C6F3402384F83D
:1006B000D230D4F8C430B5F84401003318BF012358
:1006C00084F8D330C6F3005384F8D430B5F84631FB
:1006D000A4F8DE00A4F8D830F004B5F8523148BFD1
:1006E000B648A4F8D630C6F3804306F00101C6F33D
:1006F000C00284F8CF3048BFB0F84C61B5F8503133
:1007000048BFAF48A4F8DC3048BFA0F8DE60B3F5BE
:10071000FA7F84BF0023A4F8DE3095F8D231A948CF
:1007200084F8E430002384F8E530437094F8DA303C
:1007300084F8C910002B84F8CA200CBF00230223C0
:1007400001B902B1013308EB83039B6B9A1E1A3384
:100750000793002305920493059B994D33F8024FAC
:1007600005934FF6FF739C4200F0928195F8CD20DF
:10077000E3B2240AE6B21AB19A1E012A40F283813A
:1007800095F8D02032B190491A0189588F4A914288
:1007900000F0798195F8D10030B18B491A01895860
:1007A0008A4A914200F06F8195F8CE2052B1864975
:1007B000039F01EB03114A68BA4203D10A89102A48
:1007C00000F0618195F8CB2052B17F49039F01EB86
:1007D00003114A68BA4203D10A89022A00F0538100
:1007E00095F8CC2052B17849794F01EB03114A6852
:1007F000BA4203D10A89022A00F04581D5F8E07097
:100800008FB1714A02EB031EDEF804103A68914280
:1008100009D1BEF80820B988914200F03481F988E6
:10082000914200F03081022C02D195F8C82003E0FB
:10083000012C04D195F8C920002A00F0248195F8F4
:10084000D320614C1F0162B15D4A92F8DA2042B9AF
:10085000A3F10802012A04D8E2595E498A4208BF7E
:10086000042695F8D4203C445AB1554A92F8DA202F
:100870003AB910B10C3B012B01E0043B032B40F2D1
:10088000EB80012E49D1DFF840C1FF2385F82C31E0
:1008900085F82D310CEB07035A7B586803F10809E2
:1008A0001B894FF00008ADF84C3013A9022385F8DE
:1008B0003081C5F83C418DF84F30CDF818C08DF827
:1008C0004E2085F8E880C5F8EC80C5F8F080C5F8C2
:1008D000F480C5F8288185F82E8185F82F8106F0EF
:1008E00086FCDDF818C099F802105CF80700424653
:1008F00002F07BFE20464146324603F077FE364B3F
:100900003649C5F84031364BC5F84881C5F8443101
:1009100020460A1D03F0B2FEB5E0022E66D19DF816
:1009200010301C2101FB03FC254B9DF8101003EB3C
:100930000C09012389F830310893234B89F83111D0
:10094000DA1902F1080359794FF00008506812894A
:100950008DF84E1089F8328113A989F83A81C9F8C7
:100960003C41CDF824C00693ADF84C208DF84F6083
:1009700006F03DFC144B4246D859069B997802F08C
:1009800034FE089B20461A46414603F02FFE0C4BCE
:10099000144ADDF824C0C9F840219C44124A0CF5E1
:1009A000A071C9F84421C9F8488120460A1D03F006
:1009B00065FE049B0133049365E000BF74240020AE
:1009C000C0000020A5010020E40F01080004004041
:1009D000000C0140002C01404130000800020020C2
:1009E000213100082536000819300008032E31D1C6
:1009F00095F8CF20994B95F8E670994E2AB120468C
:100A000008214FF6FF72002318E0B3F8DC20B3F89A
:100A1000DE30B2F5FA7F0BD992492046B1FBF2F2F3
:100A2000082192B202F036FE8F4B46F827000AE00A
:100A30008E492046B1FBF2F2012192B202F02AFE69
:100A40008B4B46F82700C36095F8E630013385F8F4
:100A5000E63018E0042E16D1B5F8D620834B204698
:100A600093FBF2F20121B5F8D83092B295F8E56027
:100A700002F010FE95F8E53005EB86060133C6F866
:100A8000100285F8E530059B079A93427FF464AE27
:100A9000784B724C1A68039312F4802F02D1012311
:100AA00084F83032744A754F1378754843F0040364
:100AB00013703B784FF48052022B34BF1423102361
:100AC0008DF84E304FF002038DF84F30DAF81830C1
:100AD000ADF84C2043F00403CAF8183034BF0026A8
:100AE000012613A906F083FB664B0EB1664A00E0AF
:100AF000664A00201A6007F08FFD654B654E93E84B
:100B00000300DAF818308BE8030043F00803CAF852
:100B10001830139814A906F06AFBDAF81C304FF06D
:100B2000030943F48043CAF81C30DAF81030304629
:100B300043F48043CAF8103018238DF84E305946DC
:100B40004FF42043ADF84C308DF84F9006F04FFB3A
:100B50004FF0040C4FF48043304659468DF84EC098
:100B6000CDF810C04FF48058ADF84C3006F03FFB84
:100B70001023594630468DF84E30ADF84C8006F0C3
:100B800036FBDAF81030322043F48043CAF81030D4
:100B9000DAF8103023F48043CAF810303E4B1A883C
:100BA00002F4415242F4457242EA09021A809A8BD9
:100BB00022F400621204120C9A8307221A821A8805
:100BC00092B242F040021A809F23C6F810808DF83E
:100BD000443000238DF845308DF846308DF847308D
:100BE00007F005FDDDF810C0C6F8148062465846CF
:100BF00011A908F01FFCC6F810809DF84E309DF832
:100C00004D201B0243EA02439DF84F201343234A21
:100C1000934214D0322007F0EAFCC6F81480F52085
:100C200008F03EFCFF2008F03BFC7028C6F810805E
:100C300005D13B78022B04BF104B83F800903B7822
:100C4000032B0CBF1F20022007F0E4FB3B78032B93
:100C500026D0012006F0C6FC27E000BFC00000201F
:100C6000E821002000127A004131000840420F00C4
:100C7000313100088C2100201C2400209A2C0020F7
:100C800000080140842C002001830008158300081F
:100C9000CCFD0008000C0140003800401520200069
:100CA000022007F037FC0028D3D0039BDFF8E8A22E
:100CB0001E684FF0100B06F400630AF23120002189
:100CC0005A4603933F780CF02AF84FF6FF73ADF8BD
:100CD0004430022306F400494FF000081E408DF80E
:100CE00046308DF8478010D01EA921F834BDA148A8
:100CF00007F054FA0126042207238AF831228AF8E1
:100D000032828AF833628AF83432B9F1000F12D095
:100D100002231EA921F8343D964807F03FFA01232B
:100D2000F21884F8353284F83732072384F83662B3
:100D300084F83832D6B2012F13D920231EA921F806
:100D4000343D8C4807F02AFA0523012284F8393211
:100D500084F83B22731C072284F83A6284F83C2210
:100D6000DEB2039B9BB102231EA921F8343D8248C9
:100D700007F014FA0923012284F83D3284F83F2257
:100D8000731C072284F83E6284F84022DEB27B4F57
:100D90007B487B68002443F440437B607B6943F0DD
:100DA00001037B61BB6943F40073BB6103F05FFA2D
:100DB00013A803F031FA734B012E1393724B07976C
:100DC000149394BF2346802318934FF48073199390
:100DD0004FF48063A7F6F8771A93202313A91B9387
:100DE00038464FF4005316961C93159417941D948F
:100DF00003F01FFA3B68654A43F001033B60536808
:100E0000012E23F4702394BF0021012123F4807369
:100E100043EA0123536091685D4B013E0B4043F46C
:100E2000602343F002039360D36AF6B223F47003A5
:100E300043EA0656D662012356490A1990780028DB
:100E400051D0605C591C0928C9B2D2784F4F10D9D3
:100E5000A0F10A06D7F80CC006EB46064FF0070EC5
:100E60000EFA06FE2CEA0E0EB2404EEA0202FA60BC
:100E70000CE03E6900EB400C4FF0070E0EFA0CFE42
:100E800026EA0E0602FA0CF232433A61062B3F4E76
:100E90000CD8013B776B03EB83031F229A4027EAB0
:100EA000020200FA03F3134373631BE00C2B0CD80C
:100EB000DA1F376B02EB82021F23934027EA0307F6
:100EC00000FA02F33B4333630CE0A3F10D02F76A2F
:100ED00002EB82021F23934027EA030700FA02F382
:100EE0003B43F3620B460434102CA5D1274B9A6880
:100EF00042F480729A609A6842F001029A609A689D
:100F000042F008029A609968204A090746D5FAE734
:100F1000013B092B3FF6D1AAF86A02925946C6F85E
:100F20001490CBF80000039806F061F9039B3C2075
:100F30001A460823136107F05AFB029AC6F810906C
:100F4000164695F88F319E42BFF6B1AA039BDFF893
:100F500028900827C9F8107078205F6107F03CFBE3
:100F6000039BC9F8147078201F6107F035FB013628
:100F7000E7E700BF00080140000C014000100240FC
:100F8000080002404C2401400203002000240140DC
:100F9000FDF7F1FFF1020020C0000020936843F04C
:100FA00004039360C54B9A685207FBD49A6842F4D5
:100FB000A0029A60C24BB3F85801002840F0EC86BA
:100FC000B3F95A21002A40F0E786B3F95C31002BCF
:100FD00040F0E286BB4FBC4C3B6813F4003F1FD08F
:100FE000C82007F004FBAE2006F067FA08B106F04F
:100FF00069FAB64E84F84A02C82007F0F8FAB44BF2
:1010000000210C223046C4F84C320BF088FE02233B
:10101000F37003F059FF07F0C3FAAE4B0344B3601B
:10102000A74ED4F8503296F868C1B3F956E0B6F836
:10103000600196F85F1196F867216346CDF800E0ED
:1010400002F088FC10B9012007F0ECFAA24A4FF038
:101050000A08137843F002031370A04B10225A6160
:1010600008221A61DFF874921920D9F80C3008F1BF
:10107000FF3883F01003C9F80C30D9F80C3083F036
:101080000803C9F80C3007F0B2FA012007F0C4FADF
:10109000192007F0ACFA002007F0BEFA18F0FF089C
:1010A000E0D10823C9F810304FF0100A8C4BC9F872
:1010B00010A01A68984612F0080F09D0894BC9F899
:1010C00014A01B689847884B0122C9F810A01A7019
:1010D000864B188809F06AF9D5F854328146187B96
:1010E00009F064F9824909F0B5F905F049FC0146B7
:1010F000484609F0AFF90DF037F84946A5F858020F
:101100007C4809F05BFA7C4909F058FA7B4BC5F83A
:101110005C027749D86809F09DF9794909F09AF994
:101120006B49B6F84E31774AC5F86412D5F850E2EB
:10113000C5F86C12B6F89411A5F868320023138034
:101140009370C5F860020EF1790285F870321FFACB
:1011500081FCDFF8E0916C48D9F80050DFF8D8A1A5
:1011600005F596754AF8235020F813C00133122B69
:101170004D46EED1D7F800900EF1C90E19F4805FFC
:1011800008BFB6F89AC1A0F806C01378B3B993782F
:1011900092F803C0634511D20BB1013B01E00CF1A1
:1011A000010303EB830392F801C003EB830303F510
:1011B00061739BB20CF1040C20F81C3004327245B0
:1011C000E3D119F0080F00F0068196F88E31062B56
:1011D00000F2FA80DFE803F004070E3551B2B200E6
:1011E00045F2F05301E042F6F823A4F8BC3208F0CF
:1011F0007FFBE8E042F6F8230901A4F8BC320A2399
:1012000091FBF3F10023A1F5B061404A42F82310AD
:101210000133122BF9D13E4A3E49402011603E4A2B
:10122000137007F09BF9002800F0CE8001234FF0E7
:10123000070A90F9000040218DE80804374A384B2E
:10124000BCE042F6F823374AA4F8BC32304B4020C9
:101250001A60314B10221A7007F080F9002800F054
:10126000B38001234FF0000990F9000040218DE880
:1012700008022D4A4FF4E133A0E042F6F8232B4A4E
:10128000A4F8BC32224B40201A60234B08221A706B
:1012900007F064F9002800F0978001234FF0000C5C
:1012A00090F9000040218DE80810214A4FF4E13305
:1012B00007F0DEF8044BC3F8C00281E000240140CF
:1012C000742400208C210020C0000020FC08002095
:1012D000FA250020404B4C001C240020000C01404B
:1012E000841200208C120020080900200000002039
:1012F00035FA8E3C0AE81C4100401C46D4110020FF
:10130000BD378635142100201E2400200020002037
:1013100034000020E7780008782C0020697B000862
:10132000A0860100E3780008BD7A0008DF78000895
:10133000717A0008482400203403002042F6F82285
:101340004B49A4F8BC22062B4FF00C02DFF85CC11D
:10135000DFF85CE147480A7010D000238CF80030B9
:101360008EF800300370444B1B211970434B4FF42F
:10137000E1391A70424B05221A700EE0002101700B
:101380008CF800108EF800103B49212008703B4972
:10139000DFF820910A703A4A13703A4A3A4B4020DB
:1013A0001A6007F0DBF878B101234FF0000E90F9D6
:1013B00000008DE808404B46344A402107F058F8B9
:1013C000003018BF012030B9B368314A23F0080358
:1013D000B3602D4B1A603B68254A13F4804F1FBF42
:1013E000122111702B48284918BF086042F20101F0
:1013F000194099B144F620619804A4F8BC1241BF89
:10140000082111702448204948BF0860D90741BF0E
:101410000C21117021481C4948BF086011781B0637
:10142000A1F10401517054D5DFF88C900020C4F86C
:10143000C49204F081F82A68194B0120DA60194B34
:1014400002211B68A9F5F8751B78002B14BF032235
:10145000012296F8F73100920022019207F008F875
:10146000114B186050BBAB6823F08003AB6028E0E1
:10147000782C00206C2000206E200020FD1F002012
:101480006F200020257800083400002051790008E2
:1014900039790008157900082979000819790008B8
:1014A0006C0900208C09002068090020FE1F002024
:1014B0006D20002090D0030064260020012004F05D
:1014C0003BF8D4F85002CD4B00F5C5721A6004F019
:1014D00083F8029B0425C4F8C832079B4FF0030B26
:1014E0009A69C74842F001029A61029B0EA91A88C4
:1014F0008DF83A50ADF838208DF83BB005F077FE06
:10150000029BBF485A880EA9ADF838208DF83A5092
:1015100005F06DFE029B0120197A05F053FE029B37
:10152000B8495A684FF010034A610025012613A8F4
:1015300013928DF851308DF850508DF8526006F0AE
:10154000EFFD029B11A85A7A8DF845B08DF8442022
:101550008DF846508DF8476007F04EFFAA4ADFF835
:10156000D0921268DFF8CCA23C3AC4F8CC22D8F86A
:10157000002084F8DC5242F01002C8F800204FF03E
:10158000FF32C4F8D022A14AC4F8D4228032C4F871
:10159000D8223A68D00340F1AE8040F22A3803F0F6
:1015A00065FF09F2DD2903F0A3FF03F085FF09F8C9
:1015B000016C2946424648460BF0B1FBDAF8182088
:1015C000934842F00402CAF818204022ADF83820AF
:1015D0000EA918228DF83B208DF83AB006F0DEFDFA
:1015E000DAF81C208B4942F00202CAF81C208A4A11
:1015F0008A4F1268DFF840B2B2FBF1F23988013A43
:1016000021F45C710904090C398092B21D21B9855D
:101610003A85BE823A8C22F001021204120C3A84FE
:101620003A8CB888398B22F0020221F07301090448
:101630001204090C120C41F0600180B23243B880F0
:101640003983BD863A843A8B584622F00802120448
:10165000120C42F008023A83B7F844206FEA424283
:101660006FEA524292B2A7F84420DAF814203243CB
:10167000CAF8142002F0FBFD13A802F0CDFD684B60
:101680005846139310231593802318934FF48073B7
:10169000199313A94FF400531C93CDF85090CDF833
:1016A000588017951A951B951D9502F0C2FDBB89B0
:1016B00011A89BB243F40073BB81DBF8003043F008
:1016C0000203CBF800304FF010038DF845608DF821
:1016D00044308DF846508DF8476007F08DFE514B31
:1016E0001A68514B43F825200135202DF7D105F01C
:1016F0008BFC05F089FC4D4B1A68029312F4806F45
:1017000000F06481D4F888660420C4F88C6606F082
:1017100025FF04218046C4F8900606F015FF074611
:1017200084F894060820C4F8986606F017FF08218C
:10173000C4F89C0606F008FF3D4D84F8A006002181
:101740002C2205F2A1600BF0EAFA8E232C22002154
:101750004FF07C0A84F8A2364FF07D09E02305F2B1
:10176000CD6084F8A43684F8A1A684F8CC960BF05A
:10177000D6FA8A2384F8CE361020A02384F8D036F7
:1017800084F8CDA684F8F896C4F8FC6606F0E6FE68
:101790001021C4F8000706F0D7FE84F804072020C3
:1017A000C4F8086706F0DAFE2021C4F80C0706F03A
:1017B000CBFE84F81007384603F070FB94F811371D
:1017C0000746834242D0002838D0B8F1000F3DD000
:1017D000022398F90000009373780421003318BFA6
:1017E0000123019300224FF4165306F041FEC5F881
:1017F000140758B3012385F8113727E01C0C00208B
:10180000000C01400004014048240020A0260020D4
:101810000008014000366E01500000200004004026
:1018200034040040D4FD0008C80600208C210020AC
:10183000C0000020001002406C000240D5F81407E0
:1018400006F000FEC5F8147785F8117794F8A00625
:1018500003F024FB94F81837B84D834206461AD09B
:1018600088B1D5F89C36B3B10022012693F9000067
:101870000821009601924FF4964306F0F9FDC5F851
:101880001C0730B907E0D5F81C0706F0DBFDC5F8EA
:101890001C6785F8186794F8040703F0FFFA94F8BA
:1018A0002037A64D8342074659D0002837D0D5F8B7
:1018B0000027002A53D0D37992F90000002B4FF073
:1018C00002029F4E08BF03230092002256F82330E5
:1018D0000192102106F0CCFD0646C4F8240700282A
:1018E0003DD095F84A30022B0BD095F89620022A6D
:1018F00001D14C3505E023B1002A05F14C0518BF94
:101900000025C4F8285745B1284600214C220BF089
:1019100006FA02232E6085F84A3001231DE0D5F82F
:1019200024672B68B34207D1304606F08BFD28466A
:1019300039464C220BF0F3F9E36CB34207D1304641
:1019400006F080FD7F4800214C220BF0E8F930467C
:1019500006F078FD0023C4F8243784F8203794F883
:10196000100703F09BFA94F82C37744D8342064617
:101970002CD008B3D5F80C3743B3D5F8082793F922
:10198000000052780323002A0CBF0822092200938A
:101990000192202100224FF4614306F069FDC4F852
:1019A000300798B1012385F8343785F82C37664B1A
:1019B0001B68C5F8383709E0D5F8300706F042FD56
:1019C000C5F8306785F8346785F82C675F4B604D44
:1019D0001B78022B64D15F4A00261388322023F043
:1019E00040031B041B0C138013884FF4805723F013
:1019F00038031B041B0C138013889BB243F0400375
:101A000013809F238DF844308DF845608DF8466033
:101A10008DF8476006F0EBFD8DF84D604E4E0422C8
:101A2000776113A811A907F005FD37619DF84E30C5
:101A30009DF84D201B0243EA02429DF84F301343AC
:101A4000464A934219D00AD8A2F51A42033A934261
:101A50000CD002F51A420232934209D01BE0404AF0
:101A6000934205D00132934207D014E0202300E0D6
:101A70008023AB804FF4807302E04FF48073AB801F
:101A8000EB802B89AA881B02EB6053432B61354BFB
:101A900001221A7004E00023AB80EB80EB602B6125
:101AA0002B69002B00F007814FEAD328C1464FF085
:101AB000000AC2452CDA0AEB08077F10FB0203225A
:101AC0008DF8442000261A0C1B0A8DF845208DF84D
:101AD00046308DF8476007F025FDC8B11E4B4FF426
:101AE000805CC3F814C011A9042230460DF14C0BE0
:101AF000CDF810C0039307F09DFC584631461022E4
:101B000007F098FC039BDDF810C0C3F810C00AE092
:101B10004FEAC923039394F83D2794F83C37934246
:101B200000F0C68020E05BF82630013340F01481DD
:101B30000136042EF7D1B846B946BAE7C0000020F6
:101B4000CC0E01080C010020482400209A2C002013
:101B50000000002000380040000C014018BA2000AE
:101B60001740EF004C2400207D499A4201EB03000E
:101B70001190129108D3D31A139300231493139B3B
:101B8000149A02EB030857E0C3F1800313931492F5
:101B9000F5E7D4F8C077FEB208EB0603B3F5807F13
:101BA0002B698CBFC6F5807646469F427BD20223C6
:101BB000DFF8B4918DF838303B0C4FF4805A8DF833
:101BC00039303B0A8DF83A308DF83B7007F0AAFCAB
:101BD000C9F814A0062007F063FC624B0122C9F883
:101BE00010A000201A700EA9C9F814A0042207F052
:101BF00021FCDDF84CA0BAF1000F21D0B24530D263
:101C0000DDF844B000205946524607F013FC0BEBB8
:101C10000A010023CAEB060911911393DDF850A0C5
:101C2000BAF1000F0ED1504B4FF48052C6EB0808AA
:101C30003E441A61C4F8C067B8F1000FA9D132E080
:101C4000B146EBE7CA4511D2DDF84890002049467D
:101C5000524607F0EFFB09EB0A010023129114939F
:101C6000E1E7B14600230DF14C0B02E00DF1500B02
:101C700004230DF1440C5CF803A04A4600205146B1
:101C80000593CDF810C007F0D5FB059BDDF810C01B
:101C90000AEB09024CF80320DBF80030C9EB030320
:101CA000CBF80030BFE7002384F83D3784F83C3799
:101CB000039BC4F8C037029B1B6813F4002318BFB2
:101CC000012384F8C43706F06BFC284B4FF47A717B
:101CD0001860274B5A79052A04BF4FF4C872A4F83C
:101CE000C627244A1180244AC821118023490A7832
:101CF00042F008020A7022490A7822F002020A70B1
:101D0000029A116840F602020A406AB11D4A032095
:101D1000C4F8C8271C4A10701C4A01201070002209
:101D2000A4F8CC27A4F8CE278A0341BF184A012182
:101D30001171D1789B6844BF41F00101D170029AC2
:101D40001360144A012384F83032137863F07F0360
:101D500013701FB0BDE8F08F07F1010A4F46EBE6A4
:101D6000FE0700204C240020000C0140B408002095
:101D700074240020942C0020962C00206020002049
:101D8000982C0020EC250020002100204C00002091
:101D9000FC0800201C240020424B00221A7000B2D4
:101DA00008F004FB404908F055FB404C0746B4F9E5
:101DB0005A0108F0FBFA3C4908F04CFB0646B4F91E
:101DC0005C0108F0F3FA384908F044FB0446384651
:101DD00004F0D6FD8146384604F05EFD07463046E5
:101DE00004F0CEFD8046304604F056FD06462046FF
:101DF00004F0C6FD8346204604F04EFD4946824667
:101E0000584608F027FB49460390504608F022FB4D
:101E100059460490384608F01DFB51460590384657
:101E200008F018FB41460690584608F013FB204C7A
:101E30005146206008F1004008F00CFB314660601C
:101E4000A660059808F006FB0146049808F0FAF928
:101E50003146E060069808F0FDFA0146039808F064
:101E6000EFF94146206107F1004008F0F3FA3146EE
:101E70006061039808F0EEFA0146069808F0E0F970
:101E80003146A061049808F0E5FA0146059808F08B
:101E9000D9F94946E061404608F0DCFA2062FFF7D4
:101EA00099B800BF1400002035FA8E3C742400203D
:101EB000C80800209148F0B50368914A9C8AA4B2F2
:101EC000E1B211F0010F2ED0198821F4006109044C
:101ED000090C1980198889B241F4806119800021A8
:101EE0001170517899B1917811B9D178FF290ED13B
:101EF000012191701179022901BF198889B241F439
:101F000000611980517941F001011982E1E05179B4
:101F100001F0FE011982D378FF2B00F0DA80784BB4
:101F2000FF211970D5E08E073AD5BFF35F8F147982
:101F3000E4B2012C13D1517889B1917879B1198823
:101F400021F480610904090C1980BFF35F8F198B9C
:101F50001988947189B241F4007119801BE0198BC2
:101F6000BFF35F8F14796649022C0AD14C7844B1D3
:101F7000897831B1198821F480610904090C19802C
:101F8000A1E014795E49032C05D14C781CB1897805
:101F9000002940F09880998889B241F4806197E0E7
:101FA0004D0756D5012191715178002937D091788C
:101FB000002934D011791C88022911781DD924F404
:101FC00080642404240C1C801E8A9568CCB2F6B26E
:101FD00049B26E54198889B241F4007119800168C0
:101FE000A31C13700B8A0134DBB264B22B558B88AF
:101FF0009BB243F480638B8026E0A4B244F4007467
:102000001C801D8A9668CCB2EDB249B275541B8A09
:10201000611C49B2DBB203347354147014E091783C
:10202000374C09B9217B41B1198889B241F400715B
:10203000198013780133137006E0198889B241F4CE
:10204000807119800123A37001680B88DB05FCD423
:102050003FE001F0400101F0FF05E1B114781F8A73
:102060009668E5B2691C64B2FFB23755C9B21679F9
:10207000117049B2CC1CA64201BF9C8824F4806434
:102080002404240C08BF9C8013798B4221D11C4B63
:1020900002351D701DE027061BD511784CB2661C59
:1020A0000AD0156901312C5DC9B21C8214791170F6
:1020B00049B28C420DD106E0D17815701982517861
:1020C00009B9117929B9998821F480610904090CA9
:1020D0009980137992F9004001339C4208490CD150
:1020E00000238B708B7933B101688B8823F44073A4
:1020F0001B041B0C8B8000231375F0BDBC1F00203C
:10210000200C00202DE9F04F87B06C4C02916C49F7
:1021100022888E690546C2EB26135B435200C2EB50
:10212000E602B4F902601B135643B4F90420B4F973
:102130000A0053439B1303EBE62606EB860380332A
:102140001B12B6F5FA384FEAE6770493CB6947F1EC
:10215000FF39A8FB08AB039308FB09F3B4F9082087
:102160000BEB430BE389A6610593D31708FB03F13F
:1021700002FB0911A8FB02230B44C1171F030AFB32
:1021800001F300FB0B33AAFB00011603194447EAD5
:102190001257020A42EA016292194FEA2123E688A5
:1021A0007B410032A2FB060143F5004306FB03110D
:1021B0004B100093CB170193DDE900231343B4F8D0
:1021C00010E0B4F80CC06DD00FFA8EF0C1170AFB06
:1021D00001F1AAFB002300FB0B11BDF914600B44B5
:1021E000F71708FB07F106FB0911A8FB06670F4468
:1021F00079047004801841EAD6315941039B0FFAE3
:102200008CF8C3F5801E7246D317002212184FEACD
:10221000CE764FEAC3774FEAC8034B4147EA5E07E1
:10222000B61A67EB030740F63543A6FB030103FB31
:102230000711DDE9002308F019FBB4F916204E134D
:1022400002FB06FE470B47EAC147D31707FB03EE25
:10225000A2FB07235643734407FB0366A2FB072335
:102260003344560E46EAC3168219B4F914604FEA95
:10227000636741EB07037143F71700FB0717A6FBE2
:1022800000013944C60C46EA413692194FEAE1474B
:102290004FEA1221B4F912207B4141EA0361130194
:1022A0000B4400E000230DB11B0A2B60029B13B10D
:1022B0001A46049B136007B0BDE8F08F6812002037
:1022C000200C0020704770476B4B6C4A2DE9F04F93
:1022D0005E89146A4FEA062AB4EB0A0A9C884FF01A
:1022E00000054FEA04481C894FF0000BA4FB0A6765
:1022F00065EB0B0B04FB0B77F40944EA476418EB1E
:1023000004065C884FF000094FEAE7154FEAC4382D
:10231000DC8849EB050787B0CDE90467A4FB0A67B1
:1023200004FB0B77340A44EA076418EB04064FEA0F
:1023300027259C894FF0000949EB0507CDE9006787
:10234000AAFB046704FB0B77F40D44EA472414F559
:10235000FA664FEAE75545F10007B6F5FA6F77F1EF
:102360000003CDE90267964666DADDE90489A4FB3D
:10237000046704FB05F34FF0050C07EB4307A6FBCE
:102380000C230CFB07335F104FEA3206B8EB06084C
:102390004FEA920646EA837669EB07099F10DDE96A
:1023A0000023921B63EB0703CDE90023DDE90267FD
:1023B000334A4FF0FF33964277EB0303CDE90489AC
:1023C00027DA40F6AC520023A4185D4104FB05F364
:1023D000A4FB04456FF0060205EB4305664202FBD1
:1023E0000566A4FB0223334418EB020649EB0307FE
:1023F000CDE904670B26A4FB062306FB0533DDE9C4
:1024000000455B104FEA3202A41A65EB0305CDE9E3
:102410000045DDE902450AFB0BF3AAFB0AAB0BEB17
:10242000430B4FEADA7242EA4B02A41A4FEAEB730B
:1024300065EB0305CDE90245DEF82440009B019DD4
:10244000A4FB032304FB05334FEA525848EAC32890
:102450004FEA6359DDE90423B8EB020269EB030399
:102460009946D30B43EA494300B1036009B1029B8B
:102470000B6007B0BDE8F08FFC110020200C00209D
:1024800024FAFFFF2DE9F041324C334D62892B8D48
:10249000B4F904809A1A2389B4F902E05A43B4F9D2
:1024A0001230D613B4F91420DB02324493FBF2F25B
:1024B00032440A26E2615643A2F57A6202FB02F335
:1024C000B4F90EC002FB0EFE02FB08F2B4F90C8058
:1024D0001B130CFB03FC03FB08F31B1403EB62321E
:1024E0000232E388921002F5004253434CF250321C
:1024F000B4F920704FEAEE2EB4F900400EEBEC2C4C
:102500000CEB8404BC40ED6A0234A5EBA4043A4110
:1025100062434FEAD3384EBFB2FBF8F35400B4FB2A
:10252000F8F340F6DE3448BF5B001A1252436243B0
:102530000A4C08365C43241404EB224202F6CF62B4
:10254000361103EB221300B1036001B10E60BDE848
:10255000F08100BF10120020200C002043E3FFFF99
:1025600013B50C4B04465B681B20022101AA984757
:1025700070B19DF804209DF8053043EA022303F56D
:102580004E5310334FF48C7293FBF2F323332380BA
:1025900002B010BDE811002037B5104B04465D684D
:1025A000187806216A46A847A8B19DF800209DF832
:1025B0000130012043EA022323809DF802209DF888
:1025C000033043EA022363809DF804209DF8053020
:1025D00043EA0223A38003B030BD00BFE81100200E
:1025E00013B5104B04465B683B2006216A469847AA
:1025F000A8B19DF800209DF80130012043EA022394
:1026000023809DF802209DF8033043EA0223638073
:102610009DF804209DF8053043EA0223A38002B010
:1026200010BD00BFE8110020B0F5807F0ED0BB28A0
:102630000ED861280ED829280ED813280ED80928BC
:102640000ED8002814BF06200020704700207047D5
:102650000120704702207047032070470420704714
:102660000520704710B5224C2368998A89B211F46D
:10267000706F1EBF1F4A012082F8300011F4E06F16
:102680002BD01A8B9A88890522F480624FEA024285
:102690004FEA12429A8020D41A8892051DD41A88D3
:1026A000D0050FD51A88D105FCD41A8892B242F40D
:1026B00000721A801A889205FCD40F4B187804F027
:1026C00091FF0AE01A8892B242F400721A809A8846
:1026D00022F440721204120C9A802268938A23F426
:1026E00070631B041B0C9382024B00221A7510BDF1
:1026F000BC1F0020200C0020C01F0020054A08B588
:10270000138801339BB21380034B187804F06AFFDF
:10271000002008BD02210020C01F002008B54FF492
:10272000804005F02DFD012801BF044B4FF480428D
:102730005A61034B08BF83F8310008BD0004014013
:10274000200C002010B5054C2368186905F018FD11
:1027500018B123681A69024B5A6110BDF4110020A8
:1027600000040140F8B50E461746084C4FF480555A
:10277000656140F0800006F093FE38460021324645
:1027800006F058FE25610120F8BD00BF000C014095
:1027900070B50E46054C4FF48055656106F080FE1D
:1027A000304606F07DFE2561012070BD000C014021
:1027B00070B5FFF739FF104C0546192005F017FFDB
:1027C000A36815200021984710B9022005F02AFFC0
:1027D00045F01801A368C9B216209847A3680021E4
:1027E00017209847A36801213D209847A3683E2001
:1027F0000121BDE870401847E8110020F0B5284DD0
:1028000085B095F83230002B47D1264C2368002B39
:1028100043D01A68244E12B1B1690A43B2619A8852
:102820009868ADF8002002228DF803206946042242
:102830008DF8022004F0DBFCB369002743F00103AC
:10284000B36123680126187B197D04F0BBFC236863
:10285000164993F9150005F02FFF2368144A1B69E8
:102860005361029308230DEB03008DF80D308DF8B2
:102870000C708DF80E6005F053FC236801A85B7D99
:102880008DF806708DF8043003238DF805308DF82F
:10289000076006F0B1FD85F8326005B0F0BD00BFFD
:1028A000200C0020F41100200010024045270008F1
:1028B0000004014037B50446FFF7A0FF254B1A6816
:1028C000254B9A420ED14FF40053ADF80430022349
:1028D0008DF80730042321480DEB03018DF80630F5
:1028E00004F085FC2046FFF79FFE05461C4C802126
:1028F000A3686B209847642005F079FEA368072140
:1029000068209847642005F072FEA36800216B20C0
:102910009847642005F06BFEA36801216B2098475F
:10292000A36818211B209847A36810211C209847F2
:10293000A36829461A209847A368002119209847C0
:10294000A368122137209847A368012138209847AF
:1029500003B030BD2C000020001BB7000010014068
:10296000E811002008B5FFF749FF024B4FF48052F1
:102970001A8008BD0000002070B50446FFF73EFF36
:102980002046FFF751FE0546144C8021A3686B20BA
:102990009847642005F02BFEA36800211920984772
:1029A000A36803216B2098470F2005F020FEA36841
:1029B00029461A209847A36818211B209847A36826
:1029C00010211C209847A368022137209847A3684C
:1029D00038200121BDE87040184700BFE8110020F1
:1029E00008B5FFF70BFF074B5B7813B1012B03D042
:1029F00008BD4FF4006201E04FF48052024B1A8090
:102A000008BD00BFE41100200000002010B51E4CDE
:102A10004000C0B2A36023611C4B6071E1700120D3
:102A200000212173607022712075186884F83010BD
:102A300040B383889B0515D40388D9050DD447F28C
:102A400030530288920502D5013BFAD112E08BB1D6
:102A500003889BB243F48073038083889BB243F462
:102A60004073838047F23053227D12B1013BFBD18A
:102A700000E013B9BDE8104040E6034B93F8300086
:102A800080F0010010BD00BF200C0020BC1F002002
:102A900007B5F7216B4606227620FFF7B7FF9DF8B2
:102AA00000309DF801101B0343EA01139DF802104A
:102AB000094A43EA1113D3619DF803309DF80410CD
:102AC0001B0343EA01139DF8051043EA11139361B8
:102AD00003B05DF804FB00BF200C002007B5002107
:102AE00001AB03227720FFF791FF9DF805309DF899
:102AF00004001B0243EA00439DF80600184303B09C
:102B00005DF804FB08B5FFF7E9FF014B586208BD0B
:102B1000200C002008B5FFF7E1FF014B186208BD4B
:102B2000200C0020104B13B51B78104C13B194F8F7
:102B30003130B3B1032201AB7720F621FFF766FFF6
:102B40009DF805309DF804201B0243EA02439DF8DE
:102B500006201343064AB2F92020C2F10802D340EE
:102B6000E36202B010BD00BF1C000020200C00205A
:102B7000101200200B4B13B51B780B4C13B194F8BB
:102B8000313063B1022201AB7720F621FFF73EFF1F
:102B90009DF804209DF8053043EA0223238502B006
:102BA00010BD00BF1C000020200C002030B50546E1
:102BB0000C46134629462246BDE83040682025E7EA
:102BC00013B50622044601211C206B46FFF71EFFA9
:102BD00008B39DF801309DF80020042143EA022249
:102BE00042F38D0292FBF1F29DF8023022809DF8B3
:102BF000032042EA032242F38D0292FBF1F29DF898
:102C0000043062809DF8052042EA032343F38D03DC
:102C100093FBF1F3A38002B010BD13B50622044666
:102C2000022118206B46FFF7F1FEB8B19DF8003085
:102C30009DF801209B0803EB022323809DF80230BE
:102C40009DF803209B0803EB022363809DF804306A
:102C50009DF805209B0803EB0223A38002B010BD62
:102C6000314B2DE9F3411B780546002B3CD0002465
:102C700026462746A04601345320322108226B46BF
:102C8000E4B2FFF7C3FE08B900204AE09DF8012036
:102C90009DF80030202C03EB02231BB29DF803208B
:102CA00098449DF8023003EB02231BB21F449DF8A9
:102CB00005209DF8043003EB02231BB21E449DF84F
:102CC000073003F07F0301D0002BD4D198FBF4F838
:102CD00097FBF4F796FBF4F6144BA5F800806F8091
:102CE000AE8083F833401CE05320322106226B462D
:102CF000FFF78CFE0028C7D09DF801209DF800301A
:102D000003EB02232B809DF803209DF8023003EB98
:102D100002236B809DF805209DF8043003EB02230D
:102D2000AB8002B0BDE8F081FA110020200C002039
:102D300013B5204B400002ACC0B2587104F8012D0D
:102D4000D970012200211A7359701A711A751A4A22
:102D50001C6110689C6083F8301040B38288920533
:102D600015D40288D4050DD447F230520188890564
:102D700002D5013AFAD112E08AB1028892B242F445
:102D800080720280828892B242F44072828047F25E
:102D90003052197D11B1013AFBD100E012B9FFF7B1
:102DA000ADFC04E0034B93F8300080F0010002B06A
:102DB00010BD00BF200C0020BC1F00207620F42195
:102DC0003122B5E7772048210122B1E77720582149
:102DD0000122ADE7064B002193F82020054B92011C
:102DE000343283F831107720F42102F0FC029FE79F
:102DF00010120020200C0020034B002283F8312009
:102E00007720F4212E2293E7200C002003460A4667
:102E1000682019468CE713B500222A211C20FFF7F1
:102E200087FF0E2102221C20FFF782FF0F210322C1
:102E30001C20FFF77DFF2B2112221C20FFF778FFBB
:102E4000164A02249369164843F004039361202331
:102E5000ADF8043004230DEB03018DF806308DF836
:102E6000074004F0C4F922462C211C20FFF760FF24
:102E70002D2101221C20FFF75BFF2E2100221C20A8
:102E8000FFF756FF2A2105221C20FFF751FF054BB3
:102E90004FF480721A8002B010BD00BF00100240D3
:102EA000000801400000002008B50F21082218206A
:102EB000FFF73EFF0E2218201021FFF739FF024BCB
:102EC0004FF480521A8008BD0000002008B5134B53
:102ED00053201B782D2108227BB1FFF729FF3121D8
:102EE0000A225320FFF724FF2C210C225320FFF746
:102EF0001FFF53203821902209E0FFF719FF3121ED
:102F00000A225320FFF714FF53202C210A22FFF737
:102F10000FFF40F20912024B1A8008BDFA1100207F
:102F200000000020FEF7C6BFFFF79CBBFEF7C2BF44
:102F3000FFF798BB426A806A131A5842584170479B
:102F40004171704743799B070AD5436A8269D1541E
:102F5000436A01690133B3FBF1F201FB12334362AF
:102F60007047427902F0020202F0FF0342B10369A6
:102F7000426A806A013BDBB2101A23EA0000704704
:102F800018467047437913F001031FBFC36803F16C
:102F9000FF32C369006A1DBF181A1040C0B218463C
:102FA0007047437910B513F0010304460DD0FFF7C5
:102FB000E9FF58B1236A6269E168D05C0133B3FB71
:102FC000F1F201FB1233236210BD184610BD90F8D8
:102FD0003B3210B57BB990F83A3290F83942A342AF
:102FE00009D2B0F8401201229A400A430133A0F8F6
:102FF0004022DBB2F3E710BD8379DB0748BFB1FAAB
:1030000081F1D0F8343148BF49095A681B8909B1A8
:10301000136170475361704710F80A3C0133DBB20B
:103020000A2B84BF10F8131C044A00F80A3C82BF24
:10303000002322F8113000F80A3C70474820002095
:10304000334A70B5136C9068194440F68C23081A03
:1030500098429160D060516013463BD9127893F941
:10306000451010468A420BD1111F082908D893F841
:103070004610182901D8013103E083F8442002E00A
:10308000002183F8461093F944402149A24219D106
:1030900091F84740B4B10C310024944206DA51F85B
:1030A000046F1C4D25F814600134F6E70C2805D098
:1030B0001849002421F810400130F7E7164801783C
:1030C0000131017083F84520002201211A7083F834
:1030D000471070BD92F84710C9B140F2DA51A0F222
:1030E000EF248C4208D811780B2905D80B1D01312B
:1030F000117042F8230070BD002283F84720074B6F
:1031000003F13002002143F8041F9342FAD170BD4D
:10311000A801002048200020600C0020B4010020FD
:10312000024A136C0133194411647047A80100204E
:10313000024B53F820301B6819807047E8210020AB
:10314000074BA1F57A7153F820301A681B8959434F
:103150004FF47A7391FBF3F189B21180704700BF8D
:10316000E82100201FB50123ADF80830ADF80410A8
:10317000002301A9ADF80A30ADF80C30ADF80620F7
:1031800004F0BBFE05B05DF804FB38B5A0F5137480
:103190006379A579DB0745D594F8383205F0010548
:1031A000F3B1226B1068838DC3F34E03838494F8CC
:1031B0003C3223B1B4F842320133A4F84232917A5E
:1031C0006A00FFF7CFFF012384F83B32002384F825
:1031D000393284F83A3284F83832A4F8403238BDB3
:1031E00094F83B322046012B04BF94F8393284F81E
:1031F0003A32FFF7ECFE94F83B22236B3AB90122F6
:1032000084F83B221868997A05FA02F207E0002256
:1032100084F83B2295421868997A08BF0222BDE8DB
:1032200038409FE738BD10B5A0F5127494F83C22E1
:10323000BAB9A36A616A994228D0591CA069A162EF
:10324000C35C2069DBB25B0043F400738142A4F8E5
:103250003E324FF00A0384F83D3228BFA2620123B8
:1032600012E094F93D327BB1B4F83E1220464B088F
:10327000A4F83E3201F00101FFF7BEFE94F83D32A2
:10328000013B84F83D3201E084F83C3294F8383256
:10329000002B4ED194F839320133DBB2092B84F87C
:1032A000393203D12046BDE8104090E60A2B40D1C8
:1032B00094F83B322BB9B4F8403243F00103A4F840
:1032C00040326379D9071CD5B4F84002820501D495
:1032D000C30705D4B4F844320133A4F8443210E0F3
:1032E000E36AC0F347000BB198470AE0E3696269FB
:1032F000D054E369E1680133B3FBF1F201FB12330F
:10330000E361012284F8382294F83B220023012A49
:1033100084F839320DD1A27984F83B32236B12F054
:10332000010F1868997A0CBF02220022BDE81040F4
:1033300018E710BDF0B5046D8279A389467923F4AE
:10334000005312F0020F4FEA03434FEA13430CBF3E
:1033500000214FF4005112F0040FA38114BF4FF469
:10336000806E4FF0000E16F0010F8768054614BFFF
:1033700004200020B307238A48BF40F008029BB214
:1033800023F4405343EA01032382A18948BF90B24A
:1033900089B221F4B05121F00C014EEA010140EA5A
:1033A0000102A281A38A87B023F440731B041B0C83
:1033B000A38201A804F040FD039B049E254A944289
:1033C00018BF1E46A389192272431BB2002BB4BF3B
:1033D0007E00BE00B2FBF6F66427B6FBF7F00001F4
:1033E000010907FB1163A28912B2002AB7BFD900F5
:1033F0001A013231B1FBF7F2A7BF3232B2FBF7F359
:1034000002F007021043A8BF03F00F03AA79A8BF78
:10341000184380B212F0010F20812B6D06D00E49A7
:103420008B4202BF042001F54841086112F0080FE9
:103430009A8A0BBF22F0080292B2120442F00802EC
:1034400008BF120C9A829A8992B242F400529A8171
:1034500007B0F0BD00380140004400402DE9F04FB6
:103460001E464FF414734343544D85B02C1D8046C3
:103470009146E718A24610B92B44514A03E00128AF
:1034800005D1504A2B445A631032C3F838214FF407
:10349000147303FB08F34C48EC180AEB030203F522
:1034A0009C733432534460602163A261E361002263
:1034B0004FF480714FF0010BD4F8383103202161B3
:1034C000626222626161E262A26284F8402284F850
:1034D0003CB284F83D22A4F84622A4F84822C4F85D
:1034E0000C906072A67284F84A8258681B8904F5B1
:1034F0009A724FF0020CADF80C3003A91023019220
:103500008DF80E308DF80FC0CDF800C003F06FFEBF
:10351000636BDDF800C0597B58681B898DF80E106D
:1035200003A9ADF80C308DF80FC003F060FE5946CA
:103530003846FFF761FD322005F059F8234B019A18
:103540001B68D2F804B01A46B2FBF9F1B1F5803F1E
:1035500003D3012AF8D95208F6E71D4A4FF4147430
:10356000B3FBF2F204FB08F8584689B2D2B201F07C
:103570003DF805EB0809174B08F512780AEB08042B
:103580000022C9F84C325846214601F077F8D9F8A4
:10359000345016F0010F0CBF022200222868A97ACD
:1035A000FFF7E0FD0C4B2846C9F85032211D0022E0
:1035B00001F064F8384605B0BDE8F08F600C0020DB
:1035C00024100108441001084C0401085000002098
:1035D00040420F00273200088B31000803460A469C
:1035E00090F84602D96A9B7938E71FB50123ADF8F8
:1035F00008300023ADF80C30ADF80A30084BADF8B8
:1036000004101B7801A9012B08BF0323ADF8062085
:1036100008BFADF80C3004F070FC05B05DF804FB99
:10362000A401002038B510F80E2C044650F8043CD4
:1036300052B9012200F80E2C20F80C1C997A186857
:103640000222BDE83840D0E730F80C2C20F80A1CE4
:10365000891A89B220F8081C074A10F80F0C0025B7
:1036600022F8101004F80E5C1868997A2A46FFF7C1
:10367000BCFF04F8065C38BD48200020044B53F81A
:1036800020301BB107289CBF1B681980704700BF02
:10369000D00200202DE9F7438E460546DFF8A092C0
:1036A000114699F8A4440068164698467246631C71
:1036B00089F8A43400F046FF2B8901A9ADF8043045
:1036C00018238DF80630686802238DF8073003F060
:1036D0008EFDAB7A09F59567240127442A6849468F
:1036E0000C2B00F2F680DFE813F00D00F400F4007C
:1036F000F4005100F400F400F4008A00F400F40037
:10370000F400C200138CDFF83CC223F001031B0459
:103710001B0C1384138CB2F804E0108B624520F06C
:1037200073004FEA00404FEA10409BB21FFA8EFE32
:1037300040F0700014D00CF5006C624510D00CF510
:10374000406C62450CD00CF5806C624508D00CF5DD
:10375000806C624504D023F0020343F0030307E0CA
:1037600023F00E032EF4407E43F003034EF4807EDC
:10377000A2F804E01083A2F834801384138B23F0A2
:1037800008031B041B0C43F0080336E0138CDFF81E
:10379000B4C123F010031B041B0C1384138CB2F868
:1037A00004E0108B624520F4E6404FEA00404FEA07
:1037B00010409BB21FFA8EFE40F4E04008D00CF59A
:1037C000006C624504D023F0200343F0300307E08F
:1037D00023F0E0032EF4406E43F030034EF4806E8D
:1037E000A2F804E01083A2F838801384138B23F42A
:1037F00000631B041B0C43F40063138369E0138C08
:10380000DFF840C123F480731B041B0C1384138C5A
:10381000B2F804E0908B624520F073004FEA00405C
:103820004FEA10409BB21FFA8EFE40F0700008D0A5
:103830000CF5006C624504D023F4007343F440732C
:1038400007E023F460632EF4405E43F440734EF4CB
:10385000805EA2F804E09083A2F83C801384938BEE
:1038600023F008031B041B0C43F0080330E0138C07
:10387000DFF8D0C023F480531B041B0C1384108C7E
:10388000B2F804E0938B20F4005023F4E6431B04C9
:1038900000041B0C000C62451FFA8EFE43F4E0434B
:1038A00040F4405003D00CF5006C624503D12EF477
:1038B000804E4EF4804EA2F804E09383A2F840803C
:1038C0001084938B23F400631B041B0C43F40063EC
:1038D00093832B7B43B1B2F844306FEA43436FEAE2
:1038E00053439BB2A2F8443013889BB243F00103C8
:1038F0001380AB7A0C2B19D8DFE803F007181818DF
:103900000B1818180F18181813000B1902F13400AF
:103910000AE00B1902F1380006E00B1902F13C0035
:1039200002E00B1902F14000C3F8A80438460C4429
:10393000A4F8B064C4F8AC2403B0BDE8F08300BFC1
:10394000600C0020002C014003F024BB03F022BBDC
:1039500003F020BB2DE9F04F83468DB00E46904614
:1039600000210C22A3481D46BDF958A009F0D7F943
:1039700000211022A04809F0D2F9A04AA04B1178EA
:10398000914603F11802012988BF1346994C00277C
:1039900039460C222777677704F12000009309F05D
:1039A000BEF9009B2320E36204F021FE7520012173
:1039B0000DF10F02FFF7FAF8A0B1924B384663629F
:1039C000914B0121A36204AA432384F82030FFF71E
:1039D000EDF89DF8103003F07E038DF810300028CC
:1039E00044D14BE094F830306BBB884A884F9369E0
:1039F000384643F008039361102303228DF81A30F0
:103A000006A94FF48053ADF8183000938DF81B20B1
:103A100003F0EDFB009B7F4A3B61138823F04003DA
:103A20001B041B0C1380138823F038031B041B0C8E
:103A300043F00803138013889BB243F040031380C4
:103A4000012384F830307520012106AAFEF78AFE92
:103A50009DF81830702B51D105232377432384F828
:103A600020306D4B63626D4BA36247E0682B05D13C
:103A7000012323771D2384F820303FE09DF80F3089
:103A800003F07E03682B8DF80F3033D1022306201C
:103A900023770146636A06AA98479DF81D1001F036
:103AA00001029DF81B1001F001014B0043EA820165
:103AB0009DF8192002F001030B4309D05BB2012BE2
:103AC00001D1002302E0022B0DD10123637715E021
:103AD000484B0C205B6A012105AA98479DF81430D9
:103AE00013F00F0303D1032004F09CFD06E0042B28
:103AF000EBD1E6E7702B04BF04232377227F00205D
:103B0000022A3C4B84F8310009D14549D960454926
:103B1000196145499961012183F831101BE0012A9F
:103B20000BD1424983F83120D9603E490422196102
:103B30003F4959613C4999610DE0043A012A00F27C
:103B40003C833C4ADA60374A1A61374A9A6101225B
:103B500083F831200722D4F8BC30374943F0010301
:103B60000A70C4F8BC300091344F00233B70082E1B
:103B700000F2AF80DFE806F00AAD0A2B6C8A2B9FBB
:103B80009F00012E40F2B18000263E7099F800306F
:103B9000012B1CD84FF0000C0CAB03F818CD5320B0
:103BA00061460122CDF804C0FEF730FF78B19DF8E0
:103BB0001830DDF804C0E52B09D1214B84F832C060
:103BC0002360204B636004233B70022385E0227F47
:103BD000084B022A3CD11C4A1A601C4A5A605B7F7F
:103BE000002B0CBF6F236E23237201233B70032332
:103BF00073E000BFC8110020D41100209A2C0020CF
:103C000068040108AD2B00080D2E000800100240CA
:103C1000000C01400038004065270008912700088B
:103C2000792900089925000890C1793DB12700083D
:103C300061250008B528000840000020992C0020CC
:103C4000CD2E0008612C0008E1290008E1250008BC
:103C500099F80030012B19D800220CAB03F8182D6D
:103C60001C200D210122FEF7D1FE78B19DF81830FD
:103C70002A2B01D01A2B09D1C74A84F8333022608D
:103C8000C64A02233B706260042326E000210CAB8D
:103C900003F8181D18200122FEF7B8FE58B19DF850
:103CA0001830FB2B07D1BE4B2360BE4B6360012352
:103CB0003B70052311E0237FBB4A043B012B3FF6F9
:103CC00060AFBA4B1360BA4B536001233B700823BB
:103CD00003E0012E09D9002646E7009A5370D4F874
:103CE000BC3043F00203C4F8BC3099F80030012B1B
:103CF00005D105F0FBFBAF4B4FF400525A61042D88
:103D000000F2BD81DFE815F00500C6016400050082
:103D100086010A2004F06BFC7720A021012205AB6C
:103D2000FEF774FE002853D01E2101227720FEF7F3
:103D3000FFFF4FF42F6004F04FFC0026A6F1600156
:103D40000025C9B2022206AB77208DF818508DF8F5
:103D50001950FEF75BFE9DF819309DF8182043EAD4
:103D60000222914B03F1340172520236102EE5D13A
:103D7000B3F842102A4601F00F0601F47F41A3F880
:103D800042102B46012722F001002044808E00289B
:103D900018BF0027D50703D5C0B24340082002E072
:103DA00083EA1023FAE71D0448BF83F4C0530138A7
:103DB0004FEA4303F7D10132102AE4D131437A4A62
:103DC000A4F8421027B9C3F303339E4200F0D58113
:103DD00094F84450002D40F0E981764E05F086FBC2
:103DE00028244FF48047304605A9ADF814708DF8AB
:103DF000164003F0FCF94FF40053336120466E493E
:103E000004F05AFC0E21022003F0DCF90823069787
:103E100006A801278DF81D308DF81C508DF81E70F6
:103E200004F07EF94FF0030C04A88DF811C0CDF812
:103E300000C08DF810408DF812508DF8137005F009
:103E4000DBFA142004F0D3FBD02177203A4605ABEF
:103E5000FEF7DCFD544C3146002800F0BB809DF895
:103E60001430DDF800C0552B84F85F30A4F868C02A
:103E700040F0B080D1213A4605AB7720FEF7C6FD71
:103E80009DF81430772003F00F021B0984F860209E
:103E900084F86130162206ABAA21FEF7B7FD9DF823
:103EA00018209DF8193043EA0223A4F848309DF801
:103EB0001A209DF81B3043EA0223A4F84A309DF8EB
:103EC0001C209DF81D3043EA0223A4F84C309DF8D5
:103ED0001E209DF81F3043EA0223A4F84E309DF8BF
:103EE00020209DF8213043EA0223A4F850309DF8A9
:103EF00022209DF8233043EA0223A4F852309DF893
:103F000024209DF8253043EA0223A4F854309DF87C
:103F100026209DF8273043EA0223A4F856309DF866
:103F200028209DF8293043EA0223A4F858309DF850
:103F30002A209DF82B3043EA0223A4F85A309DF83A
:103F40002C209DF82D3043EA0223A4F85C3041F286
:103F50007073A4F86C3046F67813A4F86E30174BE3
:103F60002367174B6367174BA367174BE367174B21
:103F7000C4F8803094F8443043B9FEF73DFF42F670
:103F8000E06004F029FBB568C5F38035104B1D7067
:103F9000012384F8443009E1172E0008C12B0008E2
:103FA000A92E00081B2C0008C81100206529000854
:103FB000E1250008001001401D270008F92D000828
:103FC000752B0008D52D0008252B00088524000836
:103FD0001C0000207A4A136823F4804313600023F6
:103FE0007848DA0000F18404A5186E68764DAE4278
:103FF0000AD114F93340282C06D183180022C3F8C3
:10400000882083F8842002E00133032BE8D14FF4A9
:1040100000534B616B4C94F89C50002D40F0C080D5
:10402000142004F0E4FA04F19D037620D02101224B
:10403000FEF7ECFC94F89D30582B2BD104F1A00333
:10404000882118227620FEF7E1FC7620F421312227
:10405000FEF76EFE012384F89C305C4BA4F86C5094
:1040600063675B4B236745F6D813A4F86E30594B52
:10407000A367594BE367594BC4F8803090E0012D9A
:1040800008D0574B4F4A9D70D2F8BC3043F0040320
:10409000C2F8BC304B4CD4F8BC309A0701D5236829
:1040A0009847E368584698474E4B99F8009003F1BB
:1040B0001802B9F1010F94BF9946914645464A4FFF
:1040C00000233B700DB1022D6CD100260CAB03F820
:1040D000186D1E200A210122DFF8E880C4F8C09084
:1040E000FEF794FCA8B19DF81830482B60D13F4BE7
:1040F0000222C8F8C4303E4BC8F8C83003233B70D6
:10410000374BDA70D4F8BC3043F00803C4F8BC3045
:1041100001E006464CE0374B93F854210AB184F88D
:10412000312093F855210AB133490A7093F856317A
:1041300003B13B70D4F8BC30224D1B0718D5642660
:104140009AFBF6F4204606F031F9074606FB14A068
:1041500000B206F02BF9294906F07CF901463846F1
:1041600006F070F8264906F075F9C5F8CC0002E0B3
:104170000023C5F8CC3001201FE042F21073A2F8F2
:104180006C30A2F86E301F4B032513671E4B53672C
:104190001E4B93671E4BD3671E4BC2F8803070E7EF
:1041A00004256EE7012DB6D91D4688E7022568E78C
:1041B000012DB0D900253E7087E70DB0BDE8F08F26
:1041C00000040140C81100201D270008C522000876
:1041D000C7220008BD2D0008912A0008052100080B
:1041E00040000020980401089B2C00205372000816
:1041F000FD6E000874240020992C00208988883CDA
:1042000000002041CD2D0008152B0008C52D000809
:10421000052B0008C9220008002303604360836067
:10422000C360036143618361C3610362436283626C
:1042300070478A6810B50C6A036814430A6923F44E
:10424000FF4314434A6923F0700314438A691443FB
:10425000CA6914434A6A14438A6A224313430360B7
:10426000CB6843600B6883604B68C36010BD4FF63A
:10427000FE730268134003600023036043608360A1
:10428000C360294B984201D1284A27E0284B984225
:1042900001D1264A2AE0274B984201D1234A2DE03A
:1042A000254B984201D1214A30E0244B984201D15C
:1042B0001E4A33E0224B984204D11C4A536843F40F
:1042C00070032EE01F4B984204D1184A536843F004
:1042D000706326E01C4B984204D11C4A536843F09B
:1042E0000F031EE01A4B984204D1184A536843F05A
:1042F000F00316E0174B984204D1144A536843F474
:1043000070630EE0144B984204D1104A536843F492
:10431000704306E0114B984204D10C4A536843F4B1
:1043200070235360704700BF080002400000024045
:104330001C0002403000024044000240580002408D
:104340006C00024080000240080402400004024069
:104350001C0402403004024044040240580402405D
:10436000026D70B515880446ADB2A90613D5036B6E
:104370008BB9C36A1BB1908880B298470BE0E169A2
:10438000928840694E1CD2B2E6614254E169E2680B
:10439000914228BFE3612B0613D5636AA26A9A4251
:1043A000236D0AD0511CA069A162825C9A802369A6
:1043B000994206D30023A36270BDDA6822F080021E
:1043C000DA6070BD026B0346C16810B5406942B146
:1043D0001A6C8C1A013A08BF0A46005D1A64C0B212
:1043E00010BD1A6A805C01328A4228BF0022C0B226
:1043F0001A6210BD436B13B190F844007047836A92
:10440000406A1B1A584258417047426A816A0369E0
:104410008A4238BFD218521A416B21B149680A4406
:10442000591E8A4203D2013B981AC0B2704700203D
:104430007047036B13B15B68016C01E0C369016AEB
:104440008B423CBFC2689B18581AC0B27047836A3F
:104450008169426B1944D160416A994297BF0169F1
:10446000CB1ACB1A536096BF0023536083624FF080
:10447000000380F84430136888BF816243F0010371
:1044800013607047436A8269D154436A02690133F9
:10449000934228BF00234362436B1BB11B68DB07B9
:1044A00005D4D4E7026DD36843F08003D36070472E
:1044B0004171FEF73FBF8160FEF73CBF2DE9F0413F
:1044C00005460E46078A83899BB21F40002F37D0CE
:1044D000B7FA87F24FF00043D340DB4399B21F4055
:1044E000A2F11B032982042BF0D8DFE803F0221F7E
:1044F0001C190300746A24B1013C0023A4B2736246
:1045000001E0AC8DA4B2D6F82080B8F1000FDDD068
:10451000D8F80030404621469847D8F80480F4E7A0
:104520003068A98E08E07068298F05E0B068A98F0F
:1045300002E0F068B5F84010036889B29847C5E713
:10454000BDE8F081254B10B55A43254B254C1B681F
:104550000139B3FBF2F20388013AA04289B292B268
:104560009BB212D004F50064A0420ED0B0F1804F8F
:104570000BD0A4F59834A04207D004F58064A04283
:1045800003D004F58064A04202D123F070039BB2F3
:10459000154CA04206D004F58064A0421CBF23F451
:1045A00040739BB203800F4B8185984202850FD0E8
:1045B00003F5006398420BD003F54063984207D09F
:1045C00003F58063984203D003F58063984201D1DC
:1045D000002303860123838210BD00BF40420F00E9
:1045E00050000020002C01400010004073B505462B
:1045F0000068FFF7A7FF2A680124138800269BB2F2
:1046000043F001031380EB7A01A88DF804308DF894
:1046100005408DF806608DF8074004F0EDFEEB7A5A
:104620001B2B0BD1192301A88DF804308DF8054000
:104630008DF806608DF8074004F0DEFE02B070BD14
:104640000C4B800A98420CD004D8B0F5801F0CD1D6
:1046500001207047084B984205D04933984206D054
:1046600003E00220704703207047FE2070470020BF
:10467000704700BF01001000020010002DE9F84350
:1046800004680746204688469146FFF7D9FF03286D
:104690004BD8BA7A9108B8F1000F06D1A589AEB20D
:1046A00002258D4026EA0505A5810A2303FB001398
:1046B0001F4A42F82380043342F82390B8F1000FD8
:1046C00007D0BD7AA189AD080223AB400B439BB252
:1046D000A3812823434303F120011144EFF3128601
:1046E000502585F3128803F10C051C33154413443F
:1046F00055F8047F17B10F60296804319D42F7D146
:1047000000230B60F3B283F31188282303FB0020FE
:10471000036A23B1A3899BB243F0010304E0A38998
:1047200023F001031B041B0CA381BDE8F88300BF29
:1047300020230020004813E69812002000480FE6CE
:10474000EC12002000480BE6401300200B4B4FF406
:1047500000525A604FF6FE730948D0F8DC20116809
:104760000B401360D0F8CC20D0F8D0309A4201D062
:10477000A8306CE6012380F8EC307047000002405E
:10478000981200202DE9F0431D46A84B8DB09842A9
:10479000884617469DF850605CD1A54BA54AA649AE
:1047A000C3F8A82003F1FC02C3F8BC2003F5FE7295
:1047B000C3F8C0204FF48072C3F8B420C3F8B82007
:1047C0009E4AC3F8B070C3F8D820A2F54842543AC4
:1047D000C3F8F420C3F8F020C3F8F800C3F8DC10E5
:1047E000974B9A6942F480429A615A6942F00102F9
:1047F0005A6102238DF803304FF40073ADF8003096
:10480000330701D51C230FE0AC0706D518238D48CC
:1048100069468DF8023002F0EAFCE8070AD54FF449
:104820008063ADF800304823864869468DF8023031
:1048300002F0DDFC0E238DF804300022012301A8D4
:104840008DF805308DF806208DF807307E4C04F089
:10485000D3FDA1E07D4B98424ED1754B754ADF6583
:104860005A654FF480721A665A6603F53F729A666B
:1048700003F57F72DA66764AC3F8A400C3F89C2079
:10488000C3F8A0206E4B3107DA6942F40032DA61D6
:104890005A6942F001025A614FF002038DF8033069
:1048A0004FF00403ADF8003001D51C230EE0AA0739
:1048B00006D51823634869468DF8023002F097FC4C
:1048C000EB0709D50823ADF8003048235D48694659
:1048D0008DF8023002F08BFC26238DF80430002284
:1048E000012301A88DF805308DF806208DF80730DA
:1048F000584C04F081FD4FE0574B984240F0F58052
:104900004B4B4C4A9F601A6003F2FC425A6103F21F
:10491000FC529A614FF48072DA601A614F4A18654E
:104920009A64DA64464B3407DA6942F48022DA6129
:104930009A6942F008029A614FF002038DF8033041
:104940004FF48063ADF8003001D51C230FE0A807B9
:1049500006D51823424869468DF8023002F047FC1C
:10496000E9070AD54FF40063ADF8003048233C480E
:1049700069468DF8023002F03AFC27238DF80430A6
:104980000022012301A88DF805308DF806208DF84E
:10499000073004F031FD264C4FF00009012384F864
:1049A0004430C4F82090C4F81C90C4F82890C4F88F
:1049B0002490C4F82C806571A760A6712046FEF78C
:1049C000B9FCEA0756D5236B002B4BD001A8FFF7A3
:1049D00023FCE36C206B01934FF480530A938023F4
:1049E0000693E368CDF82C90049320230993636920
:1049F000CDF814900293CDF81C90CDF82090CDF80E
:104A00000C90FFF734FC01A9206BFFF712FC226B1E
:104A1000216D136843F0010313608B8A9BB243F04E
:104A200040038B8253689BB2236423E0003801402B
:104A300098120020C80401084400024058000240B7
:104A400000100240000801404013002000440040D4
:104A500004440040EC12002000480040044800409C
:104A6000000C01404FF6DF72236D1A80DA6842F0C5
:104A70002002DA60AB0730D5636B002B28D001A889
:104A8000FFF7CAFBA36C002501934FF480530A93F0
:104A9000802306932369606B0493102303930B9583
:104AA0000595079508950995FFF7E1FB606B01A94E
:104AB000FFF7BFFB636B1A6842F002021A60226DB7
:104AC0005D605D60938A9BB243F08003938204E053
:104AD000226DD36843F08003D360226D2046938912
:104AE0009BB243F40053938100E000200DB0BDE879
:104AF000F08300BF38B5174801F080FC6422B0FB9A
:104B0000F2F302FB1302144B124C5343227821465A
:104B1000A2F13005092D04F10104F7D92E2A0DD197
:104B200042F2107411F8012F303AD5B2092D05D890
:104B300002FB04330A22B4FBF2F4F3E70622033348
:104B4000B3FBF2F36422B0FBF2F0044A02FB003044
:104B500038BD00BF94190020A086010040420F001C
:104B600038B5154B1C4614F8015BA5F12D025542D2
:104B70005541002D08BF1C46204601F03FFC642330
:104B8000584323461A4613F8011BA1F13004092C9F
:104B9000F8D92E290DD15378303BD9B2092908D83C
:104BA0000A2101FB03009378303BDAB2092A98BF4F
:104BB000C01805B1404238BD9419002008B5084816
:104BC00008F009F9C0B209280246054B04DC01309F
:104BD0002021C0B29954F6E700221A5408BD00BF44
:104BE0005C24002008B5074808F0F5F8C0B2142886
:104BF000044B04D8421C20211954D0B2F7E70022FC
:104C00001A5408BD5C2400208F4B24281A6970B503
:104C100002F1010205461A611C4600F00A8105D81E
:104C20000A280CD00D2840F01F8108E02A2806D061
:104C30002C2840F019811B7D83F02C032375627DA5
:104C4000814B0E2A00F2E780002199549A7D002AB8
:104C50005AD01A78A2F14103052B01D8373A05E062
:104C6000A2F16103052B94BF573A303A63781201E1
:104C7000A3F141010529D2B201D8373B05E0A3F1E8
:104C80006101052994BF573B303B1A44217DD2B2C4
:104C900091426D4B32D1DA7D002A00F0BC801A8B34
:104CA000596A01321A831A6A93F82800DA61674A4E
:104CB000116088B1012840F0AC801A6BD96BDA62C0
:104CC0009A6B5A63624A1160624A196C11609A6C5D
:104CD0005A641A6DDA649FE0596D5F4A11601A6B6D
:104CE000D96BDA625A4A1160196C5A4A11605B4AF0
:104CF000B3F8581011801A6EDA658AE0B3F86420B0
:104D00000132A3F8642086E093F86620CAB9013B1B
:104D10001946534A11F8010F002800F0B58012F827
:104D2000016F8642F6D04F4A13F8010F002800F0B9
:104D3000AF8012F8011F8142F6D0022384F8283098
:104D400069E093F82810022965D01B78002B62D007
:104D500042EA4112013A282A5DD8DFE802F0152123
:104D6000282E32454B52565C5C5C5C5C5C5C5C5C47
:104D70005C5C5C5C5C5C5C5C5C5C5C5C5C5C151CFA
:104D800021282E32383C4000FFF7EAFE206303F072
:104D900001FC20623FE0A3F141025342534127E06E
:104DA000FFF7A8FEE06303F0F5FB606233E0532BEE
:104DB00031D1E36B5B42E3632DE0FFF79BFE2064A0
:104DC00029E0572B27D1236C5B42236423E0FFF7B4
:104DD000C7FEA0641FE0FFF7C3FE20651BE01A4872
:104DE00001F00CFBA06316E0302B94BF00230123DD
:104DF000E37510E0144808F0EFFEC0B2A4F85800C4
:104E000009E0FFF7ADFE206605E0FFF7A9FE60654B
:104E100001E0012000E0002094F86630013384F8BE
:104E2000663000236375A5F12A035D425D41A575D7
:104E300070BD00200222587583F86600187583F84B
:104E400028209875D87570BD941900202409002079
:104E50001809002020090020280900202E09002020
:104E60002D13010833130108637D0B4A0D2BA07D20
:104E70009EBF591C5175D554074A18B9137D5D4022
:104E8000157570BD002070BD012384F82830C3E77C
:104E900084F82800C0E700BF94190020022803D03E
:104EA000431E584258417047054B1B681B7823B975
:104EB000044B1878C0F3800070470020704700BF93
:104EC00048070020982C00202DE9F74303F068FBE9
:104ED000AA4CA36EC31A002BC0F28C8200F5433398
:104EE00003F5A073A366A64B94F86C101B78C3F36C
:104EF0008003591A18BF012184F86C304BB1002986
:104F000000F078829F4B5A789A7001225A701A707A
:104F100025E09C4A29B1D37843F00203D3709378FB
:104F20005370D57805F0020101F0FF0339B99549B6
:104F30008968411A002903DB05F0010300E0012321
:104F400003F001068F4916704BB1EB0707D50B79BB
:104F50008D4A013303F001030B71D35C4B70894E12
:104F60008A4F337873B3F37823F00203F370884BDE
:104F70000344AE20B36002F0A0FA08B102F0A2FA36
:104F80003870002800F03682B02002F096FA4020F7
:104F900002F093FA002002F090FA102002F08DFA4D
:104FA0004FF48065013D0020ADB202F05DFA002DA6
:104FB000F8D1284602F0F5FA7278764B53F82200C1
:104FC00002F072FA3B78002B00F014827378724D75
:104FD000052B00F2FA81DFE813F00600F801170054
:104FE0007900E60125016D496D4A6E4B6E4804F06B
:104FF00072FB012002F0D5FA6B4802F055FA02204C
:1050000002F0CFFA6948DEE1DFF8D081D8F800304D
:105010009F0756D5DFF8C891002299F800306449FF
:1050200000936148134604F056FB624FFFF7DAFD28
:10503000012002F0B6FA5C4802F036FA396899F8B5
:1050400000200E79C97802FB06F36FF063008E1B17
:1050500043435643B3FBF6F60220F6B202F0A1FA40
:10506000304604F00FFBD8F80030180540F1AD8150
:1050700000221346009250494B4804F02CFBFFF7E6
:10508000B1FD032002F08DFA474802F00DFA3B68AB
:10509000988905F08BF90646042002F082FA304622
:1050A000464905F0D7F9314605F088FA05F098FB36
:1050B0006428A8BF642020EAE070C0B204F0E2FADD
:1050C00083E1F37843F00203F3707EE13C4B3D4E05
:1050D0001B8813F0040F40F085803B4B3B49B3F92C
:1050E0000020314804F0F7FAFFF77CFD012002F0C0
:1050F00058FA2D4802F0D8F9354F31682A4891FB0B
:10510000F7F30029B4BF4FF0FF32012283EAE37EB8
:10511000AEEBE37E07FB1313002BB8BF5B420EFB25
:1051200002F22C4904F0D7FAFFF75CFD022002F0EE
:1051300038FA1D4802F0B8F973681B4893FBF7F181
:1051400081EAE17E07FB1133AEEBE17E3168042793
:105150000029B4BF4FF0FF320122002B1E490EFB85
:1051600002F2B8BF5B4204F0B6FAFFF73BFD032042
:1051700002F017FA0C4802F097F934E09419002075
:10518000982C0020FC0800202C1301080A030020A2
:10519000404B4C00E4040108CA1301083A1301080B
:1051A00043130108491301085C240020511301082E
:1051B00056130108880800206E1301080000C84239
:1051C00090210020FC2300203009002083130108D7
:1051D000A08601008E1301089D1301088C21002078
:1051E0004C0000200127B6F90820B3898349844880
:1051F00004F071FAFFF7F6FC384602F0D2F9804865
:1052000002F052F97F4B76895A890A23B2FBF3F2F6
:105210007D49B6FBF3F37A4804F05DFAFFF7E2FC50
:10522000781CCDE0794B1B6819067FF54AAF784BA7
:10523000216F1B68774A8B421CBF136792F874304A
:105240004FF001011CBF013303F003034FF00000D6
:1052500018BF82F8743002F0B0F994F87430002668
:10526000E85C02F006F90220012102F0A6F96A4B7F
:105270003620F35C0136C3EBC30393FBF0F0C0B2FE
:10528000062828BF06206038C0B202F0F2F8102EBF
:10529000EDD1624B62491B78594813F0020F614B04
:1052A0001A7814BF59234E2304F015FAFFF79AFC1D
:1052B000022002F076F9524802F0F6F85A495B4BA8
:1052C0004E680A684E4892FBF3F2594996FBF3F395
:1052D00004F001FAFFF786FC032002F062F9484867
:1052E00002F0E2F8534B54491A88454804F0F3F9A8
:1052F000FFF764FC042002F054F9414802F0D4F8AE
:105300004E4B4F491A883E4804F0E5F9FFF756FC2A
:1053100004210A2002F051F9394802F0C5F8494B3E
:1053200049491A68364804F0D6F9484EFFF746FC5A
:10533000052002F036F9324802F0B6F87268B36818
:1053400043492F4804F0C7F9FFF738FC05210A202C
:1053500002F033F92A4802F0A7F83369F2683D49B0
:10536000D21A274804F0B7F9FFF728FC062002F00C
:1053700018F9234802F098F8B2683749204804F039
:10538000AAF9FFF71BFC06210A2002F016F91C48B7
:1053900002F08AF831491522194807F047FDFFF756
:1053A0000DFC07200CE02E4B1B889A077FF589AE79
:1053B000012002F0F6F812482A4904F08CF9022084
:1053C00002F0EFF80E4802F06FF81420002102F00E
:1053D000F4F894F87560A85D02F04BF8224B1B7846
:1053E0001BB91F4B1B889B0704D5013606F003062B
:1053F00084F8756003B0BDE8F08300BFAC1301080A
:105400005C2400200C240020BD1301088C21002006
:10541000E809002094190020C6090020602000201F
:10542000CF130108500900205409002080969800ED
:10543000E0130108080A0020ED1301080A0A002001
:10544000F5130108040A0020FC1301086C09002070
:10545000031401080C14010813140108ED090020BD
:10546000902100201B14010833090020104900235B
:1054700070B518460C6819460E4A82F8763082F8E4
:10548000773025186D880DB9265C5EB12D0548BFB3
:10549000013100F1040003F1010348BFC9B28028C3
:1054A000DBB2EED182F8763082F8771070BD00BFA3
:1054B000940300209419002010B50C4B93F8781039
:1054C00093F87920480801F00101014483F87B102A
:1054D000510802F00102441E0A44481E83F87A4033
:1054E00083F87C0083F87D2010BD00BF9419002054
:1054F0000023F0B518461C460D4A0E4992F8766016
:105500000F6882F87930C1B2B1420CD217F820107E
:1055100001300D099D4201F00F01A8BF6B1CA14293
:10552000A8BF4C1CEFE782F8793082F87840F0BDD4
:1055300094190020940300200449054B09680022B7
:1055400018705A6199611A77704700BF482400208B
:105550006C090020F8B5101A0D461F4604F026FF0E
:105560000446781B04F022FF174B079E196804F0CD
:1055700071FF21460546204604F06CFF2946074688
:10558000284604F067FF0146384604F05BFE08F049
:1055900081FE0E4904F05EFF05F048F9069B29469E
:1055A000186004F1004008F073FE094904F052FF4E
:1055B000084904F047FE05F013F90028BCBF00F5C8
:1055C0000C40A0303060F8BD180000202C7D8E3FCC
:1055D000A00CB34500A00C4670B50446407904F019
:1055E000E1FE1E4904F0EAFF1D4D1E4E2860E07BDF
:1055F00004F0D8FE194904F0E1FFEE606860A0797C
:1056000004F0D0FE184904F0D9FF184D2860207C22
:1056100004F0C8FE114904F0D1FF6860A07E04F0D8
:10562000C1FE134904F0CAFFEE60A860E07904F0FF
:10563000B9FE0D4904F0C2FF0E4D2860607C04F0F5
:10564000B1FE064904F0BAFF6860E07E04F0AAFEED
:10565000074904F0B3FFEE60A86070BD0000C842C7
:105660000C0C00200000FA4400002041FC0B00203C
:1056700000007A44EC0B002001480249FEF71EBFEF
:10568000000800409823002001480249FEF716BF99
:1056900000040040702300204FF080400149FEF7D5
:1056A0000DBF00BF4823002001480249FEF706BF96
:1056B000002C01402023002001480249FEF7FEBED5
:1056C000002C0140202300200B88584080EA001065
:1056D000C0B21B0A83EA101343EA002383EAC00323
:1056E0000B8070470E4B1A786B2A15D15A88B2F589
:1056F000006F11D11A79BE2A0ED193F8DD27002050
:10570000EF2A0BD113F8012B5040064A9342F9D1EE
:10571000B0FA80F04009704700207047704700BF22
:1057200000F80108000002082DE9F84FB94C0021EB
:105730004FF400622046B84E07F0F1FA04F53B73CF
:10574000B64A3360B64F0023137004F2B6723A6063
:105750006B222270032262714FF41672A4F8622148
:10576000FA22A4F864212A22A4F860214FF4FA72E4
:10577000A4F86A21012284F85E2184F87A2184F851
:105780008221052284F82B2240F2DC52A4F89421D5
:1057900040F24C42A4F8962140F26C72A4F8982191
:1057A00040F27532A4F89A2140F6430225462021A2
:1057B000A16084F866116E2184F878110A2184F8BA
:1057C00079112B2184F87B11212184F87C1123216C
:1057D00084F87D114FF4C871A4F87E11A4F89C21BF
:1057E000032BCCBF0122002203F1010384F89E2188
:1057F00014BF1E220522122B84F89F2104F10204FB
:10580000EED14FF47A73A5F8C231A5F8C631A5F8E8
:10581000CA31A5F8CE31A5F8443140F27E5340F2AA
:105820007E41A5F8483140F2EA53A5F84011A5F8A9
:105830004A3140F23A7140F2B4534FF4FA62A5F89B
:10584000C421A5F8C821A5F8CC21A5F8D0210522AE
:1058500085F8DE21C8224FF001084FF03209A5F883
:10586000E2214FF4C8724FF01E0A4FF0190B85F871
:10587000E08185F8E18185F8E481A5F8E621A5F8C5
:105880004211A5F84C31A5F84E9185F8938185F821
:10589000DD8185F8EA81A5F8502185F8ED8185F84C
:1058A00091A185F8DFB1A5F8529103F0F5FF40F61C
:1058B000AC533468AB810F200023EB73AB73607182
:1058C0002220A0710E20172120744FF00A0E3520DF
:1058D0006175A175A0765521212084F812E04FF062
:1058E000640EE17060742D21532084F81CE04FF0A9
:1058F000780E28226173E07684F80AE05A20DFF8F7
:1059000040E121754FF4FA7184F80080E375A373C8
:105910002376E3736376207284F81E80627084F8C5
:105920000BA0A27084F80CA084F8049084F807B04F
:105930006272A4F84E103B49C4F838E0C4F83CE069
:10594000DFF800E1E162216361633749C4F828E0D0
:10595000DFF8F4E02164DFF8F4C03449C4F848E02B
:105960004FF04B0E84F8523084F8513084F85030A8
:10597000C4F820C0C4F824C0616484F84CE085F801
:10598000B607412085F8B70740F2DC5085F8B937F3
:1059900085F8BD3785F8BE3785F8BA3785F8BB3747
:1059A00085F8BC3785F8B897A5F8C007A4F8583033
:1059B000A4F85A30A4F85630042384F85C30152338
:1059C00084F868301A4B216684F8642084F86520D6
:1059D000E366184B84F878802367174BDFF87080F4
:1059E000636718F8011F002936D0DFF86890484631
:1059F00007F0E3F90028F4D009F1080398423FBF0B
:105A00000E4BC9EB00004019C3EB080338BF80F808
:105A10008631E6E77424002010030020382100209E
:105A2000BC1E0020CDCCCC3E0AD7233C0000A040B9
:105A30009A99193FF6287C3F3D0A773F6E1401087A
:105A40008FC2F53C00006040000040403333B33F5C
:105A50006D140108771401082046282384F81331B7
:105A6000012384F814314FF44873A4F816310A2343
:105A700084F8111184F8121184F8181185F8D431C2
:105A8000C82385F8D5314FF47A73A5F8D63164234D
:105A900085F8D811A5F8DA310E2303FB01436FF026
:105AA000170E83F819E14FF0030E83F81AE16FF037
:105AB0002F0E83F81BE14FF0070E83F81CE16FF007
:105AC000230E83F81DE14FF0050E83F81EE101312E
:105AD0004FF05A0E80F820E180F821E164234FF066
