:020000040800F2
:1000000000500020F9D3000899D4000899D40008C2
:1000100099D4000899D4000899D400080000000081
:1000200000000000000000000000000099D400085B
:1000300099D400080000000099D40008AF97000888
:1000400099D4000899D4000899D4000899D40008DC
:1000500099D4000899D400088559000883590008EC
:1000600099D40008BD97000899D4000899D40008D5
:1000700099D4000899D4000891AF000899D40008D9
:100080008759000899D4000899D4000899D4000829
:1000900099D4000899D4000899D40008815900081F
:1000A00099D400085DAD000899D400086DAD000832
:1000B00051AD000841AD000831AD00084D490008C0
:1000C00051490008454900084949000899D40008E9
:1000D00099D4000885AF000879AF00086DAF00081B
:1000E000C197000899D4000899D4000800000000C6
:1000F0000000000000000000000000000000000000
:0C01000000000000000000005FF808F1A3
:100110002DE9F04F834B844C9FB0C4F898300023F6
:10012000C4F89C3006F0FEFE18B906F01DFF08F07A
:10013000ADF808F051F994F8A0307C4D43F001037C
:1001400084F8A03000230B930C930D934FF4E0132D
:100150000E93774BA87B99461A6842F480321A6056
:100160009A6942F010029A61D9F8003003F4003322
:100170000C930B9B01330B930C9B1BB90B9BB3F59F
:10018000A06FF1D1D9F80030694913F4003301D0E0
:10019000022317E00A6842F001020A600B93D9F8C3
:1001A000003003F002030C930B9B01330B930C9B69
:1001B0001BB90B9BB3F5A06FF1D1D9F800309A07AA
:1001C00041D501230D935B4B5B491A6842F0100245
:1001D0001A601A6822F003021A601A6842F00202DA
:1001E0001A60D9F80430C9F80430D9F80430C9F8D5
:1001F0000430D9F8043043F48063C9F804304F4B1D
:100200001A68043B22F070425A604D4A1160D9F8D6
:10021000041021F47C11C9F80410596841F0004120
:100220005960D96821F40041D9609B681B0449BF1B
:10023000444B4FF4E01313604FF480130E930D9B67
:10024000012B01D118E0FEE7022B1BD168B10E9BF8
:10025000B3F5801F02D14FF4A01305E00E9BB3F558
:10026000E01F02D14FF400130E930E99D9F8043019
:100270000B4343F4803303E0D9F8043043F46013B4
:10028000C9F80430D9F8003043F08073C9F8003061
:10029000D9F80010264B8F01FAD5596821F00301D7
:1002A0005960596841F002015960D9F8043020487A
:1002B00003F00C03082BF8D14368234903F00C0327
:1002C000042B03D0082B03D01B4B12E0136810E063
:1002D00043684668C3F38343F60303F1020301D482
:1002E0001A4805E0406810F4003F106818BF400845
:1002F00043430B60D9F804301548C3F30313034498
:1003000093F878000B68C3400B60EB7B003318BF99
:10031000012384F8A1301368074A93421AD10122BD
:100320001CE000BF337E0008B800002094200020AD
:10033000001002400020024000127A000410014028
:1003400030000020001BB7004800002000093D00DD
:10035000D4260108984A934202D10222974B1A7080
:10036000DFF8B0A2964BDFF8B0B2CAF80C30D9F87B
:100370001830944E43F00103C9F81830D9F82430EE
:100380000027C4F8A430D9F82430584643F08073CD
:10039000C9F82430D9F818304FF0100843F01C0386
:1003A000C9F818301EAB03934FF6FF73039A8DF80C
:1003B0004E7022F82C3D1146039205F010FB30469A
:1003C000039905F00CFB8048039905F008FB022314
:1003D0001EAA8DF847304FF4007322F8343D069280
:1003E00006998DF846805846CBF8103005F0F7FA9C
:1003F000764A0398536843F00073536009F0BEFED9
:10040000734A139B3946B3FBF2F3724A7248136086
:1004100018220EF01EFF714B4FF47A721B68DFF842
:10042000CCC1B3FBF2F36E4A013B5360F0238AF870
:100430002330072397601360AB686A4A039FDFF895
:10044000DCA113609AE80F0087E80F00D9F8183094
:10045000CDF810C043F00803C9F81830D9F81830A7
:10046000139843F00803C9F818300823336114A91E
:10047000C6F8108005F0B3FA159816A905F0AFFA82
:10048000584BCDF814B01B68564F13F0080FDDF829
:1004900010C013D09CF88E31012B0FD8524A9CF813
:1004A0008F31D2F8A42012F0805B00F01D8505E0AA
:1004B0004E4B002283F88F2108F05FF9642009F089
:1004C0006CF9A0224A4800210EF0C3FED9F81C3076
:1004D000002243F00703C9F81C30D9F8183043F460
:1004E000006343F00C03C9F818303F4B4FF000088D
:1004F00003F1A80102F8018001320E2AF5D1FF2292
:1005000083F8B62083F8B72083F8B82083F8B920A1
:10051000384A394B41461A6038483C223E680EF052
:1005200098FE4146C6F380170520354BDFF8CCE036
:10053000CA5C0C234B4303F80E2047B91E3A012A2C
:100540009FBFFF2200F1FF3003F80E20C0B201313F
:100550000529EAD12B4B95F805A018702A4BB10656
:10056000C4F8BC3003F1C003C4F8C030274B1E4AA6
:1005700003EBCA035B7848BF0123C2F8C4302448A8
:1005800000211C2284F8BAA00EF063FE16F400537A
:10059000DFF88CB006F400680AD1B8F1000F41D042
:1005A00095F882110BF10C02012908BF5A463BE075
:1005B000CDF810B039E000BF001BB7004B2B002076
:1005C0000005FA05000C0140001001400000014048
:1005D00040420F00E01C0020181C002048000020B2
:1005E00010E000E0E41C0020B8000020942000206F
:1005F0004C1D002084220020301C0020F808002020
:10060000D6440108F5080020A4200020803B010802
:100610008001002000ED00E0000801405C27010897
:10062000D42601080BF10C020492BC4ABAF10E0F59
:100630001192049A5288ADF84820049A1288ADF8B5
:100640004A20069AC4F8E02004D00AF0EF0ABAF172
:10065000080F02D1012284F8DA200120069309F064
:100660002FF8069BC6F34002003318BF012384F81D
:10067000C830C6F3C03384F8CD0084F8CE2084F8A7
:10068000D07084F8CB30B8F1000F07D095F8828194
:1006900008F1FF37D7F1000848EB0708C6F300431D
:1006A00084F8D130C6F3402384F8D230D4F8C43073
:1006B000B5F84401003318BF012384F8D330C6F3E2
:1006C000005384F8D430B5F84631A4F8DE00A4F81D
:1006D000D830F004B5F8523148BF9148A4F8D6306C
:1006E000C6F3804306F00101C6F3C00284F8CF30A0
:1006F00048BFB0F84C61B5F8503148BF8948A4F8FC
:10070000DC3048BFA0F8DE60B3F5FA7F84BF002379
:10071000A4F8DE3095F8D231834884F8E430002321
:1007200084F8E530437094F8DA3084F8CC80002BFC
:1007300084F8C91084F8CA200CBF0023022301B931
:1007400002B101330BEB830BDBF898304FF0000B59
:100750009A1E1A3306920793069B33F8024F0693AC
:100760004FF6FF739C4200F08B816E4FE3B297F817
:10077000CD20240AE5B2B8461AB19A1E012A40F2E9
:100780007A8197F8D02032B168491A018958684AAD
:10079000914200F0708197F8D10030B163491A019D
:1007A0008958634A914200F0668197F8CE2052B191
:1007B0005E49059E01EB03114A68B24203D10A89E2
:1007C000102A00F0588197F8CB2052B15749059E66
:1007D00001EB03114A68B24203D10A89022A00F0F0
:1007E0004A8197F8CC2052B150494C4E01EB03118D
:1007F0004A68B24203D10A89022A00F03C81D7F844
:10080000E0608EB1494A02EB031EDEF80410326844
:10081000914209D1BEF80820B188914200F02B81A5
:10082000F188914200F02781022C02D197F8C8206C
:1008300003E0012C04D197F8C920002A00F01B81A5
:1008400097F8D320394C1E0162B1364A92F8DA206B
:1008500042B9A3F10802012A04D8A25935498A42B3
:1008600008BF042597F8D42034445AB12D4A92F891
:10087000DA203AB910B10C3B012B01E0043B032B09
:1008800040F2E280012D5DD1DFF8A0A0FF2387F8C0
:100890002C3187F82D310AEB060303F1080C5A7B43
:1008A00058681B894FF00008ADF84C3013A902239B
:1008B00087F83081C7F83C418DF84F30CDF820C023
:1008C0008DF84E2087F8E880C7F8EC80C7F8F080F4
:1008D000C7F8F480C7F8288187F82E8187F82F8120
:1008E00005F07DF8DDF820C05AF806009CF80210EB
:1008F000424604F0F0FF204641462A460AF092FAAA
:100900000D4B0E49C7F840310D4BC7F84881C7F869
:10091000443120460A1D0AF0CDFAACE0000C01403B
:1009200094200020B80000209D010020A03A01087A
:1009300000040040002C014011560008F80100207E
:10094000F1560008022D49D15FFA8BF24FF01C0CD2
:100950000CFB02FCB94B002703EB0C0808934FF08B
:10096000010388F83031B64B88F831B19A19517BC0
:10097000506802F1080A12898DF84E1088F8327119
:1009800013A988F83A71C8F83C41CDF824C0ADF8F5
:100990004C208DF84F5005F022F8A94B9AF8021020
:1009A00098593A4604F097FF2046394601220AF04A
:1009B00039FAA449089BDDF824C0C8F84011A249BF
:1009C0006344C8F8441103F5A071C8F84871204683
:1009D0000A1D0AF06FFA0BF1010B4CE0032D31D127
:1009E00097F8CF20954B97F8E660984D2AB12046AE
:1009F00008214FF6FF72002318E0B3F8DC20B3F8AB
:100A0000DE30B2F5FA7F0BD991492046B1FBF2F204
:100A1000082192B205F0D6F88E4B45F826000AE080
:100A20008D492046B1FBF2F2012192B205F0CAF8DD
:100A30008A4B45F82600C36097F8E630013387F803
:100A4000E63018E0042D16D1B7F8D620824B2046A8
:100A500093FBF2F20121B7F8D83092B297F8E55043
:100A600005F0B0F897F8E53008EB85080133C8F8D1
:100A7000100287F8E530069B079A93427FF46CAE2C
:100A8000774B6E4C1A68984612F4802F02D10123DE
:100A900084F8303294F8A030724E43F0040384F8A6
:100AA000A03033784FF48052022B34BF142310232C
:100AB0008DF84E304FF002038DF84F30D9F81830D2
:100AC000ADF84C2043F00403C9F8183034BF0025BA
:100AD0000125654813A904F082FF644B0DB1644AF7
:100AE00000E0644A00201A6008F06CFE624B634D1F
:100AF00093E80300039B4FF0030B83E80300D9F84E
:100B00001830139843F00803C9F8183014A904F0FA
:100B100066FFD9F81C30284643F48043C9F81C30DE
:100B2000D9F81030039943F48043C9F810301823E2
:100B30008DF84E304FF42043ADF84C304FF0040A9E
:100B40008DF84FB004F04BFF4FF4804328460399D3
:100B50004FF48057ADF84C308DF84EA004F03FFFB5
:100B60001023039928468DF84E30ADF84C7004F0F0
:100B700036FFD9F81030322043F48043C9F81030E2
:100B8000D9F8103023F48043C9F810303C4B1A8850
:100B900002F4415242F4457242EA0B021A809A8BE7
:100BA00022F400621204120C9A8307221A821A8815
:100BB00092B242F040021A809F232F618DF840309C
:100BC00000238DF841308DF842308DF8433008F025
:100BD000E4FD52466F61039810A908F047FF2F61AA
:100BE0009DF84E309DF84D201B0243EA02439DF8CC
:100BF0004F201343234A934212D0322008F0CDFDF8
:100C00006F61F52008F068FFFF2008F065FF70288D
:100C10002F6105D13378022B04BF124B83F800B04B
:100C20003378032B0CBF1F20022008F01DFD337802
:100C3000032B29D0012005F07FFB2AE0B80000201B
:100C4000A03A010811590008E9550008EC1D0020E0
:100C500000127A001157000840420F0001570008A7
:100C6000E41C00204B2B002000080140342B002006
:100C700045920008599200087C270108000C0140A9
:100C80000038004015202000022008F019FD00283F
:100C9000D0D0DFF8E0924FF0100A09F231200021A5
:100CA0005246D8F8005036780EF0D3FA4FF6FF735C
:100CB000ADF84030022305F4004805F400674FF01A
:100CC000000B1D408DF842308DF843B010D01EA9A6
:100CD00021F838AD9E4809F0D3FD042389F831325C
:100CE0000125072389F832B289F8335289F8343262
:100CF000B8F1000F12D002231EA921F8383D944804
:100D000009F0BEFD0123EA1884F8353284F8373241
:100D1000072384F8365284F83832D5B2012E13D91D
:100D200020231EA921F8383D894809F0A9FD052393
:100D3000012284F8393284F83B226B1C072284F8A4
:100D40003A5284F83C22DDB29FB102231EA921F859
:100D5000383D804809F094FD0923012284F83D3292
:100D600084F83F226B1C072284F83E5284F840220C
:100D7000DDB2794E79487368002443F440437360D0
:100D8000736943F001037361B36943F40073B361A2
:100D900009F07CF9724B012D1393724B0396149357
:100DA00094BF2346802318934FF4807319934FF414
:100DB0008063A6F6F8761A93202313A91B93304676
:100DC0004FF4005316951C93159417941D9409F035
:100DD0003FF93368644A43F0010333605368012DDF
:100DE00023F4702394BF0021012123F4807343EA8C
:100DF0000123536091685D4B013D0B4043F4602338
:100E000043F002039360D36AEDB223F4700343EA24
:100E10000555D562012356490A19907800284ED00D
:100E2000605C591C0928C9B2D2784F4E0ED9A0F186
:100E30000A05F76805EB45054FF0070E0EFA05FEAB
:100E400027EA0E07AA403A43F2600BE0376900EB4D
:100E5000400E072505FA0EF527EA050502FA0EF2FF
:100E60002A433261062B404D0CD85A1E6F6B02EBA1
:100E700082021F23934027EA030600FA02F333435A
:100E80006B631BE00C2B0CD8DA1F2F6B02EB82027A
:100E90001F23934027EA030600FA02F333432B6330
:100EA0000CE0A3F10D02EF6A02EB82021F239340D4
:100EB00027EA030600FA02F33343EB620B460434DD
:100EC000102CA8D1284B9A6842F480729A609A68D4
:100ED00042F001029A609A6842F008029A609968AA
:100EE000214A090748D5FAE7013B092B3FF6E6AA54
:100EF000039BDAF86400C6F8148019461860059858
:100F000004F06DFD059B3C201A460823136108F090
:100F100044FCC6F810805E4695F88F319E42BFF6BD
:100F2000C7AA059BDFF82CA04FF00808CAF810806C
:100F30007820C3F8148008F025FC059BCAF81480BB
:100F40007820C3F8108008F01DFC0136E4E700BFEC
:100F500000080140000C014000100240080002405F
:100F60004C240140FA02002000240140FDF7F1FF6B
:100F7000E9020020B8000020936843F00403936066
:100F8000B34B9A6812F0040BFAD19A6842F4A002AB
:100F90009A60B04BB3F85801002841F04D82B3F984
:100FA0005A21002A41F04882B3F95C31002B41F00C
:100FB0004382A94BA94D1B68A64C13F4003F23D0D4
:100FC000C820B4F8406708F0E8FBAE2005F0AFF9A0
:100FD00008B104F09BFF85F84A02C82008F0DDFB49
:100FE000A5F850629E4E9F4B00210C223046C5F85A
:100FF0004C320EF02EF90223F37007F0F9FD08F0E1
:10100000A5FB994B0344B360B4F86031002105930C
:1010100094F867310C220693944B95481B6894F81A
:101020005E61B3F8563094F868410793914F0EF023
:1010300010F90021102290480EF00BF98F4B97F811
:10104000009003F11802B9F1010F94BF994691463F
:10105000DFF808824FF0000A51460C2285F852A2B0
:1010600008F5157088F853A20EF0F3F82320C5F8A0
:10107000609208F092FB752001210DF12B0203F024
:101080008FFAB0B17E4B5046C8F858327D4B0121E3
:10109000C8F85C320FAA432388F8543203F080FA70
:1010A0009DF83C3003F07E038DF83C30002848D199
:1010B00050E098F8643273BB039B039A9B69DFF896
:1010C000EC9143F00803936110238DF84E304FF4F8
:1010D000805A0323484613A98DF84F30ADF84CA031
:1010E00004F07DFC684AC9F810A0138823F040037F
:1010F0001B041B0C1380138823F038031B041B0CE8
:1011000043F00803138013889BB243F0400313801D
:10111000012388F864327520012113AA03F00CF82A
:101120009DF84C30702B5AD1052385F85232432359
:1011300085F85432554BC5F85832554BC5F85C32DA
:101140004DE0682B06D1012388F852321D2388F820
:10115000543244E09DF82B3003F07E03682B8DF869
:101160002B3037D10223062085F852320146D5F8BC
:10117000583213AA98479DF8511001F001029DF8CA
:101180004F1001F001014B0043EA82019DF84D2010
:1011900002F001030B430AD05BB2012B01D1002303
:1011A00002E0022B0FD1012385F8533217E02B4BBD
:1011B0000C20D3F85832012110AA98479DF84030EE
:1011C00013F00F0303D1032008F002FB07E0042B08
:1011D000E9D1E4E7702B04BF042385F852320023E1
:1011E00085F8653295F852321C49022B0BD1224A00
:1011F00028481060284850602848D060012281F8B3
:10120000652200F009BE012B0DD11B4A244881F84C
:1012100065321060204804235060224890601F48C7
:10122000D06000F0F9BD043B012B0CD8124B1E4AD4
:101230001A60194A5A60194ADA60012381F8653246
:10124000072300F0E9BD012008F0C2FAA3E000BFC7
:101250000024014094200020E41C0020B80000205D
:10126000F40400201A220020404B4C004C080020BF
:10127000602A00204B2B0020882A0020EC26010841
:10128000A14500082D4800080038004039410008F9
:1012900065410008494300080540000890C1793DB8
:1012A00085410008CD3F000885420008000C014040
:1012B000012C41F07380B64E33689B0702D5B54BC5
:1012C0001B689847B44B05981B689847B34B069C1E
:1012D0001F78B34B03F11802012F94BF1F46174626
:1012E000B04A002313709046002C41F06080AE4A53
:1012F0004FF000091EABC2F8D87203F82C9D1E20D7
:101300000A21012203F06AF8002801F054809DF8B8
:101310004C30482B41F01781A44BA54A1A60A54ACE
:101320005A60032388F80030A34B0222DA70336836
:1013300043F008033360A14B93F8542112B19A494A
:1013400081F8652293F855210AB19D490A7093F8F6
:1013500056310BB188F8003033689A4E13F0080FFD
:1013600001F02B80BDF91C80642798FBF7F4204620
:101370000BF07EFA814607FB148000B20BF078FA7E
:1013800091490BF0C9FA014648460BF0BDF98F4967
:101390000BF0C2FA3060844C102294F8A0300A2678
:1013A00043F0020384F8A030894B5A6108221A6185
:1013B000874F1920FB68013E83F01003FB60FB6838
:1013C00083F00803FB6008F0E8F9012008F0FAF95F
:1013D000192008F0E2F9002008F0F4F916F0FF06F1
:1013E000E6D108233B611026694B3E611A680593DC
:1013F00012F0080F07D06D4B7E611B689847754B44
:1014000001223E611A70D5F8DC32734E187B0BF066
:101410002FFA72490BF080FA06F02EFF074630884B
:101420000BF026FA39460BF077FA0FF045FBA5F8DA
:10143000E00230880BF01CFA014669480BF020FBF3
:1014400068490BF01DFB544BC5F8E4026349D868AA
:101450000BF062FA64490BF05FFA584E634FB6F82E
:101460004E310022A5F8F032614BC5F8E8021A802F
:101470009A70386885F8F822B6F8942106F5C37199
:10148000C5F8EC1200F17903C5F8F4121FFA82FED8
:10149000DFF87CA15749DAF800C0DFF878810CF555
:1014A000967C21F81BE048F82BC00BF1010BBBF137
:1014B000120FEDD1DFF860C100F1C908DCF800C0FF
:1014C0001CF4805F08BFB6F89AE1A1F806E018782E
:1014D000D8B9987893F803E0704516D238B101383E
:1014E00000EB800000EB800000F5617E07E00EF16C
:1014F000010E0EEB8E0E0EEB8E0E0EF5617E587801
:101500001FFA8EFE043021F810E004334345DED18B
:101510001CF0080F00F0048196F88E11062900F2E5
:10152000F880DFE801F004070E7B96B6B60045F2BE
:10153000F05301E042F6F823A4F8443308F046FDE6
:10154000E6E042F6F8231201A4F844330A2392FBA2
:10155000F3F20023A2F5B062274941F823200133BA
:10156000122BF9D1254A264940201160254A1370D3
:1015700008F0CAF8002800F0CC8001234FF00709DA
:1015800090F9000040218DE808021F4A1F4BBAE085
:1015900030080020602A0020882A00204B2B0020E1
:1015A0001C270108492B0020B8000020B0040020AF
:1015B000116100087960000840000020942000209C
:1015C000482B0020400500208988883C00002041ED
:1015D000000C0140000500201800002035FA8E3C68
:1015E0000AE81C4100401C46BD3786354C080020E7
:1015F0002829002068080020242800202C00002032
:10160000F7A20008E027002065A50008A0860100D9
:10161000241E0020B4030020E41C002042F6F8231E
:10162000814AA4F84433814B40201A60804B102239
:101630001A7008F069F800286BD001234FF00008F9
:1016400090F9000040218DE808017A4A4FF4E13317
:1016500059E042F6F823784AA4F84433734B40200B
:101660001A60734B08221A7008F04EF8002850D008
:1016700001234FF0000C90F9000040218DE8081084
:101680006E4A4FF4E13308F008F96D4BC3F8480394
:101690003BE042F6F823A4F84433654B0C22DFF814
:1016A000D8E168481A7006294FF000038EF8003020
:1016B00003700CD064494FF4E1380B70634B1B216D
:1016C0001970634B1A70634B05221A700AE05E486A
:1016D000DFF8A88103705D4B212018705C4B1A70F5
:1016E0005C4B19705C4A514B40201A6008F00CF8B2
:1016F00078B101234FF0000E90F900008DE808400A
:101700004346564A402108F0C8F8003018BF01206F
:1017100030B9B368524A23F00803B360434B1A60F0
:10172000504A1368934613F4804F414A1FBF122159
:1017300011704D483D4918BF086042F2010119403F
:1017400099B144F620619804A4F8441341BF0821DC
:1017500011704648354948BF0860D90741BF0C2180
:1017600011704348314948BF086011781B06A1F148
:101770000401517040F19080314B4FF00008DFF8C8
:10178000009103F55C70414615220693C4F84C9312
:1017900084F85183C4F85483C4F858830DF059FD7C
:1017A000A9F105024046C4F8882309F069F9DAF87E
:1017B00000200220C4F85C2307F0A6FF069B70B34C
:1017C00093F8513390F805E02A490C2202FB0312EA
:1017D00092F8B120724504D00133DBB2042BF3D967
:1017E000002384F8513396F8EB3194F85123002B01
:1017F0004FF00C0303FB021314BF4FF0030E4FF026
:10180000010E002290F9000093F8B130CDF800E00D
:101810000192022108F041F8C4F88C0390BBB36830
:1018200023F08003B36030E0F3A200082C00002016
:10183000E0270020B9A40008EFA200086DA400086A
:10184000B80000208D2800208C2800208E28002041
:10185000212800208F28002035A200084DA3000871
:1018600049A30008E41C002025A3000839A30008B0
:1018700029A30008D42601082228002090D00300C4
:1018800084220020012009F0FBF8386800F5C573B8
:10189000C4F8903309F044F9049B039AC5F89433D3
:1018A000039B4FF004099B69AC4843F0010393612B
:1018B000049B0FA91B888DF83E90ADF83C300323A4
:1018C0008DF83F30039304F08AF8049BA3485A88AC
:1018D0000FA9ADF83C208DF83E9004F080F8049BF1
:1018E0000120197A04F066F8049B9D495A684FF06C
:1018F00010034A618DF851304FF001034FF000089A
:1019000013A813928DF852308DF8508008F07AFFAA
:10191000049B10A85A7A039B8DF840208DF8413023
:101920004FF001038DF842808DF8433008F080F8C5
:10193000DAF80030059A3C3BC5F89833059B894F8F
:101940001B6843F010031360874B4FF0FF321A609F
:10195000DBF80030580540F17D81D7F89C53834B6C
:1019600048461D6007F0D0FE4946C7F8A003059021
:1019700007F0C0FE03909DF80C30082087F8A433D0
:101980007B4BDFF808A21D6007F0BEFE794B0821F3
:10199000186007F0AFFE414687F8A5032C22504699
:1019A0000DF057FC8E227C238AF801204FF07D0B2E
:1019B000E0228AF800308AF803208AF82BB0DFF89A
:1019C000D0A12C224146504604930DF042FC049BCA
:1019D00010208AF800308A238AF80130A0238AF880
:1019E00003308AF82BB0C7F8A85307F08DFE1021FA
:1019F000C7F8AC0307F07EFE87F8B0032020C7F8D5
:101A0000B45307F081FE2021C7F8B80307F072FE37
:101A100087F8BC03284606F0DBFF284603F0B0FD3C
:101A2000039807F09BF8DFF86CA183469AF8003022
:101A3000504D834227D0DDF814C0E0B1BCF1000F57
:101A400021D002239CF900000093484B49461B68B3
:101A500042465B78B3EB080318BF012301934FF4B0
:101A6000165307F01AFFC7F8C00360B14FF0010327
:101A70008AF8003007E0D7F8C00307F00DFEC7F87A
:101A8000C0B38AF800B094F8A50307F067F8DFF850
:101A90000881074698F8003083421AD090B12B682D
:101AA000BBB10022012593F9000008214FF49643B1
:101AB0000095019207F0F1FE2F4B186048B188F8AD
:101AC000005006E02C4D286807F0E6FD2F6088F8EE
:101AD000007094F8B00307F041F8284B214D1A78B4
:101AE00082468242984679D0002857D0D5F8AC2358
:101AF000002A73D0D37992F90000002B4FF0020234
:101B00001F4F08BF03230092002257F82330019291
:101B1000102107F0C2FE1B4B0746186000285DD05D
:101B200094F84A30022B0BD095F89620022A01D166
:101B30004C3505E023B1002A05F14C0518BF0025FE
:101B4000114B1D6045B1284600214C220DF081FB50
:101B500002232F6085F84A3001233DE0000C01404C
:101B600000040140B80000208C0800206805002017
:101B7000A4050020EC050020DC050020F205002073
:101B8000EC350108F4050020F8050020740500205C
:101B9000A80500205E0500206D050020A94F2B68D8
:101BA000D7F800904B4507D1484607F075FD284609
:101BB00051464C220DF04DFBE36C4B4507D1484696
:101BC00007F06AFDA04800214C220DF042FB386866
:101BD00007F062FD00233B6088F8003094F8BC03F6
:101BE00006F0BCFF994FDFF8CC823B780546834274
:101BF0002CD000B3D8F8B83343B3D8F8B42393F952
:101C0000000052780323002A0CBF08220922009307
:101C100001924FF461432021002207F03EFE8C4BDD
:101C2000186098B18B4A012313703B708A4B1A6875
:101C30008A4B1A600AE0DFF81882D8F8000007F033
:101C40002BFD844BC8F800501D703D7006F0A0FFBE
:101C500003F060FC824B834D1B78022B66D1824AD5
:101C600000271388322023F040031B041B0C138031
:101C700013884FF4805823F038031B041B0C138087
:101C800013889BB243F0400313809F238DF84030AC
:101C90008DF841708DF842708DF8437007F07DFD2E
:101CA0008DF84D70714F0422C7F8148013A810A945
:101CB00007F0DCFEC7F810809DF84E309DF84D20EF
:101CC0001B0243EA02429DF84F301343684A934295
:101CD00019D00AD8A2F51A42033A93420CD002F561
:101CE0001A420232934209D01BE0624A934205D065
:101CF0000132934207D014E0202300E080232B80A0
:101D00004FF4807302E04FF480732B806B80AB88BC
:101D10002A881B02AB605343EB60012384F8C43371
:101D200004E000232B806B80AB60EB60EF6827B38F
:101D3000FF0AB8464FF00009B9450BDA09EB070571
:101D40006D100DF14C0AE8025146102204F094F88F
:101D50000F2806DC08F034FF474A4FEAC823136017
:101D60000BE000235AF82320013240F03283013384
:101D7000042BF7D12F46A846DEE7404D2B6813F41D
:101D8000002318BF012384F8C53307F0DFFC3C4B68
:101D90004FF47A7218607379052B04BF4FF4C8733F
:101DA000A4F8C633374B1A80374BC8221A80374AFB
:101DB000137843F008031370354A137823F00203B5
:101DC000137040F602032A6813406BB13149324B5D
:101DD0001960324B03211970314B01211970002316
:101DE000A4F8C833A4F8CA33930341BF2D4B012292
:101DF0001A71DA7844BF42F00102DA70B3682B60DE
:101E0000012384F8303294F8A03063F07F0384F823
:101E1000A0301FB0BDE8F08F234A244990461370CC
:101E20000B6843F001030B60214B00221A70082E4F
:101E300000F2C180DFE806F046BF46647A9964B0DC
:101E4000B00000BFF40500200401002000060020BF
:101E50000406002008060020241E00200C06002096
:101E60004B2B00200800002000380040000C0140EF
:101E700018BA20001740EF0038090020E41C0020A9
:101E8000A8040020442B0020462B002094080020AA
:101E90004A2B00200C2200201C2900205E2A002052
:101EA00044000020F40400204000002030080020FE
:101EB000482B0020B8000020012E40F28780754B8F
:101EC00000261E703B78012B1AD84FF000091EAB7C
:101ED00003F82C9D53204946012202F07FFA78B185
:101EE0009DF84C30E52B0BD16B4B6C4A85F8669214
:101EF0001A606B4A5A60674B04221A7002235EE034
:101F000095F85232022B11D1634B664A1A60664A29
:101F10005A60664A92F85322002A0CBF6F226E2242
:101F20001A725C4B01221A70032348E03B78012BA4
:101F30001BD800221EAB03F82C2D1C200D210122E2
:101F400002F04CFA88B19DF84C302A2B01D01A2BA4
:101F50000BD1514A564985F86732116055494D4BAE
:101F6000516002221A70042329E000211EAB03F8FD
:101F70002C1D1820012202F031FA68B19DF84C3076
:101F8000FB2B09D1444B4C4A1A604C4A5A60414BD6
:101F900001221A70052312E095F85232043B012BFE
:101FA0008AD83D4B464A1A603F4A5A60394B012253
:101FB0001A70082303E0012E08D9002634E7414AAD
:101FC00088F80130136843F0020313603B78012B5B
:101FD00005D107F0A7FD3C4B4FF400525A61042C89
:101FE0003FF666A901A353F824F000BF01200008C2
:101FF000B7120008F720000801200008FF2200089F
:102000000A2007F0CAFB7720A021012210AB02F0C2
:10201000E5F900286FD01E210122772002F082FB13
:102020004FF42F6007F0AEFB0026A6F160010024FC
:10203000C9B2022213AB77208DF84C408DF84D4089
:1020400002F0CCF99DF84D309DF84C2043EA022275
:10205000164B03F51A7172520236102EE5D1B3F801
:102060007612012601F00F0001F47F41A3F87612E9
:10207000234623F001022A44B2F86822002A18BF3E
:102080000026DF0703D5D2B2544008221EE084EABE
:102090001224FAE7482B0020602A0020ED480008AF
:1020A00055460008B14300084D400008B800002024
:1020B00037480008B5450008C94800080F46000821
:1020C000354300083008002000100140270448BFB5
:1020D00084F4C054013A4FEA4404F7D10133102B81
:1020E000C7D10143BD4AA5F8761226B9C4F303331C
:1020F000984200F03D8195F87862B84C002E40F08F
:102100002082B74F07F00EFD4FF028094FF48048AA
:10211000384610A9ADF840808DF8429003F05FFC7E
:102120004FF400533B614846AE4907F09BFB0E213C
:10213000022003F03FFC0823CDF84C8013A84FF099
:1021400001088DF851308DF850608DF8528008F0FC
:1021500059FB8DF83C900FA84FF003098DF83D9086
:102160008DF83E608DF83F8007F062FC142007F088
:1021700014FBD0217720424610AB02F02FF93946EC
:10218000002800F0A0809DF84030A4F89C92552BC8
:1021900084F8933240F09780D121424610AB7720EB
:1021A00002F01CF99DF84030772003F00F021B0964
:1021B00084F8942284F89532162213ABAA2102F0F7
:1021C0000DF99DF84C209DF84D3043EA0223A4F808
:1021D0007C329DF84E209DF84F3043EA0223A4F84C
:1021E0007E329DF850209DF8513043EA0223A4F836
:1021F00080329DF852209DF8533043EA0223A4F820
:1022000082329DF854209DF8553043EA0223A4F809
:1022100084329DF856209DF8573043EA0223A4F8F3
:1022200086329DF858209DF8593043EA0223A4F8DD
:1022300088329DF85A209DF85B3043EA0223A4F8C7
:102240008A329DF85C209DF85D3043EA0223A4F8B1
:102250008C329DF85E209DF85F3043EA0223A4F89B
:102260008E329DF860209DF8613043EA0223A4F885
:10227000903241F27073A4F8A03246F67813A4F8B5
:10228000A232594BC4F8A432584BC4F8A832584B68
:10229000C4F8AC32574BC4F8B032574BC4F8B43220
:1022A00094F8783243B902F0B7FA42F6E06007F0EA
:1022B00069FABE68C6F38036504B01221E70474B48
:1022C00083F878223DE14E4A136823F4804313607B
:1022D00000234C4A434E02EBC3046068B04208D16D
:1022E00012F93300282804D10020606002F833007E
:1022F00002E00133032BECD14FF400534B61374E16
:1023000096F8B842002C5CD1142007F046FA06F289
:10231000B9237620D021012202F060F896F8B93274
:10232000582B7EF4C8AF06F52F738821182276202B
:1023300002F054F87620F421312202F0F3F901235F
:1023400086F8B832304BA6F8A042C6F8A8322F4B18
:10235000C6F8A43245F6D813A6F8A2322C4BC6F81C
:10236000AC322C4BC6F8B0322B4BC6F8B43228E056
:1023700042F21073A2F8A032A2F8A232274B032433
:10238000C2F8A432264BC2F8A832264BC2F8AC32AF
:10239000254BC2F8B032254BC2F8B432244B254A43
:1023A0009C70136843F004031360FEF784BF022C93
:1023B00009D1FEF79CBF8146C5E000233360FEF7DC
:1023C000EABF0424EAE7012C7EF6B5AF1C46FEF70F
:1023D00087BF05F101094546CDE400BFB8000020E4
:1023E00000100140F1400008194800086D45000840
:1023F000F547000821450008F13E000800000020D4
:1024000000040140181C0020313D0008333D000845
:10241000DD4700088D440008713B0008ED470008C7
:1024200011450008E547000801450008353D000852
:102430004000002030080020474B00221A7000B2F4
:102440000AF016FA45490AF067FA454C0646B4F90F
:102450005A010AF00DFA41490AF05EFA0546B4F94C
:102460005C010AF005FA3D490AF056FA0446304686
:1024700005F002FF8046304605F08AFE06462846F3
:1024800005F0FAFE0746284605F082FE054620467E
:1024900005F0F2FE8246204605F07AFE414681466E
:1024A00050460AF039FA4146059048460AF034FA97
:1024B0005146069030460AF02FFA494607903046BA
:1024C0000AF02AFA3946089050460AF025FA254CB7
:1024D0004946206007F100400AF01EFA2946606074
:1024E000A56007980AF018FA014606980AF00CF958
:1024F0002946E06008980AF00FFA014605980AF0AC
:1025000001F93946206106F100400AF005FA294632
:10251000606105980AF000FA014608980AF0F2F89E
:102520002946A06106980AF0F7F9014607980AF0D3
:10253000EBF84146E06138460AF0EEF92062FEF71A
:1025400038BD02242AE7012C7EF6F5AE002488F877
:102550000090FEF7CCBE00BF0100002035FA8E3C93
:1025600094200020C00400202DE9F04FA24C87B039
:102570002368C3B9A14D2B78013B042B00F22E85B3
:10258000DFE813F01004100410041305F4049A4B50
:10259000186807F044FA9A4B05461B681B7843B14C
:1025A000012B00F07881206807F03CFA0028EED17A
:1025B000E0E72428934E0CD006D80A2800F0E580E6
:1025C0000D2800F0E28051E12A2806D02C2804D002
:1025D0004CE133707370B37059E18B4B717896F89E
:1025E00000800020874A5854B8F1000F26D119788E
:1025F00082F80380472921D1597850291ED1997832
:10260000472907D1D978472904D11979412901D11E
:102610000121D17099787C4A522903D1D1784D2972
:1026200000F0D4849978784A472907D1D178532982
:1026300004D11279562A04BF0322F270F278714F46
:10264000022A3AD0032A4FD0012A40F08C80A8F108
:102650000202072A00F28780DFE802F004080F1365
:102660001A25852A07F088FA70607CE01B78532BC6
:1026700079D173685B42736075E007F07DFAB060F2
:1026800071E01B78572B6ED1B3685B42B3606AE090
:102690001B78302B5D4B1A788CBF42F0020222F07F
:1026A00002021A705FE0002007F0C6FA30735AE0A9
:1026B000002007F0C1FAF08155E0B8F1070F07D00C
:1026C000B8F1080F4FD1012007F0B6FA78824AE03E
:1026D000012007F0B1FA41F2184358434FF47A73DE
:1026E000B0FBF3F038823EE0B8F1020F08D0B8F149
:1026F000030F0AD1002007F09FFA454B187032E013
:10270000002007F099FA38752DE02CD9A8F10402C1
:1027100092103B7D0132D2B2013B02EB8303DBB26C
:10272000102B20D8A8F10301C2F1010201EB8202B3
:10273000D2B2012A0BD0042A11D100205F1E07F06B
:102740007BFA344B0022D855334BDA5507E0334A35
:102750005F1E0020D35507F06FFA314BD855314A30
:10276000136801331360274A2A2D18BF917808F1A6
:1027700001084FF000030CBF01214D4086F8008096
:1027800073700CBF5175957081E0737D002B6AD01A
:10279000254B13F8012D25495A708B42F9D11A4A5D
:1027A000B07813785278402B85BF373B1B011B0153
:1027B000DBB298BF03F0F003402A8CBF373A303ABF
:1027C000D2B21344DBB298420E4A49D121230B7096
:1027D000174916480B6801330B60D378012B2DD0B5
:1027E000022B3FD17223118A0370124B528A198037
:1027F000114B1A8036E000BF44040020080400207A
:102800004004002014060020281E00209408002008
:10281000B4080020E5080020D5080020B5080020F5
:10282000C5080020041C00203C04002028040020CF
:10283000101C0020A2080020A408002067210170BD
:102840009D4909788F070ED59C49506808609068AB
:102850004860107B9A490870D1899A4A118002E039
:102860003F230B7000230022727510E073780E2B4B
:102870009FBF954A591C5170944A934998BFD554AB
:10288000737D1BB98A7855408D7000E00023DD0709
:102890007FF589AE53E18C4B9A7D082A3FF683AED3
:1028A000DFE802F0050C1319242F4A606A00B528EE
:1028B0007FF479AE0022DA75012202E0622802D0AC
:1028C00000229A756FE60222FBE703229A751876BA
:1028D0005876987667E604229A755A7E997E024465
:1028E000D2B25A760A449A76D8765CE605229A7570
:1028F0005A7E997E0244D2B25A760A449A769883D6
:1029000051E606229A755A7E997E0244D2B25A76D0
:102910000A449A769A8B02EB0025ADB2B5F5AC7FEE
:1029200082BF694A0121D17500229D83DA83002D7F
:102930007FF439AE0722C4E75A7E997E0244D2B2B0
:102940005A760A449A76DA8BB2F5AC7F3EBF5E497E
:10295000891881F820000132998B92B29142DA8372
:10296000E8D920E608229A755B7E83423FF41BAECD
:10297000554B0122DA750EE0002255499A7511F87F
:10298000012D4A70534A9142F9D1987E4E4AA8428D
:1029900006D03F230B70504A53680133536002E660
:1029A0004E4D286801302860D07D10B13E230B7059
:1029B000F9E521200870D07E06284DD004D80228E1
:1029C00014D0032830D0EEE5122864D030287FF4EC
:1029D000EAAD4920087092F82410414A102988BFB6
:1029E0001021117010783F49002283E050200870B8
:1029F0003249506A4860906A0860116B4FF47A70EF
:102A000091FBF0F12F48018092F878112A4A19B110
:102A1000117841F0020102E0117821F002011170F9
:102A2000012283F879217AE05320087092F825106A
:102A300011F0010105D092F82420D01E42424241FB
:102A400000E00A4683F87821002A68D11A490A78FA
:102A500022F002020A7062E04F20087092F82B10F8
:102A600011F0010105D092F82A20D11E4A424A41B4
:102A700000E00A4683F8782122B90F490A7822F04B
:102A800002020A7093F84F100D4A1170B3F84C10FF
:102A9000154A118043E056200870506B1349088096
:102AA00042F21070916B91FBF0F11148018001210D
:102AB00082F87A1133E000BF9408002098080020C3
:102AC00095080020A008002014060020281E0020E1
:102AD0003C0400202804002008040020101C0020D2
:102AE000B40800203406002038000020A20800208E
:102AF000A408002082420ED20E7AB64D56554E7A68
:102B0000B54D5655CE7AB54D565511F80C6FB44D9E
:102B100056550132EEE7B3490A6801320A6093F86C
:102B20007931B14A002B3FF43EAD92F87A31002B57
:102B30003FF439AD002382F8793182F87A31AB4B1A
:102B4000DFF8E082DA681A61A94A1268DA60A94AF5
:102B5000136843F020031360A74B1A78012A0CBFB7
:102B6000002201221A7098F800309A077FF51BADF9
:102B7000A24A1278042A7FF616ADA14A127802F012
:102B8000040202F0FF011AB923F0010388F80030B3
:102B900098F80070944E17F0010F9A4D24D119B394
:102BA000BB0721D5984B28686A6818605A6009F0FD
:102BB0005FFE002181460AF06BF808B1484601E04B
:102BC00009F10040914909F05BFF914909F0A4FE29
:102BD00005F052FB8F4B47F0010718608E4B88F8C9
:102BE00000701B88A6F87C3196F87E21531C0522C4
:102BF00093FBF2F202EB82029A1A96F87F3186F882
:102C00007E21029392000023DFF8F8919900DFF80B
:102C100028A2039159F82310DFF820E291FBFAFC77
:102C20000EF1080040F823C07C484EF8231000FB4A
:102C30000C1142F2107091FBF0F00EF1100680B210
:102C400026F813004FF014080EF1140608FB036871
:102C50000EF13C0B58F802705BF8236048F8021044
:102C6000F61B0E4405214BF8236096FBF1F60AFB98
:102C70000C6602990EF1440E01294EF82360C846F5
:102C800006D10238B0F5797F9CBF039941F80960FD
:102C90000BB90123B8E7DFF85891534FD9F800007A
:102CA000D7F8CC31C01A09F0DFFD5D4909F0E8FE24
:102CB000D9F800304FF07E51C7F8CC31064609F004
:102CC000C9FF08B94FF07E56564BC7F8D0611B7844
:102CD000DFF86C9113F00103534E13D004AA009255
:102CE000494B05AA01920CCB98E8030007F0D6FEE9
:102CF000049A6421B2FBF1F2059BA9F8002093FB32
:102D0000F1F301E0A9F80030338097F8D431364E62
:102D1000002B3BD0D6F8D0114FF07E5009F0B0FE1A
:102D20008246D6F8D8312868C01A09F0A1FD51466C
:102D300009F0F2FD09F0B6FFD6F8DC311FFA80F990
:102D400068680FFA89F9C01A09F092FD314B1968C9
:102D500009F0E2FD514609F0DFFD09F0A3FFB6F9E5
:102D6000E22100B28118B6F9E021022009EB02034A
:102D700091FBF0F193FBF0F389B29BB2A6F8E61158
:102D8000A6F8E431A6F8E211A6F8E031012387F8AD
:102D9000D431D8F80430C7F8DC31D8F80030C7F89F
:102DA000D83100E4214E3268177817B1012F49D08D
:102DB00014E1012B00F212816A781D4B0C2101FBFA
:102DC00002335A781B4B206853F8221006F024FE79
:102DD00096E000BFB5080020C5080020D5080020F7
:102DE000E5080020041C0020140600200804002030
:102DF000241E002030080020AA080020950800208A
:102E00004A2B002098080020AC0800208096184B20
:102E100035FA8E3C04000020BC090020806967FF61
:102E200000007A4494080020A808002040040020F4
:102E300084270108EC35010880969800940700204B
:102E4000A60800202068DFF8C08106F075FD002884
:102E500000F0C4802A78634B022A3FD0032A4CD06A
:102E6000012A40F0BB80604A10689A69821AC72A1A
:102E700040F2B480596904292ED85C4A0C24964645
:102E800004FB0121D8F800404E78A7689861002320
:102E90005749D8B251F82320BA4204D00133092B44
:102EA000F6D1002300E00346B34205D0204651F896
:102EB000261006F0B1FD91E06B780C2101FB03E2D6
:102EC000566816F8011B19B1204606F0AEFDF8E76A
:102ED0006B6901336B6181E0022074E05A78434BE7
:102EE0000C2101FB02335A78414BD8F8000053F80B
:102EF000221006F091FD032065E0326892780AB94D
:102F0000042060E01A7F02B91F772B7F354F012B19
:102F10000FD17B69B22B08D8364A2068D15C06F005
:102F200084FD7B6901337B6103E000237B61022325
:102F30003B772B7F2B4F022B14D17A690F2A0FD8A6
:102F400033682C495B78206803EB03130B4413446C
:102F500093F8B41006F069FD7B6901337B6101E0F1
:102F600003233B772B7F022B38D9C9E7AB681D4978
:102F70000133AB60204B1B68DB784BB14B780522EB
:102F80000133DBB2B3FBF2F202EB82029B1A4B700D
:102F9000154B00221B680120EB60184B1A70184A71
:102FA000137823F0020313700DE00F4BEA681B68DF
:102FB0009B1A40F6C412934210D9124A0520136896
:102FC00023F02003136007F05BFD07E01279432A2A
:102FD0007FF428AB0222F270FFF724BB07B0BDE8F4
:102FE000F08F00BF08040020241E00208427010861
:102FF000EC350108022D010840040020950800204E
:1030000094080020300800204404002070B54D28AA
:10301000A0B0044600F0C18400F2C080342800F063
:103020008D8351D8222800F0528323D8032800F042
:10303000778114D8012800F06881022840F0748557
:10304000042008F097F8432008F086F84C2008F098
:1030500083F8462008F080F84C2000F0C3BC042818
:1030600000F06781052840F05F851A2008F082F89B
:10307000002470E1282800F04F8415D8242800F09F
:103080003684262840F05085D54C062008F072F88A
:10309000B4F8580108F088F8B4F85A0108F084F838
:1030A000B4F85C0100F03CBD2C2800F048843228C4
:1030B00000F092842A2840F03785012008F05AF861
:1030C000C74B587900F08EBC402800F08E8421D880
:1030D0003A2800F027820BD8362800F0B58438282B
:1030E00040F02285042008F045F8BD4C00F005BCF6
:1030F0003B2800F0E5823D2840F01685B84C0220C0
:1031000008F038F894F8DE0108F026F894F8DD01AC
:1031100000F068BC462800F0BD840BD8422800F0BF
:103120007284452840F00085132008F023F800241D
:1031300000F0D6BC492800F009824B2800F01E841C
:10314000472840F0F18407F0FDFF85B207F0FAFF51
:10315000044607F0F7FF86B207F0F4FF05EB0425FD
:1031600006EB0020ADB205EB0044842008F002F825
:10317000204608F022F89B4BDD6804F18003AB4247
:103180008CBF2D1B802507F01BFD20462A46694673
:1031900002F072FE0024054600F09ABC702800F090
:1031A000058265D8692800F0A6813AD8662800F023
:1031B000F9802BD8642800F0E680652840F0B484BC
:1031C000894C0B2007F0D6FF208807F0EDFF6088C0
:1031D00080B207F0E9FF6368C3F3C000C3F3800265
:1031E000800040EA4200C3F340021043C3F34012A0
:1031F00040EAC20003F01003184307F0D5FF002097
:1032000007F0DBFF764B93F8F406EBE3672800F05A
:10321000FD80682840F08884102007F0ABFF002470
:1032200061E16C2800F07A8116D86A2800F0EF82FC
:103230006B2840F079846C4C052007F09BFFB4F8B4
:103240007A0007F0B1FFB4F87C0007F0ADFF94F806
:103250007E0000F00100C5E36E2800F0698100F2F5
:103260007B81062007F086FF002007F0A6FF6BE1B8
:10327000782800F0D78018D8742800F084820AD803
:10328000722800F08482732840F04E84082007F0F2
:1032900071FF0124B4E2762800F0D88200F2738234
:1032A0002F2007F067FF514C02E2A42800F0F182C2
:1032B00014D87C2800F02284A02840F035840C200B
:1032C00007F058FF4A4B186807F077FF494B18681A
:1032D00007F073FF484B186800F00DBCF12800F0B0
:1032E000DC80FE2800F0FC82F02840F01D843E4C7B
:1032F000042007F03FFF236AB3F85A0007F054FF99
:10330000236AB3F8580000F00BBC032007F032FF2B
:10331000002007F021FF204607F01EFF0E2061E38A
:1033200007F028FF022007F017FF002007F014FF26
:10333000ADE2062007F01EFF412007F00DFF4620FA
:1033400007F00AFF4E2007F007FF412007F004FFB7
:103350002A4B1878E4E32A4B185D013407F0FCFE91
:103360000B2CF8D10024274B185D013407F0F4FE34
:10337000082CF8D10024244B185D013407F0ECFE32
:10338000072CF8D1CEE3072007F0F4FEE72007F082
:10339000E3FE134B587907F0DFFE002007F0DCFE58
:1033A0000420A8E3122007F0E5FE002007F0FCFE51
:1033B000002007F0F9FE002007F0F6FE00200A4C7E
:1033C00007F0F2FE002007F0EFFE002007F0ECFE11
:1033D000208907F0E9FE608907F0E6FEA0899FE3F7
:1033E00094200020080000202C0800200B2E01084B
:1033F000E8F7FF1FECF7FF1FF0F7FF1F4B2B002034
:10340000093E0108153E01081E3E0108102007F084
:10341000B1FE0024BF4B185D013407F09DFE102C57
:10342000F8D17FE3702007F0A5FE00260E24744338
:10343000B94D01362B6A2344B3F8190107F0B4FEE5
:103440002B6A2344B3F81B0107F0AEFE2B6A23441A
:10345000B3F81D0107F0A8FE2B6A234493F81F015F
:1034600007F07AFE2B6A234493F8200107F074FEDC
:103470002B6A234493F8210107F06EFE2B6A234444
:1034800093F8220107F068FE2B6A1C44D4F823014C
:1034900007F093FE082EC9D144E3702007F06AFEBE
:1034A0009E4C04F1700594F8D00007F055FE94F896
:1034B000D10007F051FE94F8D20007F04DFE94F8C9
:1034C000D30007F049FE94F8D40007F045FE94F8C5
:1034D000D50007F041FE073494F8CF0007F03CFE1A
:1034E000AC42E0D11EE38E4B185D013407F034FE90
:1034F000102CF8D116E38B4D00242878400000F002
:10350000FE0007F037FE2B789C4280F00B83864B41
:1035100033F8140007F048FE0134F4E7062007F002
:1035200029FE0BE0042007F025FE7B4B186EE2E23B
:10353000072007F01FFE002007F00EFE002007F016
:1035400033FE002007F030FE0020E9E2022007F001
:1035500011FE724B9889E3E26F4C0B2007F00AFED4
:10356000636E2546187807F0F7FD636E00265878DD
:1035700007F0F2FD6B6E684C33441879013607F0A2
:10358000EBFD032EF6D1636ED87907F0E5FD636E8F
:10359000987807F0E1FD636ED87807F0DDFD636E83
:1035A000588907F001FE636E187A1BE25A4C1E2000
:1035B00007F0E0FD236A00251B78022B65D1236A02
:1035C00005F1080253F82200584909F0A5F90DF059
:1035D00073FA80F30800C0B207F0BEFD236A5449B5
:1035E00003EB8503D86A09F097F90DF065FA80F3CB
:1035F0000800C0B207F0B0FD236A05F10E0253F8CF
:1036000022004C4909F088F90DF056FA80F30800C1
:10361000C0B2013507F0A0FD032DD0D1072D236ADC
:1036200021D1586C414909F077F90DF045FA80F342
:103630000800C0B207F090FD236A3C49986C09F07D
:103640006BF90DF039FA80F30800C0B207F084FD81
:10365000236A93F84C0009F007F90DF02DFA80F376
:103660000800C0B20BE02B44587807F075FD236AC0
:103670002B44D87A07F070FD236A2B44587D01351E
:1036800007F06AFD0A2DC9D14CE2236A2B44587811
:1036900007F062FD236A2B44D87A07F05DFD236AA8
:1036A0002B44587D013507F057FD0A2DEDD139E245
:1036B00014F8010F002800F0358207F04DFDF7E700
:1036C000012007F057FD144B1B6A18788AE150203F
:1036D00007F050FD0025104B0C211C6A164B04EB23
:1036E000850494F87920013501FB023393F8380002
:1036F00007F032FD94F87A0007F02EFD94F87B0075
:1037000007F02AFD94F87C0007F026FD142DE2D185
:1037100008E200BF3A0800202C0800209420002076
:1037200050080020E0270020680800200000204109
:103730000000C84200007A440C2E0108482007F01F
:1037400019FD0025CD4B1C6A062303FB054494F8A4
:10375000CE0007F001FD94F8C90007F0FDFC94F8D5
:10376000CA0007F0F9FC94F8CB0007F0F5FC94F8D8
:10377000CC0007F0F1FC013594F8CD0007F0ECFC2B
:103780000C2DDFD1CEE1002007F0F4FCCAE1BC4CE7
:10379000162007F0EFFCB4F8940107F005FDB4F82B
:1037A000400107F001FDB4F8420107F0FDFCB4F858
:1037B000440107F0F9FCB4F8D60107F0F5FC94F8E1
:1037C000EB0107F0C9FC002007F0C6FC94F8EC01FF
:1037D00007F0C2FC94F8830107F0BEFC94F8900156
:1037E00007F0BAFC002007F0B7FCA44B0A201B6AC4
:1037F000B3F9563093FBF0F080B207F0D5FC7CE0D3
:10380000E0B2013407F0A8FC092CF9D18AE19B4C05
:10381000102007F0AFFC94F8680000F0020007F0F9
:103820009BFC94F8690007F097FCE06E07F0C5FC7C
:10383000206F07F0C2FCB4F8740007F0B5FCB4F8D0
:10384000760007F0B1FCB4F8780069E107F07AFC83
:103850000646122007F08EFC2EB9884BD3F8805014
:10386000D3F8844001E000242546304607F074FC7C
:10387000284607F0A2FC204607F09FFC002007F036
:103880009CFC002007F090FC002007F08DFC00203D
:10389000A8E07A4D002495F888002E46800001307B
:1038A000C0B207F067FC95F8880007F055FC96F861
:1038B00088309C4280F03681724D285D07F04CFCC8
:1038C00005F11003185D07F047FC05F12003185DB2
:1038D000303507F041FC285D07F03EFC0134E6E797
:1038E000082007F047FC002007F05EFC26E60420D5
:1038F00007F040FC624B9868FDE094F8780107F00F
:103900002BFC94F87C0107F027FC94F87B0107F06E
:1039100023FC94F87D0165E0594C072007F02AFC50
:10392000B4F87E0107F040FCB4F8800107F03CFCDD
:1039300094F8820107F010FCB4F88401F0E0504CD8
:103940000C2007F017FC94F88E0107F005FCB4F882
:10395000980107F029FCB4F8940107F025FCB4F8AD
:10396000960107F021FC94F88F0107F0F5FBB4F8FD
:103970009A0107F019FCB4F89C01D1E0404C0420F6
:1039800007F0F8FB94F8D40107F0E6FB94F8D501B2
:1039900007F0E2FBB4F8D601C2E03B4C3B4D207887
:1039A000002600EB4000C0B207F0E4FB23780235AC
:1039B0009E4280F0B78015F8020C07F0CDFB15F899
:1039C000010C013600EB800000EB800000F2EE20DD
:1039D00080B207F0E9FBE9E7012007F0CBFB284BB9
:1039E00093F8900107F0B8FB9CE0082007F0C2FBB9
:1039F0000024234B234493F88601013407F0ACFBE9
:103A0000082CF6D18EE01E4C102007F0B3FB607935
:103A100007F0A2FBA06807F0D0FB94F88E0107F036
:103A20009BFBB4F8580107F0BFFBB4F85A0107F04C
:103A3000BBFBB4F85C0107F0B7FBB4F87E0107F0FC
:103A4000B3FBB4F880016BE00C4B0D4C93F8C9004C
:103A500004F12805C0EBC000C0B207F08BFB94F85E
:103A6000F20100230A4AD25C90425FD00C333C2B17
:103A7000F8D10834AC42F2D154E000BF2C08002049
:103A800094200020B5080020E027002032220020EA
:103A9000F80800200D20324C07F06CFB02F012FAFF
:103AA00007F05AFB208807F088FBE06807F085FBE9
:103AB0002C4A92F8090192F8083198422ABFC31A99
:103AC000C3F1800300200344D2F80C01184412E033
:103AD000AC4227DA1DF8040007F03EFB0134F7E79B
:103AE000214B185D013407F037FB0B2CF8D1002077
:103AF00007F063FB002007F060FB13E01B4C08207D
:103B000007F038FBB4F8480107F04EFBB4F84A015F
:103B100007F04AFBB4F84C0107F046FBB4F84E013D
:103B200007F042FB012018E0002016E007F014FB2C
:103B3000B4F8F40107F038FB94F8F60107F00CFB39
:103B400094F8F70107F008FB94F8F90107F004FB7B
:103B500094F8F80107F000FB8BE720B070BD00BFC0
:103B6000080000202C080020093E010894200020B5
:103B70002DE9F04F87B06C4C02916C4922880E6899
:103B80000546C2EB26135B435200C2EBE602B4F9D2
:103B900002601B135643B4F90420B4F90A005343DE
:103BA0009B1303EBE62606EB860380331B12B6F568
:103BB000FA384FEAE67704934B6847F1FF39A8FBE0
:103BC00008AB039308FB09F3B4F908200BEB430B94
:103BD000E389A6610593D31708FB03F102FB0911E2
:103BE000A8FB02230B44C1171F030AFB01F300FBD0
:103BF0000B33AAFB00011603194447EA1257020AC5
:103C000042EA016292194FEA2123E6887B410032A1
:103C1000A2FB060143F5004306FB03114B10009382
:103C2000CB170193DDE900231343B4F810E0B4F897
:103C30000CC06DD00FFA8EF0C1170AFB01F1AAFB80
:103C4000002300FB0B11BDF914600B44F71708FBB0
:103C500007F106FB0911A8FB06670F4479047004FD
:103C6000801841EAD6315941039B0FFA8CF8C3F50D
:103C7000801E7246D317002212184FEACE764FEA02
:103C8000C3774FEAC8034B4147EA5E07B61A67EBB2
:103C9000030740F63543A6FB030103FB0711DDE9EB
:103CA000002309F045F8B4F916204E1302FB06FE76
:103CB000470B47EAC147D31707FB03EEA2FB0723D5
:103CC0005643734407FB0366A2FB07233344560E97
:103CD00046EAC3168219B4F914604FEA636741EBF0
:103CE00007037143F71700FB0717A6FB00013944D0
:103CF000C60C46EA413692194FEAE1474FEA1221D3
:103D0000B4F912207B4141EA036113010B4400E046
:103D100000230DB11B0A2B60029B13B11A46049BB2
:103D2000136007B0BDE8F08F74030020D0090020B5
:103D3000704770476B4B6C4A2DE9F04F5E89946871
:103D40004FEA062AB4EB0A0A9C884FF000054FEAB6
:103D500004481C894FF0000BA4FB0A6765EB0B0BB2
:103D600004FB0B77F40944EA476418EB04065C880B
:103D70004FF000094FEAE7154FEAC438DC8849EBF9
:103D8000050787B0CDE90467A4FB0A6704FB0B773E
:103D9000340A44EA076418EB04064FEA27259C8995
:103DA0004FF0000949EB0507CDE90067AAFB04675E
:103DB00004FB0B77F40D44EA472414F5FA664FEA46
:103DC000E75545F10007B6F5FA6F77F10003CDE945
:103DD0000267964666DADDE90489A4FB046704FB02
:103DE00005F34FF0050C07EB4307A6FB0C230CFB78
:103DF00007335F104FEA3206B8EB06084FEA920627
:103E000046EA837669EB07099F10DDE90023921BE0
:103E100063EB0703CDE90023DDE90267334A4FF086
:103E2000FF33964277EB0303CDE9048927DA40F6A6
:103E3000AC520023A4185D4104FB05F3A4FB044528
:103E40006FF0060205EB4305664202FB0566A4FB24
:103E50000223334418EB020649EB0307CDE904675C
:103E60000B26A4FB062306FB0533DDE900455B10AA
:103E70004FEA3202A41A65EB0305CDE90045DDE9FE
:103E800002450AFB0BF3AAFB0AAB0BEB430B4FEA11
:103E9000DA7242EA4B02A41A4FEAEB7365EB0305B0
:103EA000CDE90245DEF80C40009B019DA4FB0323F5
:103EB00004FB05334FEA525848EAC3284FEA6359D6
:103EC000DDE90423B8EB020269EB03039946D30B47
:103ED00043EA494300B1036009B1029B0B6007B09C
:103EE000BDE8F08F20030020D009002024FAFFFF56
:103EF0002DE9F041324C334D62892B8AB4F90480AC
:103F00009A1A2389B4F902E05A43B4F91230D6134D
:103F1000B4F91420DB02324493FBF2F232440A2655
:103F2000E2615643A2F57A6202FB02F3B4F90EC0D5
:103F300002FB0EFE02FB08F2B4F90C801B130CFB13
:103F400003FC03FB08F31B1403EB62320232E38829
:103F5000921002F5004253434CF25032B4F92070F3
:103F60004FEAEE2EB4F900400EEBEC2C0CEB84047F
:103F7000BC406D690234A5EBA4043A4162434FEAA8
:103F8000D3384EBFB2FBF8F35400B4FBF8F340F65D
:103F9000DE3448BF5B001A12524362430A4C0836B3
:103FA0005C43241404EB224202F6CF62361103EB89
:103FB000221300B1036001B10E60BDE8F08100BFC3
:103FC00034030020D009002043E3FFFF13B50C4B5E
:103FD00004465B681B20022101AA984770B19DF836
:103FE00004209DF8053043EA022303F54E531033B5
:103FF0004FF48C7293FBF2F32333238002B010BD95
:104000000C03002037B5104B04465D681878062174
:104010006A46A847A8B19DF800209DF8013001200C
:1040200043EA022323809DF802209DF8033043EAEF
:10403000022363809DF804209DF8053043EA0223A3
:10404000A38003B030BD00BF0C03002013B5104B9C
:1040500004465B683B2006216A469847A8B19DF854
:1040600000209DF80130012043EA022323809DF8BF
:1040700002209DF8033043EA022363809DF8042068
:104080009DF8053043EA0223A38002B010BD00BFB3
:104090000C030020B0F5807F0ED0BB280ED861281D
:1040A0000ED829280ED813280ED809280ED8002893
:1040B00014BF062000207047002070470120704781
:1040C0000220704703207047042070470520704786
:1040D000054A08B5138801339BB21380034B187847
:1040E00002F02AF9002008BD2E08002078140020D4
:1040F00008B54FF4804006F0B5FB012801BF044B22
:104100004FF480425A61034B08BF187608BD00BFC8
:1041100000040140D009002010B5054C236818693F
:1041200006F0A0FB18B123681A69024B5A6110BD52
:104130001803002000040140F8B50E461746084C4D
:104140004FF48055656140F0800005F0C5FC3846AD
:104150000021324605F08AFC25610120F8BD00BF30
:10416000000C014070B50E46054C4FF4805565615A
:1041700005F0B2FC304605F0AFFC2561012070BDB2
:10418000000C014070B5FFF785FF104C0546192063
:1041900005F003FBA36815200021984710B9022001
:1041A00005F016FB45F01801A368C9B21620984720
:1041B000A368002117209847A36801213D20984754
:1041C000A3683E200121BDE8704018470C03002081
:1041D000F0B5274D85B06B7E002B46D1254C23686A
:1041E000002B42D01A68244E12B1B1690A43B26161
:1041F0009A889868ADF8002002228DF8032069465D
:1042000004228DF8022001F0EAFBB369002743F095
:104210000103B36123680126187B197D01F0CAFBF5
:104220002368164993F9150005F01CFB2368144A0E
:104230001B695361029308230DEB03008DF80D30C9
:104240008DF80C708DF80E6006F0DCFA236801A87A
:104250005B7D8DF806708DF8043003238DF80530F2
:104260008DF8076005F0E4FB6E7605B0F0BD00BF89
:10427000D009002018030020001002401941000856
:104280000004014037B50446FFF7A2FF254B1A682A
:10429000254B9A420ED14FF40053ADF8043002235F
:1042A0008DF80730042321480DEB03018DF806300B
:1042B00001F095FB2046FFF7EDFE05461C4C8021E2
:1042C000A3686B209847642005F067FAA36807216C
:1042D00068209847642005F060FAA36800216B20ED
:1042E0009847642005F059FAA36801216B2098478C
:1042F000A36818211B209847A36810211C20984709
:10430000A36829461A209847A368002119209847D6
:10431000A368122137209847A368012138209847C5
:1043200003B030BD30000020001BB700001001407A
:104330000C03002008B5FFF74BFF024B4FF48052EF
:104340001A8008BD1800002070B50446FFF740FF32
:104350002046FFF79FFE0546144C8021A3686B2082
:104360009847642005F019FAA3680021192098479E
:10437000A36803216B2098470F2005F00EFAA3686D
:1043800029461A209847A36818211B209847A3683C
:1043900010211C209847A368022137209847A36862
:1043A00038200121BDE87040184700BF0C030020F1
:1043B00008B5FFF70DFF074B5B7813B1012B03D056
:1043C00008BD4FF4006201E04FF48052024B1A80A6
:1043D00008BD00BF0A0300201800002010B54000EF
:1043E000204CC0B220702048204C01702048002191
:1043F0000170012020701F4C23601F4C23601F4B55
:104400001A701F4A1F4B107019701F490868114617
:104410001A4630B383889C0515D40388DB050DD478
:1044200047F230530488A40502D5013BFAD112E0CB
:104430008BB103889BB243F48073038083889BB263
:1044400043F44073838047F23053087810B1013B46
:10445000FBD100E013B9BDE8104039E6107880F0D8
:10446000010010BD7E1400207C1400207A1400206E
:104470008414002080140020881400207D14002063
:104480008C1400208D1400207414002007B5F7212F
:104490006B4606227620FFF7A1FF9DF800309DF8BD
:1044A00001101B0343EA01139DF80210094A43EA75
:1044B000111353609DF803309DF804101B0343EA69
:1044C00001139DF8051043EA1113136003B05DF862
:1044D00004FB00BFD009002007B5002101AB032277
:1044E0007720FFF77BFF9DF805309DF804001B0245
:1044F00043EA00439DF80600184303B05DF804FB4F
:1045000008B5FFF7E9FF014BD86008BDD0090020CE
:1045100008B5FFF7E1FF014B986008BDD009002006
:104520000F4B13B51B780F4C0BB1237EB3B1032295
:1045300001AB7720F621FFF751FF9DF805309DF87C
:1045400004201B0243EA02439DF806201343064A57
:10455000B2F92020C2F10802D340636102B010BD5D
:1045600000000020D0090020340300200A4B13B5BE
:104570001B780A4C0BB1237E63B1022201AB77207A
:10458000F621FFF72BFF9DF804209DF8053043EA44
:104590000223238202B010BD00000020D0090020B9
:1045A00030B505460C46134629462246BDE8304044
:1045B000682013E713B50622044601211C206B4630
:1045C000FFF70CFF08B39DF801309DF8002004218F
:1045D00043EA022242F38D0292FBF1F29DF802308F
:1045E00022809DF8032042EA032242F38D0292FBCF
:1045F000F1F29DF8043062809DF8052042EA032321
:1046000043F38D0393FBF1F3A38002B010BD13B508
:1046100006220446022118206B46FFF7DFFEB8B1E0
:104620009DF800309DF801209B0803EB02232380B6
:104630009DF802309DF803209B0803EB0223638062
:104640009DF804309DF805209B0803EB0223A3800E
:1046500002B010BD314B2DE9F3411B780546002B0C
:104660003BD0002426462746A04601345320322161
:1046700008226B46E4B2FFF7B1FE08B9002049E01A
:104680009DF801209DF80030202C03EB02231BB283
:104690009DF8032098449DF8023003EB02231BB2DF
:1046A0001F449DF805209DF8043003EB02231BB244
:1046B0001E449DF8073003F07F0301D0002BD4D1B6
:1046C00098FBF4F897FBF4F796FBF4F6144BA5F877
:1046D00000806F80AE809C761CE053203221062241
:1046E0006B46FFF77BFE0028C8D09DF801209DF89F
:1046F000003003EB02232B809DF803209DF802304D
:1047000003EB02236B809DF805209DF8043003EB3A
:104710000223AB8002B0BDE8F08100BF1E03002081
:10472000D009002013B502AB03F8012D4000214A47
:10473000C0B21070204A00201170204901220A7076
:104740001F4908701F490B601F490B601F4B204910
:104750001A700A701F4B204A187010681A4630B33E
:1047600083889C0515D40388DB050DD447F23053AC
:104770000488A40502D5013BFAD112E08BB103886D
:104780009BB243F48073038083889BB243F44073ED
:10479000838047F23053087810B1013BFBD100E031
:1047A00013B9FFF795FC02E0107880F0010002B029
:1047B00010BD00BF7E1400207C1400208414002053
:1047C0007A14002088140020801400207D1400201A
:1047D0008C1400208D140020741400207620F42105
:1047E00031229FE77720482101229BE7772058213B
:1047F000012297E7064B002193F82020054B9201F8
:10480000343219767720F42102F0FC028AE700BFE7
:1048100034030020D0090020034B00221A767720B1
:10482000F4212E227EE700BFD009002003460A466D
:104830006820194676E713B500222A211C20FFF7CD
:1048400071FF0E2102221C20FFF76CFF0F210322B3
:104850001C20FFF767FF2B2112221C20FFF762FFAD
:10486000164A02249369164843F0040393612023F7
:10487000ADF8043004230DEB03018DF806308DF8FC
:10488000074001F0ACF822462C211C20FFF74AFF1C
:104890002D2101221C20FFF745FF2E2100221C2084
:1048A000FFF740FF2A2105221C20FFF73BFF054BA5
:1048B0004FF480721A8002B010BD00BF0010024099
:1048C000000801401800002008B50F210822182018
:1048D000FFF728FF0E2218201021FFF723FF024BBD
:1048E0004FF480521A8008BD1800002008B5134B01
:1048F00053201B782D2108227BB1FFF713FF3121B4
:104900000A225320FFF70EFF2C210C225320FFF721
:1049100009FF53203821902209E0FFF703FF3121DE
:104920000A225320FFF7FEFE53202C210A22FFF714
:10493000F9FE40F20912024B1A8008BD1E03002046
:104940001800002001F000BE01F024BF01F0FCBD02
:1049500001F020BF0B88584080EA0010C0B21B0A4B
:1049600083EA101343EA002383EAC0030B807047F5
:10497000034A1378591C134411705878704700BFCC
:10498000F809002038B5FFF7F3FF0446FFF7F0FF02
:1049900044EA002084B2FFF7EBFF0546FFF7E8FF8B
:1049A00045EA002044EA004038BD421E002012F8CB
:1049B000013FA3F13001092904D80A2101FB00308D
:1049C0003038F4E7704738B51648FFF7EEFF642239
:1049D000B0FBF2F302FB1302134B124C5343227849
:1049E0002146A2F13005092D04F10104F7D92E2A40
:1049F0000DD142F2107411F8012F303AD5B2092DC1
:104A000005D802FB04330A22B4FBF2F4F3E70622D2
:104A10000333B3FBF2F36422B0FBF2F0034A02FB70
:104A2000003038BD070A0020A086010040420F0078
:104A300038B5164C224612F80F5F1034A5F12D033D
:104A40005D425D41002D08BF14462046FFF7ADFFD3
:104A50006423584323461A4613F8011BA1F130047E
:104A6000092CF8D92E290DD15378303BD9B2092918
:104A700008D80A2101FB03009378303BDAB2092AF7
:104A800098BFC01805B1404238BD00BFF8090020EA
:104A900010B50024054B9A8C944206DA186A044B30
:104AA000195D04F0C2FF0134F4E710BDF8090020DD
:104AB0005D1F00202DE9F74F774C002394F8291053
:104AC000024684F82630092900F29680DFE801F0DA
:104AD0000505172B21333B4E627BFE2A40F08C806C
:104AE000022384F82930002384F859304FF0FF3333
:104AF00084F8582084F8563084F857307CE010460B
:104B0000664984F82A3084F85920FFF723FF0423EC
:104B100006E01046614984F85A20FFF71BFF032383
:104B200084F8293068E010465C4984F85B20FFF780
:104B300011FF0523F4E71046584984F85C20FFF77D
:104B400009FF0623ECE7544B104603F1560184F8A5
:104B50005D200093FFF7FEFE94F85920009B0AB9F0
:104B60000823DDE7072283F8292045E094F82A107E
:104B700010464B1C2144DBB281F85E20474984F883
:104B80002A300093FFF7E6FE94F85920009B9A42E2
:104B900032D1E5E7DFF800C194F85D304049019279
:104BA000C85C0CF15601CDF800C0FFF7D3FEDDF86C
:104BB00000C094F82A30019A092163448CF8291026
:104BC00083F85E2018E0344B94F82A100120194431
:104BD00083F8260083F8290081F85F2093F85D9020
:104BE000D3F86260D3F86650D3F86A70D3F86E8059
:104BF00093F87AA093F87BB094F82610264A0129FE
:104C000008D192F85A3082F82B30D38D03B913862D
:104C10000133E385002384F82830002939D0B9F125
:104C2000180F03D0B9F1210F1AD032E0642397FB9B
:104C3000F3F795FBF3F51B4B1B4A1F601B4B1560ED
:104C4000A3F800B04FF47A7398FBF3F8184B0122E5
:104C5000A3F80080174B92451A7017D9012216E06D
:104C6000642395FBF3F596FBF3F60E4B0E4A1D609D
:104C70004FF47A7397FBF3F70D4B16601F800D4BC3
:104C800001221A70002EE9D1002DE7D100220A4B33
:104C90001A7003B0BDE8F08FF80900204E0A00201A
:104CA000AC2F0108140500202C2B00202805002023
:104CB000240500208404002085040020642330B5EE
:104CC000B1FBF3F403FB14130A214A43054D9BB2D5
:104CD00005FB03233C22B3FBF2F3A4B205FB043330
:104CE000584330BDA086010044280ED15C4B012200
:104CF0005C4983F8962400230B805B490B70487055
:104D00005A490A705A4A1370704748280AD1544BBE
:104D1000022283F89624574B00221A80524A537875
:104D200048330BE041280BD14D4B032283F89624E6
:104D3000514B00221A804C4A5378413353707047CC
:104D40002A2801D1042212E00A2814D1464B5A78AD
:104D50001B789A420AD1494B01221A70434B454AAB
:104D600093F9003012885343454A138000223C4B8C
:104D700083F896247047582805D13D4B00221A70BD
:104D80000122404B4AE0232801D1002230E0402894
:104D9000FBD04E2807D1384A00231380314A4FF404
:104DA0007A71118008E0452809D1334B5A221A80C4
:104DB0002C4A4FF47A731380314A138017E053283A
:104DC00008D12D4BB4221A80264B00221A804FF4B2
:104DD0007A720AE057280DD1274B4FF487721A8058
:104DE000204B4FF47A721A800022254B1A80012240
:104DF0001F4B13E01A4B93F89634013B032B2DD82D
:104E0000DFE803F002041724164A13E0164A2D289F
:104E100053780344537003D1144BFF221A70704728
:104E2000144A138803EB830300EB430030381080EF
:104E30007047114A138803EB830300EB4303303BB5
:104E40001380094A5378184450707047064A137803
:104E500003EB830300EB430030381070704700BF52
:104E6000F80900202E0500201A0000203A0000203A
:104E70008F040020A01A00203005002085040020A7
:104E8000240500208904002010B5424B93F8972494
:104E90001C461AB924287BD1012204E0012A05D13D
:104EA000542875D1022283F8972410BD022A16D106
:104EB000472808D053284FF00002F4D04128F2D000
:104EC00083F8972405E0122384F89834032384F8A8
:104ED0009734002384F8990484F89A3410BD032A87
:104EE00056D193F89A3413B984F89B0404E094F8EB
:104EF0009B24424084F89B2494F89814254A043952
:104F00008B4240D192F89B34002B38D1137092F829
:104F10009934472B33D1FFF735FD07F0DFF8002236
:104F20001D4B07F06BFA0BF02DFD07F04FFB1B4BF1
:104F30001860FFF727FD07F0D1F80022164B07F0A5
:104F40005DFA0BF01FFD07F041FB154B1860FFF7F2
:104F50000FFDFFF717FD07F08BFC124907F090FDDE
:104F600007F0A0FE104B1880FFF702FD0F4BC0F3B7
:104F700087000428188082BF0D4B01221A7000237D
:104F800084F8973410BD591C134482F89A14587051
:104F900010BD00BFF8090020000059402C2B002054
:104FA000140500200000C842240500202805002028
:104FB00085040020A94B2428D3F89C2470B502F165
:104FC00001020546C3F89C241C4600F0388105D830
:104FD0000A280ED00D2840F053810AE02A2808D074
:104FE0002C2840F04D8193F8A03483F02C0384F8F2
:104FF000A03494F8A124994B0E2A00F210811A448F
:105000000021D17393F8A224002A72D0DA7BA2F196
:105010004103052B01D8373A05E0A2F16103052BC6
:1050200094BF573A303A237C1201A3F1410105297C
:10503000D2B201D8373B05E0A3F16101052994BF45
:10504000573B303B1A4494F8A014D2B29142834BA0
:1050500049D193F8A324002A00F0E180B3F8A424F6
:10506000D3F8B0140132A3F8A424D3F8AC2493F8F5
:10507000B404C3F8A8247A4A1160D8B1012840F0DA
:10508000CC80D3F8BC24D3F8C814C3F8B824D3F820
:10509000C424C3F8C024734A1160734AD3F8CC14F3
:1050A0001160D3F8D424C3F8D024D3F8DC24C3F897
:1050B000D824B5E0D3F8E0146C4A1160D3F8BC24CE
:1050C000D3F8C814C3F8B824664A1160D3F8CC14D6
:1050D000654A1160664AB3F8E4141180D3F8EC24F1
:1050E000C3F8E82499E0B3F8F0240132A3F8F024DF
:1050F00095E093F8F224CAB90E3319465D4A11F8C7
:10510000010F002800F0D28012F8016F8642F6D01D
:10511000594A13F8010F002800F0CC8012F8011F43
:105120008142F6D0022384F8B43478E093F8B414C2
:10513000022974D0DB7B002B71D042EA4112013A84
:10514000282A6CD8DFE802F015232C343951585F37
:10515000646B6B6B6B6B6B6B6B6B6B6B6B6B6B6BA6
:105160006B6B6B6B6B6B6B6B151E232C3439414671
:105170004B00FFF75DFCC4F8BC0404F0E1FAC4F88E
:10518000AC044CE0A3F141025342534131E0FFF73C
:105190001AFCC4F8C80404F0D3FAC4F8B0043EE022
:1051A000532B3CD1D4F8C8345B42C4F8C83436E041
:1051B000FFF709FCC4F8CC0431E0572B2FD1D4F809
:1051C000CC345B42C4F8CC3429E0FFF731FCC4F89E
:1051D000D40424E0FFF72CFCC4F8DC041FE02748CB
:1051E000FFF7E3FBC4F8C40419E0302B94BF00239D
:1051F000012384F8A33412E020480BF043F9C0B235
:10520000A4F8E4040BE0FFF713FCC4F8EC0406E098
:10521000FFF70EFCC4F8E00401E0012000E00020EC
:1052200094F8F234013384F8F234002384F8A13482
:10523000A5F12A035D425D4184F8A25470BD0020AF
:10524000022283F8A10483F8F20483F8A00483F80F
:10525000B42483F8A20483F8A30470BDF8090020E5
:105260001C05002010050020180500202005002046
:1052700026050020073F01080D3F0108070A00200E
:1052800094F8A1340D4A0D2B94F8A2049FBF591C29
:105290009B1882F8A114DD73084A28B992F8A0344B
:1052A0005D4082F8A05470BD002070BD012384F8D9
:1052B000B434B5E784F8B404B2E700BFF8090020BD
:1052C0002DE9F043874B89B093F8F3241E46002A5A
:1052D00000F00581844CD3F8F42421688A1A952AB9
:1052E00040F2FD8093F8F824C3F8F414013283F8F7
:1052F000F8247E4B7E4A197812787E4B09B932B970
:1053000003E022B91A7812B901221A70E7E01B787B
:10531000002B00F0E48096F8F954092D41D820685C
:1053200007F0A2FA6F4BD3F8FC1407F0EBF97249BF
:1053300007F0AEFCA8B3002300930123ADF80430BE
:10534000ADF8063002238DF818306C4B02AF03F134
:10535000100E3A4618685968083303C27345174659
:10536000F7D16F46664B0DF1180E3A4603CA7245E7
:1053700018605960174603F10803F6D11278DC2152
:105380001A70604B162219200135DA7104F0D2FC34
:1053900004F0B8FC86F8F954206807F065FAC6F8FE
:1053A000FC04594C642322684FF47A7003FB02F129
:1053B0006268564D5343B4F908202D7842438DF866
:1053C0001D5004926D466A46039300234FF0000877
:1053D0004FF00009ADF81430ADF81630ADF81A30C2
:1053E0008DF81C30464BCDE900890291ADF81800CC
:1053F0000DF11808174603CF4745186059603A4623
:1054000003F10803F6D1386818211860BA883D4FB7
:105410009A801E20F97104F08DFC04F073FCB084B6
:10542000FFF736FBAE4622686423616803FB02F097
:10543000B4F9082059434FF47A735A430023009378
:10544000ADF81430ADF81630ADF81830ADF81A30AC
:10545000019002910392049207F10803724603CA75
:10546000424518605960964603F10803F6D110686A
:105470006821186021231C20FB7104F05BFC04F000
:1054800041FCB084FFF704FBB4F9080007F0F0F921
:105490001F4B1B4A00930193002303930023ADF895
:1054A0001030ADF8123002902B4604AD1C4603CCF0
:1054B000AC4210605160234602F10802F6D1206828
:1054C0004A23106014200146FB7104F033FC04F001
:1054D00019FCB08409B0BDE8F043FFF7D9BA09B0B0
:1054E000BDE8F083F8090020241E00208604002077
:1054F000880400204C2B00200000C842143F010803
:10550000551E00204D1E0020082B002028050020DD
:105510000000204137B5184C94F8000503F01EFB3D
:1055200094F8F3340546834223D0E0B1D4F804352F
:10553000FBB1DD7993F9000002230093D4F808351C
:105540004FF400715B780022003318BF01230193F0
:105550000A4B53F8253004F0A0F9206248B101232A
:1055600084F8F33405E0206A04F096F8256284F8A4
:10557000F35403B030BD00BFF8090020EC3501083A
:1055800010B5094CC4F808054FF4007004F0BCF8DD
:105590004FF40071C4F8040504F0ACF8002384F85B
:1055A000F93484F8000510BDF80900200B88584034
:1055B00080EA0010C0B21B0A83EA101343EA0023FA
:1055C00083EAC0030B8070478379DB0748BFB1FAD9
:1055D00081F1D0F8343148BF49095A681B8909B1B3
:1055E000136170475361704710F80A3C0133DBB216
:1055F0000A2B84BF10F8131C044A00F80A3C82BF2F
:10560000002322F8113000F80A3C70476C28002073
:10561000334A70B5136C9068194440F68C23081A0D
:1056200098429160D060516013463BD9127893F94B
:10563000451010468A420BD1111F082908D893F84B
:105640004610182901D8013103E083F8442002E014
:10565000002183F8461093F944402149A24219D110
:1056600091F84740B4B10C310024944206DA51F865
:10567000046F1C4D25F814600134F6E70C2805D0A2
:105680001849002421F810400130F7E71648017846
:105690000131017083F84520002201211A7083F83E
:1056A000471070BD92F84710C9B140F2DA51A0F22C
:1056B000EF248C4208D811780B2905D80B1D013135
:1056C000117042F8230070BD002283F84720074B79
:1056D00003F13002002143F8041F9342FAD170BD58
:1056E000A00100206C280020040F0020AC01002045
:1056F000024A136C0133194411647047A001002061
:10570000024B53F820301B6819807047EC1D0020B5
:10571000074BA1F57A7153F820301A681B89594359
:105720004FF47A7391FBF3F189B21180704700BF97
:10573000EC1D002038B50C4B0C4D99680C4B1A68C9
:105740001C465288114203D004F000F8686006E05D
:1057500003F0FCFF6B68984284BF01232B7223681F
:105760005A68044B5A6138BD000C0140040F0020F8
:105770004C0400200004014090F83B3210B57BB986
:1057800090F83A3290F83942A34209D2B0F8401268
:1057900001229A400A430133A0F84022DBB2F3E72A
:1057A00010BD1FB50123ADF80830ADF8041000237B
:1057B00001A9ADF80A30ADF80C30ADF8062004F0C0
:1057C0000DFF05B05DF804FB10B5A0F5127494F858
:1057D0003C22BAB9A36A616A994228D0591CA069CF
:1057E000A162C35C2069DBB25B0043F400738142B9
:1057F000A4F83E324FF00A0384F83D3228BFA2627B
:10580000012312E094F93D327BB1B4F83E122046F8
:105810004B08A4F83E3201F00101FFF7D5FE94F8E1
:105820003D32013B84F83D3201E084F83C3294F88B
:105830003832002B4ED194F839320133DBB2092BC8
:1058400084F8393203D12046BDE8104094E70A2B92
:1058500040D194F83B322BB9B4F8403243F0010305
:10586000A4F840326379D9071CD5B4F84002820508
:1058700001D4C30705D4B4F844320133A4F8443248
:1058800010E0E36AC0F347000BB198470AE0E36910
:105890006269D054E369E1680133B3FBF1F201FBC3
:1058A0001233E361012284F8382294F83B2200236A
:1058B000012A84F839320DD1A27984F83B32236B66
:1058C00012F0010F1868997A0CBF02220022BDE87D
:1058D000104066E710BD1FB50123ADF80830002366
:1058E000ADF80C30ADF80A30084BADF804101B7859
:1058F00001A9012B08BF0323ADF8062008BFADF8AE
:105900000C3004F06BFE05B05DF804FB9C01002038
:1059100038B510F80E2C044650F8043C52B9012258
:1059200000F80E2C20F80C1C997A18680222BDE8A9
:105930003840D0E730F80C2C20F80A1C891A89B2BC
:1059400020F8081C074A10F80F0C002522F8101048
:1059500004F80E5C1868997A2A46FFF7BCFF04F831
:10596000065C38BD6C280020044B53F820301BB176
:1059700007289CBF1B681980704700BFC802002021
:10598000D8E6D7E6D6E6084A13689B020BD5074B44
:10599000002119704FF6FE730549086803400B603B
:1059A0004FF4001353607047000002404E2B00205C
:1059B0006C00024001F0030301F0FC0101F18041A1
:1059C00001F5803110B59B008C680F229A4024EAC3
:1059D00002028A608A68984002438A6010BDF0B56E
:1059E000B1F800E000234EFA03F2D50725D58E78F2
:1059F0004FEAD30CF40648BFCC7806F00F0203F050
:105A0000070748BF2243BF0050F82C500F24BC406A
:105A100025EA0404BA402243282E40F82C2005D160
:105A2000C46801229A4024EA020205E0482E04D10B
:105A3000C46801229A402243C2600133102BD2D1A4
:105A4000F0BD2DE9F04F1E464FF414734343554DFE
:105A500085B005F10C0480469146E718A24610B9BE
:105A60002B44514A03E0012805D1504A2B44DA6304
:105A70001032C3F840214FF4147303FB08F34C4871
:105A8000EC180AEB030203F59C7334325344E060D4
:105A9000A1632262636200224FF480714FF0010B18
:105AA000D4F840310320A161E262A262E161626345
:105AB000226384F8482284F844B284F84522A4F88A
:105AC0004E22A4F85022C4F814906074A67484F88E
:105AD000528258681B8904F59E724FF0020CADF893
