:020000040800F2
:10000000005000204DAF0008EDAF00080595000836
:10001000EDAF0008EDAF0008EDAF000800000000F4
:10002000000000000000000000000000EDAF00082C
:10003000EDAF000800000000EDAF00083F870008AA
:10004000EDAF0008EDAF0008EDAF0008EDAF000820
:10005000EDAF0008EDAF00081D4E0008194E000876
:10006000EDAF00084D870008EDAF0008EDAF0008C8
:10007000EDAF0008EDAF00089D340008EDAF0008BB
:1000800015710008EDAF0008EDAF0008EDAF0008F6
:10009000EDAF0008EDAF0008EDAF0008154E000809
:1000A000EDAF000875320008EDAF0008853200089A
:1000B000693200085932000849320008C92F000887
:1000C000CD2F0008C12F0008C52F0008EDAF000894
:1000D000EDAF0008953400088D3400088534000821
:1000E00051870008EDAF0008EDAF000800000000E8
:1000F0000000000000000000000000000000000000
:0C01000000000000000000005FF808F1A3
:100110002DE9F04F824B834C9FB0C4F898300023F8
:10012000C4F89C3006F0F6F818B906F015F905F099
:100130002FFE05F0D3FE7C4A7C4D1378A87B43F05C
:100140000103137000230A930B930C934FF4E013F5
:100150000D93774B9A461A6842F480321A609A6976
:1001600042F010029A61DAF8003003F400330B9386
:100170000A9B01330A930B9B1BB90A9BB3F5A06F33
:10018000F1D1DAF800306A4913F4003301D00223C8
:1001900017E00A6842F001020A600A93DAF80030B8
:1001A00003F002030B930A9B01330A930B9B1BB9C9
:1001B0000A9BB3F5A06FF1D1DAF800309A0741D568
:1001C00001230C935B4B5C491A6842F010021A60E1
:1001D0001A6822F003021A601A6842F002021A60DA
:1001E000DAF80430CAF80430DAF80430CAF8043017
:1001F000DAF8043043F48063CAF804304F4B1A68CD
:10020000043B22F070425A604D4A1160DAF8041043
:1002100021F47C11CAF80410596841F0004159607A
:10022000D96821F40041D9609B681B0449BF454B44
:100230004FF4E01313604FF480130D930C9B012BCC
:1002400001D118E0FEE7022B1BD168B10D9BB3F57D
:10025000801F02D14FF4A01305E00D9BB3F5E01F02
:1002600002D14FF400130D930D99DAF804300B43CB
:1002700043F4803303E0DAF8043043F46013CAF83F
:100280000430DAF8003043F08073CAF80030DAF84E
:100290000010274B8F01FAD5596821F003015960EE
:1002A000596841F002015960DAF80430204803F03F
:1002B0000C03082BF8D14368234903F00C03042BEB
:1002C00003D0082B03D01C4B12E0136810E04368E6
:1002D0004668C3F38343F60303F1020301D41B48CA
:1002E00005E0406810F4003F106818BF4008434321
:1002F0000B60DAF804301648C3F303130344187E86
:100300000B68C3400B60EB7B003318BF012384F8FC
:10031000A0301368084A93421CD101221EE000BF9E
:100320004F590008B4000020C02100200C220020FA
:10033000001002400020024000127A000410014028
:1003400028000020001BB7004400002000093D00E9
:10035000A0F00008B64A934202D10222B54B1A70AF
:10036000DFF82883B44B0DF1780BC8F80C30DAF8BD
:100370001830DFF81CC343F00103CAF81830DAF86C
:100380002430AE4EC4F8A430DAF82430604643F08E
:100390008073CAF82430DAF81830002743F01C03C1
:1003A000CAF818304FF6FF732BF82C3D5946CDF89C
:1003B00008C08DF84E7006F0B8FF3046594606F07A
:1003C000B4FF9F48594606F0B0FFDDF808C002238D
:1003D0001EA98DF847304FF010094FF400736046A6
:1003E00021F8343D8DF84690CCF81030CDF808C097
:1003F00006F09BFF934A5846536843F000735360DE
:1004000007F0B8FD904A139B3946B3FBF2F38F4ACD
:100410008F48136018220BF0CAFE8E4B4FF47A728D
:100420001B68B3FBF2F38C4A013B5360F02388F85E
:100430002330072397601360AB68DFF85882874F3B
:10044000C8F8003097E80F008BE80F00DAF8183092
:10045000139843F00803CAF81830DAF8183014A9D2
:1004600043F00803CAF8183008233361C6F8109027
:1004700006F05BFF159816A906F057FFD8F8003074
:10048000DDF808C013F0080FCDF80CC015D0744B80
:1004900093F88E31012B10D8724A714BD2F8A420F8
:1004A00093F88F3112F0805200F0328505E06C4BEA
:1004B000002283F88F2105F0F1FE642008F035F961
:1004C000A022694800210BF072FEDAF81C300022ED
:1004D00043F00703CAF81C30DAF8183043F400631D
:1004E00043F00C03CAF818305E4B4FF0000903F1DB
:1004F000A80102F8019001320E2AF5D1FF2283F8FB
:10050000B62083F8B72083F8B82083F8B920574B7A
:10051000574A49461A6057483C22D8F800600BF009
:1005200046FE4946C6F380170523534ADFF844E1E7
:10053000885C0C224A4302F80E0047B91E38012895
:100540009FBFFF2003F1FF3302F80E00DBB2013141
:100550000529EAD1494A95F805901370484BB10630
:10056000C4F8BC3003F1C003C4F8C030454B3D4A69
:1005700003EBC9035B7848BF0123C2F8C4300021F4
:1005800041481C2284F8BA900BF011FE16F4005C6E
:10059000DFF8048106F4006108D151B195F8822199
:1005A00008F10C03012A08BF434604E0CDF8088097
:1005B00002E008F10C030293204BB9F10E0F0F93E8
:1005C000029B5B88ADF84030029B1B88ADF842303F
:1005D0000FABC4F8E03004D009F0EF09B9F1080F0F
:1005E00002D1012384F8DA3001200591CDF810C042
:1005F00008F02EF8DDF810C0C6F3400384F8CE30C2
:100600001CF1000318BF0123059984F8C830C6F314
:10061000C03384F8CD0084F8D07084F8CB30002942
:100620003CD095F882315F1E7B427B4137E000BFB2
:10063000001BB7002E2A00200005FA05000C01401F
:10064000001001400000014040420F00241F002024
:100650006C1700204400002010E000E0C8F0000803
:100660000C220020B4000020C42000201C1F002009
:10067000FC230020E01E0020E50E0108DD1E002006
:100680001C2200206C0201087C01002000ED00E02B
:1006900000080140301F0020A0F000080B4684F83D
:1006A000CC30C6F3004384F8D130C6F3402384F83D
:1006B000D230D4F8C430B5F84401003318BF012358
:1006C00084F8D330C6F3005384F8D430B5F84631FB
:1006D000A4F8DE00A4F8D830F004B5F8523148BFD1
:1006E000B648A4F8D630C6F3804306F00101C6F33D
:1006F000C00284F8CF3048BFB0F84C61B5F8503133
:1007000048BFAF48A4F8DC3048BFA0F8DE60B3F5BE
:10071000FA7F84BF0023A4F8DE3095F8D231A948CF
:1007200084F8E430002384F8E530437094F8DA303C
:1007300084F8C910002B84F8CA200CBF00230223C0
:1007400001B902B1013308EB83039B6B9A1E1A3384
:100750000793002305920493059B994D33F8024FAC
:1007600005934FF6FF739C4200F0928195F8CD20DF
:10077000E3B2240AE6B21AB19A1E012A40F283813A
:1007800095F8D02032B190491A0189588F4A914288
:1007900000F0798195F8D10030B18B491A01895860
:1007A0008A4A914200F06F8195F8CE2052B1864975
:1007B000039F01EB03114A68BA4203D10A89102A48
:1007C00000F0618195F8CB2052B17F49039F01EB86
:1007D00003114A68BA4203D10A89022A00F0538100
:1007E00095F8CC2052B17849794F01EB03114A6852
:1007F000BA4203D10A89022A00F04581D5F8E07097
:100800008FB1714A02EB031EDEF804103A68914280
:1008100009D1BEF80820B988914200F03481F988E6
:10082000914200F03081022C02D195F8C82003E0FB
:10083000012C04D195F8C920002A00F0248195F8F4
:10084000D320614C1F0162B15D4A92F8DA2042B9AF
:10085000A3F10802012A04D8E2595E498A4208BF7E
:10086000042695F8D4203C445AB1554A92F8DA202F
:100870003AB910B10C3B012B01E0043B032B40F2D1
:10088000EB80012E49D1DFF840C1FF2385F82C31E0
:1008900085F82D310CEB07035A7B586803F10809E2
:1008A0001B894FF00008ADF84C3013A9022385F8DE
:1008B0003081C5F83C418DF84F30CDF818C08DF827
:1008C0004E2085F8E880C5F8EC80C5F8F080C5F8C2
:1008D000F480C5F8288185F82E8185F82F8106F0EF
:1008E00024FDDDF818C099F802105CF807004246B4
:1008F00004F0E1F820464146324602F01FFD364B37
:100900003649C5F84031364BC5F84881C5F8443101
:1009100020460A1D02F05AFDB5E0022E66D19DF870
:1009200010301C2101FB03FC254B9DF8101003EB3C
:100930000C09012389F830310893234B89F83111D0
:10094000DA1902F1080359794FF00008506812894A
:100950008DF84E1089F8328113A989F83A81C9F8C7
:100960003C41CDF824C00693ADF84C208DF84F6083
:1009700006F0DBFC144B4246D859069B997804F0EC
:100980009AF8089B20461A46414602F0D7FC0C4BC9
:10099000144ADDF824C0C9F840219C44124A0CF5E1
:1009A000A071C9F84421C9F8488120460A1D02F007
:1009B0000DFD049B0133049365E000BF0C22002071
:1009C000B4000020990100208C01010800040040BF
:1009D000000C0140002C01400D450008F4010020EE
:1009E000ED450008F14A0008E5440008032E31D126
:1009F00095F8CF20994B95F8E670994E2AB120468C
:100A000008214FF6FF72002318E0B3F8DC20B3F89A
:100A1000DE30B2F5FA7F0BD992492046B1FBF2F2F3
:100A2000082192B204F09CF88F4B46F827000AE0A8
:100A30008E492046B1FBF2F2012192B204F090F807
:100A40008B4B46F82700C36095F8E630013385F8F4
:100A5000E63018E0042E16D1B5F8D620834B204698
:100A600093FBF2F20121B5F8D83092B295F8E56027
:100A700004F076F895F8E53005EB86060133C6F804
:100A8000100285F8E530059B079A93427FF464AE27
:100A9000784B724C1A68039312F4802F02D1012311
:100AA00084F83032744A754F1378754843F0040364
:100AB00013703B784FF48052022B34BF1423102361
:100AC0008DF84E304FF002038DF84F30DAF81830C1
:100AD000ADF84C2043F00403CAF8183034BF0026A8
:100AE000012613A906F021FC664B0EB1664A00E010
:100AF000664A00201A6007F02DFE654B654E93E8AC
:100B00000300DAF818308BE8030043F00803CAF852
:100B10001830139814A906F008FCDAF81C304FF0CE
:100B2000030943F48043CAF81C30DAF81030304629
:100B300043F48043CAF8103018238DF84E305946DC
:100B40004FF42043ADF84C308DF84F9006F0EDFB9C
:100B50004FF0040C4FF48043304659468DF84EC098
:100B6000CDF810C04FF48058ADF84C3006F0DDFBE6
:100B70001023594630468DF84E30ADF84C8006F0C3
:100B8000D4FBDAF81030322043F48043CAF8103036
:100B9000DAF8103023F48043CAF810303E4B1A883C
:100BA00002F4415242F4457242EA09021A809A8BD9
:100BB00022F400621204120C9A8307221A821A8805
:100BC00092B242F040021A809F23C6F810808DF83E
:100BD000443000238DF845308DF846308DF847308D
:100BE00007F0A3FDDDF810C0C6F814806246584631
:100BF00011A908F0B3FCC6F810809DF84E309DF89E
:100C00004D201B0243EA02439DF84F201343234A21
:100C1000934214D0322007F088FDC6F81480F520E6
:100C200008F0D2FCFF2008F0CFFC7028C6F8108036
:100C300005D13B78022B04BF104B83F800903B7822
:100C4000032B0CBF1F20022007F082FC3B78032BF4
:100C500026D0012006F064FD27E000BFB40000208C
:100C60008C1F002000127A000D46000840420F0041
:100C7000FD450008301F0020C02100202E2A002042
:100C800000080140182A00203D8400085184000813
:100C9000E8F00008000C014000380040152020005A
:100CA000022007F0D5FC0028D3D0039BDFF8E8A290
:100CB0001E684FF0100B06F400630AF23120002189
:100CC0005A4603933F780BF072FA4FF6FF73ADF874
:100CD0004430022306F400494FF000081E408DF80E
:100CE00046308DF8478010D01EA921F834BDA148A8
:100CF00007F0F2FA0126042207238AF831228AF843
:100D000032828AF833628AF83432B9F1000F12D095
:100D100002231EA921F8343D964807F0DDFA01238D
:100D2000F21884F8353284F83732072384F83662B3
:100D300084F83832D6B2012F13D920231EA921F806
:100D4000343D8C4807F0C8FA0523012284F8393273
:100D500084F83B22731C072284F83A6284F83C2210
:100D6000DEB2039B9BB102231EA921F8343D8248C9
:100D700007F0B2FA0923012284F83D3284F83F22B9
:100D8000731C072284F83E6284F84022DEB27B4F57
:100D90007B487B68002443F440437B607B6943F0DD
:100DA00001037B61BB6943F40073BB6104F0C5FCC4
:100DB00013A804F097FC734B012E1393724B079703
:100DC000149394BF2346802318934FF48073199390
:100DD0004FF48063A7F6F8771A93202313A91B9387
:100DE00038464FF4005316961C93159417941D948F
:100DF00004F085FC3B68654A43F001033B6053689F
:100E0000012E23F4702394BF0021012123F4807369
:100E100043EA0123536091685D4B013E0B4043F46C
:100E2000602343F002039360D36AF6B223F47003A5
:100E300043EA0656D662012356490A1990780028DB
:100E400051D0605C591C0928C9B2D2784F4F10D9D3
:100E5000A0F10A06D7F80CC006EB46064FF0070EC5
:100E60000EFA06FE2CEA0E0EB2404EEA0202FA60BC
:100E70000CE03E6900EB400C4FF0070E0EFA0CFE42
:100E800026EA0E0602FA0CF232433A61062B3F4E76
:100E90000CD8013B776B03EB83031F229A4027EAB0
:100EA000020200FA03F3134373631BE00C2B0CD80C
:100EB000DA1F376B02EB82021F23934027EA0307F6
:100EC00000FA02F33B4333630CE0A3F10D02F76A2F
:100ED00002EB82021F23934027EA030700FA02F382
:100EE0003B43F3620B460434102CA5D1274B9A6880
:100EF00042F480729A609A6842F001029A609A689D
:100F000042F008029A609968204A090746D5FAE734
:100F1000013B092B3FF6D1AAB86E02925946C6F89A
:100F20001490CBF80000039806F0FFF9039B3C20D7
:100F30001A460823136107F0F8FB029AC6F81090CE
:100F4000164695F88F319E42BFF6B1AA039BDFF893
:100F500028900827C9F8107078205F6107F0DAFB45
:100F6000039BC9F8147078201F6107F0D3FB01368A
:100F7000E7E700BF00080140000C014000100240FC
:100F8000080002404C240140F602002000240140E9
:100F9000FDF7F1FFE5020020B4000020936843F064
:100FA00004039360B74B9A685207FBD49A6842F4E3
:100FB000A0029A60B44BB3F85801002840F0308783
:100FC000B3F95A21002A40F02B87B3F95C31002B8A
:100FD00040F02687AD4FAE4C3B6813F4003F20D065
:100FE000C82007F0A2FBAE2006F005FB08B106F012
:100FF00007FB84F84A02C82007F097FBA54B0021A5
:101000000C22A548C4F84C320BF0D1F8022384F826
:10101000533202F034FE07F061FBA04B0344C4F8E6
:101020005832994ED4F85C3296F868C1B3F956E05C
:10103000B6F8600196F85F1196F867216346CDF81F
:1010400000E003F0EDFE10B9012007F089FB944A9F
:101050004FF00A08137843F002031370914B1022EB
:101060005A6108221A61DFF83C921920D9F80C3035
:1010700008F1FF3883F01003C9F80C30D9F80C30B0
:1010800083F00803C9F80C3007F04FFB012007F08C
:1010900061FB192007F049FB002007F05BFB18F00B
:1010A000FF08E0D10823C9F810304FF0100A7E4B3A
:1010B000C9F810A01A68984612F0080F09D07B4BA7
:1010C000C9F814A01B689847794B0122C9F810A0F1
:1010D0001A70784B188809F075F9D5F86032814696
:1010E000187B09F06FF9744909F0C0F9734909F0E8
:1010F000B5F804F0D9FD0146484609F0B7F90CF0FF
:101100007BFA4946A5F864026D4809F063FA6D4917
:1011100009F060FA6C4BC5F868026749D86809F0B5
:10112000A5F96A4909F0A2F95A49B6F84E31684A58
:10113000C5F87012D5F85CE2C5F87812B6F89411CB
:10114000A5F87432002313809370C5F86C020EF179
:10115000790285F87C321FFA81FCDFF89C915D48AA
:10116000D9F80050DFF894A105F596754AF8235098
:1011700020F813C00133122B4D46EED1D7F8009062
:101180000EF1C90E19F4805F08BFB6F89AC1A0F835
:1011900006C01378B3B9937892F803C0634511D2AF
:1011A0000BB1013B01E00CF1010303EB830392F867
:1011B00001C003EB830303F561739BB20CF1040CD4
:1011C00020F81C3004327245E3D119F0080F00F00A
:1011D000FE8096F88E21062A00F2F280DFE802F007
:1011E00004070E3590B0B00045F2F05301E042F62E
:1011F000F823A4F8C83208F087FBE0E042F6F823B1
:101200000901A4F8C8320A2391FBF3F10023A1F5E8
:10121000B061314A42F823100133122BF9D12F4A21
:101220002F49402011602F4A137007F035FA00282B
:1012300000F0C68001234FF0070A90F9000040211A
:101240008DE80804284A294BB4E042F6F823284ADE
:10125000A4F8C832214B40201A60224B10221A7089
:1012600007F01AFA002800F0AB8001234FF00009C4
:1012700090F9000040218DE808021E4A4FF4E13346
:1012800098E000BF002401400C220020301F002005
:10129000B40000209223002004030020404B4C00A7
:1012A000C0210020000C0140A4170020AC17002032
:1012B000800900200000002035FA8E3CDB0FC93F7A
:1012C0000AE81C4100401C46F4160020BD37863554
:1012D000B81E0020D2210020A41D002030000020D4
:1012E000237A00080C2A0020A57C0008A0860100B3
:1012F0001F7A0008F97B0008CC210020340300206D
:1013000042F6F823774AA4F8C832774B40201A6097
:10131000764B08221A7007F0BFF9002850D001233D
:101320004FF0000C90F9000040218DE80810704A41
:101330004FF4E13307F03AF96E4BC3F8CC023BE0CF
:1013400042F6F823A4F8C832684B0C21DFF8D4C168
:10135000DFF8D4E168481970062A4FF000038CF8D2
:1013600000308EF8003003700AD0644B1B221A70D4
:10137000634B05221970634B4FF4E1391A7008E092
:101380005E4B212018705E4BDFF8A09119705D4B09
:101390001A705D4A544B40201A6007F07DF978B10D
:1013A00001234FF0000E90F900008DE808404B46F5
:1013B000564A402107F0FAF8003018BF012030B932
:1013C000B368534A23F00803B360474B1A603B6885
:1013D000464A13F4804F1FBF122111704D484249F5
:1013E00018BF086042F20101194099B144F620612A
:1013F0009804A4F8C81241BF0821117046483A4920
:1014000048BF0860D90741BF0C21117043483649D5
:1014100048BF086011781B06A1F10401517040F12A
:101420009B80DFF8D0B04FF00009DFF804A10BF586
:101430003D7049461522C4F8D0A284F8D592C4F86C
:10144000D892C4F8DC920AF0B2FEAAF10503C4F8FF
:101450000C332B680220C4F8EC322B6884F8D49249
:10146000C4F8E89284F8F092C4F8E03207F014F976
:1014700098B390F805E09BF8D53229490C2202FB7D
:10148000031292F85120724504D00133DBB2042BD1
:10149000F3D9002384F8D53296F8EB3194F8D522AD
:1014A000002B4FF00C0303FB021314BF4FF0030E8D
:1014B0004FF0010E4FF0000A90F9000093F8513000
:1014C000CDF800E0CDF804A00221524607F06EF8F6
:1014D000DFF82090C4F8100360BBB36823F08003EA
:1014E000B36031E01B7A0008300000200C2A002095
:1014F000AD7B0008B4000020101E0020121E00204A
:10150000A11D0020131E0020617900088D7A0008BB
:10151000757A0008517A0008657A0008557A000843
:10152000A0F00008A21D0020111E002090D0030092
:10153000FC230020012389F8D4322B68C9F8E8A2E3
:10154000C9F8EC3289F8F0A2D4F85C0200F5C57352
:10155000C4F8143301F02EFE029B0425C4F818339E
:10156000079B4FF0030B9A69C64842F001029A614B
:10157000029B0EA91A888DF83A50ADF838208DF8E4
:101580003BB005F0D2FE029BBE485A880EA9ADF8CA
:1015900038208DF83A5005F0C8FE029B0120197AD8
:1015A00005F0AEFE029BB8495A684FF010034A613D
:1015B0000025012613A813928DF851308DF8505054
:1015C0008DF8526006F04AFE029B11A85A7A8DF8F7
:1015D00045B08DF844208DF846508DF8476007F0EF
:1015E0009FFFAA4ADFF8CC921268DFF8CCA23C3AFF
:1015F000C4F81C23D8F8002084F82C5342F01002C1
:10160000C8F800204FF0FF32C4F82023A04AC4F8E5
:1016100024238032C4F828233A68D00340F1AE80F6
:1016200040F22A3802F086FE09F22D3902F0C4FE9B
:1016300002F0A6FE09F8016C2946424648460AF027
:10164000B6FDDAF81820934842F00402CAF81820D0
:101650004022ADF838200EA918228DF83B208DF8D5
:101660003AB006F039FEDAF81C208B4942F002024B
:10167000CAF81C20894A8A4F1268DFF840B2B2FBD0
:10168000F1F23988013A21F45C710904090C3980BE
:1016900092B21D21B9853A85BE823A8C22F00102B0
:1016A0001204120C3A843A8CB888398B22F0020268
:1016B00021F0730109041204090C120C41F06001BD
:1016C00080B23243B8803983BD863A843A8B58461B
:1016D00022F008021204120C42F008023A83B7F812
:1016E00044206FEA42426FEA524292B2A7F8442085
:1016F000DAF814203243CAF8142004F01EF813A8B4
:1017000003F0F0FF674B5846139310231593802383
:1017100018934FF48073199313A94FF400531C933B
:10172000CDF85090CDF8588017951A951B951D95BA
:1017300003F0E5FFBB8911A89BB243F40073BB81A2
:10174000DBF8003043F00203CBF800304FF0100319
:101750008DF845608DF844308DF846508DF847601F
:1017600007F0DEFE504B1A68504B43F82520013538
:10177000202DF7D105F0E6FC05F0E4FC4C4B1A688F
:10178000029312F4806F00F06381D4F8D8660420CD
:10179000C4F8DC6606F080FF04218046C4F8E00649
:1017A00006F070FF074684F8E4060820C4F8E866EF
:1017B00006F072FF0821C4F8EC0606F063FF3D4D09
:1017C00084F8F00600212C2205F2F1600AF0EFFC0B
:1017D0008E232C2200214FF07C0A84F8F2364FF041
:1017E0007D09E02305F21D7084F8F43684F8F1A633
:1017F00084F81C970AF0DBFC8A2384F81E3710203B
:10180000A02384F8203784F81DA784F84897C4F8EB
:101810004C6706F041FF1021C4F8500706F032FF74
:1018200084F854072020C4F8586706F035FF2021BB
:10183000C4F85C0706F026FF84F86007384602F01B
:10184000DFF994F861370746834241D0002837D04A
:10185000B8F1000F3CD0022398F900000093737890
:101860000421003318BF0123019300224FF41653C3
:1018700006F09CFEC5F8640750B3012385F8613774
:1018800026E000BF000C014000040140CC210020F4
:10189000382400200008014000366E01440000207A
:1018A00000040040340400402CF100080C07002024
:1018B000301F0020B4000020001002406C000240E5
:1018C000D5F8640706F05CFEC5F8647785F86177A3
:1018D00094F8F00602F094F994F86837B84D834212
:1018E00006461AD088B1D5F8EC36B3B100220126ED
:1018F00093F900000821009601924FF4964306F0F8
:1019000055FEC5F86C0730B907E0D5F86C0706F04E
:1019100037FEC5F86C6785F8686794F8540702F0DD
:101920006FF994F87037A64D8342074659D00028C6
:1019300037D0D5F85027002A53D0D37992F9000038
:10194000002B4FF002029F4E08BF0323009200229B
:1019500056F823300192102106F028FE0646C4F8FE
:10196000740700283DD095F84A30022B0BD095F82B
:101970009620022A01D14C3505E023B1002A05F159
:101980004C0518BF0025C4F8785745B128460021FA
:101990004C220AF00CFC02232E6085F84A30012309
:1019A0001DE0D5F874672B68B34207D1304606F0C6
:1019B000E7FD284639464C220AF0F9FBE36CB342B6
:1019C00007D1304606F0DCFD7F4800214C220AF0AA
:1019D000EEFB304606F0D4FD0023C4F8743784F8DB
:1019E000703794F8600702F00BF994F87C37744D67
:1019F000834206462CD008B3D5F85C3743B3D5F8FC
:101A0000582793F9000052780323002A0CBF0822BC
:101A1000092200930192202100224FF4614306F035
:101A2000C5FDC4F8800798B1012385F8843785F88F
:101A30007C37664B1B68C5F8883709E0D5F8800706
:101A400006F09EFDC5F8806785F8846785F87C6799
:101A50005F4B604D1B78022B64D15F4A00261388D0
:101A6000322023F040031B041B0C138013884FF417
:101A7000805723F038031B041B0C138013889BB280
:101A800043F0400313809F238DF844308DF8456068
:101A90008DF846608DF8476006F047FE8DF84D6082
:101AA0004E4E0422776113A811A907F057FD376144
:101AB0009DF84E309DF84D201B0243EA02429DF8EE
:101AC0004F301343464A934219D00AD8A2F51A421E
:101AD000033A93420CD002F51A420232934209D0E3
:101AE0001BE0404A934205D00132934207D014E0F4
:101AF000202300E08023AB804FF4807302E04FF49A
:101B00008073AB80EB802B89AA881B02EB60534368
:101B10002B61354B01221A7004E00023AB80EB806F
:101B2000EB602B612B69002B00F007814FEAD32873
:101B3000C1464FF0000AC2452CDA0AEB08077F10B5
:101B4000FB0203228DF8442000261A0C1B0A8DF894
:101B500045208DF846308DF8476007F077FDC8B115
:101B60001E4B4FF4805CC3F814C011A90422304608
:101B70000DF14C0BCDF810C0039307F0EFFC584665
:101B80003146102207F0EAFC039BDDF810C0C3F8D1
:101B900010C00AE04FEAC923039394F88D2794F804
:101BA0008C37934200F0C68020E05BF8263001338A
:101BB00040F017810136042EF7D1B846B946BAE78E
:101BC000B40000207400010800010020CC21002096
:101BD0002E2A00200000002000380040000C0140A8
:101BE00018BA20001740EF00D02100207F499A4208
:101BF00001EB03001190129108D3D31A1393002321
:101C00001493139B149A02EB030857E0C3F180036B
:101C100013931492F5E7D4F81078FEB208EB06039C
:101C2000B3F5807F2B698CBFC6F5807646469F4210
:101C30007BD20223DFF8BC918DF838303B0C4FF497
:101C4000805A8DF839303B0A8DF83A308DF83B7068
:101C500007F0FCFCC9F814A0062007F0B5FC644BA3
:101C60000122C9F810A000201A700EA9C9F814A00A
:101C7000042207F073FCDDF84CA0BAF1000F21D06C
:101C8000B24530D2DDF844B000205946524607F044
:101C900065FC0BEB0A010023CAEB060911911393B3
:101CA000DDF850A0BAF1000F0ED1524B4FF4805224
:101CB000C6EB08083E441A61C4F81068B8F1000F7A
:101CC000A9D132E0B146EBE7CA4511D2DDF8489020
:101CD00000204946524607F041FC09EB0A01002367
:101CE00012911493E1E7B14600230DF14C0B02E091
:101CF0000DF1500B04230DF1440C5CF803A04A468F
:101D0000002051460593CDF810C007F027FC059B35
:101D1000DDF810C00AEB09024CF80320DBF80030B4
:101D2000C9EB0303CBF80030BFE7002384F88D37FD
:101D300084F88C37039BC4F81038029B1B6813F49B
:101D4000002318BF012384F8143806F0C7FC2A4B7F
:101D500018602A4B5A791946052A04BF4FF4C873F4
:101D6000A4F81638264B4FF47A721A80254BC822F5
:101D70001A80254A137843F008031370234A137816
:101D800023F002031370029B1A6840F6020313400B
:101D90006BB11F4B0320C4F818381E4B18701E4B34
:101DA000012018700023A4F81C38A4F81E389303EF
:101DB00042BF042384F8543294F85332029A44BF49
:101DC00043F0010384F853328B681360134A0123F4
:101DD00084F83032137863F07F0313701FB0BDE8CE
:101DE000F08F07F1010A4F46E8E600BF42080020E5
:101DF000D0210020000C0140380900200C220020D6
:101E0000282A00202A2A0020041E00202C2A002034
:101E100084230020A41E002041000020C0210020B7
:101E2000464B00221A7000B208F0CCFA444908F080
:101E30001DFB444C0746B4F95A0108F0C3FA404967
:101E400008F014FB0646B4F95C0108F0BBFA3C4903
:101E500008F00CFB3C490446384608F0FFF903F053
:101E600023FF8146384603F01FFF374907463046B7
:101E700008F0F4F903F018FF8046304603F014FF31
:101E800031490646204608F0E9F903F00DFF834684
:101E9000204603F009FF49468246584608F0E6FA14
:101EA00049460390504608F0E1FA594604903846F6
:101EB00008F0DCFA51460590384608F0D7FA41465A
:101EC0000690584608F0D2FA204C5146206008F19E
:101ED000004008F0CBFA31466060A660059808F033
:101EE000C5FA0146049808F0B9F93146E060069851
:101EF00008F0BCFA0146039808F0AEF941462061AB
:101F000007F1004008F0B2FA31466061039808F02A
:101F1000ADFA0146069808F09FF93146A061049891
:101F200008F0A4FA0146059808F098F94946E061DE
:101F3000404608F09BFA2062FFF74CB814000020DE
:101F400035FA8E3C0C220020DB0FC93F4C090020E3
:101F50009148F0B50368914A9C8AA4B2E1B211F0AD
:101F6000010F2ED0198821F400610904090C198091
:101F7000198889B241F4806119800021117051786B
:101F800099B1917811B9D178FF290ED101219170C1
:101F90001179022901BF198889B241F400611980C1
:101FA000517941F001011982E1E0517901F0FE011E
:101FB0001982D378FF2B00F0DA80784BFF2119705B
:101FC000D5E08E073AD5BFF35F8F1479E4B2012CC8
:101FD00013D1517889B1917879B1198821F4806150
:101FE0000904090C1980BFF35F8F198B198894714C
:101FF00089B241F4007119801BE0198BBFF35F8F28
:1020000014796649022C0AD14C7844B1897831B1EF
:10201000198821F480610904090C1980A1E0147960
:102020005E49032C05D14C781CB18978002940F019
:102030009880998889B241F4806197E04D0756D520
:10204000012191715178002937D09178002934D03D
:1020500011791C88022911781DD924F48064240484
:10206000240C1C801E8A9568CCB2F6B249B26E541C
:10207000198889B241F4007119800168A31C13709A
:102080000B8A0134DBB264B22B558B889BB243F4CC
:1020900080638B8026E0A4B244F400741C801D8A07
:1020A0009668CCB2EDB249B275541B8A611C49B234
:1020B000DBB203347354147014E09178374C09B9CF
:1020C000217B41B1198889B241F4007119801378DC
:1020D0000133137006E0198889B241F480711980C8
:1020E0000123A37001680B88DB05FCD43FE001F0FD
:1020F000400101F0FF05E1B114781F8A9668E5B24E
:10210000691C64B2FFB23755C9B21679117049B271
:10211000CC1CA64201BF9C8824F480642404240CB7
:1021200008BF9C8013798B4221D11C4B02351D7056
:102130001DE027061BD511784CB2661C0AD0156924
:1021400001312C5DC9B21C821479117049B28C42E4
:102150000DD106E0D17815701982517809B911793D
:1021600029B9998821F480610904090C99801379AF
:1021700092F9004001339C4208490CD100238B7036
:102180008B7933B101688B8823F440731B041B0CDB
:102190008B8000231375F0BD601D0020D408002043
:1021A0002DE9F04F87B06C4C02916C4922888E6902
:1021B0000546C2EB26135B435200C2EBE602B4F9BC
:1021C00002601B135643B4F90420B4F90A005343C8
:1021D0009B1303EBE62606EB860380331B12B6F552
:1021E000FA384FEAE6770493CB6947F1FF39A8FB49
:1021F00008AB039308FB09F3B4F908200BEB430B7E
:10220000E389A6610593D31708FB03F102FB0911CB
:10221000A8FB02230B44C1171F030AFB01F300FBB9
:102220000B33AAFB00011603194447EA1257020AAE
:1022300042EA016292194FEA2123E6887B4100328B
:10224000A2FB060143F5004306FB03114B1000936C
:10225000CB170193DDE900231343B4F810E0B4F881
:102260000CC06DD00FFA8EF0C1170AFB01F1AAFB6A
:10227000002300FB0B11BDF914600B44F71708FB9A
:1022800007F106FB0911A8FB06670F4479047004E7
:10229000801841EAD6315941039B0FFA8CF8C3F5F7
:1022A000801E7246D317002212184FEACE764FEAEC
:1022B000C3774FEAC8034B4147EA5E07B61A67EB9C
:1022C000030740F63543A6FB030103FB0711DDE9D5
:1022D000002308F0D7FAB4F916204E1302FB06FECD
:1022E000470B47EAC147D31707FB03EEA2FB0723BF
:1022F0005643734407FB0366A2FB07233344560E81
:1023000046EAC3168219B4F914604FEA636741EBD9
:1023100007037143F71700FB0717A6FB00013944B9
:10232000C60C46EA413692194FEAE1474FEA1221BC
:10233000B4F912207B4141EA036113010B4400E030
:1023400000230DB11B0A2B60029B13B11A46049B9C
:10235000136007B0BDE8F08F88170020D408002074
:10236000704770476B4B6C4A2DE9F04F5E89146AD9
:102370004FEA062AB4EB0A0A9C884FF000054FEAA0
:1023800004481C894FF0000BA4FB0A6765EB0B0B9C
:1023900004FB0B77F40944EA476418EB04065C88F5
:1023A0004FF000094FEAE7154FEAC438DC8849EBE3
:1023B000050787B0CDE90467A4FB0A6704FB0B7728
:1023C000340A44EA076418EB04064FEA27259C897F
:1023D0004FF0000949EB0507CDE90067AAFB046748
:1023E00004FB0B77F40D44EA472414F5FA664FEA30
:1023F000E75545F10007B6F5FA6F77F10003CDE92F
:102400000267964666DADDE90489A4FB046704FBEB
:1024100005F34FF0050C07EB4307A6FB0C230CFB61
:1024200007335F104FEA3206B8EB06084FEA920610
:1024300046EA837669EB07099F10DDE90023921BCA
:1024400063EB0703CDE90023DDE90267334A4FF070
:10245000FF33964277EB0303CDE9048927DA40F690
:10246000AC520023A4185D4104FB05F3A4FB044512
:102470006FF0060205EB4305664202FB0566A4FB0E
:102480000223334418EB020649EB0307CDE9046746
:102490000B26A4FB062306FB0533DDE900455B1094
:1024A0004FEA3202A41A65EB0305CDE90045DDE9E8
:1024B00002450AFB0BF3AAFB0AAB0BEB430B4FEAFB
:1024C000DA7242EA4B02A41A4FEAEB7365EB03059A
:1024D000CDE90245DEF82440009B019DA4FB0323C7
:1024E00004FB05334FEA525848EAC3284FEA6359C0
:1024F000DDE90423B8EB020269EB03039946D30B31
:1025000043EA494300B1036009B1029B0B6007B085
:10251000BDE8F08F1C170020D408002024FAFFFF2C
:102520002DE9F041324C334D62892B8DB4F9048092
:102530009A1A2389B4F902E05A43B4F91230D61337
:10254000B4F91420DB02324493FBF2F232440A263F
:10255000E2615643A2F57A6202FB02F3B4F90EC0BF
:1025600002FB0EFE02FB08F2B4F90C801B130CFBFD
:1025700003FC03FB08F31B1403EB62320232E38813
:10258000921002F5004253434CF25032B4F92070DD
:102590004FEAEE2EB4F900400EEBEC2C0CEB840469
:1025A000BC40ED6A0234A5EBA4043A4162434FEA11
:1025B000D3384EBFB2FBF8F35400B4FBF8F340F647
:1025C000DE3448BF5B001A12524362430A4C08369D
:1025D0005C43241404EB224202F6CF62361103EB73
:1025E000221300B1036001B10E60BDE8F08100BFAD
:1025F00030170020D408002043E3FFFF13B50C4B35
:1026000004465B681B20022101AA984770B19DF81F
:1026100004209DF8053043EA022303F54E5310339E
:102620004FF48C7293FBF2F32333238002B010BD7E
:102630000817002037B5104B04465D68187806214E
:102640006A46A847A8B19DF800209DF801300120F6
:1026500043EA022323809DF802209DF8033043EAD9
:10266000022363809DF804209DF8053043EA02238D
:10267000A38003B030BD00BF0817002013B5104B76
:1026800004465B683B2006216A469847A8B19DF83E
:1026900000209DF80130012043EA022323809DF8A9
:1026A00002209DF8033043EA022363809DF8042052
:1026B0009DF8053043EA0223A38002B010BD00BF9D
:1026C00008170020B0F5807F0ED0BB280ED86128F7
:1026D0000ED829280ED813280ED809280ED800287D
:1026E00014BF06200020704700207047012070476B
:1026F0000220704703207047042070470520704770
:1027000010B5224C2368998A89B211F4706F1EBFEC
:102710001F4A012082F8300011F4E06F2BD01A8B91
:102720009A88890522F480624FEA02424FEA1242F7
:102730009A8020D41A8892051DD41A88D0050FD506
:102740001A88D105FCD41A8892B242F400721A8019
:102750001A889205FCD40F4B187804F0E1FF0AE0C8
:102760001A8892B242F400721A809A8822F4407257
:102770001204120C9A802268938A23F470631B045B
:102780001B0C9382024B00221A7510BD601D0020A5
:10279000D4080020641D0020054A08B513880133C1
:1027A0009BB21380034B187804F0BAFF002008BDD9
:1027B000A61E0020641D002008B54FF4804005F0DF
:1027C0007DFD012801BF044B4FF480425A61034B49
:1027D00008BF83F8310008BD00040140D408002080
:1027E00010B5054C2368186905F068FD18B1236819
:1027F0001A69024B5A6110BD1417002000040140F1
:10280000F8B50E461746084C4FF48055656140F008
:10281000800006F0D9FE38460021324606F09EFEC2
:1028200025610120F8BD00BF000C014070B50E46C7
:10283000054C4FF48055656106F0C6FE304606F043
:10284000C3FE2561012070BD000C014070B5FFF78B
:1028500039FF104C0546192005F067FFA3681520C5
:102860000021984710B9022005F07AFF45F01801C1
:10287000A368C9B216209847A3680021172098477B
:10288000A36801213D209847A3683E200121BDE8AF
:102890007040184708170020F0B5284D85B095F80E
:1028A0003230002B47D1264C2368002B43D01A68C6
:1028B000244E12B1B1690A43B2619A889868ADF8A2
:1028C000002002228DF80320694604228DF80220A0
:1028D00004F02BFDB369002743F00103B3612368C3
:1028E0000126187B197D04F00BFD2368164993F926
:1028F000150005F07FFF2368144A1B69536102939A
:1029000008230DEB03008DF80D308DF80C708DF859
:102910000E6005F0A3FC236801A85B7D8DF80670AE
:102920008DF8043003238DF805308DF8076006F02C
:10293000F7FD85F8326005B0F0BD00BFD408002077
:102940001417002000100240E12700080004014095
:1029500037B50446FFF7A0FF254B1A68254B9A426E
:102960000ED14FF40053ADF8043002238DF8073038
:10297000042321480DEB03018DF8063004F0D5FC4B
:102980002046FFF79FFE05461C4C8021A3686B2064
:102990009847642005F0C9FEA3680721682098477E
:1029A000642005F0C2FEA36800216B2098476420D4
:1029B00005F0BBFEA36801216B209847A36818218E
:1029C0001B209847A36810211C209847A36829461C
:1029D0001A209847A368002119209847A36812215C
:1029E00037209847A36801213820984703B030BDAD
:1029F00028000020001BB70000100140081700202D
:102A000008B5FFF749FF024B4FF480521A8008BD0A
:102A10000000002070B50446FFF73EFF2046FFF798
:102A200051FE0546144C8021A3686B209847642012
:102A300005F07BFEA368002119209847A3680321B5
:102A40006B2098470F2005F070FEA36829461A20D6
:102A50009847A36818211B209847A36810211C20C1
:102A60009847A368022137209847A368382001219E
:102A7000BDE87040184700BF0817002008B5FFF7F1
:102A80000BFF074B5B7813B1012B03D008BD4FF44C
:102A9000006201E04FF48052024B1A8008BD00BF73
:102AA000041700200000002010B51E4C4000C0B2EA
:102AB000A36023611C4B6071E17001200021217330
:102AC000607022712075186884F8301040B38388D4
:102AD0009B0515D40388D9050DD447F230530288DD
:102AE000920502D5013BFAD112E08BB103889BB26B
:102AF00043F48073038083889BB243F440738380E4
:102B000047F23053227D12B1013BFBD100E013B9F3
:102B1000BDE8104040E6034B93F8300080F0010020
:102B200010BD00BFD4080020601D002007B5F721AC
:102B30006B4606227620FFF7B7FF9DF800309DF820
:102B400001101B0343EA01139DF80210094A43EAEE
:102B50001113D3619DF803309DF804101B0343EA61
:102B600001139DF8051043EA1113936103B05DF85A
:102B700004FB00BFD408002007B5002101AB0322ED
:102B80007720FFF791FF9DF805309DF804001B02A8
:102B900043EA00439DF80600184303B05DF804FBC8
:102BA00008B5FFF7E9FF014B586208BDD4080020C3
:102BB00008B5FFF7E1FF014B186208BDD4080020FB
:102BC000104B13B51B78104C13B194F83130B3B1DE
:102BD000032201AB7720F621FFF766FF9DF8053051
:102BE0009DF804201B0243EA02439DF8062013438C
:102BF000064AB2F92020C2F10802D340E36202B0D3
:102C000010BD00BF15000020D408002030170020A0
:102C10000B4B13B51B780B4C13B194F8313063B1E7
:102C2000022201AB7720F621FFF73EFF9DF804203A
:102C30009DF8053043EA0223238502B010BD00BF92
:102C400015000020D408002030B505460C46134678
:102C500029462246BDE83040682025E713B5062204
:102C6000044601211C206B46FFF71EFF08B39DF8A8
:102C700001309DF80020042143EA022242F38D0234
:102C800092FBF1F29DF8023022809DF8032042EA87
:102C9000032242F38D0292FBF1F29DF80430628030
:102CA0009DF8052042EA032343F38D0393FBF1F3E0
:102CB000A38002B010BD13B50622044602211820DD
:102CC0006B46FFF7F1FEB8B19DF800309DF801208A
:102CD0009B0803EB022323809DF802309DF803201C
:102CE0009B0803EB022363809DF804309DF80520C8
:102CF0009B0803EB0223A38002B010BD314B2DE9EA
:102D0000F3411B780546002B3CD00024264627467D
:102D1000A04601345320322108226B46E4B2FFF76B
:102D2000C3FE08B900204AE09DF801209DF800305C
:102D3000202C03EB02231BB29DF8032098449DF83E
:102D4000023003EB02231BB21F449DF805209DF8BF
:102D5000043003EB02231BB21E449DF8073003F03E
:102D60007F0301D0002BD4D198FBF4F897FBF4F744
:102D700096FBF4F6144BA5F800806F80AE8083F8C4
:102D800033401CE05320322106226B46FFF78CFEB5
:102D90000028C7D09DF801209DF8003003EB0223E6
:102DA0002B809DF803209DF8023003EB02236B80FB
:102DB0009DF805209DF8043003EB0223AB8002B0A0
:102DC000BDE8F0811A170020D408002013B5204B6D
:102DD000400002ACC0B2587104F8012DD970012234
:102DE00000211A7359701A711A751A4A1C611068F9
:102DF0009C6083F8301040B38288920515D4028815
:102E0000D4050DD447F230520188890502D5013A24
:102E1000FAD112E08AB1028892B242F48072028042
:102E2000828892B242F44072828047F23052197D19
:102E300011B1013AFBD100E012B9FFF7ADFC04E09B
:102E4000034B93F8300080F0010002B010BD00BFCA
:102E5000D4080020601D00207620F4213122B5E73F
:102E6000772048210122B1E7772058210122ADE7E0
:102E7000064B002193F82020054B9201343283F851
:102E800031107720F42102F0FC029FE73017002078
:102E9000D4080020034B002283F831207720F4214E
:102EA0002E2293E7D408002003460A4668201946DC
:102EB0008CE713B500222A211C20FFF787FF0E2183
:102EC00002221C20FFF782FF0F2103221C20FFF7A4
:102ED0007DFF2B2112221C20FFF778FF164A0224C7
:102EE0009369164843F0040393612023ADF804303E
:102EF00004230DEB03018DF806308DF8074004F034
:102F000014FA22462C211C20FFF760FF2D210122FC
:102F10001C20FFF75BFF2E2100221C20FFF756FF2D
:102F20002A2105221C20FFF751FF054B4FF4807228
:102F30001A8002B010BD00BF00100240000801401E
:102F40000000002008B50F2108221820FFF73EFFDF
:102F50000E2218201021FFF739FF024B4FF4805248
:102F60001A8008BD0000002008B5134B53201B78C1
:102F70002D2108227BB1FFF729FF31210A2253209E
:102F8000FFF724FF2C210C225320FFF71FFF5320B3
:102F90003821902209E0FFF719FF31210A2253203E
:102FA000FFF714FF53202C210A22FFF70FFF40F2F6
:102FB0000912024B1A8008BD1A17002000000020D9
:102FC000FEF7C6BFFFF79CBBFEF7C2BFFFF798BB7B
:102FD000026D70B515880446ADB2A90613D5036B12
:102FE0008BB9C36A1BB1908880B298470BE0E16946
:102FF000928840694E1CD2B2E6614254E169E268AF
:10300000914228BFE3612B0613D5636AA26A9A42F4
:10301000236D0AD0511CA069A162825C9A80236949
:10302000994206D30023A36270BDDA6822F08002C1
:10303000DA6070BD026B0346C16810B5406942B1E9
:103040001A6C8C1A013A08BF0A46005D1A64C0B2B5
:1030500010BD1A6A805C01328A4228BF0022C0B2C9
:103060001A6210BD436B13B190F844007047836A35
:10307000406A1B1A584258417047426A816A036984
:103080008A4238BFD218521A416B21B149680A44AA
:10309000591E8A4203D2013B981AC0B270470020E1
:1030A0007047036B13B15B68016C01E0C369016A8F
:1030B0008B423CBFC2689B18581AC0B27047836AE3
:1030C0008169426B1944D160416A994297BF016995
:1030D000CB1ACB1A536096BF0023536083624FF024
:1030E000000380F84430136888BF816243F0010315
:1030F00013607047436A8269D154436A026901339D
:10310000934228BF00234362436B1BB11B68DB075C
:1031100005D4D4E7026DD36843F08003D3607047D1
:103120002DE9F04105460E46078A83899BB21F4070
:10313000002F37D0B7FA87F24FF00043D340DB437C
:1031400099B21F40A2F11B032982042BF0D8DFE8BB
:1031500003F0221F1C190300746A24B1013C0023F0
:10316000A4B2736201E0AC8DA4B2D6F82080B8F1AD
:10317000000FDDD0D8F80030404621469847D8F8F7
:103180000480F4E73068A98E08E07068298F05E0B4
:10319000B068A98F02E0F068B5F84010036889B202
:1031A0009847C5E7BDE8F081417101F029BB816016
:1031B00001F026BB70B50546407907F0FFF81D49C0
:1031C00007F008FA1C4C1D4E2060E87B07F0F6F86B
:1031D000184907F0FFF9E6606060A87907F0EEF89B
:1031E000174907F0F7F92061287C07F0E7F8114943
:1031F00007F0F0F96061A87E07F0E0F8114907F0E8
:10320000E9F9E661A061E87907F0D8F80C4907F020
:10321000E1F92062687C07F0D1F8064907F0DAF995
:103220006062E87E07F0CAF8064907F0D3F9E66263
:10323000A06270BD0000C842D40900200000FA441A
:103240000000204100007A440148024968E700BFBD
:10325000000800403C2100200148024960E700BF0F
:1032600000040040142100204FF08040004957E73F
:10327000EC2000200148024952E700BF002C014029
:10328000C4200020014802494AE700BF002C014049
:10329000C4200020254B10B55A43254B254C1B68F4
:1032A0000139B3FBF2F20388013AA04289B292B22B
:1032B0009BB212D004F50064A0420ED0B0F1804F52
:1032C0000BD0A4F59834A04207D004F58064A04246
:1032D00003D004F58064A04202D123F070039BB2B6
:1032E000154CA04206D004F58064A0421CBF23F414
:1032F00040739BB203800F4B8185984202850FD0AB
:1033000003F5006398420BD003F54063984207D061
:1033100003F58063984203D003F58063984201D19E
:10332000002303860123838210BD00BF40420F00AB
:1033300044000020002C01400010004073B50546F9
:103340000068FFF7A7FF2A680124138800269BB2B4
:1033500043F001031380EB7A01A88DF804308DF857
:1033600005408DF806608DF8074006F0D9F8EB7A35
:103370001B2B0BD1192301A88DF804308DF80540C3
:103380008DF806608DF8074006F0CAF802B070BDEF
:103390000C4B800A98420CD004D8B0F5801F0CD199
:1033A00001207047084B984205D04933984206D017
:1033B00003E00220704703207047FE207047002082
:1033C000704700BF01001000020010002DE9F84313
:1033D00004680746204688469146FFF7D9FF032830
:1033E0004BD8BA7A9108B8F1000F06D1A589AEB2D0
:1033F00002258D4026EA0505A5810A2303FB00135B
:103400001F4A42F82380043342F82390B8F1000F9A
:1034100007D0BD7AA189AD080223AB400B439BB214
:10342000A3812823434303F120011144EFF31286C3
:10343000502585F3128803F10C051C331544134401
:1034400055F8047F17B10F60296804319D42F7D108
:1034500000230B60F3B283F31188282303FB0020C1
:10346000036A23B1A3899BB243F0010304E0A3895B
:1034700023F001031B041B0CA381BDE8F88300BFEC
:10348000C42000200048A3E5040A002000489FE56E
:10349000580A002000489BE5AC0A00200B4B4FF473
:1034A00000525A604FF6FE730948D0F80C2111689B
:1034B0000B401360D0F8FC20D0F800319A4201D0C4
:1034C000D830FCE5012380F81C3170470000024031
:1034D000D40900202DE9F0431D46AC4B8DB0984235
:1034E000884617469DF850605CD1A94BA94AAA4965
:1034F000C3F8D82003F59672C3F8EC2003F50B72DD
:10350000C3F8F0204FF48072C3F8E420C3F8E82039
:10351000A24AC3F8E070C3F80821A2F54842543A21
:10352000C3F82421C3F82021C3F82801C3F80C11E3
:103530009B4B9A6942F480429A615A6942F00102B7
:103540005A6102238DF803304FF40073ADF8003058
:10355000330701D51C230FE0AC0706D5182391488B
:1035600069468DF8023003F0E0FEE8070AD54FF413
:103570008063ADF8003048238A4869468DF80230F0
:1035800003F0D3FE0E238DF804300022012301A89E
:103590008DF805308DF806208DF80730824C05F047
:1035A000BFFFA8E0814B984254D1794B794AC3F8C8
:1035B0008C70C3F884204FF48072C3F89020C3F855
:1035C000942003F54B72C3F8982003F22C42C3F801
:1035D0009C20774AC3F8D400C3F8CC20C3F8D0208D
:1035E0006F4B3107DA6942F40032DA615A6942F00E
:1035F00001025A614FF002038DF803304FF00403CB
:10360000ADF8003001D51C230EE0AA0706D518231B
:10361000644869468DF8023003F087FEEB0709D550
:103620000823ADF8003048235E4869468DF8023023
:1036300003F07BFE26238DF804300022012301A82D
:103640008DF805308DF806208DF80730594C05F0BF
:1036500067FF50E0584B984240F0F9804C4B4D4A80
:103660009F631A6303F22C525A6403F22C629A6429
:103670004FF48072DA631A64504AC3F880009A6784
:10368000DA67474B3407DA6942F48022DA619A69D3
:1036900042F008029A614FF002038DF803304FF4B4
:1036A0008063ADF8003001D51C230FE0A80706D5D4
:1036B0001823434869468DF8023003F036FEE907C7
:1036C0000AD54FF40063ADF8003048233C48694602
:1036D0008DF8023003F029FE27238DF804300022F4
:1036E000012301A88DF805308DF806208DF80730EC
:1036F00005F016FF334C4FF00009012384F84430E5
:10370000C4F82090C4F81C90C4F82890C4F8249001
:10371000C4F82C806571A760A671204601F070F88E
:10372000EA0759D5236B002B4ED001A801F0DAFF30
:10373000E36C206B01934FF480530A93802306932C
:10374000E368CDF82C900493202309936369CDF8A6
:1037500014900293CDF81C90CDF82090CDF80C90E9
:1037600001F0EBFF01A9206B01F0C9FF226B216D75
:10377000136843F0010313608B8A9BB243F040034C
:103780008B8253689BB2236426E000BF003801405F
:10379000D409002060F600084400024058000240AE
:1037A0000010024000080140AC0A00200044004024
:1037B00004440040580A00200048004004480040EB
:1037C000000C0140040A00204FF6DF72236D1A80BE
:1037D000DA6842F02002DA60AB0730D5636B002B69
:1037E00028D001A801F07EFFA36C002501934FF4BF
:1037F00080530A93802306932369606B04931023FC
:1038000003930B95059507950895099501F095FF8C
:10381000606B01A901F073FF636B1A6842F002024A
:103820001A60226D5D605D60938A9BB243F08003F5
:10383000938204E0226DD36843F08003D360226D4D
:10384000204693899BB243F40053938100E000200B
:103850000DB0BDE8F08300BF38B5174803F0DEFBBC
:103860006422B0FBF2F302FB1302144B124C5343DD
:1038700022782146A2F13005092D04F10104F7D97F
:103880002E2A0DD142F2107411F8012F303AD5B220
:10389000092D05D802FB04330A22B4FBF2F4F3E746
:1038A00006220333B3FBF2F36422B0FBF2F0044AC6
:1038B00002FB003038BD00BF00110020A0860100CF
:1038C00040420F0038B5154B1C4614F8015BA5F1BA
:1038D0002D0255425541002D08BF1C46204603F0DD
:1038E0009DFB6423584323461A4613F8011BA1F19C
:1038F0003004092CF8D92E290DD15378303BD9B298
:10390000092908D80A2101FB03009378303BDAB279
:10391000092A98BFC01805B1404238BD00110020E7
:1039200008B5084808F09FFCC0B209280246054BBC
:1039300004DC01302021C0B29954F6E700221A5469
:1039400008BD00BFF621002008B5074808F08BFC31
:10395000C0B21428044B04D8421C20211954D0B200
:10396000F7E700221A5408BDF62100208F4B2428C7
:103970001A6970B502F1010205461A611C4600F091
:103980000A8105D80A280CD00D2840F01F8108E0D4
:103990002A2806D02C2840F019811B7D83F02C03A7
:1039A0002375627D814B0E2A00F2E7800021995435
:1039B0009A7D002A5AD01A78A2F14103052B01D82A
:1039C000373A05E0A2F16103052B94BF573A303A2C
:1039D00063781201A3F141010529D2B201D8373B26
:1039E00005E0A3F16101052994BF573B303B1A4420
:1039F000217DD2B291426D4B32D1DA7D002A00F0A6
:103A0000BC801A8B596A01321A831A6A93F828000B
:103A1000DA61674A116088B1012840F0AC801A6B06
:103A2000D96BDA629A6B5A63624A1160624A196C06
:103A300011609A6C5A641A6DDA649FE0596D5F4A9E
:103A400011601A6BD96BDA625A4A1160196C5A4AC2
:103A500011605B4AB3F8581011801A6EDA658AE07B
:103A6000B3F864200132A3F8642086E093F866205E
:103A7000CAB9013B1946534A11F8010F002800F05A
:103A8000B58012F8016F8642F6D04F4A13F8010F45
:103A9000002800F0AF8012F8011F8142F6D0022307
:103AA00084F8283069E093F82810022965D01B7843
:103AB000002B62D042EA4112013A282A5DD8DFE8A1
:103AC00002F01521282E32454B52565C5C5C5C5C42
:103AD0005C5C5C5C5C5C5C5C5C5C5C5C5C5C5C5C26
:103AE0005C5C151C21282E32383C4000FFF7EAFEB2
:103AF000206304F0EDFD20623FE0A3F14102534258
:103B0000534127E0FFF7A8FEE06304F0E1FD6062A7
:103B100033E0532B31D1E36B5B42E3632DE0FFF7DE
:103B20009BFE206429E0572B27D1236C5B42236442
:103B300023E0FFF7C7FEA0641FE0FFF7C3FE206588
:103B40001BE01A4803F06AFAA06316E0302B94BF1A
:103B500000230123E37510E0144809F085FAC0B290
:103B6000A4F8580009E0FFF7ADFE206605E0FFF776
:103B7000A9FE606501E0012000E0002094F86630B5
:103B8000013384F8663000236375A5F12A035D4292
:103B90005D41A57570BD00200222587583F866004E
:103BA000187583F828209875D87570BD001100200D
:103BB000A0090020940900209C090020A4090020ED
:103BC000AA090020E8040108EE040108637D0B4AFD
:103BD0000D2BA07D9EBF591C5175D554074A18B9AD
:103BE000137D5D40157570BD002070BD012384F804
:103BF0002830C3E784F82800C0E700BF0011002088
:103C0000022803D0431E584258417047054B1B6899
:103C10001B7823B9044B1878C0F38000704700204C
:103C2000704700BF8C0700202C2A0020642928BF81
:103C30006421F8B501FB00F5642495FBF4F4064615
:103C4000E4B20027FBB2A34204D29F2003F0AFFCF2
:103C50000137F7E7B4420BD2142195FBF1F5C4EB21
:103C60008410663DC4EB80002844C0B203F09FFC82
:103C70000134E4B2B44201D29A20F7E7F8BD2DE94D
:103C8000F34104F02BFD914EB36EC31A002BC0F22A
:103C90002B8300F5433303F5A073B3668C4B1F7879
:103CA00096F86C30C7F38007FB1A18BF012386F81B
:103CB0006C704FB1002B00F01783864B5A789A70C6
:103CC00001225A701A702BE0824A2BB1D37843F04C
:103CD0000203D37093785370D47804F0020101F09A
:103CE000FF0339B97B498968411A002903DB04F0D5
:103CF000010300E0012303F00105764915707BB153
:103D0000E2070DD50A7905230132D2B2B2FBF3F3F3
:103D100003EB8303D31A704ADBB20B71D35C4B7095
:103D20006C4CDFF8F88123787BB3E37823F002034F
:103D3000E3706A4B0344AE20A36003F05CFC08B15F
:103D400003F05EFC88F80000002800F0CD82B0206F
:103D500003F051FC402003F04EFC002003F04BFC2C
:103D6000102003F048FC4FF48065013D0020ADB207
:103D700003F018FC002DF8D1284603F0B0FC62785F
:103D8000574B53F8220003F02DFC98F80030002B1D
:103D900000F0AA826378062B00F27F82DFE813F03E
:103DA00007007D021800790057017401D4014D49C4
:103DB0004D4A4E4B4E4805F09BFC012003F08FFC12
:103DC0004B4803F00FFC022003F089FC494899E1BD
:103DD000494D2B689B072BD5DFF84481002298F8CA
:103DE0000030464900934248134605F081FCFFF736
:103DF000ABFD012003F073FC3D4803F0F3FB404BA7
:103E000098F8002018686FF06301047902FB04F34E
:103E10004B43C17802200C1B5443B3FBF4F4E4B2CF
:103E200003F05DFC21461520FFF700FF032400E0AE
:103E300001242B681D0540F13082002213460092B8
:103E400030492B4805F054FCFFF77EFD204603F077
:103E500046FC274803F0C6FB294B1B68988906F0EF
:103E6000B1FA0546601C03F03AFC2846264906F0E4
:103E7000FDFA294606F0AEFB06F0BEFC01466428BA
:103E8000A8BF642121EAE1711520C9B2FFF7CEFE77
:103E900003E201201D4D03F022FC1D4803F0A2FBAC
:103EA0002B6898073ED500230093019319491A4ABD
:103EB0000F4805F01DFCFFF747FD022003F00FFC43
:103EC0000B4803F08FFB03242DE000BF00110020FE
:103ED0002C2A002004030020E4040108404B4C007D
:103EE0007CF60008F5040108FE0401080405010839
:103EF000F62100200C050108301F002011050108E3
:103F0000CC080020290501080000C842A4170020A1
:103F10003E0501085405010863050108FE02002062
:103F20004100002002242B68D9071AD5774A784827
:103F3000B2F90030B2F90210B2F9042000910192F6
:103F40007449754A05F0D4FB04F10108FFF7FCFC45
:103F5000204603F0C4FB5FFA88F86D4803F042FB8B
:103F600044462B681A0718D56C4A6948B2F9021002
:103F7000B2F900300091B2F9042066490192684A12
:103F800005F0B6FB651CFFF7DFFC204603F0A7FB3E
:103F9000EDB25F4803F026FB2C460023009301930B
:103FA000604A5C495A4805F0A3FBFFF7CDFC204668
:103FB00003F095FB564803F015FB5549002001F02E
:103FC000FDFC534808F04FF904F101085FFA88F846
:103FD000C1B209294E4D08D84B1CDBB220226A54CD
:103FE0001D4400226A701946F3E72944002001F0BD
:103FF000E5FCFFF7A9FC404603F071FB284603F0FF
:10400000F1FA2946002001F0D9FC284608F02BF9E6
:104010000234E4B25FFA80F8B8F1090F0AD808F167
:104020000103DBB2202205F808200021EA185170B4
:104030009846F1E73C4BB3F9000006F0C3F905EBF5
:10404000080101F0BBFCFFF77FFC204657E000248D
:10405000364D2B78A34240F220810E2C00F01D81BA
:104060006008013003F03BFB204605F01BFB2B787A
:10407000A34206D9202003F09AFA601CC0B205F0D2
:1040800011FB0234E4B2E3E7294C2A4994F8B4273F
:104090001F4805F02DFB012003F021FB1C4803F015
:1040A000A1FA254B25491D7819482A4605F020FB21
:1040B000022003F014FB164803F094FA0C2303FBD0
:1040C00005441F4994F8B72794F8B637104805F00F
:1040D0000FFBFFF739FC032003F001FB0C4803F052
:1040E00081FA94F8BC1794F8BA2794F8BB370848BB
:1040F0000091144905F0FCFAFFF726FC042003F0B8
:10410000EEFA034803F06EFAC7E000BFC2210020B8
:10411000F621002054050108670501084009002028
:104120006B0901086B050108180300200C2A002008
:104130000C2200206F050108DC1E00207B05010811
:104140008C0501089D050108694B1B681B0640F1A1
:10415000A080336F674A43B10023136792F874302D
:10416000013303F0030382F874300121002003F0CF
:10417000C2FA96F87430604A1024D05C03F017FA43
:104180000220012103F0B7FAA02003F010FA013C4D
:10419000FAD15A4B22461B78594913F0020F14BF2B
:1041A00059234E23574805F0A3FAFFF7CDFB022011
:1041B00003F095FA534803F015FA23462246524974
:1041C000504805F095FAFFF7BFFB032003F087FA8C
:1041D0004C4803F007FA22464C494A4805F088FA51
:1041E000FFF79EFB042003F07AFA464803F0FAF941
:1041F00022464749434805F07BFAFFF791FB04212B
:104200000A2003F078FA3F4803F0ECF922464149CE
:104210003C4805F06DFA404CFFF782FB052003F0A7
:104220005EFA384803F0DEF96268A3683B49354816
:1042300005F05EFAFFF774FB05210A2003F05BFA34
:10424000304803F0CFF92369E2683549D21A2D4886
:1042500005F04EFAFFF764FB062003F040FA294808
:1042600003F0C0F9A2682F49264805F041FAFFF78C
:1042700057FB06210A2003F03EFA224803F0B2F968
:10428000294915221F4808F019F8FFF749FB0720B4
:1042900035E7E37843F00203E3702FBB234B0021A3
:1042A00093F820301220052B97BF214A3F249B18FA
:1042B0001C7F03F020FA204603F079F90021132037
:1042C00003F019FA212003F072F91420002103F001
:1042D00012FA96F87540084B185D013404F0030497
:1042E00003F065F986F8754002B0BDE8F08100BFC3
:1042F000301F002000110020AF050108041E00201F
:10430000B4050108F6210020C5050108D205010801
:10431000DA050108E105010888030020E805010825
:10432000F1050108F8050108A8030020B81E0020C7
:104330007CF600081049002370B518460C68194631
:104340000E4A82F8763082F8773025186D880DB9DC
:10435000265C5EB12D0548BF013100F1040003F178
:10436000010348BFC9B28028DBB2EED182F87630B3
:1043700082F8771070BD00BFD80300200011002024
:1043800010B50C4B93F8781093F87920480801F099
:104390000101014483F87B10510802F00102441E20
:1043A0000A44481E83F87A4083F87C0083F87D2015
:1043B00010BD00BF001100200023F0B518461C46B8
:1043C0000D4A0E4992F876600F6882F87930C1B2D2
:1043D000B1420CD217F8201001300D099D4201F0B6
:1043E0000F01A8BF6B1CA142A8BF4C1CEFE782F8CD
:1043F000793082F87840F0BD00110020D803002009
:10440000426A806A131A5842584170474171704796
:1044100043799B070AD5436A8269D154436A01698B
:104420000133B3FBF1F201FB12334362704742796F
:1044300002F0020202F0FF0342B10369426A806A9D
:10444000013BDBB2101A23EA0000704718467047A0
:10445000437913F001031FBFC36803F1FF32C3693F
:10446000006A1DBF181A1040C0B218467047437941
:1044700010B513F0010304460DD0FFF7E9FF58B162
:10448000236A6269E168D05C0133B3FBF1F201FB9E
:104490001233236210BD184610BD90F83B3210B5A0
:1044A0007BB990F83A3290F83942A34209D2B0F879
:1044B000401201229A400A430133A0F84022DBB2A5
:1044C000F3E710BD8379DB0748BFB1FA81F1D0F87B
:1044D000343148BF49095A681B8909B113617047D3
:1044E0005361704710F80A3C0133DBB20A2B84BFDA
:1044F00010F8131C044A00F80A3C82BF002322F87B
:10450000113000F80A3C7047EC1D0020334A70B5AA
:10451000136C9068194440F68C23081A98429160F5
:10452000D060516013463BD9127893F9451010467C
:104530008A420BD1111F082908D893F84610182970
:1045400001D8013103E083F8442002E0002183F820
:10455000461093F944402149A24219D191F84740AD
:10456000B4B10C310024944206DA51F8046F1C4DAA
:1045700025F814600134F6E70C2805D0184900240A
:1045800021F810400130F7E7164801780131017039
:1045900083F84520002201211A7083F8471070BD6E
:1045A00092F84710C9B140F2DA51A0F2EF248C42E0
:1045B00008D811780B2905D80B1D0131117042F86C
:1045C000230070BD002283F84720074B03F130021F
:1045D000002143F8041F9342FAD170BD9C010020D2
:1045E000EC1D002080110020A8010020024A136C5D
:1045F00001331944116470479C010020024B53F8A9
:1046000020301B68198070478C1F0020074BA1F5D4
:104610007A7153F820301A681B8959434FF47A7322
:1046200091FBF3F189B21180704700BF8C1F00200D
:104630001FB50123ADF80830ADF80410002301A91F
:10464000ADF80A30ADF80C30ADF8062003F0F3FCFD
:1046500005B05DF804FB38B5A0F513746379A5794E
:10466000DB0745D594F8383205F00105F3B1226B2C
:104670001068838DC3F34E03838494F83C3223B1D6
:10468000B4F842320133A4F84232917A6A00FFF75B
:10469000CFFF012384F83B32002384F8393284F8B9
:1046A0003A3284F83832A4F8403238BD94F83B32BC
:1046B0002046012B04BF94F8393284F83A32FFF7D0
:1046C000ECFE94F83B22236B3AB9012284F83B229A
:1046D0001868997A05FA02F207E0002284F83B2272
:1046E00095421868997A08BF0222BDE838409FE7D2
:1046F00038BD10B5A0F5127494F83C22BAB9A36A7B
:10470000616A994228D0591CA069A162C35C2069E2
:10471000DBB25B0043F400738142A4F83E324FF0F9
:104720000A0384F83D3228BFA262012312E094F903
:104730003D327BB1B4F83E1220464B08A4F83E321D
:1047400001F00101FFF7BEFE94F83D32013B84F811
:104750003D3201E084F83C3294F83832002B4ED1DF
:1047600094F839320133DBB2092B84F8393203D1A2
:104770002046BDE8104090E60A2B40D194F83B3229
:104780002BB9B4F8403243F00103A4F84032637906
:10479000D9071CD5B4F84002820501D4C30705D45B
:1047A000B4F844320133A4F8443210E0E36AC0F3B1
:1047B00047000BB198470AE0E3696269D054E369A6
:1047C000E1680133B3FBF1F201FB1233E361012233
:1047D00084F8382294F83B220023012A84F83932E5
:1047E0000DD1A27984F83B32236B12F0010F1868C7
:1047F000997A0CBF02220022BDE8104018E710BDD4
:10480000F0B5046D8279A389467923F4005312F040
:10481000020F4FEA03434FEA13430CBF00214FF44A
:10482000005112F0040FA38114BF4FF4806E4FF0BB
:10483000000E16F0010F8768054614BF0420002003
:10484000B307238A48BF40F008029BB223F44053C9
:1048500043EA01032382A18948BF90B289B221F4BF
:10486000B05121F00C014EEA010140EA0102A2819F
:10487000A38A87B023F440731B041B0CA38201A8F6
:1048800003F078FB039B049E254A944218BF1E4602
:10489000A389192272431BB2002BB4BF7E00BE0055
:1048A000B2FBF6F66427B6FBF7F00001010907FB3F
:1048B0001163A28912B2002AB7BFD9001A0132319E
:1048C000B1FBF7F2A7BF3232B2FBF7F302F00702F7
:1048D0001043A8BF03F00F03AA79A8BF184380B202
:1048E00012F0010F20812B6D06D00E498B4202BFC2
:1048F000042001F54841086112F0080F9A8A0BBFA5
:1049000022F0080292B2120442F0080208BF120C10
:104910009A829A8992B242F400529A8107B0F0BD0D
:1049200000380140004400402DE9F04F1E464FF48E
:1049300014734343544D85B02C1D80469146E718AF
:10494000A24610B92B44514A03E0012805D1504A30
:104950002B445A631032C3F838214FF4147303FB0D
:1049600008F34C48EC180AEB030203F59C7334324D
:10497000534460602163A261E36100224FF48071BF
:104980004FF0010BD4F838310320216162622262BA
:104990006161E262A26284F8402284F83CB284F849
:1049A0003D22A4F84622A4F84822C4F80C90607274
:1049B000A67284F84A8258681B8904F59A724FF0EF
:1049C000020CADF80C3003A9102301928DF80E30C3
:1049D0008DF80FC0CDF800C002F0A7FC636BDDF8C6
:1049E00000C0597B58681B898DF80E1003A9ADF8DB
:1049F0000C308DF80FC002F098FC59463846FFF78E
:104A000061FD322003F091FE234B019A1B68D2F81E
:104A100004B01A46B2FBF9F1B1F5803F03D3012A85
:104A2000F8D95208F6E71D4A4FF41474B3FBF2F2BA
:104A300004FB08F8584689B2D2B2FEF77FFC05EBBA
:104A40000809174B08F512780AEB08040022C9F888
:104A50004C3258462146FEF7B9FCD9F8345016F0CE
:104A6000010F0CBF022200222868A97AFFF7E0FD9F
:104A70000C4B2846C9F85032211D0022FEF7A6FC37
:104A8000384605B0BDE8F08F80110020CC01010848
:104A9000EC010108A0F600084400002040420F008D
:104AA000F34600085746000803460A4690F84602B7
:104AB000D96A9B7938E71FB50123ADF80830002388
:104AC000ADF80C30ADF80A30084BADF804101B7887
:104AD00001A9012B08BF0323ADF8062008BFADF8DC
:104AE0000C3003F0A8FA05B05DF804FB9801002033
:104AF00038B510F80E2C044650F8043C52B9012287
:104B000000F80E2C20F80C1C997A18680222BDE8D7
:104B10003840D0E730F80C2C20F80A1C891A89B2EA
:104B200020F8081C074A10F80F0C002522F8101076
:104B300004F80E5C1868997A2A46FFF7BCFF04F85F
:104B4000065C38BDEC1D0020044B53F820301BB12F
:104B500007289CBF1B681980704700BFC402002053
:104B60002DE9F7438E460546DFF8A092114699F8E5
:104B7000A4440068164698467246631C89F8A4341B
:104B8000FEF788FB2B8901A9ADF8043018238DF8B6
:104B90000630686802238DF8073002F0C6FBAB7A56
:104BA00009F59567240127442A6849460C2B00F231
:104BB000F680DFE813F00D00F400F400F40051007B
:104BC000F400F400F4008A00F400F400F400C200E1
:104BD000138CDFF83CC223F001031B041B0C13846D
:104BE000138CB2F804E0108B624520F073004FEA9A
:104BF00000404FEA10409BB21FFA8EFE40F070005A
:104C000014D00CF5006C624510D00CF5406C624578
:104C10000CD00CF5806C624508D00CF5806C6245B8
:104C200004D023F0020343F0030307E023F00E0354
:104C30002EF4407E43F003034EF4807EA2F804E09D
:104C40001083A2F834801384138B23F008031B0411
:104C50001B0C43F0080336E0138CDFF8B4C123F0DB
:104C600010031B041B0C1384138CB2F804E0108B8C
:104C7000624520F4E6404FEA00404FEA10409BB204
:104C80001FFA8EFE40F4E04008D00CF5006C62453F
:104C900004D023F0200343F0300307E023F0E003C7
:104CA0002EF4406E43F030034EF4806EA2F804E020
:104CB0001083A2F838801384138B23F400631B0441
:104CC0001B0C43F40063138369E0138CDFF840C1CD
:104CD00023F480731B041B0C1384138CB2F804E0C0
:104CE000908B624520F073004FEA00404FEA10407D
:104CF0009BB21FFA8EFE40F0700008D00CF5006CDD
:104D0000624504D023F4007343F4407307E023F4B6
:104D100060632EF4405E43F440734EF4805EA2F86C
:104D200004E09083A2F83C801384938B23F0080363
:104D30001B041B0C43F0080330E0138CDFF8D0C0D9
:104D400023F480531B041B0C1384108CB2F804E072
:104D5000938B20F4005023F4E6431B0400041B0C47
:104D6000000C62451FFA8EFE43F4E04340F44050CD
:104D700003D00CF5006C624503D12EF4804E4EF446
:104D8000804EA2F804E09383A2F840801084938BB5
:104D900023F400631B041B0C43F4006393832B7BFD
:104DA00043B1B2F844306FEA43436FEA53439BB2D6
:104DB000A2F8443013889BB243F001031380AB7A0E
:104DC0000C2B19D8DFE803F0071818180B1818185F
:104DD0000F18181813000B1902F134000AE00B1910
:104DE00002F1380006E00B1902F13C0002E00B1959
:104DF00002F14000C3F8A80438460C44A4F8B0649B
:104E0000C4F8AC2403B0BDE8F08300BF80110020DB
:104E1000002C014002F05CB902F05AB902F058B916
:104E20002DE9F04F83468DB00E46904600210C22AE
:104E3000A3481D46BDF958A007F0B9F9002110227A
:104E4000A04807F0B4F9A04AA04B1178914603F1AD
:104E50001802012988BF1346994C002739460C22B5
:104E60002777677704F12000009307F0A0F9009BF3
:104E70002320E36203F059FC752001210DF10F029C
:104E8000FDF7E2FEA0B1924B38466362914B0121DF
:104E9000A36204AA432384F82030FDF7D5FE9DF8D1
:104EA000103003F07E038DF81030002844D14BE021
:104EB00094F830306BBB884A884F9369384643F08A
:104EC00008039361102303228DF81A3006A94FF4CA
:104ED0008053ADF8183000938DF81B2002F025FAAE
:104EE000009B7F4A3B61138823F040031B041B0C8B
:104EF0001380138823F038031B041B0C43F00803B2
:104F0000138013889BB243F040031380012384F87D
:104F100030307520012106AAFDF772FC9DF818308B
:104F2000702B51D105232377432384F820306D4B18
:104F300063626D4BA36247E0682B05D101232377A1
:104F40001D2384F820303FE09DF80F3003F07E03EE
:104F5000682B8DF80F3033D10223062023770146CA
:104F6000636A06AA98479DF81D1001F001029DF89A
:104F70001B1001F001014B0043EA82019DF819204A
:104F800002F001030B4309D05BB2012B01D10023D6
:104F900002E0022B0DD10123637715E0484B0C2072
:104FA0005B6A012105AA98479DF8143013F00F039E
:104FB00003D1032003F0D4FB06E0042BEBD1E6E79A
:104FC000702B04BF04232377227F0020022A3C4B4E
:104FD00084F8310009D14549D960454919614549ED
:104FE0009961012183F831101BE0012A0BD142495C
:104FF00083F83120D9603E49042219613F49596143
:105000003C4999610DE0043A012A00F23C833C4A94
:10501000DA60374A1A61374A9A61012283F83120EF
:105020000722D4F8BC30374943F001030A70C4F8B2
:10503000BC300091344F00233B70082E00F2AF804B
:10504000DFE806F00AAD0A2B6C8A2B9F9F00012E29
:1050500040F2B18000263E7099F80030012B1CD838
:105060004FF0000C0CAB03F818CD53206146012221
:10507000CDF804C0FDF718FD78B19DF81830DDF8C3
:1050800004C0E52B09D1214B84F832C02360204BAA
:10509000636004233B70022385E0227F084B022AD1
:1050A0003CD11C4A1A601C4A5A605B7F002B0CBF23
:1050B0006F236E23237201233B70032373E000BF31
:1050C000E8160020F41600202E2A0020BCF6000866
:1050D000492C0008A92E000800100240000C0140D5
:1050E00000380040012800082D280008152A000873
:1050F0003526000890C1793D4D280008FD2500089F
:1051000051290008380000202D2A0020692F0008AE
:10511000FD2C00087D2A00087D26000899F8003043
:10512000012B19D800220CAB03F8182D1C200D21DF
:105130000122FDF7B9FC78B19DF818302A2B01D077
:105140001A2B09D1C74A84F833302260C64A022399
:105150003B706260042326E000210CAB03F8181DAD
:1051600018200122FDF7A0FC58B19DF81830FB2B48
:1051700007D1BE4B2360BE4B636001233B70052308
:1051800011E0237FBB4A043B012B3FF660AFBA4BD3
:105190001360BA4B536001233B70082303E0012ED8
:1051A00009D9002646E7009A5370D4F8BC3043F082
:1051B0000203C4F8BC3099F80030012B05D104F08B
:1051C00029FAAF4B4FF400525A61042D00F2BD8111
:1051D000DFE815F00500C6016400050086010A201D
:1051E00003F0A3FA7720A021012205ABFDF75CFCB8
:1051F000002853D01E2101227720FDF7E7FD4FF450
:105200002F6003F087FA0026A6F160010025C9B2DD
:10521000022206AB77208DF818508DF81950FDF753
:1052200043FC9DF819309DF8182043EA0222914B67
:1052300003F1340172520236102EE5D1B3F8421058
:105240002A4601F00F0601F47F41A3F842102B46D5
:10525000012722F001002044808E002818BF00277B
:10526000D50703D5C0B24340082002E083EA1023EB
:10527000FAE71D0448BF83F4C05301384FEA4303E3
:10528000F7D10132102AE4D131437A4AA4F842100E
:1052900027B9C3F303339E4200F0D58194F84450FC
:1052A000002D40F0E981764E04F0B4F928244FF443
:1052B0008047304605A9ADF814708DF8164002F00D
:1052C00034F84FF40053336120466E4903F092FAEC
:1052D0000E21022002F014F80823069706A80127E1
:1052E0008DF81D308DF81C508DF81E7002F0B6FF41
:1052F0004FF0030C04A88DF811C0CDF800C08DF854
:1053000010408DF812508DF8137004F009F9142034
:1053100003F00BFAD02177203A4605ABFDF7C4FB2A
:10532000544C3146002800F0BB809DF81430DDF865
:1053300000C0552B84F85F30A4F868C040F0B080FE
:10534000D1213A4605AB7720FDF7AEFB9DF814302E
:10535000772003F00F021B0984F8602084F8613085
:10536000162206ABAA21FDF79FFB9DF818209DF899
:10537000193043EA0223A4F848309DF81A209DF81A
:105380001B3043EA0223A4F84A309DF81C209DF804
:105390001D3043EA0223A4F84C309DF81E209DF8EE
:1053A0001F3043EA0223A4F84E309DF820209DF8D8
:1053B000213043EA0223A4F850309DF822209DF8C2
:1053C000233043EA0223A4F852309DF824209DF8AC
:1053D000253043EA0223A4F854309DF826209DF896
:1053E000273043EA0223A4F856309DF828209DF880
:1053F000293043EA0223A4F858309DF82A209DF86A
:105400002B3043EA0223A4F85A309DF82C209DF853
:105410002D3043EA0223A4F85C3041F27073A4F803
:105420006C3046F67813A4F86E30174B2367174B91
:105430006367174BA367174BE367174BC4F88030BC
:1054400094F8443043B9FDF725FD42F6E06003F0DF
:1054500061F9B568C5F38035104B1D70012384F8E0
:10546000443009E1B32E00085D2C0008452F0008E8
:10547000B72C0008E8160020012A00087D26000845
:1054800000100140B9270008952E0008112C0008D3
:10549000712E0008C12B00082125000815000020EE
:1054A0007A4A136823F48043136000237848DA00B3
:1054B00000F18404A5186E68764DAE420AD114F945
:1054C0003340282C06D183180022C3F8882083F8A3
:1054D000842002E00133032BE8D14FF400534B61E9
:1054E0006B4C94F89C50002D40F0C080142003F0C9
:1054F0001CF904F19D037620D0210122FDF7D4FA96
:1055000094F89D30582B2BD104F1A0038821182248
:105510007620FDF7C9FA7620F4213122FDF756FCFA
:10552000012384F89C305C4BA4F86C5063675B4BA0
:10553000236745F6D813A4F86E30594BA367594B2F
:10554000E367594BC4F8803090E0012D08D0574BE9
:105550004F4A9D70D2F8BC3043F00403C2F8BC300F
:105560004B4CD4F8BC309A0701D523689847E368C0
:10557000584698474E4B99F8009003F11802B9F13C
:10558000010F94BF9946914645464A4F00233B7010
:105590000DB1022D6CD100260CAB03F8186D1E2046
:1055A0000A210122DFF8E880C4F8C090FDF77CFAF8
:1055B000A8B19DF81830482B60D13F4B0222C8F8A3
:1055C000C4303E4BC8F8C83003233B70374BDA7009
:1055D000D4F8BC3043F00803C4F8BC3001E0064600
:1055E0004CE0374B93F854210AB184F8312093F8FA
:1055F00055210AB133490A7093F8563103B13B7013
:10560000D4F8BC30224D1B0718D564269AFBF6F45B
:10561000204604F0D7FE074606FB14A000B204F0B3
:10562000D1FE294904F022FF0146384604F016FE57
:10563000264904F01BFFC5F8CC0002E00023C5F8A2
:10564000CC3001201FE042F21073A2F86C30A2F8B7
:105650006E301F4B032513671E4B53671E4B93671A
:105660001E4BD3671E4BC2F8803070E704256EE7EF
:10567000012DB6D91D4688E7022568E7012DB0D96E
:1056800000253E7087E70DB0BDE8F08F00040140B3
:10569000E8160020B92700086123000863230008EA
:1056A000592E00082D2B0008A121000838000020E9
:1056B000ECF600082F2A00208F73000839700008CC
:1056C0000C2200202D2A00208988883C00002041DF
:1056D000692E0008B12B0008612E0008A12B0008DC
:1056E000652300080023036043608360C360036197
:1056F00043618361C36103624362836270478A6866
:1057000010B50C6A036814430A6923F4FF43144379
:105710004A6923F0700314438A691443CA69144325
:105720004A6A14438A6A224313430360CB68436086
:105730000B6883604B68C36010BD4FF6FE73026850
:10574000134003600023036043608360C360294B00
:10575000984201D1284A27E0284B984201D1264A95
:105760002AE0274B984201D1234A2DE0254B98424D
:1057700001D1214A30E0244B984201D11E4A33E046
:10578000224B984204D11C4A536843F470032EE024
:105790001F4B984204D1184A536843F0706326E0C7
:1057A0001C4B984204D11C4A536843F00F031EE07F
:1057B0001A4B984204D1184A536843F0F00316E09C
:1057C000174B984204D1144A536843F470630EE0B7
:1057D000144B984204D1104A536843F4704306E0D6
:1057E000114B984204D10C4A536843F47023536020
:1057F000704700BF08000240000002401C00024049
:105800003000024044000240580002406C00024058
:105810008000024008040240000402401C040240D0
:1058200030040240440402405804024070B5064669
:10583000B6FBF2F40846154614B12046FFF7F6FF12
:1058400005FB1464024B1B5D00F8013B70BD00BFFB
:1058500038060108F0B50124B0FBF4F58D4201D300
:105860004C43F9E70026D4B1B0FBF4F504FB150076
:10587000B4FBF1F41EB9002D01DC002CF3D1092D8D
:1058800003F1010EEFB204DD002A14BF37255725BE
:1058900000E030253D441D7001367346E3E71C707F
:1058A000F0BDF0B50124B0FBF4F58D4201D34C43BB
:1058B000F9E70026D4B1B0FBF4F504FB1500B4FB06
:1058C000F1F41EB9002D01DC002CF3D1092D03F1F8
:1058D000010EEFB204DD002A14BF3725572500E082
:1058E00030253D441D7001367346E3E71C70F0BD62
:1058F00003685A1C0260197070472DE9F843089E2E
:10590000002B074688461446334614BF4FF0300933
:105910004FF0200913F8012B0AB9254603E0002CAB
:10592000FBDD013CF6E7002D04DD38464946C04763
:10593000013DF8E7354624EAE474A01B284415F835
:10594000011B11B13846C047F7E7BDE8F883024BA9
:10595000186802F067BF00BF24090020F8B50746A9
:105960000C464868002115461E4604F013FF58B146
:10597000284604F027FD104904F078FD01464FF059
:105980007E5004F027FE60606168304604F066FCDB
:105990000146304604F01EFE256806462946384674
:1059A00004F05AFC0146304604F060FD01462846EA
:1059B00004F054FC2060F8BDDB0FC94030B505464B
:1059C00087B00C4603A800210C2206F0F0FB284605
:1059D000002104F007FF20B128462A4904F03EFCCC
:1059E00003E02846274904F037FC274904F03EFD30
:1059F00004F002FF054680EAE07069460A22A0EB47
:105A0000E570FFF713FF00239D420370ACBF202316
:105A10002D2368468DF80C3006F025FC012807D1AF
:105A200030238DF80D308DF80E308DF80F300CE0EE
:105A3000022805D130238DF80D308DF80E3004E0AA
:105A4000032804BF30238DF80D30694603A806F003
:105A5000EDFB03A806F007FC0338C5B22A4603A9EC
:105A6000204606F02BFC002363552046074906F02C
:105A7000DDFB03AB2046591906F0D8FB204607B0E2
:105A800030BD00BF6F12033A00007A445D06010882
:105A90002DE9F04F81468A4616461C4689B00025FE
:105AA0003178002900F0DB80252902D001364846F4
:105AB00074E072784FF00008302A0CBFB278B71C3F
:105AC000A2F1300312BF4FF0000BF71C4FF0010B97
:105AD000092B19D8A2F13003D9B2092905D80A2215
