:020000040800F2
:100000000050002055AD0008F5AD000879970008B4
:10001000F5AD0008F5AD0008F5AD000800000000E2
:10002000000000000000000000000000F5AD000826
:10003000F5AD000800000000F5AD0008136A0008E7
:10004000F5AD0008F5AD0008F5AD0008F5AD000808
:10005000F5AD0008F5AD0008C1550008BF55000812
:10006000F5AD0008216A0008F5AD0008F5AD0008FF
:10007000F5AD0008F5AD0008FD810008F5AD0008FC
:10008000C3550008F5AD0008F5AD0008F5AD000852
:10009000F5AD0008F5AD0008F5AD0008BD55000848
:1000A000F5AD0008C97F0008F5AD0008D97F00084C
:1000B000B97F0008A97F0008997F00088D2E0008ED
:1000C000912E0008852E0008892E0008F5AD000845
:1000D000F5AD0008F1810008E5810008D98100082C
:1000E000256A0008F5AD0008F5AD00080000000025
:1000F0000000000000000000000000000000000000
:0C01000000000000000000005FF808F1A3
:100110002DE9F04F774B784D9DB0C5F8983000230E
:10012000C5F89C3007F072FB18B907F04DFC08F0D9
:1001300049FB08F065FC714A714C1378714E43F02D
:100140000103137000230A930B930C934FF4E013F5
:100150000D932368B07B43F480332360A36943F09D
:100160001003A361236803F400330B930A9B01334C
:100170000A930B9B1BB90A9BB3F5A06FF2D12368BE
:100180005F4913F4003301D0022315E00A6842F0FE
:1001900001020A600A93236803F002030B930A9B8F
:1001A00001330A930B9B1BB90A9BB3F5A06FF2D1E5
:1001B00023689B0739D501230C93534B53491A6885
:1001C00042F010021A601A6822F003021A601A68DC
:1001D00042F002021A606368636063686360636888
:1001E00043F4806363604A4B1A68043B22F0704218
:1001F0005A60484A0A60626822F47C1262605A6857
:1002000042F000425A60DA6822F40042DA609B68E9
:100210001F0449BF404B4FF4E0130B604FF48013B1
:100220000D930C9B012B01D117E0FEE7022B18D197
:1002300068B10D9BB3F5801F02D14FF4A01305E008
:100240000D9BB3F5E01F02D14FF400130D930D9AEF
:100250006368134343F4803302E0636843F460133C
:100260006360236843F0807323602268244B92010B
:10027000FBD55A6822F003025A605A6842F0020223
:100280005A6063681E4803F00C03082BF9D14368D9
:10029000224A03F00C03042B03D0082B03D01D4B80
:1002A00012E00B6810E043684768C3F38343FF0321
:1002B00003F1020301D41A4805E0406810F4003F3E
:1002C000086818BF40084343136063681548C3F3C8
:1002D00003130344187E1368C3401360F37B0D4A75
:1002E000003318BF012385F8A0300B6893421BD15F
:1002F00001221DE009850008B80000200426002026
:1003000000100240A8090020002002403400002014
:100310000410014000127A00001BB70044000020C6
:1003200000093D009CC50008974A934202D1022271
:10033000964B1A70DFF8ACB2954B0DF1700ACBF802
:100340000C30A369DFF8A09243F00103A361636A54
:10035000904FC5F8A430636A4FF0000843F08073F3
:100360006362A369484643F01C03A3614FF6FF7321
:100370002AF82C3D51468DF8468005F02CFA384677
:10038000514605F028FA8448514605F024FA4FF00A
:1003900010038DF83E3002231CA98DF83F304FF436
:1003A000007321F8343D4846C9F8103005F013FABF
:1003B0007A4A5046536843F00073536006F08CFF4E
:1003C000774A119B4146B3FBF2F3764A76481360B5
:1003D00018220BF0DAFA754B4FF47A721B68DFF8CB
:1003E000D8C1B3FBF2F3724A013B5360F0238BF8A0
:1003F00023300723C2F808801360B368DFF8ECB13C
:10040000DFF8EC81CBF8003098E80F008AE80F00A5
:10041000A369CDF80CC043F00803A361A369119848
:1004200043F00803A36108233B6110233B6112A939
:1004300005F0D1F9139814A905F0CDF9DBF80030D7
:10044000CDF8109013F0080FDDF80CC017D09CF811
:100450008E31012B13D8574B9CF88F21D3F8A43041
:1004600013F0805300F0CD8509E0534B002283F850
:100470008F2108F0A7F908F0C3FA03F0B9FE642051
:1004800006F0BDFAA0224D4800210BF07EFAE36988
:10049000002243F00703E361A36943F4006343F0E0
:1004A0000C03A361434B002703F1A8015754013209
:1004B0000E2AF7D1FF2283F8B62083F8B72083F8FD
:1004C000B82083F8B9203E4B3E4A39461A603E4870
:1004D0003C22DBF800400BF058FA3946C4F3801890
:1004E00005233A4A384F885C0C224A43D055B8F16C
:1004F000000F07D11E3801289FBFFF2003F1FF33F3
:10050000D055DBB201310529EBD1314A31491370A5
:10051000314B96F805B0C5F8BC30C0330B602F4B9B
:10052000244A03EBCB035B78A10648BF0123C2F842
:10053000C03085F8BAB0002340F2DC52284820F8D9
:1005400013200133082BF7D1103000211C220BF0AF
:100550001CFA14F40073DFF89C9004F400674BD08D
:10056000A20408D457B196F8821109F10C020129AE
:1005700008BF4A4604E0CDF80C9002E009F10C02F5
:100580000392C5F8ECA038E0001BB700132600204A
:100590000005FA05000C0140001001400000014078
:1005A00040420F007020002018130020440000205B
:1005B00010E000E0B8000020A809002094200020EE
:1005C000A8130020980B00206013002033DA0008E5
:1005D0006C200020C0210020B809002068D8000845
:1005E0007C01002000ED00E000080140C81100205F
:1005F000C4C500089CC500080393BBF10E0F04D0CE
:100600000BF0EF0BBBF1080F02D1012285F8E620B9
:100610000120059306F08AF9C4F3400285F8DA2038
:10062000C4F3403285F8D420C4F3C03285F8D90031
:1006300085F8DC8085F8D720059B3FB196F882715C
:1006400007F1FF3EDEF1000747EB0E07003318BF4E
:10065000012385F8DE30D5F8C030B6F84401003308
:1006600018BF012385F8DF30C4F3005385F8E0306C
:10067000B6F84631C4F30042A5F8E430B6F852317A
:1006800004F0010185F8DD20A5F8E230C4F3C002D2
:10069000C4F38043E404A5F8EA0048BFB74885F8EE
:1006A000DB3048BFB0F84C41B6F8503148BFB448D1
:1006B000A5F8E83048BFA0F8EA40B3F5FA7F84BF58
:1006C0000023A5F8EA3096F8D231AE4885F8F0302C
:1006D000002385F8F130437095F8E63085F8D8703E
:1006E000002B85F8D51085F8D6200CBF00230223F7
:1006F00001B902B1013309EB8309D9F838309A1EE8
:100700001A330793002306920593069BDFF870B215
:1007100033F8024F06934FF6FF739C4200F08B8133
:100720009BF8D920E3B2240AE5B21AB19A1E012A35
:1007300040F27C819BF8DC2032B193491A01895840
:10074000924A914200F072819BF8DD0030B18E49EF
:100750001A0189588D4A914200F068819BF8DA208D
:1007600052B18949049E01EB03114A68B24203D198
:100770000A89102A00F05A819BF8D72052B1824989
:10078000049E01EB03114A68B24203D10A89022A8E
:1007900000F04C819BF8D82052B17B497C4E01EB94
:1007A00003114A68B24203D10A89022A00F03E814D
:1007B000DBF8EC607EB1744F326807EB03177968A1
:1007C000914208D13A89B188914200F02F81F18895
:1007D000914200F02B81022C02D19BF8D42003E03F
:1007E000012C04D19BF8D520002A00F01F819BF832
:1007F000DF20654C1E0162B1614A92F8E62042B9E1
:10080000A3F10802012A04D8A25962498A4208BF0A
:1008100004259BF8E02034445AB1594A92F8E62066
:100820003AB910B10C3B012B01E0043B032B40F221
:10083000E680012D44D1DFF85091FF238BF8383149
:100840008BF8393109EB06035A7B586803F1080825
:100850001B890027ADF8443011A902238BF83C71A5
:10086000CBF848418DF847308DF846208BF8F4706E
:10087000CBF8F870CBF8FC70CBF80071CBF8347182
:100880008BF83A718BF83B7104F0A5FF59F806001C
:1008900098F802103A4604F03CFE204639462A46B3
:1008A00007F0F6FB3C4B3D49CBF84C313C4BCBF8C9
:1008B0005471CBF8503120460A1D07F031FCB5E0E9
:1008C000022D4BD19DF814301C2101FB03FC2C4B55
:1008D0009DF8141003EB0C08012388F83C310893B1
:1008E000294B88F83D119A19517B0027506802F175
:1008F000080912898DF8461088F83E7111A988F808
:100900004671C8F84841CDF824C0ADF844208DF8B0
:10091000475004F060FF1C4B99F8021098593A4672
:1009200004F0F7FD089B20461A46394607F0B0FB55
:10093000134B1C4ADDF824C0C8F84C219C441A4AC9
:100940000CF5A671C8F85021C8F8547120460A1D4C
:1009500007F0E6FB059B0133059367E0032D4CD1BF
:100960009BF8DB20064B9BF8F260104D02B320464B
:1009700008214FF6FF72002333E000BFA8090020D2
:10098000B8000020A901002088D70008000400401A
:10099000000C0140002C01404552000804020020D8
:1009A000255300084D5500081D5200081025002051
:1009B000B3F8E820B3F8EA30B2F5FA7F0BD98849EA
:1009C0002046B1FBF2F2082192B204F0F7FF854B0A
:1009D00045F826000AE084492046B1FBF2F20121E5
:1009E00092B204F0EBFF814B45F82600C3609BF800
:1009F000F23001338BF8F23018E0042D16D1BBF839
:100A0000E220794B204693FBF2F20121BBF8E4305F
:100A100092B29BF8F15004F0D1FF9BF8F1300BEB50
:100A200085050133C5F81C028BF8F130069B079A47
:100A300093427FF46AAE6E4D6E4F95F8F13095F8A3
:100A4000BA6085F83C32A6F117030024022B3C70F3
:100A50001AD8D5F8BC300021185903EB040809F066
:100A60009DFD18B1D5F8C0306BBB25E0624B04EB9F
:100A7000030E98E80F008EE80F003B781034013326
:100A8000C02C3B70E5D1EDE75C4B13F836C003EBAF
:100A9000C603D3F8048087F800C0B8F1000FE1D096
:100AA0006445DFDA544A230103EB020E43440FCBC3
:100AB00001348EE80F00F3E7514B1A68994612F49F
:100AC000805F26D11FE04F4B4F4A03EBC60393F8DC
:100AD0004800DC6C1070002CEED000238342EBDA6F
:100AE000C3EBC3016218D2F80080DFF83CC10133C8
:100AF00041F80C8001EB0C0E9188AEF8041092794D
:100B00008EF80620EAE706F0EF03082B3F4B26D1CC
:100B100027E03F78012FF6D9374B03F1080403EBA8
:100B2000071303F118071034BC42ECD054F8100C32
:100B30004FF07C5109F09EFB4FF07C5144F8100CB3
:100B400054F8140C09F096FB4FF07C5144F8140C47
:100B500054F80C0C09F08EFB44F80C0CE3E70E2E55
:100B600008D11A78182E42F010021A7008D106F037
:100B70004FF805E01A78192E22F010021A70F5E7E6
:100B800006F02AF8D9F80030214A58035CBF012347
:100B900085F8003313781F4F43F0040313703B783C
:100BA0001D4C022B34BF142310238DF846304FF018
:100BB00002038DF84730A3694FF4805243F00403D9
:100BC000ADF8442038BF0026A36128BF0126134892
:100BD00011A904F000FE124B46B3124A27E000BFF1
:100BE00000127A004553000840420F0035530008B8
:100BF000B80000200C250020F802002068D800086A
:100C0000C81100209CC500084C210020E5110020DF
:100C10000426002013260020001002400008014096
:100C200008260020AD6300084D210020554A002011
:100C30001A6005F0F9FE544B544E93E80300A36983
:100C40008AE8030043F00803A361119812A904F095
:100C5000C2FDE369304643F48043E36123695146B2
:100C600043F48043236118238DF846304FF420432A
:100C7000ADF844304FF003038DF8473004F0ABFD7E
:100C80004FF0040C4FF48043304651468DF846C077
:100C9000CDF810C04FF48058ADF8443004F09BFDFF
:100CA0001023304651468DF84630ADF8448004F0AC
:100CB00092FD2369322043F480432361236923F4A6
:100CC00080432361324B1A8802F4415242F4457248
:100CD00042F003021A80998B072221F40061090473
:100CE000090C99831A821A8892B242F040021A8043
:100CF0009F23C6F810808DF83C3000238DF83D30DE
:100D00008DF83E308DF83F3005F079FEDDF810C0EB
:100D1000C6F81480624650460FA902F0FDF8C6F8E6
:100D200010809DF846309DF845201B0243EA02439F
:100D30009DF847201343174A934214D0322005F000
:100D40005EFEC6F81480F52002F01CF9FF2002F0C8
:100D500019F97028C6F8108005D13B78022B02BF24
:100D600003220D4B1A703B78032B0CBF1F2002206F
:100D700005F05EFD3B78032B10D0012003F006F850
:100D800011E000BFC1630008B4C60008000C0140B8
:100D9000003800401520200013260020022005F016
:100DA000C5FD0028E9D0D9F80060DFF8E0A206F41C
:100DB00000434FF0100904930AF2013006F4006377
:100DC00000214A4605933F780AF0DFFD4FF6FF7396
:100DD000ADF83C3002234FF000081E408DF83E3045
:100DE0008DF83F8010D01CA921F8349D9F4806F053
:100DF00025FC0126042207238AF801238AF80283AE
:100E00008AF803638AF80433049B93B102231CA974
:100E100021F8343D954806F011FC0123F21885F8BD
:100E2000053385F80733072385F8066385F808330B
:100E3000D6B2012F13D920231CA921F8343D8B48A9
:100E400006F0FCFB0523012285F8093385F80B2306
:100E5000731C072285F80A6385F80C23DEB2059B14
:100E60009BB102231CA921F8343D814806F0E6FB22
:100E70000923012285F80D3385F80F23731C0722FF
:100E800085F80E6385F81023DEB26368794843F471
:100E9000404363606369774D43F001036361A36975
:100EA00043F40073A36106F09FF911A803F084FED8
:100EB000714B00241193714B012E129394BF234662
:100EC000802316934FF4807317934FF48063189325
:100ED000202311A9199328464FF4005314961A930E
:100EE000139415941B9403F074FE2B68644A43F02A
:100EF00001032B605368012E23F4702394BF00215B
:100F0000012123F4807343EA0123536091685D4B10
:100F1000013E0B40214643F4602343F002039360FB
:100F2000D36AF6B223F4700343EA0656D66201236D
:100F3000554842189478002C4ED00C5C581C092C53
:100F4000C0B2D2784E4E0ED9A4F10A05F76805EB6F
:100F500045054FF0070E0EFA05FE27EA0E07AA40D8
:100F60003A43F2600BE0376904EB440E072505FABB
:100F70000EF527EA050502FA0EF22A433261062B26
:100F80003F4D0CD85A1E6F6B02EB82021F23934019
:100F900027EA030604FA02F333436B631BE00C2BCE
:100FA0000CD8DA1F2F6B02EB82021F23934027EA33
:100FB000030604FA02F333432B630CE0A3F10D02A2
:100FC000EF6A02EB82021F23934027EA030604FA2A
:100FD00002F33343EB62034604311029A8D1284BB6
:100FE0009A6842F480729A609A6842F001029A60AC
:100FF0009A6842F008029A609968214A090747D521
:10100000FAE7013A092A3FF63AAAD8F838010393D9
:1010100010237B615146CAF80000049804F0DBFB02
:10102000049B3C201A460823136105F0E8FC1023BA
:101030003B61039B1F4696F88F319F42BFF615AA6E
:10104000049BDFF82C904FF00808C9F81080782036
:10105000C3F8148005F0C8FC049BC9F814807820FC
:10106000C3F8108005F0C0FC0137E4E70008014038
:10107000000C0140080002404C240140CA0300203B
:1010800000240140FDF7F1FFB9030020B800002063
:10109000936843F004039360B24B9A685207FBD401
:1010A0009A6842F4A0029A60AF4BB3F85801002846
:1010B00040F0FC86B3F95A21002A40F0F786B3F9D4
:1010C0005C31002B40F0F286A84B1A68049312F4AE
:1010D000003F01D001F0D7FFA54DA34C2E68B4F816
:1010E0006001B6F9566094F85F1194F8672194F89E
:1010F0006831009603F0E4F8059510B9012005F079
:1011000099FC9C4B10211A780A2642F002021A70B0
:10111000994A5161082111610693974D1920EB6896
:1011200083F01003EB60EB6883F00803EB6005F0DD
:1011300066FC012005F078FC192005F060FC002019
:1011400005F072FC731E13F0FF06E6D108232B6135
:1011500010268A4B2E611A68984612F0080F07D0A5
:10116000874B6E611B689847864B01222E611A706F
:10117000854F388809F02AF8DBF81C330546187BC0
:1011800009F024F8814909F075F8814908F06AFFEF
:1011900007F0A4FA0146284609F06CF80AF0C6FEEA
:1011A0007C4B294618807C4809F018F97B4909F0E6
:1011B00015F97B4BCBF820037449D86809F05AF82D
:1011C000784909F057F8B4F84E31774AABF82C3328
:1011D0000023764913809370059ACBF8281315687D
:1011E000CBF83013B4F89411CBF8240305F179024D
:1011F0008BF834338EB2DFF8E8916D48D9F800E00F
:10120000DFF8E0C10EF5967E20F813604CF823E07D
:101210000133122BEFD1049BC935D3F800E01EF443
:10122000805F08BFB4F89A61C6801378C3B9937819
:10123000D678B34214D23BB1013B03EB830303EBFB
:10124000830303F5617306E0013606EB860606EBC1
:10125000860606F5617356789BB2043620F8163080
:101260000432AA42E1D11EF0080F524D00F0038172
:1012700094F88E31062B00F2F780DFE803F00407C4
:101280000E3551B5B50045F2F05301E042F6F823B2
:10129000A5F8803302F0D0FFE5E042F6F82309011B
:1012A000A5F880330A2391FBF3F10023A1F5B06187
:1012B000414A42F823100133122BF9D13F4A4049E9
:1012C000402011603F4A137005F054FB002800F0E5
:1012D000CB8001234FF0070B90F9000040218DE8EF
:1012E0000808394A394BB9E042F6F823384AA5F8DC
:1012F0008033324B40201A60324B10221A7005F0B6
:1013000039FB002800F0B08001234FF0000A90F96B
:10131000000040218DE808042E4A4FF4E1339DE09F
:1013200042F6F8232C4AA5F88033244B40201A605B
:10133000244B08221A7005F01DFB002800F0948051
:1013400001234FF0000C90F9000040218DE80810B7
:10135000224A4FF4E13305F099FA164BC3F884039F
:101360007EE000BF00240140A8090020C811002031
:10137000A013002004260020000C0140D011002002
:1013800054130020901900200000002035FA8E3CF4
:10139000DB0FC93FDA1100200AE81C4100401C465F
:1013A000A0120020BD378635201200202E0B002011
:1013B00074090020B80000200C220020200000202A
:1013C0004B6D0008DC110020C96F0008A0860100E9
:1013D000476D00081D6F0008436D0008D16E0008BE
:1013E0009C090020F003002042F6F8226349A5F88A
:1013F0008023062B4FF00C02614E62480A700FD01A
:101400006149002333700B700370604B1B2119700E
:101410005F4B4FF4E1361A705E4B05221A700CE0F8
:10142000002101705848317001705849212008701E
:101430005749594E0A70574A1370584A584B402022
:101440001A6005F097FA78B101234FF0000E90F979
:1014500000008DE808403346524A402105F016FA54
:10146000003018BF012030B9A3684F4A23F00803A9
:10147000A3604B4B1A60049B404A1B6813F4804FD7
:101480001FBF122111704948454918BF086042F238
:101490000101194099B144F620619E04A5F880131A
:1014A00041BF0821117042483D4948BF0860D80734
:1014B00041BF0C2111703F48394948BF086011787D
:1014C00004395170190640F193803B4E4FF0000AE9
:1014D000DFF8F4B0394851461522C5F888B386F8CC
:1014E00001A0C6F804A0C6F808A00AF04EFAABF1B5
:1014F0000503C5F88C33D9F800300220B361D9F860
:10150000003086F800A0C6F814A086F81CA0F3608E
:1015100005F030FA68B390F805E07378284A0C219A
:1015200001FB032191F82111714504D00133DBB295
:10153000042BF3D90023737094F8EB311E4E002B6B
:1015400073784FF00C0E0EFB032214BF0321012110
:101550004FF0000A90F9000092F821310091CDF887
:1015600004A00221524605F091F9164BC3F89003EE
:1015700060BBA36823F08003A36030E0DC1100208F
:101580000A220020752200207422002076220020EA
:10159000092200207722002090D00300896C0008E7
:1015A00020000020B16D00089D6D0008796D0008D5
:1015B0008D6D00087D6D0008E811002008120020E4
:1015C0009CC50008B8000020980B00200123337050
:1015D000CF4BC6F814A01B6886F81CA0B361059B0E
:1015E0001868CC4B00F5C572C3F8942306F08AFC4A
:1015F000049B1B689A0553D5C74A039B1026C5F860
:1016000098339369C54843F001039361039B0EA986
:101610001B888DF83A60ADF8383002238DF83B30E6
:1016200004F0D9F8039BBD485B880EA9ADF83830AB
:1016300004238DF83A3004F0CEF8039B0120197A88
:1016400004F0B4F8039BB64A5B684FF0000A53619C
:1016500011A88DF84960012611938DF848A08DF8E6
:101660004A6005F0ADFF039B0FA85B7A8DF83EA0A2
:101670008DF83C3003238DF83D308DF83F6001F04C
:101680002DFCD9F800303C3BC5F89C33D8F800302D
:1016900043F01003C8F800304FF0FF33C5F8A03313
:1016A000A04BA14A9B4E1360A04A80331360049B59
:1016B0004FF000081B6886F8A483DB0340F1BD806F
:1016C00006F02AF906F060F906F048F940F22A33EC
:1016D000DFF844B206F2A5394FF0010A1A4648462F
:1016E0004146039386F8A4A30AF04FF9DBF81820CB
:1016F0008F4842F00402CBF818204022ADF8382081
:1017000018228DF83B200EA903228DF83A2005F00F
:1017100095FFDBF81C20874942F00202CBF81C2021
:10172000854A864E1268ABF6947BB2FBF1F23188A3
:10173000013A21F45C710904090C318092B21D2137
:10174000B1853285A6F814A0328C22F00102120471
:10175000120C3284328CB088318B22F0020221F0DC
:10176000730109041204090C120C41F0600180B2EB
:1017700042EA0A02B0803183A6F834803284328B88
:1017800022F008021204120C42F008023283B6F86A
:1017900044206FEA42426FEA524292B2A6F84420D5
:1017A000DBF8A82F42EA0A02CBF8A82F584605F02A
:1017B0001BFD11A803F000FA614A039B11928022DD
:1017C00016924FF4807211A9CDF8489017924FF0FD
:1017D00010094FF40052584614931A92CDF84C90C9
:1017E000CDF85480CDF86080CDF86480CDF86C8061
:1017F00003F0EFF9B2890FA892B242F40072B281FD
:10180000DBF8002042F00202CBF800208DF83C907B
:101810008DF83DA08DF83E808DF83FA001F05EFB75
:101820004146484B1A68484B43F821200131202992
:10183000F7D103F0DDFE03F0DBFE049B1B685805C7
:1018400040F16881D5F850870420C5F8548705F029
:1018500091F804218146C5F8580705F081F88246C1
:1018600085F85C070820C5F8608705F083F8082133
:10187000C5F8640705F074F8264E85F8680700215E
:101880002C2206F269700AF080F88E2285F86A2709
:10189000E0227C23002185F86C274FF07D0B2C2261
:1018A00006F2957085F86937039385F894B70AF0C6
:1018B0006CF8039B102085F895378A2385F89637B6
:1018C000A02385F8983785F8C0B7C5F8C48705F018
:1018D00051F81021C5F8C80705F042F885F8CC0783
:1018E0002020C5F8D08705F045F82021C5F8D40799
:1018F00005F036F885F8D807504605F0A9FF95F8A9
:10190000D9378246834243D0002839D01EE000BF39
:101910009C090020B800002000100240000C01408B
:1019200000040140D40B00209C130020AC130020C5
:101930000008014000366E01440000200004004011
:1019400034040040F8C6000888070020B9F1000FF1
:101950001ED0022399F90000009398F80130042169
:10196000003318BF0123019300224FF4165304F0F3
:101970008DFFC6F8DC0758B1012386F8D93707E098
:10198000D6F8DC0704F06EFFC6F8DCA786F8D9A706
:10199000BC4E96F8680705F05BFF96F8E037054601
:1019A00083421AD088B1D6F86437B3B1002201253A
:1019B00093F900000821009501924FF4964304F03A
:1019C00065FFC6F8E40730B907E0D6F8E40704F08D
:1019D00049FFC6F8E45786F8E05796F8CC0705F0BB
:1019E00037FF96F8E837A74D834281465BD0002841
:1019F00039D0D5F8C827002A55D0D37992F90000FC
:101A0000002B4FF00202DFF8A4E208BF022300928D
:101A10000022019210215EF8233004F037FF804647
:101A2000C6F8EC0700283ED095F84A30022B0BD0C0
:101A300095F89620022A01D14C3505E023B1002A01
:101A400005F14C0518BF0025C6F8F0574DB12846E2
:101A500000214C2209F099FF0223C5F8008085F887
:101A60004A3001231DE0D5F8EC872B68434507D1A8
:101A7000404604F0F7FE284649464C2209F085FF0F
:101A8000F36C434507D1404604F0ECFE7E4800214C
:101A90004C2209F07AFF404604F0E4FE0023C6F829
:101AA000EC3786F8E83796F8D80705F0D1FE96F8B7
:101AB000F437744D834280462CD008B3D5F8D43720
:101AC00043B3D5F8D02793F9000052780323002AB6
:101AD0000CBF0822092200930192202100224FF41A
:101AE000614304F0D3FEC6F8F80798B1012385F8E6
:101AF000FC3785F8F437654B1B68C5F8003809E0FA
:101B0000D5F8F80704F0AEFEC5F8F88785F8FC872D
:101B100085F8F4875E4B5F4D1B78022B66D15E4AD9
:101B200000261388322023F040031B041B0C138073
:101B300013884FF4805823F038031B041B0C1380C8
:101B400013889BB243F0400313809F238DF83C30F1
:101B50008DF83D608DF83E608DF83F6004F04FFFDA
:101B60008DF845604D4E0422C6F8148011A80FA9C7
:101B700001F0D2F9C6F810809DF846309DF8452056
:101B80001B0243EA02429DF847301343444A934202
:101B900019D00AD8A2F51A42033A93420CD002F5A2
:101BA0001A420232934209D01BE03E4A934205D0CA
:101BB0000132934207D014E0202300E08023AB8061
:101BC0004FF4807302E04FF48073AB80EB803B896D
:101BD000BA881B02FB6053433B61334B01221A70EE
:101BE00004E00023BB80FB80FB603B612E69002E7C
:101BF00000F00681F60AB1464FF00008B04529DA38
:101C000008EB06077F10FB0203228DF83C2000251D
:101C10001A0C1B0A8DF83D208DF83E308DF83F5090
:101C200001F0F2F9B0B1DFF874B04FF48053CBF8A3
:101C300014300FA9042228460DF1440A039301F041
:101C40006BF950462946102201F066F9039BCBF848
:101C500010300CE00B494FEAC923039391F8052893
:101C600091F804388846934200F0C68020E05AF884
:101C70002530013340F016810135042DF7D1B946E6
:101C80003E46BBE7B8000020040100209C0900206C
:101C9000132600200000002000380040000C014006
:101CA00018BA20001740EF00A009002004D2000855
:101CB00001F60601C8189A420F90109107D3D31A63
:101CC000119300231293119B129F1F4458E0C3F1FC
:101CD000800311931292F6E7D8F88868F5B27B1961
:101CE000B3F5807FB84B88BFC5F580751B6998BF79
:101CF0003D469E427AD20223DFF8D4928DF83830E6
:101D0000330C4FF4805A8DF83930330A8DF83A305D
:101D10008DF83B6001F078F9C9F814A0062001F0B5
:101D200031F9AA4B0122C9F810A000201A700EA99F
:101D3000C9F814A0042201F0EFF8DDF844A0BAF1CC
:101D4000000F20D0AA452FD2DDF83CB00020594624
:101D5000524601F0E1F80BEB0A030F930023CAEBA4
:101D600005091193DDF848A0BAF1000F0DD1984B89
:101D70004FF480521A61974B7F1B3544C3F8885843
:101D8000002FA9D132E0A946ECE7CA4511D2DDF80F
:101D9000409000204946524601F0BEF809EB0A0186
:101DA000002310911293E2E7A94600230DF1440BA2
:101DB00002E00DF1480B04230DF13C0C5CF803A08C
:101DC0004A46002051460793CDF814C001F0A4F80C
:101DD000079BDDF814C00AEB09024CF80320DBF87E
:101DE0000030C9EB0303CBF80030C0E7794B002289
:101DF00083F8052883F80428764B039AC3F88828CB
:101E0000049B744D1B6813F4002318BF012385F84D
:101E10008C3804F0CDFD704B4FF47A721860637902
:101E2000052B04BF4FF4C873A5F88E386B4B1A808E
:101E30006B4BC8221A806B4A137843F00803137067
:101E4000694A137823F002031370049B1A6840F662
:101E5000020313406BB16549654B1960654B032163
:101E60001970654B012119700023A5F89038A5F869
:101E70009238930341BF614B04221A71DA7844BF50
:101E800042F00102DA70A368049A1360012385F816
:101E90000033069B069A1B7863F07F0313701DB016
:101EA000BDE8F08F07F101083746E9E6544B002200
:101EB0001A7000B208F08AF9524908F0DBF9524C66
:101EC0000646B4F95A0108F081F94E4908F0D2F9F2
:101ED0000546B4F95C0108F079F94A4908F0CAF9F5
:101EE0004A490446304608F0BDF806F0F7FB804644
:101EF000304606F0F3FB45490646284608F0B2F89E
:101F000006F0ECFB0746284606F0E8FB3F4905468D
:101F1000204608F0A7F806F0E1FB8246204606F0CE
:101F2000DDFB41468146504608F0A4F94146049045
:101F3000484608F09FF951460590304608F09AF956
:101F400049460690304608F095F9394607905046C4
:101F500008F090F92E4C4946206007F1004008F047
:101F600089F929466060A560069808F083F9014662
:101F7000059808F077F82946E060079808F07AF9A4
:101F80000146049808F06CF83946206106F10040DB
:101F900008F070F929466061049808F06BF9014671
:101FA000079808F05DF82946A061059808F062F9E5
:101FB0000146069808F056F84146E061384608F0B8
:101FC00059F92062FFF780B800000020A009002026
:101FD000000C0140B80000204C1900200C26002005
:101FE0000E260020E511002010260020200B0020E6
:101FF000CC110020032300203D000020A011002070
:102000002D00002035FA8E3CA8090020DB0FC93FC7
:102010005C1900202DE9F04F87B06C4C02916C499F
:1020200022880E680546C2EB26135B435200C2EBC2
:10203000E602B4F902601B135643B4F90420B4F964
:102040000A0053439B1303EBE62606EB860380331B
:102050001B12B6F5FA384FEAE67704934B6847F15E
:10206000FF39A8FB08AB039308FB09F3B4F9082078
:102070000BEB430BE389A6610593D31708FB03F130
:1020800002FB0911A8FB02230B44C1171F030AFB23
:1020900001F300FB0B33AAFB00011603194447EAC6
:1020A0001257020A42EA016292194FEA2123E68896
:1020B0007B410032A2FB060143F5004306FB0311FE
:1020C0004B100093CB170193DDE900231343B4F8C1
:1020D00010E0B4F80CC06DD00FFA8EF0C1170AFBF7
:1020E00001F1AAFB002300FB0B11BDF914600B44A6
:1020F000F71708FB07F106FB0911A8FB06670F4459
:1021000079047004801841EAD6315941039B0FFAD3
:102110008CF8C3F5801E7246D317002212184FEABE
:10212000CE764FEAC3774FEAC8034B4147EA5E07D2
:10213000B61A67EB030740F63543A6FB030103FB22
:102140000711DDE9002308F0A1FAB4F916204E13B7
:1021500002FB06FE470B47EAC147D31707FB03EE16
:10216000A2FB07235643734407FB0366A2FB072326
:102170003344560E46EAC3168219B4F914604FEA86
:10218000636741EB07037143F71700FB0717A6FBD3
:1021900000013944C60C46EA413692194FEAE1473C
:1021A0004FEA1221B4F912207B4141EA0361130185
:1021B0000B4400E000230DB11B0A2B60029B13B1FE
:1021C0001A46049B136007B0BDE8F08F341300205B
:1021D0004C090020704770476B4B6C4A2DE9F04F5B
:1021E0005E8994684FEA062AB4EB0A0A9C884FF08D
:1021F00000054FEA04481C894FF0000BA4FB0A6756
:1022000065EB0B0B04FB0B77F40944EA476418EB0E
:1022100004065C884FF000094FEAE7154FEAC4381E
:10222000DC8849EB050787B0CDE90467A4FB0A67A2
:1022300004FB0B77340A44EA076418EB04064FEA00
:1022400027259C894FF0000949EB0507CDE9006778
:10225000AAFB046704FB0B77F40D44EA472414F54A
:10226000FA664FEAE75545F10007B6F5FA6F77F1E0
:102270000003CDE90267964666DADDE90489A4FB2E
:10228000046704FB05F34FF0050C07EB4307A6FBBF
:102290000C230CFB07335F104FEA3206B8EB06083D
:1022A0004FEA920646EA837669EB07099F10DDE95B
:1022B0000023921B63EB0703CDE90023DDE90267EE
:1022C000334A4FF0FF33964277EB0303CDE904899D
:1022D00027DA40F6AC520023A4185D4104FB05F355
:1022E000A4FB04456FF0060205EB4305664202FBC2
:1022F0000566A4FB0223334418EB020649EB0307EF
:10230000CDE904670B26A4FB062306FB0533DDE9B4
:1023100000455B104FEA3202A41A65EB0305CDE9D4
:102320000045DDE902450AFB0BF3AAFB0AAB0BEB08
:10233000430B4FEADA7242EA4B02A41A4FEAEB73FC
:1023400065EB0305CDE90245DEF80C40009B019DDD
:10235000A4FB032304FB05334FEA525848EAC32881
:102360004FEA6359DDE90423B8EB020269EB03038A
:102370009946D30B43EA494300B1036009B1029B7C
:102380000B6007B0BDE8F08FC81200204C09002098
:1023900024FAFFFF2DE9F041324C334D62892B8A3C
:1023A000B4F904809A1A2389B4F902E05A43B4F9C3
:1023B0001230D613B4F91420DB02324493FBF2F24C
:1023C00032440A26E2615643A2F57A6202FB02F326
:1023D000B4F90EC002FB0EFE02FB08F2B4F90C8049
:1023E0001B130CFB03FC03FB08F31B1403EB62320F
:1023F0000232E388921002F5004253434CF250320D
:10240000B4F920704FEAEE2EB4F900400EEBEC2C3C
:102410000CEB8404BC406D690234A5EBA4043A4182
:1024200062434FEAD3384EBFB2FBF8F35400B4FB1B
:10243000F8F340F6DE3448BF5B001A1252436243A1
:102440000A4C08365C43241404EB224202F6CF62A5
:10245000361103EB221300B1036001B10E60BDE839
:10246000F08100BFDC1200204C09002043E3FFFF95
:1024700013B50C4B04465B681B20022101AA984748
:1024800070B19DF804209DF8053043EA022303F55E
:102490004E5310334FF48C7293FBF2F323332380AB
:1024A00002B010BDB412002037B5104B04465D6871
:1024B000187806216A46A847A8B19DF800209DF823
:1024C0000130012043EA022323809DF802209DF879
:1024D000033043EA022363809DF804209DF8053011
:1024E00043EA0223A38003B030BD00BFB412002032
:1024F00013B5104B04465B683B2006216A4698479B
:10250000A8B19DF800209DF80130012043EA022384
:1025100023809DF802209DF8033043EA0223638064
:102520009DF804209DF8053043EA0223A38002B001
:1025300010BD00BFB4120020B0F5807F0ED0BB28C4
:102540000ED861280ED829280ED813280ED80928AD
:102550000ED8002814BF06200020704700207047C6
:102560000120704702207047032070470420704705
:102570000520704710B5224C2368998A89B211F45E
:10258000706F1EBF1F4A0120107611F4E06F2BD030
:102590001A8B9A88890522F480624FEA02424FEA38
:1025A00012429A8020D41A8892051DD41A88D00528
:1025B0000FD51A88D105FCD41A8892B242F4007261
:1025C0001A801A889205FCD40F4B187801F0DEFBB4
:1025D0000AE01A8892B242F400721A809A8822F4B1
:1025E00040721204120C9A802268938A23F470635A
:1025F0001B041B0C9382054B00221A7010BD00BFF8
:102600004C1200204C0900205012002064120020BF
:10261000054A08B5138801339BB21380034B187821
:1026200001F0B4FB002008BD04230020501200205C
:1026300008B54FF4804004F0F3FF012801BF044BBC
:102640004FF480425A61034B08BF587608BD00BF63
:10265000000401404C09002010B5054C236818699E
:1026600004F0DEFF18B123681A69024B5A6110BDED
:10267000C012002000040140F8B50E461746084C71
:102680004FF48055656140F0800000F07BFC3846D7
:102690000021324600F040FC25610120F8BD00BF5A
:1026A000000C014070B50E46054C4FF48055656135
:1026B00000F068FC304600F065FC2561012070BD2B
:1026C000000C014070B5FFF737FF104C054619208C
:1026D00004F095F9A36815200021984710B902204D
:1026E00004F0A8F945F01801A368C9B2162098476C
:1026F000A368002117209847A36801213D2098472F
:10270000A3683E200121BDE870401847B4120020A4
:10271000F0B5274D85B0AB7E002B46D1254C236804
:10272000002B42D01A68244E12B1B1690A43B2613B
:102730009A889868ADF8002002228DF80320694637
:1027400004228DF8022003F046F8B369002743F015
:102750000103B36123680126187B197D03F026F875
:102760002368164993F9150004F0AEF92368144A5A
:102770001B695361029308230DEB03008DF80D30A4
:102780008DF80C708DF80E6004F01AFF236801A814
:102790005B7D8DF806708DF8043003238DF80530CD
:1027A0008DF8076000F09AFBAE7605B0F0BD00BF73
:1027B0004C090020C01200200010024059260008D9
:1027C0000004014037B50446FFF7A2FF254B1A6805
:1027D000254B9A420ED14FF40053ADF8043002233A
:1027E0008DF80730042321480DEB03018DF80630E6
:1027F00002F0F1FF2046FFF79FFE05461C4C8021AA
:10280000A3686B209847642004F0F9F8A3680721B7
:1028100068209847642004F0F2F8A36800216B2038
:102820009847642004F0EBF8A36801216B209847D7
:10283000A36818211B209847A36810211C209847E3
:10284000A36829461A209847A368002119209847B1
:10285000A368122137209847A368012138209847A0
:1028600003B030BD34000020001BB7000010014051
:10287000B412002008B5FFF74BFF024B4FF4805213
:102880001A8008BD0000002070B50446FFF740FF25
:102890002046FFF751FE0546144C8021A3686B20AB
:1028A0009847642004F0ABF8A368002119209847EA
:1028B000A36803216B2098470F2004F0A0F8A368B9
:1028C00029461A209847A36818211B209847A36817
:1028D00010211C209847A368022137209847A3683D
:1028E00038200121BDE87040184700BFB412002015
:1028F00008B5FFF70DFF074B5B7813B1012B03D031
:1029000008BD4FF4006201E04FF48052024B1A8080
:1029100008BD00BFB01200200000002010B540002C
:10292000204CC0B220702048204C0170204800216B
:102930000170012020701F4C23601F4C23601F4B2F
:102940001A701F4A1F4B107019761F4908681146EC
:102950001A4630B383889C0515D40388DB050DD453
:1029600047F230530488A40502D5013BFAD112E0A6
:102970008BB103889BB243F48073038083889BB23E
:1029800043F44073838047F23053087810B1013B21
:10299000FBD100E013B9BDE8104039E6107E80F0AD
:1029A000010010BD561200205412002052120020C7
:1029B0005C120020581200206012002055120020E6
:1029C000641200204C0900204C12002007B5F721AA
:1029D0006B4606227620FFF7A1FF9DF800309DF898
:1029E00001101B0343EA01139DF80210094A43EA50
:1029F000111353609DF803309DF804101B0343EA44
:102A000001139DF8051043EA1113136003B05DF83C
:102A100004FB00BF4C09002007B5002101AB0322D5
:102A20007720FFF77BFF9DF805309DF804001B021F
:102A300043EA00439DF80600184303B05DF804FB29
:102A400008B5FFF7E9FF014BD86008BD4C0900202D
:102A500008B5FFF7E1FF014B986008BD4C09002065
:102A60000F4B13B51B780F4C0BB1637EB3B1032230
:102A700001AB7720F621FFF751FF9DF805309DF857
:102A800004201B0243EA02439DF806201343064A32
:102A9000B2F92020C2F10802D340636102B010BD38
:102AA000240000204C090020DC1200200A4B13B542
:102AB0001B780A4C0BB1637E63B1022201AB772015
:102AC000F621FFF72BFF9DF804209DF8053043EA1F
:102AD0000223238202B010BD240000204C090020F4
:102AE00030B505460C46134629462246BDE830401F
:102AF000682013E713B50622044601211C206B460B
:102B0000FFF70CFF08B39DF801309DF80020042169
:102B100043EA022242F38D0292FBF1F29DF8023069
:102B200022809DF8032042EA032242F38D0292FBA9
:102B3000F1F29DF8043062809DF8052042EA0323FB
:102B400043F38D0393FBF1F3A38002B010BD13B5E3
:102B500006220446022118206B46FFF7DFFEB8B1BB
:102B60009DF800309DF801209B0803EB0223238091
:102B70009DF802309DF803209B0803EB022363803D
:102B80009DF804309DF805209B0803EB0223A380E9
:102B900002B010BD314B2DE9F3411B780546002BE7
:102BA0003BD0002426462746A0460134532032213C
:102BB00008226B46E4B2FFF7B1FE08B9002049E0F5
:102BC0009DF801209DF80030202C03EB02231BB25E
:102BD0009DF8032098449DF8023003EB02231BB2BA
:102BE0001F449DF805209DF8043003EB02231BB21F
:102BF0001E449DF8073003F07F0301D0002BD4D191
:102C000098FBF4F897FBF4F796FBF4F6144BA5F851
:102C100000806F80AE80DC761CE0532032210622DB
:102C20006B46FFF77BFE0028C8D09DF801209DF879
:102C3000003003EB02232B809DF803209DF8023027
:102C400003EB02236B809DF805209DF8043003EB15
:102C50000223AB8002B0BDE8F08100BFC6120020A5
:102C60004C09002013B502AB03F8012D4000214AA6
:102C7000C0B21070204A00201170204901220A7051
:102C80001F4908701F490B601F490B601F4B2049EB
:102C90001A700A701F4B204A187610681A4630B313
:102CA00083889C0515D40388DB050DD447F2305387
:102CB0000488A40502D5013BFAD112E08BB1038848
:102CC0009BB243F48073038083889BB243F44073C8
:102CD000838047F23053087810B1013BFBD100E00C
:102CE00013B9FFF795FC02E0107E80F0010002B0FE
:102CF00010BD00BF56120020541200205C120020AC
:102D0000521200206012002058120020551200209C
:102D1000641200204C0900204C1200207620F4217F
:102D200031229FE77720482101229BE77720582115
:102D3000012297E7064B002193F82020054B9201D2
:102D4000343259767720F42102F0FC028AE700BF82
:102D5000DC1200204C090020034B00225A76772019
:102D6000F4212E227EE700BF4C09002003460A46CC
:102D70006820194676E713B500222A211C20FFF7A8
:102D800071FF0E2102221C20FFF76CFF0F2103228E
:102D90001C20FFF767FF2B2112221C20FFF762FF88
:102DA000164A02249369164843F0040393612023D2
:102DB000ADF8043004230DEB03018DF806308DF8D7
:102DC000074002F008FD22462C211C20FFF74AFF95
:102DD0002D2101221C20FFF745FF2E2100221C205F
:102DE000FFF740FF2A2105221C20FFF73BFF054B80
:102DF0004FF480721A8002B010BD00BF0010024074
:102E0000000801400000002008B50F21082218200A
:102E1000FFF728FF0E2218201021FFF723FF024B97
:102E20004FF480521A8008BD0000002008B5134BF3
:102E300053201B782D2108227BB1FFF713FF31218E
:102E40000A225320FFF70EFF2C210C225320FFF7FC
:102E500009FF53203821902209E0FFF703FF3121B9
:102E60000A225320FFF7FEFE53202C210A22FFF7EF
:102E7000F9FE40F20912024B1A8008BDC61200206A
:102E80000000002001F08EB8FFF774BB01F08AB893
:102E9000FFF770BB10B504460E4B185C00F0BDFE8A
:102EA0000D4B33F91410B1F57A7F05DBB1F5FA6FEC
:102EB000A8BF4FF4FA6101E04FF47A71A1F57A717D
:102EC0000A2391FBF3F1BDE810400920C9B204F0D8
:102ED000D5BC00BF3DDA0008740900200C4B0D4939
:102EE000DA684378D243C2F30222C2F1040293406B
:102EF00002781B01DBB20A4482F800330378012216
:102F0000580903F01F0302FA03F341F82030704719
:102F100000ED00E000E100E070B5184B9B894FF434
:102F20007A7342B311B10C78013107E0FF2405E058
:102F30004FF6FF75013B9BB2AB420FD00F4D2E8970
:102F4000B607F5D5A4B2AC810C4C2589ED070BD49E
:102F50004FF6FF74013B9BB2A342F5D1084A938C14
:102F600001339BB2938406E0A489A4B208B1047033
:102F70000130013AD5E7012070BD00BF00380040A4
:102F80007409002040F2E9330F4A1189890704D4FB
:102F9000013B9BB2002BF7D10BE040F2E93380B24A
:102FA0009081094A1189C9070AD4013B9BB2002BC1
:102FB000F7D1064AFF20938C01339BB2938470476C
:102FC0009089C0B2704700BF0038004074090020EB
:102FD00007B50B4A0B48936901A943F010039361AD
:102FE0004FF40053ADF8043002238DF8073010235E
:102FF0008DF8063002F0EFFB03B05DF804FB00BF74
:103000000010024000100140F7B5144CA76A94F874
:103010002C309BB10523124D8DF800304FF48056B3
:1030200000238DF8013001A86E6169460222FFF786
:1030300073FF2E619DF8053003F0010303F00102D8
:1030400084F82C2033B1054B9B6ADB1B062BDED9A1
:10305000002000E0012003B0F0BD00BF7409002093
:10306000000C0140031EB8BF2D2210B5B8BF584256
:103070000C46B8BF01F8012B0A2205F0E5FA00233F
:103080000370204610BD2DE9F341C82003F0B7FCC2
:10309000AE2000F0E6FD08B100F0E8FDA54C84F894
:1030A0002D00C82003F0ABFC04F5DD7300210C22D9
:1030B00004F62C00236308F068FC022384F82F3800
:1030C00003F076FCD4F83838C31A002BC0F24483DE
:1030D00000F5433303F5A073C4F83838964B1E78D7
:1030E00094F83C38C6F38006F31A18BF012384F81D
:1030F0003C6866B1002B00F02F8394F82D3884F8DB
:103100002E38012384F82D3884F82C3834E04BB164
:1031100094F82F3843F0020384F82F3894F82E38AF
:1031200084F82D3894F82F2802F0020101F0FF03F3
:1031300041B98049D1F83418411A002903DB02F063
:10314000010300E0012303F001057A4984F82C58BB
:1031500093B1D50710D591F8302805230132D2B2AA
:10316000B2FBF3F303EB8303D31A744ADBB281F8A7
:103170003038D35C81F82D3894F82C286D4B9AB3F5
:1031800093F82F2822F0020283F82F286C4A024479
:10319000AE20C3F8342800F064FD08B100F066FDED
:1031A00084F82D00002800F0D782B02000F059FDEF
:1031B000402000F056FD002000F053FD102000F0EC
:1031C00050FD4FF48065013D0020ADB200F020FDC0
:1031D000002DF8D1284600F0B8FD94F82D28594B61
:1031E00053F8220000F034FD94F82D30002B00F04D
:1031F000B382504B93F82D38062B00F28782DFE81C
:1032000013F00700850218007D004E016D01AD012D
:103210004D494E4A4E4B4F4805F02AFA012000F026
:1032200094FD4C4800F014FD022000F08EFD4A4849
:1032300091E1D4F854383F4D9A072AD5474F0022E0
:103240003B784749009305F63D00134605F010FA18
:1032500004F050FB012000F078FD05F63D0000F081
:10326000F7FCD5F858083A7805796FF0630102FB4E
:1032700005F34B43C17802204D1B5543B3FBF5F5D5
:10328000EDB200F062FD2946152004F0F7FA03259F
:1032900000E00125D4F85438264F1B0540F1368252
:1032A0000022134600922F4907F63D0005F0E0F991
:1032B00004F020FB284600F048FD07F63D0000F032
:1032C000C7FCD7F85838988906F080FF0746681C75
:1032D00000F03BFD3846244906F0CCFF394607F0A4
:1032E0007DF807F08DF901466428A8BF642121EA22
:1032F000E1711520C9B204F0C1FA07E2012000F023
:1033000024FD1A4800F0A4FCD4F85C389D0733D59E
:103310000023009301931649164A0E4805F0A8F9B8
:1033200004F0E8FA022000F010FD0A4800F090FCDA
:10333000032522E0740900201026002038DA000856
:10334000404B4C00ECCC000852DA00085BDA000875
:1033500062DA0008B11100206ADA00083D0000209E
:103360006FDA000887DA00080000C8429CDA00081B
:10337000B2DA0008C1DA00080225D4F85C38D807B0
:1033800012D5002300930193CA49CB4ACB4805F0DC
:103390006FF96F1C04F0AEFA284600F0D6FCFFB2BD
:1033A000C64800F055FC3D46D4F85C38C44F1907B8
:1033B0001BD5B7F96228B7F960380092B7F96428CD
:1033C000BC49019207F63D00BE4A05F051F905F1EE
:1033D000010804F08FFA284600F0B7FC5FFA88F87D
:1033E00007F63D0000F034FC4546002300930193AE
:1033F000B54AB049B14805F03BF904F07BFA2846DC
:1034000000F0A3FCAD4800F023FCAC49002005F01F
:10341000B5F8AA4808F0FDFA6F1CFFB2C1B209293D
:103420000BD84B1CDBB22144202281F83D2800211F
:10343000E21882F83E181946F1E7DFF88082002092
:10344000414405F09BF804F055FA384600F07DFC45
:10345000404600F0FDFB4146002005F08FF8404655
:1034600008F0D7FA0235EDB2C7B2092F0BD87B1C92
:10347000DBB22744202287F83D280021E21882F899
:103480003E181F46F1E7B4F9660806F09FFE08EB08
:10349000070105F073F804F02DFA284658E00025DE
:1034A00094F86838AB4240F231810E2D00F02E8145
:1034B0006808013000F049FC2846FFF7EBFC804B20
:1034C00093F86838AB4206D9202000F0A6FB681CB0
:1034D000C0B2FFF7DFFC0235EDB2E1E77B4994F8BB
:1034E000E827764805F0C4F8012000F02EFC734868
:1034F00000F0AEFB94F86A5875492A466F4805F00B
:10350000B7F8022000F021FC6C4800F0A1FB0C236E
:1035100003FB05456F4995F8EB2795F8EA376748AF
:1035200005F0A6F804F0E6F9032000F00EFC63486D
:1035300000F08EFB95F8F01795F8EE2795F8EF3729
:103540005E480091644905F093F804F0D3F9042033
:1035500000F0FBFB594800F07BFBD7E0D4F854287F
:10356000574B120640F1CC80D3F86C284AB10022A8
:10357000C3F86C2893F87028013202F0030283F834
:1035800070280121002000F0ECFB94F87038534AB9
:103590001025D05C00F041FB0220012100F0E1FB8E
:1035A000A02000F03AFB013DFAD194F871384C4963
:1035B00013F0020F14BF59234E232A463F4805F04B
:1035C00057F804F097F9022000F0BFFB3B4800F0E9
:1035D0003FFB2B4643492A46384805F049F804F09A
:1035E00089F9032000F0B1FB344800F031FB3E497B
:1035F0002A46324805F03CF804F069F9042000F04E
:10360000A4FB2E4800F024FB2A4638492B4805F03D
:103610002FF804F05CF904210A2000F0A2FB2748EF
:1036200000F016FB32492A46244805F021F804F040
:103630004EF9052000F089FB204800F009FBD4F882
:103640007828D4F87C382B491C4805F011F804F090
:103650003EF905210A2000F084FB184800F0F8FA32
:10366000D4F88438D4F880282349D21A134804F0B7
:10367000FFFF04F02CF9062000F067FB0F4800F074
:10368000E7FAD4F87C281D490C4804F0F1FF04F057
:103690001EF906210A2000F064FB084800F0D8FA61
:1036A0000648152200F1570108F0DEF904F00FF981
:1036B00007204DE7B2DA0008C5DA0008B111002092
:1036C0007409002020E20008C9DA0008CDDA0008F9
:1036D000D9DA0008EADA0008FBDA00080DDB000896
:1036E00012DB000823DB000830DB000838DB0008B1
:1036F0003FDB000846DB00084FDB000856DB000814
:1037000093F82F2842F0020283F82F2826BB94F862
:10371000CC380021052B97BF144A3F259B181D7FED
:10372000122000F01EFB284600F077FA002113203B
:1037300000F017FB212000F070FA1420002100F0A7
:1037400010FB94F8D0580A4B585D013505F003057D
:1037500000F063FA84F8D05803F02AF9054B0344CB
:10376000C4F8343802B0BDE8F08100BFECCC0008EA
:103770000DDB0008404B4C00F8B5614B054693F853
:1037800028380C46012B15D1114606F027FE4FF0C4
:103790007E5106F065FC0546014606F06BFD2946A4
:1037A00006F068FD294606F065FD04F100444FF07F
:1037B0007E5199E0022B5DD110464FF07C5106F00E
:1037C00059FD0146284606F009FE4FF07E51054698
:1037D00006F0EEFEF8B12946284606F04BFD0146FC
:1037E0004FF07E5006F03CFC06F038F908F0DAFBAA
:1037F00006460F4604F100404FF07C5106F03AFDBA
:1038000006F02CF9002204460D46304639463D4B61
:1038100005F0C4FF21E028464FF0804106F020FC6F
:10382000014606F027FD01464FF07E5006F018FCD9
:1038300006F014F908F0B6FB06460F4620464FF096
:103840007C5106F017FD06F009F9002204460D46EA
:10385000304639462B4B05F0A3FF02460B46204667
:10386000294606F04FF90022002305F099FF06F0E3
:10387000A3FBF8BD032B41D110464FF07C5106F05D
:10388000F9FC0146284606F0A9FD4FF07E51054699
:1038900006F08EFE78B14FF07C51204606F0EAFC2F
:1038A000294606F0E7FC294606F0E4FC294606F026
:1038B000E1FC29461CE028464FF0804106F0D0FB91
:1038C0004FF07C51054604F1004006F0D3FC294638
:1038D0000446284606F0CEFC294606F0CBFC2946D5
:1038E00006F0C8FC4FF0804106F0BAFB01462046C6
:1038F00006F0C0FC002106F0B5FBF8BDF8BD00BF26
:10390000740900200000F03F08B52A221148002168
:1039100008F03BF8104B002210490420515C0132A2
:1039200083F8F211052183F8F7018A424FF0000075
:1039300083F8F61183F8F90183F8F81103F108030D
:10394000EAD1074B0122A3F82822522283F824222D
:1039500008BD00BF980B0020A809002033DA00083A
:103960007409002037B5044603211E2006226B4649
:10397000FEF7D4FF70B39DF801309DF80000164D9E
:1039800043EA002000B206F021FC296806F072FC30
:1039900006F036FE9DF8033020809DF8020043EAD1
:1039A000002000B206F012FCA96806F063FC06F0E5
:1039B00027FE9DF80530A0809DF8040043EA002012
:1039C00000B206F003FC696806F054FC06F018FE2D
:1039D0006080012003B030BD1400002010B5054CFC
:1039E0002368186903F01CFE18B123681A69024B9A
:1039F0005A6110BD50130020000401402DE9F0432E
:103A00007B4A87B01368904693B11A681AB1794916
:103A1000886902438A619A889868ADF8002002227A
:103A20008DF80320694604228DF8022001F0D3FEB0
:103A3000322002F0E4FF002111221E20FFF712F9CC
:103A4000012160221E20FFF70DF9642002F0D7FF4C
:103A5000002402A8FFF786FF274626460A250221F2
:103A600001221E20FFF7FEF8322002F0C8FF02A854
:103A7000FFF778FFBDF90820BDF90A1014448A4207
:103A8000A8BF0A46BDF90C300F4493421E44A8BF9C
:103A9000134613F5805F09DD574A013DD36883F073
:103AA0001003D360DBD14FF0010901E04FF00009B2
:103AB0001E2000211222FFF7D5F80A25022101223B
:103AC0001E20FFF7CFF8322002F099FF02A8FFF77F
:103AD00049FFBDF90820BDF90A10A41A8A42A8BFFF
:103AE0000A46BDF90C307F1A9342A6EB0306A8BF25
:103AF000134613F5805F07DD3F4A013DD36883F02D
:103B00001003D360DAD101E04FF00009204606F03F
:103B10005DFB0146394806F061FC394D20F000405C
:103B20002860384606F052FB0146344806F056FC41
:103B300020F000406860304606F048FB01463148FE
:103B400006F04CFC20F00040A860002170221E20EE
:103B5000FFF788F8012120221E20FFF783F81E209E
:103B600002210022FFF77EF8642002F048FFB9F13D
:103B7000000F04D14FF07E532B606B60AB60D8F820
:103B800000301B4C1A7B002A2FD01A7D6AB31949CA
:103B900000268A69012542F001028A61187B197D9D
:103BA00001F004FE2368184993F9150002F08CFF18
:103BB0002368164A1B6904A8536104930C238DF8EB
:103BC00015308DF814608DF8165003F0F9FC236859
:103BD00001A85B7D8DF806608DF8043003238DF815
:103BE00005308DF80750FFF779F907B0BDE8F0838D
:103BF0005013002000100240000C014000406F46AE
:103C00001400002001C05E46DD39000800040140B8
:103C1000024640213C20FFF725B870B500EB80003C
:103C2000094CA0F1A1059C3825440444074B15F824
:103C3000010F1E787040FFF7EBFFA542F6D130462A
:103C4000BDE87040E4E700BF30CD00081126002039
:103C500010B5441E14F8010F10B1FFF7DEFFF9E7AD
:103C600010BD024680213C20FEF7FCBF10B5D420D9
:103C7000FFF7F7FF8020FFF7F4FFA820FFF7F1FF21
:103C80003F20FFF7EEFFD320FFF7EBFF0020FFF709
:103C9000E8FF4020FFF7E5FF8D20FFF7E2FF14204B
:103CA000FFF7DFFFA120FFF7DCFFC820FFF7D9FFF8
:103CB000DA20FFF7D6FF1220FFF7D3FF8120FFF7AE
:103CC000D0FFCF20FFF7CDFFD920FFF7CAFFF120AB
:103CD000FFF7C7FFDB20FFF7C4FF4020FFF7C1FF5E
:103CE000A420FFF7BEFFA620FFF7BBFFAF20FFF722
:103CF000B8FFA620FFF7B5FFAE20FFF7B2FF2020E8
:103D0000FFF7AFFF0020FFF7ACFFB020FFF7A9FFE0
:103D10004020FFF7A6FF0020FFF7A3FF1020FFF7CA
:103D2000A0FF4FF48064013C0020A4B2FFF770FFB5
:103D3000002CF8D18120FFF794FFC820FFF791FFF6
:103D4000AF20FFF78EFF012010BD08B55038C0B27C
:103D5000FFF787FF0020FFF784FFBDE80840102031
:103D60007FE710B504465039C8B2FFF77AFF04EB7D
:103D70004400400000F00E00FFF773FF0620604390
:103D8000BDE81040C0F3031010306AE7012828BFD7
:103D900001202DE9F04F0646794F142000FB0671F3
:103DA000784BD1F8A4421E711C60774BD1F8B42235
:103DB000DD69B1F8AC822A43DA61A288B1F8AEA21B
:103DC00022F44072D1F8A852120489B0120C4AEAC7
:103DD0000809A28003A9C5F8109002228DF80E00F0
:103DE00028460193ADF80C908DF80F2001F0F3FCFC
:103DF000019B00971F464FF0080BAA6818EA020FB4
:103E000003D10A2002F0F0FDF7E70A20C5F814807C
:103E100002F0EAFDC5F810800A2002F0E5FDBBF1D2
:103E2000010BEAD1C5F814A00A2002F0DDFDC5F8A7
:103E300014800A2002F0D8FDC5F810800A2002F094
:103E4000D3FD0222C5F810A028468DF80F2003A943
:103E50001C228DF80E20ADF80C9001F0BCFC4B4AF2
:103E60004B4994423A6903A80BBF42F4001242F452
:103E700080023A613A610BBF3A693A6922F4001252
:103E800022F480023A61A38823F440731B041B0CC4
:103E9000A380404B93F800803F4BB8F1000F14BF54
:103EA0009846884623889BB243F001032380A58867
:103EB00003F012FA059A394825F03F05B2FBF0F0FD
:103EC0002D042D0C0543ADB2A580218808EB4803D5
:103ED00021F001010904090C21804FF49671B2FB15
:103EE000F3F301FB00F24FF47A7192FBF1F29BB213
:103EF000002B08BF0123013243F4004392B2228415
:103F0000A3832388009A9BB243F001032380238874
:103F1000002523F4816323F002031B041B0C238080
:103F20004FF480432381142303FB062696F8B13215
:103F3000012403A88DF80C308DF80D508DF80E502B
:103F40008DF80F40FEF7CAFF96F8B0329DF80F20AB
:103F50008DF80C308DF80D508DF80E501AB103A865
:103F6000FEF7BCFF08E05A0903F01F039C4002F172
:103F700020030B4A42F8234009B0BDE8F08F00BF90
:103F800030CD00084C1200200010024000540040C8
:103F9000801A06005801002000350C0040420F0036
:103FA00000E100E0914B70B51A68908A80B2C1B20E
:103FB000CE072ED5118821F400610904090C118067
:103FC000118889B241F48061118000215971997979
:103FD00099B1D97911B9197AFF290ED10121D97175
:103FE000597A022901BF118889B241F40061118018
:103FF000997A41F001011182E2E0997A01F0FE0123
:1040000011821A7AFF2A00F0DB80784AFF21517171
:10401000D6E08D073AD5BFF35F8F587AC0B201283A
:1040200013D1997989B1D97979B1118821F4806155
:104030000904090C1180BFF35F8F118B1188D872AE
:1040400089B241F4007111801BE0118BBFF35F8FC7
:10405000587A664902280AD1887940B1C97931B1C4
:10406000118821F480610904090C1180A2E0587ABA
:104070005E49032805D1887918B1C979002940F033
:104080009980918889B241F4806198E04C0757D5B6
:104090000121D9729979002938D0D979002935D0F0
:1040A000597A1088022959791ED920F480600004B9
:1040B000000C1080148ADD68C8B2E4B249B26C54B6
:1040C0001188DC6889B241F4007111801968821C82
:1040D0005A710A8A0130D2B240B222548A8892B20E
:1040E00042F480628A8026E080B240F40070108042
:1040F000148ADD68C8B2E4B249B26C54128A411C19
:1041000049B2D2B203306A54587114E0D9793748B1
:1041100009B9017C41B1118889B241F40071118063
:104120005A7901325A7106E0118889B241F48071DE
:1041300011800122C27119680A88D205FCD43FE0BF
:1041400001F0400101F0FF04E1B15879168ADD6801
:10415000C4B2611C40B2F6B22E54C9B25D7A597134
:1041600049B2C81C854201BF908820F480600004D9
:10417000000C08BF90805A7A8A4221D11B4A02342F
:1041800054711DE006061BD5597948B2451C0AD06A
:104190005C690131205CC9B21082587A597149B208
:1041A00088420DD106E0197A5C711182997909B9BA
:1041B000597A29B9918821F480610904090C918008
:1041C000597A93F9050001318842084A0CD100213F
:1041D000D171D17A31B111688A8822F44072120407
:1041E000120C8A8000221A7670BD00BF4C1200208B
:1041F0000F4B022210B51A7014225A70FF229A70C7
:1042000000210C224A430B48145C0F2C03D00131CF
:104210001029F6D110BD0244986918B15178407840
:10422000814203D29A6100229A831A6210BD00BFB4
:1042300068120020FCCF000807B51B4A1B4B1C4925
:1042400092F88E2159625AB1012A13D1032083F8C2
:104250002800072083F8290083F82A200C2308E08F
:10426000022083F82800032083F8290083F82A20FD
:1042700007230B700F4A104B40201A6002F07AFBA4
:1042800070B10122002390F9000040218DE80C005C
:104290000A4A4FF4E13302F0F9FA003018BF012066
:1042A00003B05DF804FB00BFA809002068120020DD
:1042B000DC110020356D000820000020856E00080C
:1042C0002DE9F04F8FB0019283460C220E46AA488A
:1042D00000211D46BDF960A007F057FB0021102208
:1042E000A64807F052FBA64AA64B92F800909046CB
:1042F00003F11802B9F1010F94BF99469146A24CFF
:10430000002739460C2284F8487084F8497004F17B
:104310004C0007F03AFB2320C4F8589002F06FFBE2
:10432000752001210DF11702FEF7DAFBA0B1974BC2
:1043300038462365964B0121636506AA432384F81A
:104340004C30FEF7CDFB9DF8183003F07E038DF85E
:104350001830002844D14CE094F85C3063BB8D4A9F
:104360008D4F93694FF4805943F0080393611023F4
:104370008DF822303846032308A98DF82330ADF894
:10438000209001F028FA854AC7F81090138823F08E
:1043900040031B041B0C1380138823F038031B04F9
:1043A0001B0C43F00803138013889BB243F04003B7
:1043B0001380012384F85C307520012108AAFEF7E0
:1043C0005BF99DF82030702B56D1052384F84830D6
:1043D000432384F84C30724B2365724B63654BE08A
:1043E000682B06D1012384F848301D2384F84C3013
:1043F00042E09DF8173003F07E03682B8DF81730EC
:1044000035D10223062084F848300146236D08AADE
:1044100098479DF8251001F001029DF8231001F046
:1044200001014B0043EA82019DF8212002F00103C3
:104430000B430AD05BB2012B01D1002302E0022B17
:104440000ED1012384F8493016E04F4B0C201B6D30
:10445000012107AA98479DF81C3013F00F0303D1E0
:10446000032002F0E7FA07E0042BEAD1E5E7702B1E
:1044700004BF042384F8483094F848200020022A1E
:10448000414B84F85D0009D1474999634749D96395
:1044900047495964012183F85D101BE0012A0BD1C3
:1044A000444983F85D20996340490422D963424915
:1044B00019643F4959640DE0043A012A00F24A8325
:1044C0003E4A9A63394ADA63394A5A64012283F8C8
:1044D0005D2007223A4B3B4999460A701A680291BF
:1044E00042F001021A60384F00233B70082E00F2A0
:1044F000B780DFE806F00BB50B2C73912CA6A60055
:10450000012E40F2B980304B00261E7098F8003022
:10451000012B1CD84FF0000C0EAB03F818CD532024
:1045200061460122CDF80CC0FEF7F8F978B19DF88C
:104530002030DDF80CC0E52B09D1244B84F85EC097
:10454000E362234B236304233B7002238CE094F843
:1045500048200D4B022A41D11E4ADA621E4A1A63D4
:1045600093F84930002B0CBF6F236E2384F834304E
:1045700001233B70032377E094120020A012002057
:1045800013260020BCD0000868120020E12A000891
:104590006D2D000800100240000C01400038004062
:1045A00079260008A526000889280008A924000803
:1045B00090C1793DC526000871240008C527000870
:1045C000D01100203E000020122600202D2E0008D1
:1045D000952B0008F1280008F124000898F8003015
:1045E000012B19D800220EAB03F8182D1C200D2129
:1045F0000122FEF793F978B19DF820302A2B01D0E3
:104600001A2B09D1C84A84F85F30E262C74A0223F4
:104610003B702263042327E000210EAB03F8181D32
:1046200018200122FEF77AF958B19DF82030FB2BB3
:1046300007D1BF4BE362BF4B236301233B700523CC
:1046400012E094F84830BC4A043B012B3FF658AFC7
:10465000BA4BD362BA4B136301233B70082303E0C8
:10466000012E09D900263EE7029A5370D9F800308E
:1046700043F00203C9F8003098F80030012B05D14F
:10468000FEF7A6FCAF4B4FF400525A61042D00F226
:10469000C281DFE815F00500C9016500050087014A
:1046A0000A2002F0ACF97720A021012207ABFEF727
:1046B00035F9002854D01E2101227720FEF7D2FAC6
:1046C0004FF42F6002F090F90026A6F1600100255A
:1046D000C9B2022208AB77208DF820508DF8215006
:1046E000FEF71CF99DF821309DF8202043EA0222B4
:1046F000914B03F1600172520236102EE5D1B3F8EE
:104700006E102A4601F00F0601F47F41A3F86E10E7
:104710002B46012722F001002044B0F86000002859
:1047200018BF0027D50703D5C0B24340082002E0D8
:1047300083EA1023FAE71D0448BF83F4C05301380D
:104740004FEA4303F7D10132102AE3D131437A4AC9
:10475000A4F86E1027B9C3F303339E4200F0D5814D
:1047600094F87050002D40F0ED81764EFEF730FC4D
:1047700028244FF48047304607A9ADF81C708DF807
:104780001E4001F028F84FF40053336120466E4973
:1047900002F09AF90E21022001F008F80823089788
:1047A00008A801278DF825308DF824508DF8267043
:1047B0004FF0030902F004FF06A88DF818408DF8A9
:1047C00019908DF81A508DF81B70FEF787FB142096
:1047D00002F015F9D02177203A4607ABFEF79EF894
:1047E000554C3146002800F0BD809DF81C30A4F8DF
:1047F0009490552B84F88B3040F0B480D1213A4608
:1048000007AB7720FEF78AF89DF81C30772003F07D
:104810000F021B0984F88C2084F88D30162208AB17
:10482000AA21FEF77BF89DF820209DF8213043EA6D
:104830000223A4F874309DF822209DF8233043EA27
:104840000223A4F876309DF824209DF8253043EA11
:104850000223A4F878309DF826209DF8273043EAFB
:104860000223A4F87A309DF828209DF8293043EAE5
:104870000223A4F87C309DF82A209DF82B3043EACF
:104880000223A4F87E309DF82C209DF82D3043EAB9
:104890000223A4F880309DF82E209DF82F3043EAA3
:1048A0000223A4F882309DF830209DF8313043EA8D
:1048B0000223A4F884309DF832209DF8333043EA77
:1048C0000223A4F886309DF834209DF8353043EA61
:1048D0000223A4F8883041F27073A4F8983046F6A9
:1048E0007813A4F89A30194BC4F89C30184BC4F8CC
:1048F000A030184BC4F8A430174BC4F8A830174B9D
:10490000C4F8AC3094F8703043B9FEF725FA42F69B
:10491000E06002F069F8B568C5F38035104B1D7191
:10492000012384F870300DE1772D0008F52A000886
:10493000092E00084F2B0008681200207528000877
:10494000F12400080010014031260008592D00080C
:10495000AD2A0008352D0008612A000895230008BB
:10496000200000207D4A136823F480431360002355
:104970007B48DA0000F1B004A5186E68794DAE42AC
:104980000AD114F93340282C06D183180022C3F829
:10499000B42083F8B02002E00133032BE8D14FF4B8
:1049A00000534B616E4C94F8C850002D40F0C48009
:1049B000142002F024F804F1C9037620D02101224A
:1049C000FDF7ACFF94F8C930582B2DD104F1CC037E
:1049D000882118227620FDF7A1FF7620F4213122CC
:1049E000FEF740F9012384F8C8305F4BA4F89850D3
:1049F000C4F8A0305D4BC4F89C3045F6D813A4F839
:104A00009A305B4BC4F8A4305A4BC4F8A8305A4BC8
:104A1000C4F8AC3090E0012D06D0584B584A9D7038
:104A2000136843F004031360554D4D4C2B6813F08D
:104A3000020F01D0E36A9847A36B58469847514B41
:104A400098F8009003F11802B9F1010F94BF99464C
:104A50009146019F4C4E002333700FB1022F6DD150
:104A60004FF000080EAB03F8188D1E200A2101221A
:104A7000DFF8ECB0C4F8E890FDF750FF98B19DF86E
:104A80002030482B60D1414B0222CBF8EC30404B18
:104A9000CBF8F03003233370384BDA702B6843F0D7
:104AA00008032B6001E080464EE03A4B93F8542116
:104AB0000AB184F85D2093F855210AB136490A708D
:104AC00093F8563103B133702B681B0718D5642651
:104AD0009AFBF6F5284605F079FB074606FB15A07C
:104AE00000B205F073FB2D4905F0C4FB01463846C2
:104AF00005F0B8FA2A4905F0BDFBC4F8F40002E05D
:104B00000023C4F8F430012024E042F21073A2F82C
:104B10009830A2F89A30234B0325C2F89C30224BE0
:104B2000C2F8A030214BC2F8A430214BC2F8A83003
:104B3000204BC2F8AC3070E704256EE7012FB4D9E2
:104B40001F4687E7022568E7012FAED9002786F8C0
:104B5000008085E70FB0BDE8F08F00BF0004014082
:104B60006812002031260008D5210008D72100084E
:104B70001D2D0008CD290008152000083E0000204A
:104B8000D0110020ECD0000814260020FD390008C8
:104B900065390008A8090020122600208988883C71
:104BA000000020412D2D0008512A0008252D000865
:104BB000412A0008D9210008002303604360836074
:104BC000C360036143618361C361036243628362C3
:104BD00070478A6810B50C6A036814430A6923F4A5
:104BE000FF4314434A6923F0700314438A69144352
:104BF000CA6914434A6A14438A6A2243134303600E
:104C0000CB6843600B6883604B68C36010BD00BF16
:104C100070B5064600240B4AA5182B7903F0300323
:104C2000B3420AD1A158084803F038FD28460021B4
:104C300004F04AF8054804F0C5F81434B4F5A07F30
:104C4000E9D170BD48D300082ADC000871E20008F1
:104C50002DE9F04F6A4997B0044606F09FFE694976
:104C6000002820460CBF0125072506F097FE66495F
:104C70000028204608BF022506F090FE002808BF45
:104C80000425E90740F19281604804F09BF8002078
:104C900002F0C2F95E4C5F4804F094F85E4804F0FC
:104CA00091F863795D4E013B56F823105C4803F0A0
:104CB000F5FC5C4803F0F2FC27464FF00008D7F8FB
:104CC00010900021484605F069FC30B1564803F0C9
:104CD000E5FC4F4F4FF000086DE0FB69414653483B
:104CE000D7F814B0D7F818A0079303F0D7FC4846BC
:104CF000002105F05DFC10B1202004F05BF80DA947
:104D0000484603F03BFC0146494803F0C7FC5846BF
:104D1000002105F04DFC10B1202004F04BF80DA946
:104D2000584603F02BFC0146414803F0B7FC5046BF
:104D3000002105F03DFC10B1202004F03BF80DA946
:104D4000504603F01BFC0146394803F0A7FC0798C6
:104D5000002105F02DFC10B1202004F02BF80DA946
:104D6000079803F00BFC08F101080146314803F0F5
:104D700095FCB8F10C0F07F11007A0D1A6E749B2D6
:104D800097F8D02097F8D130009197F8D3102A489F
:104D9000019197F9D4100737029197F9CE1003913A
:104DA00097F8CF100491414608F1010803F076FC12
:104DB000B8F1100F03D097F8D2100029DFD11F48A7
:104DC00004F000F8124B1E4FD3F8089057F8041F58
:104DD00019B11C4803F062FCF8E788461A4B53F8F7
:104DE0002870AFB3012303FA08F313EA090F03D0C5
:104DF0001648394603F052FC08F10108EEE700BFFF
:104E000034DC00083BDC000843DC000849DC000817
:104E1000A809002057DC000869DC000878D10008E8
:104E200075DC000880DC00088DDC00089ADC0008D6
:104E3000C1E20008E7DC0008B2DC0008A2DC0008E0
:104E400090D60008D1DC000894D60008DFDC00080A
:104E5000C84803F0B7FF3946C74B16AACB1893F8DA
:104E600086311344C54A8A5C0131082903F8242C91
:104E7000F2D100230DA9C2488DF83C3003F00EFC9E
:104E8000C04803F09FFFDFF87093A9F1280797F857
:104E9000F2010023BC4A4FFA80FE995690467145B4
:104EA00000F03E810C333C2BF4D108374F45EED156
:104EB000B64803F087FF00260021142211A80DF147
:104EC0002C09D8F83CB006F060FD002148460722C6
:104ED00006F05BFD002318464FEA860A09A90993EC
:104EE0000BEB0A078B80AA4AB7F802E032F813C02E
:104EF0001CEA0E0F0AD00E320DF1580C9A5C00F12C
:104F0000010E604400F82C2C5FFA8EF00133072B61
:104F1000E9D1002318469F4AB7F802E013F802C00F
:104F20001CEA0E0F0AD006320DF1580C9A5C00F103
:104F3000010E604400F8342C5FFA8EF00133062B2A
:104F4000E9D11BF80A308DE802027A789249029280
:104F500011A81A0903F00F0303F08AFB31468F48AA
:104F600011AA013603F09AFB202EA5D18C4803F03C
:104F700029FF002694F8AF12B4F8AC2294F8AE32B0
:104F8000884800913146013603F088FB102E04F169
:104F90000404EFD1844803F081FB0020FFF738FEC2
:104FA000824803F00FFF824801F0AAFBAA0740F1F4
:104FB000A380804803F006FF7F4803F003FF6E4B99
:104FC0007E4893F8B41703F069FB7D4803F0FAFEBE
:104FD00000266D4C1921206C00EB860090F87B7048
:104FE00090F879204F4307F5617790F87A30009771
:104FF00090F87C00414301F561710191714831469F
:10500000013603F04BFB142EE3D16F4803F0DAFEB8
:105010000026216C062303FB061191F8CA701920A3
:10502000474307F5617791F8CE2091F8C930009792
:1050300091F8CB70C831784300F561700190087920
:1050400002904979614803913146013603F026FB0D
:105050000C2EDED15E4803F021FB474F002631467F
:10506000B7F8C221B7F8C4315A48013603F016FB2D
:10507000042E07F10407F2D1574803F0A3FE0026DF
:10508000216C0E2303FB0611B1F91D71B1F9192131
:10509000B1F91B31009791F8207101F58C700197DF
:1050A00091F8217101F59071029790F90700039032
:1050B00091F90210494804913146013603F0EEFAA5
:1050C000082EDDD100274FF00E0808FB07F8002658
:1050D000626C01234244D2F80A20B340134240D10B
:1050E00001360E2EF4D10137082FECD12E4803F0F3
:1050F000D5FA1020FFF78CFD6B0738D5384803F040
:1051000061FE384803F05EFE374B3848197803F0EB
:10511000C5FA254803F0C2FA2020FFF779FD26E002
:1051200097F8F70197F8F63106EB8000D0F88C007D
:10513000B7F8F421009097F8F90106EB830306EB2A
:105140008000D0F88C00D3F88C30019097F8F801EB
:1051500006EB8000D0F88C000290254803F09EFA00
:10516000A3E639463246234803F098FAB8E717B069
:10517000BDE8F08FECDC0008A80900203DDA00084B
:10518000F8DC000801DD00086013002010DD0008D5
:10519000E0D10008F5D100081CDD00082BDD000877
:1051A00037DD000845DD000871E2000859DD000820
:1051B00081DF000866DD000879DD000849DE0008AF
:1051C00087DD000891DD0008A6DD0008B5DD0008D8
:1051D000D5DD0008E3DD0008F6DD000802DE00088A
:1051E00022DE000833DE0008DE11002045DE000864
:1051F00056DE000875DE0008D00900208379DB0741
:1052000048BFB1FA81F1D0F8343148BF49095A6832
:105210001B8909B1136170475361704710F80A3C4C
:105220000133DBB20A2B84BF10F8131C044A00F8C8
:105230000A3C82BF002322F8113000F80A3C704774
:1052400054220020334A70B5136C9068194440F61C
:105250008C23081A98429160D060516013463BD964
:10526000127893F9451010468A420BD1111F082974
:1052700008D893F84610182901D8013103E083F8C3
:10528000442002E0002183F8461093F9444021496C
:10529000A24219D191F84740B4B10C310024944294
:1052A00006DA51F8046F1C4D25F814600134F6E756
:1052B0000C2805D01849002421F810400130F7E7E8
:1052C000164801780131017083F845200022012140
:1052D0001A7083F8471070BD92F84710C9B140F2B8
:1052E000DA51A0F2EF248C4208D811780B2905D8A6
:1052F0000B1D0131117042F8230070BD002283F8AC
:105300004720074B03F13002002143F8041F93426A
:10531000FAD170BDAC01002054220020B41300204B
:10532000B8010020024A136C01331944116470471C
:10533000AC010020024B53F820301B6819807047E5
:1053400010250020074BA1F57A7153F820301A6818
:105350001B8959434FF47A7391FBF3F189B21180A1
:10536000704700BF1025002038B50D4B0D4D9968D2
:105370000D4B1A681C465288114203D001F018FBED
:10538000686007E001F014FB6B68984282BFC01AA6
:10539000064B186023685A68054B5A6138BD00BF38
:1053A000000C0140B413002050040020280000200D
:1053B0000004014090F83B3210B57BB990F83A32C6
:1053C00090F83942A34209D2B0F8401201229A4023
:1053D0000A430133A0F84022DBB2F3E710BD1FB54A
:1053E0000123ADF80830ADF80410002301A9ADF891
:1053F0000A30ADF80C30ADF8062001F0CEFF05B054
:105400005DF804FB10B5A0F5127494F83C22BAB90B
:10541000A36A616A994228D0591CA069A162C35C41
:105420002069DBB25B0043F400738142A4F83E3292
:105430004FF00A0384F83D3228BFA262012312E034
:1054400094F93D327BB1B4F83E1220464B08A4F8E3
:105450003E3201F00101FFF7D1FE94F83D32013BED
:1054600084F83D3201E084F83C3294F83832002B65
:105470004ED194F839320133DBB2092B84F839323A
:1054800003D12046BDE8104094E70A2B40D194F8A0
:105490003B322BB9B4F8403243F00103A4F8403258
:1054A0006379D9071CD5B4F84002820501D4C3073B
:1054B00005D4B4F844320133A4F8443210E0E36A6E
:1054C000C0F347000BB198470AE0E3696269D05422
:1054D000E369E1680133B3FBF1F201FB1233E361ED
:1054E000012284F8382294F83B220023012A84F810
:1054F00039320DD1A27984F83B32236B12F0010FBF
:105500001868997A0CBF02220022BDE8104066E7B5
:1055100010BD1FB50123ADF808300023ADF80C30E5
:10552000ADF80A30084BADF804101B7801A9012B27
:1055300008BF0323ADF8062008BFADF80C3001F01A
:105540002CFF05B05DF804FBA801002038B510F869
:105550000E2C044650F8043C52B9012200F80E2CDF
:1055600020F80C1C997A18680222BDE83840D0E770
:1055700030F80C2C20F80A1C891A89B220F8081C73
:10558000074A10F80F0C002522F8101004F80E5CE2
:105590001868997A2A46FFF7BCFF04F8065C38BD04
:1055A00054220020044B53F820301BB107289CBF25
:1055B0001B681980704700BFD4020020D4E6D3E6F0
:1055C000D2E6084A13689B020BD5074B00211970DD
:1055D0004FF6FE730549086803400B604FF4001353
:1055E0005360704700000240152600206C00024006
:1055F0002DE9F047664DAB686649581C0A788E461F
:1056000002F0FF060AB10346F6E73746AB60687D55
:105610002B6995F81480AA7D39B2202900F09C806E
:10562000DFF880C10CEB8103DC789B783CF821101B
:10563000C3F1FF039BB2002B65D04FF03C0CB1FBD4
:10564000FCF9C3F1FF0363431B12B9F1050F5DD8E9
:10565000DFE809F0030B1A293A4AE01A4143B1FB8B
:10566000FCF0DAB21044C0B251E0B1FBFCF00CFB2C
:10567000101189B2DAB2C1F13C01E31A4B43B3FB1A
:10568000FCFC204694442CE0B1FBFCF00CFB101118
:10569000E21A89B24A43B2FBFCF25FFA83F8424451
:1056A000D2B2204632E0B1FBFCF90CFB191189B2F1
:1056B000E01AC1F13C014843B0FBFCF05FFA83F80B
:1056C0004044C0B2224621E0B1FBFCF80CFB1811AB
:1056D000D8B289B2E31A01FB03F2B2FBFCFC22460A
:1056E00084445FFA8CF412E0B1FBFCF80CFB181157
:1056F00089B2D8B2C1F13C01E31A4B43B3FBFCF2CF
:105700000244D2B203E02246204600E044464FEA7B
:10571000042C4CEA004C4CEA020C17234FF0010811
:1057200008FA03F806F1170118EA0C0FA1EB0301C0
:10573000DFF8748014BF4FF011094FF0090989B2E6
:1057400013F1FF3308F80190E8D218360137B6B2EA
:10575000BFB2114BA0465FE72B6101238EF80030EA
:1057600040F22A33AA750D4AE9810D4985F8148063
:105770006875AE81536000238B840B889BB243F025
:1057800001030B80136843F001031360BDE8F08749
:10579000B413002015260020C81300206C0002401E
:1057A00000040040880700205D04002001F003038E
:1057B00001F0FC0101F1804101F5803110B59B0041
:1057C0008C680F229A4024EA02028A608A68984014
:1057D00002438A6010BDF0B5B1F800E000234EFA34
:1057E00003F2D50725D58E784FEAD30CF40648BFCF
:1057F000CC7806F00F0203F0070748BF2243BF0032
:1058000050F82C500F24BC4025EA0404BA4022432F
:10581000282E40F82C2005D1C46801229A4024EAA1
:10582000020205E0482E04D1C46801229A402243B6
:10583000C2600133102BD2D1F0BD2DE9F04F1E46CE
:105840004FF414734343554D85B005F11804804659
:105850009146E718A24610B92B44514A03E00128AB
:1058600005D1504A2B449A641032C3F84C214FF4AE
:10587000147303FB08F34C48EC180AEB030203F51E
:105880009C7334325344A0616164E262236300225A
:105890004FF480714FF0010BD4F84C31032061625A
:1058A000A2636263A1622264E26384F8542284F8F2
:1058B00050B284F85122A4F85A22A4F85C22C4F809
:1058C00020906077A67784F85E8258681B8904F57B
:1058D000A4724FF0020CADF80C3003A91023019212
:1058E0008DF80E308DF80FC0CDF800C0FFF773FFB4
:1058F000A36CDDF800C0597B58681B898DF80E1029
:1059000003A9ADF80C308DF80FC0FFF764FF5946BE
:105910003846FFF773FC322001F071F8234B019AEF
:105920001B68D2F804B01A46B2FBF9F1B1F5803F1A
:1059300003D3012AF8D95208F6E71D4A4FF414742C
:10594000B3FBF2F204FB08F8584689B2D2B202F077
:105950009FFB05EB0809174B08F512780AEB0804C2
:105960000022C9F860325846214602F0D9FBD9F826
:10597000485016F0010F0CBF022200222868A97AB5
:10598000FFF72DFD0C4B2846C9F86432211D00227B
:1059900002F0C6FB384605B0BDE8F08FB413002016
:1059A000C8D70008E8D7000824D200084400002027
:1059B00040420F0005540008D55E00082DE9F7436A
:1059C0008E460546DFF8A092114699F8B844006863
:1059D000164698467246631C89F8B83402F004FBF8
:1059E0002B8901A9ADF8043018238DF806306868BA
:1059F00002238DF80730FFF7EEFEAB7A09F2BC47C1
:105A0000240127442A6849460C2B00F2F680DFE87F
:105A100013F00D00F400F400F4005100F400F40061
:105A2000F4008A00F400F400F400C200138CDFF8E4
:105A30003CC223F001031B041B0C1384138CB2F82B
:105A400004E0108B624520F073004FEA00404FEAFB
:105A500010409BB21FFA8EFE40F0700014D00CF57F
:105A6000006C624510D00CF5406C62450CD00CF512
:105A7000806C624508D00CF5806C624504D023F040
:105A8000020343F0030307E023F00E032EF4407EED
:105A900043F003034EF4807EA2F804E01083A2F8E2
:105AA00034801384138B23F008031B041B0C43F076
:105AB000080336E0138CDFF8B4C123F010031B0495
:105AC0001B0C1384138CB2F804E0108B624520F495
:105AD000E6404FEA00404FEA10409BB21FFA8EFEAC
