:020000040800F2
:1000000000500020C1D9000861DA000861DA000858
:1000100061DA000861DA000861DA00080000000017
:1000200000000000000000000000000061DA00088D
:1000300061DA00080000000061DA0008EF820008C1
:1000400061DA000861DA000861DA000861DA0008A4
:1000500061DA000861DA0008AD590008AB59000800
:1000600061DA0008FD82000861DA000861DA000840
:1000700061DA000861DA0008C1B4000861DA00083A
:10008000AF59000861DA000861DA000861DA000897
:1000900061DA000861DA000861DA0008A95900088D
:1000A00061DA00088DB2000861DA00089DB200082C
:1000B00081B2000871B2000861B2000875490008F9
:1000C000794900086D4900087149000861DA0008A3
:1000D00061DA0008B5B40008A9B400089DB40008AE
:1000E0000183000861DA000861DA000800000000FE
:1000F0000000000000000000000000000000000000
:0C01000000000000000000005FF808F1A3
:100110002DE9F04F834B844C9FB0C4F898300023F6
:10012000C4F89C3006F012FF18B906F031FF09F050
:1001300061FA09F005FB94F8A0307C4D43F001030F
:1001400084F8A03000230B930C930D934FF4E0132D
:100150000E93774BA87B99461A6842F480321A6056
:100160009A6942F010029A61D9F8003003F4003322
:100170000C930B9B01330B930C9B1BB90B9BB3F59F
:10018000A06FF1D1D9F80030694913F4003301D0E0
:10019000022317E00A6842F001020A600B93D9F8C3
:1001A000003003F002030C930B9B01330B930C9B69
:1001B0001BB90B9BB3F5A06FF1D1D9F800309A07AA
:1001C00041D501230D935B4B5B491A6842F0100245
:1001D0001A601A6822F003021A601A6842F00202DA
:1001E0001A60D9F80430C9F80430D9F80430C9F8D5
:1001F0000430D9F8043043F48063C9F804304F4B1D
:100200001A68043B22F070425A604D4A1160D9F8D6
:10021000041021F47C11C9F80410596841F0004120
:100220005960D96821F40041D9609B681B0449BF1B
:10023000444B4FF4E01313604FF480130E930D9B67
:10024000012B01D118E0FEE7022B1BD168B10E9BF8
:10025000B3F5801F02D14FF4A01305E00E9BB3F558
:10026000E01F02D14FF400130E930E99D9F8043019
:100270000B4343F4803303E0D9F8043043F46013B4
:10028000C9F80430D9F8003043F08073C9F8003061
:10029000D9F80010264B8F01FAD5596821F00301D7
:1002A0005960596841F002015960D9F8043020487A
:1002B00003F00C03082BF8D14368234903F00C0327
:1002C000042B03D0082B03D01B4B12E0136810E063
:1002D00043684668C3F38343F60303F1020301D482
:1002E0001A4805E0406810F4003F106818BF400845
:1002F00043430B60D9F804301548C3F30313034498
:1003000093F878000B68C3400B60EB7B003318BF99
:10031000012384F8A1301368074A93421AD10122BD
:100320001CE000BF9B910008B80000207C22002048
:10033000001002400020024000127A000410014028
:1003400030000020001BB7004800002000093D00DD
:10035000B42D0108984A934202D10222974B1A7099
:10036000DFF8B0A2964BDFF8B0B2CAF80C30D9F87B
:100370001830944E43F00103C9F81830D9F82430EE
:100380000027C4F8A430D9F82430584643F08073CD
:10039000C9F82430D9F818304FF0100843F01C0386
:1003A000C9F818301EAB03934FF6FF73039A8DF80C
:1003B0004E7022F82C3D1146039205F024FB304686
:1003C000039905F020FB8048039905F01CFB0223EC
:1003D0001EAA8DF847304FF4007322F8343D069280
:1003E00006998DF846805846CBF8103005F00BFB87
:1003F000764A0398536843F0007353600AF038FD5F
:10040000734A139B3946B3FBF2F3724A7248136086
:1004100018220FF090FA714B4FF47A721B68DFF8D4
:10042000CCC1B3FBF2F36E4A013B5360F0238AF870
:100430002330072397601360AB686A4A039FDFF895
:10044000DCA113609AE80F0087E80F00D9F8183094
:10045000CDF810C043F00803C9F81830D9F81830A7
:10046000139843F00803C9F818300823336114A91E
:10047000C6F8108005F0C7FA159816A905F0C3FA5A
:10048000584BCDF814B01B68564F13F0080FDDF829
:1004900010C013D09CF88E31012B0FD8524A9CF813
:1004A0008F31D2F8A42012F0805B00F00D8505E0BA
:1004B0004E4B002283F88F2109F013FB642007F0D4
:1004C0000CFFA0224A4800210FF035FAD9F81C3061
:1004D000002243F00703C9F81C30D9F8183043F460
:1004E000006343F00C03C9F818303F4B4FF000088D
:1004F00003F1A80102F8018001320E2AF5D1FF2292
:1005000083F8B62083F8B72083F8B82083F8B920A1
:10051000384A394B41461A6038483C223E680FF051
:100520000AFA4146C6F380170520354BDFF8CCE0C8
:10053000CA5C0C234B4303F80E2047B91E3A012A2C
:100540009FBFFF2200F1FF3003F80E20C0B201313F
:100550000529EAD12B4B95F805A018702A4BB10656
:10056000C4F8BC3003F1C003C4F8C030274B1E4AA6
:1005700003EBCA035B7848BF0123C2F8C4302448A8
:1005800000211C2284F8BAA00FF0D5F916F400530C
:10059000DFF88CB006F400680AD1B8F1000F41D042
:1005A00095F882110BF10C02012908BF5A463BE075
:1005B000CDF810B039E000BF001BB7000E2C0020B2
:1005C0000005FA05000C0140001001400000014048
:1005D00040420F008C1B0020C41A0020480000205D
:1005E00010E000E054220020B80000207C2200200F
:1005F0001C1C00206C240020DC1A0020C0080020F5
:10060000634C0108BD0800208C2200200C43010827
:100610008001002000ED00E0000801403C2E0108B0
:10062000B42D01080BF10C020492BC4ABAF10E0F72
:100630001192049A5288ADF84820049A1288ADF8B5
:100640004A20069AC4F8E02004D00AF0EF0ABAF172
:10065000080F02D1012284F8DA200120069307F066
:10066000CFFD069BC6F34002003318BF012384F878
:10067000C830C6F3C03384F8CD0084F8CE2084F8A7
:10068000D07084F8CB30B8F1000F07D095F8828194
:1006900008F1FF37D7F1000848EB0708C6F300431D
:1006A00084F8D130C6F3402384F8D230D4F8C43073
:1006B000B5F84401003318BF012384F8D330C6F3E2
:1006C000005384F8D430B5F84631A4F8DE00A4F81D
:1006D000D830F004B5F8523148BF9148A4F8D6306C
:1006E000C6F3804306F00101C6F3C00284F8CF30A0
:1006F00048BFB0F84C61B5F8503148BF8948A4F8FC
:10070000DC3048BFA0F8DE60B3F5FA7F84BF002379
:10071000A4F8DE3095F8D231834884F8E430002321
:1007200084F8E530437094F8DA3084F8CC80002BFC
:1007300084F8C91084F8CA200CBF0023022301B931
:1007400002B101330BEB830BDBF898304FF0000B59
:100750009A1E1A3306920793069B33F8024F0693AC
:100760004FF6FF739C4200F08B816E4FE3B297F817
:10077000CD20240AE5B2B8461AB19A1E012A40F2E9
:100780007A8197F8D02032B168491A018958684AAD
:10079000914200F0708197F8D10030B163491A019D
:1007A0008958634A914200F0668197F8CE2052B191
:1007B0005E49059E01EB03114A68B24203D10A89E2
:1007C000102A00F0588197F8CB2052B15749059E66
:1007D00001EB03114A68B24203D10A89022A00F0F0
:1007E0004A8197F8CC2052B150494C4E01EB03118D
:1007F0004A68B24203D10A89022A00F03C81D7F844
:10080000E0608EB1494A02EB031EDEF80410326844
:10081000914209D1BEF80820B188914200F02B81A5
:10082000F188914200F02781022C02D197F8C8206C
:1008300003E0012C04D197F8C920002A00F01B81A5
:1008400097F8D320394C1E0162B1364A92F8DA206B
:1008500042B9A3F10802012A04D8A25935498A42B3
:1008600008BF042597F8D42034445AB12D4A92F891
:10087000DA203AB910B10C3B012B01E0043B032B09
:1008800040F2E280012D5DD1DFF8A0A0FF2387F8C0
:100890002C3187F82D310AEB060303F1080C5A7B43
:1008A00058681B894FF00008ADF84C3013A902239B
:1008B00087F83081C7F83C418DF84F30CDF820C023
:1008C0008DF84E2087F8E880C7F8EC80C7F8F080F4
:1008D000C7F8F480C7F8288187F82E8187F82F8120
:1008E00005F091F8DDF820C05AF806009CF80210D7
:1008F000424605F004F8204641462A460AF02AFD01
:100900000D4B0E49C7F840310D4BC7F84881C7F869
:10091000443120460A1D0AF065FDACE0000C0140A0
:100920007C220020B80000209D0100202C420108FC
:1009300000040040002C014039560008F801002056
:1009400019570008022D49D15FFA8BF24FF01C0CA9
:100950000CFB02FCB94B002703EB0C0808934FF08B
:10096000010388F83031B64B88F831B19A19517BC0
:10097000506802F1080A12898DF84E1088F8327119
:1009800013A988F83A71C8F83C41CDF824C0ADF8F5
:100990004C208DF84F5005F036F8A94B9AF802100C
:1009A00098593A4604F0ABFF2046394601220AF036
:1009B000D1FCA449089BDDF824C0C8F84011A24925
:1009C0006344C8F8441103F5A071C8F84871204683
:1009D0000A1D0AF007FD0BF1010B4CE0032D31D18C
:1009E00097F8CF20954B97F8E660984D2AB12046AE
:1009F00008214FF6FF72002318E0B3F8DC20B3F8AB
:100A0000DE30B2F5FA7F0BD991492046B1FBF2F204
:100A1000082192B205F0EAF88E4B45F826000AE06C
:100A20008D492046B1FBF2F2012192B205F0DEF8C9
:100A30008A4B45F82600C36097F8E630013387F803
:100A4000E63018E0042D16D1B7F8D620824B2046A8
:100A500093FBF2F20121B7F8D83092B297F8E55043
:100A600005F0C4F897F8E53008EB85080133C8F8BD
:100A7000100287F8E530069B079A93427FF46CAE2C
:100A8000774F3B6813F4802F6C4B02D1012283F81F
:100A9000302293F8A020734D42F0040283F8A02086
:100AA0002B784FF48052022B34BF142310238DF87F
:100AB0004E304FF002038DF84F30D9F81830ADF8B2
:100AC0004C2043F00403C9F8183034BF002401243B
:100AD000654813A904F097FF644B0CB1644A00E029
:100AE000644A00201A6007F00DFC634B634C93E8E6
:100AF0000300039B4FF0030883E80300D9F8183084
:100B0000139843F00803C9F8183014A904F07BFFC8
:100B1000D9F81C30204643F48043C9F81C30D9F87A
:100B20001030039943F48043C9F8103018238DF82E
:100B30004E304FF42043ADF84C304FF0040A8DF89E
:100B40004F8004F060FF4FF48043204603994FF438
:100B50008056ADF84C308DF84EA004F054FF1023B1
:100B6000039920468DF84E30ADF84C6004F04BFFF1
:100B7000D9F81030424A43F48043C9F81030D9F80C
:100B80001030322023F48043C9F81030138803F466
:100B9000415343F4457343EA08031380938B23F4D2
:100BA00000631B041B0C93830723138213889BB2DF
:100BB00043F0400313809F2326618DF840300023CB
:100BC0008DF841308DF842308DF8433007F085FBC9
:100BD00052466661039810A909F032FD26619DF81E
:100BE0004E309DF84D201B0243EA02439DF84F20F2
:100BF0001343244A934212D0322007F06EFB666101
:100C0000F52009F053FDFF2009F050FD7028266102
:100C100005D12B78022B04BF124B83F800802B7870
:100C2000032B0CBF1F20022007F0BEFA2B78032BEA
:100C30002AD0012005F094FB2BE000BFB800002073
:100C40002C4201083959000811560008BC1C00202C
:100C500000127A003957000840420F002957000857
:100C6000542200200E2C002000080140F82B002008
:100C70005D7D0008717D00085C2E0108000C0140BC
:100C80000038004015202000022007F0B9FA0028A3
:100C9000CFD095F80080A64D4FF0100A28460021CD
:100CA00052463C680EF047FE4FF6FF73ADF84030F9
:100CB000022304F4004704F400664FF000091C40CE
:100CC0008DF842308DF843900DD09A4810A9ADF8B8
:100CD00040A009F05DFB04232B700124072385F855
:100CE0000190AC70EB7077B10223924810A9ADF877
:100CF000403009F04DFB0123E2182B71AB71072343
:100D00006C71EB71D4B2B8F1010F0FD9202389486F
:100D100010A9ADF8403009F03BFB052301222B72EE
:100D2000AA72631C07226C72EA72DCB27EB10223E3
:100D3000814810A9ADF8403009F02AFB09230122AF
:100D40002B73AA73631C07226C73EA73DCB27B4FAC
:100D50007B487B68002643F440437B607B6943F01B
:100D600001037B61BB6943F40073BB610AF008F8BF
:100D7000744B012C1393744B0397149394BF334615
:100D8000802318934FF4807319934FF48063A7F670
:100D9000F8771A93202313A91B9338464FF4005376
:100DA00016941C93159617961D9609F0CBFF3B6879
:100DB000664A43F001033B605368012C23F470231F
:100DC00094BF0021012123F4807343EA012353607F
:100DD00091685F4B013C0B4043F4602343F00203F6
:100DE0009360D36AE4B223F4700343EA0454D462F8
:100DF0000123AA199178002951D0A85D591C09280E
:100E0000C9B2D278514F10D9A0F10A04D7F80CC05A
:100E100004EB44044FF0070E0EFA04FE2CEA0E0E0B
:100E2000A2404EEA0202FA600CE03C6900EB400C82
:100E30004FF0070E0EFA0CFE24EA0E0402FA0CF232
:100E400022433A61062B414C0CD8013B676B03EB04
:100E500083031F229A4027EA020200FA03F3134396
:100E600063631BE00C2B0CD8DA1F276B02EB8202AA
:100E70001F23934027EA030700FA02F33B4323634F
:100E80000CE0A3F10D02E76A02EB82021F239340FC
:100E900027EA030700FA02F33B43E3620B460436FA
:100EA000102EA6D1294B9A6842F480729A609A68F3
:100EB00042F001029A609A6842F008029A609968CA
:100EC000224A090746D5FAE7013B092B3FF6F6AA65
:100ED000039BDAF86400C6F8148019461860059878
:100EE00004F091FD059B3C201A460823136107F08E
:100EF000F4F9C6F810805E4695F88F319E42BFF631
:100F0000D7AA059BDFF830A04FF00808CAF8108078
:100F10007820C3F8148007F0D5F9059BCAF814802F
:100F20007820C3F8108007F0CDF90136E4E700BF60
:100F3000CC29002000080140000C014000100240B4
:100F4000080002404C240140DC290020002401401C
:100F5000FDF7F1FF936843F004039360B34B9A6885
:100F600012F0040BFAD19A6842F4A0029A60B04BD6
:100F7000B3F85801002841F05182B3F95A21002AF0
:100F800041F04C82B3F95C31002B41F04782A94B10
:100F9000A94D1B68A64C13F4003F23D0C820B4F819
:100FA000406707F09AF9AE2005F0D5F908B104F0D2
:100FB000C1FF85F83102C82007F08FF9A5F8386223
:100FC0009E4E9F4B00210C223046C5F834320EF065
:100FD000B2FC0223F37007F01BFD07F057F9994BA1
:100FE0000344B360B4F860310021059394F867318D
:100FF0000C220693944B95481B6894F85E61B3F8F5
:10100000563094F868410793914F0EF094FC0021FC
:10101000102290480EF08FFC8F4B97F8009003F150
:101020001802B9F1010F94BF99469146DFF8088282
:101030004FF0000A51460C2285F83AA208F50F70CD
:1010400088F83BA20EF077FC2320C5F8489207F001
:1010500044F9752001210DF12B0203F0B5FAB0B16E
:101060007E4B5046C8F840327D4B0121C8F84432CF
:101070000FAA432388F83C3203F0A6FA9DF83C30CF
:1010800003F07E038DF83C30002848D150E098F8FA
:101090004C3273BB039B039A9B69DFF8EC9143F0DE
:1010A0000803936110238DF84E304FF4805A0323C8
:1010B000484613A98DF84F30ADF84CA004F0A3FCBE
:1010C000684AC9F810A0138823F040031B041B0CC6
:1010D0001380138823F038031B041B0C43F0080310
:1010E000138013889BB243F040031380012388F8D8
:1010F0004C327520012113AA03F032F89DF84C30D0
:10110000702B5AD1052385F83A32432385F83C32B7
:10111000554BC5F84032554BC5F844324DE0682B6D
:1011200006D1012388F83A321D2388F83C3244E086
:101130009DF82B3003F07E03682B8DF82B3037D1D0
:101140000223062085F83A320146D5F8403213AA28
:1011500098479DF8511001F001029DF84F1001F0E1
:1011600001014B0043EA82019DF84D2002F001038A
:101170000B430AD05BB2012B01D1002302E0022B0A
:101180000FD1012385F83B3217E02B4B0C20D3F80D
:101190004032012110AA98479DF8403013F00F0308
:1011A00003D1032007F0F8F807E0042BE9D1E4E7C6
:1011B000702B04BF042385F83A32002385F84D32A2
:1011C00095F83A321C49022B0BD1224A284810606C
:1011D000284850602848D060012281F84D2200F054
:1011E00009BE012B0DD11B4A244881F84D321060F5
:1011F000204804235060224890601F48D06000F0CF
:10120000F9BD043B012B0CD8124B1E4A1A60194A37
:101210005A60194ADA60012381F84D32072300F041
:10122000E9BD012007F0B8F8A3E000BF00240140A9
:101230007C22002054220020B8000020D804002086
:1012400002240020404B4C0038080020242B0020B2
:101250000E2C00204C2B0020CC2D0108C945000885
:101260005548000800380040614100088D410008E1
:10127000714300082D40000890C1793DAD41000840
:10128000F53F0008AD420008000C0140012C41F080
:101290007780B64E33689B0702D5B54B1B689847DD
:1012A000B44B05981B689847B34B069C1F78B34B0B
:1012B00003F11802012F94BF1F461746B04A0023BE
:1012C00013709046002C41F06480AE4A4FF0000944
:1012D0001EABC2F8C07203F82C9D1E200A21012209
:1012E00003F090F8002801F058809DF84C30482B0E
:1012F00041F01B81A44BA54A1A60A54A5A600323FA
:1013000088F80030A34B0222DA70336843F00803F8
:101310003360A14B93F8542112B19A4981F84D22C0
:1013200093F855210AB19D490A7093F856310BB1D3
:1013300088F8003033689A4E13F0080F01F02F80C0
:10134000BDF91C80642798FBF7F420460BF03AFDAA
:10135000814607FB148000B20BF034FD91490BF07D
:1013600085FD014648460BF079FC8F490BF07EFD68
:101370003060844C102294F8A0300A2643F0020317
:1013800084F8A030894B5A6108221A61874F1920CE
:10139000FB68013E83F01003FB60FB6883F00803E9
:1013A000FB6006F09AFF012006F0ACFF192006F062
:1013B00094FF002006F0A6FF16F0FF06E6D10823F2
:1013C0003B611026694B3E611A68059312F0080FC5
:1013D00007D06D4B7E611B689847754B01223E61BB
:1013E0001A70D5F8C432734E187B0BF0EBFC7249BF
:1013F0000BF03CFD08F0F4F8074630880BF0E2FCF7
:1014000039460BF033FD0FF0C7FEA5F8C80230884F
:101410000BF0D8FC014669480BF0DCFD68490BF085
:10142000D9FD544BC5F8CC026349D8680BF01EFDBA
:1014300064490BF01BFD584E634FB6F84E31002245
:10144000A5F8D832614BC5F8D0021A809A70386876
:1014500085F8E022B6F8942106F5C371C5F8D412D8
:1014600000F17903C5F8DC121FFA82FEDFF87CA1D7
:101470005749DAF800C0DFF878810CF5967C21F83E
:101480001BE048F82BC00BF1010BBBF1120FEDD1A3
:10149000DFF860C100F1C908DCF800C01CF4805F0F
:1014A00008BFB6F89AE1A1F806E01878D8B998789C
:1014B00093F803E0704516D238B1013800EB800094
:1014C00000EB800000F5617E07E00EF1010E0EEBEF
:1014D0008E0E0EEB8E0E0EF5617E58781FFA8EFE84
:1014E000043021F810E004334345DED11CF0080F2E
:1014F00000F0048196F88E11062900F2F880DFE8EA
:1015000001F004070E7B96B6B60045F2F05301E0F9
:1015100042F6F823A4F82C3309F0D2FBE6E042F6B9
:10152000F8231201A4F82C330A2392FBF3F20023D0
:10153000A2F5B062274941F823200133122BF9D1DB
:10154000254A264940201160254A137006F07CFE8A
:10155000002800F0CC8001234FF0070990F900002B
:1015600040218DE808021F4A1F4BBAE01C080020EA
:10157000242B00204C2B00200E2C0020FC2D0108D9
:101580000D2C0020B80000209404002039610008D0
:10159000A1600008410000207C2200200C2C0020CB
:1015A0002C0500208988883C00002041000C014067
:1015B000E40400201800002035FA8E3C0AE81C41A3
:1015C00000401C46BD37863538080020B81F002073
:1015D00058220020241E00202C000020F79B000829
:1015E000002A002075A00008A0860100E41F00204A
:1015F0009C0300205422002042F6F823814AA4F8DC
:101600002C33814B40201A60804B10221A7006F058
:101610001BFE00286BD001234FF0000890F900005A
:1016200040218DE808017A4A4FF4E13359E042F64F
:10163000F823784AA4F82C33734B40201A60734B7C
:1016400008221A7006F000FE002850D001234FF047
:10165000000C90F9000040218DE808106E4A4FF40C
:10166000E13306F0FEFE6D4BC3F830033BE042F67B
:10167000F823A4F82C33654B0C22DFF8D8E1684836
:101680001A7006294FF000038EF8003003700CD05A
:1016900064494FF4E1380B70634B1B211970634BA5
:1016A0001A70634B05221A700AE05E48DFF8A881C1
:1016B00003705D4B212018705C4B1A705C4B1970E5
:1016C0005C4A514B40201A6006F0BEFD78B1012300
:1016D0004FF0000E90F900008DE808404346564A4E
:1016E000402106F0BEFE003018BF012030B9B368BB
:1016F000524A23F00803B360434B1A60504A136800
:10170000934613F4804F414A1FBF122111704D4878
:101710003D4918BF086042F20101194099B144F6F1
:1017200020619804A4F82C1341BF08211170464889
:10173000354948BF0860D90741BF0C2111704348A3
:10174000314948BF086011781B06A1F104015170AE
:1017500040F19080314B4FF00008DFF8009103F525
:101760005670414615220693C4F8349384F83983A1
:10177000C4F83C83C4F840830EF0DDF8A9F10502FB
:101780004046C4F8702309F013FCDAF80020022068
:10179000C4F8442306F058FD069B70B393F8393320
:1017A00090F805E02A490C2202FB031292F8B120BE
:1017B000724504D00133DBB2042BF3D9002384F843
:1017C000393396F8EB3194F83923002B4FF00C03A2
:1017D00003FB021314BF4FF0030E4FF0010E002263
:1017E00090F9000093F8B130CDF800E001920221A9
:1017F00006F037FEC4F8740390BBB36823F080038F
:10180000B36030E0F39B00082C000020002A002089
:10181000C99F0008EF9B00087D9F0008B8000020CA
:101820001D1F00201C1F00201E1F0020211E002045
:101830001F1F0020359B00085D9E0008499C000882
:1018400054220020259C0008399C0008299C00088F
:10185000B42D0108221E002090D003006C2400202B
:10186000012009F0A5FB386800F5C573C4F878338A
:1018700009F0EEFB049B039AC5F87C33039B4FF001
:1018800004099B69AC4843F001039361049B0FA9D1
:101890001B888DF83E90ADF83C3003238DF83F3027
:1018A000039304F0B0F8049BA3485A880FA9ADF83D
:1018B0003C208DF83E9004F0A6F8049B0120197A94
:1018C00004F08CF8049B9D495A684FF010034A615C
:1018D0008DF851304FF001034FF0000813A8139218
:1018E0008DF852308DF8508008F014FD049B10A83C
:1018F0005A7A039B8DF840208DF841304FF0010358
:101900008DF842808DF8433008F07CFEDAF8003024
:10191000059A3C3BC5F88033059B894F1B6843F013
:1019200010031360874B4FF0FF321A60DBF8003072
:10193000580540F17D81D7F88453834B48461D609C
:1019400006F082FC4946C7F88803059006F072FC51
:1019500003909DF80C30082087F88C337B4BDFF820
:1019600008A21D6006F070FC794B0821186006F093
:1019700061FC414687F88D032C2250460DF0DBFFB9
:101980008E227C238AF801204FF07D0BE0228AF81A
:1019900000308AF803208AF82BB0DFF8D0A12C227F
:1019A0004146504604930DF0C6FF049B10208AF870
:1019B00000308A238AF80130A0238AF803308AF89D
:1019C0002BB0C7F8905306F03FFC1021C7F89403E2
:1019D00006F030FC87F898032020C7F89C5306F0E7
:1019E00033FC2021C7F8A00306F024FC87F8A403E9
:1019F000284606F0FDFE284603F0D6FD039806F0C3
:101A0000BDFFDFF86CA183469AF80030504D834249
:101A100027D0DDF814C0E0B1BCF1000F21D00223C3
:101A20009CF900000093484B49461B6842465B788E
:101A3000B3EB080318BF012301934FF4165306F0CC
:101A400010FDC7F8A80360B14FF001038AF8003019
:101A500007E0D7F8A80306F0BFFBC7F8A8B38AF8D9
:101A600000B094F88D0306F089FFDFF8088107467F
:101A700098F8003083421AD090B12B68BBB1002295
:101A8000012593F9000008214FF496430095019237
:101A900006F0E7FC2F4B186048B188F8005006E0CC
:101AA0002C4D286806F098FB2F6088F8007094F899
:101AB000980306F063FF284B214D1A788246824234
:101AC000984679D0002857D0D5F89423002A73D0AF
:101AD000D37992F90000002B4FF002021F4F08BF8C
:101AE00003230092002257F823300192102106F0C0
:101AF000B8FC1B4B0746186000285DD094F84A30AC
:101B0000022B0BD095F89620022A01D14C3505E026
:101B100023B1002A05F14C0518BF0025114B1D60AB
:101B200045B1284600214C220DF005FF02232F600D
:101B300085F84A3001233DE0000C014000040140DB
:101B4000B800002054080020540500209005002013
:101B5000D8050020C8050020DE050020683B0108EC
:101B6000E0050020E4050020600500209405002029
:101B70004A05002059050020A94F2B68D7F800908E
:101B80004B4507D1484606F027FB284651464C22D4
:101B90000DF0D1FEE36C4B4507D1484606F01CFB27
:101BA000A04800214C220DF0C6FE386806F014FB58
:101BB00000233B6088F8003094F8A40306F0DEFEB2
:101BC000994FDFF8D4823B78054683422CD000B38E
:101BD000D8F8A03343B3D8F89C2393F90000527887
:101BE0000323002A0CBF08220922009301924FF41C
:101BF00061432021002206F034FC8C4B186098B120
:101C00008B4A012313703B708A4B1A688A4B1A6007
:101C10000AE0DFF81882D8F8000006F0DDFA844BFD
:101C2000C8F800501D703D7006F0C2FE03F086FC3F
:101C3000824B834D1B78022B66D1824A0027138882
:101C4000322023F040031B041B0C138013884FF435
:101C5000805823F038031B041B0C138013889BB29D
:101C600043F0400313809F238DF840308DF841707E
:101C70008DF842708DF8437006F02FFB8DF84D7093
:101C8000714F0422C7F8148013A810A908F0D8FCDB
:101C9000C7F810809DF84E309DF84D201B0243EA96
:101CA00002429DF84F301343684A934219D00AD834
:101CB000A2F51A42033A93420CD002F51A420232BC
:101CC000934209D01BE0624A934205D0013293420D
:101CD00007D014E0202300E080232B804FF4807392
:101CE00002E04FF480732B806B80AB882A881B0244
:101CF000AB605343EB60012384F8AC3304E0002372
:101D00002B806B80AB60EB60EF6827B3FF0AB846AF
:101D10004FF00009B9450BDA09EB07056D100DF11D
:101D20004C0AE8025146102204F0BAF80F2806DCEB
:101D300009F0DEF9474A4FEAC82313600BE000239D
:101D40005AF82320013240F036830133042BF7D1B7
:101D50002F46A846DEE7404D2B6813F4002318BF3A
:101D6000012384F8AD3306F091FA3C4B4FF47A72BC
:101D700018607379052B04BF4FF4C873A4F8AE3311
:101D8000374B1A80374BC8221A80374A137843F0F2
:101D900008031370354A137823F00203137040F6DA
:101DA00002032A6813406BB13149324B1960324B40
:101DB00003211970314B01211970314900230B8027
:101DC00030490B80930341BF2F4B02221A71DA78FE
:101DD00044BF42F00102DA70B3682B60012384F83B
:101DE000303294F8A03063F07F0384F8A0301FB045
:101DF000BDE8F08F254A2649904613700B6843F0E2
:101E000001030B60234B00221A70082E00F2C580DC
:101E1000DFE806F04AC34A687E9D68B4B40000BF9C
:101E2000E005002004010020EC050020F005002062
:101E3000F4050020E41F0020F80500200E2C0020EF
:101E40000800002000380040000C014018BA2000B3
:101E50001740EF0000090020542200208C040020CD
:101E6000082C00200A2C00205C080020152C0020E3
:101E7000F4230020C4290020AB1F002040000020D4
:101E8000AC1F0020AE1F0020D8040020410000201D
:101E90001C0800200C2C0020B8000020012E40F26D
:101EA0008780754B00261E703B78012B1AD84FF0A7
:101EB00000091EAB03F82C9D53204946012202F075
:101EC000A1FA78B19DF84C30E52B0BD16B4B6C4AE5
:101ED00085F84E921A606B4A5A60674B04221A705A
:101EE00002235EE095F83A32022B11D1634B664A29
:101EF0001A60664A5A60664A92F83B22002A0CBF72
:101F00006F226E221A725C4B01221A70032348E082
:101F10003B78012B1BD800221EAB03F82C2D1C2074
:101F20000D21012202F06EFA88B19DF84C302A2B67
:101F300001D01A2B0BD1514A564985F84F32116006
:101F400055494D4B516002221A70042329E00021AB
:101F50001EAB03F82C1D1820012202F053FA68B1C1
:101F60009DF84C30FB2B09D1444B4C4A1A604C4A2B
:101F70005A60414B01221A70052312E095F83A325B
:101F8000043B012B8AD83D4B464A1A603F4A5A60AF
:101F9000394B01221A70082303E0012E08D90026CC
:101FA00030E7414A88F80130136843F002031360B8
:101FB0003B78012B05D108F09FFB3C4B4FF40052BE
:101FC0005A61042C3FF662A901A353F824F000BF24
:101FD000E51F000893120008DB200008E51F000839
:101FE000E32200080A2006F078F97720A0210122D8
:101FF00010AB02F007FA00286FD01E2101227720D3
:1020000002F0A4FB4FF42F6006F05CF90026A6F165
:1020100060010024C9B2022213AB77208DF84C4036
:102020008DF84D4002F0EEF99DF84D309DF84C20B2
:1020300043EA0222164B03F5147172520236102E37
:10204000E5D1B3F85E12012601F00F0001F47F41E3
:10205000A3F85E12234623F001022A44B2F850226C
:10206000002A18BF0026DF0703D5D2B25440082249
:102070001EE084EA1224FAE70C2C0020242B002016
:10208000154900087D460008D9430008754000083E
:10209000B80000205F480008DD450008F14800084E
:1020A000374600085D4300081C080020001001406E
:1020B000270448BF84F4C054013A4FEA4404F7D1DE
:1020C0000133102BC7D10143BD4AA5F85E1226B9D2
:1020D000C4F30333984200F03D8195F86062B84C38
:1020E000002E40F02082B74F08F006FB4FF0280981
:1020F0004FF48048384610A9ADF840808DF84290E2
:1021000003F081FC4FF400533B614846AE4906F0B2
:102110008DF90E21022003F061FC0823CDF84C80DC
:1021200013A84FF001088DF851308DF850608DF8EC
:10213000528008F0EFF88DF83C900FA84FF003099B
:102140008DF83D908DF83E608DF83F8008F05AFA8A
:10215000142006F0C2F8D0217720424610AB02F0DE
:1021600051F93946002800F0A0809DF84030A4F8CD
:102170008492552B84F87B3240F09780D1214246DF
:1021800010AB772002F03EF99DF84030772003F045
:102190000F021B0984F87C2284F87D32162213ABCF
:1021A000AA2102F02FF99DF84C209DF84D3043EA0A
:1021B0000223A4F864329DF84E209DF84F3043EA84
:1021C0000223A4F866329DF850209DF8513043EA6E
:1021D0000223A4F868329DF852209DF8533043EA58
:1021E0000223A4F86A329DF854209DF8553043EA42
:1021F0000223A4F86C329DF856209DF8573043EA2C
:102200000223A4F86E329DF858209DF8593043EA15
:102210000223A4F870329DF85A209DF85B3043EAFF
:102220000223A4F872329DF85C209DF85D3043EAE9
:102230000223A4F874329DF85E209DF85F3043EAD3
:102240000223A4F876329DF860209DF8613043EABD
:102250000223A4F8783241F27073A4F8883246F66B
:102260007813A4F88A32594BC4F88C32584BC4F80E
:102270009032584BC4F89432574BC4F89832574BAD
:10228000C4F89C3294F8603243B902F0D9FA42F6AD
:10229000E06006F017F8BE68C6F38036504B0122A6
:1022A0001E70474B83F860223DE14E4A136823F4C9
:1022B0008043136000234C4A434E02EBC304606822
:1022C000B04208D112F93300282804D10020606000
:1022D00002F8330002E00133032BECD14FF400533A
:1022E0004B61374E96F8A042002C5CD1142005F0CB
:1022F000F4FF06F2A1237620D021012202F082F819
:1023000096F8A132582B7EF4C4AF06F529738821C4
:102310001822762002F076F87620F421312202F09D
:1023200015FA012386F8A032304BA6F88842C6F889
:1023300090322F4BC6F88C3245F6D813A6F88A3265
:102340002C4BC6F894322C4BC6F898322B4BC6F85F
:102350009C3228E042F21073A2F88832A2F88A3246
:10236000274B0324C2F88C32264BC2F89032264BFE
:10237000C2F89432254BC2F89832254BC2F89C32F1
:10238000244B254A9C70136843F004031360FEF746
:1023900080BF022C09D1FEF798BF8146C5E000231B
:1023A0003360FEF7E6BF0424EAE7012C7EF6B1AF06
:1023B0001C46FEF783BF05F101094546C9E400BF8D
:1023C000B8000020001001401941000841480008F1
:1023D000954500081D48000849450008193F0008B8
:1023E0000000002000040140C41A0020593D0008EC
:1023F0005B3D000805480008B5440008993B00080B
:1024000015480008394500080D480008294500080E
:102410005D3D0008410000201C080020474B0022C1
:102420001A7000B20AF0CEFC45490AF01FFD454C77
:102430000646B4F95A010AF0C5FC41490AF016FDF6
:102440000546B4F95C010AF0BDFC3D490AF00EFDF9
:102450000446304607F0C4F88046304607F04CF892
:102460000646284607F0BCF80746284607F044F819
:102470000546204607F0B4F88246204607F03CF8AF
:102480004146814650460AF0F1FC414605904846D7
:102490000AF0ECFC5146069030460AF0E7FC49464B
:1024A000079030460AF0E2FC3946089050460AF0A0
:1024B000DDFC254C4946206007F100400AF0D6FCBF
:1024C00029466060A56007980AF0D0FC014606988E
:1024D0000AF0C4FB2946E06008980AF0C7FC0146F0
:1024E00005980AF0B9FB3946206106F100400AF070
:1024F000BDFC2946606105980AF0B8FC01460898C1
:102500000AF0AAFB2946A06106980AF0AFFC014632
:1025100007980AF0A3FB4146E06138460AF0A6FCA2
:102520002062FEF734BD02242AE7012C7EF6F1AECC
:10253000002488F80090FEF7C8BE00BF010000200C
:1025400035FA8E3C7C220020A40400202DE9F04FB7
:10255000A24C87B02368C3B9A14D2B78013B042B53
:1025600000F22E85DFE813F01004100410041305A8
:10257000F4049A4B186806F036F89A4B05461B6827
:102580001B7843B1012B00F07881206806F02EF80B
:102590000028EED1E0E72428934E0CD006D80A2874
:1025A00000F0E5800D2800F0E28051E12A2806D0F5
:1025B0002C2804D04CE133707370B37059E18B4B0D
:1025C000717896F800800020874A5854B8F1000FBF
:1025D00026D1197882F80380472921D159785029CA
:1025E0001ED19978472907D1D978472904D119797B
:1025F000412901D10121D17099787C4A522903D116
:10260000D1784D2900F0D4849978784A472907D1A8
:10261000D178532904D11279562A04BF0322F270CB
:10262000F278714F022A3AD0032A4FD0012A40F0A3
:102630008C80A8F10202072A00F28780DFE802F00E
:1026400004080F131A25852A08F080F870607CE0D2
:102650001B78532B79D173685B42736075E008F087
:1026600075F8B06071E01B78572B6ED1B3685B4290
:10267000B3606AE01B78302B5D4B1A788CBF42F058
:10268000020222F002021A705FE0002008F0BEF899
:1026900030735AE0002008F0B9F8F08155E0B8F145
:1026A000070F07D0B8F1080F4FD1012008F0AEF89E
:1026B00078824AE0012008F0A9F841F21843584313
:1026C0004FF47A73B0FBF3F038823EE0B8F1020FBA
:1026D00008D0B8F1030F0AD1002008F097F8454B55
:1026E000187032E0002008F091F838752DE02CD9F0
:1026F000A8F1040292103B7D0132D2B2013B02EB01
:102700008303DBB2102B20D8A8F10301C2F1010230
:1027100001EB8202D2B2012A0BD0042A11D100208F
:102720005F1E08F073F8344B0022D855334BDA554E
:1027300007E0334A5F1E0020D35508F067F8314B9D
:10274000D855314A136801331360274A2A2D18BF20
:10275000917808F101084FF000030CBF01214D40B2
:1027600086F8008073700CBF5175957081E0737DA1
:10277000002B6AD0254B13F8012D25495A708B4246
:10278000F9D11A4AB07813785278402B85BF373B7D
:102790001B011B01DBB298BF03F0F003402A8CBF82
:1027A000373A303AD2B21344DBB298420E4A49D19A
:1027B00021230B70174916480B6801330B60D3783F
:1027C000012B2DD0022B3FD17223118A0370124BA3
:1027D000528A1980114B1A8036E000BF2C04002069
:1027E000F00300202804002000060020E81F00203D
:1027F0005C0800207C080020AD0800209D08002017
:102800007D0800208D080020141D002024040020D5
:1028100010040020201D00206A0800206C08002001
:10282000672101709D4909788F070ED59C49506832
:10283000086090684860107B9A490870D1899A4A6C
:10284000118002E03F230B7000230022727510E01C
:1028500073780E2B9FBF954A591C5170944A934927
:1028600098BFD554737D1BB98A7855408D7000E0B0
:102870000023DD077FF589AE53E18C4B9A7D082A52
:102880003FF683AEDFE802F0050C1319242F4A60EF
:102890006A00B5287FF479AE0022DA75012202E0E1
:1028A000622802D000229A756FE60222FBE703221B
:1028B0009A7518765876987667E604229A755A7E45
:1028C000997E0244D2B25A760A449A76D8765CE669
:1028D00005229A755A7E997E0244D2B25A760A44EB
:1028E0009A76988351E606229A755A7E997E02441A
:1028F000D2B25A760A449A769A8B02EB0025ADB290
:10290000B5F5AC7F82BF694A0121D17500229D8354
:10291000DA83002D7FF439AE0722C4E75A7E997E10
:102920000244D2B25A760A449A76DA8BB2F5AC7F78
:102930003EBF5E49891881F820000132998B92B21E
:102940009142DA83E8D920E608229A755B7E8342B9
:102950003FF41BAE554B0122DA750EE000225549BB
:102960009A7511F8012D4A70534A9142F9D1987E17
:102970004E4AA84206D03F230B70504A5368013399
:10298000536002E64E4D286801302860D07D10B1BA
:102990003E230B70F9E521200870D07E06284DD02B
:1029A00004D8022814D0032830D0EEE5122864D0D1
:1029B00030287FF4EAAD4920087092F82410414A8B
:1029C000102988BF1021117010783F49002283E040
:1029D000502008703249506A4860906A0860116B54
:1029E0004FF47A7091FBF0F12F48018092F8781142
:1029F0002A4A19B1117841F0020102E0117821F060
:102A000002011170012283F879217AE053200870C5
:102A100092F8251011F0010105D092F82420D01E63
:102A20004242424100E00A4683F87821002A68D1F8
:102A30001A490A7822F002020A7062E04F200870F8
:102A400092F82B1011F0010105D092F82A20D11E26
:102A50004A424A4100E00A4683F8782122B90F49E8
:102A60000A7822F002020A7093F84F100D4A117092
:102A7000B3F84C10154A118043E056200870506B93
:102A80001349088042F21070916B91FBF0F11148EC
:102A90000180012182F87A1133E000BF5C08002038
:102AA000600800205D080020680800200006002063
:102AB000E81F00202404002010040020F003002060
:102AC000201D00207C080020200600203800002067
:102AD0006A0800206C08002082420ED20E7AB64DA1
:102AE00056554E7AB54D5655CE7AB54D565511F8C8
:102AF0000C6FB44D56550132EEE7B3490A68013206
:102B00000A6093F87931B14A002B3FF43EAD92F858
:102B10007A31002B3FF439AD002382F8793182F805
:102B20007A31AB4BDFF8E082DA681A61A94A1268A1
:102B3000DA60A94A136843F020031360A74B1A78A0
:102B4000012A0CBF002201221A7098F800309A075F
:102B50007FF51BADA24A1278042A7FF616ADA14A72
:102B6000127802F0040202F0FF011AB923F0010307
:102B700088F8003098F80070944E17F0010F9A4DC5
:102B800024D119B3BB0721D5984B28686A6818600F
:102B90005A600AF017F9002181460AF023FB08B1B8
:102BA000484601E009F1004091490AF013FA9149C1
:102BB0000AF05CF906F014FD8F4B47F0010718602E
:102BC0008E4B88F800701B88A6F87C3196F87E2121
:102BD000531C052293FBF2F202EB82029A1A96F83A
:102BE0007F3186F87E21029392000023DFF8F8916E
:102BF0009900DFF828A2039159F82310DFF820E2AA
:102C000091FBFAFC0EF1080040F823C07C484EF816
:102C1000231000FB0C1142F2107091FBF0F00EF14A
:102C2000100680B226F813004FF014080EF11406B7
:102C300008FB03680EF13C0B58F802705BF8236048
:102C400048F80210F61B0E4405214BF8236096FB52
:102C5000F1F60AFB0C6602990EF1440E01294EF8BA
:102C60002360C84606D10238B0F5797F9CBF03992E
:102C700041F809600BB90123B8E7DFF85891534FC9
:102C8000D9F80000D7F8CC31C01A0AF097F85D499E
:102C90000AF0A0F9D9F800304FF07E51C7F8CC31D6
:102CA00006460AF081FA08B94FF07E56564BC7F82F
:102CB000D0611B78DFF86C9113F00103534E13D0F1
:102CC00004AA0092494B05AA01920CCB98E8030094
:102CD00008F07CF9049A6421B2FBF1F2059BA9F893
:102CE000002093FBF1F301E0A9F80030338097F85E
:102CF000D431364E002B3BD0D6F8D0114FF07E5059
:102D00000AF068F98246D6F8D8312868C01A0AF065
:102D100059F851460AF0AAF80AF06EFAD6F8DC31F2
:102D20001FFA80F968680FFA89F9C01A0AF04AF8A0
:102D3000314B19680AF09AF851460AF097F80AF0F0
:102D40005BFAB6F9E22100B28118B6F9E02102205F
:102D500009EB020391FBF0F193FBF0F389B29BB214
:102D6000A6F8E611A6F8E431A6F8E211A6F8E031DB
:102D7000012387F8D431D8F80430C7F8DC31D8F80B
:102D80000030C7F8D83100E4214E3268177817B107
:102D9000012F49D014E1012B00F212816A781D4BFA
:102DA0000C2101FB02335A781B4B206853F8221088
:102DB00005F016FC96E000BF7D0800208D0800207D
:102DC0009D080020AD080020141D002000060020F2
:102DD000F0030020E41F00201C08002072080020DF
:102DE0005D080020152C00206008002074080020D9
:102DF0008096184B35FA8E3C040000208409002090
:102E0000806967FF00007A445C0800207008002099
:102E100028040020642E0108683B01088096980071
:102E2000800700206E0800202068DFF8C08105F0D0
:102E300067FB002800F0C4802A78634B022A3FD049
:102E4000032A4CD0012A40F0BB80604A10689A697E
:102E5000821AC72A40F2B480596904292ED85C4AE4
:102E60000C24964604FB0121D8F800404E78A76850
:102E7000986100235749D8B251F82320BA4204D0B0
:102E80000133092BF6D1002300E00346B34205D0FD
:102E9000204651F8261005F0A3FB91E06B780C2139
:102EA00001FB03E2566816F8011B19B1204605F034
:102EB000A0FBF8E76B6901336B6181E0022074E0ED
:102EC0005A78434B0C2101FB02335A78414BD8F816
:102ED000000053F8221005F083FB032065E0326800
:102EE00092780AB9042060E01A7F02B91F772B7F1D
:102EF000354F012B0FD17B69B22B08D8364A206899
:102F0000D15C05F076FB7B6901337B6103E0002334
:102F10007B6102233B772B7F2B4F022B14D17A69E5
:102F20000F2A0FD833682C495B78206803EB031312
:102F30000B44134493F8B41005F05BFB7B69013339
:102F40007B6101E003233B772B7F022B38D9C9E754
:102F5000AB681D490133AB60204B1B68DB784BB17C
:102F60004B7805220133DBB2B3FBF2F202EB8202B3
:102F70009B1A4B70154B00221B680120EB60184B0D
:102F80001A70184A137823F0020313700DE00F4BE8
:102F9000EA681B689B1A40F6C412934210D9124A81
:102FA0000520136823F02003136008F001F807E000
:102FB0001279432A7FF428AB0222F270FFF724BB78
:102FC00007B0BDE8F08F00BFF0030020E41F002031
:102FD000642E0108683B0108E23301082804002040
:102FE0005D0800205C0800201C0800202C04002044
:102FF00070B54D28A0B0044600F0E28400F2C08015
:10300000342800F0B78351D8222800F0918323D8C8
:10301000032800F0788114D8012800F06981022883
:1030200040F09585042008F03DFB432008F02CFB80
:103030004C2008F029FB462008F026FB4C2000F02D
:10304000E4BC042800F06881052840F080851A203F
:1030500008F028FB002472E1282800F0708415D8BD
:10306000242800F05784262840F07185D64C06208D
:1030700008F018FBB4F8580108F02EFBB4F85A0118
:1030800008F02AFBB4F85C0100F05DBD2C2800F0CC
:103090006984322800F0B3842A2840F05885012042
:1030A00008F000FBC84B587900F0AFBC402800F096
:1030B000AF8421D83A2800F037820BD8362800F0A8
:1030C000E384382840F04385042008F0EBFABE4C36
:1030D00000F026BC3B2800F00B833D2840F03785EC
:1030E000B94C022008F0DEFA94F8DE0108F0CCFAC0
:1030F00094F8DD0100F089BC462800F0DE840BD88E
:10310000422800F09384452840F02185132008F0E0
:10311000C9FA002400F0F7BC492800F02F824B28A0
:1031200000F03F84472840F0128508F0A3FA85B2EA
:1031300008F0A0FA044608F09DFA86B208F09AFA60
:1031400005EB042506EB0020ADB205EB004484201E
:1031500008F0A8FA204608F0C8FA9C4BDD6804F194
:103160008003AB428CBF2D1B802507F0C1FF20469A
:103170002A46694602F094FE0024054600F0BBBCD6
:10318000702800F02B8266D8692800F0A8813BD80F
:10319000662800F0FB802CD8642800F0E8806528C1
:1031A00040F0D5848A4C0B2008F07CFA208808F087
:1031B00093FA608880B208F08FFA6368C3F3C000A6
:1031C000C3F38002800040EA4200C3F34002104390
:1031D000C3F3401240EAC20003F01003184308F0A2
:1031E0007BFA002008F081FA774B93F8F40600F0A0
:1031F0000CBC672800F0FE80682840F0A8841020EE
:1032000008F050FA002462E16C2800F07B8116D8A7
:103210006A2800F018836B2840F099846C4C0520D4
:1032200008F040FAB4F8560008F056FAB4F858001E
:1032300008F052FA94F85A0000F00100E5E36E2815
:1032400000F0788100F2A081062008F02BFA00201F
:1032500008F04BFA66E1782800F0D88018D8742876
:1032600000F0AD820AD8722800F0AD82732840F0D9
:103270006E84082008F016FA0124DDE2762800F0BA
:10328000018300F29C822F2008F00CFA514C27E2B7
:10329000A42800F0188314D87C2800F04284A028C9
:1032A00040F055840C2008F0FDF94B4B186808F0ED
:1032B0001CFA4A4B186808F018FA494B186800F0D5
:1032C0002DBCF12800F0DD80FE2800F01F81F028E1
:1032D00040F03D843E4C042008F0E4F9236AB3F842
:1032E0005A0008F0F9F9236AB3F8580000F02BBC33
:1032F000032008F0D7F9002008F0C6F9204608F0AE
:10330000C3F90E2081E308F0CDF9022008F0BCF9E2
:10331000012008F0B9F9D4E2062008F0C3F94120F1
:1033200008F0B2F9462008F0AFF94E2008F0ACF9E9
:10333000412008F0A9F92B4B187800F004BC2A4B67
:10334000185D013408F0A0F90B2CF8D10024274BAC
:10335000185D013408F098F9082CF8D10024244BAA
:10336000185D013408F090F9072CF8D1EDE307203F
:1033700008F098F9E72008F087F9134B587908F01E
:1033800083F9002008F080F90420C7E3122008F038
:1033900089F9002008F0A0F9002008F09DF900202C
:1033A00008F09AF900200A4C08F096F9002008F07D
:1033B00093F9002008F090F9208908F08DF96089D0
:1033C00008F08AF9A089BEE37C22002008000020D2
:1033D00018080020EB340108E8F7FF1FECF7FF1F87
:1033E000F0F7FF1F0E2C002095450108A1450108AC
:1033F000AA450108102008F055F90024C04B185DBB
:10340000013408F041F9102CF8D19EE3702008F047
:1034100049F900260E247443BA4D01362B6A234421
:10342000B3F8190108F058F92B6A2344B3F81B01CB
:1034300008F052F92B6A2344B3F81D0108F04CF947
:103440002B6A234493F81F0108F01EF92B6A2344CA
:1034500093F8200108F018F92B6A234493F821010E
:1034600008F012F92B6A234493F8220108F00CF9B2
:103470002B6A1C44D4F8230108F037F9082EC9D16F
:1034800063E3702008F00EF99F4C04F1700594F886
:10349000D00008F0F9F894F8D10008F0F5F894F8A5
:1034A000D20008F0F1F894F8D30008F0EDF894F8A1
:1034B000D40008F0E9F894F8D50008F0E5F80734EE
:1034C00094F8CF0008F0E0F8AC42E0D13DE38F4B38
:1034D000185D013408F0D8F8102CF8D135E38C4D84
:1034E00000242878400000F0FE0008F0DBF82B787C
:1034F0009C4280F02A83874B33F8140008F0ECF8E4
:103500000134F4E7062008F0CDF805E0082008F0C3
:10351000C9F8002008F0E0F8002008F0DDF80020ED
:1035200008F0DAF800200EE3042008F0BBF8754B31
:10353000D86BF3E2072008F0B5F8774B1888FF281E
:10354000A8BFFF20C0B208F09FF8744B186880F342
:10355000100080B208F0C0F8002008F0BDF86A4BF7
:1035600093F883216E4B186822B10A23584380F3E5
:10357000100001E000F30F0080B2E4E2022008F046
:1035800091F8614B9889DEE25E4C0B2008F08AF8D6
:10359000236C2546187808F077F8236C00265878B5
:1035A00008F072F82B6C574C33441879013608F048
:1035B0006BF8032EF6D1236CD87908F065F8236CEC
:1035C000987808F061F8236CD87808F05DF8236CDF
:1035D000588908F081F8236C187A16E2494C1E20AD
:1035E00008F060F8236A00251B78022B65D1236A56
:1035F00005F1080253F822004A4909F037FC0DF0A2
:10360000CBFD80F30800C0B208F03EF8236A4649BB
:1036100003EB8503D86A09F029FC0DF0BDFD80F3AA
:103620000800C0B208F030F8236A05F10E0253F822
:1036300022003E4909F01AFC0DF0AEFD80F30800AF
:10364000C0B2013508F020F8032DD0D1072D236A30
:1036500021D1586C334909F009FC0DF09DFD80F330
:103660000800C0B208F010F8236A2E49986C09F0DF
:10367000FDFB0DF091FD80F30800C0B208F004F8E6
:10368000236A93F84C0009F099FB0DF085FD80F357
:103690000800C0B20BE02B44587807F0F5FF236A0E
:1036A0002B44D87A07F0F0FF236A2B44587D01356C
:1036B00007F0EAFF0A2DC9D147E2236A2B44587864
:1036C00007F0E2FF236A2B44D87A07F0DDFF236A74
:1036D0002B44587D013507F0D7FF0A2DEDD134E298
:1036E00014F8010F002800F0308207F0CDFFF7E753
:1036F000012007F0D7FF034B1B6A187885E100BF54
:1037000026080020180800207C2200203C08002009
:10371000002A002058220020101F0020F829002035
:10372000E8290020000020410000C84200007A443F
:10373000502007F0B7FF0025CD4B0C211C6ACD4B64
:1037400004EB850494F87920013501FB023393F8EA
:10375000380007F099FF94F87A0007F095FF94F885
:103760007B0007F091FF94F87C0007F08DFF142D8B
:10377000E2D1EAE1482007F095FF0025BC4B1C6A26
:10378000062303FB054494F8CE0007F07DFF94F870
:10379000C90007F079FF94F8CA0007F075FF94F8A4
:1037A000CB0007F071FF94F8CC0007F06DFF0135F6
:1037B00094F8CD0007F068FF0C2DDFD1C5E10020A3
:1037C00007F070FFC1E1AC4C162007F06BFFB4F8B6
:1037D000940107F081FFB4F8400107F07DFFB4F8D1
:1037E000420107F079FFB4F8440107F075FFB4F81F
:1037F000D60107F071FF94F8EB0107F045FF0020B8
:1038000007F042FF94F8EC0107F03EFF94F88301C3
:1038100007F03AFF94F8900107F036FF002007F018
:1038200033FF934B0A201B6AB3F9563093FBF0F039
:1038300080B207F051FF73E0E0B2013407F024FFDB
:10384000092CF9D181E18A4C102007F02BFF94F864
:10385000440000F0020007F017FF94F8450007F05D
:1038600013FFA06C07F041FFE06C07F03EFFB4F8D7
:10387000500007F031FFB4F8520007F02DFFB4F804
:10388000540060E107F0F6FE0646122007F00AFF3A
:103890001EB9774BDD6D1C6E01E0002425463046D5
:1038A00007F0F2FE284607F020FF204607F01DFF34
:1038B000002007F01AFF002007F00EFF002007F09D
:1038C0000BFF0020A1E06A4D002495F864002E460D
:1038D00080000130C0B207F0E5FE95F8640007F003
:1038E000D3FE96F864309C4280F02F81634D285DB2
:1038F00007F0CAFE05F11003185D07F0C5FE05F1DB
:103900002003185D303507F0BFFE285D07F0BCFED0
:103910000134E6E7042007F0C5FE574B9868FDE048
:1039200094F8780107F0B0FE94F87C0107F0ACFE43
:1039300094F87B0107F0A8FE94F87D0165E04E4CF9
:10394000072007F0AFFEB4F87E0107F0C5FEB4F81B
:10395000800107F0C1FE94F8820107F095FEB4F8EB
:103960008401F0E0444C0C2007F09CFE94F88E019A
:1039700007F08AFEB4F8980107F0AEFEB4F894019F
:1039800007F0AAFEB4F8960107F0A6FE94F88F019E
:1039900007F07AFEB4F89A0107F09EFEB4F89C0195
:1039A000D1E0354C042007F07DFE94F8D40107F0F7
:1039B0006BFE94F8D50107F067FEB4F8D601C2E0BB
:1039C0002F4C304D2078002600EB4000C0B207F0AD
:1039D00069FE237802359E4280F0B78015F8020C0C
:1039E00007F052FE15F8010C013600EB800000EBE9
:1039F000800000F2EE2080B207F06EFEE9E70120C1
:103A000007F050FE1C4B93F8900107F03DFE9CE040
:103A1000082007F047FE0024174B234493F8860143
:103A2000013407F031FE082CF6D18EE0124C102044
:103A300007F038FE607907F027FEA06807F055FE12
:103A400094F88E0107F020FEB4F8580107F044FE08
:103A5000B4F85A0107F040FEB4F85C0107F03CFEF0
:103A6000B4F87E0107F038FEB4F880016BE000BFC7
:103A700018080020EC3401087C2200207D0800207A
:103A8000002A00201A2400203E4B3F4C93F8A5004A
:103A900004F12805C0EBC000C0B207F003FE94F8A3
:103AA000F2010023394AD25C904252D00C333C2BB5
:103AB000F8D10834AC42F2D147E00D20344C07F085
:103AC000F1FD02F013FA07F0DFFD208807F00DFE8C
:103AD000E06807F00AFE2B4A92F8E50092F8E4301D
:103AE00098422ABFC31AC3F1800300200344D2F8CE
:103AF000E800184412E0AC4227DA1DF8040007F091
:103B0000C3FD0134F7E7234B185D013407F0BCFD1A
:103B10000B2CF8D1002007F0E8FD002007F0E5FDB0
:103B200013E0194C082007F0BDFDB4F8480107F078
:103B3000D3FDB4F84A0107F0CFFDB4F84C0107F00B
:103B4000CBFDB4F84E0107F0C7FD012018E00020BE
:103B500016E007F099FDB4F8F40107F0BDFD94F804
:103B6000F60107F091FD94F8F70107F08DFD94F848
:103B7000F90107F089FD94F8F80107F085FD98E751
:103B800020B070BD180800207C220020C008002052
:103B900008000020954501082DE9F04F87B06C4CD6
:103BA00002916C4922880E680546C2EB26135B43DE
:103BB0005200C2EBE602B4F902601B135643B4F99B
:103BC0000420B4F90A0053439B1303EBE62606EBEB
:103BD000860380331B12B6F5FA384FEAE677049372
:103BE0004B6847F1FF39A8FB08AB039308FB09F3C7
:103BF000B4F908200BEB430BE389A6610593D317B7
:103C000008FB03F102FB0911A8FB02230B44C117B7
:103C10001F030AFB01F300FB0B33AAFB0001160391
:103C2000194447EA1257020A42EA016292194FEA1E
:103C30002123E6887B410032A2FB060143F50043C5
:103C400006FB03114B100093CB170193DDE9002312
:103C50001343B4F810E0B4F80CC06DD00FFA8EF036
:103C6000C1170AFB01F1AAFB002300FB0B11BDF9F0
:103C700014600B44F71708FB07F106FB0911A8FBBA
:103C800006670F4479047004801841EAD63159411F
:103C9000039B0FFA8CF8C3F5801E7246D3170022DF
:103CA00012184FEACE764FEAC3774FEAC8034B416A
:103CB00047EA5E07B61A67EB030740F63543A6FBF3
:103CC000030103FB0711DDE9002309F0DBFAB4F976
:103CD00016204E1302FB06FE470B47EAC147D317D7
:103CE00007FB03EEA2FB07235643734407FB03665F
:103CF000A2FB07233344560E46EAC3168219B4F9D1
:103D000014604FEA636741EB07037143F71700FB49
:103D10000717A6FB00013944C60C46EA4136921942
:103D20004FEAE1474FEA1221B4F912207B4141EA00
:103D3000036113010B4400E000230DB11B0A2B604B
:103D4000029B13B11A46049B136007B0BDE8F08FC5
:103D50005C03002098090020704770476B4B6C4A49
:103D60002DE9F04F5E8994684FEA062AB4EB0A0AFF
:103D70009C884FF000054FEA04481C894FF0000B67
:103D8000A4FB0A6765EB0B0B04FB0B77F40944EA11
:103D9000476418EB04065C884FF000094FEAE7150A
:103DA0004FEAC438DC8849EB050787B0CDE90467E2
:103DB000A4FB0A6704FB0B77340A44EA076418EB98
:103DC00004064FEA27259C894FF0000949EB0507B7
:103DD000CDE90067AAFB046704FB0B77F40D44EA06
:103DE000472414F5FA664FEAE75545F10007B6F5A2
:103DF000FA6F77F10003CDE90267964666DADDE9EE
:103E00000489A4FB046704FB05F34FF0050C07EBE2
:103E10004307A6FB0C230CFB07335F104FEA320667
:103E2000B8EB06084FEA920646EA837669EB070983
:103E30009F10DDE90023921B63EB0703CDE900230C
:103E4000DDE90267334A4FF0FF33964277EB030315
:103E5000CDE9048927DA40F6AC520023A4185D416D
:103E600004FB05F3A4FB04456FF0060205EB4305D4
:103E7000664202FB0566A4FB0223334418EB0206EC
:103E800049EB0307CDE904670B26A4FB062306FBD9
:103E90000533DDE900455B104FEA3202A41A65EBF9
:103EA0000305CDE90045DDE902450AFB0BF3AAFB5A
:103EB0000AAB0BEB430B4FEADA7242EA4B02A41A4D
:103EC0004FEAEB7365EB0305CDE90245DEF80C40E4
:103ED000009B019DA4FB032304FB05334FEA5258CA
:103EE00048EAC3284FEA6359DDE90423B8EB02022C
:103EF00069EB03039946D30B43EA494300B10360DE
:103F000009B1029B0B6007B0BDE8F08F08030020E9
:103F10009809002024FAFFFF2DE9F041324C334D7F
:103F200062892B8AB4F904809A1A2389B4F902E0D1
:103F30005A43B4F91230D613B4F91420DB023244D8
:103F400093FBF2F232440A26E2615643A2F57A620A
:103F500002FB02F3B4F90EC002FB0EFE02FB08F2F4
:103F6000B4F90C801B130CFB03FC03FB08F31B14BC
:103F700003EB62320232E388921002F500425343AF
:103F80004CF25032B4F920704FEAEE2EB4F90040F2
:103F90000EEBEC2C0CEB8404BC406D690234A5EBF9
:103FA000A4043A4162434FEAD3384EBFB2FBF8F360
:103FB0005400B4FBF8F340F6DE3448BF5B001A123D
:103FC000524362430A4C08365C43241404EB2242F9
:103FD00002F6CF62361103EB221300B1036001B188
:103FE0000E60BDE8F08100BF1C030020980900208E
:103FF00043E3FFFF13B50C4B04465B681B20022113
:1040000001AA984770B19DF804209DF8053043EA55
:10401000022303F54E5310334FF48C7293FBF2F3EB
:104020002333238002B010BDF402002037B5104BBB
:1040300004465D68187806216A46A847A8B19DF82D
:1040400000209DF80130012043EA022323809DF8DF
:1040500002209DF8033043EA022363809DF8042088
:104060009DF8053043EA0223A38003B030BD00BFB2
:10407000F402002013B5104B04465B683B20062178
:104080006A469847A8B19DF800209DF801300120AC
:1040900043EA022323809DF802209DF8033043EA7F
:1040A000022363809DF804209DF8053043EA022333
:1040B000A38002B010BD00BFF4020020B0F5807FE5
:1040C0000ED0BB280ED861280ED829280ED8132868
:1040D0000ED809280ED8002814BF062000207047EB
:1040E000002070470120704702207047032070476E
:1040F0000420704705207047054A08B5138801332E
:104100009BB21380034B187802F02AF9002008BDF7
:104110001A0800204014002008B54FF4804006F033
:1041200029F9012801BF044B4FF480425A61034B27
:1041300008BF187608BD00BF0004014098090020A0
:1041400010B5054C2368186906F014F918B12368F6
:104150001A69024B5A6110BD00030020000401409F
:10416000F8B50E461746084C4FF48055656140F08F
:10417000800006F09BFA38460021324606F060FACD
:1041800025610120F8BD00BF000C014070B50E464E
:10419000054C4FF48055656106F088FA304606F00C
:1041A00085FA2561012070BD000C014070B5FFF754
:1041B00085FF104C0546192004F08FF8A3681520E0
:1041C0000021984710B9022004F0E6F845F01801E4
:1041D000A368C9B216209847A36800211720984702
:1041E000A36801213D209847A3683E200121BDE836
:1041F00070401847F4020020F0B5274D85B06B7E63
:10420000002B46D1254C2368002B42D01A68244E3F
:1042100012B1B1690A43B2619A889868ADF800207A
:1042200002228DF80320694604228DF8022001F055
:10423000EAFBB369002743F00103B3612368012659
:10424000187B197D01F0CAFB2368164993F9150004
:1042500004F0ECF82368144A1B69536102930823A5
:104260000DEB03008DF80D308DF80C708DF80E609D
:1042700006F050F8236801A85B7D8DF806708DF874
:10428000043003238DF805308DF8076006F0BAF985
:104290006E7605B0F0BD00BF980900200003002035
:1042A00000100240414100080004014037B50446B7
:1042B000FFF7A2FF254B1A68254B9A420ED14FF407
:1042C0000053ADF8043002238DF807300423214851
:1042D0000DEB03018DF8063001F095FB2046FFF74A
:1042E000EDFE05461C4C8021A3686B209847642096
:1042F00003F0F3FFA368072168209847642003F0C8
:10430000ECFFA36800216B209847642003F0E5FFD1
:10431000A36801216B209847A36818211B209847A8
:10432000A36810211C209847A36829461A209847A3
:10433000A368002119209847A368122137209847C5
:10434000A36801213820984703B030BD3000002019
:10435000001BB70000100140F402002008B5FFF771
:104360004BFF024B4FF480521A8008BD180000200A
:1043700070B50446FFF740FF2046FFF79FFE054655
:10438000144C8021A3686B209847642003F0A5FF9C
:10439000A368002119209847A36803216B20984740
:1043A0000F2003F09AFFA36829461A209847A368B4
:1043B00018211B209847A36810211C209847A36848
:1043C000022137209847A36838200121BDE87040BA
:1043D000184700BFF402002008B5FFF70DFF074B98
:1043E0005B7813B1012B03D008BD4FF4006201E0EC
:1043F0004FF48052024B1A8008BD00BFF202002029
:104400001800002010B54000204CC0B22070204899
:10441000204C0170204800210170012020701F4CA9
:1044200023601F4C23601F4B1A701F4A1F4B1070D4
:1044300019701F49086811461A4630B383889C05D5
:1044400015D40388DB050DD447F230530488A40546
:1044500002D5013BFAD112E08BB103889BB243F441
:104460008073038083889BB243F44073838047F258
:104470003053087810B1013BFBD100E013B9BDE81F
:10448000104039E6107880F0010010BD461400207D
:1044900044140020421400204C1400204814002032
:1044A00050140020451400205414002055140020FE
:1044B0003C14002007B5F7216B4606227620FFF753
:1044C000A1FF9DF800309DF801101B0343EA011382
:1044D0009DF80210094A43EA111353609DF8033016
:1044E0009DF804101B0343EA01139DF8051043EAED
:1044F0001113136003B05DF804FB00BF980900209E
:1045000007B5002101AB03227720FFF77BFF9DF861
:1045100005309DF804001B0243EA00439DF80600A5
:10452000184303B05DF804FB08B5FFF7E9FF014B42
:10453000D86008BD9809002008B5FFF7E1FF014BDE
:10454000986008BD980900200F4B13B51B780F4CDD
:104550000BB1237EB3B1032201AB7720F621FFF725
:1045600051FF9DF805309DF804201B0243EA0243E9
:104570009DF806201343064AB2F92020C2F1080232
:10458000D340636102B010BD0000002098090020F4
:104590001C0300200A4B13B51B780A4C0BB1237E79
:1045A00063B1022201AB7720F621FFF72BFF9DF8C4
:1045B00004209DF8053043EA0223238202B010BD97
:1045C000000000209809002030B505460C4613462F
:1045D00029462246BDE83040682013E713B506227D
:1045E000044601211C206B46FFF70CFF08B39DF821
:1045F00001309DF80020042143EA022242F38D029B
:1046000092FBF1F29DF8023022809DF8032042EAED
:10461000032242F38D0292FBF1F29DF80430628096
:104620009DF8052042EA032343F38D0393FBF1F346
:10463000A38002B010BD13B5062204460221182043
:104640006B46FFF7DFFEB8B19DF800309DF8012002
:104650009B0803EB022323809DF802309DF8032082
:104660009B0803EB022363809DF804309DF805202E
:104670009B0803EB0223A38002B010BD314B2DE950
:10468000F3411B780546002B3BD0002426462746E5
:10469000A04601345320322108226B46E4B2FFF7D2
:1046A000B1FE08B9002049E09DF801209DF80030D6
:1046B000202C03EB02231BB29DF8032098449DF8A5
:1046C000023003EB02231BB21F449DF805209DF826
:1046D000043003EB02231BB21E449DF8073003F0A5
:1046E0007F0301D0002BD4D198FBF4F897FBF4F7AB
:1046F00096FBF4F6144BA5F800806F80AE809C7694
:104700001CE05320322106226B46FFF77BFE002877
:10471000C8D09DF801209DF8003003EB02232B80C8
:104720009DF803209DF8023003EB02236B809DF877
:1047300005209DF8043003EB0223AB8002B0BDE8F6
:10474000F08100BF060300209809002013B502ABDA
:1047500003F8012D4000214AC0B21070204A002009
:104760001170204901220A701F4908701F490B600F
:104770001F490B601F4B20491A700A701F4B204ABB
:10478000187010681A4630B383889C0515D40388C6
:10479000DB050DD447F230530488A40502D5013B54
:1047A000FAD112E08BB103889BB243F4807303808B
:1047B00083889BB243F44073838047F23053087878
:1047C00010B1013BFBD100E013B9FFF795FC02E00B
:1047D000107880F0010002B010BD00BF4614002028
:1047E000441400204C1400204214002050140020D7
:1047F00048140020451400205414002055140020B3
:104800003C1400207620F42131229FE777204821B4
:1048100001229BE777205821012297E7064B0021D0
:1048200093F82020054B9201343219767720F42139
:1048300002F0FC028AE700BF1C0300209809002058
:10484000034B00221A767720F4212E227EE700BF48
:104850009809002003460A466820194676E713B5F2
:1048600000222A211C20FFF771FF0E2102221C20AA
:10487000FFF76CFF0F2103221C20FFF767FF2B219E
:1048800012221C20FFF762FF164A02249369164881
:1048900043F0040393612023ADF8043004230DEBAF
:1048A00003018DF806308DF8074001F0ACF8224680
:1048B0002C211C20FFF74AFF2D2101221C20FFF78D
:1048C00045FF2E2100221C20FFF740FF2A21052250
:1048D0001C20FFF73BFF054B4FF480721A8002B09B
:1048E00010BD00BF00100240000801401800002069
:1048F00008B50F2108221820FFF728FF0E221820E4
:104900001021FFF723FF024B4FF480521A8008BD9D
:104910001800002008B5134B53201B782D210822C6
:104920007BB1FFF713FF31210A225320FFF70EFF5F
:104930002C210C225320FFF709FF5320382190220D
:1049400009E0FFF703FF31210A225320FFF7FEFEA3
:1049500053202C210A22FFF7F9FE40F20912024BE4
:104960001A8008BD060300201800002001F000BED8
:1049700001F024BF01F0FCBD01F020BF0B885840BE
:1049800080EA0010C0B21B0A83EA101343EA002336
:1049900083EAC0030B807047034A1378591C134401
:1049A00011705878704700BFC009002038B5FFF774
:1049B000F3FF0446FFF7F0FF44EA002084B2FFF75C
:1049C000EBFF0546FFF7E8FF45EA002044EA004018
:1049D00038BD421E002012F8013FA3F13001092921
:1049E00004D80A2101FB00303038F4E7704738B5AD
:1049F0001648FFF7EEFF6422B0FBF2F302FB13024E
:104A0000134B124C534322782146A2F13005092D55
:104A100004F10104F7D92E2A0DD142F2107411F8D5
:104A2000012F303AD5B2092D05D802FB04330A22F2
:104A3000B4FBF2F4F3E706220333B3FBF2F3642290
:104A4000B0FBF2F0034A02FB003038BDCF09002072
:104A5000A086010040420F0038B5164C224612F8DD
:104A60000F5F1034A5F12D035D425D41002D08BF9D
:104A700014462046FFF7ADFF6423584323461A46E9
:104A800013F8011BA1F13004092CF8D92E290DD1FE
:104A90005378303BD9B2092908D80A2101FB030019
:104AA0009378303BDAB2092A98BFC01805B140426A
:104AB00038BD00BFC009002010B50024054B9A8CFA
:104AC000944206DA186A044B195D03F092FD013432
:104AD000F4E710BDC00900201D2100202DE9F74F8B
:104AE000774C002394F82910024684F826300929CF
:104AF00000F29680DFE801F00505172B21333B4ECD
:104B0000627BFE2A40F08C80022384F82930002347
:104B100084F859304FF0FF3384F8582084F8563029
:104B200084F857307CE01046664984F82A3084F8CF
:104B30005920FFF723FF042306E01046614984F85B
:104B40005A20FFF71BFF032384F8293068E0104642
:104B50005C4984F85B20FFF711FF0523F4E710465A
:104B6000584984F85C20FFF709FF0623ECE7544B13
:104B7000104603F1560184F85D200093FFF7FEFE16
:104B800094F85920009B0AB90823DDE7072283F82F
:104B9000292045E094F82A1010464B1C2144DBB232
:104BA00081F85E20474984F82A300093FFF7E6FE3B
:104BB00094F85920009B9A4232D1E5E7DFF800C112
:104BC00094F85D3040490192C85C0CF15601CDF873
:104BD00000C0FFF7D3FEDDF800C094F82A30019A38
:104BE000092163448CF8291083F85E2018E0344BC7
:104BF00094F82A100120194483F8260083F829002C
:104C000081F85F2093F85D90D3F86260D3F8665026
:104C1000D3F86A70D3F86E8093F87AA093F87BB0DB
:104C200094F82610264A012908D192F85A3082F8C1
:104C30002B30D38D03B913860133E385002384F829
:104C40002830002939D0B9F1180F03D0B9F1210F5C
:104C50001AD032E0642397FBF3F795FBF3F51B4B77
:104C60001B4A1F601B4B1560A3F800B04FF47A730A
:104C700098FBF3F8184B0122A3F80080174B9245DC
:104C80001A7017D9012216E0642395FBF3F596FB01
:104C9000F3F60E4B0E4A1D604FF47A7397FBF3F751
:104CA0000D4B16601F800D4B01221A70002EE9D1AA
:104CB000002DE7D100220A4B1A7003B0BDE8F08F37
:104CC000C0090020160A00208436010800050020D3
:104CD000F02B00201405002010050020680400209F
:104CE00069040020642330B5B1FBF3F403FB141313
:104CF0000A214A43054D9BB205FB03233C22B3FB2B
:104D0000F2F3A4B205FB0433584330BDA086010082
:104D100044280ED15C4B01225C4983F89624002381
:104D20000B805B490B7048705A490A705A4A1370DD
:104D3000704748280AD1544B022283F89624574BD7
:104D400000221A80524A537848330BE041280BD195
:104D50004D4B032283F89624514B00221A804C4A73
:104D600053784133537070472A2801D1042212E04E
:104D70000A2814D1464B5A781B789A420AD1494BDB
:104D800001221A70434B454A93F90030128853436D
:104D9000454A138000223C4B83F8962470475828DC
:104DA00005D13D4B00221A700122404B4AE02328D6
:104DB00001D1002230E04028FBD04E2807D1384AEC
:104DC00000231380314A4FF47A71118008E045289E
:104DD00009D1334B5A221A802C4A4FF47A7313802C
:104DE000314A138017E0532808D12D4BB4221A8082
:104DF000264B00221A804FF47A720AE057280DD110
:104E0000274B4FF487721A80204B4FF47A721A8026
:104E10000022254B1A8001221F4B13E01A4B93F8F6
:104E20009634013B032B2DD8DFE803F0020417244E
:104E3000164A13E0164A2D2853780344537003D1C1
:104E4000144BFF221A707047144A138803EB830334
:104E500000EB4300303810807047114A138803EB91
:104E6000830300EB4303303B1380094A5378184413
:104E700050707047064A137803EB830300EB43003E
:104E800030381070704700BFC00900201A0500209C
:104E90001A0000203A00002073040020681A002045
:104EA0001C05002069040020100500206D0400206E
:104EB00010B5424B93F897241C461AB924287BD18D
:104EC000012204E0012A05D1542875D1022283F879
:104ED000972410BD022A16D1472808D053284FF036
:104EE0000002F4D04128F2D083F8972405E0122381
:104EF00084F89834032384F89734002384F89904C1
:104F000084F89A3410BD032A56D193F89A3413B911
:104F100084F89B0404E094F89B24424084F89B248A
:104F200094F89814254A04398B4240D192F89B3466
:104F3000002B38D1137092F89934472B33D1FFF7F7
:104F400035FD07F075FB00221D4B07F001FD0CF04D
:104F500089F807F0E5FD1B4B1860FFF727FD07F008
:104F600067FB0022164B07F0F3FC0CF07BF807F010
:104F7000D7FD154B1860FFF70FFDFFF717FD07F082
:104F800021FF124908F026F808F036F9104B188076
:104F9000FFF702FD0F4BC0F387000428188082BF83
:104FA0000D4B01221A70002384F8973410BD591C50
:104FB000134482F89A14587010BD00BFC009002035
:104FC00000005940F02B0020000500200000C842DE
:104FD000100500201405002069040020A94B242896
:104FE000D3F89C2470B502F101020546C3F89C2455
:104FF0001C4600F0388105D80A280ED00D2840F054
:1050000053810AE02A2808D02C2840F04D8193F8DB
:10501000A03483F02C0384F8A03494F8A124994B95
:105020000E2A00F210811A440021D17393F8A224B1
:10503000002A72D0DA7BA2F14103052B01D8373A5E
:1050400005E0A2F16103052B94BF573A303A237C67
:105050001201A3F141010529D2B201D8373B05E085
:10506000A3F16101052994BF573B303B1A4494F8E2
:10507000A014D2B29142834B49D193F8A324002AC1
:1050800000F0E180B3F8A424D3F8B0140132A3F8FF
:10509000A424D3F8AC2493F8B404C3F8A8247A4A1F
:1050A0001160D8B1012840F0CC80D3F8BC24D3F8EB
:1050B000C814C3F8B824D3F8C424C3F8C024734A6E
:1050C0001160734AD3F8CC141160D3F8D424C3F818
:1050D000D024D3F8DC24C3F8D824B5E0D3F8E01406
:1050E0006C4A1160D3F8BC24D3F8C814C3F8B824B0
:1050F000664A1160D3F8CC14654A1160664AB3F869
:10510000E4141180D3F8EC24C3F8E82499E0B3F850
:10511000F0240132A3F8F02495E093F8F224CAB900
:105120000E3319465D4A11F8010F002800F0D280B5
:1051300012F8016F8642F6D0594A13F8010F002881
:1051400000F0CC8012F8011F8142F6D0022384F8CF
:10515000B43478E093F8B414022974D0DB7B002BCC
:1051600071D042EA4112013A282A6CD8DFE802F0F5
:1051700015232C343951585F646B6B6B6B6B6B6B05
:105180006B6B6B6B6B6B6B6B6B6B6B6B6B6B6B6B6F
:10519000151E232C343941464B00FFF75DFCC4F843
:1051A000BC0403F06DF8C4F8AC044CE0A3F1410278
:1051B0005342534131E0FFF71AFCC4F8C80403F02E
:1051C0005FF8C4F8B0043EE0532B3CD1D4F8C834A7
:1051D0005B42C4F8C83436E0FFF709FCC4F8CC04DD
:1051E00031E0572B2FD1D4F8CC345B42C4F8CC3407
:1051F00029E0FFF731FCC4F8D40424E0FFF72CFCCD
:10520000C4F8DC041FE02748FFF7E3FBC4F8C4043C
:1052100019E0302B94BF0023012384F8A33412E05B
:1052200020480BF0A1FCC0B2A4F8E4040BE0FFF7A7
:1052300013FCC4F8EC0406E0FFF70EFCC4F8E0042D
:1052400001E0012000E0002094F8F234013384F8FA
:10525000F234002384F8A134A5F12A035D425D41B4
:1052600084F8A25470BD0020022283F8A10483F8C0
:10527000F20483F8A00483F8B42483F8A20483F82A
:10528000A30470BDC009002008050020FC04002014
:10529000040500200C05002012050020934601089B
:1052A00099460108CF09002094F8A1340D4A0D2B2E
:1052B00094F8A2049FBF591C9B1882F8A114DD73B7
:1052C000084A28B992F8A0345D4082F8A05470BD15
:1052D000002070BD012384F8B434B5E784F8B40429
:1052E000B2E700BFC00900202DE9F043874B89B029
:1052F00093F8F3241E46002A00F00581844CD3F86D
:10530000F42421688A1A952A40F2FD8093F8F82443
:10531000C3F8F414013283F8F8247E4B7E4A1978DE
:1053200012787E4B09B932B903E022B91A7812B962
:1053300001221A70E7E01B78002B00F0E48096F859
:10534000F954092D41D8206807F038FD6F4BD3F888
:10535000FC1407F081FC724907F044FFA8B3002356
:1053600000930123ADF80430ADF8063002238DF828
:1053700018306C4B02AF03F1100E3A4618685968AA
:10538000083303C273451746F7D16F46664B0DF1DC
:10539000180E3A4603CA724518605960174603F161
:1053A0000803F6D11278DC211A70604B16221920FE
:1053B0000135DA7105F0A8FA05F08EFA86F8F9548D
:1053C000206807F0FBFCC6F8FC04594C64232268F3
:1053D0004FF47A7003FB02F16268564D5343B4F9FF
:1053E00008202D7842438DF81D5004926D466A4680
:1053F000039300234FF000084FF00009ADF814307C
:10540000ADF81630ADF81A308DF81C30464BCDE9AA
:1054100000890291ADF818000DF11808174603CF66
:105420004745186059603A4603F10803F6D13868D9
:1054300018211860BA883D4F9A801E20F97105F036
:1054400063FA05F049FAB084FFF736FBAE462268EE
:105450006423616803FB02F0B4F9082059434FF458
:105460007A735A4300230093ADF81430ADF8163028
:10547000ADF81830ADF81A30019002910392049201
:1054800007F10803724603CA424518605960964600
:1054900003F10803F6D110686821186021231C204D
:1054A000FB7105F031FA05F017FAB084FFF704FB41
:1054B000B4F9080007F086FC1F4B1B4A00930193C8
:1054C000002303930023ADF81030ADF812300290A2
:1054D0002B4604AD1C4603CCAC4210605160234601
:1054E00002F10802F6D120684A2310601420014618
:1054F000FB7105F009FA05F0EFF9B08409B0BDE8D9
:10550000F043FFF7D9BA09B0BDE8F083C009002025
:10551000E41F00206A0400206C0400200F2C0020EF
:105520000000C842A0460108152000200D200020E0
:10553000CC2B0020140500200000204137B5184C6A
:1055400094F8000503F01AFA94F8F3340546834200
:1055500023D0E0B1D4F80435FBB1DD7993F9000034
:1055600002230093D4F808354FF400715B780022D1
:10557000003318BF012301930A4B53F8253002F082
:1055800070FF206248B1012384F8F33405E0206AFB
:1055900002F022FE256284F8F35403B030BD00BF50
:1055A000C0090020683B010810B5094CC4F8080583
:1055B0004FF4007002F048FE4FF40071C4F8040587
:1055C00002F038FE002384F8F93484F8000510BD99
:1055D000C00900200B88584080EA0010C0B21B0AA6
:1055E00083EA101343EA002383EAC0030B80704769
:1055F0008379DB0748BFB1FA81F1D0F8343148BF75
:1056000049095A681B8909B1136170475361704792
:1056100010F80A3C0133DBB20A2B84BF10F8131CCC
:10562000044A00F80A3C82BF002322F8113000F837
:105630000A3C70476C1E0020334A70B5136C9068AA
:10564000194440F68C23081A98429160D06051604A
:1056500013463BD9127893F9451010468A420BD174
:10566000111F082908D893F84610182901D80131CC
:1056700003E083F8442002E0002183F8461093F908
:1056800044402149A24219D191F84740B4B10C31AC
:105690000024944206DA51F8046F1C4D25F814607A
:1056A0000134F6E70C2805D01849002421F81040F1
:1056B0000130F7E7164801780131017083F8452081
:1056C000002201211A7083F8471070BD92F847102C
:1056D000C9B140F2DA51A0F2EF248C4208D8117817
:1056E0000B2905D80B1D0131117042F8230070BD44
:1056F000002283F84720074B03F13002002143F8D2
:10570000041F9342FAD170BDA00100206C1E00203E
:10571000CC0E0020AC010020024A136C0133194466
:1057200011647047A0010020024B53F820301B6821
:1057300019807047BC1C0020074BA1F57A7153F803
:1057400020301A681B8959434FF47A7391FBF3F1A7
:1057500089B21180704700BFBC1C002038B50C4BCB
:105760000C4D99680C4B1A681C465288114203D0A4
:1057700002F08CFD686006E002F088FD6B689842DC
:1057800084BF01232B7223685A68044B5A6138BDC9
:10579000000C0140CC0E0020340400200004014025
:1057A00090F83B3210B57BB990F83A3290F8394214
:1057B000A34209D2B0F8401201229A400A430133B1
:1057C000A0F84022DBB2F3E710BD1FB50123ADF80E
:1057D0000830ADF80410002301A9ADF80A30ADF887
:1057E0000C30ADF8062004F081FC05B05DF804FB38
:1057F00010B5A0F5127494F83C22BAB9A36A616A94
:10580000994228D0591CA069A162C35C2069DBB20F
:105810005B0043F400738142A4F83E324FF00A0368
:1058200084F83D3228BFA262012312E094F93D3290
:105830007BB1B4F83E1220464B08A4F83E3201F08A
:105840000101FFF7D5FE94F83D32013B84F83D326B
:1058500001E084F83C3294F83832002B4ED194F8B1
:1058600039320133DBB2092B84F8393203D12046B7
:10587000BDE8104094E70A2B40D194F83B322BB995
:10588000B4F8403243F00103A4F840326379D907F9
:105890001CD5B4F84002820501D4C30705D4B4F87E
:1058A00044320133A4F8443210E0E36AC0F3470005
:1058B0000BB198470AE0E3696269D054E369E16893
:1058C0000133B3FBF1F201FB1233E361012284F8EF
:1058D000382294F83B220023012A84F839320DD172
:1058E000A27984F83B32236B12F0010F1868997A81
:1058F0000CBF02220022BDE8104066E710BD1FB5B4
:105900000123ADF808300023ADF80C30ADF80A30B3
:10591000084BADF804101B7801A9012B08BF032325
:10592000ADF8062008BFADF80C3004F0DFFB05B081
:105930005DF804FB9C01002038B510F80E2C0446DD
:1059400050F8043C52B9012200F80E2C20F80C1C2F
:10595000997A18680222BDE83840D0E730F80C2C5C
:1059600020F80A1C891A89B220F8081C074A10F886
:105970000F0C002522F8101004F80E5C1868997AB4
:105980002A46FFF7BCFF04F8065C38BD6C1E0020F9
:10599000044B53F820301BB107289CBF1B681980AB
:1059A000704700BFC8020020D8E6D7E6D6E6084A0E
:1059B00013689B020BD5074B002119704FF6FE733D
:1059C0000549086803400B604FF4001353607047AB
:1059D00000000240112C00206C00024001F0030383
:1059E00001F0FC0101F1804101F5803110B59B000F
:1059F0008C680F229A4024EA02028A608A689840E2
:105A000002438A6010BDF0B5B1F800E000234EFA01
:105A100003F2D50725D58E784FEAD30CF40648BF9C
:105A2000CC7806F00F0203F0070748BF2243BF00FF
:105A300050F82C500F24BC4025EA0404BA402243FD
:105A4000282E40F82C2005D1C46801229A4024EA6F
:105A5000020205E0482E04D1C46801229A40224384
:105A6000C2600133102BD2D1F0BD2DE9F04F1E469C
:105A70004FF414734343554D85B005F10C04804633
:105A80009146E718A24610B92B44514A03E0012879
:105A900005D1504A2B44DA631032C3F840214FF449
:105AA000147303FB08F34C48EC180AEB030203F5EC
:105AB0009C7334325344E060A1632262636200222B
:105AC0004FF480714FF0010BD4F840310320A161F5
:105AD000E262A262E1616263226384F8482284F890
