:020000040800F2
:10000000005000205DAD0008FDAD00080D93000814
:10001000FDAD0008FDAD0008FDAD000800000000CA
:10002000000000000000000000000000FDAD00081E
:10003000FDAD000800000000FDAD00084785000888
:10004000FDAD0008FDAD0008FDAD0008FDAD0008E8
:10005000FDAD0008FDAD0008ED390008E9390008E4
:10006000FDAD000855850008FDAD0008FDAD000898
:10007000FDAD0008FDAD0008E9470008FDAD000832
:100080001D6F0008FDAD0008FDAD0008FDAD0008C6
:10009000FDAD0008FDAD0008FDAD0008E539000824
:1000A000FDAD000855630008FDAD0008656300085C
:1000B000456300083563000825630008C92F000860
:1000C000CD2F0008C12F0008C52F0008FDAD000886
:1000D000FDAD0008E1470008D9470008D1470008F6
:1000E00059850008FDAD0008FDAD000800000000C6
:1000F0000000000000000000000000000000000000
:0C01000000000000000000005FF808F1A3
:100110002DE9F04F824B834C9FB0C4F898300023F8
:10012000C4F89C3004F042FD18B904F061FD06F0FB
:10013000D3FB06F077FC7C4A7C4D1378A87B43F018
:100140000103137000230A930B930C934FF4E013F5
:100150000D93774B9A461A6842F480321A609A6976
:1001600042F010029A61DAF8003003F400330B9386
:100170000A9B01330A930B9B1BB90A9BB3F5A06F33
:10018000F1D1DAF800306A4913F4003301D00223C8
:1001900017E00A6842F001020A600A93DAF80030B8
:1001A00003F002030B930A9B01330A930B9B1BB9C9
:1001B0000A9BB3F5A06FF1D1DAF800309A0741D568
:1001C00001230C935B4B5C491A6842F010021A60E1
:1001D0001A6822F003021A601A6842F002021A60DA
:1001E000DAF80430CAF80430DAF80430CAF8043017
:1001F000DAF8043043F48063CAF804304F4B1A68CD
:10020000043B22F070425A604D4A1160DAF8041043
:1002100021F47C11CAF80410596841F0004159607A
:10022000D96821F40041D9609B681B0449BF454B44
:100230004FF4E01313604FF480130D930C9B012BCC
:1002400001D118E0FEE7022B1BD168B10D9BB3F57D
:10025000801F02D14FF4A01305E00D9BB3F5E01F02
:1002600002D14FF400130D930D99DAF804300B43CB
:1002700043F4803303E0DAF8043043F46013CAF83F
:100280000430DAF8003043F08073CAF80030DAF84E
:100290000010274B8F01FAD5596821F003015960EE
:1002A000596841F002015960DAF80430204803F03F
:1002B0000C03082BF8D14368234903F00C03042BEB
:1002C00003D0082B03D01C4B12E0136810E04368E6
:1002D0004668C3F38343F60303F1020301D41B48CA
:1002E00005E0406810F4003F106818BF4008434321
:1002F0000B60DAF804301648C3F303130344187E86
:100300000B68C3400B60EB7B003318BF012384F8FC
:10031000A0301368084A93421CD101221EE000BF9E
:1003200097640008B8000020C42100200C2200209F
:10033000001002400020024000127A000410014028
:1003400028000020001BB7004800002000093D00E5
:1003500010EF0008B64A934202D10222B54B1A7040
:10036000DFF82883B44B0DF1780BC8F80C30DAF8BD
:100370001830DFF81CC343F00103CAF81830DAF86C
:100380002430AE4EC4F8A430DAF82430604643F08E
:100390008073CAF82430DAF81830002743F01C03C1
:1003A000CAF818304FF6FF732BF82C3D5946CDF89C
:1003B00008C08DF84E7006F0BCFE3046594606F077
:1003C000B8FE9F48594606F0B4FEDDF808C0022387
:1003D0001EA98DF847304FF010094FF400736046A6
:1003E00021F8343D8DF84690CCF81030CDF808C097
:1003F00006F09FFE934A5846536843F000735360DB
:1004000007F0BCFC904A139B3946B3FBF2F38F4ACA
:100410008F48136018220BF000FE8E4B4FF47A7257
:100420001B68B3FBF2F38C4A013B5360F02388F85E
:100430002330072397601360AB68DFF85882874F3B
:10044000C8F8003097E80F008BE80F00DAF8183092
:10045000139843F00803CAF81830DAF8183014A9D2
:1004600043F00803CAF8183008233361C6F8109027
:1004700006F05FFE159816A906F05BFED8F800306E
:10048000DDF808C013F0080FCDF80CC015D0744B80
:1004900093F88E31012B10D8724A714BD2F8A420F8
:1004A00093F88F3112F0805200F0328505E06C4BEA
:1004B000002283F88F2106F095FC642008F039F8BB
:1004C000A022694800210BF0A8FDDAF81C300022B8
:1004D00043F00703CAF81C30DAF8183043F400631D
:1004E00043F00C03CAF818305E4B4FF0000903F1DB
:1004F000A80102F8019001320E2AF5D1FF2283F8FB
:10050000B62083F8B72083F8B82083F8B920574B7A
:10051000574A49461A6057483C22D8F800600BF009
:100520007CFD4946C6F380170523534ADFF844E1B2
:10053000885C0C224A4302F80E0047B91E38012895
:100540009FBFFF2003F1FF3302F80E00DBB2013141
:100550000529EAD1494A95F805901370484BB10630
:10056000C4F8BC3003F1C003C4F8C030454B3D4A69
:1005700003EBC9035B7848BF0123C2F8C4300021F4
:1005800041481C2284F8BA900BF047FD16F4005C39
:10059000DFF8048106F4006108D151B195F8822199
:1005A00008F10C03012A08BF434604E0CDF8088097
:1005B00002E008F10C030293204BB9F10E0F0F93E8
:1005C000029B5B88ADF84030029B1B88ADF842303F
:1005D0000FABC4F8E03004D009F0EF09B9F1080F0F
:1005E00002D1012384F8DA3001200591CDF810C042
:1005F00007F032FFDDF810C0C6F3400384F8CE30B8
:100600001CF1000318BF0123059984F8C830C6F314
:10061000C03384F8CD0084F8D07084F8CB30002942
:100620003CD095F882315F1E7B427B4137E000BFB2
:10063000001BB7002E2A00200005FA05000C01401F
:10064000001001400000014040420F00281F002020
:10065000C40F00204800002010E000E038EF000840
:100660000C220020B8000020C8200020201F0020FD
:10067000FC230020E41E0020160D0108E11E0020CE
:100680001C220020CC0001088001002000ED00E0C9
:1006900000080140341F002010EF00080B4684F8CA
:1006A000CC30C6F3004384F8D130C6F3402384F83D
:1006B000D230D4F8C430B5F84401003318BF012358
:1006C00084F8D330C6F3005384F8D430B5F84631FB
:1006D000A4F8DE00A4F8D830F004B5F8523148BFD1
:1006E000B648A4F8D630C6F3804306F00101C6F33D
:1006F000C00284F8CF3048BFB0F84C61B5F8503133
:1007000048BFAF48A4F8DC3048BFA0F8DE60B3F5BE
:10071000FA7F84BF0023A4F8DE3095F8D231A948CF
:1007200084F8E430002384F8E530437094F8DA303C
:1007300084F8C910002B84F8CA200CBF00230223C0
:1007400001B902B1013308EB83039B6B9A1E1A3384
:100750000793002305920493059B994D33F8024FAC
:1007600005934FF6FF739C4200F0928195F8CD20DF
:10077000E3B2240AE6B21AB19A1E012A40F283813A
:1007800095F8D02032B190491A0189588F4A914288
:1007900000F0798195F8D10030B18B491A01895860
:1007A0008A4A914200F06F8195F8CE2052B1864975
:1007B000039F01EB03114A68BA4203D10A89102A48
:1007C00000F0618195F8CB2052B17F49039F01EB86
:1007D00003114A68BA4203D10A89022A00F0538100
:1007E00095F8CC2052B17849794F01EB03114A6852
:1007F000BA4203D10A89022A00F04581D5F8E07097
:100800008FB1714A02EB031EDEF804103A68914280
:1008100009D1BEF80820B988914200F03481F988E6
:10082000914200F03081022C02D195F8C82003E0FB
:10083000012C04D195F8C920002A00F0248195F8F4
:10084000D320614C1F0162B15D4A92F8DA2042B9AF
:10085000A3F10802012A04D8E2595E498A4208BF7E
:10086000042695F8D4203C445AB1554A92F8DA202F
:100870003AB910B10C3B012B01E0043B032B40F2D1
:10088000EB80012E49D1DFF840C1FF2385F82C31E0
:1008900085F82D310CEB07035A7B586803F10809E2
:1008A0001B894FF00008ADF84C3013A9022385F8DE
:1008B0003081C5F83C418DF84F30CDF818C08DF827
:1008C0004E2085F8E880C5F8EC80C5F8F080C5F8C2
:1008D000F480C5F8288185F82E8185F82F8106F0EF
:1008E00028FCDDF818C099F802105CF807004246B1
:1008F00002F0C9FE20464146324603F0C5FE364BA3
:100900003649C5F84031364BC5F84881C5F8443101
:1009100020460A1D03F000FFB5E0022E66D19DF8C7
:1009200010301C2101FB03FC254B9DF8101003EB3C
:100930000C09012389F830310893234B89F83111D0
:10094000DA1902F1080359794FF00008506812894A
:100950008DF84E1089F8328113A989F83A81C9F8C7
:100960003C41CDF824C00693ADF84C208DF84F6083
:1009700006F0DFFB144B4246D859069B997802F0EB
:1009800082FE089B20461A46414603F07DFE0C4B32
:10099000144ADDF824C0C9F840219C44124A0CF5E1
:1009A000A071C9F84421C9F8488120460A1D03F006
:1009B000B3FE049B0133049365E000BF0C220020CA
:1009C000B80000209D010020ECFF0008000400405A
:1009D000000C0140002C0140DD300008F80100202F
:1009E000BD310008C1360008B5300008032E31D1F2
:1009F00095F8CF20994B95F8E670994E2AB120468C
:100A000008214FF6FF72002318E0B3F8DC20B3F89A
:100A1000DE30B2F5FA7F0BD992492046B1FBF2F2F3
:100A2000082192B202F084FE8F4B46F827000AE0BC
:100A30008E492046B1FBF2F2012192B202F078FE1B
:100A40008B4B46F82700C36095F8E630013385F8F4
:100A5000E63018E0042E16D1B5F8D620834B204698
:100A600093FBF2F20121B5F8D83092B295F8E56027
:100A700002F05EFE95F8E53005EB86060133C6F818
:100A8000100285F8E530059B079A93427FF464AE27
:100A9000784B724C1A68039312F4802F02D1012311
:100AA00084F83032744A754F1378754843F0040364
:100AB00013703B784FF48052022B34BF1423102361
:100AC0008DF84E304FF002038DF84F30DAF81830C1
:100AD000ADF84C2043F00403CAF8183034BF0026A8
:100AE000012613A906F025FB664B0EB1664A00E00D
:100AF000664A00201A6007F031FD654B654E93E8A9
:100B00000300DAF818308BE8030043F00803CAF852
:100B10001830139814A906F00CFBDAF81C304FF0CB
:100B2000030943F48043CAF81C30DAF81030304629
:100B300043F48043CAF8103018238DF84E305946DC
:100B40004FF42043ADF84C308DF84F9006F0F1FA99
:100B50004FF0040C4FF48043304659468DF84EC098
:100B6000CDF810C04FF48058ADF84C3006F0E1FAE3
:100B70001023594630468DF84E30ADF84C8006F0C3
:100B8000D8FADAF81030322043F48043CAF8103033
:100B9000DAF8103023F48043CAF810303E4B1A883C
:100BA00002F4415242F4457242EA09021A809A8BD9
:100BB00022F400621204120C9A8307221A821A8805
:100BC00092B242F040021A809F23C6F810808DF83E
:100BD000443000238DF845308DF846308DF847308D
:100BE00007F0A7FCDDF810C0C6F81480624658462E
:100BF00011A908F0B7FBC6F810809DF84E309DF89B
:100C00004D201B0243EA02439DF84F201343234A21
:100C1000934214D0322007F08CFCC6F81480F520E3
:100C200008F0D6FBFF2008F0D3FB7028C6F8108030
:100C300005D13B78022B04BF104B83F800903B7822
:100C4000032B0CBF1F20022007F086FB3B78032BF1
:100C500026D0012006F068FC27E000BFB800002085
:100C6000901F002000127A00DD31000840420F0082
:100C7000CD310008341F0020C42100202E2A00207E
:100C800000080140182A0020458200085982000807
:100C900058EF0008000C01400038004015202000EB
:100CA000022007F0D9FB0028D3D0039BDFF8E8A28D
:100CB0001E684FF0100B06F400630AF23120002189
:100CC0005A4603933F780BF0A8F94FF6FF73ADF83F
:100CD0004430022306F400494FF000081E408DF80E
:100CE00046308DF8478010D01EA921F834BDA148A8
:100CF00007F0F6F90126042207238AF831228AF840
:100D000032828AF833628AF83432B9F1000F12D095
:100D100002231EA921F8343D964807F0E1F901238A
:100D2000F21884F8353284F83732072384F83662B3
:100D300084F83832D6B2012F13D920231EA921F806
:100D4000343D8C4807F0CCF90523012284F8393270
:100D500084F83B22731C072284F83A6284F83C2210
:100D6000DEB2039B9BB102231EA921F8343D8248C9
:100D700007F0B6F90923012284F83D3284F83F22B6
:100D8000731C072284F83E6284F84022DEB27B4F57
:100D90007B487B68002443F440437B607B6943F0DD
:100DA00001037B61BB6943F40073BB6103F0ADFADF
:100DB00013A803F07FFA734B012E1393724B07971E
:100DC000149394BF2346802318934FF48073199390
:100DD0004FF48063A7F6F8771A93202313A91B9387
:100DE00038464FF4005316961C93159417941D948F
:100DF00003F06DFA3B68654A43F001033B605368BA
:100E0000012E23F4702394BF0021012123F4807369
:100E100043EA0123536091685D4B013E0B4043F46C
:100E2000602343F002039360D36AF6B223F47003A5
:100E300043EA0656D662012356490A1990780028DB
:100E400051D0605C591C0928C9B2D2784F4F10D9D3
:100E5000A0F10A06D7F80CC006EB46064FF0070EC5
:100E60000EFA06FE2CEA0E0EB2404EEA0202FA60BC
:100E70000CE03E6900EB400C4FF0070E0EFA0CFE42
:100E800026EA0E0602FA0CF232433A61062B3F4E76
:100E90000CD8013B776B03EB83031F229A4027EAB0
:100EA000020200FA03F3134373631BE00C2B0CD80C
:100EB000DA1F376B02EB82021F23934027EA0307F6
:100EC00000FA02F33B4333630CE0A3F10D02F76A2F
:100ED00002EB82021F23934027EA030700FA02F382
:100EE0003B43F3620B460434102CA5D1274B9A6880
:100EF00042F480729A609A6842F001029A609A689D
:100F000042F008029A609968204A090746D5FAE734
:100F1000013B092B3FF6D1AAB86E02925946C6F89A
:100F20001490CBF80000039806F003F9039B3C20D3
:100F30001A460823136107F0FCFA029AC6F81090CB
:100F4000164695F88F319E42BFF6B1AA039BDFF893
:100F500028900827C9F8107078205F6107F0DEFA42
:100F6000039BC9F8147078201F6107F0D7FA013687
:100F7000E7E700BF00080140000C014000100240FC
:100F8000080002404C240140FA02002000240140E5
:100F9000FDF7F1FFE9020020B8000020936843F05C
:100FA00004039360B64B9A685207FBD49A6842F4E4
:100FB000A0029A60B34BB3F85801002840F0308784
:100FC000B3F95A21002A40F02B87B3F95C31002B8A
:100FD00040F02687AC4FAD4C3B6813F4003F1FD068
:100FE000C82007F0A6FAAE2006F009FA08B106F00C
:100FF0000BFAA74E84F84A02C82007F09AFAA54BCC
:1010000000210C223046C4F84C320BF006F80223C3
:10101000F37004F04BFE07F065FA9F4B0344B36096
:10102000984ED4F8503296F868C1B3F956E0B6F845
:10103000600196F85F1196F867216346CDF800E0ED
:1010400002F0D6FC10B9012007F08EFA934A4FF057
:101050000A08137843F002031370914B10225A616F
:1010600008221A61DFF838921920D9F80C3008F1FB
:10107000FF3883F01003C9F80C30D9F80C3083F036
:101080000803C9F80C3007F054FA012007F066FA9B
:10109000192007F04EFA002007F060FA18F0FF0858
:1010A000E0D10823C9F810304FF0100A7D4BC9F881
:1010B00010A01A68984612F0080F09D07A4BC9F8A8
:1010C00014A01B689847794B0122C9F810A01A7028
:1010D000774B188809F07EF8D5F854328146187B92
:1010E00009F078F8734909F0C9F8734908F0BEFFB0
:1010F00005F07EFB0146484609F0C0F80CF0B4F953
:101100004946A5F858026D4809F06CF96C4909F098
:1011100069F96C4BC5F85C026649D86809F0AEF80D
:10112000694909F0ABF85B49B6F84E31674AC5F832
:101130006412D5F850E2C5F86C12B6F89411A5F80F
:101140006832002313809370C5F860020EF17902B3
:1011500085F870321FFA81FCDFF898915C48D9F865
:101160000050DFF894A105F596754AF8235020F851
:1011700013C00133122B4D46EED1D7F800900EF17B
:10118000C90E19F4805F08BFB6F89AC1A0F806C06E
:101190001378B3B9937892F803C0634511D20BB1B9
:1011A000013B01E00CF1010303EB830392F801C062
:1011B00003EB830303F561739BB20CF1040C20F87D
:1011C0001C3004327245E3D119F0080F00F003819E
:1011D00096F88E31062B00F2F780DFE803F0040763
:1011E0000E358FAFAF0045F2F05301E042F6F82321
:1011F000A4F8BC3208F090FAE5E042F6F8230901C1
:10120000A4F8BC320A2391FBF3F10023A1F5B061ED
:10121000304A42F823100133122BF9D12E4A2F49BC
:10122000402011602E4A137007F03AF9002800F0B0
:10123000CB8001234FF0070A90F9000040218DE890
:101240000804284A284BB9E042F6F823274AA4F8B4
:10125000BC32214B40201A60214B10221A7007F03B
:101260001FF9002800F0B08001234FF0000990F929
:10127000000040218DE808021D4A4FF4E1339DE053
:10128000002401400C220020341F0020B800002060
:101290007809002092230020404B4C00C4210020FC
:1012A000000C0140FC0F00200410002084090020E5
:1012B0000000002035FA8E3CDB0FC93F0AE81C41D4
:1012C00000401C464C0F0020BD378635BC1E002058
:1012D000C6210020A81D0020300000202B78000827
:1012E0000C2A0020AD7A0008A086010027780008AB
:1012F000017A0008F02100202C03002042F6F82398
:10130000794AA4F8BC32794B40201A60784B082205
:101310001A7007F0C5F8002856D001234FF0000CD2
:1013200090F9000040218DE80810724A4FF4E13333
:1013300007F040F8704BC3F8C00241E042F6F822D3
:101340006B49A4F8BC22062B4FF00C02DFF8D8C181
:10135000DFF8D8E169480A7010D000238CF800301B
:101360008EF800300370664B1B211970654B4FF4EB
:10137000E1391A70644B05221A700EE000210170E9
:101380008CF800108EF800105D49212008705D492E
:10139000DFF89C910A705C4A13705C4A534B402002
:1013A0001A6007F07DF878B101234FF0000E90F934
:1013B00000008DE808404B46554A402106F0FAFFF0
:1013C000003018BF012030B9B368524A23F0080337
:1013D000B360464B1A603B68454A13F4804F1FBF09
:1013E000122111704C48414918BF086042F20101B6
:1013F000194099B144F620619804A4F8BC1241BF89
:10140000082111704548394948BF0860D90741BFD4
:101410000C2111704248354948BF086011781B06FD
:10142000A1F10401517040F19980DFF8CCB04FF088
:101430000009DFF800A10BF53A7049461522C4F8FF
:10144000C4A284F8C992C4F8CC92C4F8D0920AF02D
:10145000E4FDAAF10503C4F800332B680220C4F8A8
:10146000E0322B6884F8C892C4F8DC9284F8E492E5
:10147000C4F8D43207F014F888B390F805E09BF86C
:10148000C932284A0C2101FB032191F85110714502
:1014900004D00133DBB2042BF3D9002384F8C93222
:1014A00096F8EB314FF00C0E002B94F8C93218BFB0
:1014B00003210EFB032208BF01214FF0000A90F91F
:1014C000000092F851300091CDF804A0022152465C
:1014D00006F070FFDFF82090C4F8040360BBB36827
:1014E00023F08003B36031E023780008300000204F
:1014F0000C2A0020B5790008B8000020141E002036
:10150000161E0020A51D0020171E00206977000868
:10151000957800087D780008597800086D780008F3
:101520005D78000810EF0008A61D0020151E0020A1
:1015300090D00300FC230020012389F8C8322B68D7
:10154000C9F8DCA2C9F8E03289F8E4A2D4F8500264
:1015500000F5C573C4F8083304F08EFE029B042521
:10156000C4F80C33079B4FF0030B9A69C64842F04E
:1015700001029A61029B0EA91A888DF83A50ADF8C3
:1015800038208DF83BB005F0D4FD029BBE485A8848
:101590000EA9ADF838208DF83A5005F0CAFD029B2F
:1015A0000120197A05F0B0FD029BB8495A684FF046
:1015B00010034A610025012613A813928DF85130BB
:1015C0008DF850508DF8526006F04CFD029B11A82A
:1015D0005A7A8DF845B08DF844208DF846508DF834
:1015E000476007F0A1FEAA4ADFF8CC921268DFF844
:1015F000CCA23C3AC4F81023D8F8002084F8205339
:1016000042F01002C8F800204FF0FF32C4F8142353
:10161000A04AC4F818238032C4F81C233A68D003C7
:1016200040F1AE8040F22A3804F0C0FD09F22139C1
:1016300004F0FEFD04F0E0FD09F8016C2946424685
:1016400048460AF0EAFCDAF81820934842F004020F
:10165000CAF818204022ADF838200EA918228DF8BB
:101660003B208DF83AB006F03BFDDAF81C208B49A0
:1016700042F00202CAF81C20894A8A4F1268DFF839
:1016800040B2B2FBF1F23988013A21F45C710904ED
:10169000090C398092B21D21B9853A85BE823A8CF7
:1016A00022F001021204120C3A843A8CB888398B69
:1016B00022F0020221F0730109041204090C120C39
:1016C00041F0600180B23243B8803983BD863A84EC
:1016D0003A8B584622F008021204120C42F008021B
:1016E0003A83B7F844206FEA42426FEA524292B21C
:1016F000A7F84420DAF814203243CAF8142002F084
:1017000004FE13A802F0D6FD674B5846139310232E
:101710001593802318934FF48073199313A94FF4F2
:1017200000531C93CDF85090CDF8588017951A951A
:101730001B951D9502F0CBFDBB8911A89BB243F40C
:101740000073BB81DBF8003043F00203CBF80030BC
:101750004FF010038DF845608DF844308DF84650F9
:101760008DF8476007F0E0FD504B1A68504B43F886
:1017700025200135202DF7D105F0E8FB05F0E6FB2B
:101780004C4B1A68029312F4806F00F06381D4F816
:10179000CC660420C4F8D06606F082FE04218046A0
:1017A000C4F8D40606F072FE074684F8D80608206E
:1017B000C4F8DC6606F074FE0821C4F8E00606F002
:1017C00065FE3D4D84F8E40600212C2205F2E5601B
:1017D0000AF023FC8E232C2200214FF07C0A84F88F
:1017E000E6364FF07D09E02305F2117084F8E83603
:1017F00084F8E5A684F810970AF00FFC8A2384F891
:1018000012371020A02384F8143784F811A784F825
:101810003C97C4F8406706F043FE1021C4F8440723
:1018200006F034FE84F848072020C4F84C6706F020
:1018300037FE2021C4F8500706F028FE84F854072C
:10184000384604F01DFA94F855370746834241D0D4
:10185000002837D0B8F1000F3CD0022398F90000DF
:10186000009373780421003318BF012301930022F1
:101870004FF4165306F09EFDC5F8580750B30123E8
:1018800085F8553726E000BF000C014000040140F8
:10189000F0210020382400200008014000366E01AD
:1018A0004800002000040040340400409CEF000881
:1018B00004070020341F0020B80000200010024060
:1018C0006C000240D5F8580706F05EFDC5F8587761
:1018D00085F8557794F8E40604F0D2F994F85C376B
:1018E000B84D834206461AD088B1D5F8E036B3B178
:1018F0000022012693F900000821009601924FF47E
:10190000964306F057FDC5F8600730B907E0D5F8F3
:10191000600706F039FDC5F8606785F85C6794F8E4
:10192000480704F0ADF994F86437A64D83420746A2
:1019300059D0002837D0D5F84427002A53D0D3797E
:1019400092F90000002B4FF002029F4E08BF0323C4
:101950000092002256F823300192102106F02AFD51
:101960000646C4F8680700283DD095F84A30022B97
:101970000BD095F89620022A01D14C3505E023B111
:10198000002A05F14C0518BF0025C4F86C5745B175
:10199000284600214C220AF040FB02232E6085F8E5
:1019A0004A3001231DE0D5F868672B68B34207D1A0
:1019B000304606F0E9FC284639464C220AF02DFB59
:1019C000E36CB34207D1304606F0DEFC7F480021CD
:1019D0004C220AF022FB304606F0D6FC0023C4F865
:1019E000683784F8643794F8540704F049F994F898
:1019F0007037744D834206462CD008B3D5F8503763
:101A000043B3D5F84C2793F9000052780323002AFA
:101A10000CBF0822092200930192202100224FF4DA
:101A2000614306F0C7FCC4F8740798B1012385F838
:101A3000783785F87037664B1B68C5F87C3709E046
:101A4000D5F8740706F0A0FCC5F8746785F87867C8
:101A500085F870675F4B604D1B78022B64D15F4A3D
:101A600000261388322023F040031B041B0C138034
:101A700013884FF4805723F038031B041B0C13808A
:101A800013889BB243F0400313809F238DF84430AA
:101A90008DF845608DF846608DF8476006F049FD89
:101AA0008DF84D604E4E0422776113A811A907F0FE
:101AB00059FC37619DF84E309DF84D201B0243EADA
:101AC00002429DF84F301343464A934219D00AD838
:101AD000A2F51A42033A93420CD002F51A4202329E
:101AE000934209D01BE0404A934205D00132934211
:101AF00007D014E0202300E08023AB804FF48073F4
:101B000002E04FF48073AB80EB802B89AA881B0224
:101B1000EB6053432B61354B01221A7004E0002324
:101B2000AB80EB80EB602B612B69002B00F0078111
:101B30004FEAD328C1464FF0000AC2452CDA0AEB1F
:101B400008077F10FB0203228DF8442000261A0CA0
:101B50001B0A8DF845208DF846308DF8476007F058
:101B600079FCC8B11E4B4FF4805CC3F814C011A9B6
:101B7000042230460DF14C0BCDF810C0039307F052
:101B8000F1FB58463146102207F0ECFB039BDDF8D1
:101B900010C0C3F810C00AE04FEAC923039394F8B9
:101BA000812794F88037934200F0C68020E05BF8EC
:101BB0002630013340F014810136042EF7D1B846A7
:101BC000B946BAE7B8000020D4FE0008040100209E
:101BD000F02100202E2A00200000002000380040C4
:101BE000000C014018BA20001740EF00F42100203B
:101BF0007D499A4201EB03001190129108D3D31A48
:101C0000139300231493139B149A02EB030857E0D9
:101C1000C3F1800313931492F5E7D4F80478FEB26D
:101C200008EB0603B3F5807F2B698CBFC6F5807681
:101C300046469F427BD20223DFF8B4918DF83830BC
:101C40003B0C4FF4805A8DF839303B0A8DF83A300E
:101C50008DF83B7007F0FEFBC9F814A0062007F0D2
:101C6000B7FB624B0122C9F810A000201A700EA920
:101C7000C9F814A0042207F075FBDDF84CA0BAF1F6
:101C8000000F21D0B24530D2DDF844B000205946D3
:101C9000524607F067FB0BEB0A010023CAEB06096B
:101CA00011911393DDF850A0BAF1000F0ED1504BF3
:101CB0004FF48052C6EB08083E441A61C4F8046829
:101CC000B8F1000FA9D132E0B146EBE7CA4511D215
:101CD000DDF8489000204946524607F043FB09EBE7
:101CE0000A01002312911493E1E7B14600230DF19C
:101CF0004C0B02E00DF1500B04230DF1440C5CF889
:101D000003A04A46002051460593CDF810C007F0C5
:101D100029FB059BDDF810C00AEB09024CF80320F3
:101D2000DBF80030C9EB0303CBF80030BFE700233A
:101D300084F8813784F88037039BC4F80438029B09
:101D40001B6813F4002318BF012384F8083806F039
:101D5000C9FB284B4FF47A711860274B5A79052A32
:101D600004BF4FF4C872A4F80A28244A1180244AF8
:101D7000C821118023490A7842F008020A702249DA
:101D80000A7822F002020A70029A116840F60202F2
:101D90000A406AB11D4A0320C4F80C281C4A10707E
:101DA0001C4A012010700022A4F81028A4F8122860
:101DB0008A0341BF184A00211171D1789B6844BF42
:101DC00041F00101D170029A1360144A012384F892
:101DD0003032137863F07F0313701FB0BDE8F08FCB
:101DE00007F1010A4F46EBE63A080020F4210020F3
:101DF000000C0140300900200C220020282A00207D
:101E00002A2A0020081E00202C2A002084230020DB
:101E1000A81E00204400002078090020C4210020D2
:101E2000464B00221A7000B208F0D4F9444908F079
:101E300025FA444C0746B4F95A0108F0CBF9404959
:101E400008F01CFA0646B4F95C0108F0C3F93C49F5
:101E500008F014FA3C490446384608F007F904F043
:101E6000C7FC8146384604F0C3FC37490746304674
:101E700008F0FCF804F0BCFC8046304604F0B8FCE6
:101E800031490646204608F0F1F804F0B1FC8346DB
:101E9000204604F0ADFC49468246584608F0EEF96B
:101EA00049460390504608F0E9F9594604903846EF
:101EB00008F0E4F951460590384608F0DFF941464C
:101EC0000690584608F0DAF9204C5146206008F197
:101ED000004008F0D3F931466060A660059808F02C
:101EE000CDF90146049808F0C1F83146E060069843
:101EF00008F0C4F90146039808F0B6F8414620619D
:101F000007F1004008F0BAF931466061039808F023
:101F1000B5F90146069808F0A7F83146A061049883
:101F200008F0ACF90146059808F0A0F84946E061D0
:101F3000404608F0A3F92062FFF74CB814000020D7
:101F400035FA8E3C0C220020DB0FC93F44090020EB
:101F50009148F0B50368914A9C8AA4B2E1B211F0AD
:101F6000010F2ED0198821F400610904090C198091
:101F7000198889B241F4806119800021117051786B
:101F800099B1917811B9D178FF290ED101219170C1
:101F90001179022901BF198889B241F400611980C1
:101FA000517941F001011982E1E0517901F0FE011E
:101FB0001982D378FF2B00F0DA80784BFF2119705B
:101FC000D5E08E073AD5BFF35F8F1479E4B2012CC8
:101FD00013D1517889B1917879B1198821F4806150
:101FE0000904090C1980BFF35F8F198B198894714C
:101FF00089B241F4007119801BE0198BBFF35F8F28
:1020000014796649022C0AD14C7844B1897831B1EF
:10201000198821F480610904090C1980A1E0147960
:102020005E49032C05D14C781CB18978002940F019
:102030009880998889B241F4806197E04D0756D520
:10204000012191715178002937D09178002934D03D
:1020500011791C88022911781DD924F48064240484
:10206000240C1C801E8A9568CCB2F6B249B26E541C
:10207000198889B241F4007119800168A31C13709A
:102080000B8A0134DBB264B22B558B889BB243F4CC
:1020900080638B8026E0A4B244F400741C801D8A07
:1020A0009668CCB2EDB249B275541B8A611C49B234
:1020B000DBB203347354147014E09178374C09B9CF
:1020C000217B41B1198889B241F4007119801378DC
:1020D0000133137006E0198889B241F480711980C8
:1020E0000123A37001680B88DB05FCD43FE001F0FD
:1020F000400101F0FF05E1B114781F8A9668E5B24E
:10210000691C64B2FFB23755C9B21679117049B271
:10211000CC1CA64201BF9C8824F480642404240CB7
:1021200008BF9C8013798B4221D11C4B02351D7056
:102130001DE027061BD511784CB2661C0AD0156924
:1021400001312C5DC9B21C821479117049B28C42E4
:102150000DD106E0D17815701982517809B911793D
:1021600029B9998821F480610904090C99801379AF
:1021700092F9004001339C4208490CD100238B7036
:102180008B7933B101688B8823F440731B041B0CDB
:102190008B8000231375F0BD641D0020CC08002047
:1021A0002DE9F04F87B06C4C02916C4922888E6902
:1021B0000546C2EB26135B435200C2EBE602B4F9BC
:1021C00002601B135643B4F90420B4F90A005343C8
:1021D0009B1303EBE62606EB860380331B12B6F552
:1021E000FA384FEAE6770493CB6947F1FF39A8FB49
:1021F00008AB039308FB09F3B4F908200BEB430B7E
:10220000E389A6610593D31708FB03F102FB0911CB
:10221000A8FB02230B44C1171F030AFB01F300FBB9
:102220000B33AAFB00011603194447EA1257020AAE
:1022300042EA016292194FEA2123E6887B4100328B
:10224000A2FB060143F5004306FB03114B1000936C
:10225000CB170193DDE900231343B4F810E0B4F881
:102260000CC06DD00FFA8EF0C1170AFB01F1AAFB6A
:10227000002300FB0B11BDF914600B44F71708FB9A
:1022800007F106FB0911A8FB06670F4479047004E7
:10229000801841EAD6315941039B0FFA8CF8C3F5F7
:1022A000801E7246D317002212184FEACE764FEAEC
:1022B000C3774FEAC8034B4147EA5E07B61A67EB9C
:1022C000030740F63543A6FB030103FB0711DDE9D5
:1022D000002308F0DFF9B4F916204E1302FB06FEC6
:1022E000470B47EAC147D31707FB03EEA2FB0723BF
:1022F0005643734407FB0366A2FB07233344560E81
:1023000046EAC3168219B4F914604FEA636741EBD9
:1023100007037143F71700FB0717A6FB00013944B9
:10232000C60C46EA413692194FEAE1474FEA1221BC
:10233000B4F912207B4141EA036113010B4400E030
:1023400000230DB11B0A2B60029B13B11A46049B9C
:10235000136007B0BDE8F08FE00F0020CC0800202C
:10236000704770476B4B6C4A2DE9F04F5E89146AD9
:102370004FEA062AB4EB0A0A9C884FF000054FEAA0
:1023800004481C894FF0000BA4FB0A6765EB0B0B9C
:1023900004FB0B77F40944EA476418EB04065C88F5
:1023A0004FF000094FEAE7154FEAC438DC8849EBE3
:1023B000050787B0CDE90467A4FB0A6704FB0B7728
:1023C000340A44EA076418EB04064FEA27259C897F
:1023D0004FF0000949EB0507CDE90067AAFB046748
:1023E00004FB0B77F40D44EA472414F5FA664FEA30
:1023F000E75545F10007B6F5FA6F77F10003CDE92F
:102400000267964666DADDE90489A4FB046704FBEB
:1024100005F34FF0050C07EB4307A6FB0C230CFB61
:1024200007335F104FEA3206B8EB06084FEA920610
:1024300046EA837669EB07099F10DDE90023921BCA
:1024400063EB0703CDE90023DDE90267334A4FF070
:10245000FF33964277EB0303CDE9048927DA40F690
:10246000AC520023A4185D4104FB05F3A4FB044512
:102470006FF0060205EB4305664202FB0566A4FB0E
:102480000223334418EB020649EB0307CDE9046746
:102490000B26A4FB062306FB0533DDE900455B1094
:1024A0004FEA3202A41A65EB0305CDE90045DDE9E8
:1024B00002450AFB0BF3AAFB0AAB0BEB430B4FEAFB
:1024C000DA7242EA4B02A41A4FEAEB7365EB03059A
:1024D000CDE90245DEF82440009B019DA4FB0323C7
:1024E00004FB05334FEA525848EAC3284FEA6359C0
:1024F000DDE90423B8EB020269EB03039946D30B31
:1025000043EA494300B1036009B1029B0B6007B085
:10251000BDE8F08F740F0020CC08002024FAFFFFE4
:102520002DE9F041324C334D62892B8DB4F9048092
:102530009A1A2389B4F902E05A43B4F91230D61337
:10254000B4F91420DB02324493FBF2F232440A263F
:10255000E2615643A2F57A6202FB02F3B4F90EC0BF
:1025600002FB0EFE02FB08F2B4F90C801B130CFBFD
:1025700003FC03FB08F31B1403EB62320232E38813
:10258000921002F5004253434CF25032B4F92070DD
:102590004FEAEE2EB4F900400EEBEC2C0CEB840469
:1025A000BC40ED6A0234A5EBA4043A4162434FEA11
:1025B000D3384EBFB2FBF8F35400B4FBF8F340F647
:1025C000DE3448BF5B001A12524362430A4C08369D
:1025D0005C43241404EB224202F6CF62361103EB73
:1025E000221300B1036001B10E60BDE8F08100BFAD
:1025F000880F0020CC08002043E3FFFF13B50C4BED
:1026000004465B681B20022101AA984770B19DF81F
:1026100004209DF8053043EA022303F54E5310339E
:102620004FF48C7293FBF2F32333238002B010BD7E
:10263000600F002037B5104B04465D6818780621FE
:102640006A46A847A8B19DF800209DF801300120F6
:1026500043EA022323809DF802209DF8033043EAD9
:10266000022363809DF804209DF8053043EA02238D
:10267000A38003B030BD00BF600F002013B5104B26
:1026800004465B683B2006216A469847A8B19DF83E
:1026900000209DF80130012043EA022323809DF8A9
:1026A00002209DF8033043EA022363809DF8042052
:1026B0009DF8053043EA0223A38002B010BD00BF9D
:1026C000600F0020B0F5807F0ED0BB280ED86128A7
:1026D0000ED829280ED813280ED809280ED800287D
:1026E00014BF06200020704700207047012070476B
:1026F0000220704703207047042070470520704770
:1027000010B5224C2368998A89B211F4706F1EBFEC
:102710001F4A012082F8300011F4E06F2BD01A8B91
:102720009A88890522F480624FEA02424FEA1242F7
:102730009A8020D41A8892051DD41A88D0050FD506
:102740001A88D105FCD41A8892B242F400721A8019
:102750001A889205FCD40F4B187804F0E5FE0AE0C5
:102760001A8892B242F400721A809A8822F4407257
:102770001204120C9A802268938A23F470631B045B
:102780001B0C9382024B00221A7510BD641D0020A1
:10279000CC080020681D0020054A08B513880133C5
:1027A0009BB21380034B187804F0BEFE002008BDD6
:1027B000AA1E0020681D002008B54FF4804005F0D7
:1027C00081FC012801BF044B4FF480425A61034B46
:1027D00008BF83F8310008BD00040140CC08002088
:1027E00010B5054C2368186905F06CFC18B1236816
:1027F0001A69024B5A6110BD6C0F002000040140A1
:10280000F8B50E461746084C4FF48055656140F008
:10281000800006F0DDFD38460021324606F0A2FDBC
:1028200025610120F8BD00BF000C014070B50E46C7
:10283000054C4FF48055656106F0CAFD304606F040
:10284000C7FD2561012070BD000C014070B5FFF788
:1028500039FF104C0546192005F06BFEA3681520C2
:102860000021984710B9022005F07EFE45F01801BE
:10287000A368C9B216209847A3680021172098477B
:10288000A36801213D209847A3683E200121BDE8AF
:1028900070401847600F0020F0B5284D85B095F8BE
:1028A0003230002B47D1264C2368002B43D01A68C6
:1028B000244E12B1B1690A43B2619A889868ADF8A2
:1028C000002002228DF80320694604228DF80220A0
:1028D00004F02FFCB369002743F00103B3612368C0
:1028E0000126187B197D04F00FFC2368164993F923
:1028F000150005F083FE2368144A1B695361029397
:1029000008230DEB03008DF80D308DF80C708DF859
:102910000E6005F0A7FB236801A85B7D8DF80670AB
:102920008DF8043003238DF805308DF8076006F02C
:10293000FBFC85F8326005B0F0BD00BFCC0800207C
:102940006C0F002000100240E12700080004014045
:1029500037B50446FFF7A0FF254B1A68254B9A426E
:102960000ED14FF40053ADF8043002238DF8073038
:10297000042321480DEB03018DF8063004F0D9FB48
:102980002046FFF79FFE05461C4C8021A3686B2064
:102990009847642005F0CDFDA3680721682098477B
:1029A000642005F0C6FDA36800216B2098476420D1
:1029B00005F0BFFDA36801216B209847A36818218B
:1029C0001B209847A36810211C209847A36829461C
:1029D0001A209847A368002119209847A36812215C
:1029E00037209847A36801213820984703B030BDAD
:1029F00028000020001BB70000100140600F0020DD
:102A000008B5FFF749FF024B4FF480521A8008BD0A
:102A10000000002070B50446FFF73EFF2046FFF798
:102A200051FE0546144C8021A3686B209847642012
:102A300005F07FFDA368002119209847A3680321B2
:102A40006B2098470F2005F074FDA36829461A20D3
:102A50009847A36818211B209847A36810211C20C1
:102A60009847A368022137209847A368382001219E
:102A7000BDE87040184700BF600F002008B5FFF7A1
:102A80000BFF074B5B7813B1012B03D008BD4FF44C
:102A9000006201E04FF48052024B1A8008BD00BF73
:102AA0005C0F00200000002010B51E4C4000C0B29A
:102AB000A36023611C4B6071E17001200021217330
:102AC000607022712075186884F8301040B38388D4
:102AD0009B0515D40388D9050DD447F230530288DD
:102AE000920502D5013BFAD112E08BB103889BB26B
:102AF00043F48073038083889BB243F440738380E4
:102B000047F23053227D12B1013BFBD100E013B9F3
:102B1000BDE8104040E6034B93F8300080F0010020
:102B200010BD00BFCC080020641D002007B5F721B0
:102B30006B4606227620FFF7B7FF9DF800309DF820
:102B400001101B0343EA01139DF80210094A43EAEE
:102B50001113D3619DF803309DF804101B0343EA61
:102B600001139DF8051043EA1113936103B05DF85A
:102B700004FB00BFCC08002007B5002101AB0322F5
:102B80007720FFF791FF9DF805309DF804001B02A8
:102B900043EA00439DF80600184303B05DF804FBC8
:102BA00008B5FFF7E9FF014B586208BDCC080020CB
:102BB00008B5FFF7E1FF014B186208BDCC08002003
:102BC000104B13B51B78104C13B194F83130B3B1DE
:102BD000032201AB7720F621FFF766FF9DF8053051
:102BE0009DF804201B0243EA02439DF8062013438C
:102BF000064AB2F92020C2F10802D340E36202B0D3
:102C000010BD00BF15000020CC080020880F002058
:102C10000B4B13B51B780B4C13B194F8313063B1E7
:102C2000022201AB7720F621FFF73EFF9DF804203A
:102C30009DF8053043EA0223238502B010BD00BF92
:102C400015000020CC08002030B505460C46134680
:102C500029462246BDE83040682025E713B5062204
:102C6000044601211C206B46FFF71EFF08B39DF8A8
:102C700001309DF80020042143EA022242F38D0234
:102C800092FBF1F29DF8023022809DF8032042EA87
:102C9000032242F38D0292FBF1F29DF80430628030
:102CA0009DF8052042EA032343F38D0393FBF1F3E0
:102CB000A38002B010BD13B50622044602211820DD
:102CC0006B46FFF7F1FEB8B19DF800309DF801208A
:102CD0009B0803EB022323809DF802309DF803201C
:102CE0009B0803EB022363809DF804309DF80520C8
:102CF0009B0803EB0223A38002B010BD314B2DE9EA
:102D0000F3411B780546002B3CD00024264627467D
:102D1000A04601345320322108226B46E4B2FFF76B
:102D2000C3FE08B900204AE09DF801209DF800305C
:102D3000202C03EB02231BB29DF8032098449DF83E
:102D4000023003EB02231BB21F449DF805209DF8BF
:102D5000043003EB02231BB21E449DF8073003F03E
:102D60007F0301D0002BD4D198FBF4F897FBF4F744
:102D700096FBF4F6144BA5F800806F80AE8083F8C4
:102D800033401CE05320322106226B46FFF78CFEB5
:102D90000028C7D09DF801209DF8003003EB0223E6
:102DA0002B809DF803209DF8023003EB02236B80FB
:102DB0009DF805209DF8043003EB0223AB8002B0A0
:102DC000BDE8F081720F0020CC08002013B5204B25
:102DD000400002ACC0B2587104F8012DD970012234
:102DE00000211A7359701A711A751A4A1C611068F9
:102DF0009C6083F8301040B38288920515D4028815
:102E0000D4050DD447F230520188890502D5013A24
:102E1000FAD112E08AB1028892B242F48072028042
:102E2000828892B242F44072828047F23052197D19
:102E300011B1013AFBD100E012B9FFF7ADFC04E09B
:102E4000034B93F8300080F0010002B010BD00BFCA
:102E5000CC080020641D00207620F4213122B5E743
:102E6000772048210122B1E7772058210122ADE7E0
:102E7000064B002193F82020054B9201343283F851
:102E800031107720F42102F0FC029FE7880F002028
:102E9000CC080020034B002283F831207720F42156
:102EA0002E2293E7CC08002003460A4668201946E4
:102EB0008CE713B500222A211C20FFF787FF0E2183
:102EC00002221C20FFF782FF0F2103221C20FFF7A4
:102ED0007DFF2B2112221C20FFF778FF164A0224C7
:102EE0009369164843F0040393612023ADF804303E
:102EF00004230DEB03018DF806308DF8074004F034
:102F000018F922462C211C20FFF760FF2D210122F9
:102F10001C20FFF75BFF2E2100221C20FFF756FF2D
:102F20002A2105221C20FFF751FF054B4FF4807228
:102F30001A8002B010BD00BF00100240000801401E
:102F40000000002008B50F2108221820FFF73EFFDF
:102F50000E2218201021FFF739FF024B4FF4805248
:102F60001A8008BD0000002008B5134B53201B78C1
:102F70002D2108227BB1FFF729FF31210A2253209E
:102F8000FFF724FF2C210C225320FFF71FFF5320B3
:102F90003821902209E0FFF719FF31210A2253203E
:102FA000FFF714FF53202C210A22FFF70FFF40F2F6
:102FB0000912024B1A8008BD720F00200000002089
:102FC000FEF7C6BFFFF79CBBFEF7C2BFFFF798BB7B
:102FD000426A806A131A58425841704741717047DB
:102FE00043799B070AD5436A8269D154436A0169D0
:102FF0000133B3FBF1F201FB1233436270474279B4
:1030000002F0020202F0FF0342B10369426A806AE1
:10301000013BDBB2101A23EA0000704718467047E4
:10302000437913F001031FBFC36803F1FF32C36983
:10303000006A1DBF181A1040C0B218467047437985
:1030400010B513F0010304460DD0FFF7E9FF58B1A6
:10305000236A6269E168D05C0133B3FBF1F201FBE2
:103060001233236210BD184610BD90F83B3210B5E4
:103070007BB990F83A3290F83942A34209D2B0F8BD
:10308000401201229A400A430133A0F84022DBB2E9
:10309000F3E710BD8379DB0748BFB1FA81F1D0F8BF
:1030A000343148BF49095A681B8909B11361704717
:1030B0005361704710F80A3C0133DBB20A2B84BF1E
:1030C00010F8131C044A00F80A3C82BF002322F8BF
:1030D000113000F80A3C7047F01D0020334A70B5EB
:1030E000136C9068194440F68C23081A984291603A
:1030F000D060516013463BD9127893F945101046C1
:103100008A420BD1111F082908D893F846101829B4
:1031100001D8013103E083F8442002E0002183F864
:10312000461093F944402149A24219D191F84740F1
:10313000B4B10C310024944206DA51F8046F1C4DEE
:1031400025F814600134F6E70C2805D0184900244E
:1031500021F810400130F7E716480178013101707D
:1031600083F84520002201211A7083F8471070BDB2
:1031700092F84710C9B140F2DA51A0F2EF248C4224
:1031800008D811780B2905D80B1D0131117042F8B0
:10319000230070BD002283F84720074B03F1300263
:1031A000002143F8041F9342FAD170BDA001002012
:1031B000F01D0020D8090020AC010020024A136C49
:1031C0000133194411647047A0010020024B53F8E9
:1031D00020301B6819807047901F0020074BA1F515
:1031E0007A7153F820301A681B8959434FF47A7367
:1031F00091FBF3F189B21180704700BF901F00204E
:103200001FB50123ADF80830ADF80410002301A963
:10321000ADF80A30ADF80C30ADF8062004F00FFE22
:1032200005B05DF804FB38B5A0F513746379A57992
:10323000DB0745D594F8383205F00105F3B1226B70
:103240001068838DC3F34E03838494F83C3223B11A
:10325000B4F842320133A4F84232917A6A00FFF79F
:10326000CFFF012384F83B32002384F8393284F8FD
:103270003A3284F83832A4F8403238BD94F83B3200
:103280002046012B04BF94F8393284F83A32FFF714
:10329000ECFE94F83B22236B3AB9012284F83B22DE
:1032A0001868997A05FA02F207E0002284F83B22B6
:1032B00095421868997A08BF0222BDE838409FE716
:1032C00038BD10B5A0F5127494F83C22BAB9A36ABF
:1032D000616A994228D0591CA069A162C35C206927
:1032E000DBB25B0043F400738142A4F83E324FF03E
:1032F0000A0384F83D3228BFA262012312E094F948
:103300003D327BB1B4F83E1220464B08A4F83E3261
:1033100001F00101FFF7BEFE94F83D32013B84F855
:103320003D3201E084F83C3294F83832002B4ED123
:1033300094F839320133DBB2092B84F8393203D1E6
:103340002046BDE8104090E60A2B40D194F83B326D
:103350002BB9B4F8403243F00103A4F8403263794A
:10336000D9071CD5B4F84002820501D4C30705D49F
:10337000B4F844320133A4F8443210E0E36AC0F3F5
:1033800047000BB198470AE0E3696269D054E369EA
:10339000E1680133B3FBF1F201FB1233E361012277
:1033A00084F8382294F83B220023012A84F8393229
:1033B0000DD1A27984F83B32236B12F0010F18680B
:1033C000997A0CBF02220022BDE8104018E710BD18
:1033D000F0B5046D8279A389467923F4005312F085
:1033E000020F4FEA03434FEA13430CBF00214FF48F
:1033F000005112F0040FA38114BF4FF4806E4FF000
:10340000000E16F0010F8768054614BF0420002047
:10341000B307238A48BF40F008029BB223F440530D
:1034200043EA01032382A18948BF90B289B221F403
:10343000B05121F00C014EEA010140EA0102A281E3
:10344000A38A87B023F440731B041B0CA38201A83A
:1034500004F094FC039B049E254A944218BF1E4628
:10346000A389192272431BB2002BB4BF7E00BE0099
:10347000B2FBF6F66427B6FBF7F00001010907FB83
:103480001163A28912B2002AB7BFD9001A013231E2
:10349000B1FBF7F2A7BF3232B2FBF7F302F007023B
:1034A0001043A8BF03F00F03AA79A8BF184380B246
:1034B00012F0010F20812B6D06D00E498B4202BF06
:1034C000042001F54841086112F0080F9A8A0BBFE9
:1034D00022F0080292B2120442F0080208BF120C55
:1034E0009A829A8992B242F400529A8107B0F0BD52
:1034F00000380140004400402DE9F04F1E464FF4D3
:1035000014734343544D85B02C1D80469146E718F3
:10351000A24610B92B44514A03E0012805D1504A74
:103520002B445A631032C3F838214FF4147303FB51
:1035300008F34C48EC180AEB030203F59C73343291
:10354000534460602163A261E36100224FF4807103
:103550004FF0010BD4F838310320216162622262FE
:103560006161E262A26284F8402284F83CB284F88D
:103570003D22A4F84622A4F84822C4F80C906072B8
:10358000A67284F84A8258681B8904F59A724FF033
:10359000020CADF80C3003A9102301928DF80E3007
:1035A0008DF80FC0CDF800C003F0C3FD636BDDF8EC
:1035B00000C0597B58681B898DF80E1003A9ADF81F
:1035C0000C308DF80FC003F0B4FD59463846FFF7B4
:1035D00061FD322004F0ADFF234B019A1B68D2F845
:1035E00004B01A46B2FBF9F1B1F5803F03D3012ACA
:1035F000F8D95208F6E71D4A4FF41474B3FBF2F2FF
:1036000004FB08F8584689B2D2B201F03DF805EB48
:103610000809174B08F512780AEB08040022C9F8CC
:103620004C325846214601F077F8D9F8345016F05C
:10363000010F0CBF022200222868A97AFFF7E0FDE3
:103640000C4B2846C9F85032211D002201F064F8C5
:10365000384605B0BDE8F08FD80900202C000108DD
:103660004C000108D0F400084800002040420F0040
:10367000C33200082732000803460A4690F8460283
:10368000D96A9B7938E71FB50123ADF808300023CC
:10369000ADF80C30ADF80A30084BADF804101B78CB
:1036A00001A9012B08BF0323ADF8062008BFADF820
:1036B0000C3004F0C4FB05B05DF804FB9C01002055
:1036C00038B510F80E2C044650F8043C52B90122CB
:1036D00000F80E2C20F80C1C997A18680222BDE81C
:1036E0003840D0E730F80C2C20F80A1C891A89B22F
:1036F00020F8081C074A10F80F0C002522F81010BB
:1037000004F80E5C1868997A2A46FFF7BCFF04F8A3
:10371000065C38BDF01D0020044B53F820301BB16F
:1037200007289CBF1B681980704700BFC802002093
:103730002DE9F7438E460546DFF8A092114699F829
:10374000A4440068164698467246631C89F8A4345F
:1037500000F046FF2B8901A9ADF8043018238DF83D
:103760000630686802238DF8073003F0E2FCAB7A7C
:1037700009F59567240127442A6849460C2B00F275
:10378000F680DFE813F00D00F400F400F4005100BF
:10379000F400F400F4008A00F400F400F400C20025
:1037A000138CDFF83CC223F001031B041B0C1384B1
:1037B000138CB2F804E0108B624520F073004FEADE
:1037C00000404FEA10409BB21FFA8EFE40F070009E
:1037D00014D00CF5006C624510D00CF5406C6245BD
:1037E0000CD00CF5806C624508D00CF5806C6245FD
:1037F00004D023F0020343F0030307E023F00E0399
:103800002EF4407E43F003034EF4807EA2F804E0E1
:103810001083A2F834801384138B23F008031B0455
:103820001B0C43F0080336E0138CDFF8B4C123F01F
:1038300010031B041B0C1384138CB2F804E0108BD0
:10384000624520F4E6404FEA00404FEA10409BB248
:103850001FFA8EFE40F4E04008D00CF5006C624583
:1038600004D023F0200343F0300307E023F0E0030B
:103870002EF4406E43F030034EF4806EA2F804E064
:103880001083A2F838801384138B23F400631B0485
:103890001B0C43F40063138369E0138CDFF840C111
:1038A00023F480731B041B0C1384138CB2F804E004
:1038B000908B624520F073004FEA00404FEA1040C1
:1038C0009BB21FFA8EFE40F0700008D00CF5006C21
:1038D000624504D023F4007343F4407307E023F4FB
:1038E00060632EF4405E43F440734EF4805EA2F8B1
:1038F00004E09083A2F83C801384938B23F00803A8
:103900001B041B0C43F0080330E0138CDFF8D0C01D
:1039100023F480531B041B0C1384108CB2F804E0B6
:10392000938B20F4005023F4E6431B0400041B0C8B
:10393000000C62451FFA8EFE43F4E04340F4405011
:1039400003D00CF5006C624503D12EF4804E4EF48A
:10395000804EA2F804E09383A2F840801084938BF9
:1039600023F400631B041B0C43F4006393832B7B41
:1039700043B1B2F844306FEA43436FEA53439BB21A
:10398000A2F8443013889BB243F001031380AB7A52
:103990000C2B19D8DFE803F0071818180B181818A3
:1039A0000F18181813000B1902F134000AE00B1954
:1039B00002F1380006E00B1902F13C0002E00B199D
:1039C00002F14000C3F8A80438460C44A4F8B064DF
:1039D000C4F8AC2403B0BDE8F08300BFD8090020D0
:1039E000002C014003F078BA03F076BA03F074BA01
:1039F0002DE9F04F83468DB00E46904600210C22F3
:103A0000A3481D46BDF958A008F007FB002110226D
:103A1000A04808F002FBA04AA04B1178914603F1A0
:103A20001802012988BF1346994C002739460C22F9
:103A30002777677704F12000009308F0EEFA009BE7
:103A40002320E36204F075FD752001210DF10F02C2
:103A5000FFF7FAF8A0B1924B38466362914B01210F
:103A6000A36204AA432384F82030FFF7EDF89DF801
:103A7000103003F07E038DF81030002844D14BE065
:103A800094F830306BBB884A884F9369384643F0CE
:103A900008039361102303228DF81A3006A94FF40E
:103AA0008053ADF8183000938DF81B2003F041FBD4
:103AB000009B7F4A3B61138823F040031B041B0CCF
:103AC0001380138823F038031B041B0C43F00803F6
:103AD000138013889BB243F040031380012384F8C2
:103AE00030307520012106AAFEF78AFE9DF81830B5
:103AF000702B51D105232377432384F820306D4B5D
:103B000063626D4BA36247E0682B05D101232377E5
:103B10001D2384F820303FE09DF80F3003F07E0332
:103B2000682B8DF80F3033D102230620237701460E
:103B3000636A06AA98479DF81D1001F001029DF8DE
:103B40001B1001F001014B0043EA82019DF819208E
:103B500002F001030B4309D05BB2012B01D100231A
:103B600002E0022B0DD10123637715E0484B0C20B6
:103B70005B6A012105AA98479DF8143013F00F03E2
:103B800003D1032004F0F0FC06E0042BEBD1E6E7C0
:103B9000702B04BF04232377227F0020022A3C4B92
:103BA00084F8310009D14549D96045491961454931
:103BB0009961012183F831101BE0012A0BD14249A0
:103BC00083F83120D9603E49042219613F49596187
:103BD0003C4999610DE0043A012A00F23C833C4AD9
:103BE000DA60374A1A61374A9A61012283F8312034
:103BF0000722D4F8BC30374943F001030A70C4F8F7
:103C0000BC300091344F00233B70082E00F2AF808F
:103C1000DFE806F00AAD0A2B6C8A2B9F9F00012E6D
:103C200040F2B18000263E7099F80030012B1CD87C
:103C30004FF0000C0CAB03F818CD53206146012265
:103C4000CDF804C0FEF730FF78B19DF81830DDF8EC
:103C500004C0E52B09D1214B84F832C02360204BEE
:103C6000636004233B70022385E0227F084B022A15
:103C70003CD11C4A1A601C4A5A605B7F002B0CBF67
:103C80006F236E23237201233B70032373E000BF75
:103C9000400F00204C0F00202E2A0020ECF40008DA
:103CA000492C0008A92E000800100240000C014019
:103CB00000380040012800082D280008152A0008B7
:103CC0003526000890C1793D4D280008FD250008E3
:103CD00051290008380000202D2A0020692F0008F3
:103CE000FD2C00087D2A00087D26000899F8003088
:103CF000012B19D800220CAB03F8182D1C200D2124
:103D00000122FEF7D1FE78B19DF818302A2B01D0A0
:103D10001A2B09D1C74A84F833302260C64A0223DD
:103D20003B706260042326E000210CAB03F8181DF1
:103D300018200122FEF7B8FE58B19DF81830FB2B71
:103D400007D1BE4B2360BE4B636001233B7005234C
:103D500011E0237FBB4A043B012B3FF660AFBA4B17
:103D60001360BA4B536001233B70082303E0012E1C
:103D700009D9002646E7009A5370D4F8BC3043F0C6
:103D80000203C4F8BC3099F80030012B05D105F0CE
:103D900045FBAF4B4FF400525A61042D00F2BD8138
:103DA000DFE815F00500C6016400050086010A2061
:103DB00004F0BFFB7720A021012205ABFEF774FEC3
:103DC000002853D01E2101227720FEF7FFFF4FF479
:103DD0002F6004F0A3FB0026A6F160010025C9B204
:103DE000022206AB77208DF818508DF81950FEF797
:103DF0005BFE9DF819309DF8182043EA0222914B92
:103E000003F1340172520236102EE5D1B3F842109C
:103E10002A4601F00F0601F47F41A3F842102B4619
:103E2000012722F001002044808E002818BF0027BF
:103E3000D50703D5C0B24340082002E083EA10232F
:103E4000FAE71D0448BF83F4C05301384FEA430327
:103E5000F7D10132102AE4D131437A4AA4F8421052
:103E600027B9C3F303339E4200F0D58194F8445040
:103E7000002D40F0E981764E05F0D0FA28244FF469
:103E80008047304605A9ADF814708DF8164003F050
:103E900050F94FF40053336120466E4904F0AEFBF5
:103EA0000E21022003F030F90823069706A8012707
:103EB0008DF81D308DF81C508DF81E7004F0D2F86E
:103EC0004FF0030C04A88DF811C0CDF800C08DF898
:103ED00010408DF812508DF8137005F025FA14205B
:103EE00004F027FBD02177203A4605ABFEF7DCFD36
:103EF000544C3146002800F0BB809DF81430DDF8AA
:103F000000C0552B84F85F30A4F868C040F0B08042
:103F1000D1213A4605AB7720FEF7C6FD9DF8143057
:103F2000772003F00F021B0984F8602084F86130C9
:103F3000162206ABAA21FEF7B7FD9DF818209DF8C2
:103F4000193043EA0223A4F848309DF81A209DF85E
:103F50001B3043EA0223A4F84A309DF81C209DF848
:103F60001D3043EA0223A4F84C309DF81E209DF832
:103F70001F3043EA0223A4F84E309DF820209DF81C
:103F8000213043EA0223A4F850309DF822209DF806
:103F9000233043EA0223A4F852309DF824209DF8F0
:103FA000253043EA0223A4F854309DF826209DF8DA
:103FB000273043EA0223A4F856309DF828209DF8C4
:103FC000293043EA0223A4F858309DF82A209DF8AE
:103FD0002B3043EA0223A4F85A309DF82C209DF898
:103FE0002D3043EA0223A4F85C3041F27073A4F848
:103FF0006C3046F67813A4F86E30174B2367174BD6
:104000006367174BA367174BE367174BC4F8803000
:1040100094F8443043B9FEF73DFF42F6E06004F007
:104020007DFAB568C5F38035104B1D70012384F807
:10403000443009E1B32E00085D2C0008452F00082C
:10404000B72C0008400F0020012A00087D26000838
:1040500000100140B9270008952E0008112C000817
:10406000712E0008C12B0008212500081500002032
:104070007A4A136823F48043136000237848DA00F7
:1040800000F18404A5186E68764DAE420AD114F989
:104090003340282C06D183180022C3F8882083F8E7
:1040A000842002E00133032BE8D14FF400534B612D
:1040B0006B4C94F89C50002D40F0C080142004F00C
:1040C00038FA04F19D037620D0210122FEF7ECFCA2
:1040D00094F89D30582B2BD104F1A003882118228D
:1040E0007620FEF7E1FC7620F4213122FEF76EFE09
:1040F000012384F89C305C4BA4F86C5063675B4BE5
:10410000236745F6D813A4F86E30594BA367594B73
:10411000E367594BC4F8803090E0012D08D0574B2D
:104120004F4A9D70D2F8BC3043F00403C2F8BC3053
:104130004B4CD4F8BC309A0701D523689847E36804
:10414000584698474E4B99F8009003F11802B9F180
:10415000010F94BF9946914645464A4F00233B7054
:104160000DB1022D6CD100260CAB03F8186D1E208A
:104170000A210122DFF8E880C4F8C090FEF794FC21
:10418000A8B19DF81830482B60D13F4B0222C8F8E7
:10419000C4303E4BC8F8C83003233B70374BDA704D
:1041A000D4F8BC3043F00803C4F8BC3001E0064644
:1041B0004CE0374B93F854210AB184F8312093F83E
:1041C00055210AB133490A7093F8563103B13B7057
:1041D000D4F8BC30224D1B0718D564269AFBF6F4A0
:1041E000204605F0F7FF074606FB14A000B205F0D5
:1041F000F1FF294906F042F80146384605F036FF3E
:10420000264906F03BF8C5F8CC0002E00023C5F8CB
:10421000CC3001201FE042F21073A2F86C30A2F8FB
:104220006E301F4B032513671E4B53671E4B93675E
:104230001E4BD3671E4BC2F8803070E704256EE733
:10424000012DB6D91D4688E7022568E7012DB0D9B2
:1042500000253E7087E70DB0BDE8F08F00040140F7
:10426000400F0020B92700086123000863230008DD
:10427000592E00082D2B0008A1210008380000202D
:104280001CF500082F2A002097710008416E0008D5
:104290000C2200202D2A00208988883C0000204123
:1042A000692E0008B12B0008612E0008A12B000820
:1042B000652300080023036043608360C3600361DB
:1042C00043618361C36103624362836270478A68AA
:1042D00010B50C6A036814430A6923F4FF431443BE
:1042E0004A6923F0700314438A691443CA6914436A
:1042F0004A6A14438A6A224313430360CB684360CB
:104300000B6883604B68C36010BD4FF6FE73026894
:10431000134003600023036043608360C360294B44
:10432000984201D1284A27E0284B984201D1264AD9
:104330002AE0274B984201D1234A2DE0254B984291
:1043400001D1214A30E0244B984201D11E4A33E08A
:10435000224B984204D11C4A536843F470032EE068
:104360001F4B984204D1184A536843F0706326E00B
:104370001C4B984204D11C4A536843F00F031EE0C3
:104380001A4B984204D1184A536843F0F00316E0E0
:10439000174B984204D1144A536843F470630EE0FB
:1043A000144B984204D1104A536843F4704306E01A
:1043B000114B984204D10C4A536843F47023536064
:1043C000704700BF08000240000002401C0002408D
:1043D0003000024044000240580002406C0002409D
:1043E0008000024008040240000402401C04024015
:1043F000300402404404024058040240026D70B58B
:1044000015880446ADB2A90613D5036B8BB9C36AF0
:104410001BB1908880B298470BE0E16992884069AF
:104420004E1CD2B2E6614254E169E268914228BF73
:10443000E3612B0613D5636AA26A9A42236D0AD000
:10444000511CA069A162825C9A802369994206D3BB
:104450000023A36270BDDA6822F08002DA6070BDCA
:10446000026B0346C16810B5406942B11A6C8C1AE0
:10447000013A08BF0A46005D1A64C0B210BD1A6A4C
:10448000805C01328A4228BF0022C0B21A6210BD8D
:10449000436B13B190F844007047836A406A1B1A5B
:1044A000584258417047426A816A03698A4238BF5C
:1044B000D218521A416B21B149680A44591E8A42E6
:1044C00003D2013B981AC0B2704700207047036BBB
:1044D00013B15B68016C01E0C369016A8B423CBFA8
:1044E000C2689B18581AC0B27047836A8169426BD0
:1044F0001944D160416A994297BF0169CB1ACB1A1E
:10450000536096BF0023536083624FF0000380F82E
:104510004430136888BF816243F001031360704721
:10452000436A8269D154436A02690133934228BFC6
:1045300000234362436B1BB11B68DB0705D4D4E740
:10454000026DD36843F08003D36070474171FEF77A
:104550003FBF8160FEF73CBF2DE9F04105460E46A6
:10456000078A83899BB21F40002F37D0B7FA87F2A2
:104570004FF00043D340DB4399B21F40A2F11B032D
:104580002982042BF0D8DFE803F0221F1C19030056
:10459000746A24B1013C0023A4B2736201E0AC8DC3
:1045A000A4B2D6F82080B8F1000FDDD0D8F80030E2
:1045B000404621469847D8F80480F4E73068A98E31
:1045C00008E07068298F05E0B068A98F02E0F06804
:1045D000B5F84010036889B29847C5E7BDE8F08197
:1045E000254B10B55A43254B254C1B680139B3FBAD
:1045F000F2F20388013AA04289B292B29BB212D081
:1046000004F50064A0420ED0B0F1804F0BD0A4F5A9
:104610009834A04207D004F58064A04203D004F58A
:104620008064A04202D123F070039BB2154CA042DB
:1046300006D004F58064A0421CBF23F440739BB2F3
:1046400003800F4B8185984202850FD003F50063EC
:1046500098420BD003F54063984207D003F580637E
:10466000984203D003F58063984201D1002303866A
:104670000123838210BD00BF40420F00480000208C
:10468000002C01400010004073B505460068FFF79C
:10469000A7FF2A680124138800269BB243F0010378
:1046A0001380EB7A01A88DF804308DF805408DF861
:1046B00006608DF8074004F037FEEB7A1B2B0BD118
:1046C000192301A88DF804308DF805408DF8066097
:1046D0008DF8074004F028FE02B070BD0C4B800A34
:1046E00098420CD004D8B0F5801F0CD1012070473F
:1046F000084B984205D04933984206D003E0022087
:10470000704703207047FE2070470020704700BFAD
:1047100001001000020010002DE9F843046807466C
:10472000204688469146FFF7D9FF03284BD8BA7A2E
:104730009108B8F1000F06D1A589AEB202258D40CF
:1047400026EA0505A5810A2303FB00131F4A42F848
:104750002380043342F82390B8F1000F07D0BD7ACC
:10476000A189AD080223AB400B439BB2A381282350
:10477000434303F120011144EFF31286502585F3E2
:10478000128803F10C051C331544134455F8047FBB
:1047900017B10F60296804319D42F7D100230B60E7
:1047A000F3B283F31188282303FB0020036A23B1AB
:1047B000A3899BB243F0010304E0A38923F0010322
:1047C0001B041B0CA381BDE8F88300BFC820002098
:1047D000004813E61010002000480FE66410002087
:1047E00000480BE6B81000200B4B4FF400525A6003
:1047F0004FF6FE730948D0F8DC2011680B401360B7
:10480000D0F8CC20D0F8D0309A4201D0A8306CE655
:10481000012380F8EC3070470000024010100020A7
:104820002DE9F0431D46A84B8DB0984288461746A7
:104830009DF850605CD1A54BA54AA649C3F8A820B5
:1048400003F1FC02C3F8BC2003F5FE72C3F8C020DC
:104850004FF48072C3F8B420C3F8B8209E4AC3F85E
:10486000B070C3F8D820A2F54842543AC3F8F420F7
:10487000C3F8F020C3F8F800C3F8DC10974B9A692E
:1048800042F480429A615A6942F001025A6102235D
:104890008DF803304FF40073ADF80030330701D5C5
:1048A0001C230FE0AC0706D518238D4869468DF808
:1048B000023002F03EFCE8070AD54FF48063ADF801
:1048C00000304823864869468DF8023002F031FCFA
:1048D0000E238DF804300022012301A88DF8053045
:1048E0008DF806208DF807307E4C04F01DFDA1E008
:1048F0007D4B98424ED1754B754ADF655A654FF432
:1049000080721A665A6603F53F729A6603F57F72E3
:10491000DA66764AC3F8A400C3F89C20C3F8A02046
:104920006E4B3107DA6942F40032DA615A6942F0BB
:1049300001025A614FF002038DF803304FF0040377
:10494000ADF8003001D51C230EE0AA0706D51823C8
:10495000634869468DF8023002F0EBFBEB0709D59E
:104960000823ADF8003048235D4869468DF80230D1
:1049700002F0DFFB26238DF804300022012301A87A
:104980008DF805308DF806208DF80730584C04F06E
:10499000CBFC4FE0574B984240F0F5804B4B4C4AD4
:1049A0009F601A6003F2FC425A6103F2FC529A6162
:1049B0004FF48072DA601A614F4A18659A64DA64BB
:1049C000464B3407DA6942F48022DA619A6942F090
:1049D00008029A614FF002038DF803304FF48063B0
:1049E000ADF8003001D51C230FE0A80706D5182329
:1049F000424869468DF8023002F09BFBE9070AD570
:104A00004FF40063ADF8003048233C4869468DF808
:104A1000023002F08EFB27238DF8043000220123A0
:104A200001A88DF805308DF806208DF8073004F0C8
:104A30007BFC264C4FF00009012384F84430C4F875
:104A40002090C4F81C90C4F82890C4F82490C4F8AE
:104A50002C806571A760A6712046FEF7B9FCEA07B5
:104A600056D5236B002B4BD001A8FFF723FCE36C3A
:104A7000206B01934FF480530A9380230693E368DD
:104A8000CDF82C900493202309936369CDF81490FA
:104A90000293CDF81C90CDF82090CDF80C90FFF744
:104AA00034FC01A9206BFFF712FC226B216D136807
:104AB00043F0010313608B8A9BB243F040038B8267
:104AC00053689BB2236423E000380140101000209B
:104AD0004CF500084400024058000240001002401B
:104AE00000080140B8100020004400400444004089
:104AF000641000200048004004480040000C0140C1
:104B00004FF6DF72236D1A80DA6842F02002DA6015
:104B1000AB0730D5636B002B28D001A8FFF7CAFB89
:104B2000A36C002501934FF480530A9380230693CE
:104B30002369606B0493102303930B9505950795E8
:104B400008950995FFF7E1FB606B01A9FFF7BFFB33
:104B5000636B1A6842F002021A60226D5D605D604C
:104B6000938A9BB243F08003938204E0226DD36862
:104B700043F08003D360226D204693899BB243F4B7
:104B80000053938100E000200DB0BDE8F08300BF2A
:104B90000B88584080EA0010C0B21B0A83EA101349
:104BA00043EA002383EAC0030B8070470E4B1A7858
:104BB0006B2A16D140F2FC725988914211D11A79B0
:104BC000BE2A0ED193F8DD270020EF2A0BD113F86F
:104BD000012B5040054A9342F9D1B0FA80F04009C8
:104BE000704700207047704700F80108FCFF01087B
:104BF0002DE9F84FB94C002140F2FC722046B84E26
:104C000007F00BFA04F53B73B64A3360B64F002346
:104C1000137004F2B6723A606B2222700322627142
:104C20004FF41672A4F86221FA22A4F864212A2211
:104C3000A4F860214FF4FA72A4F86A21012284F8E2
:104C40005E2184F87A2184F88221052284F82B22BF
:104C500040F2DC52A4F8942140F24C42A4F8962190
:104C600040F26C72A4F8982140F27532A4F89A21AF
:104C700040F6430225462021A16084F866116E218A
:104C800084F878110A2184F879112B2184F87B119A
:104C9000212184F87C11232184F87D114FF4C871FF
:104CA000A4F87E11A4F89C21032BCCBF0122002282
:104CB00003F1010384F89E2114BF1E220522122B4A
:104CC00084F89F2104F10204EED14FF47A73A5F821
:104CD000C231A5F8C631A5F8CA31A5F8CE31A5F87C
:104CE000443140F27E5340F27E41A5F8483140F213
:104CF000EA53A5F84011A5F84A3140F23A7140F262
:104D0000B4534FF4FA62A5F8C421A5F8C821A5F858
:104D1000CC21A5F8D021052285F8DE21C8224FF04C
:104D200001084FF03209A5F8E2214FF4C8724FF0A4
:104D30001E0A4FF0190B85F8E08185F8E18185F8AE
:104D4000E481A5F8E621A5F84211A5F84C31A5F8B3
:104D50004E9185F8938185F8DD8185F8EA81A5F883
:104D6000502185F8ED8185F891A185F8DFB1A5F88E
:104D7000529104F0A5FC40F6AC533468AB810F208F
:104D80000023EB73AB7360712220A0710E201721FA
:104D900020744FF00A0E35206175A175A07655215B
:104DA000212084F812E04FF0640EE17060742D2130
:104DB000532084F81CE04FF0780E28226173E076CF
:104DC00084F80AE05A20DFF840E121754FF4FA71C7
:104DD00084F80080E375A3732376E373637620720F
:104DE00084F81E80627084F80BA0A27084F80CA076
:104DF00084F8049084F807B06272A4F84E103B491E
:104E0000C4F838E0C4F83CE0DFF800E1E162216377
:104E100061633749C4F828E0DFF8F4E02164DFF883
:104E2000F4C03449C4F848E04FF04B0E84F85230D7
:104E300084F8513084F85030C4F820C0C4F824C03D
:104E4000616484F84CE085F8B607412085F8B7071F
:104E500040F2DC5085F8B93785F8BD3785F8BE37A4
:104E600085F8BA3785F8BB3785F8BC3785F8B89729
:104E7000A5F8C007A4F85830A4F85A30A4F8563062
:104E8000042384F85C30152384F868301A4B2166BB
:104E900084F8642084F86520E366184B84F87880F1
:104EA0002367174BDFF87080636718F8011F00292C
:104EB00036D0DFF86890484607F0FDF80028F4D0B7
:104EC00009F1080398423FBF0E4BC9EB000040199F
:104ED000C3EB080338BF80F88631E6E70C220020D8
:104EE00008030020E01E0020641C0020CDCCCC3E36
:104EF0000AD7233C0000A0409A99193FF6287C3F2E
:104F00003D0A773F480301088FC2F53C000060402E
:104F1000000040403333B33F470301085103010809
:104F20002046282384F81331012384F814314FF4E8
:104F30004873A4F816310A2384F8111184F8121169
:104F400084F8181185F8D431C82385F8D5314FF489
:104F50007A73A5F8D631642385F8D811A5F8DA312B
:104F60000E2303FB01436FF0170E83F819E14FF096
:104F7000030E83F81AE16FF02F0E83F81BE14FF058
:104F8000070E83F81CE16FF0230E83F81DE14FF04C
:104F9000050E83F81EE101314FF05A0E80F820E132
:104FA00080F821E164234FF0FF0E082980F81F31BB
:104FB00080F822E14FF0000200F10E00D0D1A4F8F9
:104FC00090314FF49673A4F892312823A4F89431C9
:104FD0001346C821A4F88A11142184F88C111E21CB
:104FE00084F88D11012184F8892184F88E11EA1842
:104FF00010334FF00008C02BC2F81080F7D14C4896
:105000000021402207F009F80023DFF83C91EA185C
:1050100053F8091004330868382B464CC2F8AC0228
:10502000F3D10021802204F50B7006F0F6FF09F1A0
:105030003801702204F50B7006F0E4FF01F0B6F8B9
:1050400001F0F6F801F0D8F8002384F8DC3784F892
:10505000F23184F8EA3784F8EB37A4F84233364B60
:1050600040F6C412C3F8008040F21A43A4F8F037A7
:1050700040F2E973A4F8F237282384F8F5370423C3
:105080002E4884F8F6370F234FF4BF61A4F8E027C9
:1050900084F8F7371422082301803668A4F8E22741
:1050A000A4F8E817FA2226492648A4F8F837A36896
:1050B0004FF00209A4F8E4270A22012543F4003343
:1050C000016084F8E627C4F8EC1784F8FA27314623
:1050D0004FF4CC7284F8F69104F28440A36084F813
:1050E000DA5784F8DB5784F8F45706F08BFF4FF457
:1050F000CC7204F21C60314606F084FF3B681A68EB
:10510000C4F8C2275A68C4F8C6279A68C4F8CA27E0
:105110001A68C4F8CE275A68C4F8D2279A6884F867
:10512000D854C4F8D62784F87096BDE8F88F00BF2D
:10513000B82400200C220020C80900202C1F0020C9
:105140000000B442301F002068F500082DE9F04F40
:10515000964A8FB01378032B00F2D381DFE813F067
:105160000F0104000E0002017E2800F0CA8153786E
:10517000591C134498705170022302E07D2802D11B
:1051800003231370BDE17E2840F0E1809278874BC5
:10519000FD2A40F0D880DA7807929DF81C205A73D7
:1051A000079A062A00F2CF80814A997B1278D87B31
:1051B0000B929A8A1E8A0292DA8A5F8A08929A8BE6
:1051C000B3F820B00692DA8BB3F82CE00492794A57
:1051D000D3F8308012684FF0030C0D925A8C09926C
:1051E0001A8D05925A8D0392734A12680C92734A73
:1051F0001288144693F834200A92714AB2F800A03B
:10520000704A92F8009093F835205D6A01959D6987
:10521000079B02336345654B5BDB63449B785E2BE6
:105220004ED00AB900224FE012F0800F1CBF83F06D
:10523000600382F080025D2B02D142F0800243E0E5
:10524000012A05D13F2B96BF1946002202223BE0DE
:10525000022A37D0132921D00BD805292AD01229A8
:1052600017D0012927D100EB03231FFA83FE0B91EE
:1052700021E01B2917D006D81A291CD100EB0323E3
:105280009BB2099317E0222912D0232913D186B2A9
:1052900011E000EB03231FFA83FB0CE000EB032378
:1052A0009BB2029307E000EB03239BB2089302E05A
:1052B00087B200E00A904E2E68D0532EB2D183E020
:1052C000012201E0184603220CF1010C5FFA8CFC6C
:1052D0009EE783F835209973354A9DF82C10D873D2
:1052E0001170BDF824200D995A84BDF80820A3F848
:1052F0002CE09A82BDF82020A3F820B0DA829DF835
:1053000028205F8283F83420BDF818201E829A83FB
:10531000BDF810209D61DA83264AC3F83080116001
:10532000019A0C995A62BDF814201A85BDF80C2018
:105330005A85224B204A11601C80214BA3F800A003
:10534000204B83F80090194B00221A70D9E0537853
:1053500016490A2B04D85A1C0B444A709870D0E0A6
:1053600000230EE7537811490A2BF9D85A1C80F014
:1053700020000B44987002234A700B70C1E07E2815
:1053800040F0BF80002353700123FAE6452F09D077
:10539000572F7FF447AF4E2E0CBF4FF001094FF04F
:1053A000FF0915E04FF0010912E000BF0C170020C3
:1053B0000C090020142A00209C090020AC090020C0
:1053C000B00900200D090020452FE1D14FF0FF0961
:1053D000029B6426B3FBF6F3029A4FF00A0A06FB1F
:1053E0001326B4B2089E484A0AFB06FA02FB04A63A
:1053F0004FF03C0AB6FBFAF69BB202FB03664FFA8B
:1054000089F906FB09F6414B86EAE679A9EBE679CC
:105410009945994616DC95FBF2F39BB2069396FBF1
:10542000F2F3B5429BB2049302DD069B049C02E0BA
:1054300007DA049B069C1B1B022B02DD9542C8BFAA
:105440002E4635466426BBFBF6F3099C06FB13B6D5
:105450004FF00A0A0AFB04FA2B4AB6B202FB06A670
:105460004FF03C0AB6FBFAF69BB202FB0366452FEF
:1054700014BF4FF0FF370127774387EAE773A3EBA9
:10548000E7734B451ADC019B93FBF2F39BB2059348
:1054900097FBF2F39BB20393019BBB4202DD059B9A
:1054A000039C02E009DA039B059C1B1B022B04DD15
:1054B000019B9342D8BF3B461F4601970FFA8EF3DC
:1054C000C3EB0802B2F5FA7F04DCC8EB0303B3F5C3
:1054D000FA7F08DDB8F1000F05DD0FFA8EF3002B1F
:1054E000C8BF1FFA88FE019B00260FFA8EF8BDF890
:1054F00028A074460C930D954FF0010937463246AB
:10550000E2E60FB0BDE8F08FA086010080A812018E
:105510002DE9F74F794C002394F83910024684F8AE
:105520003630092900F29880DFE801F00505172BD5
:1055300021333B4E627DFE2A40F08E80022384F8A8
:105540003930002384F869304FF0FF3384F8682045
:1055500084F8663084F867307EE01046684984F845
:105560003A3084F86920FFF713FB042306E0104665
:10557000634984F86A20FFF70BFB032384F8393072
:105580006AE010465E4984F86B20FFF701FB0523B3
:10559000F4E710465A4984F86C20FFF7F9FA06231D
:1055A000ECE7564B104603F1660184F86D2000933A
:1055B000FFF7EEFA94F86920009B0AB90823DDE7AB
:1055C000072283F8392047E094F83A1010464B1C24
:1055D0002144DBB281F86E20494984F83A300093C7
:1055E000FFF7D6FA94F86920009B9A4234D1E5E798
:1055F00094F86D304349DFF804C10B4493F8A800D8
:105600000CF166010192CDF800C0FFF7C1FADDF898
:1056100000C094F83A30019A092163448CF839109B
:1056200083F86E2018E0354B94F83A1001201944A5
:1056300083F8360083F8390081F86F2093F86D9075
:10564000D3F87260D3F87650D3F87A70D3F87E80AE
:1056500093F88AA093F88BB094F83610274A012962
:1056600009D192F86A3082F83B30D38F0BB9A2F897
:1056700040300133E387002384F83830002939D0E3
:10568000B9F1180F03D0B9F1210F1AD032E0642319
:1056900097FBF3F795FBF3F51B4B1C4A1F601C4B64
:1056A0001560A3F800B04FF47A7398FBF3F8194B28
:1056B0000122A3F80080184B92451A7017D90122D5
:1056C00016E0642395FBF3F596FBF3F60E4B0F4AB9
:1056D0001D604FF47A7397FBF3F70E4B16601F8033
:1056E0000D4B01221A70002EE9D1002DE7D10022C6
:1056F0000A4B1A7003B0BDE8F08F00BF0C170020F2
:105700007217002068F500089C090020142A002068
:10571000B0090020AC0900200C0900200D09002070
:1057200044280ED15C4B01225C4983F8A624002357
:105730000B805B490B7048705A490A705A4A1370C3
:105740007047482809D1544B022283F8A62400222E
:105750009A85534A537848330BE041280BD14E4B7E
:10576000032283F8A624514B00221A804C4A537816
:105770004133537070472A2804D1474B042283F8E1
:10578000A62470470A2813D1454B5A781B789A42B1
:10579000414A09D1464B01211970424B918D93F931
:1057A00000304B4343490B80002382F8A6347047F6
:1057B000582805D13C4B00221A7001223E4B03E0D1
:1057C000232803D10022384B1A7070474028F9D0A3
:1057D0004E2807D1354A00231380304A4FF47A719E
:1057E000118008E0452809D1304B5A221A802B4AF3
:1057F0004FF47A7313802F4A138017E0532808D18F
:105800002A4BB4221A80254B00221A804FF47A7258
:105810000AE057280CD1254B4FF487721A801F4B92
:105820004FF47A721A800022224B1A800122CAE7B2
:10583000194A92F8A634013B032B2BD8DFE803F07A
:1058400002041522154A11E015492D284B7803440E
:105850004B7002D1FF22134BB6E7938D03EB83030A
:1058600000EB4300303890857047104A138803EBF3
:10587000830300EB4303303B1380094A53781844F9
:1058800050707047064A137803EB830300EB430024
:1058900030381070704700BF0C170020B609002088
:1058A000160000203C00002014090020B809002048
:1058B0000D090020AC09002010090020421E002024
:1058C00012F8013FA3F13001092904D80A2101FB94
:1058D00000303038F4E7704738B51748FFF7EEFF6F
:1058E0006422B0FBF2F302FB1302144B124C53433D
:1058F00022782146A2F13005092D04F10104F7D9DF
:105900002E2A0DD142F2107411F8012F303AD5B27F
:10591000092D05D802FB04330A22B4FBF2F4F3E7A5
:1059200006220333B3FBF2F36422B0FBF2F0044A25
:1059300002FB003038BD00BFB41B0020A086010070
:1059400040420F0038B5154B1C4614F8015BA5F119
:105950002D0255425541002D08BF1C462046FFF739
:10596000ADFF6423584323461A4613F8011BA1F1E7
:105970003004092CF8D92E290DD15378303BD9B2F7
:10598000092908D80A2101FB03009378303BDAB2D9
:10599000092A98BFC01805B1404238BDB41B002089
:1059A00008B5084806F095FBC0B209280246054B29
:1059B00004DC01302021C0B29954F6E700221A54C9
:1059C00008BD00BFF521002008B5074806F081FB9F
:1059D000C0B21428044B04D8421C20211954D0B260
:1059E000F7E700221A5408BDF52100208F4B242828
:1059F0001A6970B502F1010205461A611C4600F0F1
:105A00000A8105D80A280CD00D2840F01F8108E033
:105A10002A2806D02C2840F019811B7D83F02C0306
:105A20002375627D814B0E2A00F2E7800021995494
:105A30009A7D002A5AD01A78A2F14103052B01D889
:105A4000373A05E0A2F16103052B94BF573A303A8B
:105A500063781201A3F141010529D2B201D8373B85
:105A600005E0A3F16101052994BF573B303B1A447F
:105A7000217DD2B291426D4B32D1DA7D002A00F005
:105A8000BC801A8B596A01321A831A6A93F828006B
:105A9000DA61674A116088B1012840F0AC801A6B66
:105AA000D96BDA629A6B5A63624A1160624A196C66
:105AB00011609A6C5A641A6DDA649FE0596D5F4AFE
:105AC00011601A6BD96BDA625A4A1160196C5A4A22
:105AD00011605B4AB3F8581011801A6EDA658AE0DB
