:020000040800F2
:1000000000500020F1A9000891AA000815940008EA
:1000100091AA000891AA000891AA00080000000017
:1000200000000000000000000000000091AA00088D
:1000300091AA00080000000091AA0008838500082A
:1000400091AA000891AA000891AA000891AA0008A4
:1000500091AA000891AA0008DD440008D9440008CC
:1000600091AA00089185000891AA000891AA0008A9
:1000700091AA000891AA0008D952000891AA000884
:10008000556F000891AA000891AA000891AA0008DB
:1000900091AA000891AA000891AA0008D544000876
:1000A00091AA00088D63000891AA00089D630008CA
:1000B0007D6300086D6300085D630008592F000828
:1000C0005D2F0008512F0008552F000891AA000845
:1000D00091AA0008D1520008C9520008C152000874
:1000E0009585000891AA000891AA00080000000068
:1000F0000000000000000000000000000000000000
:0C01000000000000000000005FF808F1A3
:100110002DE9F04F824B834C9FB0C4F898300023F8
:10012000C4F89C3005F01EFB18B905F019FE06F066
:10013000EFFB06F093FC7C4A7C4D1378A87B43F0E0
:100140000103137000230A930B930C934FF4E013F5
:100150000D93774B9A461A6842F480321A609A6976
:1001600042F010029A61DAF8003003F400330B9386
:100170000A9B01330A930B9B1BB90A9BB3F5A06F33
:10018000F1D1DAF800306A4913F4003301D00223C8
:1001900017E00A6842F001020A600A93DAF80030B8
:1001A00003F002030B930A9B01330A930B9B1BB9C9
:1001B0000A9BB3F5A06FF1D1DAF800309A0741D568
:1001C00001230C935B4B5C491A6842F010021A60E1
:1001D0001A6822F003021A601A6842F002021A60DA
:1001E000DAF80430CAF80430DAF80430CAF8043017
:1001F000DAF8043043F48063CAF804304F4B1A68CD
:10020000043B22F070425A604D4A1160DAF8041043
:1002100021F47C11CAF80410596841F0004159607A
:10022000D96821F40041D9609B681B0449BF454B44
:100230004FF4E01313604FF480130D930C9B012BCC
:1002400001D118E0FEE7022B1BD168B10D9BB3F57D
:10025000801F02D14FF4A01305E00D9BB3F5E01F02
:1002600002D14FF400130D930D99DAF804300B43CB
:1002700043F4803303E0DAF8043043F46013CAF83F
:100280000430DAF8003043F08073CAF80030DAF84E
:100290000010274B8F01FAD5596821F003015960EE
:1002A000596841F002015960DAF80430204803F03F
:1002B0000C03082BF8D14368234903F00C03042BEB
:1002C00003D0082B03D01C4B12E0136810E04368E6
:1002D0004668C3F38343F60303F1020301D41B48CA
:1002E00005E0406810F4003F106818BF4008434321
:1002F0000B60DAF804301648C3F303130344187E86
:100300000B68C3400B60EB7B003318BF012384F8FC
:10031000A0301368084A93421CD101221EE000BF9E
:10032000CF640008B400002070250020C809002018
:10033000001002400020024000127A000410014028
:100340002C000020001BB7004400002000093D00E5
:10035000BCDC0008B34A934202D10222B24B1A70AD
:10036000DFF81C83B14BDFF81CB3C8F80C30DAF8A7
:100370001830AF4E43F00103CAF81830DAF82430D1
:100380000027C4F8A430DAF82430584643F08073CC
:10039000CAF82430DAF818304FF0100943F01C0383
:1003A000CAF818301EAB02934FF6FF73029A8DF80D
:1003B0004E7022F82C3D1146029206F0D6FE3046D1
:1003C000029906F0D2FE9B48029906F0CEFE022367
:1003D0001EA98DF847304FF4007321F8343D8DF895
:1003E00046905846CBF8103006F0BFFE924A02986D
:1003F000536843F00073536007F0DAFC8F4A139B95
:100400003946B3FBF2F38E4A8E48136018220BF084
:10041000DCFB8D4B4FF47A721B68DFF83CC2B3FBF8
:10042000F2F38A4A013B5360F02388F82330072314
:1004300097601360AB68DFF85082029FC8F8003005
:10044000834BCDF80CC00FCB87E80F00DAF81830DB
:10045000139843F00803CAF81830DAF8183014A9D2
:1004600043F00803CAF8183008233361C6F8109027
:1004700006F07BFE159816A906F077FED8F8003036
:10048000CDF810B013F0080FDDF80CC013D09CF8B5
:100490008E31012B0FD86F4A9CF88F31D2F8A420EF
:1004A00012F0805B00F01D8505E06B4B002283F8A5
:1004B0008F2106F0B3FC642008F059F8A0226748A9
:1004C00000210BF082FBDAF81C30002243F0070316
:1004D000CAF81C30DAF8183043F4006343F00C0318
:1004E000CAF818305B4B4FF0000903F1A80102F87D
:1004F000019001320E2AF5D1FF2283F8B62083F84D
:10050000B72083F8B82083F8B920554B554A49469F
:100510001A6055483C22D8F800600BF056FB49465B
:10052000C6F380170523514ADFF83CE1885C0C22B2
:100530004A4302F80E0047B91E3801289FBFFF202A
:1005400003F1FF3302F80E00DBB201310529EAD1D5
:10055000474A95F805901370464BB106C4F8BC3075
:1005600003F1C003C4F8C030434B3A4A03EBC9035C
:100570005B7848BF0123C2F8C43000213F481C22E9
:1005800084F8BA900BF021FB16F4005BDFF8FC80D6
:1005900006F4006108D151B195F8822108F10C03ED
:1005A000012A08BF434604E0CDF80C8002E008F1C0
:1005B0000C0303931E4BB9F10E0F0F93039B5B8843
:1005C000ADF84030039B1B88ADF842300FABC4F848
:1005D000E03004D009F0EF09B9F1080F02D101238E
:1005E00084F8DA300120059107F054FFC6F3400388
:1005F0001BF1000B059984F8CE3018BF4FF0010BAA
:10060000C6F3C03384F8CD0084F8D07084F8C8B045
:1006100084F8CB3000293BD095F882315F1E7B42B5
:100620007B4136E0001BB700822500200005FA055B
:10063000000C0140001001400000014040420F004A
:10064000D8220020541800204400002010E000E0D0
:10065000E4DC0008B4000020C80900207424002055
:10066000D0220020B80B0020942200200BF00008BC
:1006700090220020D8090020A0ED00087C01002075
:1006800000ED00E000080140D8110020BCDC0008AB
:100690000B4684F8CC30C6F3004384F8D130C6F35F
:1006A000402384F8D230D4F8C430B5F84401003384
:1006B00018BF012384F8D330C6F3005384F8D43034
:1006C000B5F8463106F00101A4F8D830B5F852313A
:1006D000C6F3C002A4F8D630C6F38043F604A4F8EB
:1006E000DE0048BFB64884F8CF3048BFB0F84C6150
:1006F000B5F8503148BFB348A4F8DC3048BFA0F883
:10070000DE60B3F5FA7F84BF0023A4F8DE3095F8ED
:10071000D231AD4884F8E430002384F8E5304370EA
:1007200094F8DA3084F8C910002B84F8CA200CBF82
:100730000023022301B902B1013308EB83039B6B51
:100740009A1E1A330793002306920593069BDFF83F
:1007500074B233F8024F06934FF6FF739C4200F0D9
:100760008C819BF8CD20E3B2240AE5B21AB19A1E1F
:10077000012A40F27D819BF8D02032B193491A01C1
:100780008958934A914200F073819BF8D10030B1AF
:100790008E491A0189588E4A914200F069819BF86E
:1007A000CE2052B18949049E01EB03114A68B2423E
:1007B00003D10A89102A00F05B819BF8CB2052B14B
:1007C0008249049E01EB03114A68B24203D10A89AF
:1007D000022A00F04D819BF8CC2052B17B497D4E1E
:1007E00001EB03114A68B24203D10A89022A00F0E0
:1007F0003F81DBF8E0607EB1744F326807EB03178E
:100800007968914208D13A89B188914200F03081EB
:10081000F188914200F02C81022C02D19BF8C82073
:1008200003E0012C04D19BF8C920002A00F02081AC
:100830009BF8D320654C1E0162B1624A92F8DA201F
:1008400042B9A3F10802012A04D8A25962498A4296
:1008500008BF04259BF8D42034445AB1594A92F871
:10086000DA203AB910B10C3B012B01E0043B032B19
:1008700040F2E780012D44D1DFF85091FF238BF83F
:100880002C318BF82D3109EB06035A7B586803F1A4
:1008900008081B890027ADF84C3013A902238BF8F8
:1008A0003071CBF83C418DF84F308DF84E208BF8ED
:1008B000E870CBF8EC70CBF8F070CBF8F470CBF8B4
:1008C00028718BF82E718BF82F7106F04EFC59F8B9
:1008D000060098F802103A4603F04DFC20463946CF
:1008E0002A4604F049FC3D4B3D49CBF840313D4B95
:1008F000CBF84871CBF8443120460A1D04F084FC43
:10090000B6E0022D4CD19DF814204FF01C0C0CFBCE
:1009100002FC2C4B002703EB0C0808939DF81430C5
:1009200088F8327188F831314FF0010388F830319E
:10093000264B88F83A719A19517B506802F10809E0
:1009400012898DF84E10C8F83C4113A9CDF824C087
:10095000ADF84C208DF84F5006F007FC1B4B99F872
:10096000021098593A4603F006FC20463946012207
:1009700004F002FC1C49089BDDF824C0C8F84011B3
:100980001A496344C8F8441103F5A071C8F84871C6
:1009900020460A1D04F038FC059B0133059367E0EF
:1009A000032D4CD19BF8CF20064B9BF8E660104DF1
:1009B00002B3204608214FF6FF72002333E000BF48
:1009C000C8090020B400002099010020C0EC0008F4
:1009D00000040040000C0140002C0140CD3B000809
:1009E000F4010020AD3C0008B1410008A53B00081F
:1009F0003C230020B3F8DC20B3F8DE30B2F5FA7FF8
:100A00000BD98E492046B1FBF2F2082192B203F0D5
:100A100007FC8B4B45F826000AE08A492046B1FBCB
:100A2000F2F2012192B203F0FBFB874B45F826005E
:100A3000C3609BF8E63001338BF8E63018E0042DF4
:100A400016D1BBF8D6207F4B204693FBF2F2012152
:100A5000BBF8D83092B29BF8E55003F0E1FB9BF86D
:100A6000E5300BEB85050133C5F810028BF8E53056
:100A7000069B079A93427FF469AE744B744C1A68D4
:100A8000984612F4802F02D1012384F83032714A43
:100A9000714E1378714843F00403137033784FF4A8
:100AA0008052022B34BF142310238DF84E304FF0A8
:100AB00002038DF84F30DAF81830ADF84C2043F0CF
:100AC0000403CAF8183034BF0025012513A906F025
:100AD0004CFB634B0DB1634A00E0634A00201A608F
:100AE00007F05AFD614B624D93E80300029B4FF003
:100AF000030983E80300DAF81830139843F0080379
:100B0000CAF8183014A906F030FBDAF81C30284671
:100B100043F48043CAF81C30DAF81030029943F4E9
:100B20008043CAF8103018238DF84E304FF420431C
:100B3000ADF84C308DF84F9006F017FB4FF0040CD9
:100B40004FF48043284602998DF84EC0CDF810C06E
:100B50004FF48057ADF84C3006F007FB1023029994
:100B600028468DF84E30ADF84C7006F0FEFADAF8F3
:100B70001030322043F48043CAF81030DAF81030D5
:100B800023F48043CAF810303A4B1A8802F44152D9
:100B900042F4457242EA09021A809A8B22F40062FA
:100BA0001204120C9A8307221A821A8892B242F017
:100BB00040021A809F232F618DF8443000238DF866
:100BC00045308DF846308DF8473007F0D0FCDDF821
:100BD00010C06F616246029811A902F01BFA2F61E2
:100BE0009DF84E309DF84D201B0243EA02439DF8CC
:100BF0004F201343204A934212D0322007F0B7FC13
:100C00006F61F52002F03CFAFF2002F039FA7028FB
:100C10002F6105D13378022B04BF0F4B83F800906E
:100C20003378032B0CBF1F20022007F0B3FB33786F
:100C3000032B23D0012006F093FC24E000127A005D
:100C4000CD3C000840420F00BD3C0008D8110020F8
:100C5000B4000020702500208225002000080140FB
:100C600078250020818200089582000804DD0008B4
:100C7000000C01400038004015202000022007F041
:100C800009FC0028D6D0D8F80050DFF8E0924FF0E9
:100C9000100A05F4004309F2312000215246029364
:100CA00036780AF092FF4FF6FF73ADF84430022316
:100CB00005F400674FF000081D408DF846308DF8B0
:100CC000478010D01EA921F834AD9E4807F022FAC3
:100CD000042389F831320125072389F8328289F803
:100CE000335289F83432029B93B102231EA921F8B2
:100CF000343D944807F00EFA0123EA1884F835329F
:100D000084F83732072384F8365284F83832D5B263
:100D1000012E13D920231EA921F8343D894807F05C
:100D2000F9F90523012284F8393284F83B226B1C3F
:100D3000072284F83A5284F83C22DDB29FB10223A4
:100D40001EA921F8343D804807F0E4F90923012267
:100D500084F83D3284F83F226B1C072284F83E520F
:100D600084F84022DDB2794E79487368002443F458
:100D700040437360736943F001037361B36943F4E3
:100D80000073B36104F039F813A804F00BF8714B49
:100D9000012D1393704B0796149394BF2346802321
:100DA00018934FF4807319934FF48063A6F6F87686
:100DB0001A93202313A91B9330464FF40053169522
:100DC0001C93159417941D9403F0F9FF3368634A3C
:100DD00043F0010333605368012D23F4702394BF63
:100DE0000021012123F4807343EA012353609168B9
:100DF0005B4B013D0B4043F4602343F002039360DF
:100E0000D36AEDB223F4700343EA0555D56201239A
:100E100054490A19907800284ED0605C591C092862
:100E2000C9B2D2784D4E0ED9A0F10A05F76805EB8C
:100E300045054FF0070E0EFA05FE27EA0E07AA40F9
:100E40003A43F2600BE0376900EB400E072505FAE4
:100E50000EF527EA050502FA0EF22A433261062B47
:100E60003E4D0CD8013B6E6B03EB83031F229A406F
:100E700026EA020200FA03F313436B631BE00C2B18
:100E80000CD8DA1F2F6B02EB82021F23934027EA54
:100E9000030600FA02F333432B630CE0A3F10D02C7
:100EA000EF6A02EB82021F23934027EA030600FA4F
:100EB00002F33343EB620B460434102CA8D1274BCA
:100EC0009A6842F480729A609A6842F001029A60CD
:100ED0009A6842F008029A609968204A080747D544
:100EE000FAE7013B092B3FF6E6AA1F4BC6F8149020
:100EF000986E029B18601946049806F036F9049B18
:100F00003C201A460823136107F031FBC6F8109005
:100F10005E4695F88F319E42BFF6C7AA049BDFF864
:100F200028900827C9F8107078205F6107F014FB3B
:100F3000049BC9F8147078201F6107F00DFB01367F
:100F4000E7E700BF00080140000C0140001002402C
:100F5000080002404C240140F60200200024014019
:100F6000FDF7F1FFE5020020E4DC0008B4000020FA
:100F7000936843F004039360B44B9A685107FBD421
:100F80009A6842F4A0029A60B14BB3F85801002865
:100F900040F0F286B3F95A21002A40F0ED86B3F909
:100FA0005C31002B40F0E886AA4D2B689A0301D5EE
:100FB00002F0D6F8A84CA64ED4F84C72B6F86001F0
:100FC000B7F9567096F85F1196F8672196F8683170
:100FD000009703F085FA10B9012007F0E3FA9F4A61
:100FE0000A27137843F0020313709D4B10225A61B5
:100FF00008221A61DFF868821920D8F80C30013F06
:1010000083F01003C8F80C30D8F80C3083F00803D4
:10101000C8F80C3007F0ABFA012007F0BDFA192030
:1010200007F0A5FA002007F0B7FA17F0FF07E1D1A3
:1010300008234FF010098B4FC8F81030C8F81090F3
:101040003B681B0709D5884BC8F814901B68984764
:10105000864B0122C8F810901A70854B188808F04A
:1010600003FFDBF850328046187B08F0FDFE814913
:1010700008F04EFF804908F043FE05F0D5FB01461D
:10108000404608F045FF0BF003F97C4B41461880C1
:101090007B4808F0F1FF7B4908F0EEFF7A4BCBF874
:1010A00054027449D86808F033FF784908F030FFDB
:1010B0007749B6F84E31774ACBF85C12DBF84CE250
:1010C000CBF86412B6F89411ABF8603200231380A9
:1010D0009370CBF858020EF179028BF868321FFA40
:1010E00081FCDFF8E0816C48D8F80090DFF8D8A1E7
:1010F00009F5967920F813C04AF823900133122B92
:10110000EFD1D5F800900EF1C90E19F4805F08BF39
:10111000B6F89AC1A0F806C01378B3B9937892F8DC
:1011200003C0634511D20BB1013B01E00CF1010397
:1011300003EB830392F801C003EB830303F56173B0
:101140009BB20CF1040C20F81C3004327245E3D140
:1011500019F0080F00F0078196F88E31062B00F287
:10116000FB80DFE803F004070E3551B3B30045F20E
:10117000F05301E042F6F823A4F8B43202F05EFC2A
:10118000E9E042F6F8230901A4F8B4320A2391FBFE
:10119000F3F10023A1F5B061404A42F82310013376
:1011A000122BF9D13E4A3F49402011603E4A13704C
:1011B00007F094F9002800F0CF8001234FF0070AD0
:1011C00090F9000040218DE80804384A384BBDE012
:1011D00042F6F823374AA4F8B432314B40201A6063
:1011E000314B10221A7007F079F9002800F0B48012
:1011F00001234FF0000990F9000040218DE808021A
:101200002D4A4FF4E133A1E042F6F8232B4AA4F82B
:10121000B432234B40201A60234B08221A7007F087
:101220005DF9002800F0988001234FF0000C90F940
:10123000000040218DE80810214A4FF4E13307F007
:10124000D7F8054BC3F8B80282E000BF0024014084
:10125000C8090020D8110020B4000020702500200B
:10126000000C0140E0110020901800202C09002003
:101270000000002035FA8E3CDB0FC93FEA11002048
:101280000AE81C4100401C46DC170020BD378635AB
:101290004E0B002030120020800900208021002009
:1012A0001800002063780008EC110020E17A0008A3
:1012B000A08601005F780008357A00085B78000896
:1012C000E9790008BC0900202003002042F6F8223A
:1012D0006A49A4F8B422062B4FF00C02DFF8D4C1FF
:1012E000DFF8D4E166480A7010D000238CF8003093
:1012F0008EF800300370634B1B211970624B4FF462
:10130000E1391A70614B05221A700EE0002101705C
:101310008CF800108EF800105A49212008705A49A4
:10132000DFF898910A70594A1370594A594B402076
:101330001A6007F0D3F878B101234FF0000E90F94E
:1013400000008DE808404B46534A402107F050F812
:10135000003018BF012030B9B368504A23F00803A9
:10136000B3604C4B1A602B68444A13F4804F1FBF84
:10137000122111704A48474918BF086042F2010122
:10138000194099B144F620619804A4F8B41241BF01
:101390000821117043483F4948BF0860D90741BF41
:1013A0000C21117040483B4948BF086011781B066A
:1013B000A1F10401517040F19A80DFF804914FF0DF
:1013C000000ADFF800B1394851461522C4F8BCB212
:1013D00089F801A0C9F804A0C9F808A00AF0F5FB33
:1013E000ABF10503C4F8C032D8F800300220C9F8C8
:1013F0001830D8F8003089F800A0C9F814A089F88E
:101400001CA0C9F80C3007F069F888B390F805E023
:1014100099F80130264A0C2101FB032191F8511063
:10142000714504D00133DBB2042BF3D9002389F8D2
:10143000013096F8EB314FF00C0E002B99F801308B
:1014400018BF03210EFB032208BF01214FF0000942
:1014500090F9000092F851300091CDF804900221EB
:101460004A4606F0C5FFDFF858A0C4F8C40258BBCE
:10147000B36823F08003B36031E000BFEC110020BB
:10148000E8210020EA2100207D210020EB2100201E
:10149000A177000818000020C9780008B578000876
:1014A00091780008A57800089578000818120020A7
:1014B000BCDC00087E210020E921002090D0030040
:1014C000F8110020B80B002001238AF80030D8F86A
:1014D0000030CAF81490CAF818308AF81C90D4F872
:1014E0004C0200F5C573C4F8C83204F0E3FE039B58
:1014F0000426C4F8CC32079B4FF0030B9A69C54809
:1015000042F001029A61039B0EA91A888DF83A6095
:10151000ADF838208DF83BB005F027FE039BBD48A1
:101520005A880EA9ADF838208DF83A6005F01DFEF6
:10153000039B0120197A05F003FE039BB6495A6804
:101540004FF010034A6100264FF0010813A81392D0
:101550008DF851308DF850608DF8528006F09CFD6A
:10156000039B11A85A7A8DF845B08DF844208DF868
:1015700046608DF8478001F02FFDA84A84F8E062AC
:101580001268DFF8BC923C3AC4F8D0223A68DFF81F
:10159000B4A242F010023A604FF0FF32C4F8D422F5
:1015A0009F4AC4F8D8228032C4F8DC222A68D403C7
:1015B00040F1B08040F22A3704F06CFB09F2E129D7
:1015C00004F0AAFB04F08CFB09F8018C31463A4682
:1015D00048460AF0FAFADAF81820924842F0040273
:1015E000CAF818204022ADF838200EA918228DF82C
:1015F0003B208DF83AB006F08DFDDAF81C208A49C0
:1016000042F00202CAF81C20884A894C1268DFF8AE
:1016100038B2B2FBF1F22188013A21F45C7109047D
:10162000090C218092B21D21A1852285A4F8148085
:10163000228C22F001021204120C2284228CA08837
:10164000218B22F0020221F0730109041204090C1B
:10165000120C41F0600180B242EA0802A0802183AE
:10166000A6862284228B584622F008021204120C0D
:1016700042F008022283B4F844206FEA42426FEA43
:10168000524292B2A4F84420DAF8142042EA080246
:10169000CAF8142003F0B1FB13A803F083FB654BD9
:1016A0005846139310231593802318934FF4807397
:1016B000199313A94FF400531C93CDF8509016972B
:1016C00017961A961B961D9603F079FBA38911A80D
:1016D0009BB243F40073A381DBF8003043F00203B4
:1016E000CBF800304FF010038DF845808DF8443072
:1016F0008DF846608DF8478001F06EFC4E4B1A68FD
:101700004E4B43F826200136202EF7D105F03AFC47
:1017100005F038FC2B68580540F16081484C0420E6
:10172000D4F88C664FF07C0AC4F8906606F0D6FEBA
:1017300004218046C4F8940606F0C6FE074684F8E5
:1017400098060820C4F89C6606F0C8FE0821C4F874
:10175000A00606F0B9FE002184F8A4062C2204F2AB
:10176000A5600AF032FA8E232C22002184F8A636D6
:101770004FF07D09E02304F2D16084F8A83684F8A4
:10178000A5A684F8D0960AF020FA8A2384F8D236E7
:101790001020A02384F8D43684F8D1A684F8FC96CF
:1017A000C4F8006706F09AFE1021C4F8040706F09A
:1017B0008BFE84F808072020C4F80C6706F08EFE24
:1017C0002021C4F8100706F07FFE84F8140738467D
:1017D00004F0FCF994F81537074683423ED0A8B3CD
:1017E000B8F1000F3AD0022398F900000093737803
:1017F0000421003318BF0123019300224FF4165334
:1018000006F0F6FDC4F8180740B3012384F8153735
:1018100024E000BF000C014000040140BC0900208E
:10182000F40B00200008014000366E014400002047
:10183000000400403404004048DD0008C0060020D9
:10184000B4000020001002406C000240D4F81807D9
:1018500006F0B8FDC4F8187784F8157794F8A40654
:1018600004F0B4F994F81C37B94E834207461AD0F5
:1018700088B1D6F8A036B3B10022012793F9000051
:101880000821009701924FF4964306F0B1FDC6F887
:10189000200730B907E0D6F8200706F093FDC6F818
:1018A000207786F81C7794F8080704F08FF994F8ED
:1018B0002437A74E8342804659D0002837D0D6F827
:1018C0000427002A53D0D37992F90000002B4FF05F
:1018D0000202A04F08BF03230092002257F82330D2
:1018E0000192102106F084FD0746C4F8280700285D
:1018F0003DD096F84A30022B0BD096F89620022A5B
:1019000001D14C3605E023B1002A06F14C0618BF80
:101910000026C4F82C6746B1304600214C220AF05C
:1019200054F90223376086F84A3001231DE0D6F8C7
:1019300028773368BB4207D1384606F043FD30466E
:1019400041464C220AF041F9E36CBB4207D13846CC
:1019500006F038FD804800214C220AF036F938465E
:1019600006F030FD0023C4F8283784F8243794F8B3
:10197000140704F02BF994F83037754E834207466C
:101980002CD008B3D6F8103743B3D6F80C2793F908
:10199000000052780323002A0CBF0822092200937A
:1019A0000192202100224FF4614306F021FDC4F88A
:1019B000340798B1012386F8383786F83037674BFB
:1019C0001B68C6F83C3709E0D6F8340706F0FAFC85
:1019D000C6F8347786F8387786F83077604B614CF4
:1019E0001B78022B64D1604A00261388322023F032
:1019F00040031B041B0C138013884FF4805723F003
:101A000038031B041B0C138013889BB243F0400364
:101A100013809F238DF844308DF845608DF8466023
:101A20008DF8476006F0A3FD8DF84D604F4E0422FF
:101A3000776113A811A901F0EDFA37619DF84E30D6
:101A40009DF84D201B0243EA02429DF84F3013439C
:101A5000474A934219D00AD8A2F51A42033A934250
:101A60000CD002F51A420232934209D01BE0414ADF
:101A7000934205D00132934207D014E0202300E0C6
:101A80008023A3804FF4807302E04FF48073A3801F
:101A9000E3802389A2881B02E36053432361364B12
:101AA00001221A7004E00023A380E380E360236135
:101AB0002369002B00F00D814FEAD328C1464FF077
:101AC000000AC2452CDA0AEB08077F10FB0203224A
:101AD0008DF8442000261A0C1B0A8DF845208DF83D
:101AE00046308DF8476001F00DFBC8B11F4B4FF435
:101AF000805CC3F814C011A9042230460DF14C0BD0
:101B0000CDF80CC0029301F085FA584631461022F8
:101B100001F080FA029BDDF80CC0C3F810C00BE0A6
:101B20000B4E4FEAC923039396F8412796F84037A6
:101B3000934200F0CB8021E05BF82630013340F087
:101B400017810136042EF7D1B846B946B9E700BF70
:101B5000B4000020A8EB000800010020BC09002010
:101B6000822500200000002000380040000C0140C9
:101B700018BA20001740EF00C009002006F2427199
:101B8000C8189A421190129108D3D31A13930023C4
:101B90001493139B149A02EB03095BE0C3F18003D7
:101BA00013931492F5E7D6F8C4875FFA88F709EB28
:101BB0000703B3F5807F23698CBFC7F580774F4655
:101BC00098457ED20223DFF8D0A28DF838304FEA54
:101BD00018434FF4805B8DF839304FEA18238DF8A5
:101BE0003A308DF83B8001F08DFACAF814B0062027
:101BF00001F046FAA74B0122CAF810B000201A7073
:101C00000EA9CAF814B0042201F004FADDF84CB0B1
:101C1000BBF1000F22D0BB4531D2119B00201946E9
:101C20005A46029301F0F6F9029BCBEB070A03EB4D
:101C30000B01002311911393DDF850B0BBF1000F9D
:101C40000ED1954B4FF48052C7EB090947441A61F6
:101C5000C6F8C477B9F1000FA5D132E0BA46EBE778
:101C6000D34511D2DDF848A0002051465A4601F074
:101C7000D1F90AEB0B01002312911493E1E7BA4664
:101C80004FF0000C13AB02E014AB4FF0040C0DF15D
:101C9000440B05935BF80C30524619460020CDF8F2
:101CA00010C0029301F0B6F9029BDDF810C003EBFF
:101CB0000A02059B4BF80C201A68CAEB02021A6054
:101CC000BFE7002386F8413786F84037039BC6F804
:101CD000C4372B68714C13F4002318BF012384F818
:101CE000C83706F01DFC6E4B4FF47A7118606D4BCF
:101CF0005A79052A04BF4FF4C872A4F8CA276A4A61
:101D000011806A4AC821118069490A7842F00802A4
:101D10000A7068490A7822F002020A7040F602024C
:101D200029680A406AB16448644A1060644A032022
:101D30001070644A012010700022A4F8CC27A4F887
:101D4000CE278A0341BF604A04211171D1789B6874
:101D500044BF41F00101D1705C4A2B60012384F83B
:101D60003032137863F07F0313701FB0BDE8F08F3B
:101D700007F1010A4F46E8E6554B00221A7000B2FF
:101D800008F072F8534908F0C3F8464C0646B4F917
:101D90005A0108F069F84F4908F0BAF80546B4F955
:101DA0005C0108F061F84B4908F0B2F84A49044672
:101DB000304607F0A5FF04F037FD8046304604F0BA
:101DC00033FD45490646284607F09AFF04F02CFDEE
:101DD0000746284604F028FD3F490546204607F0FF
:101DE0008FFF04F021FD8246204604F01DFD414690
:101DF0008146504608F08CF841460290484608F06B
:101E000087F851460490304608F082F8494605901C
:101E1000304608F07DF839460690504608F078F8CC
:101E20002E4C4946206007F1004008F071F8294621
:101E30006060A560059808F06BF80146049807F00B
:101E40005FFF2946E060069808F062F801460298B4
:101E500007F054FF3946206106F1004008F058F8B9
:101E600029466061029808F053F80146069807F089
:101E700045FF2946A061049808F04AF801460598F4
:101E800007F03EFF4146E061384608F041F8206225
:101E9000FFF78AB8C0090020000C0140B400002000
:101EA000E8080020C80900207C2500207E250020AD
:101EB000F511002080250020400B0020DC110020BF
:101EC0007C22002038000020C41100207025002052
:101ED0001400002035FA8E3CDB0FC93FF8080020C3
:101EE0009148F0B50368914A9C8AA4B2E1B211F01E
:101EF000010F2ED0198821F400610904090C198002
:101F0000198889B241F480611980002111705178DB
:101F100099B1917811B9D178FF290ED10121917031
:101F20001179022901BF198889B241F40061198031
:101F3000517941F001011982E1E0517901F0FE018E
:101F40001982D378FF2B00F0DA80784BFF211970CB
:101F5000D5E08E073AD5BFF35F8F1479E4B2012C38
:101F600013D1517889B1917879B1198821F48061C0
:101F70000904090C1980BFF35F8F198B19889471BC
:101F800089B241F4007119801BE0198BBFF35F8F98
:101F900014796649022C0AD14C7844B1897831B160
:101FA000198821F480610904090C1980A1E01479D1
:101FB0005E49032C05D14C781CB18978002940F08A
:101FC0009880998889B241F4806197E04D0756D591
:101FD000012191715178002937D09178002934D0AE
:101FE00011791C88022911781DD924F480642404F5
:101FF000240C1C801E8A9568CCB2F6B249B26E548D
:10200000198889B241F4007119800168A31C13700A
:102010000B8A0134DBB264B22B558B889BB243F43C
:1020200080638B8026E0A4B244F400741C801D8A77
:102030009668CCB2EDB249B275541B8A611C49B2A4
:10204000DBB203347354147014E09178374C09B93F
:10205000217B41B1198889B241F40071198013784C
:102060000133137006E0198889B241F48071198038
:102070000123A37001680B88DB05FCD43FE001F06D
:10208000400101F0FF05E1B114781F8A9668E5B2BE
:10209000691C64B2FFB23755C9B21679117049B2E2
:1020A000CC1CA64201BF9C8824F480642404240C28
:1020B00008BF9C8013798B4221D11C4B02351D70C7
:1020C0001DE027061BD511784CB2661C0AD0156995
:1020D00001312C5DC9B21C821479117049B28C4255
:1020E0000DD106E0D17815701982517809B91179AE
:1020F00029B9998821F480610904090C9980137920
:1021000092F9004001339C4208490CD100238B70A6
:102110008B7933B101688B8823F440731B041B0C4B
:102120008B8000231375F0BD3C2100208408002023
:102130002DE9F04F87B06C4C02916C4922888E6972
:102140000546C2EB26135B435200C2EBE602B4F92C
:1021500002601B135643B4F90420B4F90A00534338
:102160009B1303EBE62606EB860380331B12B6F5C2
:10217000FA384FEAE6770493CB6947F1FF39A8FBB9
:1021800008AB039308FB09F3B4F908200BEB430BEE
:10219000E389A6610593D31708FB03F102FB09113C
:1021A000A8FB02230B44C1171F030AFB01F300FB2A
:1021B0000B33AAFB00011603194447EA1257020A1F
:1021C00042EA016292194FEA2123E6887B410032FC
:1021D000A2FB060143F5004306FB03114B100093DD
:1021E000CB170193DDE900231343B4F810E0B4F8F2
:1021F0000CC06DD00FFA8EF0C1170AFB01F1AAFBDB
:10220000002300FB0B11BDF914600B44F71708FB0A
:1022100007F106FB0911A8FB06670F447904700457
:10222000801841EAD6315941039B0FFA8CF8C3F567
:10223000801E7246D317002212184FEACE764FEA5C
:10224000C3774FEAC8034B4147EA5E07B61A67EB0C
:10225000030740F63543A6FB030103FB0711DDE945
:10226000002308F061F8B4F916204E1302FB06FEB5
:10227000470B47EAC147D31707FB03EEA2FB07232F
:102280005643734407FB0366A2FB07233344560EF1
:1022900046EAC3168219B4F914604FEA636741EB4A
:1022A00007037143F71700FB0717A6FB000139442A
:1022B000C60C46EA413692194FEAE1474FEA12212D
:1022C000B4F912207B4141EA036113010B4400E0A1
:1022D00000230DB11B0A2B60029B13B11A46049B0D
:1022E000136007B0BDE8F08F70180020840800204C
:1022F000704770476B4B6C4A2DE9F04F5E89146A4A
:102300004FEA062AB4EB0A0A9C884FF000054FEA10
:1023100004481C894FF0000BA4FB0A6765EB0B0B0C
:1023200004FB0B77F40944EA476418EB04065C8865
:102330004FF000094FEAE7154FEAC438DC8849EB53
:10234000050787B0CDE90467A4FB0A6704FB0B7798
:10235000340A44EA076418EB04064FEA27259C89EF
:102360004FF0000949EB0507CDE90067AAFB0467B8
:1023700004FB0B77F40D44EA472414F5FA664FEAA0
:10238000E75545F10007B6F5FA6F77F10003CDE99F
:102390000267964666DADDE90489A4FB046704FB5C
:1023A00005F34FF0050C07EB4307A6FB0C230CFBD2
:1023B00007335F104FEA3206B8EB06084FEA920681
:1023C00046EA837669EB07099F10DDE90023921B3B
:1023D00063EB0703CDE90023DDE90267334A4FF0E1
:1023E000FF33964277EB0303CDE9048927DA40F601
:1023F000AC520023A4185D4104FB05F3A4FB044583
:102400006FF0060205EB4305664202FB0566A4FB7E
:102410000223334418EB020649EB0307CDE90467B6
:102420000B26A4FB062306FB0533DDE900455B1004
:102430004FEA3202A41A65EB0305CDE90045DDE958
:1024400002450AFB0BF3AAFB0AAB0BEB430B4FEA6B
:10245000DA7242EA4B02A41A4FEAEB7365EB03050A
:10246000CDE90245DEF82440009B019DA4FB032337
:1024700004FB05334FEA525848EAC3284FEA635930
:10248000DDE90423B8EB020269EB03039946D30BA1
:1024900043EA494300B1036009B1029B0B6007B0F6
:1024A000BDE8F08F041800208408002024FAFFFF04
:1024B0002DE9F041324C334D62892B8DB4F9048003
:1024C0009A1A2389B4F902E05A43B4F91230D613A8
:1024D000B4F91420DB02324493FBF2F232440A26B0
:1024E000E2615643A2F57A6202FB02F3B4F90EC030
:1024F00002FB0EFE02FB08F2B4F90C801B130CFB6E
:1025000003FC03FB08F31B1403EB62320232E38883
:10251000921002F5004253434CF25032B4F920704D
:102520004FEAEE2EB4F900400EEBEC2C0CEB8404D9
:10253000BC40ED6A0234A5EBA4043A4162434FEA81
:10254000D3384EBFB2FBF8F35400B4FBF8F340F6B7
:10255000DE3448BF5B001A12524362430A4C08360D
:102560005C43241404EB224202F6CF62361103EBE3
:10257000221300B1036001B10E60BDE8F08100BF1D
:10258000181800208408002043E3FFFF13B50C4B0C
:1025900004465B681B20022101AA984770B19DF890
:1025A00004209DF8053043EA022303F54E5310330F
:1025B0004FF48C7293FBF2F32333238002B010BDEF
:1025C000F017002037B5104B04465D6818780621D7
:1025D0006A46A847A8B19DF800209DF80130012067
:1025E00043EA022323809DF802209DF8033043EA4A
:1025F000022363809DF804209DF8053043EA0223FE
:10260000A38003B030BD00BFF017002013B5104BFE
:1026100004465B683B2006216A469847A8B19DF8AE
:1026200000209DF80130012043EA022323809DF819
:1026300002209DF8033043EA022363809DF80420C2
:102640009DF8053043EA0223A38002B010BD00BF0D
:10265000F0170020B0F5807F0ED0BB280ED861287F
:102660000ED829280ED813280ED809280ED80028ED
:1026700014BF0620002070470020704701207047DB
:1026800002207047032070470420704705207047E0
:1026900010B5224C2368998A89B211F4706F1EBF5D
:1026A0001F4A012082F8300011F4E06F2BD01A8B02
:1026B0009A88890522F480624FEA02424FEA124268
:1026C0009A8020D41A8892051DD41A88D0050FD577
:1026D0001A88D105FCD41A8892B242F400721A808A
:1026E0001A889205FCD40F4B187804F039FF0AE0E1
:1026F0001A8892B242F400721A809A8822F44072C8
:102700001204120C9A802268938A23F470631B04CB
:102710001B0C9382024B00221A7510BD3C21002035
:102720008408002040210020054A08B513880133A1
:102730009BB21380034B187804F012FF002008BDF1
:102740007E2200204021002008B54FF4804005F093
:10275000D3FC012801BF044B4FF480425A61034B64
:1027600008BF83F8310008BD000401408408002040
:1027700010B5054C2368186905F0BEFC18B1236834
:102780001A69024B5A6110BDFC1700200004014079
:10279000F8B50E461746084C4FF48055656140F079
:1027A000800000F06DFC38460021324600F032FC1B
:1027B00025610120F8BD00BF000C014070B50E4638
:1027C000054C4FF48055656100F05AFC304600F02E
:1027D00057FC2561012070BD000C014070B5FFF76A
:1027E00039FF104C0546192005F0C1FEA3681520DD
:1027F0000021984710B9022005F0D4FE45F01801D9
:10280000A368C9B216209847A368002117209847EB
:10281000A36801213D209847A3683E200121BDE81F
:1028200070401847F0170020F0B5284D85B095F896
:102830003230002B47D1264C2368002B43D01A6836
:10284000244E12B1B1690A43B2619A889868ADF812
:10285000002002228DF80320694604228DF8022010
:1028600004F083FCB369002743F00103B3612368DC
:102870000126187B197D04F063FC2368164993F93F
:10288000150005F0D9FE2368144A1B6953610293B1
:1028900008230DEB03008DF80D308DF80C708DF8CA
:1028A0000E6005F0F9FB236801A85B7D8DF80670CA
:1028B0008DF8043003238DF805308DF8076000F0A3
:1028C0008BFB85F8326005B0F0BD00BF84080020A6
:1028D000FC1700200010024071270008000401408E
:1028E00037B50446FFF7A0FF254B1A68254B9A42DF
:1028F0000ED14FF40053ADF8043002238DF80730A9
:10290000042321480DEB03018DF8063004F02DFC63
:102910002046FFF79FFE05461C4C8021A3686B20D4
:102920009847642005F023FEA36807216820984794
:10293000642005F01CFEA36800216B2098476420EA
:1029400005F015FEA36801216B209847A3681821A4
:102950001B209847A36810211C209847A36829468C
:102960001A209847A368002119209847A3681221CC
:1029700037209847A36801213820984703B030BD1D
:102980002C000020001BB70000100140F0170020B1
:1029900008B5FFF749FF024B4FF480521A8008BD7B
:1029A0000000002070B50446FFF73EFF2046FFF709
:1029B00051FE0546144C8021A3686B209847642083
:1029C00005F0D5FDA368002119209847A3680321CD
:1029D0006B2098470F2005F0CAFDA36829461A20EE
:1029E0009847A36818211B209847A36810211C2032
:1029F0009847A368022137209847A368382001210F
:102A0000BDE87040184700BFF017002008B5FFF779
:102A10000BFF074B5B7813B1012B03D008BD4FF4BC
:102A2000006201E04FF48052024B1A8008BD00BFE3
:102A3000EC1700200000002010B51E4C4000C0B272
:102A4000A36023611C4B6071E170012000212173A0
:102A5000607022712075186884F8301040B3838844
:102A60009B0515D40388D9050DD447F2305302884D
:102A7000920502D5013BFAD112E08BB103889BB2DB
:102A800043F48073038083889BB243F44073838054
:102A900047F23053227D12B1013BFBD100E013B964
:102AA000BDE8104040E6034B93F8300080F0010091
:102AB00010BD00BF840800203C21002007B5F7218D
:102AC0006B4606227620FFF7B7FF9DF800309DF891
:102AD00001101B0343EA01139DF80210094A43EA5F
:102AE0001113D3619DF803309DF804101B0343EAD2
:102AF00001139DF8051043EA1113936103B05DF8CB
:102B000004FB00BF8408002007B5002101AB0322AD
:102B10007720FFF791FF9DF805309DF804001B0218
:102B200043EA00439DF80600184303B05DF804FB38
:102B300008B5FFF7E9FF014B586208BD8408002083
:102B400008B5FFF7E1FF014B186208BD84080020BB
:102B5000104B13B51B78104C13B194F83130B3B14E
:102B6000032201AB7720F621FFF766FF9DF80530C1
:102B70009DF804201B0243EA02439DF806201343FC
:102B8000064AB2F92020C2F10802D340E36202B043
:102B900010BD00BF1C000020840800201818002071
:102BA0000B4B13B51B780B4C13B194F8313063B158
:102BB000022201AB7720F621FFF73EFF9DF80420AB
:102BC0009DF8053043EA0223238502B010BD00BF03
:102BD0001C0000208408002030B505460C46134632
:102BE00029462246BDE83040682025E713B5062275
:102BF000044601211C206B46FFF71EFF08B39DF819
:102C000001309DF80020042143EA022242F38D02A4
:102C100092FBF1F29DF8023022809DF8032042EAF7
:102C2000032242F38D0292FBF1F29DF804306280A0
:102C30009DF8052042EA032343F38D0393FBF1F350
:102C4000A38002B010BD13B506220446022118204D
:102C50006B46FFF7F1FEB8B19DF800309DF80120FA
:102C60009B0803EB022323809DF802309DF803208C
:102C70009B0803EB022363809DF804309DF8052038
:102C80009B0803EB0223A38002B010BD314B2DE95A
:102C9000F3411B780546002B3CD0002426462746EE
:102CA000A04601345320322108226B46E4B2FFF7DC
:102CB000C3FE08B900204AE09DF801209DF80030CD
:102CC000202C03EB02231BB29DF8032098449DF8AF
:102CD000023003EB02231BB21F449DF805209DF830
:102CE000043003EB02231BB21E449DF8073003F0AF
:102CF0007F0301D0002BD4D198FBF4F897FBF4F7B5
:102D000096FBF4F6144BA5F800806F80AE8083F834
:102D100033401CE05320322106226B46FFF78CFE25
:102D20000028C7D09DF801209DF8003003EB022356
:102D30002B809DF803209DF8023003EB02236B806B
:102D40009DF805209DF8043003EB0223AB8002B010
:102D5000BDE8F081021800208408002013B5204B44
:102D6000400002ACC0B2587104F8012DD9700122A4
:102D700000211A7359701A711A751A4A1C61106869
:102D80009C6083F8301040B38288920515D4028885
:102D9000D4050DD447F230520188890502D5013A95
:102DA000FAD112E08AB1028892B242F480720280B3
:102DB000828892B242F44072828047F23052197D8A
:102DC00011B1013AFBD100E012B9FFF7ADFC04E00C
:102DD000034B93F8300080F0010002B010BD00BF3B
:102DE000840800203C2100207620F4213122B5E720
:102DF000772048210122B1E7772058210122ADE751
:102E0000064B002193F82020054B9201343283F8C1
:102E100031107720F42102F0FC029FE718180020FF
:102E200084080020034B002283F831207720F4210E
:102E30002E2293E78408002003460A46682019469C
:102E40008CE713B500222A211C20FFF787FF0E21F3
:102E500002221C20FFF782FF0F2103221C20FFF714
:102E60007DFF2B2112221C20FFF778FF164A022437
:102E70009369164843F0040393612023ADF80430AE
:102E800004230DEB03018DF806308DF8074004F0A4
:102E90006CF922462C211C20FFF760FF2D21012216
:102EA0001C20FFF75BFF2E2100221C20FFF756FF9E
:102EB0002A2105221C20FFF751FF054B4FF4807299
:102EC0001A8002B010BD00BF00100240000801408F
:102ED0000000002008B50F2108221820FFF73EFF50
:102EE0000E2218201021FFF739FF024B4FF48052B9
:102EF0001A8008BD0000002008B5134B53201B7832
:102F00002D2108227BB1FFF729FF31210A2253200E
:102F1000FFF724FF2C210C225320FFF71FFF532023
:102F20003821902209E0FFF719FF31210A225320AE
:102F3000FFF714FF53202C210A22FFF70FFF40F266
:102F40000912024B1A8008BD021800200000002060
:102F5000FEF7C6BFFFF79CBBFEF7C2BFFFF798BBEB
:102F600010B504460E4B185C04F041FA0D4B33F9D2
:102F70001410B1F57A7F05DBB1F5FA6FA8BF4FF4F5
:102F8000FA6101E04FF47A71A1F57A710A2391FB9D
:102F9000F3F1BDE810400920C9B202F02DBE00BF18
:102FA00015F00008800900200EB403B503AB53F8F8
:102FB000042B074968468DE80A00064903F028FB00
:102FC000009B00221A7002B05DF804EB03B070475A
:102FD000A4090020716400080C4B0D49DA6843789D
:102FE000D243C2F30222C2F10402934002781B01D1
:102FF000DBB20A4482F8003303780122580903F057
:103000001F0302FA03F341F82030704700ED00E09F
:1030100000E100E070B5184B9B894FF47A7342B31E
:1030200011B10C78013107E0FF2405E04FF6FF7580
:10303000013B9BB2AB420FD00F4D2E89B607F5D5A1
:10304000A4B2AC810C4C2589ED070BD44FF6FF746C
:10305000013B9BB2A342F5D1084A538F01339BB287
:10306000538706E0A489A4B208B104700130013A84
:10307000D5E7012070BD00BF003800408009002066
:1030800040F2E9330F4A1189890704D4013B9BB20E
:10309000002BF7D10BE040F2E93380B29081094A6E
:1030A0001189C9070AD4013B9BB2002BF7D1064A0C
:1030B000FF20538F01339BB2538770479089C0B272
:1030C000704700BF003800408009002007B50B4A58
:1030D0000B48936901A943F0100393614FF4005327
:1030E000ADF8043002238DF8073010238DF8063038
:1030F00004F03BF803B05DF804FB00BF0010024091
:1031000000100140F7B5144CE76B94F840309BB1C8
:103110000523124D8DF800304FF4805600238DF8B2
:10312000013001A86E6169460222FFF773FF2E612C
:103130009DF8053003F0010303F0010284F84020FC
:1031400033B1054BDB6BDB1B062BDED9002000E027
:10315000012003B0F0BD00BF80090020000C014039
:103160002DE9F341C82005F002FAAE2004F063F91E
:1031700008B104F065F9A64C84F84100C82005F0B8
:10318000F6F904F5E77300210C2204F644006364A9
:1031900008F01BFD022384F8473805F0C1F9D4F884
:1031A0005038C31A002BC0F2458300F5433303F5B2
:1031B000A073C4F85038974B1E7894F85438C6F36F
:1031C0008006F31A18BF012384F8546866B1002BF7
:1031D00000F0308394F8453884F84638012384F8A9
:1031E000453884F8443834E04BB194F8473843F01C
:1031F000020384F8473894F8463884F8453894F840
:10320000472802F0020101F0FF0341B98049D1F8DB
:103210004C18411A002903DB02F0010300E00123EE
:1032200003F001057A4984F8445893B1D50710D5C5
:1032300091F8482805230132D2B2B2FBF3F303EB35
:103240008303D31A744ADBB281F84838D35C81F81F
:10325000453894F844286E4B9AB393F8472822F0E7
:10326000020283F847286D4A0244AE20C3F84C2876
:1032700004F0E1F808B104F0E3F884F84100002814
:1032800000F0D882B02004F0D6F8402004F0D3F843
:10329000002004F0D0F8102004F0CDF84FF4806541
:1032A000013D0020ADB204F09DF8002DF8D1284674
:1032B00004F035F994F84528594B53F8220004F0EE
:1032C000B1F894F84130002B00F0B482504B93F8E1
:1032D0004538062B00F28882DFE813F007008602EB
:1032E00018007D004F016E01AE014E494E4A4F4B12
:1032F0004F48FFF759FE012004F011F94C4804F043
:1033000091F8022004F00BF94A4892E1D4F85838B9
:103310003F4D9A072AD5484F00223B7847490093F2
:1033200005F124001346FFF73FFE02F0A1FC012047
:1033300004F0F5F805F1240004F074F8D5F85C0801
:103340003A7805796FF0630102FB05F34B43C178CE
:1033500002204D1B5543B3FBF5F5EDB204F0DFF849
:103360002946152002F048FC032500E00125D4F889
:103370005838274F1B0540F1378200221346009230
:103380002F4907F12400FFF70FFE02F071FC2846D9
:1033900004F0C5F807F1240004F044F8D7F85C38CD
:1033A000988906F061FD0746681C04F0B8F83846B5
:1033B000244906F0ADFD394606F05EFE06F06EFFCC
:1033C00001466428A8BF642121EAE1711520C9B231
:1033D00002F012FC08E2012004F0A1F81A4804F0FF
:1033E00021F8D4F860389D0734D500230093019369
:1033F0001649174A0E48FFF7D7FD02F039FC0220A4
:1034000004F08DF80A4804F00DF8032523E000BF0E
:10341000800900208025002010F00008404B4C005F
:103420007CE200082AF0000833F0000839F00008B8
:10343000A409002041F000083800002046F00008F0
:103440005EF000080000C84273F0000889F0000830
:1034500098F000080225D4F86038D80712D5002368
:1034600000930193CA49CB4ACB48FFF79DFD6F1CDF
:1034700002F0FEFB284604F052F8FFB2C64803F003
:10348000D1FF3D46D4F86038C44F19071BD5B7F9B2
:103490006628B7F964380092B7F96828BC490192E8
:1034A00007F12400BE4AFFF77FFD05F1010802F095
:1034B000DFFB284604F033F85FFA88F807F12400B0
:1034C00003F0B0FF4546002300930193B54AB0498D
:1034D000B148FFF769FD02F0CBFB284604F01FF866
:1034E000AD4803F09FFFAC49002003F027F8AA483D
:1034F00008F0AFFB6F1CFFB2C1B209290BD84B1CFF
:10350000DBB22144202281F824200021E21882F835
:1035100025101946F1E7DFF880820020414403F0CE
:103520000DF802F0A5FB384603F0F9FF404603F022
:1035300079FF4146002003F001F8404608F089FB7E
:103540000235EDB2C7B2092F0BD87B1CDBB2274482
:10355000202287F824200021E21882F825101F4637
:10356000F1E7B4F96A0806F07FFC08EB070102F006
:10357000E5FF02F07DFB284658E0002594F86C3802
:10358000AB4240F231810E2D00F02E8168080130EF
:1035900003F0C5FF2846FFF7E3FC804B93F86C3837
:1035A000AB4206D9202003F022FF681CC0B2FFF70F
:1035B000D7FC0235EDB2E1E77B4994F8FC27764869
:1035C000FFF7F2FC012003F0AAFF734803F02AFF83
:1035D00094F86E5875492A466F48FFF7E5FC0220BB
:1035E00003F09DFF6C4803F01DFF0C2303FB054512
:1035F0006F4995F8FF2795F8FE376748FFF7D4FC29
:1036000002F036FB032003F08AFF634803F00AFF51
:1036100095F8041895F8022895F803385E4800914B
:103620006449FFF7C1FC02F023FB042003F077FF9D
:10363000594803F0F7FED7E0D4F85828574B120644
:1036400040F1CC80D3F870284AB10022C3F870282A
:1036500093F87428013202F0030283F874280121E0
:10366000002003F068FF94F87438534A1025D05CAA
:1036700003F0BDFE0220012103F05DFFA02003F056
:10368000B6FE013DFAD194F875384C4913F0020F9B
:1036900014BF59234E232A463F48FFF785FC02F00A
:1036A000E7FA022003F03BFF3B4803F0BBFE2B464A
:1036B00043492A463848FFF777FC02F0D9FA03203D
:1036C00003F02DFF344803F0ADFE3E492A46324850
:1036D000FFF76AFC02F0B9FA042003F020FF2E483D
:1036E00003F0A0FE2A4638492B48FFF75DFC02F0A4
:1036F000ACFA04210A2003F01EFF274803F092FED3
:1037000032492A462448FFF74FFC02F09EFA052072
:1037100003F005FF204803F085FED4F87C28D4F898
:1037200080382B491C48FFF73FFC02F08EFA052138
:103730000A2003F000FF184803F074FED4F888381C
:10374000D4F884282349D21A1348FFF72DFC02F03D
:103750007CFA062003F0E3FE0F4803F063FED4F882
:1037600080281D490C48FFF71FFC02F06EFA062165
:103770000A2003F0E0FE084803F054FE0648152234
:1037800000F6740108F090FA02F05FFA07204DE7A6
:1037900089F000089CF00008A4090020800900209E
:1037A000A5F40008A0F00008A4F00008B0F000089C
:1037B000C1F00008D2F00008E4F00008E9F00008C9
:1037C000FAF0000807F100080FF1000816F10008F0
:1037D0001DF1000826F100082DF1000893F8472894
:1037E00042F0020283F8472826BB94F8D038002123
:1037F000052B97BF144A3F259B181D7F122003F00D
:103800009AFE284603F0F3FD0021132003F093FEF7
:10381000212003F0ECFD1420002103F08CFE94F82D
:10382000D4580A4B585D013505F0030503F0DFFD60
:1038300084F8D45804F074FE054B0344C4F84C38A3
:1038400002B0BDE8F08100BF7CE20008E4F00008AF
:10385000404B4C00F8B5614B054693F83C380C469C
:10386000012B15D1114606F007FC4FF07E5106F0F2
:1038700045FA0546014606F04BFB294606F048FB93
:10388000294606F045FB04F100444FF07E5199E0D3
:10389000022B5DD110464FF07C5106F039FB0146FA
:1038A000284606F0E9FB4FF07E51054606F0CEFCB7
:1038B000F8B12946284606F02BFB01464FF07E5012
:1038C00006F01CFA05F018FF08F020FD06460F462A
:1038D00004F100404FF07C5106F01AFB05F00CFF9C
:1038E000002204460D46304639463D4B05F0A4FD06
:1038F00021E028464FF0804106F000FA014606F02C
:1039000007FB01464FF07E5006F0F8F905F0F4FE93
:1039100008F0FCFC06460F4620464FF07C5106F0AE
:10392000F7FA05F0E9FE002204460D463046394616
:103930002B4B05F083FD02460B462046294605F039
:103940002FFF0022002305F079FD06F083F9F8BD72
:10395000032B41D110464FF07C5106F0D9FA0146B5
:10396000284606F089FB4FF07E51054606F06EFCB6
:1039700078B14FF07C51204606F0CAFA294606F08D
:10398000C7FA294606F0C4FA294606F0C1FA2946C4
:103990001CE028464FF0804106F0B0F94FF07C5112
:1039A000054604F1004006F0B3FA294604462846CD
:1039B00006F0AEFA294606F0ABFA294606F0A8FA58
:1039C0004FF0804106F09AF90146204606F0A0FA31
:1039D000002106F095F9F8BDF8BD00BF8009002070
:1039E0000000F03F08B52A221048002108F0EDF849
:1039F0000F4B00220F490520515C013283F8F21170
:103A000083F8F70106210020052A83F8F61183F8D0
:103A1000F90183F8F81103F10803EBD1064B0122F9
:103A2000A3F83C22522283F8382208BDB80B0020AC
:103A3000C80900200BF000088009002007B51C4BC6
:103A400003F66C02C3F8D82893F8D6215AB1012A9C
:103A500014D1032183F8DC18072183F8DE2883F8CA
:103A6000DD180C2208E0022183F8DC18032183F81A
:103A7000DE2883F8DD18072283F86C280D4A0E4BE8
:103A800040201A6004F02AFD70B10122002390F951
:103A9000000040218DE80C00084A4FF4E13304F0A7
:103AA000A7FC003018BF012003B05DF804FB00BF85
:103AB000800900204D780008180000209D7900083A
:103AC000426A806A131A58425841704741717047E0
:103AD00043799B070AD5436A8269D154436A0169D5
:103AE0000133B3FBF1F201FB1233436270474279B9
:103AF00002F0020202F0FF0342B10369426A806AE7
:103B0000013BDBB2101A23EA0000704718467047E9
:103B1000437913F001031FBFC36803F1FF32C36988
:103B2000006A1DBF181A1040C0B21846704743798A
:103B300010B513F0010304460DD0FFF7E9FF58B1AB
:103B4000236A6269E168D05C0133B3FBF1F201FBE7
:103B50001233236210BD184610BD90F83B3210B5E9
:103B60007BB990F83A3290F83942A34209D2B0F8C2
:103B7000401201229A400A430133A0F84022DBB2EE
:103B8000F3E710BD8379DB0748BFB1FA81F1D0F8C4
:103B9000343148BF49095A681B8909B1136170471C
:103BA0005361704710F80A3C0133DBB20A2B84BF23
:103BB00010F8131C044A00F80A3C82BF002322F8C4
:103BC000113000F80A3C7047C8210020334A70B514
:103BD000136C9068194440F68C23081A984291603F
:103BE000D060516013463BD9127893F945101046C6
:103BF0008A420BD1111F082908D893F846101829BA
:103C000001D8013103E083F8442002E0002183F869
:103C1000461093F944402149A24219D191F84740F6
:103C2000B4B10C310024944206DA51F8046F1C4DF3
:103C300025F814600134F6E70C2805D01849002453
:103C400021F810400130F7E7164801780131017082
:103C500083F84520002201211A7083F8471070BDB7
:103C600092F84710C9B140F2DA51A0F2EF248C4229
:103C700008D811780B2905D80B1D0131117042F8B5
:103C8000230070BD002283F84720074B03F1300268
:103C9000002143F8041F9342FAD170BD9C0100201B
:103CA000C821002068120020A8010020024A136CDD
:103CB00001331944116470479C010020024B53F8F2
:103CC00020301B68198070473C230020074BA1F56A
:103CD0007A7153F820301A681B8959434FF47A736C
:103CE00091FBF3F189B21180704700BF3C230020A3
:103CF0001FB50123ADF80830ADF80410002301A969
:103D0000ADF80A30ADF80C30ADF8062004F0B1F88B
:103D100005B05DF804FB38B5A0F513746379A57997
:103D2000DB0745D594F8383205F00105F3B1226B75
:103D30001068838DC3F34E03838494F83C3223B11F
:103D4000B4F842320133A4F84232917A6A00FFF7A4
:103D5000CFFF012384F83B32002384F8393284F802
:103D60003A3284F83832A4F8403238BD94F83B3205
:103D70002046012B04BF94F8393284F83A32FFF719
:103D8000ECFE94F83B22236B3AB9012284F83B22E3
:103D90001868997A05FA02F207E0002284F83B22BB
:103DA00095421868997A08BF0222BDE838409FE71B
:103DB00038BD10B5A0F5127494F83C22BAB9A36AC4
:103DC000616A994228D0591CA069A162C35C20692C
:103DD000DBB25B0043F400738142A4F83E324FF043
:103DE0000A0384F83D3228BFA262012312E094F94D
:103DF0003D327BB1B4F83E1220464B08A4F83E3267
:103E000001F00101FFF7BEFE94F83D32013B84F85A
:103E10003D3201E084F83C3294F83832002B4ED128
:103E200094F839320133DBB2092B84F8393203D1EB
:103E30002046BDE8104090E60A2B40D194F83B3272
:103E40002BB9B4F8403243F00103A4F8403263794F
:103E5000D9071CD5B4F84002820501D4C30705D4A4
:103E6000B4F844320133A4F8443210E0E36AC0F3FA
:103E700047000BB198470AE0E3696269D054E369EF
:103E8000E1680133B3FBF1F201FB1233E36101227C
:103E900084F8382294F83B220023012A84F839322E
:103EA0000DD1A27984F83B32236B12F0010F186810
:103EB000997A0CBF02220022BDE8104018E710BD1D
:103EC000F0B5046D8279A389467923F4005312F08A
:103ED000020F4FEA03434FEA13430CBF00214FF494
:103EE000005112F0040FA38114BF4FF4806E4FF005
:103EF000000E16F0010F8768054614BF042000204D
:103F0000B307238A48BF40F008029BB223F4405312
:103F100043EA01032382A18948BF90B289B221F408
:103F2000B05121F00C014EEA010140EA0102A281E8
:103F3000A38A87B023F440731B041B0CA38201A83F
:103F400003F036FF039B049E254A944218BF1E4689
:103F5000A389192272431BB2002BB4BF7E00BE009E
:103F6000B2FBF6F66427B6FBF7F00001010907FB88
:103F70001163A28912B2002AB7BFD9001A013231E7
:103F8000B1FBF7F2A7BF3232B2FBF7F302F0070240
:103F90001043A8BF03F00F03AA79A8BF184380B24B
:103FA00012F0010F20812B6D06D00E498B4202BF0B
:103FB000042001F54841086112F0080F9A8A0BBFEE
:103FC00022F0080292B2120442F0080208BF120C5A
:103FD0009A829A8992B242F400529A8107B0F0BD57
:103FE00000380140004400402DE9F04F1E464FF4D8
:103FF00014734343544D85B02C1D80469146E718F9
:10400000A24610B92B44514A03E0012805D1504A79
:104010002B445A631032C3F838214FF4147303FB56
:1040200008F34C48EC180AEB030203F59C73343296
:10403000534460602163A261E36100224FF4807108
:104040004FF0010BD4F83831032021616262226203
:104050006161E262A26284F8402284F83CB284F892
:104060003D22A4F84622A4F84822C4F80C906072BD
:10407000A67284F84A8258681B8904F59A724FF038
:10408000020CADF80C3003A9102301928DF80E300C
:104090008DF80FC0CDF800C003F067F8636BDDF852
:1040A00000C0597B58681B898DF80E1003A9ADF824
:1040B0000C308DF80FC003F058F859463846FFF71A
:1040C00061FD322004F053FA234B019A1B68D2F8A9
:1040D00004B01A46B2FBF9F1B1F5803F03D3012ACF
:1040E000F8D95208F6E71D4A4FF41474B3FBF2F204
:1040F00004FB08F8584689B2D2B201F03DF805EB4E
:104100000809174B08F512780AEB08040022C9F8D1
:104110004C325846214601F077F8D9F8345016F061
:10412000010F0CBF022200222868A97AFFF7E0FDE8
:104130000C4B2846C9F85032211D002201F064F8CA
:10414000384605B0BDE8F08F6812002000ED000889
:1041500020ED0008C0E200084400002040420F00AB
:10416000B33D0008173D000803460A4690F8460292
:10417000D96A9B7938E71FB50123ADF808300023D1
:10418000ADF80C30ADF80A30084BADF804101B78D0
:1041900001A9012B08BF0323ADF8062008BFADF825
:1041A0000C3003F066FE05B05DF804FB98010020BA
:1041B00038B510F80E2C044650F8043C52B90122D0
:1041C00000F80E2C20F80C1C997A18680222BDE821
:1041D0003840D0E730F80C2C20F80A1C891A89B234
:1041E00020F8081C074A10F80F0C002522F81010C0
:1041F00004F80E5C1868997A2A46FFF7BCFF04F8A9
:10420000065C38BDC8210020044B53F820301BB198
:1042100007289CBF1B681980704700BFC40200209C
:104220002DE9F7438E460546DFF8A092114699F82E
:10423000A4440068164698467246631C89F8A43464
:1042400000F046FF2B8901A9ADF8043018238DF842
:104250000630686802238DF8073002F086FFAB7ADB
:1042600009F59567240127442A6849460C2B00F27A
:10427000F680DFE813F00D00F400F400F4005100C4
:10428000F400F400F4008A00F400F400F400C2002A
:10429000138CDFF83CC223F001031B041B0C1384B6
:1042A000138CB2F804E0108B624520F073004FEAE3
:1042B00000404FEA10409BB21FFA8EFE40F07000A3
:1042C00014D00CF5006C624510D00CF5406C6245C2
:1042D0000CD00CF5806C624508D00CF5806C624502
:1042E00004D023F0020343F0030307E023F00E039E
:1042F0002EF4407E43F003034EF4807EA2F804E0E7
:104300001083A2F834801384138B23F008031B045A
:104310001B0C43F0080336E0138CDFF8B4C123F024
:1043200010031B041B0C1384138CB2F804E0108BD5
:10433000624520F4E6404FEA00404FEA10409BB24D
:104340001FFA8EFE40F4E04008D00CF5006C624588
:1043500004D023F0200343F0300307E023F0E00310
:104360002EF4406E43F030034EF4806EA2F804E069
:104370001083A2F838801384138B23F400631B048A
:104380001B0C43F40063138369E0138CDFF840C116
:1043900023F480731B041B0C1384138CB2F804E009
:1043A000908B624520F073004FEA00404FEA1040C6
:1043B0009BB21FFA8EFE40F0700008D00CF5006C26
:1043C000624504D023F4007343F4407307E023F400
:1043D00060632EF4405E43F440734EF4805EA2F8B6
:1043E00004E09083A2F83C801384938B23F00803AD
:1043F0001B041B0C43F0080330E0138CDFF8D0C023
:1044000023F480531B041B0C1384108CB2F804E0BB
:10441000938B20F4005023F4E6431B0400041B0C90
:10442000000C62451FFA8EFE43F4E04340F4405016
:1044300003D00CF5006C624503D12EF4804E4EF48F
:10444000804EA2F804E09383A2F840801084938BFE
:1044500023F400631B041B0C43F4006393832B7B46
:1044600043B1B2F844306FEA43436FEA53439BB21F
:10447000A2F8443013889BB243F001031380AB7A57
:104480000C2B19D8DFE803F0071818180B181818A8
:104490000F18181813000B1902F134000AE00B1959
:1044A00002F1380006E00B1902F13C0002E00B19A2
:1044B00002F14000C3F8A80438460C44A4F8B064E4
:1044C000C4F8AC2403B0BDE8F08300BF681200203C
:1044D000002C014002F01CBD02F01ABD02F018BD14
:1044E0002DE9F04F8FB0019283460C220E46A5486D
:1044F00000211D46BDF960A007F067FB00211022D6
:10450000A14807F062FBA14AA14B92F800909046A7
:1045100003F11802B9F1010F94BF99469146994CE5
:10452000002739460C222777677704F1200007F02F
:104530004CFB2320C4F82C9004F019F875200121BD
:104540000DF11702FEF748FBA0B1924B38466362AB
:10455000914B0121A36206AA432384F82030FEF781
:104560003BFB9DF8183003F07E038DF818300028CF
:1045700043D14AE094F8303063BB884A884F93694E
:104580004FF4805943F00803936110238DF82230D3
:104590003846032308A98DF82330ADF8209002F0A7
:1045A000E4FD804AC7F81090138823F040031B04F1
:1045B0001B0C1380138823F038031B041B0C43F0DF
:1045C0000803138013889BB243F040031380012338
:1045D00084F830307520012108AAFEF7D9F89DF83B
:1045E0002030702B51D105232377432384F82030CA
:1045F0006D4B63626D4BA36247E0682B05D10123CD
:1046000023771D2384F820303FE09DF8173003F016
:104610007E03682B8DF8173033D1022306202377D1
:104620000146636A08AA98479DF8251001F0010227
:104630009DF8231001F001014B0043EA82019DF82F
:10464000212002F001030B4309D05BB2012B01D101
:10465000002302E0022B0DD10123637715E0494BC3
:104660000C205B6A012107AA98479DF81C3013F0C3
:104670000F0303D1032003F095FF06E0042BEBD1D9
:10468000E6E7702B04BF04232377227F0020022A51
:104690003C4B84F8310009D14549D960454919613D
:1046A00045499961012183F831101BE0012A0BD1A2
:1046B000424983F83120D9603E49042219614049BA
:1046C00059613D4999610DE0043A012A00F23883AD
:1046D0003C4ADA60374A1A61374A9A61012283F804
:1046E00031200722384B394999460A701A680291DD
:1046F00042F001021A60364F00233B70082E00F290
:10470000B280DFE806F00BB00B2C6F8D2CA2A2005C
:10471000012E40F2B4802E4B00261E7098F8003017
:10472000012B1CD84FF0000C0EAB03F818CD532012
:1047300061460122CDF80CC0FEF77EF978B19DF8F4
:104740002030DDF80CC0E52B09D1224B84F832C0B3
:104750002360214B636004233B70022387E0227FA8
:10476000084B022A3ED11D4A1A601D4A5A605B7FDF
:10477000002B0CBF6F236E23237201233B70032396
:1047800075E000BFD0170020DC1700208225002034
:10479000DCE20008D92B0008392E00080010024086
:1047A000000C01400038004091270008BD27000898
:1047B000A5290008C525000890C1793DDD2700081E
:1047C0008D250008E1280008E011002039000020B4
:1047D00081250020F92E00088D2C00080D2A0008E4
:1047E0000D26000898F80030012B19D800220EABD6
:1047F00003F8182D1C200D210122FEF71DF978B1B8
:104800009DF820302A2B01D01A2B09D1C54A84F8F3
:1048100033302260C44A02233B706260042326E0E6
:1048200000210EAB03F8181D18200122FEF704F931
:1048300058B19DF82030FB2B07D1BC4B2360BC4BFB
:10484000636001233B70052311E0237FB94A043BD9
:10485000012B3FF65DAFB84B1360B84B536001239B
:104860003B70082303E0012E09D9002643E7029A92
:104870005370D9F8003043F00203C9F8003098F8BB
:104880000030012B05D1FEF721FCAD4B4FF4005257
:104890005A61042D00F2B981DFE815F00500C0016E
:1048A0006400050082010A2003F061FE7720A02148
:1048B000012207ABFEF7C0F8002853D01E210122C9
:1048C0007720FEF74BFA4FF42F6003F045FE0026E9
:1048D000A6F160010025C9B2022208AB77208DF84D
:1048E00020508DF82150FEF7A7F89DF821309DF853
:1048F000202043EA02228F4B03F134017252023628
:10490000102EE5D1B3F842102A4601F00F0601F44B
:104910007F41A3F842102B46012722F001002044DA
:10492000808E002818BF0027D50703D5C0B24340AA
:10493000082002E083EA1023FAE71D0448BF83F44D
:10494000C05301384FEA4303F7D10132102AE4D1B2
:104950003143784AA4F8421027B9C3F303339E4287
:1049600000F0CD8194F84450002D40F0E181744E68
:10497000FEF7ACFB28244FF48047304607A9ADF87A
:104980001C708DF81E4002F0F0FB4FF400533361B1
:1049900020466C4903F050FE0E21022002F0D0FBAD
:1049A0000823089708A801278DF825308DF8245092
:1049B0008DF826704FF0030903F06EFB06A88DF802
:1049C00018408DF819908DF81A508DF81B70FEF76D
:1049D00003FB142003F0CBFDD02177203A4607AB30
:1049E000FEF72AF8534C3146002800F0B9809DF8B4
:1049F0001C30A4F86890552B84F85F3040F0B080EC
:104A0000D1213A4607AB7720FEF716F89DF81C3007
:104A1000772003F00F021B0984F8602084F86130CE
:104A2000162208ABAA21FEF707F89DF820209DF872
:104A3000213043EA0223A4F848309DF822209DF853
:104A4000233043EA0223A4F84A309DF824209DF83D
:104A5000253043EA0223A4F84C309DF826209DF827
:104A6000273043EA0223A4F84E309DF828209DF811
:104A7000293043EA0223A4F850309DF82A209DF8FB
:104A80002B3043EA0223A4F852309DF82C209DF8E5
:104A90002D3043EA0223A4F854309DF82E209DF8CF
:104AA0002F3043EA0223A4F856309DF830209DF8B9
:104AB000313043EA0223A4F858309DF832209DF8A3
:104AC000333043EA0223A4F85A309DF834209DF88D
:104AD000353043EA0223A4F85C3041F27073A4F845
:104AE0006C3046F67813A4F86E30174B2367174BDB
:104AF0006367174BA367174BE367174BC4F8803006
:104B000094F8443043B9FEF78DF942F6E06003F0C3
:104B100023FDB568C5F38035104B1D70012384F863
:104B2000443005E1432E0008ED2B0008D52E000887
:104B3000472C0008D0170020912900080D260008F6
:104B40000010014049270008252E0008A12B00086D
:104B5000012E0008512B0008B12400081C00002081
:104B6000794A136823F48043136000237748DA00FE
:104B700000F18404A5186E68754DAE420AD114F98F
:104B80003340282C06D183180022C3F8882083F8EC
:104B9000842002E00133032BE8D14FF400534B6132
:104BA0006A4C94F89C50002D40F0BC80142003F017
:104BB000DEFC04F19D037620D0210122FDF73CFFAD
:104BC00094F89D30582B29D104F1A0038821182294
:104BD0007620FDF731FF7620F4213122FEF7BEF872
:104BE000012384F89C305B4BA4F86C5063675A4BEC
:104BF000236745F6D813A4F86E30584BA367584B7B
:104C0000E367584BC4F880308CE0012D06D0564B3A
:104C1000564A9D70136843F004031360534D4B4C88
:104C20002B6813F0020F01D023689847E3685846B9
:104C300098474F4B98F8009003F11802B9F1010F13
:104C400094BF99469146019F4A4E002333700FB19D
:104C5000022F69D14FF000080EAB03F8188D1E200B
:104C60000A210122DFF8E4B0C4F8BC90FDF7E4FEAD
:104C700098B19DF82030482B5CD13F4B0222CBF8F5
:104C8000C0303E4BCBF8C43003233370364BDA7060
:104C90002B6843F008032B6001E080464AE0384B64
:104CA00093F854210AB184F8312093F855210AB1C0
:104CB00034490A7093F8563103B133702B681B07DF
:104CC00018D564269AFBF6F5284605F0CDF8074678
:104CD00006FB15A000B205F0C7F82B4905F018F93E
:104CE0000146384605F00CF8284905F011F9C4F8DA
:104CF000C80002E00023C4F8C830012020E042F2DE
:104D00001073A2F86C30A2F86E30214B03251367A4
:104D1000204B5367204B9367204BD367204BC2F83F
:104D2000803074E7042572E7012FB8D91F468BE75E
:104D300002256CE7012FB2D9002786F8008089E7A9
:104D40000FB0BDE8F08F00BF00040140D017002075
:104D500049270008F1220008F3220008E92D000885
:104D6000BD2A00083121000839000020E011002090
:104D70000CE3000883250020CF710008796E00083D
:104D8000C8090020812500208988883C0000204136
:104D9000F92D0008412B0008F12D0008312B0008E7
:104DA000F52200080023036043608360C360036151
:104DB00043618361C36103624362836270478A68AF
:104DC00010B50C6A036814430A6923F4FF431443C3
:104DD0004A6923F0700314438A691443CA6914436F
:104DE0004A6A14438A6A224313430360CB684360D0
:104DF0000B6883604B68C36010BD4FF6FE7302689A
:104E0000134003600023036043608360C360294B49
:104E1000984201D1284A27E0284B984201D1264ADE
:104E20002AE0274B984201D1234A2DE0254B984296
:104E300001D1214A30E0244B984201D11E4A33E08F
:104E4000224B984204D11C4A536843F470032EE06D
:104E50001F4B984204D1184A536843F0706326E010
:104E60001C4B984204D11C4A536843F00F031EE0C8
:104E70001A4B984204D1184A536843F0F00316E0E5
:104E8000174B984204D1144A536843F470630EE000
:104E9000144B984204D1104A536843F4704306E01F
:104EA000114B984204D10C4A536843F47023536069
:104EB000704700BF08000240000002401C00024092
:104EC0003000024044000240580002406C000240A2
:104ED0008000024008040240000402401C0402401A
:104EE000300402404404024058040240026D70B590
:104EF00015880446ADB2A90613D5036B8BB9C36AF6
:104F00001BB1908880B298470BE0E16992884069B4
:104F10004E1CD2B2E6614254E169E268914228BF78
:104F2000E3612B0613D5636AA26A9A42236D0AD005
:104F3000511CA069A162825C9A802369994206D3C0
:104F40000023A36270BDDA6822F08002DA6070BDCF
:104F5000026B0346C16810B5406942B11A6C8C1AE5
:104F6000013A08BF0A46005D1A64C0B210BD1A6A51
:104F7000805C01328A4228BF0022C0B21A6210BD92
:104F8000436B13B190F844007047836A406A1B1A60
:104F9000584258417047426A816A03698A4238BF61
:104FA000D218521A416B21B149680A44591E8A42EB
:104FB00003D2013B981AC0B2704700207047036BC0
:104FC00013B15B68016C01E0C369016A8B423CBFAD
:104FD000C2689B18581AC0B27047836A8169426BD5
:104FE0001944D160416A994297BF0169CB1ACB1A23
:104FF000536096BF0023536083624FF0000380F834
:105000004430136888BF816243F001031360704726
:10501000436A8269D154436A02690133934228BFCB
:1050200000234362436B1BB11B68DB0705D4D4E745
:10503000026DD36843F08003D36070474171FEF77F
:105040003FBF8160FEF73CBF2DE9F04105460E46AB
:10505000078A83899BB21F40002F37D0B7FA87F2A7
:105060004FF00043D340DB4399B21F40A2F11B0332
:105070002982042BF0D8DFE803F0221F1C1903005B
:10508000746A24B1013C0023A4B2736201E0AC8DC8
:10509000A4B2D6F82080B8F1000FDDD0D8F80030E7
:1050A000404621469847D8F80480F4E73068A98E36
:1050B00008E07068298F05E0B068A98F02E0F06809
:1050C000B5F84010036889B29847C5E7BDE8F0819C
:1050D000254B10B55A43254B254C1B680139B3FBB2
:1050E000F2F20388013AA04289B292B29BB212D086
:1050F00004F50064A0420ED0B0F1804F0BD0A4F5AF
:105100009834A04207D004F58064A04203D004F58F
:105110008064A04202D123F070039BB2154CA042E0
:1051200006D004F58064A0421CBF23F440739BB2F8
:1051300003800F4B8185984202850FD003F50063F1
:1051400098420BD003F54063984207D003F5806383
:10515000984203D003F58063984201D1002303866F
:105160000123838210BD00BF40420F004400002095
:10517000002C01400010004073B505460068FFF7A1
:10518000A7FF2A680124138800269BB243F001037D
:105190001380EB7A01A88DF804308DF805408DF866
:1051A00006608DF80740FDF717FFEB7A1B2B0BD13C
:1051B000192301A88DF804308DF805408DF806609C
:1051C0008DF80740FDF708FF02B070BD0C4B800A58
:1051D00098420CD004D8B0F5801F0CD10120704744
:1051E000084B984205D04933984206D003E002208C
:1051F000704703207047FE2070470020704700BFB3
:1052000001001000020010002DE9F8430468074671
:10521000204688469146FFF7D9FF03284BD8BA7A33
:105220009108B8F1000F06D1A589AEB202258D40D4
:1052300026EA0505A5810A2303FB00131F4A42F84D
:105240002380043342F82390B8F1000F07D0BD7AD1
:10525000A189AD080223AB400B439BB2A381282355
:10526000434303F120011144EFF31286502585F3E7
:10527000128803F10C051C331544134455F8047FC0
:1052800017B10F60296804319D42F7D100230B60EC
:10529000F3B283F31188282303FB0020036A23B1B0
:1052A000A3899BB243F0010304E0A38923F0010327
:1052B0001B041B0CA381BDE8F88300BF74240020ED
:1052C000004813E69C18002000480FE6F018002064
:1052D00000480BE6441900200B4B4FF400525A6073
:1052E0004FF6FE730948D0F8DC2011680B401360BC
:1052F000D0F8CC20D0F8D0309A4201D0A8306CE65B
:10530000012380F8EC307047000002409C18002018
:105310002DE9F0431D46A84B8DB0984288461746AC
:105320009DF850605CD1A54BA54AA649C3F8A820BA
:1053300003F1FC02C3F8BC2003F5FE72C3F8C020E1
:105340004FF48072C3F8B420C3F8B8209E4AC3F863
:10535000B070C3F8D820A2F54842543AC3F8F420FC
:10536000C3F8F020C3F8F800C3F8DC10974B9A6933
:1053700042F480429A615A6942F001025A61022362
:105380008DF803304FF40073ADF80030330701D5CA
:105390001C230FE0AC0706D518238D4869468DF80D
:1053A000023001F0E2FEE8070AD54FF48063ADF861
:1053B00000304823864869468DF8023001F0D5FE5A
:1053C0000E238DF804300022012301A88DF805304A
:1053D0008DF806208DF807307E4CFDF7FDFDA1E02D
:1053E0007D4B98424ED1754B754ADF655A654FF437
:1053F00080721A665A6603F53F729A6603F57F72E9
:10540000DA66764AC3F8A400C3F89C20C3F8A0204B
:105410006E4B3107DA6942F40032DA615A6942F0C0
:1054200001025A614FF002038DF803304FF004037C
:10543000ADF8003001D51C230EE0AA0706D51823CD
:10544000634869468DF8023001F08FFEEB0709D5FD
:105450000823ADF8003048235D4869468DF80230D6
:1054600001F083FE26238DF804300022012301A8D9
:105470008DF805308DF806208DF80730584CFDF773
:10548000ABFD4FE0574B984240F0F5804B4B4C4AF8
:105490009F601A6003F2FC425A6103F2FC529A6167
:1054A0004FF48072DA601A614F4A18659A64DA64C0
:1054B000464B3407DA6942F48022DA619A6942F095
:1054C00008029A614FF002038DF803304FF48063B5
:1054D000ADF8003001D51C230FE0A80706D518232E
:1054E000424869468DF8023001F03FFEE9070AD5CF
:1054F0004FF40063ADF8003048233C4869468DF80E
:10550000023001F032FE27238DF8043000220123FF
:1055100001A88DF805308DF806208DF80730FDF7CD
:105520005BFD264C4FF00009012384F84430C4F899
:105530002090C4F81C90C4F82890C4F82490C4F8B3
:105540002C806571A760A6712046FEF7B9FCEA07BA
:1055500056D5236B002B4BD001A8FFF723FCE36C3F
:10556000206B01934FF480530A9380230693E368E2
:10557000CDF82C900493202309936369CDF81490FF
:105580000293CDF81C90CDF82090CDF80C90FFF749
:1055900034FC01A9206BFFF712FC226B216D13680C
:1055A00043F0010313608B8A9BB243F040038B826C
:1055B00053689BB2236423E0003801409C1800200C
:1055C0003CE3000844000240580002400010024042
:1055D00000080140441900200044004004440040F9
:1055E000F01800200048004004480040000C014032
:1055F0004FF6DF72236D1A80DA6842F02002DA601B
:10560000AB0730D5636B002B28D001A8FFF7CAFB8E
:10561000A36C002501934FF480530A9380230693D3
:105620002369606B0493102303930B9505950795ED
:1056300008950995FFF7E1FB606B01A9FFF7BFFB38
:10564000636B1A6842F002021A60226D5D605D6051
:10565000938A9BB243F08003938204E0226DD36867
:1056600043F08003D360226D204693899BB243F4BC
:105670000053938100E000200DB0BDE8F08300BF2F
:10568000421E002012F8013FA3F13001092904D87D
:105690000A2101FB00303038F4E7704738B517486D
:1056A000FFF7EEFF6422B0FBF2F302FB1302144B90
:1056B000124C534322782146A2F13005092D04F102
:1056C0000104F7D92E2A0DD142F2107411F8012FDE
:1056D000303AD5B2092D05D802FB04330A22B4FBB7
:1056E000F2F4F3E706220333B3FBF2F36422B0FBD8
:1056F000F2F0044A02FB003038BD00BF981F0020C2
:10570000A086010040420F0038B5154B1C4614F826
:10571000015BA5F12D0255425541002D08BF1C46E5
:105720002046FFF7ADFF6423584323461A4613F87B
:10573000011BA1F13004092CF8D92E290DD1537881
:10574000303BD9B2092908D80A2101FB030093781C
:10575000303BDAB2092A98BFC01805B1404238BDC3
:10576000981F00200E4B1A786B2A16D140F2FC725B
:105770005988914211D11A79BE2A0ED193F8DD27AA
:105780000020EF2A0BD113F8012B5040054A934219
:10579000F9D1B0FA80F04009704700207047704797
:1057A00000F80108FCFF010844280DD1594B0122E3
:1057B0005949DA7300230B8058490B7048705849D7
:1057C0000A70584A13707047482808D1514B02227A
:1057D000DA7300221A82514A537848330AE041288A
:1057E0000AD14C4B0322DA734F4B00221A804B4AEA
:1057F00053784133537070472A2803D1454B042214
:10580000DA7370470A2812D1444B5A781B789A42AF
:10581000404A09D1454B01211970414B118A93F936
:1058200000304B4342490B800023D3737047582804
:1058300005D13C4B00221A7001223E4B03E0232885
:1058400003D10022374B1A7070474028F9D04E28F8
:1058500007D1354A002313802F4A4FF47A71118003
:1058600008E0452809D1304B5A221A802A4A4FF4C1
:105870007A7313802E4A138017E0532808D12A4BDD
:10588000B4221A80244B00221A804FF47A720AE064
:1058900057280CD1244B4FF487721A801E4B4FF4BB
:1058A0007A721A800022224B1A800122CAE7194A12
:1058B000D37B013B032B2BD8DFE803F00204152236
:1058C000154A11E015492D284B7803444B7002D13D
:1058D000FF22134BB7E7138A03EB830300EB43006C
:1058E000303810827047104A138803EB830300EBB3
:1058F0004303303B1380094A537818445070704773
:10590000064A137803EB830300EB43003038107032
:10591000704700BF981F00205E0900201D00002076
:105920003D000020CC08002060090020C5080020B0
:1059300054090020C80800208F4B24285A6970B5EC
:1059400002F1010205465A611C4600F00A8105D8A1
:105950000A280CD00D2840F01F8108E02A2806D024
:105960002C2840F019811B7E83F02C032376627E65
:10597000814B0E2A00F2E780002199549A7E002A7A
:105980005AD01A78A2F14103052B01D8373A05E025
:10599000A2F16103052B94BF573A303A63781201A4
:1059A000A3F141010529D2B201D8373B05E0A3F1AB
:1059B0006101052994BF573B303B1A44217ED2B286
:1059C00091426D4B32D1DA7E002A00F0BC809A8B76
:1059D000996A01329A835A6A93F82C001A62674ACC
:1059E000116088B1012840F0AC805A6B196C1A63C1
:1059F000DA6B9A63624A1160624A596C1160DA6C20
:105A00009A645A6D1A659FE0996D5F4A11605A6BEE
:105A1000196C1A635A4A1160596C5A4A11605B4AF0
:105A2000B3F85C1011805A6E1A668AE0B3F86820E9
:105A30000132A3F8682086E093F86A20CAB9013BD6
:105A40001946534A11F8010F002800F0B58012F8EA
:105A5000016F8642F6D04F4A13F8010F002800F07C
:105A6000AF8012F8011F8142F6D0022384F82C3057
:105A700069E093F82C10022965D01B78002B62D0C6
:105A800042EA4112013A282A5DD8DFE802F01521E6
:105A9000282E32454B52565C5C5C5C5C5C5C5C5C0A
:105AA0005C5C5C5C5C5C5C5C5C5C5C5C5C5C151CBD
:105AB00021282E32383C4000FFF726FE606302F0BA
:105AC00029FD60623FE0A3F141025342534127E0C8
:105AD000FFF7E4FD206402F01DFDA06233E0532BCC
