:020000040800F2
:100000000050002065AB000805AC00088995000889
:1000100005AC000805AC000805AC000800000000B5
:1000200000000000000000000000000005AC000817
:1000300005AC00080000000005AC0008838600083D
:1000400005AC000805AC000805AC000805AC0008CC
:1000500005AC000805AC0008194600081546000864
:1000600005AC00089186000805AC000805AC000846
:1000700005AC000805AC00081554000805AC0008E4
:100080009D70000805AC000805AC000805AC000830
:1000900005AC000805AC000805AC000811460008D6
:1000A00005AC0008D564000805AC0008E56400084C
:1000B000C5640008B5640008A56400089530000810
:1000C000993000088D3000089130000805AC000818
:1000D00005AC00080D54000805540008FD53000845
:1000E0009586000805AC000805AC0008000000007B
:1000F0000000000000000000000000000000000000
:0C01000000000000000000005FF808F1A3
:100110002DE9F04F774B784D9FB0C5F8983000230C
:10012000C5F89C3005F0BCFB18B905F0B3FE06F02D
:1001300093FC06F037FD714A714C1378714E43F011
:100140000103137000230A930B930C934FF4E013F5
:100150000D932368B07B43F480332360A36943F09D
:100160001003A361236803F400330B930A9B01334C
:100170000A930B9B1BB90A9BB3F5A06FF2D12368BE
:100180005F4913F4003301D0022315E00A6842F0FE
:1001900001020A600A93236803F002030B930A9B8F
:1001A00001330A930B9B1BB90A9BB3F5A06FF2D1E5
:1001B00023689B0739D501230C93534B53491A6885
:1001C00042F010021A601A6822F003021A601A68DC
:1001D00042F002021A606368636063686360636888
:1001E00043F4806363604A4B1A68043B22F0704218
:1001F0005A60484A1160616821F47C116160596855
:1002000041F000415960D96821F40041D9609B68F0
:100210001F0449BF404B4FF4E01313604FF48013A9
:100220000D930C9B012B01D117E0FEE7022B18D197
:1002300068B10D9BB3F5801F02D14FF4A01305E008
:100240000D9BB3F5E01F02D14FF400130D930D99F0
:1002500063680B4343F4803302E0636843F4601344
:100260006360236843F0807323602168244B890115
:10027000FBD5596821F003015960596841F002012A
:10028000596063681E4903F00C03082BF9D14B68D1
:10029000224803F00C03042B03D0082B03D01B4B84
:1002A00012E0136810E04B684F68C3F38343FF0309
:1002B00003F1020301D41A4905E0496811F4003F33
:1002C000116818BF49084B43036063681549C3F3BD
:1002D00003130B44197E0368CB400360F37B0033A8
:1002E00018BF012385F8A0301368084A93421BD138
:1002F00001221DE017660008B4000020B826002087
:1003000000100240980A00200020024000127A00EB
:10031000041001402C000020001BB7004400002006
:1003200000093D00FCDD0008B04A934202D10222E0
:10033000AF4B1A70DFF810B3AE4B0DF1780ACBF863
:100340000C30A369DFF8049343F00103A361636AEF
:10035000A94FC5F8A430636A4FF0000843F08073DA
:100360006362A369484643F01C03A3614FF6FF7321
:100370002AF82C3D51468DF84E8006F09AFF3846FB
:10038000514606F096FF9D48514606F092FF4FF009
:1003900010038DF8463002231EA98DF847304FF424
:1003A000007321F8343D4846C9F8103006F081FF4B
:1003B000934A5046536843F00073536007F078FD4A
:1003C000904A139B4146B3FBF2F38F4A8F48136068
:1003D00018220BF09AFC8E4B4FF47A721B68DFF8F0
:1003E0003CC2B3FBF2F38B4A013B5360F0238BF822
:1003F00023300723C2F808801360B368DFF850B2D7
:10040000DFF85082CBF8003098E80F008AE80F0040
:10041000A369CDF80CC043F00803A361A369139846
:1004200043F00803A36108233B6110233B6114A937
:1004300006F03FFF159816A906F03BFFDBF80030E9
:10044000CDF8109013F0080FDDF80CC013D09CF815
:100450008E31012B0FD8704B9CF88F21D3F8A4302C
:1004600013F0805300F0D38505E06C4B002283F835
:100470008F2106F077FD642008F0F9F8A022684883
:1004800000210BF042FCE369002243F00703E36123
:10049000A36943F4006343F00C03A3615E4B4FF088
:1004A000000803F1A80102F8018001320E2AF5D1FB
:1004B000FF2283F8B62083F8B72083F8B82083F8AA
:1004C000B920584B584A41461A6058483C22DBF83C
:1004D00000400BF01AFC4146C4F380170523544A30
:1004E000DFF848E1885C0C224A4302F80E0047B965
:1004F0001E3801289FBFFF2003F1FF3302F80E00D2
:10050000DBB201310529EAD14A4A4B4913704B4B02
:1005100096F805B0C5F8BC30C0330B60484B3E4A76
:1005200003EBCB035B78A10648BF0123C2F8C030C0
:1005300085F8BAB0002340F2DC52424820F813207C
:100540000133082BF7D1103000211C220BF0DDFB0A
:1005500014F40053DFF8009104F400680AD1B8F1F4
:10056000000F0AD096F8821109F10C02012908BF88
:100570004A4604E0CDF80C9002E009F10C02039227
:100580001D4ABBF10E0F0F92039A5288ADF840201E
:10059000039A1288ADF842200FAAC5F8EC2003D0C8
:1005A0000BF0EF02082A02D1012285F8E620012093
:1005B000059307F0EFFF059BC4F34002003318BF1B
:1005C000012385F8D430C4F3C03385F8D90085F809
:1005D000DA2085F8DC7085F8D730B8F1000F3DD00F
:1005E00096F882315F1E7B427B4138E0001BB700EA
:1005F000C62600200005FA05000C0140001001404D
:100600000000014040420F00A423002024190020D4
:100610004400002010E000E0B4000020980A002010
:100620002C2500209C230020880C00206023002023
:10063000B7F200085C23002058260020A80A0020FA
:100640004CF000087801002000ED00E000080140B7
:10065000A812002024DE0008FCDD0008434685F8CF
:10066000D830C4F3004385F8DD30C4F3402385F867
:10067000DE30D5F8C030B6F84401003318BF01238E
:1006800085F8DF30C4F3005385F8E030B6F8463122
:1006900004F00101A5F8E430B6F85231C4F3C00209
:1006A000A5F8E230C4F38043E404A5F8EA0048BFAB
:1006B000B54885F8DB3048BFB0F84C41B6F850314A
:1006C00048BFB248A5F8E83048BFA0F8EA40B3F503
:1006D000FA7F84BF0023A5F8EA3096F8D231AC48FF
:1006E00085F8F030002385F8F130437095F8E63056
:1006F00085F8D510002B85F8D6200CBF00230223E7
:1007000001B902B1013309EB83039B6B9A1E1A33C3
:100710000793002306920593069BDFF870B233F827
:10072000024F06934FF6FF739C4200F08A819BF8BC
:10073000D920E3B2240AE5B21AB19A1E012A40F286
:100740007B819BF8DC2032B192491A018958924A88
:10075000914200F071819BF8DD0030B18D491A01A2
:1007600089588D4A914200F067819BF8DA2052B196
:100770008849049E01EB03114A68B24203D10A89F9
:10078000102A00F059819BF8D72052B18149049E6C
:1007900001EB03114A68B24203D10A89022A00F030
:1007A0004B819BF8D82052B17A497C4E01EB031162
:1007B0004A68B24203D10A89022A00F03D81DBF87F
:1007C000EC607EB1734F326807EB03177968914292
:1007D00008D13A89B188914200F02E81F188914286
:1007E00000F02A81022C02D19BF8D42003E0012CD6
:1007F00004D19BF8D520002A00F01E819BF8DF2051
:10080000644C1E0162B1614A92F8E62042B9A3F13C
:100810000802012A04D8A25961498A4208BF042566
:100820009BF8E02034445AB1584A92F8E6203AB98D
:1008300010B10C3B012B01E0043B032B40F2E5809F
:10084000012D44D1DFF84C91FF238BF838318BF820
:10085000393109EB06035A7B586803F108081B89F4
:100860000027ADF84C3013A902238BF83C71CBF86C
:1008700048418DF84F308DF84E208BF8F470CBF84E
:10088000F870CBF8FC70CBF80071CBF834718BF8B2
:100890003A718BF83B7106F00CFD59F8060098F898
:1008A00002103A4603F005FD204639462A4604F078
:1008B00001FD3C4B3C49CBF84C313C4BCBF85471DF
:1008C000CBF8503120460A1D04F03CFDB4E0022D67
:1008D0004BD19DF814301C2101FB03FC2B4B9DF8E0
:1008E000141003EB0C08012388F83C310893294BC2
:1008F00088F83D119A19517B0027506802F10809C8
:1009000012898DF84E1088F83E7113A988F8467147
:10091000C8F84841CDF824C0ADF84C208DF84F50B0
:1009200006F0C7FC1B4B99F8021098593A4603F0A1
:10093000C0FC089B20461A46394604F0BBFC134B0A
:100940001B4ADDF824C0C8F84C219C44194A0CF518
:10095000A671C8F85021C8F8547120460A1D04F049
:10096000F1FC059B0133059366E0032D4BD19BF809
:10097000DB20064B9BF8F2600F4DFAB120460821B0
:100980004FF6FF72002332E0980A0020B4000020E6
:10099000A50100206CEF000800040040000C01409D
:1009A000002C0140093D000800020020E93D00083C
:1009B000ED420008E13C0008B8230020B3F8E8202D
:1009C000B3F8EA30B2F5FA7F0BD988492046B1FB7B
:1009D000F2F2082192B203F0C1FC854B45F82600E3
:1009E0000AE084492046B1FBF2F2012192B203F001
:1009F000B5FC814B45F82600C3609BF8F23001330B
:100A00008BF8F23018E0042D16D1BBF8E220794BB8
:100A1000204693FBF2F20121BBF8E43092B29BF83E
:100A2000F15003F09BFC9BF8F1300BEB8505013393
:100A3000C5F81C028BF8F130069B079A93427FF4AD
:100A40006BAE6E4D6E4F95F8F13095F8BA6085F843
:100A50003C32A6F117030024022B3C701AD8D5F8BB
:100A6000BC300021185903EB040809F09FFC18B1B1
:100A7000D5F8C0306BBB25E0624B04EB030E98E861
:100A80000F008EE80F003B7810340133C02C3B7010
:100A9000E5D1EDE75C4B13F836C003EBC603D3F8A2
:100AA000048087F800C0B8F1000FE1D06445DFDAB8
:100AB000544A230103EB020E43440FCB01348EE86A
:100AC0000F00F3E7514B1A68994612F4805F26D164
:100AD0001FE04F4B4F4A03EBC60393F84800DC6C12
:100AE0001070002CEED000238342EBDAC3EBC3017D
:100AF0006218D2F80080DFF83CC1013341F80C8065
:100B000001EB0C0E9188AEF8041092798EF8062055
:100B1000EAE706F0EF03082B3F4B26D127E03F78AA
:100B2000012FF6D9374B03F1080403EB071303F148
:100B300018071034BC42ECD054F8100C4FF07C5124
:100B400009F0A0FA4FF07C5144F8100C54F8140C42
:100B500009F098FA4FF07C5144F8140C54F80C0C3E
:100B600009F090FA44F80C0CE3E70E2E08D11A783D
:100B7000182E42F010021A7008D108F0FFFB05E0B1
:100B80001A78192E22F010021A70F5E708F0DAFB35
:100B9000D9F80030214A58035CBF012385F800339F
:100BA00013781F4F43F0040313703B781D4C022B46
:100BB00034BF142310238DF84E304FF002038DF80C
:100BC0004F30A3694FF4805243F00403ADF84C203A
:100BD00038BF0026A36128BF0126134813A906F0D9
:100BE00068FB124B46B3124A27E000BF00127A009E
:100BF000093E000840420F00F93D0008B400002003
:100C0000B4230020F40200204CF00008A8120020B9
:100C1000FCDD0008E4250020C5120020B8260020D5
:100C2000C62600200010024000080140BC2600201B
:100C300081830008E5250020554A00201A6007F04E
:100C40002BFD544B544E93E80300A3698AE803003C
:100C500043F00803A361139814A906F02AFBE36983
:100C6000304643F48043E3612369514643F48043B3
:100C7000236118238DF84E304FF42043ADF84C30EB
:100C80004FF003038DF84F3006F013FB4FF0040CC8
:100C90004FF48043304651468DF84EC0CDF810C019
:100CA0004FF48058ADF84C3006F003FB102330466B
:100CB00051468DF84E30ADF84C8006F0FAFA2369B3
:100CC000322043F480432361236923F4804323616A
:100CD000324B1A8802F4415242F4457242F0030248
:100CE0001A80998B072221F400610904090C998369
:100CF0001A821A8892B242F040021A809F23C6F8E4
:100D000010808DF8443000238DF845308DF8463042
:100D10008DF8473007F0ABFCDDF810C0C6F8148042
:100D20006246504611A902F013FAC6F810809DF8E9
:100D30004E309DF84D201B0243EA02439DF84F20A0
:100D40001343174A934214D0322007F090FCC6F8A0
:100D50001480F52002F032FAFF2002F02FFA7028FA
:100D6000C6F8108005D13B78022B02BF03220D4B41
:100D70001A703B78032B0CBF1F20022007F08AFB60
:100D80003B78032B10D0012006F08EFC11E000BF51
:100D90009583000814DF0008000C01400038004073
:100DA00015202000C6260020022007F0F3FB0028B3
:100DB000E9D0D9F80060DFF8E0A206F400434FF074
:100DC000100904930AF2013006F4006300214A4638
:100DD00005933F780AF099FF4FF6FF73ADF8443062
:100DE00002234FF000081E408DF846308DF84780F2
:100DF00010D01EA921F8349D9F4807F00BFA012658
:100E0000042207238AF801238AF802838AF80363FD
:100E10008AF80433049B93B102231EA921F8343DC0
:100E2000954807F0F7F90123F21885F8053385F89E
:100E30000733072385F8066385F80833D6B2012FF8
:100E400013D920231EA921F8343D8B4807F0E2F97D
:100E50000523012285F8093385F80B23731C07222B
:100E600085F80A6385F80C23DEB2059B9BB102234B
:100E70001EA921F8343D814807F0CCF9092301224D
:100E800085F80D3385F80F23731C072285F80E6350
:100E900085F81023DEB26368794843F44043636009
:100EA0006369774D43F001036361A36943F4007301
:100EB000A36104F040F813A804F012F8714B002469
:100EC0001393714B012E149394BF234680231893E0
:100ED0004FF4807319934FF480631A93202313A95E
:100EE0001B9328464FF4005316961C9315941794A1
:100EF0001D9404F002F82B68644A43F001032B6050
:100F00005368012E23F4702394BF0021012123F4A0
:100F1000807343EA0123536091685D4B013E0B40AF
:100F2000214643F4602343F002039360D36AF6B290
:100F300023F4700343EA0656D6620123554842184B
:100F40009478002C4ED00C5C581C092CC0B2D2787E
:100F50004E4E0ED9A4F10A05F76805EB45054FF092
:100F6000070E0EFA05FE27EA0E07AA403A43F26082
:100F70000BE0376904EB440E072505FA0EF527EA66
:100F8000050502FA0EF22A433261062B3F4D0CD8BA
:100F90005A1E6F6B02EB82021F23934027EA03065F
:100FA00004FA02F333436B631BE00C2B0CD8DA1FFB
:100FB0002F6B02EB82021F23934027EA030604FAF9
:100FC00002F333432B630CE0A3F10D02EF6A02EB53
:100FD00082021F23934027EA030604FA02F33343F5
:100FE000EB62034604311029A8D1284B9A6842F4D9
:100FF00080729A609A6842F001029A609A6842F0A0
:1010000008029A609968214A090747D5FAE7013A28
:10101000092A3FF630AAD8F83801039310237B61E0
:101020005146CAF80000049806F043F9049B3C209E
:101030001A460823136107F01AFB10233B61039B38
:101040001F4696F88F319F42BFF60FAA049BDFF828
:101050002C904FF00808C9F810807820C3F814804D
:1010600007F0FAFA049BC9F814807820C3F81080BE
:1010700007F0F2FA0137E4E700080140000C0140F4
:10108000080002404C240140C60300200024014017
:10109000FDF7F1FFB5030020B4000020936843F092
:1010A00004039360B84B9A685207FBD49A6842F4E1
:1010B000A0029A60B54BB3F85801002840F0FA86B8
:1010C000B3F95A21002A40F0F586B3F95C31002BC0
:1010D00040F0F086AE4D2B689B0301D502F0DEF8A0
:1010E000AC4CAA4ED4F81C73B6F86001B7F9567030
:1010F00096F85F1196F8672196F86831009703F02B
:101100008DFA10B9012007F0CDFAA34A0A27137807
:1011100043F002031370A14B10225A6108221A6196
:10112000DFF878821920D8F80C30013F83F01003E3
:10113000C8F80C30D8F80C3083F00803C8F80C302D
:1011400007F095FA012007F0A7FA192007F08FFAA7
:10115000002007F0A1FA17F0FF07E1D10823C8F833
:10116000103010278E4BC8F810701A68994612F08C
:10117000080F09D08B4BC8F814701B6898478A4B2E
:101180000122C8F810701A70884B188808F026FFE2
:10119000DBF820330746187B08F020FF844908F06D
:1011A00071FF844908F066FE05F0E2FB014638460F
:1011B00008F068FF0BF00CF97F4B394618807F4828
:1011C00009F014F87E4909F011F87E4BCBF824039E
:1011D0007749D86808F056FF7B4908F053FF7B49F0
:1011E000B6F84E317A4ACBF82C13DBF81CE3CBF877
:1011F0003413B6F89411ABF8303300231380937096
:10120000CBF828030EF179028BF838331FFA81F8F6
:10121000704FDFF8ECC13868DFF8E8A100F5967090
:101220004AF823002CF813800133122B6046EFD1CB
:10123000D5F800C00EF1C90E1CF4805F08BFB6F8E7
:101240009A81A0F806801378F3B992F80280D378D7
:10125000984519D2B8F1000F08D008F1FF3808EB13
:10126000880808EB880808F5617306E0013303EB92
:10127000830303EB830303F5617392F801809BB250
:1012800008F1040820F8183004327245DBD11CF054
:10129000080F00F0068196F88E31062B00F2FA80D6
:1012A000DFE803F004070E3551B2B20045F2F05307
:1012B00001E042F6F823A4F8843302F05DFCE8E094
:1012C00042F6F8230901A4F884330A2391FBF3F1D1
:1012D0000023A1F5B061404A42F823100133122BDC
:1012E000F9D13E4A3E49402011603E4A137007F052
:1012F00075F9002800F0CE8001234FF0070A90F91D
:10130000000040218DE80804374A384BBCE042F623
:10131000F823374AA4F88433304B40201A60314B0D
:1013200010221A7007F05AF9002800F0B380012348
:101330004FF0000890F9000040218DE808012D4A87
:101340004FF4E133A0E042F6F8232B4AA4F88433AB
:10135000224B40201A60234B08221A7007F03EF9F6
:10136000002800F0978001234FF0000C90F9000056
:1013700040218DE80810214A4FF4E13307F0B8F816
:10138000044BC3F8880381E000240140980A002040
:10139000A8120020B4000020B8260020000C014054
:1013A000B012002060190020FC090020000000207D
:1013B00035FA8E3CDB0FC93FBA1200200AE81C4107
:1013C00000401C46AC180020BD3786351E0C00209E
:1013D000001300208C0A002050220020180000205A
:1013E000AB790008BC120020297C0008A08601000F
:1013F000A77900087D7B0008A3790008317B0008ED
:10140000500A0020F003002042F6F8226A49A4F8AE
:101410008423062B4FF00C02DFF8D4C1DFF8D4E1AF
:1014200066480A7010D000238CF800308EF8003027
:101430000370634B1B211970624B4FF4E1381A7033
:10144000614B05221A700EE0002101708CF800102B
:101450008EF800105A49212008705A49DFF8988107
:101460000A70594A1370594A594B40201A6007F0C4
:10147000B5F878B101234FF0000E90F900008DE827
:1014800008404346534A402107F032F8003018BF65
:10149000012030B9B368504A23F00803B3604C4BC5
:1014A0001A602B68444A13F4804F1FBF1221117039
:1014B0004A48474918BF086042F20101194099B1F2
:1014C00044F620619804A4F8841341BF08211170E8
:1014D00043483F4948BF0860D90741BF0C211170FC
:1014E00040483B4948BF086011781B06A1F1040140
:1014F000517040F19980DFF804814FF0000ADFF865
:1015000000B1394851461522C4F88CB388F801A0BF
:10151000C8F804A0C8F808A00AF0F7FBABF105036F
:10152000C4F890333B680220C8F818303B6888F84C
:1015300000A0C8F814A088F81CA0C8F80C3007F068
:101540004DF898B390F805E098F8013027490C223F
:1015500002FB031292F82121724504D00133DBB261
:10156000042BF3D9002388F8013096F8EB3198F872
:101570000120002B4FF00C0303FB021314BF4FF0AC
:10158000030E4FF0010E4FF0000890F9000093F8A1
:101590002131CDF800E0CDF804800221424606F06A
:1015A000A7FFDFF858A0C4F8940358BBB36823F032
:1015B0008003B36030E000BFBC120020B8220020DE
:1015C000BA2200204D220020BB220020E97800082A
:1015D00018000020117A0008FD790008D979000868
:1015E000ED790008DD790008E8120020FCDD000834
:1015F0004E220020B922002090D00300C812002003
:10160000880C002001238AF800303B68CAF8148057
:10161000CAF818308AF81C80D4F81C0300F5C5738A
:10162000C4F8983304F0EAFEDFF850A3039BDAF81D
:101630001820C4F89C33039B42F00102CAF818201A
:101640001A8804264FF0030BC0480EA9ADF83820C5
:101650008DF83A608DF83BB005F02BFE039BBB483C
:101660005A880EA9ADF838208DF83A6005F021FEB1
:10167000039B0120197A05F007FE039BB4495A68C1
:101680004FF010034A610026012713A813928DF82A
:1016900051308DF850608DF8527006F07DFD039B3F
:1016A00011A85A7A8DF845B08DF844208DF846601F
:1016B0008DF8477001F02EFDA64A84F8B0631268D9
:1016C000DFF8B4823C3AC4F8A023D9F8002042F0F5
:1016D0001002C9F800204FF0FF32C4F8A4239E4A3C
:1016E000C4F8A8238032C4F8AC232A68D40340F19C
:1016F000AE8040F22A3904F067FB08F2B13804F0FA
:10170000A5FB04F087FB08F8017C31464A464046B9
:101710000AF0FBFADAF81820904842F00402CAF8FE
:1017200018204022ADF838200EA918228DF83B2051
:101730008DF83AB006F06EFDDAF81C20884942F0C8
:101740000202CAF81C20874A874C1268DFF830B2C0
:10175000B2FBF1F22188013A21F45C710904090C11
:10176000218092B21D21A1852285A782228C22F0A0
:1017700001021204120C2284228CA088218B22F0F8
:10178000020221F0730109041204090C120C41F049
:10179000600180B23A43A0802183A6862284228BF6
:1017A000584622F008021204120C42F0080222836A
:1017B000B4F844206FEA42426FEA524292B2A4F86F
:1017C0004420DAF814203A43CAF8142003F0B3FB9B
:1017D00013A803F085FB654B58461393102315930C
:1017E000802318934FF48073199313A94FF4005377
:1017F0001C93CDF85080CDF8589017961A961B96EA
:101800001D9603F07AFBA38911A89BB243F40073E1
:10181000A381DBF8003043F00203CBF800304FF037
:1018200010038DF845708DF844308DF846608DF8C2
:10183000477001F06FFC4E4B1A684E4B43F8262060
:101840000136202EF7D105F041FC05F03FFC2B6856
:10185000580540F15F81484C0420D4F85C777D2620
:10186000C4F8607706F0BAFE04218146C4F8640724
:1018700006F0AAFE824684F868070820C4F86C7750
:1018800006F0ACFE0821C4F8700706F09DFE0021AA
:1018900084F874072C2204F275700AF036FA8E234D
:1018A0002C2200214FF07C0884F8763704F2A170D6
:1018B000E02384F8783784F8A06784F875870AF005
:1018C00024FA8A2384F8A2371020A02384F8A437AE
:1018D00084F8CC6784F8A187C4F8D07706F07EFE40
:1018E0001021C4F8D40706F06FFE84F8D807202032
:1018F000C4F8DC7706F072FE2021C4F8E00706F099
:1019000063FE84F8E407504604F0FAF994F8E537EA
:10191000064683423ED0A8B3B9F1000F3AD0022365
:1019200099F9000000937B780421003318BF01234C
:10193000019300224FF4165306F0DAFDC4F8E807CD
:1019400040B3012384F8E53724E000BF000C0140D8
:10195000000401408C0A0020C40C00200008014053
:1019600000366E01440000200004004034040040B2
:1019700058DF000890070020B4000020001002404B
:101980006C000240D4F8E80706F09CFDC4F8E86754
:1019900084F8E56794F8740704F0B2F994F8EC372A
:1019A000BA4E834207461AD088B1D6F87037B3B121
:1019B0000022012793F900000821009701924FF4BB
:1019C000964306F095FDC6F8F00730B907E0D6F863
:1019D000F00706F077FDC6F8F07786F8EC7794F814
:1019E000D80704F08DF994F8F437A84E8342804666
:1019F00059D0002837D0D6F8D427002A53D0D3792D
:101A000092F90000002B4FF00202A14F08BF032300
:101A10000092002257F823300192102106F068FD51
:101A20000746C4F8F80700283DD096F84A30022B44
:101A30000BD096F89620022A01D14C3605E023B14E
:101A4000002A06F14C0618BF0026C4F8FC6746B110
:101A5000304600214C220AF058F90223376086F8FC
:101A60004A3001231DE0D6F8F8773368BB4207D12E
:101A7000384606F027FD304641464C220AF045F92B
:101A8000E36CBB4207D1384606F01CFD81480021BB
:101A90004C220AF03AF9384606F014FD0023C4F847
:101AA000F83784F8F43794F8E40704F029F994F847
:101AB0000038764E834207462CD008B3D6F8E0377C
:101AC00043B3D6F8DC2793F9000052780323002AA9
:101AD0000CBF0822092200930192202100224FF41A
:101AE000614306F005FDC4F8040898B1012386F8A7
:101AF000083886F80038684B1B68C6F80C3809E0CF
:101B0000D6F8040806F0DEFCC6F8047886F80878F3
:101B100086F80078614B624C1B78022B64D1614AD5
:101B200000261388322023F040031B041B0C138073
:101B300013884FF4805723F038031B041B0C1380C9
:101B400013889BB243F0400313809F238DF84430E9
:101B50008DF845608DF846608DF8476006F087FD8A
:101B60008DF84D60504E0422776113A811A901F041
:101B7000EFFA37619DF84E309DF84D201B0243EA85
:101B800002429DF84F301343484A934219D00AD875
:101B9000A2F51A42033A93420CD002F51A420232DD
:101BA000934209D01BE0424A934205D0013293424E
:101BB00007D014E0202300E08023A3804FF480733B
:101BC00002E04FF48073A380E3802389A2881B0284
:101BD000E36053432361374B01221A7004E0002372
:101BE000A380E380E36023612769002F00F00F8169
:101BF000FF0AB8464FF0000ABA452FDA0AEB070988
:101C00004FEA69094FEAC92303228DF844200026D0
:101C10001A0C1B0A8DF845208DF846308DF8476068
:101C200001F00EFBD0B1204B4FF4805CC3F814C020
:101C300011A9042230460DF14C0BCDF810C00393CE
:101C400001F086FA31465846102201F081FA039BD2
:101C5000DDF810C03146C3F810C00BE00B4E4FEA60
:101C6000C823049396F8112896F81038934200F090
:101C7000CB8021E05BF82130013340F01781013146
:101C80000429F7D1C8464F46B6E700BFB40000208C
:101C900054EE0008000100208C0A0020C626002017
:101CA0000000002000380040000C014018BA20005D
:101CB0001740EF00900A002006F61201C8189A4259
:101CC0001190129108D3D31A139300231493139BEA
:101CD000149A02EB03095BE0C3F18003139314929F
:101CE000F5E7D6F894885FFA88F709EB0703B3F5B0
:101CF000807F23698CBFC7F580774F4698457ED299
:101D00000223DFF8D0A28DF838304FEA18434FF4A1
:101D1000805B8DF839304FEA18238DF83A308DF812
:101D20003B8001F08DFACAF814B0062001F046FAA3
:101D3000A74B0122CAF810B000201A700EA9CAF8E9
:101D400014B0042201F004FADDF84CB0BBF1000F2E
:101D500022D0BB4531D2119B002019465A4603932D
:101D600001F0F6F9039BCBEB070A03EB0B01002311
:101D700011911393DDF850B0BBF1000F0ED1954BCC
:101D80004FF48052C7EB090947441A61C6F89478AA
:101D9000B9F1000FA5D132E0BA46EBE7D34511D235
:101DA000DDF848A0002051465A4601F0D1F90AEB6F
:101DB0000B01002312911493E1E7BA464FF0000C97
:101DC00013AB02E014AB4FF0040C0DF1440B06937F
:101DD0005BF80C30524619460020CDF814C003932E
:101DE00001F0B6F9039BDDF814C003EB0A02069B71
:101DF0004BF80C201A68CAEB02021A60BFE70023F6
:101E000086F8113886F81038049BC6F894382B6889
:101E1000714C13F4002318BF012384F8983806F09E
:101E2000FFFB6E4B4FF47A7118606D4B5A79052A9F
:101E300004BF4FF4C872A4F89A286A4A11806A4A0B
:101E4000C821118069490A7842F008020A7068497D
:101E50000A7822F002020A7040F6020229680A405B
:101E60006AB16448644A1060644A03201070644A8E
:101E7000012010700022A4F89C28A4F89E288A0350
:101E800041BF604A04211171D1789B6844BF41F081
:101E90000101D1705C4A2B60012384F80033137870
:101EA00063F07F0313701FB0BDE8F08F09F1010AE2
:101EB000B946E8E6554B00221A7000B208F08EF8D9
:101EC000534908F0DFF8464C0646B4F95A0108F0C9
:101ED00085F84F4908F0D6F80546B4F95C0108F0DA
:101EE0007DF84B4908F0CEF84A490446304607F0E1
:101EF000C1FF04F03DFD8046304604F039FD454900
:101F00000646284607F0B6FF04F032FD074628468D
:101F100004F02EFD3F490546204607F0ABFF04F0D4
:101F200027FD8246204604F023FD41468146504667
:101F300008F0A8F841460490484608F0A3F8514636
:101F40000590304608F09EF849460690304608F065
:101F500099F839460790504608F094F82E4C4946B7
:101F6000206007F1004008F08DF829466060A56008
:101F7000069808F087F80146059807F07BFF294688
:101F8000E060079808F07EF80146049807F070FFBB
:101F90003946206106F1004008F074F82946606176
:101FA000049808F06FF80146079807F061FF29468A
:101FB000A061059808F066F80146069807F05AFFF8
:101FC0004146E061384608F05DF82062FFF782B8CC
:101FD000900A0020000C0140B4000020B809002045
:101FE000980A0020C0260020C2260020C51200202A
:101FF000C4260020100C0020AC1200204723002033
:102000003800002094120020B82600201400002080
:1020100035FA8E3CDB0FC93FC80900209148F0B566
:102020000368914A9C8AA4B2E1B211F0010F2ED04C
:10203000198821F400610904090C1980198889B2F2
:1020400041F48061198000211170517899B1917823
:1020500011B9D178FF290ED101219170117902298E
:1020600001BF198889B241F400611980517941F0AA
:1020700001011982E1E0517901F0FE011982D37862
:10208000FF2B00F0DA80784BFF211970D5E08E0726
:102090003AD5BFF35F8F1479E4B2012C13D1517894
:1020A00089B1917879B1198821F480610904090C0A
:1020B0001980BFF35F8F198B1988947189B241F42D
:1020C000007119801BE0198BBFF35F8F147966498B
:1020D000022C0AD14C7844B1897831B1198821F4A5
:1020E00080610904090C1980A1E014795E49032C70
:1020F00005D14C781CB18978002940F098809988E6
:1021000089B241F4806197E04D0756D50121917164
:102110005178002937D09178002934D011791C8862
:10212000022911781DD924F480642404240C1C8015
:102130001E8A9568CCB2F6B249B26E54198889B23B
:1021400041F4007119800168A31C13700B8A0134DB
:10215000DBB264B22B558B889BB243F480638B80D7
:1021600026E0A4B244F400741C801D8A9668CCB2A8
:10217000EDB249B275541B8A611C49B2DBB203341B
:102180007354147014E09178374C09B9217B41B134
:10219000198889B241F400711980137801331370E2
:1021A00006E0198889B241F4807119800123A37077
:1021B00001680B88DB05FCD43FE001F0400101F031
:1021C000FF05E1B114781F8A9668E5B2691C64B214
:1021D000FFB23755C9B21679117049B2CC1CA6426C
:1021E00001BF9C8824F480642404240C08BF9C80D4
:1021F00013798B4221D11C4B02351D701DE027063F
:102200001BD511784CB2661C0AD0156901312C5DC2
:10221000C9B21C821479117049B28C420DD106E00A
:10222000D17815701982517809B9117929B999882D
:1022300021F480610904090C9980137992F9004016
:1022400001339C4208490CD100238B708B7933B148
:1022500001688B8823F440731B041B0C8B800023C4
:102260001375F0BD0C220020540900202DE9F04F19
:1022700087B06C4C02916C4922888E690546C2EB8E
:1022800026135B435200C2EBE602B4F902601B1353
:102290005643B4F90420B4F90A0053439B1303EBEB
:1022A000E62606EB860380331B12B6F5FA384FEAB2
:1022B000E6770493CB6947F1FF39A8FB08AB03939A
:1022C00008FB09F3B4F908200BEB430BE389A66183
:1022D0000593D31708FB03F102FB0911A8FB0223A6
:1022E0000B44C1171F030AFB01F300FB0B33AAFBCE
:1022F00000011603194447EA1257020A42EA016232
:1023000092194FEA2123E6887B410032A2FB0601A5
:1023100043F5004306FB03114B100093CB170193C9
:10232000DDE900231343B4F810E0B4F80CC06DD01D
:102330000FFA8EF0C1170AFB01F1AAFB002300FB84
:102340000B11BDF914600B44F71708FB07F106FBEE
:102350000911A8FB06670F4479047004801841EA4C
:10236000D6315941039B0FFA8CF8C3F5801E724693
:10237000D317002212184FEACE764FEAC3774FEAFE
:10238000C8034B4147EA5E07B61A67EB030740F6FE
:102390003543A6FB030103FB0711DDE9002308F029
:1023A0007DF8B4F916204E1302FB06FE470B47EAF0
:1023B000C147D31707FB03EEA2FB07235643734421
:1023C00007FB0366A2FB07233344560E46EAC316F7
:1023D0008219B4F914604FEA636741EB0703714354
:1023E000F71700FB0717A6FB00013944C60C46EAA5
:1023F000413692194FEAE1474FEA1221B4F912200F
:102400007B4141EA036113010B4400E000230DB15D
:102410001B0A2B60029B13B11A46049B136007B082
:10242000BDE8F08F40190020540900207047704724
:102430006B4B6C4A2DE9F04F5E89146A4FEA062A0D
:10244000B4EB0A0A9C884FF000054FEA04481C8947
:102450004FF0000BA4FB0A6765EB0B0B04FB0B773B
:10246000F40944EA476418EB04065C884FF000095D
:102470004FEAE7154FEAC438DC8849EB050787B017
:10248000CDE90467A4FB0A6704FB0B77340A44EA2E
:10249000076418EB04064FEA27259C894FF00009D2
:1024A00049EB0507CDE90067AAFB046704FB0B773E
:1024B000F40D44EA472414F5FA664FEAE75545F16E
:1024C0000007B6F5FA6F77F10003CDE9026796468B
:1024D00066DADDE90489A4FB046704FB05F34FF029
:1024E000050C07EB4307A6FB0C230CFB07335F101F
:1024F0004FEA3206B8EB06084FEA920646EA8376C0
:1025000069EB07099F10DDE90023921B63EB0703CA
:10251000CDE90023DDE90267334A4FF0FF339642ED
:1025200077EB0303CDE9048927DA40F6AC520023A8
:10253000A4185D4104FB05F3A4FB04456FF00602FB
:1025400005EB4305664202FB0566A4FB0223334408
:1025500018EB020649EB0307CDE904670B26A4FB41
:10256000062306FB0533DDE900455B104FEA320226
:10257000A41A65EB0305CDE90045DDE902450AFB38
:102580000BF3AAFB0AAB0BEB430B4FEADA7242EAFE
:102590004B02A41A4FEAEB7365EB0305CDE9024544
:1025A000DEF82440009B019DA4FB032304FB0533BC
:1025B0004FEA525848EAC3284FEA6359DDE9042339
:1025C000B8EB020269EB03039946D30B43EA494394
:1025D00000B1036009B1029B0B6007B0BDE8F08F4A
:1025E000D41800205409002024FAFFFF2DE9F041FF
:1025F000324C334D62892B8DB4F904809A1A2389A9
:10260000B4F902E05A43B4F91230D613B4F91420E5
:10261000DB02324493FBF2F232440A26E261564373
:10262000A2F57A6202FB02F3B4F90EC002FB0EFEC1
:1026300002FB08F2B4F90C801B130CFB03FC03FB38
:1026400008F31B1403EB62320232E388921002F5A6
:10265000004253434CF25032B4F920704FEAEE2E50
:10266000B4F900400EEBEC2C0CEB8404BC40ED6A9A
:102670000234A5EBA4043A4162434FEAD3384EBF7B
:10268000B2FBF8F35400B4FBF8F340F6DE3448BF75
:102690005B001A12524362430A4C08365C4324140E
:1026A00004EB224202F6CF62361103EB221300B193
:1026B000036001B10E60BDE8F08100BFE8180020A2
:1026C0005409002043E3FFFF13B50C4B04465B683D
:1026D0001B20022101AA984770B19DF804209DF8A3
:1026E000053043EA022303F54E5310334FF48C7246
:1026F00093FBF2F32333238002B010BDC0180020F7
:1027000037B5104B04465D68187806216A46A8471D
:10271000A8B19DF800209DF80130012043EA022372
:1027200023809DF802209DF8033043EA0223638052
:102730009DF804209DF8053043EA0223A38003B0EE
:1027400030BD00BFC018002013B5104B04465B68B5
:102750003B2006216A469847A8B19DF800209DF8C5
:102760000130012043EA022323809DF802209DF8D6
:10277000033043EA022363809DF804209DF805306E
:1027800043EA0223A38002B010BD00BFC01800209E
:10279000B0F5807F0ED0BB280ED861280ED829282E
:1027A0000ED813280ED809280ED8002814BF0620EA
:1027B00000207047002070470120704702207047BA
:1027C00003207047042070470520704710B5224C45
:1027D0002368998A89B211F4706F1EBF1F4A0120C5
:1027E00082F8300011F4E06F2BD01A8B9A8889059B
:1027F00022F480624FEA02424FEA12429A8020D4C9
:102800001A8892051DD41A88D0050FD51A88D105CB
:10281000FCD41A8892B242F400721A801A88920587
:10282000FCD40F4B187804F03FFF0AE01A8892B2EC
:1028300042F400721A809A8822F440721204120C38
:102840009A802268938A23F470631B041B0C938282
:10285000024B00221A7510BD0C22002054090020E2
:1028600010220020054A08B5138801339BB213805B
:10287000034B187804F018FF002008BD48230020FF
:102880001022002008B54FF4804005F0B5FC012867
:1028900001BF044B4FF480425A61034B08BF83F8D9
:1028A000310008BD000401405409002010B5054C5A
:1028B0002368186905F0A0FC18B123681A69024B57
:1028C0005A6110BDCC18002000040140F8B50E4636
:1028D0001746084C4FF48055656140F0800000F0C9
:1028E0006DFC38460021324600F032FC25610120A3
:1028F000F8BD00BF000C014070B50E46054C4FF40A
:102900008055656100F05AFC304600F057FC2561A7
:10291000012070BD000C014070B5FFF739FF104C6D
:102920000546192005F0A3FEA3681520002198474D
:1029300010B9022005F0B6FE45F01801A368C9B22F
:1029400016209847A368002117209847A368012103
:102950003D209847A3683E200121BDE870401847FC
:10296000C0180020F0B5284D85B095F83230002B06
:1029700047D1264C2368002B43D01A68244E12B14D
:10298000B1690A43B2619A889868ADF800200222C2
:102990008DF80320694604228DF8022004F089FC9A
:1029A000B369002743F00103B36123680126187B54
:1029B000197D04F069FC2368164993F9150005F0A8
:1029C000BBFE2368144A1B695361029308230DEB75
:1029D00003008DF80D308DF80C708DF80E6005F049
:1029E000DBFB236801A85B7D8DF806708DF8043051
:1029F00003238DF805308DF8076000F08BFB85F818
:102A0000326005B0F0BD00BF54090020CC18002092
:102A100000100240AD2800080004014037B504460C
:102A2000FFF7A0FF254B1A68254B9A420ED14FF4B1
:102A30000053ADF8043002238DF8073004232148F9
:102A40000DEB03018DF8063004F033FC2046FFF750
:102A50009FFE05461C4C8021A3686B20984764208C
:102A600005F005FEA368072168209847642005F05B
:102A7000FEFDA36800216B209847642005F0F7FD58
:102A8000A36801216B209847A36818211B20984751
:102A9000A36810211C209847A36829461A2098474C
:102AA000A368002119209847A3681221372098476E
:102AB000A36801213820984703B030BD2C000020C6
:102AC000001BB70000100140C018002008B5FFF738
:102AD00049FF024B4FF480521A8008BD00000020CD
:102AE00070B50446FFF73EFF2046FFF751FE05464E
:102AF000144C8021A3686B209847642005F0B7FD33
:102B0000A368002119209847A36803216B209847E8
:102B10000F2005F0ACFDA36829461A209847A3684A
:102B200018211B209847A36810211C209847A368F0
:102B3000022137209847A36838200121BDE8704062
:102B4000184700BFC018002008B5FFF70BFF074B60
:102B50005B7813B1012B03D008BD4FF4006201E094
:102B60004FF48052024B1A8008BD00BFBC180020F1
:102B70000000002010B51E4C4000C0B2A3602361CD
:102B80001C4B6071E1700120002121736070227183
:102B90002075186884F8301040B383889B0515D4DD
:102BA0000388D9050DD447F230530288920502D527
:102BB000013BFAD112E08BB103889BB243F48073DE
:102BC000038083889BB243F44073838047F2305381
:102BD000227D12B1013BFBD100E013B9BDE81040EA
:102BE00040E6034B93F8300080F0010010BD00BFB9
:102BF000540900200C22002007B5F7216B4606225D
:102C00007620FFF7B7FF9DF800309DF801101B03F9
:102C100043EA01139DF80210094A43EA1113D361F4
:102C20009DF803309DF804101B0343EA01139DF83F
:102C3000051043EA1113936103B05DF804FB00BF74
:102C40005409002007B5002101AB03227720FFF7CC
:102C500091FF9DF805309DF804001B0243EA0043F4
:102C60009DF80600184303B05DF804FB08B5FFF7B4
:102C7000E9FF014B586208BD5409002008B5FFF771
:102C8000E1FF014B186208BD54090020104B13B539
:102C90001B78104C13B194F83130B3B1032201AB5F
:102CA0007720F621FFF766FF9DF805309DF8042098
:102CB0001B0243EA02439DF806201343064AB2F979
:102CC0002020C2F10802D340E36202B010BD00BF71
:102CD0001C00002054090020E81800200B4B13B5FD
:102CE0001B780B4C13B194F8313063B1022201AB65
:102CF0007720F621FFF73EFF9DF804209DF8053070
:102D000043EA0223238502B010BD00BF1C0000204F
:102D10005409002030B505460C4613462946224684
:102D2000BDE83040682025E713B50622044601219E
:102D30001C206B46FFF71EFF08B39DF801309DF87D
:102D40000020042143EA022242F38D0292FBF1F2B9
:102D50009DF8023022809DF8032042EA032242F3CC
:102D60008D0292FBF1F29DF8043062809DF80520FF
:102D700042EA032343F38D0393FBF1F3A38002B0F4
:102D800010BD13B506220446022118206B46FFF73A
:102D9000F1FEB8B19DF800309DF801209B0803EBCF
:102DA000022323809DF802309DF803209B0803EB4B
:102DB000022363809DF804309DF805209B0803EBF7
:102DC0000223A38002B010BD314B2DE9F3411B78E3
:102DD0000546002B3CD0002426462746A046013459
:102DE0005320322108226B46E4B2FFF7C3FE08B934
:102DF00000204AE09DF801209DF80030202C03EBD4
:102E000002231BB29DF8032098449DF8023003EB87
:102E100002231BB21F449DF805209DF8043003EBEC
:102E200002231BB21E449DF8073003F07F0301D03C
:102E3000002BD4D198FBF4F897FBF4F796FBF4F64B
:102E4000144BA5F800806F80AE8083F833401CE0FF
:102E50005320322106226B46FFF78CFE0028C7D094
:102E60009DF801209DF8003003EB02232B809DF894
:102E700003209DF8023003EB02236B809DF80520B0
:102E80009DF8043003EB0223AB8002B0BDE8F08173
:102E9000D21800205409002013B5204B400002AC8A
:102EA000C0B2587104F8012DD970012200211A73A3
:102EB00059701A711A751A4A1C6110689C6083F85F
:102EC000301040B38288920515D40288D4050DD401
:102ED00047F230520188890502D5013AFAD112E051
:102EE0008AB1028892B242F480720280828892B2E1
:102EF00042F44072828047F23052197D11B1013A9A
:102F0000FBD100E012B9FFF7ADFC04E0034B93F8EE
:102F1000300080F0010002B010BD00BF5409002055
:102F20000C2200207620F4213122B5E777204821B9
:102F30000122B1E7772058210122ADE7064B00219D
:102F400093F82020054B9201343283F8311077201A
:102F5000F42102F0FC029FE7E81800205409002049
:102F6000034B002283F831207720F4212E2293E7AF
:102F70005409002003460A46682019468CE713B519
:102F800000222A211C20FFF787FF0E2102221C208D
:102F9000FFF782FF0F2103221C20FFF77DFF2B216B
:102FA00012221C20FFF778FF164A02249369164864
:102FB00043F0040393612023ADF8043004230DEBA8
:102FC00003018DF806308DF8074004F072F92246AF
:102FD0002C211C20FFF760FF2D2101221C20FFF770
:102FE0005BFF2E2100221C20FFF756FF2A2105221D
:102FF0001C20FFF751FF054B4FF480721A8002B07E
:1030000010BD00BF00100240000801400000002079
:1030100008B50F2108221820FFF73EFF0E221820C6
:103020001021FFF739FF024B4FF480521A8008BD80
:103030000000002008B5134B53201B782D210822D7
:103040007BB1FFF729FF31210A225320FFF724FF2C
:103050002C210C225320FFF71FFF532038219022F0
:1030600009E0FFF719FF31210A225320FFF714FF6F
:1030700053202C210A22FFF70FFF40F20912024BC6
:103080001A8008BDD218002000000020FEF7C6BF3D
:10309000FFF79CBBFEF7C2BFFFF798BB10B5044615
:1030A0000E4B185C04F047FA0D4B33F91410B1F5D0
:1030B0007A7F05DBB1F5FA6FA8BF4FF4FA6101E042
:1030C0004FF47A71A1F57A710A2391FBF3F1BDE80F
:1030D00010400920C9B202F029BE00BFC1F20008A9
:1030E000500A00200EB403B503AB53F8042B074974
:1030F00068468DE80A00064903F02EFB009B00227B
:103100001A7002B05DF804EB03B07047740A002037
:10311000B96500080C4B0D49DA684378D243C2F315
:103120000222C2F10402934002781B01DBB20A447E
:1031300082F8003303780122580903F01F0302FAD2
:1031400003F341F82030704700ED00E000E100E0BB
:1031500070B5184B9B894FF47A7342B311B10C7858
:10316000013107E0FF2405E04FF6FF75013B9BB2FC
:10317000AB420FD00F4D2E89B607F5D5A4B2AC8166
:103180000C4C2589ED070BD44FF6FF74013B9BB225
:10319000A342F5D1084A538F01339BB2538706E00F
:1031A000A489A4B208B104700130013AD5E7012026
:1031B00070BD00BF00380040500A002040F2E933E3
:1031C0000F4A1189890704D4013B9BB2002BF7D128
:1031D0000BE040F2E93380B29081094A1189C907B6
:1031E0000AD4013B9BB2002BF7D1064AFF20538F34
:1031F00001339BB2538770479089C0B2704700BFBC
:1032000000380040500A002007B50B4A0B4893696C
:1032100001A943F0100393614FF40053ADF804305B
:1032200002238DF8073010238DF8063004F041F8A2
:1032300003B05DF804FB00BF001002400010014025
:10324000F7B5144CE76B94F840309BB10523124D51
:103250008DF800304FF4805600238DF8013001A81E
:103260006E6169460222FFF773FF2E619DF80530FB
:1032700003F0010303F0010284F8402033B1054B51
:10328000DB6BDB1B062BDED9002000E0012003B046
:10329000F0BD00BF500A0020000C01402DE9F341B1
:1032A000C82005F0E4F9AE2004F069F908B104F093
:1032B0006BF9A64C84F84100C82005F0D8F904F554
:1032C000E77300210C2204F64400636408F01DFD3E
:1032D000022384F8473805F0A3F9D4F85038C31A0C
:1032E000002BC0F2458300F5433303F5A073C4F807
:1032F0005038974B1E7894F85438C6F38006F31A6A
:1033000018BF012384F8546866B1002B00F03083A5
:1033100094F8453884F84638012384F8453884F811
:10332000443834E04BB194F8473843F0020384F852
:10333000473894F8463884F8453894F8472802F01E
:10334000020101F0FF0341B98049D1F84C18411A3C
:10335000002903DB02F0010300E0012303F0010573
:103360007A4984F8445893B1D50710D591F8482884
:1033700005230132D2B2B2FBF3F303EB8303D31A7A
:10338000744ADBB281F84838D35C81F8453894F848
:1033900044286E4B9AB393F8472822F0020283F830
:1033A00047286D4A0244AE20C3F84C2804F0E7F8E1
:1033B00008B104F0E9F884F84100002800F0D88250
:1033C000B02004F0DCF8402004F0D9F8002004F02C
:1033D000D6F8102004F0D3F84FF48065013D0020AA
:1033E000ADB204F0A3F8002DF8D1284604F03BF963
:1033F00094F84528594B53F8220004F0B7F894F894
:103400004130002B00F0B482504B93F84538062B26
:1034100000F28882DFE813F00700860218007D00C2
:103420004F016E01AE014E494E4A4F4B4F48FFF7D8
:1034300059FE012004F017F94C4804F097F80220D7
:1034400004F011F94A4892E1D4F858383F4D9A07F0
:103450002AD5484F00223B784749009305F12400C4
:103460001346FFF73FFE02F09DFC012004F0FBF83D
:1034700005F1240004F07AF8D5F85C083A7805796B
:103480006FF0630102FB05F34B43C17802204D1B33
:103490005543B3FBF5F5EDB204F0E5F829461520E8
:1034A00002F044FC032500E00125D4F85838274FEA
:1034B0001B0540F137820022134600922F4907F185
:1034C0002400FFF70FFE02F06DFC284604F0CBF855
:1034D00007F1240004F04AF8D7F85C38988906F020
:1034E0007DFD0746681C04F0BEF83846244906F006
:1034F000C9FD394606F07AFE06F08AFF01466428C7
:10350000A8BF642121EAE1711520C9B202F00EFCC6
:1035100008E2012004F0A7F81A4804F027F8D4F8CC
:1035200060389D0734D50023009301931649174A4C
:103530000E48FFF7D7FD02F035FC022004F093F8A7
:103540000A4804F013F8032523E000BF500A0020C6
:10355000C4260020BCF20008404B4C004CE500089B
:10356000D6F20008DFF20008E5F20008740A002035
:10357000EDF2000838000020F2F200080AF300081B
:103580000000C8421FF3000835F3000844F30008A8
:103590000225D4F86038D80712D500230093019390
:1035A000CA49CB4ACB48FFF79DFD6F1C02F0FAFBDE
:1035B000284604F058F8FFB2C64803F0D7FF3D464E
:1035C000D4F86038C44F19071BD5B7F96628B7F986
:1035D00064380092B7F96828BC49019207F12400C9
:1035E000BE4AFFF77FFD05F1010802F0DBFB28462C
:1035F00004F039F85FFA88F807F1240003F0B6FF09
:103600004546002300930193B54AB049B148FFF7FE
:1036100069FD02F0C7FB284604F025F8AD4803F029
:10362000A5FFAC49002003F02DF8AA4808F0B1FB33
:103630006F1CFFB2C1B209290BD84B1CDBB221446D
:10364000202281F824200021E21882F82510194652
:10365000F1E7DFF880820020414403F013F802F024
:10366000A1FB384603F0FFFF404603F07FFF4146D1
:10367000002003F007F8404608F08BFB0235EDB25E
:10368000C7B2092F0BD87B1CDBB22744202287F856
:1036900024200021E21882F825101F46F1E7B4F932
:1036A0006A0806F09BFC08EB070102F0EBFF02F052
:1036B00079FB284658E0002594F86C38AB4240F27C
:1036C00031810E2D00F02E816808013003F0CBFF10
:1036D0002846FFF7E3FC804B93F86C38AB4206D9E1
:1036E000202003F028FF681CC0B2FFF7D7FC02358A
:1036F000EDB2E1E77B4994F8FC277648FFF7F2FC4E
:10370000012003F0B0FF734803F030FF94F86E58C7
:1037100075492A466F48FFF7E5FC022003F0A3FF36
:103720006C4803F023FF0C2303FB05456F4995F814
:10373000FF2795F8FE376748FFF7D4FC02F032FB0D
:10374000032003F090FF634803F010FF95F804187E
:1037500095F8022895F803385E4800916449FFF710
:10376000C1FC02F01FFB042003F07DFF594803F069
:10377000FDFED7E0D4F85828574B120640F1CC8014
:10378000D3F870284AB10022C3F8702893F874283F
:10379000013202F0030283F874280121002003F0B3
:1037A0006EFF94F87438534A1025D05C03F0C3FEC2
:1037B0000220012103F063FFA02003F0BCFE013DC5
:1037C000FAD194F875384C4913F0020F14BF5923FD
:1037D0004E232A463F48FFF785FC02F0E3FA022019
:1037E00003F041FF3B4803F0C1FE2B4643492A4604
:1037F0003848FFF777FC02F0D5FA032003F033FFD7
:10380000344803F0B3FE3E492A463248FFF76AFCCB
:1038100002F0B5FA042003F026FF2E4803F0A6FEBE
:103820002A4638492B48FFF75DFC02F0A8FA04212C
:103830000A2003F024FF274803F098FE32492A4665
:103840002448FFF74FFC02F09AFA052003F00BFF23
:10385000204803F08BFED4F87C28D4F880382B491C
:103860001C48FFF73FFC02F08AFA05210A2003F00A
:1038700006FF184803F07AFED4F88838D4F8842874
:103880002349D21A1348FFF72DFC02F078FA0620DC
:1038900003F0E9FE0F4803F069FED4F880281D49C3
:1038A0000C48FFF71FFC02F06AFA06210A2003F019
:1038B000E6FE084803F05AFE0648152200F6740199
:1038C00008F092FA02F05BFA07204DE735F30008A2
:1038D00048F30008740A0020500A002051F700083D
:1038E0004CF3000850F300085CF300086DF3000887
:1038F0007EF3000890F3000895F30008A6F3000893
:10390000B3F30008BBF30008C2F30008C9F30008D2
:10391000D2F30008D9F3000893F8472842F00202D6
:1039200083F8472826BB94F8D0380021052B97BF91
:10393000144A3F259B181D7F122003F0A0FE284645
:1039400003F0F9FD0021132003F099FE212003F07C
:10395000F2FD1420002103F092FE94F8D4580A4B93
:10396000585D013505F0030503F0E5FD84F8D458F2
:1039700004F056FE054B0344C4F84C3802B0BDE8D1
:10398000F08100BF4CE5000890F30008404B4C006C
:10399000F8B5614B054693F83C380C46012B15D120
:1039A000114606F023FC4FF07E5106F061FA054601
:1039B000014606F067FB294606F064FB294606F03F
:1039C00061FB04F100444FF07E5199E0022B5DD180
:1039D00010464FF07C5106F055FB0146284606F094
:1039E00005FC4FF07E51054606F0EAFCF8B1294689
:1039F000284606F047FB01464FF07E5006F038FAA5
:103A000005F034FF08F022FD06460F4604F10040A1
:103A10004FF07C5106F036FB05F028FF00220446EB
:103A20000D46304639463D4B05F0C0FD21E02846A5
:103A30004FF0804106F01CFA014606F023FB0146D8
:103A40004FF07E5006F014FA05F010FF08F0FEFC6F
:103A500006460F4620464FF07C5106F013FB05F05A
:103A600005FF002204460D46304639462B4B05F033
:103A70009FFD02460B462046294605F04BFF0022DB
:103A8000002305F095FD06F09FF9F8BD032B41D109
:103A900010464FF07C5106F0F5FA0146284606F034
:103AA000A5FB4FF07E51054606F08AFC78B14FF039
:103AB0007C51204606F0E6FA294606F0E3FA29464C
:103AC00006F0E0FA294606F0DDFA29461CE0284611
:103AD0004FF0804106F0CCF94FF07C51054604F1DF
:103AE000004006F0CFFA29460446284606F0CAFAF6
:103AF000294606F0C7FA294606F0C4FA4FF080417D
:103B000006F0B6F90146204606F0BCFA002106F0A0
:103B1000B1F9F8BDF8BD00BF500A00200000F03F29
:103B200008B52A221048002108F0EFF80F4B0022B8
:103B30000F490520515C013283F8F21183F8F70137
:103B400006210020052A83F8F61183F8F90183F88D
:103B5000F81103F10803EBD1064B0122A3F83C2234
:103B6000522283F8382208BD880C0020980A0020D1
:103B7000B7F20008500A002007B51C4B03F66C0290
:103B8000C3F8D82893F8D6215AB1012A14D10321B9
:103B900083F8DC18072183F8DE2883F8DD180C226F
:103BA00008E0022183F8DC18032183F8DE2883F87B
:103BB000DD18072283F86C280D4A0E4B40201A604E
:103BC00004F00CFD70B10122002390F900004021A7
:103BD0008DE80C00084A4FF4E13304F089FC003012
:103BE00018BF012003B05DF804FB00BF500A00209D
:103BF0009579000818000020E57A0008426A806A7A
:103C0000131A5842584170474171704743799B07D6
:103C10000AD5436A8269D154436A01690133B3FB0F
:103C2000F1F201FB123343627047427902F0020263
:103C300002F0FF0342B10369426A806A013BDBB2D2
:103C4000101A23EA0000704718467047437913F0B2
:103C500001031FBFC36803F1FF32C369006A1DBFC0
:103C6000181A1040C0B218467047437910B513F0C7
:103C7000010304460DD0FFF7E9FF58B1236A6269DA
:103C8000E168D05C0133B3FBF1F201FB1233236234
:103C900010BD184610BD90F83B3210B57BB990F8B6
:103CA0003A3290F83942A34209D2B0F840120122C8
:103CB0009A400A430133A0F84022DBB2F3E710BD7B
:103CC0008379DB0748BFB1FA81F1D0F8343148BFBE
:103CD00049095A681B8909B11361704753617047DC
:103CE00010F80A3C0133DBB20A2B84BF10F8131C16
:103CF000044A00F80A3C82BF002322F8113000F881
:103D00000A3C704798220020334A70B5136C9068C3
:103D1000194440F68C23081A98429160D060516093
:103D200013463BD9127893F9451010468A420BD1BD
:103D3000111F082908D893F84610182901D8013115
:103D400003E083F8442002E0002183F8461093F951
:103D500044402149A24219D191F84740B4B10C31F5
:103D60000024944206DA51F8046F1C4D25F81460C3
:103D70000134F6E70C2805D01849002421F810403A
:103D80000130F7E7164801780131017083F84520CA
:103D9000002201211A7083F8471070BD92F8471075
:103DA000C9B140F2DA51A0F2EF248C4208D8117860
:103DB0000B2905D80B1D0131117042F8230070BD8D
:103DC000002283F84720074B03F13002002143F81B
:103DD000041F9342FAD170BDA80100209822002050
:103DE00038130020B4010020024A136C0133194437
:103DF00011647047A8010020024B53F820301B6863
:103E000019807047B8230020074BA1F57A7153F849
:103E100020301A681B8959434FF47A7391FBF3F1F0
:103E200089B21180704700BFB82300201FB501235D
:103E3000ADF80830ADF80410002301A9ADF80A3040
:103E4000ADF80C30ADF8062004F093F805B05DF83D
:103E500004FB38B5A0F513746379A579DB0745D564
:103E600094F8383205F00105F3B1226B1068838DA8
:103E7000C3F34E03838494F83C3223B1B4F8423246
:103E80000133A4F84232917A6A00FFF7CFFF012391
:103E900084F83B32002384F8393284F83A3284F8CB
:103EA0003832A4F8403238BD94F83B322046012B1A
:103EB00004BF94F8393284F83A32FFF7ECFE94F8F4
:103EC0003B22236B3AB9012284F83B221868997A85
:103ED00005FA02F207E0002284F83B2295421868B6
:103EE000997A08BF0222BDE838409FE738BD10B577
:103EF000A0F5127494F83C22BAB9A36A616A994297
:103F000028D0591CA069A162C35C2069DBB25B00A8
:103F100043F400738142A4F83E324FF00A0384F860
:103F20003D3228BFA262012312E094F93D327BB1F9
:103F3000B4F83E1220464B08A4F83E3201F00101CD
:103F4000FFF7BEFE94F83D32013B84F83D3201E0BC
:103F500084F83C3294F83832002B4ED194F8393240
:103F60000133DBB2092B84F8393203D12046BDE896
:103F7000104090E60A2B40D194F83B322BB9B4F8AC
:103F8000403243F00103A4F840326379D9071CD5CD
:103F9000B4F84002820501D4C30705D4B4F8443212
:103FA0000133A4F8443210E0E36AC0F347000BB1D8
:103FB00098470AE0E3696269D054E369E168013334
:103FC000B3FBF1F201FB1233E361012284F83822E2
:103FD00094F83B220023012A84F839320DD1A279CA
:103FE00084F83B32236B12F0010F1868997A0CBFEA
:103FF00002220022BDE8104018E710BDF0B5046DA4
:104000008279A389467923F4005312F0020F4FEA14
:1040100003434FEA13430CBF00214FF4005112F049
:10402000040FA38114BF4FF4806E4FF0000E16F002
:10403000010F8768054614BF04200020B307238AB8
:1040400048BF40F008029BB223F4405343EA010307
:104050002382A18948BF90B289B221F4B05121F0E6
:104060000C014EEA010140EA0102A281A38A87B055
:1040700023F440731B041B0CA38201A803F018FF58
:10408000039B049E254A944218BF1E46A389192209
:1040900072431BB2002BB4BF7E00BE00B2FBF6F62B
:1040A0006427B6FBF7F00001010907FB1163A28941
:1040B00012B2002AB7BFD9001A013231B1FBF7F2B0
:1040C000A7BF3232B2FBF7F302F007021043A8BFDA
:1040D00003F00F03AA79A8BF184380B212F0010FB2
:1040E00020812B6D06D00E498B4202BF042001F5C2
:1040F0004841086112F0080F9A8A0BBF22F00802AB
:1041000092B2120442F0080208BF120C9A829A89F5
:1041100092B242F400529A8107B0F0BD00380140DB
:10412000004400402DE9F04F1E464FF41473434302
:10413000544D85B02C1D80469146E718A24610B913
:104140002B44514A03E0012805D1504A2B445A63BD
:104150001032C3F838214FF4147303FB08F34C48B2
:10416000EC180AEB030203F59C733432534460608D
:104170002163A261E36100224FF480714FF0010BD3
:10418000D4F8383103202161626222626161E26207
:10419000A26284F8402284F83CB284F83D22A4F85C
:1041A0004622A4F84822C4F80C906072A67284F8E3
:1041B0004A8258681B8904F59A724FF0020CADF8D8
:1041C0000C3003A9102301928DF80E308DF80FC02A
:1041D000CDF800C003F06DF8636BDDF800C0597BCB
:1041E00058681B898DF80E1003A9ADF80C308DF8B6
:1041F0000FC003F05EF859463846FFF761FD3220E4
:1042000004F035FA234B019A1B68D2F804B01A4621
:10421000B2FBF9F1B1F5803F03D3012AF8D9520876
:10422000F6E71D4A4FF41474B3FBF2F204FB08F8EE
:10423000584689B2D2B201F03DF805EB0809174B98
:1042400008F512780AEB08040022C9F84C325846E7
:10425000214601F077F8D9F8345016F0010F0CBF61
:10426000022200222868A97AFFF7E0FD0C4B2846BD
:10427000C9F85032211D002201F064F8384605B01B
:10428000BDE8F08F38130020ACEF0008CCEF000839
:1042900090E500084400002040420F00EF3E000877
:1042A000533E000803460A4690F84602D96A9B79B5
:1042B00038E71FB50123ADF808300023ADF80C3006
:1042C000ADF80A30084BADF804101B7801A9012B9A
:1042D00008BF0323ADF8062008BFADF80C3003F08B
:1042E00048FE05B05DF804FBA401002038B510F8C5
:1042F0000E2C044650F8043C52B9012200F80E2C52
:1043000020F80C1C997A18680222BDE83840D0E7E2
:1043100030F80C2C20F80A1C891A89B220F8081CE5
:10432000074A10F80F0C002522F8101004F80E5C54
:104330001868997A2A46FFF7BCFF04F8065C38BD76
:1043400098220020044B53F820301BB107289CBF53
:104350001B681980704700BFD00200202DE9F74389
:104360008E460546DFF8A092114699F8A4440068ED
:10437000164698467246631C89F8A43400F046FF3E
:104380002B8901A9ADF8043018238DF80630686830
:1043900002238DF8073002F08CFFAB7A09F59567A0
:1043A000240127442A6849460C2B00F2F680DFE8F6
:1043B00013F00D00F400F400F4005100F400F400D8
:1043C000F4008A00F400F400F400C200138CDFF85B
:1043D0003CC223F001031B041B0C1384138CB2F8A2
:1043E00004E0108B624520F073004FEA00404FEA72
:1043F00010409BB21FFA8EFE40F0700014D00CF5F6
:10440000006C624510D00CF5406C62450CD00CF588
:10441000806C624508D00CF5806C624504D023F0B6
:10442000020343F0030307E023F00E032EF4407E63
:1044300043F003034EF4807EA2F804E01083A2F858
:1044400034801384138B23F008031B041B0C43F0EC
:10445000080336E0138CDFF8B4C123F010031B040B
:104460001B0C1384138CB2F804E0108B624520F40B
:10447000E6404FEA00404FEA10409BB21FFA8EFE22
:1044800040F4E04008D00CF5006C624504D023F005
:10449000200343F0300307E023F0E0032EF4406EE6
:1044A00043F030034EF4806EA2F804E01083A2F8CB
:1044B00038801384138B23F400631B041B0C43F418
:1044C0000063138369E0138CDFF840C123F4807329
:1044D0001B041B0C1384138CB2F804E0908B624510
:1044E00020F073004FEA00404FEA10409BB21FFAE1
:1044F0008EFE40F0700008D00CF5006C624504D0D0
:1045000023F4007343F4407307E023F460632EF454
:10451000405E43F440734EF4805EA2F804E0908362
:10452000A2F83C801384938B23F008031B041B0C1C
:1045300043F0080330E0138CDFF8D0C023F480533D
:104540001B041B0C1384108CB2F804E0938B20F432
:10455000005023F4E6431B0400041B0C000C6245CE
:104560001FFA8EFE43F4E04340F4405003D00CF5B4
:10457000006C624503D12EF4804E4EF4804EA2F8BA
:1045800004E09383A2F840801084938B23F40063AB
:104590001B041B0C43F4006393832B7B43B1B2F8E1
:1045A00044306FEA43436FEA53439BB2A2F844306E
:1045B00013889BB243F001031380AB7A0C2B19D8FC
:1045C000DFE803F0071818180B1818180F18181838
:1045D00013000B1902F134000AE00B1902F1380044
:1045E00006E00B1902F13C0002E00B1902F1400059
:1045F000C3F8A80438460C44A4F8B064C4F8AC244A
:1046000003B0BDE8F08300BF38130020002C014048
:1046100002F022BD02F020BD02F01EBD2DE9F04FD8
:104620008FB0019283460C220E46A54800211D46FC
:10463000BDF960A007F069FB00211022A14807F036
:1046400064FBA14AA14B92F80090904603F1180236
:10465000B9F1010F94BF99469146994C002739460C
:104660000C222777677704F1200007F04EFB232008
:10467000C4F82C9003F0FBFF752001210DF1170207
:10468000FEF748FBA0B1924B38466362914B012183
:10469000A36206AA432384F82030FEF73BFB9DF873
:1046A000183003F07E038DF81830002843D14AE01B
:1046B00094F8303063BB884A884F93694FF480592F
:1046C00043F00803936110238DF82230384603230A
:1046D00008A98DF82330ADF8209002F0EAFD804A59
:1046E000C7F81090138823F040031B041B0C1380A1
:1046F000138823F038031B041B0C43F008031380BA
:1047000013889BB243F040031380012384F83030B8
:104710007520012108AAFEF7D9F89DF82030702BEA
:1047200051D105232377432384F820306D4B6362F6
:104730006D4BA36247E0682B05D1012323771D232E
:1047400084F820303FE09DF8173003F07E03682B9B
:104750008DF8173033D10223062023770146636A90
:1047600008AA98479DF8251001F001029DF8231032
:1047700001F001014B0043EA82019DF8212002F083
:1047800001030B4309D05BB2012B01D1002302E0EE
:10479000022B0DD10123637715E0494B0C205B6A96
:1047A000012107AA98479DF81C3013F00F0303D18D
:1047B000032003F077FF06E0042BEBD1E6E7702B34
:1047C00004BF04232377227F0020022A3C4B84F875
:1047D000310009D14549D960454919614549996177
:1047E000012183F831101BE0012A0BD1424983F8E3
:1047F0003120D9603E4904221961404959613D493F
:1048000099610DE0043A012A00F238833C4ADA60EB
:10481000374A1A61374A9A61012283F83120072208
:10482000384B394999460A701A68029142F00102E0
:104830001A60364F00233B70082E00F2B280DFE88A
:1048400006F00BB00B2C6F8D2CA2A200012E40F2B3
:10485000B4802E4B00261E7098F80030012B1CD817
:104860004FF0000C0EAB03F818CD53206146012227
:10487000CDF80CC0FEF77EF978B19DF82030DDF858
:104880000CC0E52B09D1224B84F832C02360214BA8
:10489000636004233B70022387E0227F084B022AD7
:1048A0003ED11D4A1A601D4A5A605B7F002B0CBF27
:1048B0006F236E23237201233B70032375E000BF37
:1048C000A0180020AC180020C6260020ACE5000887
:1048D000152D0008752F000800100240000C014043
:1048E00000380040CD280008F9280008E12A000817
:1048F0000127000890C1793D19290008C926000840
:104900001D2A0008B012002039000020C526002012
:1049100035300008C92D0008492B00084927000838
:1049200098F80030012B19D800220EAB03F8182D8F
:104930001C200D210122FEF71DF978B19DF82030D1
:104940002A2B01D01A2B09D1C54A84F833302260B2
:10495000C44A02233B706260042326E000210EABB0
:1049600003F8181D18200122FEF704F958B19DF82C
:104970002030FB2B07D1BC4B2360BC4B6360012371
:104980003B70052311E0237FB94A043B012B3FF61E
:104990005DAFB84B1360B84B536001233B700823E5
:1049A00003E0012E09D9002643E7029A5370D9F893
:1049B000003043F00203C9F8003098F80030012BB2
:1049C00005D1FEF721FCAD4B4FF400525A61042D86
:1049D00000F2B981DFE815F00500C00164000500B0
:1049E00082010A2003F043FE7720A021012207ABB9
:1049F000FEF7C0F8002853D01E2101227720FEF7D1
:104A00004BFA4FF42F6003F027FE0026A6F1600159
:104A10000025C9B2022208AB77208DF820508DF80E
:104A20002150FEF7A7F89DF821309DF8202043EA99
:104A300002228F4B03F1340172520236102EE5D15F
:104A4000B3F842102A4601F00F0601F47F41A3F8A3
:104A500042102B46012722F001002044808E0028BE
:104A600018BF0027D50703D5C0B24340082002E095
:104A700083EA1023FAE71D0448BF83F4C0530138CA
:104A80004FEA4303F7D10132102AE4D13143784A87
:104A9000A4F8421027B9C3F303339E4200F0CD813E
:104AA00094F84450002D40F0E181744EFEF7ACFBC9
:104AB00028244FF48047304607A9ADF81C708DF8C4
:104AC0001E4002F0F6FB4FF40053336120466C4960
:104AD00003F032FE0E21022002F0D6FB08230897D5
:104AE00008A801278DF825308DF824508DF8267000
:104AF0004FF0030903F050FB06A88DF818408DF81D
:104B000019908DF81A508DF81B70FEF703FB1420D6
:104B100003F0ADFDD02177203A4607ABFEF72AF827
:104B2000534C3146002800F0B9809DF81C30A4F8A1
:104B30006890552B84F85F3040F0B080D1213A4620
:104B400007AB7720FEF716F89DF81C30772003F0AE
:104B50000F021B0984F8602084F86130162208AB2C
:104B6000AA21FEF707F89DF820209DF8213043EA9E
:104B70000223A4F848309DF822209DF8233043EA10
:104B80000223A4F84A309DF824209DF8253043EAFA
:104B90000223A4F84C309DF826209DF8273043EAE4
:104BA0000223A4F84E309DF828209DF8293043EACE
:104BB0000223A4F850309DF82A209DF82B3043EAB8
:104BC0000223A4F852309DF82C209DF82D3043EAA2
:104BD0000223A4F854309DF82E209DF82F3043EA8C
:104BE0000223A4F856309DF830209DF8313043EA76
:104BF0000223A4F858309DF832209DF8333043EA60
:104C00000223A4F85A309DF834209DF8353043EA49
:104C10000223A4F85C3041F27073A4F86C3046F6BD
:104C20007813A4F86E30174B2367174B6367174B45
:104C3000A367174BE367174BC4F8803094F84430F0
:104C400043B9FEF78DF942F6E06003F005FDB56863
:104C5000C5F38035104B1D70012384F8443005E105
:104C60007F2F0008292D000811300008832D00082F
:104C7000A0180020CD2A0008492700080010014094
:104C800085280008612F0008DD2C00083D2F000852
:104C90008D2C0008ED2500081C000020794A1368BF
:104CA00023F48043136000237748DA0000F1840482
:104CB000A5186E68754DAE420AD114F93340282C00
:104CC00006D183180022C3F8882083F8842002E0EC
:104CD0000133032BE8D14FF400534B616A4C94F835
:104CE0009C50002D40F0BC80142003F0C0FC04F167
:104CF0009D037620D0210122FDF73CFF94F89D30E2
:104D0000582B29D104F1A003882118227620FDF721
:104D100031FF7620F4213122FEF7BEF8012384F81A
:104D20009C305B4BA4F86C5063675A4B236745F685
:104D3000D813A4F86E30584BA367584BE367584B11
:104D4000C4F880308CE0012D06D0564B564A9D7039
:104D5000136843F004031360534D4B4C2B6813F05E
:104D6000020F01D023689847E368584698474F4B95
:104D700098F8009003F11802B9F1010F94BF994619
:104D80009146019F4A4E002333700FB1022F69D123
:104D90004FF000080EAB03F8188D1E200A210122E7
:104DA000DFF8E4B0C4F8BC90FDF7E4FE98B19DF8DC
:104DB0002030482B5CD13F4B0222CBF8C0303E4B19
:104DC000CBF8C43003233370364BDA702B6843F0D2
:104DD00008032B6001E080464AE0384B93F85421E9
:104DE0000AB184F8312093F855210AB134490A7088
:104DF00093F8563103B133702B681B0718D564261E
:104E00009AFBF6F5284605F0E9F8074606FB15A0DB
:104E100000B205F0E3F82B4905F034F901463846B5
:104E200005F028F8284905F02DF9C4F8C80002E07B
:104E30000023C4F8C830012020E042F21073A2F829
:104E40006C30A2F86E30214B03251367204B53675B
:104E5000204B9367204BD367204BC2F8803074E718
:104E6000042572E7012FB8D91F468BE702256CE7AE
:104E7000012FB2D9002786F8008089E70FB0BDE87E
:104E8000F08F00BF00040140A01800208528000812
:104E90002D2400082F240008252F0008F92B0008D6
:104EA0006D22000839000020B0120020DCE5000867
:104EB000C726002017730008C16F0008980A002059
:104EC000C52600208988883C00002041352F000835
:104ED0007D2C00082D2F00086D2C000831240008BF
:104EE0000023036043608360C360036143618361A7
:104EF000C36103624362836270478A6810B50C6ABB
:104F0000036814430A6923F4FF4314434A6923F0F6
:104F1000700314438A691443CA6914434A6A1443E8
:104F20008A6A224313430360CB6843600B68836043
:104F30004B68C36010BD4FF6FE73026813400360F8
:104F40000023036043608360C360294B984201D112
:104F5000284A27E0284B984201D1264A2AE0274BCD
:104F6000984201D1234A2DE0254B984201D1214A94
:104F700030E0244B984201D11E4A33E0224B984244
:104F800004D11C4A536843F470032EE01F4B98422F
:104F900004D1184A536843F0706326E01C4B9842D2
:104FA00004D11C4A536843F00F031EE01A4B984289
:104FB00004D1184A536843F0F00316E0174B9842A7
:104FC00004D1144A536843F470630EE0144B9842C2
:104FD00004D1104A536843F4704306E0114B9842E1
:104FE00004D10C4A536843F470235360704700BFE8
:104FF00008000240000002401C0002403000024055
:1050000044000240580002406C0002408000024010
:1050100008040240000402401C0402403004024024
:105020004404024058040240026D70B515880446DD
:10503000ADB2A90613D5036B8BB9C36A1BB19088B7
:1050400080B298470BE0E169928840694E1CD2B269
:10505000E6614254E169E268914228BFE3612B06B0
:1050600013D5636AA26A9A42236D0AD0511CA069C3
:10507000A162825C9A802369994206D30023A362CD
:1050800070BDDA6822F08002DA6070BD026B034600
:10509000C16810B5406942B11A6C8C1A013A08BF58
:1050A0000A46005D1A64C0B210BD1A6A805C013203
:1050B0008A4228BF0022C0B21A6210BD436B13B1EE
:1050C00090F844007047836A406A1B1A584258415E
:1050D0007047426A816A03698A4238BFD218521AFD
:1050E000416B21B149680A44591E8A4203D2013BEF
:1050F000981AC0B2704700207047036B13B15B6809
:10510000016C01E0C369016A8B423CBFC2689B1815
:10511000581AC0B27047836A8169426B1944D160E2
:10512000416A994297BF0169CB1ACB1A536096BF67
:105130000023536083624FF0000380F8443013680B
:1051400088BF816243F0010313607047436A82693C
:10515000D154436A02690133934228BF002343625A
:10516000436B1BB11B68DB0705D4D4E7026DD36822
:1051700043F08003D36070474171FEF73FBF816009
:10518000FEF73CBF2DE9F04105460E46078A8389AC
:105190009BB21F40002F37D0B7FA87F24FF0004381
:1051A000D340DB4399B21F40A2F11B032982042B99
:1051B000F0D8DFE803F0221F1C190300746A24B141
:1051C000013C0023A4B2736201E0AC8DA4B2D6F816
:1051D0002080B8F1000FDDD0D8F8003040462146DD
:1051E0009847D8F80480F4E73068A98E08E0706822
:1051F000298F05E0B068A98F02E0F068B5F840108B
:10520000036889B29847C5E7BDE8F081254B10B522
:105210005A43254B254C1B680139B3FBF2F2038836
:10522000013AA04289B292B29BB212D004F5006456
:10523000A0420ED0B0F1804F0BD0A4F59834A0421C
:1052400007D004F58064A04203D004F58064A04236
:1052500002D123F070039BB2154CA04206D004F596
:105260008064A0421CBF23F440739BB203800F4BA9
:105270008185984202850FD003F5006398420BD0D8
:1052800003F54063984207D003F58063984203D04A
:1052900003F58063984201D10023038601238382B2
:1052A00010BD00BF40420F0044000020002C014010
:1052B0000010004073B505460068FFF7A7FF2A6895
:1052C0000124138800269BB243F001031380EB7A7C
:1052D00001A88DF804308DF805408DF806608DF832
:1052E0000740FDF717FFEB7A1B2B0BD1192301A801
:1052F0008DF804308DF805408DF806608DF8074074
:10530000FDF708FF02B070BD0C4B800A98420CD02C
:1053100004D8B0F5801F0CD101207047084B98428B
:1053200005D04933984206D003E00220704703209D
:105330007047FE2070470020704700BF010010003A
:10534000020010002DE9F84304680746204688460D
:105350009146FFF7D9FF03284BD8BA7A9108B8F1E4
:10536000000F06D1A589AEB202258D4026EA0505BB
:10537000A5810A2303FB00131F4A42F8238004334C
:1053800042F82390B8F1000F07D0BD7AA189AD088B
:105390000223AB400B439BB2A3812823434303F179
:1053A00020011144EFF31286502585F3128803F192
:1053B0000C051C331544134455F8047F17B10F60D6
:1053C000296804319D42F7D100230B60F3B283F3C7
:1053D0001188282303FB0020036A23B1A3899BB211
:1053E00043F0010304E0A38923F001031B041B0C19
:1053F000A381BDE8F88300BF2C250020004813E6F8
:105400006C19002000480FE6C019002000480BE688
:10541000141A00200B4B4FF400525A604FF6FE73E3
:105420000948D0F8DC2011680B401360D0F8CC207C
:10543000D0F8D0309A4201D0A8306CE6012380F831
:10544000EC307047000002406C1900202DE9F04359
:105450001D46A84B8DB09842884617469DF850606F
:105460005CD1A54BA54AA649C3F8A82003F1FC02CC
:10547000C3F8BC2003F5FE72C3F8C0204FF480725D
:10548000C3F8B420C3F8B8209E4AC3F8B070C3F87C
:10549000D820A2F54842543AC3F8F420C3F8F020CB
:1054A000C3F8F800C3F8DC10974B9A6942F48042C5
:1054B0009A615A6942F001025A6102238DF8033061
:1054C0004FF40073ADF80030330701D51C230FE013
:1054D000AC0706D518238D4869468DF8023001F0D7
:1054E000E8FEE8070AD54FF48063ADF800304823A2
:1054F000864869468DF8023001F0DBFE0E238DF8F8
:1055000004300022012301A88DF805308DF8062013
:105510008DF807307E4CFDF7FDFDA1E07D4B9842F4
:105520004ED1754B754ADF655A654FF480721A6625
:105530005A6603F53F729A6603F57F72DA66764A19
:10554000C3F8A400C3F89C20C3F8A0206E4B310719
:10555000DA6942F40032DA615A6942F001025A61B2
:105560004FF002038DF803304FF00403ADF8003024
:1055700001D51C230EE0AA0706D518236348694607
:105580008DF8023001F095FEEB0709D50823ADF840
:10559000003048235D4869468DF8023001F089FEED
:1055A00026238DF804300022012301A88DF8053050
:1055B0008DF806208DF80730584CFDF7ABFD4FE015
:1055C000574B984240F0F5804B4B4C4A9F601A6015
:1055D00003F2FC425A6103F2FC529A614FF480726A
:1055E000DA601A614F4A18659A64DA64464B3407E8
:1055F000DA6942F48022DA619A6942F008029A611B
:105600004FF002038DF803304FF48063ADF80030A3
:1056100001D51C230FE0A80706D518234248694688
:105620008DF8023001F045FEE9070AD54FF400631A
:10563000ADF8003048233C4869468DF8023001F04F
:1056400038FE27238DF804300022012301A88DF8AD
:1056500005308DF806208DF80730FDF75BFD264CF0
:105660004FF00009012384F84430C4F82090C4F8B6
:105670001C90C4F82890C4F82490C4F82C8065715C
:10568000A760A6712046FEF7B9FCEA0756D5236B42
:10569000002B4BD001A8FFF723FCE36C206B019398
:1056A0004FF480530A9380230693E368CDF82C903F
:1056B0000493202309936369CDF814900293CDF8E5
:1056C0001C90CDF82090CDF80C90FFF734FC01A988
:1056D000206BFFF712FC226B216D136843F001036E
:1056E00013608B8A9BB243F040038B8253689BB25A
:1056F000236423E0003801406C1900200CE6000808
:1057000044000240580002400010024000080140DE
:10571000141A00200044004004440040C019002036
:105720000048004004480040000C01404FF6DF7282
:10573000236D1A80DA6842F02002DA60AB0730D5B8
:10574000636B002B28D001A8FFF7CAFBA36C0025D0
:1057500001934FF480530A93802306932369606B6F
:105760000493102303930B950595079508950995C8
:10577000FFF7E1FB606B01A9FFF7BFFB636B1A68E2
:1057800042F002021A60226D5D605D60938A9BB2F6
:1057900043F08003938204E0226DD36843F08003DA
:1057A000D360226D204693899BB243F400539381CA
:1057B00000E000200DB0BDE8F08300BF421E0020D5
:1057C00012F8013FA3F13001092904D80A2101FB95
:1057D00000303038F4E7704738B51748FFF7EEFF70
:1057E0006422B0FBF2F302FB1302144B124C53433E
:1057F00022782146A2F13005092D04F10104F7D9E0
:105800002E2A0DD142F2107411F8012F303AD5B280
:10581000092D05D802FB04330A22B4FBF2F4F3E7A6
:1058200006220333B3FBF2F36422B0FBF2F0044A26
:1058300002FB003038BD00BF68200020A0860100B8
:1058400040420F0038B5154B1C4614F8015BA5F11A
:105850002D0255425541002D08BF1C462046FFF73A
:10586000ADFF6423584323461A4613F8011BA1F1E8
:105870003004092CF8D92E290DD15378303BD9B2F8
:10588000092908D80A2101FB03009378303BDAB2DA
:10589000092A98BFC01805B1404238BD68200020D1
:1058A0000E4B1A786B2A16D140F2FC72598891423D
:1058B00011D11A79BE2A0ED193F8DD270020EF2AE4
:1058C0000BD113F8012B5040054A9342F9D1B0FA9D
:1058D00080F04009704700207047704700F80108C9
:1058E000FCFF010844280DD1574B01225749DA73B8
:1058F00000230B8056490B70487056490A70564A6F
:1059000013707047482808D14F4B0222DA730022E7
:105910001A824F4A537848330AE041280AD14A4B49
:105920000322DA734D4B00221A80494A53784133DF
:10593000537070472A2803D1434B0422DA7370470F
:105940000A2812D1424B5A781B789A423E4A09D112
:10595000434B012119703F4B118A93F900304B439F
:1059600040490B800023D3737047582805D13A4B28
:1059700000221A7001223C4B03E0232803D10022AD
:10598000354B1A7070474028F9D04E282E4A07D15F
:10599000324900230B802D494FF47A7008801FE0B4
:1059A000452807D12D4B5A21198028494FF47A7385
:1059B0000B8015E0532808D1284BB4211980234BC4
:1059C000002119804FF47A730AE057280BD1234B3A
:1059D0004FF4877119801D4B4FF47A7119800023A1
:1059E00013820122CCE7D37B013B032B2BD8DFE8CA
:1059F00003F002041522154A11E015492D284B78B1
:105A000003444B7002D1FF22124BBAE7138A03EB17
:105A1000830300EB43003038108270470F4A13882D
:105A200003EB830300EB4303303B1380084A5378B6
:105A3000184450707047064A137803EB830300EB59
:105A4000430030381070704768200020320A002070
:105A50001D0000203D0000209C090020340A002089
:105A600095090020280A0020980900208F4B24283F
:105A70005A6970B502F1010205465A611C4600F0F0
:105A80000A8105D80A280CD00D2840F01F8108E0B3
:105A90002A2806D02C2840F019811B7E83F02C0385
:105AA0002376627E814B0E2A00F2E7800021995412
:105AB0009A7E002A5AD01A78A2F14103052B01D808
:105AC000373A05E0A2F16103052B94BF573A303A0B
:105AD00063781201A3F141010529D2B201D8373B05
