:020000040800F2
:100000000050002085AF000825B0000825B000088A
:1000100025B0000825B0000825B000080000000049
:1000200000000000000000000000000025B00008F3
:1000300025B000080000000025B000080F8200086D
:1000400025B0000825B0000825B0000825B000083C
:1000500025B0000825B00008E15E0008DF5E00085A
:1000600025B000081D82000825B0000825B0000852
:1000700025B0000825B00008E95A000825B000089E
:10008000E35E000825B0000825B0000825B0000890
:1000900025B0000825B0000825B00008DD5E000886
:1000A00025B00008B558000825B00008C55800085C
:1000B000A95800089958000889580008DD3300083D
:1000C000E1330008D5330008D933000825B0000813
:1000D00025B00008DD5A0008D15A0008C55A0008AA
:1000E0002182000825B0000825B0000800000000AB
:1000F0000000000000000000000000000000000000
:0C01000000000000000000005FF808F1A3
:100110002DE9F04F834B844CA1B0C4F898300023F4
:10012000C4F89C3006F00CFA18B906F02BFA07F068
:10013000A5FB07F049FC94F8A0307C4D43F0010387
:1001400084F8A03000230C930D930E934FF4E0132A
:100150000F93774BA87B9A461A6842F480321A6054
:100160009A6942F010029A61DAF8003003F4003321
:100170000D930C9B01330C930D9B1BB90C9BB3F59A
:10018000A06FF1D1DAF80030694913F4003301D0DF
:10019000022317E00A6842F001020A600C93DAF8C1
:1001A000003003F002030D930C9B01330C930D9B65
:1001B0001BB90C9BB3F5A06FF1D1DAF800309A07A8
:1001C00041D501230E935B4B5B491A6842F0100244
:1001D0001A601A6822F003021A601A6842F00202DA
:1001E0001A60DAF80430CAF80430DAF80430CAF8D1
:1001F0000430DAF8043043F48063CAF804304F4B1B
:100200001A68043B22F070425A604D4A1160DAF8D5
:10021000041021F47C11CAF80410596841F000411F
:100220005960D96821F40041D9609B681B0449BF1B
:10023000444B4FF4E01313604FF480130F930E9B65
:10024000012B01D118E0FEE7022B1BD168B10F9BF7
:10025000B3F5801F02D14FF4A01305E00F9BB3F557
:10026000E01F02D14FF400130F930F99DAF8043016
:100270000B4343F4803303E0DAF8043043F46013B3
:10028000CAF80430DAF8003043F08073CAF800305E
:10029000DAF80010264B8F01FAD5596821F00301D6
:1002A0005960596841F002015960DAF80430204879
:1002B00003F00C03082BF8D14368234903F00C0327
:1002C000042B03D0082B03D01B4B12E0136810E063
:1002D00043684668C3F38343F60303F1020301D482
:1002E0001A4805E0406810F4003F106818BF400845
:1002F00043430B60DAF804301548C3F30313034497
:1003000093F878000B68C3400B60EB7B003318BF99
:10031000012384F8A1301368074A93421AD10122BD
:100320001CE000BF23740008C0000020B41F0020A0
:10033000001002400020024000127A000410014028
:1003400030000020001BB7004800002000093D00DD
:10035000ACFE0008B34A934202D10222B24B1A709B
:10036000DFF81C83B14BDFF81CB3C8F80C30DAF8A7
:100370001830AF4E43F00103CAF81830DAF82430D1
:100380000027C4F8A430DAF82430584643F08073CC
:10039000CAF82430DAF818304FF0100943F01C0383
:1003A000CAF8183020AB02934FF6FF73029A8DF80B
:1003B000567022F82C3D1146029205F0BEFD3046E3
:1003C000029905F0BAFD9B48029905F0B6FD02239B
:1003D00020A98DF84F304FF4007321F8343D8DF88B
:1003E0004E905846CBF8103005F0A7FD924A02987F
:1003F000536843F00073536008F026FC8F4A159B46
:100400003946B3FBF2F38E4A8E48136018220CF083
:10041000CAFC8D4B4FF47A721B68DFF83CC2B3FB09
:10042000F2F38A4A013B5360F02388F82330072314
:1004300097601360AB68DFF85082029FC8F8003005
:10044000834BCDF80CC00FCB87E80F00DAF81830DB
:10045000159843F00803CAF81830DAF8183016A9CE
:1004600043F00803CAF8183008233361C6F8109027
:1004700005F063FD179818A905F05FFDD8F8003066
:10048000CDF810B013F0080FDDF80CC013D09CF8B5
:100490008E31012B0FD86F4A9CF88F31D2F8A420EF
:1004A00012F0805B00F0168505E06B4B002283F8AC
:1004B0008F2107F069FC642007F09FFEA0226748A7
:1004C00000210CF070FCDAF81C30002243F0070326
:1004D000CAF81C30DAF8183043F4006343F00C0318
:1004E000CAF818305B4B4FF0000903F1A80102F87D
:1004F000019001320E2AF5D1FF2283F8B62083F84D
:10050000B72083F8B82083F8B920554B554A49469F
:100510001A6055483C22D8F800600CF044FC49466B
:10052000C6F380170523514ADFF83CE1885C0C22B2
:100530004A4302F80E0047B91E3801289FBFFF202A
:1005400003F1FF3302F80E00DBB201310529EAD1D5
:10055000474A95F805901370464BB106C4F8BC3075
:1005600003F1C003C4F8C030434B3A4A03EBC9035C
:100570005B7848BF0123C2F8C43000213F481C22E9
:1005800084F8BA900CF00FFC16F4005BDFF8FC80E6
:1005900006F4006108D151B195F8822108F10C03ED
:1005A000012A08BF434604E0CDF80C8002E008F1C0
:1005B0000C0303931E4BB9F10E0F1193039B5B8841
:1005C000ADF84830039B1B88ADF84A3011ABC4F836
:1005D000E03004D009F0EF09B9F1080F02D101238E
:1005E00084F8DA300120059107F098FDC6F3400346
:1005F0001BF1000B059984F8CE3018BF4FF0010BAA
:10060000C6F3C03384F8CD0084F8D07084F8C8B045
:1006100084F8CB3000293BD095F882315F1E7B42B5
:100620007B4136E0001BB700492800200005FA0591
:10063000000C0140001001400000014040420F004A
:10064000181E0020101D00204800002010E000E0CF
:1006500034FF0008C0000020B41F0020B01E00209E
:10066000101E0020A4210020D41D00204F1E0108D0
:10067000D01D0020C41F002078110108880100202F
:1006800000ED00E0000801401C1E0020ACFE000848
:100690000B4684F8CC30C6F3004384F8D130C6F35F
:1006A000402384F8D230D4F8C430B5F84401003384
:1006B00018BF012384F8D330C6F3005384F8D43034
:1006C000B5F84631A4F8DE00A4F8D830F004B5F847
:1006D000523148BFBA48A4F8D630C6F3804306F07A
:1006E0000101C6F3C00284F8CF3048BFB0F84C61B6
:1006F000B5F8503148BFB348A4F8DC3048BFA0F883
:10070000DE60B3F5FA7F84BF0023A4F8DE3095F8ED
:10071000D231AD4884F8E430002384F8E5304370EA
:1007200094F8DA3084F8C910002B84F8CA200CBF82
:100730000023022301B902B1013308EB8303D3F88C
:1007400098309A1E1A330793002306920593069B4E
:10075000DFF870B233F8024F06934FF6FF739C42F6
:1007600000F08B819BF8CD20E3B2240AE5B21AB1E8
:100770009A1E012A40F27C819BF8D02032B1934925
:100780001A018958924A914200F072819BF8D10077
:1007900030B18E491A0189588D4A914200F0688122
:1007A0009BF8CE2052B18949049E01EB03114A689F
:1007B000B24203D10A89102A00F05A819BF8CB205B
:1007C00052B18249049E01EB03114A68B24203D13F
:1007D0000A89022A00F04C819BF8CC2052B17B4957
:1007E0007C4E01EB03114A68B24203D10A89022A06
:1007F00000F03E81DBF8E0607EB1744F326807EBB9
:1008000003177968914208D13A89B188914200F082
:100810002F81F188914200F02B81022C02D19BF8AC
:10082000C82003E0012C04D19BF8C920002A00F065
:100830001F819BF8D320654C1E0162B1614A92F87A
:10084000DA2042B9A3F10802012A04D8A259624968
:100850008A4208BF04259BF8D42034445AB1594A2F
:1008600092F8DA203AB910B10C3B012B01E0043BBD
:10087000032B40F2E680012D44D1DFF85091FF2395
:100880008BF82C318BF82D3109EB06035A7B586815
:1008900003F108081B890027ADF8543015A902237D
:1008A0008BF83071CBF83C418DF857308DF85620DD
:1008B0008BF8E870CBF8EC70CBF8F070CBF8F470F4
:1008C000CBF828718BF82E718BF82F7105F035FB62
:1008D00059F8060098F802103A4605F0AAFA2046A0
:1008E00039462A4605F04AF83C4B3D49CBF84031A1
:1008F0003C4BCBF84871CBF8443120460A1D05F03B
:1009000085F8B5E0022D4CD19DF814204FF01C0C59
:100910000CFB02FC2B4B002703EB0C0808939DF803
:10092000143088F8327188F831314FF0010388F8BB
:100930003031264B88F83A719A19517B506802F190
:10094000080912898DF85610C8F83C4115A9CDF850
:1009500024C0ADF854208DF8575005F0EEFA1B4B2B
:1009600099F8021098593A4605F063FA204639463C
:10097000012205F003F81C49089BDDF824C0C8F8E3
:1009800040111A496344C8F8441103F5A071C8F82E
:10099000487120460A1D05F039F8059B013305937F
:1009A00066E0032D4BD19BF8CF20064B9BF8E66009
:1009B0000F4DFAB1204608214FF6FF72002332E0B6
:1009C000B41F0020C0000020A501002098100108DD
:1009D00000040040000C0140002C01406D5B000849
:1009E000000200204D5C00086D5E0008455B0008B9
:1009F000501F0020B3F8DC20B3F8DE30B2F5FA7FE8
:100A00000BD98D492046B1FBF2F2082192B205F0D4
:100A100087FB8A4B45F826000AE089492046B1FB4E
:100A2000F2F2012192B205F07BFB864B45F82600DD
:100A3000C3609BF8E63001338BF8E63018E0042DF4
:100A400016D1BBF8D6207E4B204693FBF2F2012153
:100A5000BBF8D83092B29BF8E55005F061FB9BF8EB
:100A6000E5300BEB85050133C5F810028BF8E53056
:100A7000069B079A93427FF46AAE734B734C1A68D5
:100A8000984612F4802F02D1012384F8303294F872
:100A9000A0306F4F43F0040384F8A0303B784FF44C
:100AA0008052022B34BF142310238DF856304FF0A0
:100AB00002038DF85730DAF81830ADF8542043F0BF
:100AC0000403CAF8183034BF00250125614815A970
:100AD00005F033FA604B0DB1604A00E0604A002037
:100AE0001A6007F09FFB5F4B5F4D93E80300029B8A
:100AF0004FF0030983E80300DAF81830159843F043
:100B00000803CAF8183016A905F017FADAF81C30ED
:100B1000284643F48043CAF81C30DAF810300299B2
:100B200043F48043CAF8103018238DF856304FF440
:100B30002043ADF854308DF8579005F0FEF94FF092
:100B4000040C4FF48043284602998DF856C0CDF826
:100B500010C04FF48056ADF8543005F0EEF9102374
:100B6000029928468DF85630ADF8546005F0E5F945
:100B7000DAF81030322043F48043CAF81030DAF843
:100B8000103023F48043CAF81030384B1A8802F42E
:100B9000415242F4457242EA09021A809A8B22F4C9
:100BA00000621204120C9A8307221A821A8892B2E7
:100BB00042F040021A809F232E618DF84C300023B2
:100BC0008DF84D308DF84E308DF84F3007F015FB15
:100BD000DDF810C06E616246029813A907F0FEFCB2
:100BE0002E619DF856309DF855201B0243EA0243C2
:100BF0009DF8572013431E4A934212D0322007F02B
:100C0000FCFA6E61F52007F01FFDFF2007F01CFDC8
:100C100070282E6105D13B78022B04BF0C4B83F862
:100C200000903E78032E25D11F2007F0EFF9022017
:100C300007F074FA20BB20E000127A006D5C000817
:100C400040420F005D5C00081C1E0020C000002018
:100C5000492800200008014034280020097E0008AF
:100C60001D7E000854FF0008000C014000380040C1
:100C700015202000022007F0C9F9012003F00EFC26
:100C8000D8F80050DFF8D4924FF0100A05F4004372
:100C900009F231200021524602930CF084F84FF6FD
:100CA000FF73ADF84C30022305F400674FF00008E5
:100CB0001D408DF84E308DF84F8010D020A921F8BE
:100CC00034AD9C4803F0EAF9042389F83132012558
:100CD000072389F8328289F8335289F83432029B2B
:100CE00093B1022320A921F8343D924803F0D6F9AC
:100CF0000123EA1884F8353284F83732072384F860
:100D0000365284F83832D5B2012E13D9202320A9C7
:100D100021F8343D874803F0C1F90523012284F806
:100D2000393284F83B226B1C072284F83A5284F84B
:100D30003C22DDB29FB1022320A921F8343D7E4838
:100D400003F0ACF90923012284F83D3284F83F22F4
:100D50006B1C072284F83E5284F84022DDB2774EA5
:100D600077487368002443F440437360736943F029
:100D700001037361B36943F40073B36107F0ECFEE0
:100D8000704B012D1593704B0496169394BF234618
:100D900080231A934FF480731B934FF48063A6F65D
:100DA000F8761C93202315A91D9330464FF4005369
:100DB00018951E93179419941F9407F0AFFE33688B
:100DC000624A43F0010333605368012D23F470231A
:100DD00094BF0021012123F4807343EA012353606F
:100DE00091685B4B013D0B4043F4602343F00203E9
:100DF0009360D36AEDB223F4700343EA0555D562DC
:100E0000012354490A19907800284ED0605C591C7F
:100E10000928C9B2D2784D4E0ED9A0F10A05F7685B
:100E200005EB45054FF0070E0EFA05FE27EA0E0703
:100E3000AA403A43F2600BE0376900EB400E072509
:100E400005FA0EF527EA050502FA0EF22A43326189
:100E5000062B3E4D0CD8013B6E6B03EB83031F2228
:100E60009A4026EA020200FA03F313436B631BE085
:100E70000C2B0CD8DA1F2F6B02EB82021F2393403E
:100E800027EA030600FA02F333432B630CE0A3F1D5
:100E90000D02EF6A02EB82021F23934027EA03064A
:100EA00000FA02F33343EB620B460434102CA8D152
:100EB000264B9A6842F480729A609A6842F0010266
:100EC0009A609A6842F008029A6099681F4A090776
:100ED00046D5FAE7013B092B3FF6EDAA1E4BC6F8B3
:100EE0001490986A029B18601946049805F025F83A
:100EF000049B3C201A460823136107F07EF9C6F8CC
:100F000010905E4695F88F319E42BFF6CEAA049BA4
:100F1000DFF824900827C9F8107078205F6107F087
:100F200061F9049BC9F8147078201F6107F05AF921
:100F30000136E7E700080140000C014000100240C4
:100F4000080002404C24014002030020002401401C
:100F5000FDF7F1FFF102002034FF0008C00000207F
:100F6000936843F004039360B24B9A685207FBD432
:100F70009A6842F4A0029A60AF4BB3F85801002877
:100F800041F0A682B3F95A21002A41F0A182B3F9B7
:100F90005C31002B41F09C82A84BDFF8C0821B68BB
:100FA000A54C13F4003F23D0C820B4F83C5707F0F9
:100FB00024F9AE2003F06DFA08B105F00BFA88F8B9
:100FC0004A02C82007F019F9A8F850529C4D9D4BD1
:100FD00000210C222846C8F84C320BF0E4FE022314
:100FE000EB7004F0BBF807F0E1F8974B0344AB60FB
:100FF000B4F860310021029394F867310C22059314
:10100000D8F854329148B3F8563094F85F510693AB
:1010100094F868418E4E0BF0C6FE002110228D48D8
:101020000BF0C1FE8C4B96F8009003F11802B9F159
:10103000010F94BF99469146884F4FF0000A5146E0
:101040000C2288F858A207F5177087F859A20BF000
:10105000AAFE2320C8F8689207F0CFF87520012176
:101060000DF12F0201F0E4FFB0B17D4B5046C7F8FF
:1010700060327C4B0121C7F8643210AA432387F801
:101080005C3201F0D5FF9DF8403003F07E038DF80F
:101090004030002848D150E097F86C3273BB049B75
:1010A000049A9B69DFF8E49143F0080393611023ED
:1010B0008DF856304FF4805A0323484615A98DF811
:1010C0005730ADF854A004F038FF674AC9F810A0B3
:1010D000138823F040031B041B0C1380138823F098
:1010E00038031B041B0C43F00803138013889BB2C6
:1010F00043F040031380012387F86C3275200121EF
:1011000015AA01F061FD9DF85430702B5AD10523CA
:1011100088F85832432388F85C32544BC8F8603260
:10112000534BC8F864324DE0682B06D1012387F891
:1011300058321D2387F85C3244E09DF82F3003F0CD
:101140007E03682B8DF82F3037D10223062088F8D4
:1011500058320146D8F8603215AA98479DF85910C0
:1011600001F001029DF8571001F001014B0043EA24
:1011700082019DF8552002F001030B430AD05BB2B7
:10118000012B01D1002302E0022B0FD1012388F8AB
:10119000593217E0314B0C20D3F86032012113AAE9
:1011A00098479DF84C3013F00F0303D1032007F04C
:1011B0003FF807E0042BE9D1E4E7702B04BF0423D8
:1011C00088F85832002388F86D3298F8583223494D
:1011D000022B0BD11F4A2748106027485060274830
:1011E000D060012281F86D2200F08ABE012B0DD162
:1011F000184A234881F86D3210601F48042350605C
:10120000204890601D48D06000F07ABE043B012B5E
:101210000CD8104B1C4A1A60174A5A60174ADA60F9
:10122000012381F86D32072300F06ABE012006F029
:10123000FFFF9DE000240140B41F00201C1E002081
:10124000E00500203A210020404B4C00700A0020AD
:101250004928002094270020C4FE0008C000002078
:1012600031300008BD32000800380040C92B0008AA
:10127000F52B0008D92D0008952A000890C1793D6A
:10128000152C00085D2A0008152D0008000C0140EF
:10129000012C41F0CF80B04D2B689A0702D5AF4B9F
:1012A0001B689847AE4B02981B689847AD4B059C4E
:1012B0001E78AD4B03F11802012E94BF1E46164650
:1012C000AA4F00233B70002C41F0BD80A84A4FF08C
:1012D000000920ABC2F8E06203F82C9D1E200A2111
:1012E000012201F0C3FD002801F0B1809DF85430C7
:1012F000482B41F074819F4B9F4A1A609F4A5A6065
:1013000003233B709E4B0222DA702B6843F00803E4
:101310002B609C4B93F8542112B1954981F86D22B2
:1013200093F855210AB198490A7093F8563103B1E0
:101330003B702B68954D13F0080F01F08A80BDF9C2
:101340001870642697FBF6F4204609F057F881469A
:1013500006FB147000B209F051F88D4909F0A2F8AB
:101360000146484608F096FF8A4909F09BF8286034
:101370007F4C102294F8A0300A2543F0020384F831
:10138000A030854B5A6108221A61834E1920F368F8
:10139000013D83F01003F360F36883F00803F3600A
:1013A00006F02BFF012006F03DFF192006F025FF77
:1013B000002006F037FF15F0FF05E6D10823336162
:1013C0001025654B35611A689A4612F0080F07D050
:1013D000684B75611B689847704B012235611A7024
:1013E0006F4F788809F00AF8DBF8E4320546187B7D
:1013F00009F004F86B4909F055F806F035FA014692
:10140000284609F04FF80CF043FF2946ABF8E802F4
:10141000654809F0FBF8654909F0F8F8504BCBF83E
:10142000EC026049D86809F03DF8614909F03AF8E2
:10143000B946CBF8F00253485E4A00F5C371B0F8E4
:101440004E31CBF8F412DBF85452CBF8FC12B0F862
:101450009411ABF8F8320023138093708BF80033AB
:1014600005F179028EB20290DFF86CE15248DEF8A5
:101470000070DFF868C107F5967720F813604CF824
:1014800023700133122BCDF814E0EDD14B4BC9354D
:101490001F68FB045CBF029BB3F89A61C680137897
:1014A000C3B99378D678B34214D23BB1013B03EB76
:1014B000830303EB830303F5617306E0013606EB58
:1014C000860606EB860606F5617356789BB20436EF
:1014D00020F816300432AA42E1D1380740F10481E5
:1014E000029B93F88E31062B00F2F580DFE803F0C3
:1014F00004070E7893B3B30045F2F05301E042F6CF
:10150000F823A4F84C3307F0C7FAE3E042F6F823D7
:101510000901A4F84C330A2391FBF3F10023A1F550
:10152000B061274A42F823100133122BF9D1254A22
:10153000254940201160254A137006F015FE002849
:1015400000F0C9800122072390F9000040218DE8B6
:101550000C001F4A1F4BB8E06C0A0020700A0020E4
:101560009427002049280020F4FE00084B28002082
:10157000C00000209805002075420008DD410008E9
:1015800041000020B41F0020482800202C06002025
:101590008988883C00002041000C0140EC050020B7
:1015A0000000002035FA8E3C0AE81C4100401C4631
:1015B000BD378635980A0020781E00201C1E0020AA
:1015C000680900202C000020A7340008FC26002019
:1015D00029370008A0860100881F0020C4030020CE
:1015E00042F6F823684AA4F84C33684B40201A604E
:1015F000674B10221A7006F0B7FD00286BD001234C
:101600004FF0000B90F9000040218DE80808614A76
:101610004FF4E13359E042F6F8235F4AA4F84C3323
:101620005A4B40201A605A4B08221A7006F09CFD53
:10163000002850D001234FF0000C90F90000402109
:101640008DE80810554A4FF4E13306F011FD544B74
:10165000C3F850033BE042F6F8224D49A4F84C236E
:10166000062B4FF00C024F4D4F480A700FD04F49D8
:1016700000232B700B7003704D4B1B2119704D4BC9
:101680004FF4E1351A704C4B05221A700CE0002122
:10169000017046482970017045492120087045496C
:1016A000464D0A70444A1370454A384B40201A6030
:1016B00006F05AFD78B101234FF0000E90F90000BA
:1016C0008DE808402B463F4A402106F0D1FC00300F
:1016D00018BF012040B9029B029A9B6823F00803BF
:1016E0009360394A294B1A60384A1368069213F4FA
:1016F000804F274A1FBF122111703548234918BF58
:10170000086042F20101194099B144F620619F043A
:10171000A4F84C1341BF082111702E481B4948BF43
:101720000860DE0741BF0C2111702B48174948BFE4
:10173000086011781D06A1F10401517061D5274D93
:101740000020C4F8545303F0FFFF059B01201A68E2
:10175000234B0221DA60234BA5F5F8751B681B7833
:10176000002B029B14BF0322012293F8F731009251
:101770000022019206F07CFC1B4B1860B0BBAB68EA
:1017800023F08003AB6034E0A33400082C00002079
:10179000FC2600207D3600089F3400083136000802
:1017A000C000002066090020D5090020D4090020CF
:1017B000D609002065090020D709002090D0030039
:1017C000E533000811350008F93400081C1E00201C
:1017D000D5340008E9340008D9340008A4210020D9
:1017E00050060020700600204C060020012003F067
:1017F000ABFFD4F85402AA4B00F5C5721A6003F08F
:10180000F3FF039B049AC8F85833049B04279B6991
:101810004FF0030B43F001039361039BA1481B8826
:1018200010A9ADF840308DF842708DF843B004F047
:1018300084FB039B9B485B8810A9ADF840308DF872
:10184000427004F07AFB039B0120197A04F060FBDC
:10185000039B954A5B680026536115934FF0100374
:101860008DF859304FF0010315A88DF85A308DF8D6
:10187000586002F0D5FB039B13A85B7A8DF84DB03E
:101880008DF84C304FF001038DF84E608DF84F30DD
:1018900006F086FE059B854D1B683C3BC8F85C3313
:1018A000DAF8003043F01003CAF800304FF0FF338D
:1018B000C8F86033069B1B68580540F15281D5F883
:1018C00064833846C5F8688306F04EFC3946C5F88F
:1018D0006C03049006F03EFC824685F870030820F5
:1018E000C5F8748306F040FC0821C5F8780306F0BB
:1018F00031FC314685F87C032C2205F27D300BF05B
:1019000052FA8E2285F87E23E0227C23314685F828
:1019100080234FF07D0B2C2205F2A93085F87D3312
:10192000039385F8A8B30BF03EFA039B102085F8CB
:10193000A9338A2385F8AA33A02385F8AC3385F828
:10194000D4B3C5F8D88306F00FFC1021C5F8DC032A
:1019500006F000FC85F8E0032020C5F8E48306F0DB
:1019600003FC2021C5F8E80306F0F4FB85F8EC033E
:10197000504607F01DFD95F8ED338246834225D091
:10198000DDF810C0D0B1BCF1000F1FD002239CF9CC
:101990000000009398F8013039469B1B18BF0123C3
:1019A000019332464FF4165306F062FBC5F8F0037C
:1019B00060B14FF0010385F8ED3307E0D5F8F0038F
:1019C00006F03EFBC5F8F0A385F8EDA394F87C0380
:1019D00007F0EEFC94F8F433344D834206461AD0F7
:1019E00088B1D5F87833B3B10022012693F900000D
:1019F0000821009601924FF4964306F039FBC5F892
:101A0000F80330B907E0D5F8F80306F019FBC5F87C
:101A1000F86385F8F46394F8E00307F0C9FC94F8E0
:101A2000FC33224D8342074664D0002842D0D5F8CB
:101A3000DC23002A5ED0D37992F90000002B4FF00E
:101A400002021B4E08BF03230092002256F82330E7
:101A50000192102106F00CFB0646C4F80004002891
:101A600048D095F84A30022B0BD095F89620022AE0
:101A700001D14C3505E023B1002A05F14C0518BF12
:101A80000025C4F8045445B1284600214C220BF02F
:101A90008AF902232E6085F84A30012328E000BF2E
:101AA00000090020000C014000040140C00000209B
:101AB000E40F0108D5F800642B68B34207D1304623
:101AC00006F0BEFA284639464C220BF06CF9E36C5E
:101AD000B34207D1304606F0B3FAC54800214C2284
:101AE0000BF061F9304606F0ABFA0023C4F800347D
:101AF00084F8FC3394F8EC0307F05AFC94F80834AB
:101B0000BC4D834206462CD008B3D5F8E83343B326
:101B1000D5F8E42393F9000052780323002A0CBF80
:101B20000822092200930192202100224FF46143F0
:101B300006F09EFAC4F80C0498B1012385F810341D
:101B400085F80834059B1B68C5F8143409E0D5F8FE
:101B50000C0406F075FAC5F80C6485F8106485F875
:101B60000864A54B1B78022B6FD1A44A002513886B
:101B7000322023F040031B041B0C138013884FF406
:101B8000805623F038031B041B0C138013889BB270
:101B900043F0400313809F238DF84C308DF84D5057
:101BA0008DF84E508DF84F5006F027FB8DF85550AC
:101BB000934D04226E6115A813A906F00FFD2E6146
:101BC0009DF856309DF855201B0243EA02429DF8CD
:101BD000573013438B4A93421AD00AD8A2F51A42BF
:101BE000033A93420CD002F51A420232934209D0D2
:101BF00022E0854A934205D00132934208D01BE08F
:101C0000202300E08023A9F804304FF4807303E020
:101C10004FF48073A9F80430A9F80630B9F80830F9
:101C2000B9F804201B02C9F80C305343C9F810302E
:101C3000764B01221A7008E00023A9F80430A9F8B5
:101C40000630C9F80C30C9F81030D9F81070002FE0
:101C500000F00581FF0ABC464FF00008B84531DAB4
:101C600008EB07067610F30203228DF84C200025BE
:101C70001A0C1B0ACDF80CC08DF84D208DF84E3093
:101C80008DF84F5006F022FDDDF80CC0D0B1DFF822
:101C900070B14FF48053CDF810C013A9CBF81430B5
:101CA000042228460DF1540A039306F097FC50468F
:101CB0002946102206F092FC039BDDF810C0CBF8F9
:101CC00010300AE04FEACC23039394F8192494F8D7
:101CD0001834934200F0C0800AE05AF825300133EE
:101CE00040F0C3830135042DF7D13746B446B5E73C
:101CF00047499A4201EB03001390149107D3D31A7A
:101D0000159300231693159B169F1F4457E0C3F1AC
:101D1000800315931692F6E7D4F89C64F5B27B190C
:101D2000B3F5807FD9F810308CBFC5F580753D467E
:101D30009E4280F08C800223DFF8C4808DF8403012
:101D4000330C4FF4805A8DF84130330A8DF842300D
:101D50008DF8436006F0BAFCC8F814A0062006F01F
:101D600073FC2A4B0122C8F810A000201A7010A999
:101D7000C8F814A0042206F031FCDDF854A0BAF132
:101D8000000F1FD0AA452ED2DDF84CB000205946D6
:101D9000524606F023FC0BEB0A010023CAEB0508B0
:101DA00013911593DDF858A0BAF1000F0CD1144B24
:101DB0004FF480527F1B35441A61C4F89C54002FA5
:101DC000AAD144E0A846EDE7C24523D2DDF8508011
:101DD00000204146524606F001FC08EB0A010023B0
:101DE00014911693E3E7A84600230DF1540B14E079
:101DF0000C010020C00000204928002000380040CD
:101E0000000C014018BA20001740EF008C1F002082
:101E1000DA0400200DF1580B04230DF14C0C5CF892
:101E200003A04246002051460593CDF810C006F0AD
:101E3000D5FB059BDDF810C00AEB08024CF8032027
:101E4000DBF80030C8EB0303CBF80030AFE700232A
:101E500084F8193484F81834039BC4F89C34A94DD1
:101E60002B6813F4002318BF012384F8A03406F074
:101E70009DF9A54B4FF47A721860029B5B79052B94
:101E800004BF4FF4C873A4F8A234A04B1A80A04B2F
:101E9000C8221A809F4A137843F0080313709E4AA1
:101EA000137823F00203137040F602032A681340EC
:101EB0006BB19A4B0321C4F8A434994B1970994B18
:101EC000012119700023A4F8A834A4F8AA349303BC
:101ED00041BF954B01221A71DA7844BF42F00102EA
:101EE000DA70029B9B682B60012384F8303294F8EF
:101EF000A03063F07F0384F8A03021B0BDE8F08FFC
:101F00008A4A8B4F3B70136843F001031360894B7F
:101F100000221A70082D00F28680DFE805F00B849D
:101F20000B293F5E29757500012D40F28680814B9B
:101F300000251D703378012B1AD84FF0000920AB13
:101F400003F82C9D53204946012200F08FFF78B101
:101F50009DF85430E52B0BD1774B784A88F86E9278
:101F60001A60774A5A60734B04221A7002235EE0AB
:101F700098F85832022B11D16F4B724A1A60724A8C
:101F80005A60724A92F85922002A0CBF6F226E22C0
:101F90001A72684B01221A70032348E03378012B30
:101FA0001BD8002220AB03F82C2D1C200D21012270
:101FB00000F05CFF88B19DF854302A2B01D01A2B19
:101FC0000BD15D4A624988F86F3211606149594B03
:101FD000516002221A70042329E0002120AB03F88B
:101FE0002C1D1820012200F041FF68B19DF85430EB
:101FF000FB2B09D1504B584A1A60584A5A604D4B36
:1020000001221A70052312E098F85832043B012B84
:102010008AD8494B524A1A604B4A5A60454B0122B2
:102020001A70082303E0012D07D900256FE73F4A06
:102030007B70136843F0020313603378012B05D1E2
:1020400006F028FB474B4FF400525A61042C3FF630
:102050001FA901A353F824F06D200008971200086F
:10206000932100086D200008972300080A2006F03D
:10207000C4F87720A021012213AB00F0F7FE00285E
:1020800000F087801E210122772001F093F84FF4A1
:102090002F6006F0A7F80025A5F160010024C9B261
:1020A000022215AB77208DF854408DF8554000F092
:1020B000DDFE9DF855309DF8542043EA0222234B63
:1020C00003F51C716A520235102DE5D1B3F87E126A
:1020D000012501F00F0001F47F41A3F87E12234691
:1020E00023F001024244B2F87022002A18BF0025F2
:1020F000DF0703D5D2B25440082235E084EA122427
:10210000FAE700BF1C1E0020900500204428002094
:1021100046280020C80900204A2800202C21002041
:10212000680A002040000020E00500206C0A002022
:102130004100002048280020700A00207D3300085C
:10214000E5300008412E0008DD2A0008C00000200C
:10215000C732000845300008593300089F30000896
:10216000C52D000800100140260448BF84F4C05467
:10217000013A4FEA4404F7D10133102BB0D10143A7
:10218000BC4AA8F87E1225B9C4F30333984200F084
:102190003B8198F88052B74C002D40F01E82B64E1D
:1021A00006F078FA4FF028094FF48047304613A91B
:1021B000ADF84C708DF84E9003F0BFFE4FF4005315
:1021C00033614846AD4906F07DF80E21022003F048
:1021D0009FFE0823159715A801278DF859308DF813
:1021E00058508DF85A7001F01BFF8DF8409010A8E0
:1021F0004FF003098DF841908DF842508DF84370EF
:1022000006F0CEF9142005F0F8FFD02177203A46E9
:1022100013AB00F02BFE3146002800F0A0809DF8A3
:102220004C30A4F8A492552B84F89B3240F0978050
:10223000D1213A4613AB772000F018FE9DF84C30C0
:10224000772003F00F021B0984F89C2284F89D324A
:10225000162215ABAA2100F009FE9DF854209DF826
:10226000553043EA0223A4F884329DF856209DF8A5
:10227000573043EA0223A4F886329DF858209DF88F
:10228000593043EA0223A4F888329DF85A209DF879
:102290005B3043EA0223A4F88A329DF85C209DF863
:1022A0005D3043EA0223A4F88C329DF85E209DF84D
:1022B0005F3043EA0223A4F88E329DF860209DF837
:1022C000613043EA0223A4F890329DF862209DF821
:1022D000633043EA0223A4F892329DF864209DF80B
:1022E000653043EA0223A4F894329DF866209DF8F5
:1022F000673043EA0223A4F896329DF868209DF8DF
:10230000693043EA0223A4F8983241F27073A4F8CA
:10231000A83246F67813A4F8AA32594BC4F8AC3266
:10232000584BC4F8B032584BC4F8B432574BC4F8C9
:10233000B832574BC4F8BC3294F8803243B900F03D
:10234000B3FF42F6E06005F04DFFB568C5F3803598
:10235000504B01221D70474B83F880223DE14E4ACD
:10236000136823F48043136000234C4A434D02EB6F
:10237000C3046068A84208D112F93300282804D1A8
:102380000020606002F8330002E00133032BECD13F
:102390004FF400534B61374D95F8C042002C5CD18F
:1023A000142005F02AFF05F2C1237620D021012256
:1023B00000F05CFD95F8C132582B7EF46CAF05F54A
:1023C000317388211822762000F050FD7620F42108
:1023D000312200F0EFFE012385F8C032304BA5F822
:1023E000A842C5F8B0322F4BC5F8AC3245F6D81329
:1023F000A5F8AA322C4BC5F8B4322C4BC5F8B8322C
:102400002B4BC5F8BC3228E042F21073A2F8A83278
:10241000A2F8AA32274B0324C2F8AC32264BC2F8EA
:10242000B032264BC2F8B432254BC2F8B832254B35
:10243000C2F8BC32244B254A9C70136843F0040355
:102440001360FEF728BF022C09D1FEF73FBF81467B
:10245000C5E000232B60FEF78BBF0424EAE7012CC4
:102460007EF657AF1C46FEF72BBF06F10108664605
:102470003CE400BFC000002000100140812B000898
:10248000A9320008FD2F000885320008B12F00088E
:10249000812900080000002000040140101D0020D8
:1024A000C1270008C32700086D3200081D2F00084F
:1024B000012600087D320008A12F000875320008AF
:1024C000912F0008C5270008410000206C0A002059
:1024D000474B00221A7000B207F090FF454907F001
:1024E000E1FF454C0646B4F95A0107F087FF414920
:1024F00007F0D8FF0546B4F95C0107F07FFF3D49BE
:1025000007F0D0FF0446304605F0AEF9804630466D
:1025100005F036F90646284605F0A6F9074628468E
:1025200005F02EF90546204605F09EF98246204624
:1025300005F026F941468146504607F0B3FF414673
:102540000290484607F0AEFF51460590304607F02E
:10255000A9FF49460690304607F0A4FF3946079088
:10256000504607F09FFF254C4946206007F1004088
:1025700007F098FF29466060A560069807F092FF73
:102580000146059807F086FE2946E060079807F0A7
:1025900089FF0146029807F07BFE3946206106F16B
:1025A000004007F07FFF29466061029807F07AFF3C
:1025B0000146079807F06CFE2946A061059807F0D0
:1025C00071FF0146069807F065FE4146E061384616
:1025D00007F068FF2062FEF7DFBC02242AE7012C27
:1025E0007EF697AE002487F80090FEF76FBE00BF1E
:1025F0001400002035FA8E3CB41F0020AC050020EA
:102600002DE9F04F87B06C4C02916C4922880E681E
:102610000546C2EB26135B435200C2EBE602B4F957
:1026200002601B135643B4F90420B4F90A00534363
:102630009B1303EBE62606EB860380331B12B6F5ED
:10264000FA384FEAE67704934B6847F1FF39A8FB65
:1026500008AB039308FB09F3B4F908200BEB430B19
:10266000E389A6610593D31708FB03F102FB091167
:10267000A8FB02230B44C1171F030AFB01F300FB55
:102680000B33AAFB00011603194447EA1257020A4A
:1026900042EA016292194FEA2123E6887B41003227
:1026A000A2FB060143F5004306FB03114B10009308
:1026B000CB170193DDE900231343B4F810E0B4F81D
:1026C0000CC06DD00FFA8EF0C1170AFB01F1AAFB06
:1026D000002300FB0B11BDF914600B44F71708FB36
:1026E00007F106FB0911A8FB06670F447904700483
:1026F000801841EAD6315941039B0FFA8CF8C3F593
:10270000801E7246D317002212184FEACE764FEA87
:10271000C3774FEAC8034B4147EA5E07B61A67EB37
:10272000030740F63543A6FB030103FB0711DDE970
:10273000002308F0C3F8B4F916204E1302FB06FE7E
:10274000470B47EAC147D31707FB03EEA2FB07235A
:102750005643734407FB0366A2FB07233344560E1C
:1027600046EAC3168219B4F914604FEA636741EB75
:1027700007037143F71700FB0717A6FB0001394455
:10278000C60C46EA413692194FEAE1474FEA122158
:10279000B4F912207B4141EA036113010B4400E0CC
:1027A00000230DB11B0A2B60029B13B11A46049B38
:1027B000136007B0BDE8F08F8403002004090020F7
:1027C000704770476B4B6C4A2DE9F04F5E899468F7
:1027D0004FEA062AB4EB0A0A9C884FF000054FEA3C
:1027E00004481C894FF0000BA4FB0A6765EB0B0B38
:1027F00004FB0B77F40944EA476418EB04065C8891
:102800004FF000094FEAE7154FEAC438DC8849EB7E
:10281000050787B0CDE90467A4FB0A6704FB0B77C3
:10282000340A44EA076418EB04064FEA27259C891A
:102830004FF0000949EB0507CDE90067AAFB0467E3
:1028400004FB0B77F40D44EA472414F5FA664FEACB
:10285000E75545F10007B6F5FA6F77F10003CDE9CA
:102860000267964666DADDE90489A4FB046704FB87
:1028700005F34FF0050C07EB4307A6FB0C230CFBFD
:1028800007335F104FEA3206B8EB06084FEA9206AC
:1028900046EA837669EB07099F10DDE90023921B66
:1028A00063EB0703CDE90023DDE90267334A4FF00C
:1028B000FF33964277EB0303CDE9048927DA40F62C
:1028C000AC520023A4185D4104FB05F3A4FB0445AE
:1028D0006FF0060205EB4305664202FB0566A4FBAA
:1028E0000223334418EB020649EB0307CDE90467E2
:1028F0000B26A4FB062306FB0533DDE900455B1030
:102900004FEA3202A41A65EB0305CDE90045DDE983
:1029100002450AFB0BF3AAFB0AAB0BEB430B4FEA96
:10292000DA7242EA4B02A41A4FEAEB7365EB030535
:10293000CDE90245DEF80C40009B019DA4FB03237A
:1029400004FB05334FEA525848EAC3284FEA63595B
:10295000DDE90423B8EB020269EB03039946D30BCC
:1029600043EA494300B1036009B1029B0B6007B021
:10297000BDE8F08F300300200409002024FAFFFF97
:102980002DE9F041324C334D62892B8AB4F9048031
:102990009A1A2389B4F902E05A43B4F91230D613D3
:1029A000B4F91420DB02324493FBF2F232440A26DB
:1029B000E2615643A2F57A6202FB02F3B4F90EC05B
:1029C00002FB0EFE02FB08F2B4F90C801B130CFB99
:1029D00003FC03FB08F31B1403EB62320232E388AF
:1029E000921002F5004253434CF25032B4F9207079
:1029F0004FEAEE2EB4F900400EEBEC2C0CEB840405
:102A0000BC406D690234A5EBA4043A4162434FEA2D
:102A1000D3384EBFB2FBF8F35400B4FBF8F340F6E2
:102A2000DE3448BF5B001A12524362430A4C083638
:102A30005C43241404EB224202F6CF62361103EB0E
:102A4000221300B1036001B10E60BDE8F08100BF48
:102A5000440300200409002043E3FFFF13B50C4B9F
:102A600004465B681B20022101AA984770B19DF8BB
:102A700004209DF8053043EA022303F54E5310333A
:102A80004FF48C7293FBF2F32333238002B010BD1A
:102A90001C03002037B5104B04465D6818780621EA
:102AA0006A46A847A8B19DF800209DF80130012092
:102AB00043EA022323809DF802209DF8033043EA75
:102AC000022363809DF804209DF8053043EA022329
:102AD000A38003B030BD00BF1C03002013B5104B12
:102AE00004465B683B2006216A469847A8B19DF8DA
:102AF00000209DF80130012043EA022323809DF845
:102B000002209DF8033043EA022363809DF80420ED
:102B10009DF8053043EA0223A38002B010BD00BF38
:102B20001C030020B0F5807F0ED0BB280ED8612892
:102B30000ED829280ED813280ED809280ED8002818
:102B400014BF062000207047002070470120704706
:102B5000022070470320704704207047052070470B
:102B6000054A08B5138801339BB21380034B1878CC
:102B700001F094FC002008BD7C0A0020C00A00205F
:102B800008B54FF4804001F07BFA012801BF044BE7
:102B90004FF480425A61034B08BF187608BD00BF4E
:102BA000000401400409002010B5054C2368186991
:102BB00001F066FA18B123681A69024B5A6110BD18
:102BC0002803002000040140F8B50E461746084CC3
:102BD0004FF48055656140F0800005F035FD3846C2
:102BE0000021324605F0FAFC25610120F8BD00BF46
:102BF000000C014070B50E46054C4FF480556561E0
:102C000005F022FD304605F01FFD2561012070BD55
:102C1000000C014070B5FFF785FF104C05461920E8
:102C200005F0EBFAA36815200021984710B902209F
:102C300005F0FEFA45F01801A368C9B216209847BE
:102C4000A368002117209847A36801213D209847D9
:102C5000A3683E200121BDE8704018471C030020F6
:102C6000F0B5274D85B06B7E002B46D1254C2368EF
:102C7000002B42D01A68244E12B1B1690A43B261E6
:102C80009A889868ADF8002002228DF803206946E2
:102C900004228DF8022003F050F9B369002743F0B5
:102CA0000103B36123680126187B197D03F030F915
:102CB0002368164993F9150005F004FB2368144AAC
:102CC0001B695361029308230DEB03008DF80D304F
:102CD0008DF80C708DF80E6001F0A2F9236801A840
:102CE0005B7D8DF806708DF8043003238DF8053078
:102CF0008DF8076005F054FC6E7605B0F0BD00BF9E
:102D0000040900202803002000100240A92B00081D
:102D10000004014037B50446FFF7A2FF254B1A68AF
:102D2000254B9A420ED14FF40053ADF804300223E4
:102D30008DF80730042321480DEB03018DF8063090
:102D400003F0FBF82046FFF7EDFE05461C4C802102
:102D5000A3686B209847642005F04FFAA368072109
:102D600068209847642005F048FAA36800216B208A
:102D70009847642005F041FAA36801216B20984729
:102D8000A36818211B209847A36810211C2098478E
:102D9000A36829461A209847A3680021192098475C
:102DA000A368122137209847A3680121382098474B
:102DB00003B030BD30000020001BB7000010014000
:102DC0001C03002008B5FFF74BFF024B4FF4805265
:102DD0001A8008BD0200002070B50446FFF740FFCE
:102DE0002046FFF79FFE0546144C8021A3686B2008
:102DF0009847642005F001FAA3680021192098473C
:102E0000A36803216B2098470F2005F0F6F9A3680B
:102E100029461A209847A36818211B209847A368C1
:102E200010211C209847A368022137209847A368E7
:102E300038200121BDE87040184700BF1C03002066
:102E400008B5FFF70DFF074B5B7813B1012B03D0DB
:102E500008BD4FF4006201E04FF48052024B1A802B
:102E600008BD00BF180300200200002010B540007C
:102E7000204CC0B220702048204C01702048002116
:102E80000170012020701F4C23601F4C23601F4BDA
:102E90001A701F4A1F4B107019701F49086811469D
:102EA0001A4630B383889C0515D40388DB050DD4FE
:102EB00047F230530488A40502D5013BFAD112E051
:102EC0008BB103889BB243F48073038083889BB2E9
:102ED00043F44073838047F23053087810B1013BCC
:102EE000FBD100E013B9BDE8104039E6107880F05E
:102EF000010010BDC60A0020C40A0020C20A00203A
:102F0000CC0A0020C80A0020D00A0020C50A0020F0
:102F1000D40A0020D50A0020BC0A002007B5F721FA
:102F20006B4606227620FFF7A1FF9DF800309DF842
:102F300001101B0343EA01139DF80210094A43EAFA
:102F4000111353609DF803309DF804101B0343EAEE
:102F500001139DF8051043EA1113136003B05DF8E7
:102F600004FB00BF0409002007B5002101AB0322C8
:102F70007720FFF77BFF9DF805309DF804001B02CA
:102F800043EA00439DF80600184303B05DF804FBD4
:102F900008B5FFF7E9FF014BD86008BD0409002020
:102FA00008B5FFF7E1FF014B986008BD0409002058
:102FB0000F4B13B51B780F4C0BB1237EB3B103221B
:102FC00001AB7720F621FFF751FF9DF805309DF802
:102FD00004201B0243EA02439DF806201343064ADD
:102FE000B2F92020C2F10802D340636102B010BDE3
:102FF0000000002004090020440300200A4B13B500
:103000001B780A4C0BB1237E63B1022201AB7720FF
:10301000F621FFF72BFF9DF804209DF8053043EAC9
:103020000223238202B010BD00000020040900200A
:1030300030B505460C46134629462246BDE83040C9
:10304000682013E713B50622044601211C206B46B5
:10305000FFF70CFF08B39DF801309DF80020042114
:1030600043EA022242F38D0292FBF1F29DF8023014
:1030700022809DF8032042EA032242F38D0292FB54
:10308000F1F29DF8043062809DF8052042EA0323A6
:1030900043F38D0393FBF1F3A38002B010BD13B58E
:1030A00006220446022118206B46FFF7DFFEB8B166
:1030B0009DF800309DF801209B0803EB022323803C
:1030C0009DF802309DF803209B0803EB02236380E8
:1030D0009DF804309DF805209B0803EB0223A38094
:1030E00002B010BD314B2DE9F3411B780546002B92
:1030F0003BD0002426462746A046013453203221E7
:1031000008226B46E4B2FFF7B1FE08B9002049E09F
:103110009DF801209DF80030202C03EB02231BB208
:103120009DF8032098449DF8023003EB02231BB264
:103130001F449DF805209DF8043003EB02231BB2C9
:103140001E449DF8073003F07F0301D0002BD4D13B
:1031500098FBF4F897FBF4F796FBF4F6144BA5F8FC
:1031600000806F80AE809C761CE0532032210622C6
:103170006B46FFF77BFE0028C8D09DF801209DF824
:10318000003003EB02232B809DF803209DF80230D2
:1031900003EB02236B809DF805209DF8043003EBC0
:1031A0000223AB8002B0BDE8F08100BF2E030020F7
:1031B0000409002013B502AB03F8012D4000214A99
:1031C000C0B21070204A00201170204901220A70FC
:1031D0001F4908701F490B601F490B601F4B204996
:1031E0001A700A701F4B204A187010681A4630B3C4
:1031F00083889C0515D40388DB050DD447F2305332
:103200000488A40502D5013BFAD112E08BB10388F2
:103210009BB243F48073038083889BB243F4407372
:10322000838047F23053087810B1013BFBD100E0B6
:1032300013B9FFF795FC02E0107880F0010002B0AE
:1032400010BD00BFC60A0020C40A0020CC0A00201E
:10325000C20A0020D00A0020C80A0020C50A0020A7
:10326000D40A0020D50A0020BC0A00207620F421D0
:1032700031229FE77720482101229BE777205821C0
:10328000012297E7064B002193F82020054B92017D
:10329000343219767720F42102F0FC028AE700BF6D
:1032A0004403002004090020034B00221A767720F3
:1032B000F4212E227EE700BF0409002003460A46BF
:1032C0006820194676E713B500222A211C20FFF753
:1032D00071FF0E2102221C20FFF76CFF0F21032239
:1032E0001C20FFF767FF2B2112221C20FFF762FF33
:1032F000164A02249369164843F00403936120237D
:10330000ADF8043004230DEB03018DF806308DF881
:10331000074002F012FE22462C211C20FFF74AFF34
:103320002D2101221C20FFF745FF2E2100221C2009
:10333000FFF740FF2A2105221C20FFF73BFF054B2A
:103340004FF480721A8002B010BD00BF001002401E
:10335000000801400200002008B50F2108221820B3
:10336000FFF728FF0E2218201021FFF723FF024B42
:103370004FF480521A8008BD0200002008B5134B9C
:1033800053201B782D2108227BB1FFF713FF312139
:103390000A225320FFF70EFF2C210C225320FFF7A7
:1033A00009FF53203821902209E0FFF703FF312164
:1033B0000A225320FFF7FEFE53202C210A22FFF79A
:1033C000F9FE40F20912024B1A8008BD2E030020BC
:1033D0000200002001F06AB901F08EBA01F066B96E
:1033E00001F08ABA03788B4286BF024B33F8110092
:1033F000002070472C0900200022134670B5234995
:1034000014180C44247E83EA0423082413F4004F88
:103410004FEA430318BF83F4815304F1FF3418BF0C
:1034200083F0010314F0FF049BB2EFD10132192A9B
:10343000E5D100F1190200F11A050A440D44167E87
:103440002A7E02EB062292B29A421ED10F4B93F8CB
:103450003950E2B2AA4215D2431C03EB4203DBB25D
:10346000CA1801330B44127E1B7E03EB02239BB26E
:103470004FF4AF6253431B1303F5487321F8143024
:103480000134E6E7012381F83A3070BD2C090020B1
:10349000007888428CBF4FF477700020704700207E
:1034A00070470020704708B5074B03EB8101C86BDC
:1034B00006F0A0FF054906F0F5FF054906F0EAFE13
:1034C00007F0DCF980B208BD2C0900200000203F85
:1034D00000005C4400207047024B03EB4101B1F84F
:1034E000840070472C090020024B03EB4101B1F826
:1034F000840070472C09002000207047034A92F88E
:103500009C3043F0040382F89C3070472C09002063
:1035100070B5054604F04AFE314CD4F8A030C4F82A
:10352000A000C31AB3F5FA5FC4F8A43082BF002329
:1035300084F8A83084F8A93094F8A8302BB9A12DCC
:1035400002BF274A012182F8A91094F8A910244A41
:1035500029B1D118EDB201330D7682F8A83094F874
:10356000A85094F8AA30AB4239D11D4B93F8AB3038
:10357000052B02D0062B03D02CE00020FFF73CFFE8
:10358000637E1E2B26D100200246C1B26B1E9942DB
:1035900019DA21440B7E0821DBB283EA0206F60722
:1035A00044BF83F01803C3F3460301F1FF3154BF56
:1035B0005B0843F0800311F0FF01C2F34702ECD136
:1035C00001301A46E1E723441B7E9A4202D10320D0
:1035D000FFF712FF002384F8A93084F8A83070BDEB
:1035E0002C09002010B5044604F0E0FD41F28831BA
:1035F0000E4BE4B2D3F8AC20C3F8AC00821A8A4276
:10360000C3F8B02084BF002283F8B42093F8B4201C
:1036100006490F2A134418BF013283F8B54012BF80
:1036200081F8B420012381F8C53010BD2C09002099
:1036300010B5044604F0BAFD41F288310E4BD3F8C0
:10364000C820C3F8C800821A8A42C3F8CC2084BFBD
:10365000002283F8D02093F8D0200749142A13447D
:1036600018BF013283F8D14012BF81F8D020012366
:1036700081F8E63010BD00BF2C09002038B50446A3
:1036800004F094FD274A2749D2F8E830C2F8E80050
:10369000C31AB3F57A6F84BF002382F8EC3092F836
:1036A000EC3033B9A82C3BD181F8ED30A1F8EE30E5
:1036B00006E0022B02D181F8F04001E0242B02D871
:1036C000D11881F8F14092F8F01001330231DBB2E9
:1036D00049008B42134D82F8EC3018DAB5F8EE3021
:1036E000E0B283EA0020082310F4004F4FEA4000C4
:1036F00018BF80F4815003F1FF3318BF80F0010040
:1037000013F0FF0380B2EFD1A2F8EE0038BD013113
:103710008B4201BF002385F8EC30012385F8ED30A2
:1037200038BD00BF2C09002010B5044604F03EFD52
:1037300040F6AC510F4AD2F81831C31A8B42C4BFBD
:10374000002382F81C3192F81C31D11881F81D41F8
:1037500023B90F2C0DD10749C1F818010133DBB291
:10376000192B044982F81C310CBF0123002381F876
:10377000363110BD2C09002007B50B4B002193F901
:10378000F201032300930A460191062304F070FC22
:10379000064B074AC3F83801064B1A60064A074B26
:1037A000DA6003B05DF804FBB41F00202C09002090
:1037B000EFBEADDEF04F00200400FA0500ED00E0A2
:1037C00007B5064B06490093064B074A0193074885
:1037D000074B03F0B6FF03B05DF804FB28140108A3
:1037E000101401083114010815140108E013010830
:1037F0001C1401082DE9F341274C284B94F83C2177
:10380000274E196856F82220264B27481B7800922D
:103810004FF47A72B1FBF2F1002203F092FF234BD6
:1038200023481968234B0027B1FBF3F103F089FF0C
:10383000D4F84081FBB206EB83021169E1B10125A6
:103840009D4015EA080F15D02A0713D01A4A0B20FD
:10385000D25C00FB0323124A184802EB83031A6B65
:1038600003F06FFF022D05D194F84C1111B11448EB
:1038700003F067FF0137DDE7124804F04AFD40F22C
:103880004473B4F850211048B4F8521192B202B007
:10389000BDE8F04103F055BF2C090020881F00202F
:1038A000D00501084000002039140108480000201C
:1038B0007C14010840420F00410000208C140108D4
:1038C00094140108B61501089814010838B5164873
:1038D00004F01FFD154804F01CFD154B00249B68E7
:1038E0009B024CBF1348144803F02BFF134803F00E
:1038F00028FF0E4804F00DFD114A15192B7903F02D
:103900003003302B0AD1A1580E4803F01AFF284685
:10391000002104F005FB094804F0FBFC1434B4F565
:10392000077FE9D138BD00BFCA140108E3140108BC
:10393000B41F0020F314010804150108B61501088E
:10394000B00601081415010810B5037823B9BDE8C5
:1039500010400D4804F0DDBC0AF082F984B25A2C04
:1039600021B20CD8094803F0ECFE094B93F856211C
:10397000A3F8544142F0020283F8562110BD0548D5
:10398000BDE8104003F0DDBE1E1501085115010809
:103990002C0900206D15010810B5037823B9BDE886
:1039A00010400E4804F0B5BC0AF05AF984B2B4F5E0
:1039B000B47F21B20CD80A4803F0C3FE094B93F838
:1039C0005621A3F8584142F0010283F8562110BD58
:1039D0000548BDE8104003F0B4BE00BF1E15010845
:1039E000891501082C0900206D1501082DE9F04FFB
:1039F00085B0824609F033FA054628B1012818D16E
:103A00009AF800302A2B14D1BE4804F082FC00241E
:103A1000BD4EBE48A15903F094FE3019294604F06A
:103A20007FFA1434BA4804F074FCB4F5077FEFD180
:103A3000BAE150463D2109F004FA002800F09981CE
:103A40000346984613F8012D202AFAD0CAEB08083D
:103A5000013083469BF800300130202BF9D000263E
:103A6000142303FB06F4AB4D05F1E00C54F80C9065
:103A7000CDF804C0484609F0F2F9034649461A4613
:103A80005046009309F0F4F99DE80810002840F032
:103A900066815FFA88F29A4240F061810CEB040380
:103AA00000932B1993F8E44014F0C0020BD0402A85
:103AB00040F05381824693F8EC30DB00EA1892F82C
:103AC00000C35246E0E058460AF0CAF801909BF85D
:103AD00000205B46202A0BF1010BF8D0092AF6D012
:103AE0002D2A03D15B46DFF848B204E02B2A08BF39
:103AF0005B464FF07E5B9A46002752461AF8011B40
:103B0000A1F130085FFA88F009280DD882493846BB
:103B100006F0C8FC0746404606F070FC01463846F1
:103B200006F0B8FB0746E8E72E29134619D1D04620
:103B3000DFF8E4A1434618F8010B3038C1B2092977
:103B40000FD806F05BFC514606F060FD0146384692
:103B500006F0A0FB70490746504606F0A3FC8246DB
:103B6000E8E71A7802F0DF02452A48D15A782D2A70
:103B700003D102334FF0010805E02B2A14BF0133B3
:103B800002334FF00008013B002013F8011F3039C9
:103B90005FFA81FEBEF1090F04D84FF00A0E0EFB4A
:103BA0000010F2E70346B0F59A7F28BF4FF49A73EE
:103BB0009C464FF07E51BCF1070F0DD9084657497E
:103BC0000393CDF808C006F06DFCDDF808C001468F
:103BD000ACF1080C039BEEE703F0070343B1084682
:103BE0004D49029306F05EFC029B0146013BF5E75E
:103BF000B8F1000F05D0384606F008FD04E04FF09C
:103C00007E51384606F04EFC0146584606F04AFC06
:103C10004FF0140B0BFB065B0746DBF8EC0006F0DD
:103C2000EDFB014638460BF1E80B06F0EDFD0028F0
:103C300000F09380DBF8080006F0E0FB0146384610
:103C400006F0D8FD002800F0888004F00F03052B53
:103C500020D0019F1EE0D8B9E918D1F8FC120392D8
:103C600051F82A005946CDF808C0019309F0BCF874
:103C7000B0FA80F04009019BDDF808C0039A08B152
:103C8000574601220AF1010A5FFA8AF16145E2D33F
:103C9000002A62D0142303FB065504F030011029DA
:103CA0003A46D5F8E83005D11D494FF4CC7091F86B
:103CB000F41605E0202905D11A490C2091F85A1173
:103CC00000FB013304F00F04052C3BD8DFE804F0BF
:103CD0000303050518321A7034E01A80124A934221
:103CE00030D100229A70A3F22C73B3F82C070D4B3D
:103CF000A3F85C0103F09CFB0C4804F00AFB21E0F4
:103D00001A601FE0A4150108B00601081815010883
:103D1000B6150108D00501080000204120BCBE4CAA
:103D2000B41F00202C090020E0260020B91501084E
:103D3000000080BF1E4A1F60934202BF3A461D4BDF
:103D4000C3F8602149461C4803F0FBFC00980021A1
:103D500005B0BDE8F04F04F0E3B8184804E00136C0
:103D60001B2E7FF47DAE164805B0BDE8F04F04F081
:103D7000D0BA04460546134E5146A759384609F0B5
:103D8000ABF858B13946104803F0DBFC301900217C
:103D900004F0C6F80D4804F0BCFA01351434B4F54B
:103DA000077FE8D1002DDED005B0BDE8F08F00BF61
:103DB000E42600202C0900200B1601081616010825
:103DC00026160108B006010818150108B6150108E5
:103DD000084BDA68D10709D4DA68520708D4DB68DF
:103DE00013F0100F14BF0320042070470120704708
:103DF00002207047002002400A88F0B54B888E8868
:103E0000B1F808E0CC88002A3AD1028C43F00103D3
:103E100022F001021204120C0284058B078CADB251
:103E200025F0F30545EA0E1189B241EA06027B4905
:103E3000BFB2884212D001F5006188420ED0B0F1C5
:103E4000804F0BD0A1F59831884207D001F58061F1
:103E5000884203D001F58061884202D127F0020731
:103E600001E027F00A071F4302830784038B23F036
:103E70000C031B041B0C0383038B9BB21C4344E009
:103E8000042A44D1028C22F010021204120C028483
:103E9000018B058C21F440721205120D42EA0E329C
:103EA0005E4992B242EA06228842ADB292B212D084
:103EB00001F5006188420ED0B0F1804F0BD0A1F522
:103EC0009831884207D001F58061884203D001F51E
:103ED0008061884207D125F0200141EA03139BB29B
:103EE00043F0100304E025F0A00143F010030B435E
:103EF00002830384038B23F440631B041B0C0383A2
:103F0000038B9BB243EA0424A4B20483F0BD082AC5
:103F1000028C3ED122F480721204120C0284828B35
:103F20003E4D92B222F0F307018C47EA0E1292B294
:103F3000A84289B242EA060212D005F50065A842FD
:103F40000ED0B0F1804F0BD0A5F59835A84207D020
:103F500005F58065A84203D005F58065A84207D124
:103F600021F4007141EA03239BB243F4807304E01F
:103F700021F4206143F480730B4382830384838B99
:103F800023F00C031B041B0C8383838B9BB21C4309
:103F900041E022F480521204120C0284858B018CC1
:103FA00025F440752D052D0D45EA062545EA0E320E
:103FB0001A4D89B2A84292B212D005F50065A84206
:103FC0000ED0B0F1804F0BD0A5F59835A84207D0A0
:103FD00005F58065A84203D005F58065A84207D1A4
:103FE00021F4005141EA03339BB243F4805305E0CE
:103FF00047F6FF5543F480530D402B4382830384DF
:10400000838B23F440631B041B0C8383838B9BB241
:1040100043EA0424A4B28483F0BD00BF002C014015
:10402000016830B5CD43154B1C682C401C605A68A4
:104030002A405A60027902F1804202F58232146805
:104040002143116002689C68D5432C409C60D9686C
:104050002940D9604179102909BF996801F180434D
:104060001143996015BF03F58233D96819680A4373
:1040700016BF0A43DA601A6030BD00BF0004014079
:10408000054B1A685B69034004D0104214BF01203D
:10409000002070471846704700040140CA78F0B508
:1040A000D40648BF8C780D8802F00F0348BF234325
:1040B00015F0FF0F1DD0016800240126A64006EA76
:1040C0000507B74211D14FEA840E0F2606FA0EF605
:1040D00021EA0601282A03FA0EF641EA060101D177
:1040E000476102E0482A08BF07610134082CE4D187
:1040F0000160FF2D1FD94168002404F10807012643
:10410000BE4006EA0507B74211D14FEA840E0F26DA
:1041100006FA0EF621EA0601282A03FA0EF641EA0B
:10412000060101D1476102E0482A08BF0761013456
:10413000082CE2D14160F0BD0F4B1A6842F0010239
:104140001A6059680D4A0A405A601A6822F084724F
:1041500022F480321A601A6822F480221A605A68A7
:1041600022F4FE025A604FF41F029A60044B4FF093
:1041700000629A60704700BF001002400000FFF824
:1041800000ED00E008B504F011F8074B022283F8B7
:104190006821064AC3F864011268C3F87421012239
:1041A00083F88D2108BD00BF2C090020881F002046
:1041B00008B503F0FBFF084B022283F86821D3F80F
:1041C000742100F5B71000F5587002F2DC52C3F804
:1041D0006401C3F8742108BD2C09002037B50446DA
:1041E00003211E2006226B46FEF740FE70B39DF8A9
:1041F00001309DF80000164D43EA002000B206F0A1
:10420000FDF8296806F04EF906F012FB9DF8033020
:1042100020809DF8020043EA002000B206F0EEF88C
:10422000A96806F03FF906F003FB9DF80530A08071
:104230009DF8040043EA002000B206F0DFF8696848
:1042400006F030F906F0F4FA6080012003B030BDCA
:104250001C00002010B5054C23681869FFF710FFFB
:1042600018B123681A69024B5A6110BDA0030020DF
:10427000000401402DE9F0437B4A87B01368904663
:1042800093B11A681AB17949886902438A619A8898
:104290009868ADF8002002228DF8032069460422B8
:1042A0008DF8022001F049FE322003F0A6FF002124
:1042B00011221E20FEF77EFF012160221E20FEF744
:1042C00079FF642003F099FF002402A8FFF786FF1E
:1042D000274626460A25022101221E20FEF76AFFF4
:1042E000322003F08AFF02A8FFF778FFBDF908200B
:1042F000BDF90A1014448A42A8BF0A46BDF90C3021
:104300000F4493421E44A8BF134613F5805F09DD96
:10431000574A013DD36883F01003D360DBD14FF0DF
:10432000010901E04FF000091E2000211222FEF7D2
:1043300041FF0A25022101221E20FEF73BFF322009
:1043400003F05BFF02A8FFF749FFBDF90820BDF9A4
:104350000A10A41A8A42A8BF0A46BDF90C307F1A77
:104360009342A6EB0306A8BF134613F5805F07DD53
:104370003F4A013DD36883F01003D360DAD101E0F6
:104380004FF00009204606F039F80146394806F09A
:104390003DF9394D20F000402860384606F02EF8EF
:1043A0000146344806F032F920F00040686030469B
:1043B00006F024F80146314806F028F920F00040C4
:1043C000A860002170221E20FEF7F4FE01212022A9
:1043D0001E20FEF7EFFE1E2002210022FEF7EAFE5D
:1043E000642003F00AFFB9F1000F04D14FF07E53AF
:1043F0002B606B60AB60D8F800301B4C1A7B002A36
:104400002FD01A7D6AB3194900268A69012542F026
:1044100001028A61187B197D01F07AFD2368184931
:1044200093F9150003F04EFF2368164A1B6904A890
:10443000536104930C238DF815308DF814608DF8BA
:104440001650FFF7EDFD236801A85B7D8DF806602F
:104450008DF8043003238DF805308DF8075004F0F3
:104460009FF807B0BDE8F083A003002000100240D1
:10447000000C014000406F461C00002001C05E4659
:104480005542000800040140024640213C20FEF74E
:1044900091BE024680213C20FEF78CBE012828BF39
:1044A00001202DE9F04F0646142000FB06F3764F5D
:1044B00089B0F918FC58754B0A691C601E71744B61
:1044C000B1F80880DD69B1F80AA02A43DA61A28850
:1044D0004D6822F440721204120C4AEA0809A280C4
:1044E00003A9C5F8109002228DF80E00284601930A
:1044F000ADF80C908DF80F2001F01FFD019B009787
:104500001F464FF0080BAA6818EA020F03D10A20D1
:1045100003F068FEF7E70A20C5F8148003F062FE96
:10452000C5F810800A2003F05DFEBBF1010BEAD153
:10453000C5F814A00A2003F055FEC5F814800A201F
:1045400003F050FEC5F810800A2003F04BFE022253
:10455000C5F810A028468DF80F2003A91C228DF85D
:104560000E20ADF80C9001F0E8FC4A4A4A4994420A
:104570003A6903A80BBF42F4001242F480023A6188
:104580003A610BBF3A693A6922F4001222F48002C0
:104590003A61A38823F440731B041B0CA3803F4B98
:1045A00093F800803E4BB8F1000F14BF9846884640
:1045B00023889BB243F001032380A58804F044FBC9
:1045C000059A384825F03F05B2FBF0F02D042D0C7C
:1045D0000543ADB2A580218808EB480321F0010115
:1045E0000904090C21804FF49671B2FBF3F301FB2F
:1045F00000F24FF47A7192FBF1F29BB2002B08BFEC
:104600000123013243F4004392B22284A38323881E
:10461000009A9BB243F0010323802388002523F4F2
:10462000816323F002031B041B0C23804FF480439F
:104630002381142303FB0626737B012403A88DF832
:104640000C308DF80D508DF80E508DF80F4003F0A2
:10465000A7FF337B9DF80F208DF80C308DF80D509F
:104660008DF80E501AB103A803F09AFF08E05A091A
:1046700003F01F039C4002F120030B4A42F8234041
:1046800009B0BDE8F08F00BFB8090108BC0A0020DE
:104690000010024000540040801A06006101002012
:1046A00000350C0040420F0000E100E0914B70B576
:1046B0001A68908A80B2C1B2CE072ED5118821F433
:1046C00000610904090C1180118889B241F48061EC
:1046D000118000215971997999B1D97911B9197A53
:1046E000FF290ED10121D971597A022901BF118800
:1046F00089B241F400611180997A41F0010111827F
:10470000E2E0997A01F0FE0111821A7AFF2A00F0A4
:10471000DB80784AFF215171D6E08D073AD5BFF38F
:104720005F8F587AC0B2012813D1997989B1D979AC
:1047300079B1118821F480610904090C1180BFF35B
:104740005F8F118B1188D87289B241F4007111808A
:104750001BE0118BBFF35F8F587A664902280AD19C
:10476000887940B1C97931B1118821F48061090497
:10477000090C1180A2E0587A5E49032805D1887996
:1047800018B1C979002940F09980918889B241F423
:10479000806198E04C0757D50121D9729979002999
:1047A00038D0D979002935D0597A10880229597919
:1047B0001ED920F480600004000C1080148ADD688B
:1047C000C8B2E4B249B26C541188DC6889B241F4D1
:1047D000007111801968821C5A710A8A0130D2B2A4
:1047E00040B222548A8892B242F480628A8026E0E3
:1047F00080B240F400701080148ADD68C8B2E4B260
:1048000049B26C54128A411C49B2D2B203306A5484
:10481000587114E0D979374809B9017C41B1118840
:1048200089B241F4007111805A7901325A7106E05F
:10483000118889B241F4807111800122C271196816
:104840000A88D205FCD43FE001F0400101F0FF04EA
:10485000E1B15879168ADD68C4B2611C40B2F6B283
:104860002E54C9B25D7A597149B2C81C854201BF44
:10487000908820F480600004000C08BF90805A7A71
:104880008A4221D11B4A023454711DE006061BD511
:10489000597948B2451C0AD05C690131205CC9B223
:1048A0001082587A597149B288420DD106E0197ABE
:1048B0005C711182997909B9597A29B9918821F4E1
:1048C00080610904090C9180597A93F9050001313E
:1048D0008842084A0CD10021D171D17A31B11168D6
:1048E0008A8822F440721204120C8A8000221A76FE
:1048F00070BD00BFBC0A002010B5204C2368998A07
:1049000089B211F4706F1CBF0122627611F4E06F5E
:104910002AD01A8B9A88890522F480624FEA0242D3
:104920004FEA12429A801FD41A8892051CD41A8822
:10493000D0050ED51A88D105FCD41A8892B242F45B
:1049400000721A801A889205FCD42079FFF7A6FD20
:104950000AE01A8892B242F400721A809A8822F40D
:1049600040721204120C9A802268938A23F47063B6
:104970001B041B0C93820023237610BDBC0A00206D
:10498000026B0346C16810B5406942B11A6C8C1ABB
:10499000013A08BF0A46005D1A64C0B210BD1A6A27
:1049A000805C01328A4228BF0022C0B21A6210BD68
:1049B000436B13B190F844007047836A406A1B1A36
:1049C000584258417047426A816A03698A4238BF37
:1049D000D218521A416B21B149680A44591E8A42C1
:1049E00003D2013B981AC0B2704700207047036B96
:1049F00013B15B68016C01E0C369016A8B423CBF83
:104A0000C2689B18581AC0B27047426A806A131A6B
:104A10005842584170474171704743799B070AD506
:104A2000436A8269D154436A01690133B3FBF1F2ED
:104A300001FB123343627047427902F0020202F036
:104A4000FF0342B10369426A806A013BDBB2101A7C
:104A500023EA0000704718467047437913F00103BA
:104A60001FBFC36803F1FF32C369006A1DBF181A74
:104A70001040C0B218467047437910B513F00103D7
:104A800004460DD0FFF7E9FF58B1236A6269E16877
:104A9000D05C0133B3FBF1F201FB1233236210BD92
:104AA000184610BDF0B5046D8279A389467923F4C8
:104AB000005312F0020F4FEA03434FEA13430CBFB7
:104AC00000214FF4005112F0040FA38114BF4FF4E2
:104AD000806E4FF0000E16F0010F8768054614BF78
:104AE00004200020B307238A48BF40F008029BB28D
:104AF00023F4405343EA01032382A18948BF90B2C3
:104B000089B221F4B05121F00C014EEA010140EAD2
:104B10000102A281A38A87B023F440731B041B0CFB
:104B2000A38201A804F090F8039B049E254A9442B6
:104B300018BF1E46A389192272431BB2002BB4BFB3
:104B40007E00BE00B2FBF6F66427B6FBF7F000016C
:104B5000010907FB1163A28912B2002AB7BFD9006D
:104B60001A013231B1FBF7F2A7BF3232B2FBF7F3D1
:104B700002F007021043A8BF03F00F03AA79A8BFF1
:104B8000184380B212F0010F20812B6D06D00E4920
:104B90008B4202BF042001F54841086112F0080F62
:104BA0009A8A0BBF22F0080292B2120442F0080265
:104BB00008BF120C9A829A8992B242F400529A81EA
:104BC00007B0F0BD0038014000440040417169E782
:104BD000816067E703460A4690F84602D96A9B79E6
:104BE00001F0DDB938B5A0F513746379A579DB0759
:104BF00046D594F8383205F00105F3B1226B106800
:104C0000838DC3F34E03838494F83C3223B1B4F80C
:104C100042320133A4F84232917A6A0001F06FF80F
:104C2000012384F83B32002384F8393284F83A3285
:104C300084F83832A4F8403238BD94F83B3220462C
:104C4000012B04BF94F8393284F83A3201F042F86B
:104C500094F83B22236B3AB9012284F83B2218686E
:104C6000997A05FA02F207E0002284F83B22954285
:104C70001868997A08BF0222BDE8384001F03FB8B1
:104C800038BD026D70B515880446ADB2A90613D5BE
:104C9000036B8BB9C36A1BB1908880B298470BE055
:104CA000E169928840694E1CD2B2E6614254E169E2
:104CB000E268914228BFE3612B0613D5636AA26ABA
:104CC0009A42236D0AD0511CA069A162825C9A802D
:104CD0002369994206D30023A36270BDDA6822F0EB
:104CE0008002DA6070BD836A8169426B1944D160C9
:104CF000416A994297BF0169CB1ACB1A536096BF9C
:104D00000023536083624FF0000380F8443013683F
:104D100088BF816243F0010313607047436A826970
:104D2000D154436A02690133934228BF002343628E
:104D3000436B1BB11B68DB0705D4D4E7026DD36856
:104D400043F08003D36070472DE9F0431D469B4B31
:104D50008DB09842894690469DF8507052D1984B3C
:104D6000984A99491A60994AC3F808805A6102F52D
:104D700080729A614FF48072DA601A61944A186501
:104D80001A63A2F54842543ADA649A645963914B23
:104D90003C079A6942F480429A615A6942F00102E2
:104DA0005A614FF002038DF803304FF40073ADF8F1
:104DB000003001D51C230FE0A80706D5182386482C
:104DC00069468DF8023001F0B8F8E9070AD54FF4CA
:104DD0008063ADF8003048237F4869468DF8023083
:104DE00001F0ABF80E238DF804300022012301A856
:104DF0008DF805308DF806208DF80730704C03F0E3
:104E0000CFFB9DE0754B98424AD1754B6D4AC3F874
:104E100008801A604FF48072DA601A61714A18656E
:104E20005A6102F580729A616F4A9A64DA64694B3A
:104E3000DA6942F40032DA615A6942F001025A61D9
:104E400002238DF803303A074FF00403ADF8003029
:104E500001D51C230EE0AB0706D518235E48694632
:104E60008DF8023001F069F8EE0709D50823ADF896
:104E700000304823584869468DF8023001F05DF84B
:104E800026238DF804300022012301A88DF8053077
:104E90008DF806208DF80730514C03F081FB4FE070
:104EA000524B984240F0EB80514B464AC3F8088081
:104EB0001A60504A18655A6102F580729A614FF47F
:104EC0008072DA601A614C4A3C079A64DA64414B9A
:104ED000DA6942F48022DA619A6942F008029A6142
:104EE0004FF002038DF803304FF48063ADF80030CB
:104EF00001D51C230FE0A80706D518233F486946B3
:104F00008DF8023001F019F8E9070AD54FF4006373
:104F1000ADF800304823394869468DF8023001F079
:104F20000CF827238DF804300022012301A88DF806
:104F300005308DF806208DF8073003F031FB2C4C3E
:104F40000026012384F844302662E661A662666288
:104F5000C4F82C906571C4F80880A7712046FFF74B
:104F6000A1FDEA0754D5206B002849D0E36C0396D5
:104F700001934FF480530A9380230693E3680596C8
:104F800004932023099363690796029308960B966E
:104F900003F0E2FD01A9206B03F0C0FD226B216D3F
:104FA000136843F0010313608B8A9BB243F0400304
:104FB0008B8253689BB223642AE000BF0038014013
:104FC00090110020E009010844000240D60A0020A8
:104FD0005800024000100240000801400044004018
:104FE0003C110020D60C0020044400400048004042
:104FF000E8100020D60E002004480040000C0140BC
:105000004FF6DF72236D1A80DA6842F02002DA6010
:10501000AB072CD5606B28B3A36C002501934FF42C
:1050200080530A93802306932369029504931023E7
:10503000039305950795089509950B9503F08CFD4D
:10504000606B01A903F06AFD636B1A6842F002020B
:105050001A60226D5D605D60938A9BB243F08003AD
:10506000938204E0226DD36843F08003D360226D05
:10507000204693899BB243F40053938100E00020C3
:105080000DB0BDE8F08300BF08B5084807F0E7FEA3
:10509000C0B209280246054B04DC01302021C0B211
:1050A0009954F6E700221A5408BD00BF9C1F002047
:1050B00008B5074807F0D3FEC0B21428044B04D843
:1050C000421C20211954D0B2F7E700221A5408BD1F
:1050D0009C1F00202DE9F04105460E46078A838972
:1050E0009BB21F40002F37D0B7FA87F24FF0004332
:1050F000D340DB4399B21F40A2F11B032982042B4A
:10510000F0D8DFE803F0221F1C190300746A24B1F1
:10511000013C0023A4B2736201E0AC8DA4B2D6F8C6
:105120002080B8F1000FDDD0D8F80030404621468D
:105130009847D8F80480F4E73068A98E08E07068D2
:10514000298F05E0B068A98F02E0F068B5F840103B
:10515000036889B29847C5E7BDE8F0812DE9F743B8
:1051600003F024F8B54E3368C31A002BC0F2B082A6
:1051700000F5433303F5A0733360B14B31791B78ED
:10518000C3F38003591A18BF012133714BB10029B1
:1051900000F09E82AB4B5A789A7001225A701A70B6
:1051A00025E0A84A29B1D37843F00203D37093785D
:1051B0005370D47804F0020101F0FF0339B9A1491A
:1051C0008968411A002903DB04F0010300E0012390
:1051D00003F001059B4915704BB1E40707D50B7926
:1051E000994A013303F001030B71D35C4B70954D69
:1051F000964F2B78002B40D0EB7823F00203EB7016
:10520000934B0344AE20AB60FFF743F908B101F0C4
:10521000E1F83870002800F05B82B020FFF739F920
:105220004020FFF736F90020FFF733F91020FFF791
:1052300030F94FF48064013C0020A4B2FFF724F958
:10524000002CF8D1204601F058F96A78032A0ED1D3
:10525000804BB3F9003043FA04F2D20703D57E4BFA
:1052600053F8240007E001340A2CF4D105E07A4B0E
:1052700003EB8203586A01F037F93B78002B00F00A
:1052800027826B78754C052B00F20F82DFE813F054
:1052900006000D0217007800FB013D017049714ABC
:1052A000714B724803F0EBFA012001F026F96F48C8
:1052B00001F01AF9022001F020F96D48F3E1DFF85E
:1052C000DC81D8F800309F0756D5DFF8D491002252
:1052D00099F80030674900936448134603F0CFFA09
:1052E000654FFFF7E5FE012001F007F95F4801F087
:1052F000FBF8396899F800200D79C97802FB05F3AD
:105300006FF063004D1B43435543B3FBF5F502209B
:10531000EDB201F0F2F8284603F088FAD8F8003030
:10532000180540F1C28100221346009253494F48AC
:1053300003F0A5FAFFF7BCFE032001F0DEF84B48AE
:1053400001F0D2F83B68988905F058F8054604202A
:1053500001F0D3F828464A4905F0A4F8294605F09B
:1053600055F905F065FA6428A8BF642020EAE070CA
:10537000C0B203F05BFA98E1EB7843F00203C2E0BD
:10538000012001F0BAF83F4B3F4F1B8813F0040F88
:1053900040F08A803D4B3E49B3F90020334803F08A
:1053A0006EFAFFF785FE022001F0A7F82F4801F002
:1053B0009BF8DFF8F08039682C4891FBF8F300295E
:1053C000B4BF4FF0FF32012283EAE37EAEEBE37E0F
:1053D00008FB1313002BB8BF5B420EFB02F22D49F2
:1053E00003F04DFAFFF764FE032001F086F81F4832
:1053F00001F07AF87B681D4893FBF8F181EAE17EC1
:1054000008FB1133AEEBE17E39684FF00508002947
:10541000B4BF4FF0FF320122002B1F490EFB02F2F6
:10542000B8BF5B4203F02BFAFFF742FE042001F005
:1054300064F80E4801F058F838E000BFD81000209A
:105440004A280020E0050020181901080A0300205E
:10545000404B4C0010030020FC090108971901087B
:105460001A19010815140108311401089C1F0020A5
:105470001014010823190108640500203B190108D4
:105480000000C842201E0020102800201406002022
:10549000501901085B1901086A1901081C1E002037
:1054A00040000020A08601004FF00208B7F9082054
:1054B000BB898949894803F0E2F9FFF7F9FD4046C5
:1054C00001F01BF8854801F00FF8854B7F895A8958
:1054D0000A23B2FBF3F28349B7FBF3F37F4803F0EF
:1054E000CEF9FFF7E5FD08F1010001F006F87B4871
:1054F00000F0FAFF7C4B1B6813F0820F40F0D58060
:10550000EB7823F00103EB70CFE0774B1B681906B3
:105510007FF532AF754BB1681B68754A8B421CBF73
:105520009360137B4FF001011CBF013303F00303B1
:105530004FF0000018BF137300F0ECFF337B002521
:10554000E05C00F0B6FF0220012100F0E3FF694BB0
:105550003620EB5C0135C3EBC30393FBF0F0C0B224
:10556000062828BF06206038C0B200F0A2FF102D28
:10557000EDD1614B61491B78584813F0020F604B25
:105580001A7814BF59234E2303F079F9FFF790FDE1
:10559000022000F0B2FF514800F0A6FF59495A4BD3
:1055A0004D680A684D4892FBF3F2584995FBF3F3B6
:1055B00003F065F9FFF77CFD032000F09EFF4748EC
:1055C00000F092FF524B53491A88444803F057F9B0
:1055D000FFF75AFD042000F090FF404800F084FFE0
:1055E0004D4B4E491A883D4803F049F9FFF74CFDF1
:1055F00004210A2000F08EFF384800F075FF484B68
:1056000048491A68354803F03AF9474DFFF73CFD21
:10561000052000F072FF314800F066FF6A68AB6851
:1056200042492E4803F02BF9FFF72EFD05210A20F1
:1056300000F070FF294800F057FF2B69EA683C49E9
:10564000D21A264803F01BF9FFF71EFD062000F0D2
:1056500054FF224800F048FFAA6836491F4803F06B
:105660000EF9FFF711FD06210A2000F053FF1B4839
:1056700000F03AFF30491522184807F01BFCFFF7ED
:1056800003FD07200CE02D4B1B889A077FF574AEB5
:10569000012000F032FF1148294903F0F0F8022000
:1056A00000F02BFF0D4800F01FFF1420002100F038
:1056B00031FF757B605D00F0FCFE224B1B781BB94F
:1056C0001E4B1B889B0703D5013505F00305757339
:1056D00003B0BDE8F08300BF791901089C1F0020CA
:1056E000202800208A1901081C1E0020CC0600205A
:1056F000D8100020AA060020C80900209C19010823
:10570000340600203806002080969800AD19010864
:10571000EC060020BA190108EE060020C2190108A3
:10572000E8060020C919010850060020D019010818
:10573000D9190108E0190108D1060020201E002017
:10574000E8190108170600200449054B09680022E2
:1057500018705A6199611A77704700BF881F00203E
:1057600050060020F8B5101A0D461F4604F046FEFC
:105770000446781B04F042FE174B079E196804F09C
:1057800091FE21460546204604F08CFE2946074638
:10579000284604F087FE0146384604F07BFD08F0F9
:1057A0000DFE0E4904F07EFE05F068F8069B2946C2
:1057B000186004F1004008F0FFFD094904F072FE92
:1057C000084904F067FD05F033F80028BCBF00F578
:1057D0000C40A0303060F8BD180000202C7D8E3FBA
:1057E000A00CB34500A00C4670B50446407904F007
:1057F00001FE1E4904F00AFF1D4D1E4E2860E07B8D
:1058000004F0F8FD194904F001FFEE606860A0792A
:1058100004F0F0FD184904F0F9FE184D2860207CD2
:1058200004F0E8FD114904F0F1FE6860A07E04F088
:10583000E1FD134904F0EAFEEE60A860E07904F0AF
:10584000D9FD0D4904F0E2FE0E4D2860607C04F0A5
:10585000D1FD064904F0DAFE6860E07E04F0CAFD7E
:10586000074904F0D3FEEE60A86070BD0000C84296
:10587000F00800200000FA4400002041E008002069
:1058800000007A44D00800200148024922E400BF09
:1058900000080040281F0020014802491AE400BF08
:1058A00000040040001F00204FF08040004911E438
:1058B000D81E0020014802490CE400BF002C014022
:1058C000B01E00200148024904E400BF002C014042
:1058D000B01E0020254B10B55A43254B254C1B68A4
:1058E0000139B3FBF2F20388013AA04289B292B2C5
:1058F0009BB212D004F50064A0420ED0B0F1804FEC
:105900000BD0A4F59834A04207D004F58064A042DF
:1059100003D004F58064A04202D123F070039BB24F
:10592000154CA04206D004F58064A0421CBF23F4AD
:1059300040739BB203800F4B8185984202850FD044
:1059400003F5006398420BD003F54063984207D0FB
:1059500003F58063984203D003F58063984201D138
:10596000002303860123838210BD00BF40420F0045
:1059700048000020002C01400010004073B505468F
:105980000068FFF7A7FF2A680124138800269BB24E
:1059900043F001031380EB7A01A88DF804308DF8F1
:1059A00005408DF806608DF8074002F0F9FDEB7AAE
:1059B0001B2B0BD1192301A88DF804308DF805405D
:1059C0008DF806608DF8074002F0EAFD02B070BD68
:1059D0000C4B800A98420CD004D8B0F5801F0CD133
:1059E00001207047084B984205D04933984206D0B1
:1059F00003E00220704703207047FE20704700201C
:105A0000704700BF01001000020010002DE9F843AC
:105A100004680746204688469146FFF7D9FF0328C9
:105A20004BD8BA7A9108B8F1000F06D1A589AEB269
:105A300002258D4026EA0505A5810A2303FB0013F4
:105A40001F4A42F82380043342F82390B8F1000F34
:105A500007D0BD7AA189AD080223AB400B439BB2AE
:105A6000A3812823434303F120011144EFF312865D
:105A7000502585F3128803F10C051C33154413449B
:105A800055F8047F17B10F60296804319D42F7D1A2
:105A900000230B60F3B283F31188282303FB00205B
:105AA000036A23B1A3899BB243F0010304E0A389F5
:105AB00023F001031B041B0CA381BDE8F88300BF86
:105AC000B01E00200148FFF7DCB800BFE81000203E
:105AD0000148FFF7D6B800BF3C1100200148FFF78E
