:020000040800F2
:1000000000500020C5B2000865B3000865B30008C1
:1000100065B3000865B3000865B300080000000080
:1000200000000000000000000000000065B30008B0
:1000300065B300080000000065B30008CB66000847
:1000400065B3000865B3000865B3000865B3000830
:1000500065B3000865B30008E14E0008DF4E0008F4
:1000600065B30008D966000865B3000865B30008E9
:1000700065B3000865B30008DD40000865B30008FB
:10008000E34E000865B3000865B3000865B30008D7
:1000900065B3000865B3000865B30008DD4E0008CD
:1000A00065B30008A93E000865B30008B93E000822
:1000B000993E0008893E0008793E0008352D000869
:1000C000392D00082D2D0008312D000865B30008DA
:1000D00065B30008D1400008C5400008B9400008D9
:1000E000DD66000865B3000865B300080000000085
:1000F0000000000000000000000000000000000000
:0C01000000000000000000005FF808F1A3
:100110002DE9F04F824B834C9FB0C4F898300023F8
:10012000C4F89C3005F036FA18B905F055FA07F016
:10013000BFFC07F063FD94F8A0307B4D43F0010352
:1001400084F8A03000230A930B930C934FF4E01330
:100150000D93764BA87B9A461A6842F480321A6057
:100160009A6942F010029A61DAF8003003F4003321
:100170000B930A9B01330A930B9B1BB90A9BB3F5A4
:10018000A06FF1D1DAF80030684913F4003301D0E0
:10019000022317E00A6842F001020A600A93DAF8C3
:1001A000003003F002030B930A9B01330A930B9B6D
:1001B0001BB90A9BB3F5A06FF1D1DAF800309A07AA
:1001C00041D501230C935A4B5A491A6842F0100248
:1001D0001A601A6822F003021A601A6842F00202DA
:1001E0001A60DAF80430CAF80430DAF80430CAF8D1
:1001F0000430DAF8043043F48063CAF804304E4B1C
:100200001A68043B22F070425A604C4A1160DAF8D6
:10021000041021F47C11CAF80410596841F000411F
:100220005960D96821F40041D9609B681B0449BF1B
:10023000434B4FF4E01313604FF480130D930C9B6A
:10024000012B01D118E0FEE7022B1BD168B10D9BF9
:10025000B3F5801F02D14FF4A01305E00D9BB3F559
:10026000E01F02D14FF400130D930D99DAF804301A
:100270000B4343F4803303E0DAF8043043F46013B3
:10028000CAF80430DAF8003043F08073CAF800305E
:10029000DAF80010254B8F01FAD5596821F00301D7
:1002A0005960596841F002015960DAF804301F487A
:1002B00003F00C03082BF8D14368224903F00C0328
:1002C000042B03D0082B03D01A4B12E0136810E064
:1002D00043684668C3F38343F60303F1020301D482
:1002E000194805E0406810F4003F106818BF400846
:1002F00043430B60DAF804301448C3F30313034498
:10030000187E0B68C3400B60EB7B003318BF0123E2
:1003100084F8A1301368074A934219D101221BE0E7
:1003200057760008C40000209824002000100240E6
:100330000020024000127A00041001402C0000202E
:10034000001BB7005000002000093D00FC0101081F
:10035000B64A934202D10222B54B1A70DFF82883C5
:10036000B44B0DF1780BC8F80C30DAF81830DFF820
:100370001CC343F00103CAF81830DAF82430AE4E3B
:10038000C4F8A430DAF82430604643F08073CAF829
:100390002430DAF81830002743F01C03CAF818306C
:1003A0004FF6FF732BF82C3D5946CDF808C08DF859
:1003B0004E7004F0A0FE3046594604F09CFE9F4863
:1003C000594604F098FEDDF808C002231EA98DF8F6
:1003D00047304FF010094FF40073604621F8343D68
:1003E0008DF84690CCF81030CDF808C004F083FEAC
:1003F000934A5846536843F00073536008F02AF953
:10040000904A139B3946B3FBF2F38F4A8F4813602F
:1004100018220CF06EFE8E4B4FF47A721B68B3FB01
:10042000F2F38C4A013B5360F02388F82330072312
:1004300097601360AB68DFF85882874FC8F80030C8
:1004400097E80F008BE80F00DAF81830139843F0A4
:100450000803CAF81830DAF8183014A943F0080372
:10046000CAF8183008233361C6F8109004F043FE30
:10047000159816A904F03FFED8F80030DDF808C042
:1004800013F0080FCDF80CC015D0744B93F88E31D3
:10049000012B10D8724A714BD2F8A42093F88F31F7
:1004A00012F0805200F0308505E06C4B002283F89A
:1004B0008F2107F083FD642006F0FDF8A022694833
:1004C00000210CF016FEDAF81C30002243F007037E
:1004D000CAF81C30DAF8183043F4006343F00C0318
:1004E000CAF818305E4B4FF0000903F1A80102F87A
:1004F000019001320E2AF5D1FF2283F8B62083F84D
:10050000B72083F8B82083F8B920574B574A49469B
:100510001A6057483C22D8F800600CF0EAFD4946C2
:10052000C6F380170523534ADFF844E1885C0C22A8
:100530004A4302F80E0047B91E3801289FBFFF202A
:1005400003F1FF3302F80E00DBB201310529EAD1D5
:10055000494A95F805901370484BB106C4F8BC3071
:1005600003F1C003C4F8C030454B3D4A03EBC90357
:100570005B7848BF0123C2F8C430002141481C22E7
:1005800084F8BA900CF0B5FD16F4005CDFF8048135
:1005900006F4006108D151B195F8822108F10C03ED
:1005A000012A08BF434604E0CDF8088002E008F1C4
:1005B0000C030293204BB9F10E0F0F93029B5B8843
:1005C000ADF84030029B1B88ADF842300FABC4F849
:1005D000E03004D009F0EF09B9F1080F02D101238E
:1005E00084F8DA3001200591CDF810C005F0F6FF4F
:1005F000DDF810C0C6F3400384F8CE301CF10003D0
:1006000018BF0123059984F8C830C6F3C03384F8B5
:10061000CD0084F8D07084F8CB3000293CD095F818
:1006200082315F1E7B427B4137E000BF001BB70079
:10063000BF2C00200005FA05000C0140001001400D
:100640000000014040420F00E8180020000E00208A
:100650005000002010E000E024020108982400204F
:10066000C400002050190020E01800208826002037
:10067000A418002025220108A1180020A824002089
:10068000601501088C01002000ED00E00008014029
:10069000F4180020FC0101080B4684F8CC30C6F3A6
:1006A000004384F8D130C6F3402384F8D230D4F824
:1006B000C430B5F84401003318BF012384F8D330A7
:1006C000C6F3005384F8D430B5F84631A4F8DE0000
:1006D000A4F8D830F004B5F8523148BFB648A4F8B1
:1006E000D630C6F3804306F00101C6F3C00284F899
:1006F000CF3048BFB0F84C61B5F8503148BFAF4873
:10070000A4F8DC3048BFA0F8DE60B3F5FA7F84BF00
:100710000023A4F8DE3095F8D231A94884F8E430FB
:10072000002384F8E530437094F8DA3084F8C91077
:10073000002B84F8CA200CBF0023022301B902B1A8
:10074000013308EB83039B6B9A1E1A330793002334
:1007500005920493059B994D33F8024F05934FF68C
:10076000FF739C4200F0928195F8CD20E3B2240AF9
:10077000E6B21AB19A1E012A40F2838195F8D02080
:1007800032B190491A0189588F4A914200F079811B
:1007900095F8D10030B18B491A0189588A4A9142A3
:1007A00000F06F8195F8CE2052B18649039F01EB8E
:1007B00003114A68BA4203D10A89102A00F0618104
:1007C00095F8CB2052B17F49039F01EB03114A6892
:1007D000BA4203D10A89022A00F0538195F8CC204D
:1007E00052B17849794F01EB03114A68BA4203D1FB
:1007F0000A89022A00F04581D5F8E0708FB1714A6C
:1008000002EB031EDEF804103A68914209D1BEF8EB
:100810000820B988914200F03481F988914200F0B3
:100820003081022C02D195F8C82003E0012C04D1BC
:1008300095F8C920002A00F0248195F8D320614C56
:100840001F0162B15D4A92F8DA2042B9A3F10802B1
:10085000012A04D8E2595E498A4208BF042695F865
:10086000D4203C445AB1554A92F8DA203AB910B132
:100870000C3B012B01E0043B032B40F2EB80012EEB
:1008800049D1DFF840C1FF2385F82C3185F82D319F
:100890000CEB07035A7B586803F108091B894FF0DA
:1008A0000008ADF84C3013A9022385F83081C5F853
:1008B0003C418DF84F30CDF818C08DF84E2085F8AA
:1008C000E880C5F8EC80C5F8F080C5F8F480C5F87C
:1008D000288185F82E8185F82F8104F00CFCDDF845
:1008E00018C099F802105CF80700424604F0A1FA1B
:1008F00020464146324603F03BFB364B3649C5F8AD
:100900004031364BC5F84881C5F8443120460A1DB0
:1009100003F076FBB5E0022E66D19DF810301C2165
:1009200001FB03FC254B9DF8101003EB0C09012380
:1009300089F830310893234B89F83111DA1902F123
:10094000080359794FF00008506812898DF84E104D
:1009500089F8328113A989F83A81C9F83C41CDF868
:1009600024C00693ADF84C208DF84F6004F0C3FB13
:10097000144B4246D859069B997804F05AFA089BC2
:1009800020461A46414603F0F3FA0C4B144ADDF8B0
:1009900024C0C9F840219C44124A0CF5A071C9F842
:1009A0004421C9F8488120460A1D03F029FB049B15
:1009B0000133049365E000BF98240020C4000020A8
:1009C000A90100208014010800040040000C01402F
:1009D000002C01406D4B0008040200204D4C000823
:1009E0006D4E0008454B0008032E31D195F8CF20FD
:1009F000994B95F8E670994E2AB1204608214FF69A
:100A0000FF72002318E0B3F8DC20B3F8DE30B2F553
:100A1000FA7F0BD992492046B1FBF2F2082192B23B
:100A200004F05EFC8F4B46F827000AE08E49204612
:100A3000B1FBF2F2012192B204F052FC8B4B46F86A
:100A40002700C36095F8E630013385F8E63018E0FA
:100A5000042E16D1B5F8D620834B204693FBF2F234
:100A60000121B5F8D83092B295F8E56004F038FC71
:100A700095F8E53005EB86060133C6F8100285F8D7
:100A8000E530059B079A93427FF464AE784B724C35
:100A90001A68039312F4802F02D1012384F83032B4
:100AA00094F8A030734F43F0040384F8A0303B78EF
:100AB0004FF48052022B34BF142310238DF84E3094
:100AC0004FF002038DF84F30DAF81830ADF84C20B3
:100AD00043F00403CAF8183034BF002601266648E4
:100AE00013A904F008FB654B0EB1654A00E0654AA6
:100AF00000201A6005F0F4FD634B644E93E8030098
:100B0000DAF818308BE8030043F00803CAF818300D
:100B1000139814A904F0EFFADAF81C304FF0030927
:100B200043F48043CAF81C30DAF81030304643F4FE
:100B30008043CAF8103018238DF84E3059464FF4D0
:100B40002043ADF84C308DF84F9004F0D4FA4FF0BC
:100B5000040C4FF48043304659468DF84EC0CDF812
:100B600010C04FF48058ADF84C3004F0C4FA102394
:100B7000594630468DF84E30ADF84C8004F0BBFA43
:100B8000DAF81030322043F48043CAF81030DAF833
:100B9000103023F48043CAF810303D4B1A8802F419
:100BA000415242F4457242EA09021A809A8B22F4B9
:100BB00000621204120C9A8307221A821A8892B2D7
:100BC00042F040021A809F23C6F810808DF844300E
:100BD00000238DF845308DF846308DF8473005F00C
:100BE0006AFDDDF810C0C6F814806246584611A9A7
:100BF00008F0E8FDC6F810809DF84E309DF84D20B5
:100C00001B0243EA02439DF84F201343214A9342BB
:100C100014D0322005F04FFDC6F81480F52008F0FE
:100C200007FEFF2008F004FE7028C6F8108005D1EA
:100C30003B78022B04BF0F4B83F800903B78032BCB
:100C40000CBF1F20022005F049FC3B78032B23D06A
:100C5000012002F087FA24E0C4000020F0190020EF
:100C600000127A006D4C000840420F005D4C0008F5
:100C7000F4180020BF2C002000080140A82C002000
:100C8000C9630008DD63000844020108000C01404C
:100C90000038004015202000022005F09FFC0028AD
:100CA000D6D0039BDFF8E8A21E684FF0100B06F4C5
:100CB00000630AF2312000215A4603933F780CF07A
:100CC00018FA4FF6FF73ADF84430022306F40049DA
:100CD0004FF000081E408DF846308DF8478010D048
:100CE0001EA921F834BDA14807F066FE01260422A2
:100CF00007238AF831228AF832828AF833628AF826
:100D00003432B9F1000F12D002231EA921F8343D6C
:100D1000964807F051FE0123F21884F8353284F822
:100D20003732072384F8366284F83832D6B2012F7E
:100D300013D920231EA921F8343D8C4807F03CFE2E
:100D40000523012284F8393284F83B22731C0722E0
:100D500084F83A6284F83C22DEB2039B9BB1022302
:100D60001EA921F8343D824807F026FE09230122FE
:100D700084F83D3284F83F22731C072284F83E62D7
:100D800084F84022DEB27B4F7B487B68002443F42A
:100D900040437B607B6943F001037B61BB6943F4A3
:100DA0000073BB6103F045FE13A803F017FE734BFD
:100DB000012E1393724B0797149394BF23468023FD
:100DC00018934FF4807319934FF48063A7F6F87764
:100DD0001A93202313A91B9338464FF400531696F9
:100DE0001C93159417941D9403F005FE3B68654A07
:100DF00043F001033B605368012E23F4702394BF3A
:100E00000021012123F4807343EA01235360916898
:100E10005D4B013E0B4043F4602343F002039360BB
:100E2000D36AF6B223F4700343EA0656D66201236E
:100E300056490A199078002851D0605C591C09283D
:100E4000C9B2D2784F4F10D9A0F10A06D7F80CC01A
:100E500006EB46064FF0070E0EFA06FE2CEA0E0EC3
:100E6000B2404EEA0202FA600CE03E6900EB400C30
:100E70004FF0070E0EFA0CFE26EA0E0602FA0CF2EE
:100E800032433A61062B3F4E0CD8013B776B03EBA4
:100E900083031F229A4027EA020200FA03F3134356
:100EA00073631BE00C2B0CD8DA1F376B02EB82024A
:100EB0001F23934027EA030700FA02F33B433363FF
:100EC0000CE0A3F10D02F76A02EB82021F239340AC
:100ED00027EA030700FA02F33B43F3620B460434AC
:100EE000102CA5D1274B9A6842F480729A609A68B8
:100EF00042F001029A609A6842F008029A6099688A
:100F0000204A090746D5FAE7013B092B3FF6D3AA49
:100F1000F86A02925946C6F81490CBF8000003987C
:100F200004F0E9F8039B3C201A460823136105F0FE
:100F3000C2FB029AC6F81090164695F88F319E4271
:100F4000BFF6B3AA039BDFF828900827C9F81070F2
:100F500078205F6105F0A4FB039BC9F8147078202A
:100F60001F6105F09DFB0136E7E700BF0008014067
:100F7000000C014000100240080002404C240140D7
:100F80000603002000240140FDF7F1FFF5020020D8
:100F9000C4000020936843F004039360B94B9A683F
:100FA0005207FBD49A6842F4A0029A60B64BB3F899
:100FB0005801002840F0F486B3F95A21002A40F085
:100FC000EF86B3F95C31002B40F0EA86AF4FB04CAE
:100FD0003B68AD4E13F4003F26D0C820B6F8F88722
:100FE00005F069FBAE2002F028F808B102F02AF8FB
:100FF00084F84A02C82005F05EFBA4F85082DFF8AE
:10100000EC82A44B00210C224046C4F84C320CF078
:1010100070F8022388F8033002F040FB05F024FB4F
:101020009D4B0344C8F80830D4F8543296F868C190
:10103000B3F956E0B6F8600196F85F1196F86721AB
:101040006346CDF800E003F067F810B9012005F021
:101050004DFB94F8A030102243F0020384F8A03036
:101060008E4B4FF00A085A6108221A61DFF82C9261
:101070001920D9F80C3008F1FF3883F01003C9F8B3
:101080000C30D9F80C3083F00803C9F80C3005F0A7
:1010900012FB012005F024FB192005F00CFB0020B9
:1010A00005F01EFB18F0FF08E0D10823C9F8103046
:1010B0004FF0100A7A4BC9F810A01A68984612F03F
:1010C000080F09D0774BC9F814A01B689847764BD6
:1010D0000122C9F810A01A70744B188809F02EFB71
:1010E000D5F858328146187B09F028FB704909F081
:1010F00079FB06F0D3FC0146484609F073FB0DF07E
:101100006FFA4946A5F85C026A4809F01FFC6A4973
:1011100009F01CFC694BC5F860026549D86809F004
:1011200061FB674909F05EFB5A49B6F84E31654AE2
:10113000C5F86812D5F854E2C5F87012B6F89411E3
:10114000A5F86C32002313809370C5F864020EF189
:10115000790285F874321FFA81FCDFF894915A48BD
:10116000D9F80050DFF88CA105F596754AF82350A0
:1011700020F813C00133122B4D46EED1D7F8009062
:101180000EF1C90E19F4805F08BFB6F89AC1A0F835
:1011900006C01378B3B9937892F803C0634511D2AF
:1011A0000BB1013B01E00CF1010303EB830392F867
:1011B00001C003EB830303F561739BB20CF1040CD4
:1011C00020F81C3004327245E3D119F0080F00F00A
:1011D000008196F88E31062B00F2F480DFE803F0F0
:1011E00004070E358CACAC0045F2F05301E042F63A
:1011F000F823A4F8C03208F043FDE2E042F6F823F9
:101200000901A4F8C0320A2391FBF3F10023A1F5F0
:10121000B0612E4A42F823100133122BF9D12C4A27
:101220002C49402011602C4A137005F0FBF900286E
:1012300000F0C88001234FF0070A90F90000402118
:101240008DE80804254A264BB6E042F6F823254AE5
:10125000A4F8C0321E4B40201A601F4B10221A7097
:1012600005F0E0F9002800F0AD8001234FF00009FF
:1012700090F9000040218DE808021B4A4FF4E13349
:101280009AE000BF0024014098240020F4180020B8
:10129000C40000201E260020404B4C00000C0140E2
:1012A000380E0020400E0020100900200000002011
:1012B00035FA8E3C0AE81C4100401C46880D00208F
:1012C000BD3786355C220020C8230020482100203D
:1012D00038000020038100089C2C00208583000832
:1012E000A0860100FF800008D982000804090020C0
:1012F0006C2400203C03002042F6F8235B4AA4F84B
:10130000C0325B4B40201A605A4B08221A7005F01D
:1013100089F9002856D001234FF0000C90F9000005
:1013200040218DE80810544A4FF4E13305F004F9E8
:10133000524BC3F8C40241E042F6F8224D49A4F8EA
:10134000C022062B4FF00C02DFF868C1DFF868E11D
:101350004B480A7010D000238CF800308EF8003013
:101360000370484B1B211970474B4FF4E1391A7039
:10137000464B05221A700EE0002101708CF8001017
:101380008EF800103F49212008703F49DFF82C916A
:101390000A703E4A13703E4A354B40201A6005F0F1
:1013A00041F978B101234FF0000E90F900008DE86B
:1013B00008404B46374A402105F0BEF8003018BFC0
:1013C000012030B9B368344A23F00803B360284BD6
:1013D0001A603B68274A13F4804F1FBF1221117017
:1013E0002E48234918BF086042F20101194099B103
:1013F00044F620619804A4F8C01241BF082111707E
:1014000027481B4948BF0860D90741BF0C2111700C
:101410002448174948BF086011781B06A1F1040150
:1014200051705AD5DFF898900020C4F8C89202F0A5
:1014300083FC2A681C4B0120DA601C4B02211B68CC
:10144000A9F5F8751B78002B14BF0322012296F82A
:10145000F73100920022019205F06EF8144B1860EB
:1014600080BBAB6823F08003AB602EE0FB800008FC
:10147000380000209C2C00208D820008C400002031
:10148000B4210020B621002045210020B7210020F2
:10149000418000086D8100085581000831810008F5
:1014A000458100083581000870090020900900205E
:1014B0006C09002046210020B521002090D00300B7
:1014C00088260020012002F037FCD4F85402CD4BCE
:1014D00000F5C5721A6002F07FFC029B0425C4F877
:1014E000CC32079B4FF0030B9A69C74842F00102C8
:1014F0009A61029B0EA91A888DF83A50ADF83820EF
:101500008DF83BB003F0F7FD029BBF485A880EA947
:10151000ADF838208DF83A5003F0EDFD029B012024
:10152000197A03F0D3FD029BB8495A684FF01003B3
:101530004A610025012613A813928DF851308DF8C9
:1015400050508DF8526007F0F9F9029B11A85A7AB1
:101550008DF845B08DF844208DF846508DF84760E1
:1015600008F012F9AA4ADFF8D0921268DFF8CCA28C
:101570003C3AC4F8D022D8F8002084F8E05242F077
:101580001002C8F800204FF0FF32C4F8D422A14A5C
:10159000C4F8D8228032C4F8DC223A68D00340F183
:1015A000AE8040F22A3802F06FFB09F2E12902F026
:1015B000A3FB02F08BFB09F8016C29464246484622
:1015C0000BF097FDDAF81820934842F00402CAF8AD
:1015D00018204022ADF838200EA918228DF83B20A3
:1015E0008DF83AB007F0E8F9DAF81C208B4942F0A0
:1015F0000202CAF81C208A4A8A4F1268DFF840B2F9
:10160000B2FBF1F23988013A21F45C710904090C4A
:10161000398092B21D21B9853A85BE823A8C22F07A
:1016200001021204120C3A843A8CB888398B22F0E9
:10163000020221F0730109041204090C120C41F09A
:10164000600180B23243B8803983BD863A843A8BD8
:10165000584622F008021204120C42F008023A83A3
:10166000B7F844206FEA42426FEA524292B2A7F8BA
:101670004420DAF814203243CAF8142003F0D9F9D0
:1016800013A803F0ABF9684B584613931023159336
:10169000802318934FF48073199313A94FF40053C8
:1016A0001C93CDF85090CDF8588017951A951B953E
:1016B0001D9503F0A0F9BB8911A89BB243F40073F8
:1016C000BB81DBF8003043F00203CBF800304FF071
:1016D00010038DF845608DF844308DF846508DF834
:1016E000476008F051F8514B1A68514B43F82520D8
:1016F0000135202DF7D103F00BFC03F009FC4D4B15
:101700001A68029312F4806F00F06481D4F88C663A
:101710000420C4F8906604F085FF04218046C4F8D4
:10172000940604F075FF074684F898060820C4F86C
:101730009C6604F077FF0821C4F8A00604F068FF57
:101740003D4D84F8A40600212C2205F2A5600BF083
:10175000D0FC8E232C2200214FF07C0A84F8A63680
:101760004FF07D09E02305F2D16084F8A83684F8B3
:10177000A5A684F8D0960BF0BCFC8A2384F8D23658
:101780001020A02384F8D43684F8D1A684F8FC96DF
:10179000C4F8006704F046FF1021C4F8040704F001
:1017A00037FF84F808072020C4F80C6704F03AFFDC
:1017B0002021C4F8100704F02BFF84F814073846E2
:1017C00007F0CCFF94F815370746834242D0002833
:1017D00038D0B8F1000F3DD0022398F900000093F3
:1017E00073780421003318BF0123019300224FF4C2
:1017F000165304F0A1FEC5F8180758B3012385F865
:10180000153727E0200C0020000C014000040140A7
:101810006C240020C42600200008014000366E0120
:101820005000002000040040340400404C02010835
:10183000D0060020F4180020C40000200010024050
:101840006C000240D5F8180704F060FEC5F8187760
:1018500085F8157794F8A40607F080FF94F81C37F4
:10186000B84D834206461AD088B1D5F8A036B3B138
:101870000022012693F900000821009601924FF4FE
:10188000964304F059FEC5F8200730B907E0D5F8B3
:10189000200704F03BFEC5F8206785F81C6794F824
:1018A000080707F05BFF94F82437A64D83420746EC
:1018B00059D0002837D0D5F80427002A53D0D3793F
:1018C00092F90000002B4FF002029F4E08BF032345
:1018D0000092002256F823300192102104F02CFED1
:1018E0000646C4F8280700283DD095F84A30022B58
:1018F0000BD095F89620022A01D14C3505E023B192
:10190000002A05F14C0518BF0025C4F82C5745B135
:10191000284600214C220BF0ECFB02232E6085F8B8
:101920004A3001231DE0D5F828672B68B34207D160
:10193000304604F0EBFD284639464C220BF0D9FB2B
:10194000E36CB34207D1304604F0E0FD7F4800214C
:101950004C220BF0CEFB304604F0D8FD0023C4F837
:10196000283784F8243794F8140707F0F7FE94F822
:101970003037744D834206462CD008B3D5F8103763
:1019800043B3D5F80C2793F9000052780323002ABB
:101990000CBF0822092200930192202100224FF45B
:1019A000614304F0C9FDC4F8340798B1012385F8F8
:1019B000383785F83037664B1B68C5F83C3709E087
:1019C000D5F8340704F0A2FDC5F8346785F8386708
:1019D00085F830675F4B604D1B78022B64D15F4AFE
:1019E00000261388322023F040031B041B0C1380B5
:1019F00013884FF4805723F038031B041B0C13800B
:101A000013889BB243F0400313809F238DF844302A
:101A10008DF845608DF846608DF8476004F04BFE08
:101A20008DF84D604E4E0422776113A811A907F07E
:101A3000C9FE37619DF84E309DF84D201B0243EAE8
:101A400002429DF84F301343464A934219D00AD8B8
:101A5000A2F51A42033A93420CD002F51A4202321E
:101A6000934209D01BE0404A934205D00132934291
:101A700007D014E0202300E08023AB804FF4807374
:101A800002E04FF48073AB80EB802B89AA881B02A5
:101A9000EB6053432B61354B01221A7004E00023A5
:101AA000AB80EB80EB602B612B69002B00F0078192
:101AB0004FEAD328C1464FF0000AC2452CDA0AEBA0
:101AC00008077F10FB0203228DF8442000261A0C21
:101AD0001B0A8DF845208DF846308DF8476007F0D9
:101AE000E9FEC8B11E4B4FF4805CC3F814C011A9C5
:101AF000042230460DF14C0BCDF810C0039307F0D3
:101B000061FE58463146102207F05CFE039BDDF86B
:101B100010C0C3F810C00AE04FEAC923039394F839
:101B2000412794F84037934200F0C68020E05BF8EC
:101B30002630013340F015810136042EF7D1B84626
:101B4000B946BAE7C4000020400F01081001002088
:101B50006C240020BF2C0020000000200038004032
:101B6000000C014018BA20001740EF00702400203C
:101B70007E499A4201EB03001190129108D3D31AC7
:101B8000139300231493139B149A02EB030857E05A
:101B9000C3F1800313931492F5E7D4F8C477FEB22F
:101BA00008EB0603B3F5807F2B698CBFC6F5807602
:101BB00046469F427BD20223DFF8B8918DF8383039
:101BC0003B0C4FF4805A8DF839303B0A8DF83A308F
:101BD0008DF83B7007F06EFEC9F814A0062007F0E0
:101BE00027FE634B0122C9F810A000201A700EA92D
:101BF000C9F814A0042207F0E5FDDDF84CA0BAF105
:101C0000000F21D0B24530D2DDF844B00020594653
:101C1000524607F0D7FD0BEB0A010023CAEB060979
:101C200011911393DDF850A0BAF1000F0ED1514B72
:101C30004FF48052C6EB08083E441A61C4F8C467EA
:101C4000B8F1000FA9D132E0B146EBE7CA4511D295
:101C5000DDF8489000204946524607F0B3FD09EBF5
:101C60000A01002312911493E1E7B14600230DF11C
:101C70004C0B02E00DF1500B04230DF1440C5CF809
:101C800003A04A46002051460593CDF810C007F046
:101C900099FD059BDDF810C00AEB09024CF8032002
:101CA000DBF80030C9EB0303CBF80030BFE70023BB
:101CB00084F8413784F84037039BC4F8C437029B4B
:101CC0001B6813F4002318BF012384F8C83704F0FD
:101CD000CBFC294B4FF47A711860284B5A79052AAE
:101CE00004BF4FF4C872A4F8CA27254A1180254AB8
:101CF000C821118024490A7842F008020A70234959
:101D00000A7822F002020A70029A116840F6020272
:101D10000A406AB11E4A0320C4F8CC271D4A10703D
:101D20001D4A012010700022A4F8D027A4F8D22761
:101D30008A0341BF194A01211171D1789B6844BFC0
:101D400041F00101D170029A1360012384F830320E
:101D500094F8A03063F07F0384F8A0301FB0BDE892
:101D6000F08F07F1010A4F46EAE600BF060800209F
:101D700070240020000C0140BC08002098240020A2
:101D8000B82C0020BA2C0020A8210020BC2C002058
:101D900010260020482200204C00002004090020CA
:101DA000424B00221A7000B208F0C8FC404908F00B
:101DB00019FD404C0746B4F95A0108F0BFFC3C49F4
:101DC00008F010FD0646B4F95C0108F0B7FC38498C
:101DD00008F008FD0446384605F060FE81463846A6
:101DE00005F0E8FD0746304605F058FE80463046CF
:101DF00005F0E0FD0646204605F050FE83462046ED
:101E000005F0D8FD49468246584608F0EBFC4946A5
:101E10000390504608F0E6FC59460490384608F016
:101E2000E1FC51460590384608F0DCFC414606903E
:101E3000584608F0D7FC204C5146206008F100407D
:101E400008F0D0FC31466060A660059808F0CAFC36
:101E50000146049808F0BEFB3146E060069808F0A1
:101E6000C1FC0146039808F0B3FB4146206107F12D
:101E7000004008F0B7FC31466061039808F0B2FCFE
:101E80000146069808F0A4FB3146A061049808F0CA
:101E9000A9FC0146059808F09DFB4946E0614046D3
:101EA00008F0A0FC2062FFF791B800BF14000020EA
:101EB00035FA8E3C98240020D00800202DE9F04F00
:101EC00087B06C4C02916C4922880E680546C2EBC3
:101ED00026135B435200C2EBE602B4F902601B1307
:101EE0005643B4F90420B4F90A0053439B1303EB9F
:101EF000E62606EB860380331B12B6F5FA384FEA66
:101F0000E67704934B6847F1FF39A8FB08AB0393CE
:101F100008FB09F3B4F908200BEB430BE389A66136
:101F20000593D31708FB03F102FB0911A8FB022359
:101F30000B44C1171F030AFB01F300FB0B33AAFB81
:101F400000011603194447EA1257020A42EA0162E5
:101F500092194FEA2123E6887B410032A2FB060159
:101F600043F5004306FB03114B100093CB1701937D
:101F7000DDE900231343B4F810E0B4F80CC06DD0D1
:101F80000FFA8EF0C1170AFB01F1AAFB002300FB38
:101F90000B11BDF914600B44F71708FB07F106FBA2
:101FA0000911A8FB06670F4479047004801841EA00
:101FB000D6315941039B0FFA8CF8C3F5801E724647
:101FC000D317002212184FEACE764FEAC3774FEAB2
:101FD000C8034B4147EA5E07B61A67EB030740F6B2
:101FE0003543A6FB030103FB0711DDE9002308F0DD
:101FF00005FEB4F916204E1302FB06FE470B47EA16
:10200000C147D31707FB03EEA2FB072356437344D4
:1020100007FB0366A2FB07233344560E46EAC316AA
:102020008219B4F914604FEA636741EB0703714307
:10203000F71700FB0717A6FB00013944C60C46EA58
:10204000413692194FEAE1474FEA1221B4F91220C2
:102050007B4141EA036113010B4400E000230DB111
:102060001B0A2B60029B13B11A46049B136007B036
:10207000BDE8F08F1C0E0020240C00207047704734
:102080006B4B6C4A2DE9F04F5E8994684FEA062A43
:10209000B4EB0A0A9C884FF000054FEA04481C89FB
:1020A0004FF0000BA4FB0A6765EB0B0B04FB0B77EF
:1020B000F40944EA476418EB04065C884FF0000911
:1020C0004FEAE7154FEAC438DC8849EB050787B0CB
:1020D000CDE90467A4FB0A6704FB0B77340A44EAE2
:1020E000076418EB04064FEA27259C894FF0000986
:1020F00049EB0507CDE90067AAFB046704FB0B77F2
:10210000F40D44EA472414F5FA664FEAE75545F121
:102110000007B6F5FA6F77F10003CDE9026796463E
:1021200066DADDE90489A4FB046704FB05F34FF0DC
:10213000050C07EB4307A6FB0C230CFB07335F10D2
:102140004FEA3206B8EB06084FEA920646EA837673
:1021500069EB07099F10DDE90023921B63EB07037E
:10216000CDE90023DDE90267334A4FF0FF339642A1
:1021700077EB0303CDE9048927DA40F6AC5200235C
:10218000A4185D4104FB05F3A4FB04456FF00602AF
:1021900005EB4305664202FB0566A4FB02233344BC
:1021A00018EB020649EB0307CDE904670B26A4FBF5
:1021B000062306FB0533DDE900455B104FEA3202DA
:1021C000A41A65EB0305CDE90045DDE902450AFBEC
:1021D0000BF3AAFB0AAB0BEB430B4FEADA7242EAB2
:1021E0004B02A41A4FEAEB7365EB0305CDE90245F8
:1021F000DEF80C40009B019DA4FB032304FB053388
:102200004FEA525848EAC3284FEA6359DDE90423EC
:10221000B8EB020269EB03039946D30B43EA494347
:1022200000B1036009B1029B0B6007B0BDE8F08FFD
:10223000B00D0020240C002024FAFFFF2DE9F0410E
:10224000324C334D62892B8AB4F904809A1A23895F
:10225000B4F902E05A43B4F91230D613B4F9142099
:10226000DB02324493FBF2F232440A26E261564327
:10227000A2F57A6202FB02F3B4F90EC002FB0EFE75
:1022800002FB08F2B4F90C801B130CFB03FC03FBEC
:1022900008F31B1403EB62320232E388921002F55A
:1022A000004253434CF25032B4F920704FEAEE2E04
:1022B000B4F900400EEBEC2C0CEB8404BC406D69CF
:1022C0000234A5EBA4043A4162434FEAD3384EBF2F
:1022D000B2FBF8F35400B4FBF8F340F6DE3448BF29
:1022E0005B001A12524362430A4C08365C432414C2
:1022F00004EB224202F6CF62361103EB221300B147
:10230000036001B10E60BDE8F08100BFC40D002084
:10231000240C002043E3FFFF13B50C4B04465B681D
:102320001B20022101AA984770B19DF804209DF856
:10233000053043EA022303F54E5310334FF48C72F9
:1023400093FBF2F32333238002B010BD9C0D0020D9
:1023500037B5104B04465D68187806216A46A847D1
:10236000A8B19DF800209DF80130012043EA022326
:1023700023809DF802209DF8033043EA0223638006
:102380009DF804209DF8053043EA0223A38003B0A2
:1023900030BD00BF9C0D002013B5104B04465B6898
:1023A0003B2006216A469847A8B19DF800209DF879
:1023B0000130012043EA022323809DF802209DF88A
:1023C000033043EA022363809DF804209DF8053022
:1023D00043EA0223A38002B010BD00BF9C0D002081
:1023E000B0F5807F0ED0BB280ED861280ED82928E2
:1023F0000ED813280ED809280ED8002814BF06209E
:10240000002070470020704701207047022070476D
:1024100003207047042070470520704710B5224CF8
:102420002368998A89B211F4706F1EBF1F4A012078
:10243000107611F4E06F2BD01A8B9A88890522F45C
:1024400080624FEA02424FEA12429A8020D41A88F0
:1024500092051DD41A88D0050FD51A88D105FCD451
:102460001A8892B242F400721A801A889205FCD43B
:102470000F4B187800F076FE0AE01A8892B242F408
:1024800000721A809A8822F440721204120C9A8008
:102490002268938A23F470631B041B0C9382054B00
:1024A00000221A7010BD00BF4C0C0020240C00202C
:1024B000500C0020640C0020054A08B51388013335
:1024C0009BB21380034B187800F04CFE002008BD2F
:1024D0004A220020500C002008B54FF4804006F03E
:1024E0005DFA012801BF044B4FF480425A61034B4F
:1024F00008BF587608BD00BF00040140240C00202E
:1025000010B5054C2368186906F048FA18B123681D
:102510001A69024B5A6110BDA80D00200004014049
:10252000F8B50E461746084C4FF48055656140F0EB
:10253000800007F07DF938460021324607F042F965
:1025400025610120F8BD00BF000C014070B50E46AA
:10255000054C4FF48055656107F06AF9304607F085
:1025600067F92561012070BD000C014070B5FFF7CF
:1025700037FF104C0546192004F09DF8A36815207C
:102580000021984710B9022004F0B0F845F0180176
:10259000A368C9B216209847A3680021172098475E
:1025A000A36801213D209847A3683E200121BDE892
:1025B000704018479C0D0020F0B5274D85B0AB7ECC
:1025C000002B46D1254C2368002B42D01A68244E9C
:1025D00012B1B1690A43B2619A889868ADF80020D7
:1025E00002228DF80320694604228DF8022002F0B1
:1025F00082FDB369002743F00103B361236801261C
:10260000187B197D02F062FD2368164993F91500C5
:1026100004F0B6F82368144A1B6953610293082337
:102620000DEB03008DF80D308DF80C708DF80E60F9
:1026300006F084F9236801A85B7D8DF806708DF89B
:10264000043003238DF805308DF8076007F09CF8FF
:10265000AE7605B0F0BD00BF240C0020A80D002010
:1026600000100240012500080004014037B504466F
:10267000FFF7A2FF254B1A68254B9A420ED14FF463
:102680000053ADF8043002238DF8073004232148AD
:102690000DEB03018DF8063002F02DFD2046FFF70B
:1026A0009FFE05461C4C8021A3686B209847642040
:1026B00004F001F8A368072168209847642003F01C
:1026C000FAFFA36800216B209847642003F0F3FF12
:1026D000A36801216B209847A36818211B20984705
:1026E000A36810211C209847A36829461A20984700
:1026F000A368002119209847A36812213720984722
:10270000A36801213820984703B030BD2C00002079
:10271000001BB700001001409C0D002008B5FFF71A
:102720004BFF024B4FF480521A8008BD000000207E
:1027300070B50446FFF740FF2046FFF751FE0546FF
:10274000144C8021A3686B209847642003F0B3FFEA
:10275000A368002119209847A36803216B2098479C
:102760000F2003F0A8FFA36829461A209847A36802
:1027700018211B209847A36810211C209847A368A4
:10278000022137209847A36838200121BDE8704016
:10279000184700BF9C0D002008B5FFF70DFF074B41
:1027A0005B7813B1012B03D008BD4FF4006201E048
:1027B0004FF48052024B1A8008BD00BF980D0020D4
:1027C0000000002010B54000204CC0B2207020480E
:1027D000204C0170204800210170012020701F4C06
:1027E00023601F4C23601F4B1A701F4A1F4B107031
:1027F00019761F49086811461A4630B383889C052C
:1028000015D40388DB050DD447F230530488A405A2
:1028100002D5013BFAD112E08BB103889BB243F49D
:102820008073038083889BB243F44073838047F2B4
:102830003053087810B1013BFBD100E013B9BDE87B
:10284000104039E6107E80F0010010BD560C0020CB
:10285000540C0020520C00205C0C0020580C00206E
:10286000600C0020550C0020640C0020240C00207B
:102870004C0C002007B5F7216B4606227620FFF7A7
:10288000A1FF9DF800309DF801101B0343EA0113DE
:102890009DF80210094A43EA111353609DF8033072
:1028A0009DF804101B0343EA01139DF8051043EA49
:1028B0001113136003B05DF804FB00BF240C00206B
:1028C00007B5002101AB03227720FFF77BFF9DF8BE
:1028D00005309DF804001B0243EA00439DF8060002
:1028E000184303B05DF804FB08B5FFF7E9FF014B9F
:1028F000D86008BD240C002008B5FFF7E1FF014BAC
:10290000986008BD240C00200F4B13B51B780F4CAA
:102910000BB1637EB3B1032201AB7720F621FFF741
:1029200051FF9DF805309DF804201B0243EA024345
:102930009DF806201343064AB2F92020C2F108028E
:10294000D340636102B010BD28000020240C002099
:10295000C40D00200A4B13B51B780A4C0BB1637EE3
:1029600063B1022201AB7720F621FFF72BFF9DF820
:1029700004209DF8053043EA0223238202B010BDF3
:1029800028000020240C002030B505460C461346D4
:1029900029462246BDE83040682013E713B50622D9
:1029A000044601211C206B46FFF70CFF08B39DF87D
:1029B00001309DF80020042143EA022242F38D02F7
:1029C00092FBF1F29DF8023022809DF8032042EA4A
:1029D000032242F38D0292FBF1F29DF804306280F3
:1029E0009DF8052042EA032343F38D0393FBF1F3A3
:1029F000A38002B010BD13B50622044602211820A0
:102A00006B46FFF7DFFEB8B19DF800309DF801205E
:102A10009B0803EB022323809DF802309DF80320DE
:102A20009B0803EB022363809DF804309DF805208A
:102A30009B0803EB0223A38002B010BD314B2DE9AC
:102A4000F3411B780546002B3BD000242646274641
:102A5000A04601345320322108226B46E4B2FFF72E
:102A6000B1FE08B9002049E09DF801209DF8003032
:102A7000202C03EB02231BB29DF8032098449DF801
:102A8000023003EB02231BB21F449DF805209DF882
:102A9000043003EB02231BB21E449DF8073003F001
:102AA0007F0301D0002BD4D198FBF4F897FBF4F707
:102AB00096FBF4F6144BA5F800806F80AE80DC76B0
:102AC0001CE05320322106226B46FFF77BFE0028D4
:102AD000C8D09DF801209DF8003003EB02232B8025
:102AE0009DF803209DF8023003EB02236B809DF8D4
:102AF00005209DF8043003EB0223AB8002B0BDE853
:102B0000F08100BFAE0D0020240C002013B502ABF5
:102B100003F8012D4000214AC0B21070204A002065
:102B20001170204901220A701F4908701F490B606B
:102B30001F490B601F4B20491A700A701F4B204A17
:102B4000187610681A4630B383889C0515D403881C
:102B5000DB050DD447F230530488A40502D5013BB0
:102B6000FAD112E08BB103889BB243F480730380E7
:102B700083889BB243F44073838047F230530878D4
:102B800010B1013BFBD100E013B9FFF795FC02E067
:102B9000107E80F0010002B010BD00BF560C002076
:102BA000540C00205C0C0020520C0020600C002013
:102BB000580C0020550C0020640C0020240C002030
:102BC0004C0C00207620F42131229FE77720482109
:102BD00001229BE777205821012297E7064B00212D
:102BE00093F82020054B9201343259767720F42156
:102BF00002F0FC028AE700BFC40D0020240C002074
:102C0000034B00225A767720F4212E227EE700BF64
:102C1000240C002003460A466820194676E713B5BF
:102C200000222A211C20FFF771FF0E2102221C2006
:102C3000FFF76CFF0F2103221C20FFF767FF2B21FA
:102C400012221C20FFF762FF164A022493691648DD
:102C500043F0040393612023ADF8043004230DEB0B
:102C600003018DF806308DF8074002F044FA224641
:102C70002C211C20FFF74AFF2D2101221C20FFF7E9
:102C800045FF2E2100221C20FFF740FF2A210522AC
:102C90001C20FFF73BFF054B4FF480721A8002B0F7
:102CA00010BD00BF001002400008014000000020DD
:102CB00008B50F2108221820FFF728FF0E22182040
:102CC0001021FFF723FF024B4FF480521A8008BDFA
:102CD0000000002008B5134B53201B782D2108223B
:102CE0007BB1FFF713FF31210A225320FFF70EFFBC
:102CF0002C210C225320FFF709FF5320382190226A
:102D000009E0FFF703FF31210A225320FFF7FEFEFF
:102D100053202C210A22FFF7F9FE40F20912024B40
:102D20001A8008BDAE0D00200000002000F026BB78
:102D3000FFF774BB00F022BBFFF770BB37B504464A
:102D400003211E2006226B46FFF73CFD70B39DF861
:102D500001309DF80000164D43EA002000B207F054
:102D6000EDFC296807F03EFD07F002FF9DF80330F7
:102D700020809DF8020043EA002000B207F0DEFC4C
:102D8000A96807F02FFD07F0F3FE9DF80530A0803D
:102D90009DF8040043EA002000B207F0CFFC696808
:102DA00007F020FD07F0E4FE6080012003B030BD95
:102DB0001C00002010B5054C2368186905F0EEFDD5
:102DC00018B123681A69024B5A6110BD3C0E0020ED
:102DD000000401402DE9F0437B4A87B01368904618
:102DE00093B11A681AB17949886902438A619A884D
:102DF0009868ADF8002002228DF80320694604226D
:102E00008DF8022002F077F9322003F054FC002103
:102E100011221E20FFF77AFE012160221E20FFF7FB
:102E200075FE642003F047FC002402A8FFF786FF2C
:102E3000274626460A25022101221E20FFF766FEAC
:102E4000322003F038FC02A8FFF778FFBDF9082014
:102E5000BDF90A1014448A42A8BF0A46BDF90C30D5
:102E60000F4493421E44A8BF134613F5805F09DD4B
:102E7000574A013DD36883F01003D360DBD14FF094
:102E8000010901E04FF000091E2000211222FFF786
:102E90003DFE0A25022101221E20FFF737FE3220C7
:102EA00003F009FC02A8FFF749FFBDF90820BDF9AE
:102EB0000A10A41A8A42A8BF0A46BDF90C307F1A2C
:102EC0009342A6EB0306A8BF134613F5805F07DD08
:102ED0003F4A013DD36883F01003D360DAD101E0AB
:102EE0004FF00009204607F029FC0146394807F059
:102EF0002DFD394D20F000402860384607F01EFCBB
:102F00000146344807F022FD20F00040686030465A
:102F100007F014FC0146314807F018FD20F000408E
:102F2000A860002170221E20FFF7F0FD0121202261
:102F30001E20FFF7EBFD1E2002210022FFF7E6FD19
:102F4000642003F0B8FBB9F1000F04D14FF07E53B9
:102F50002B606B60AB60D8F800301B4C1A7B002AEA
:102F60002FD01A7D6AB3194900268A69012542F0DB
:102F700001028A61187B197D02F0A8F823681849BC
:102F800093F9150003F0FCFB2368164A1B6904A89B
:102F9000536104930C238DF815308DF814608DF86F
:102FA000165005F0CBFC236801A85B7D8DF8066008
:102FB0008DF8043003238DF805308DF8075006F0A6
:102FC000E3FB07B0BDE8F0833C0E00200010024098
:102FD000000C014000406F461C00002001C05E460E
:102FE000B52D000800040140024640213C20FFF7B7
:102FF0008DBD70B500EB8000094CA0F1A1059C3897
:1030000025440444074B15F8010F1E787040FFF764
:10301000EBFFA542F6D13046BDE87040E4E700BFC3
:10302000C4080108BD2C002010B5441E14F8010F7F
:1030300010B1FFF7DEFFF9E710BD024680213C200A
:10304000FFF764BD10B5D420FFF7F7FF8020FFF72E
:10305000F4FFA820FFF7F1FF3F20FFF7EEFFD3209A
:10306000FFF7EBFF0020FFF7E8FF4020FFF7E5FF49
:103070008D20FFF7E2FF1420FFF7DFFFA120FFF70D
:10308000DCFFC820FFF7D9FFDA20FFF7D6FF1220B8
:10309000FFF7D3FF8120FFF7D0FFCF20FFF7CDFF51
:1030A000D920FFF7CAFFF120FFF7C7FFDB20FFF7AA
:1030B000C4FF4020FFF7C1FFA420FFF7BEFFA620FA
:1030C000FFF7BBFFAF20FFF7B8FFA620FFF7B5FF64
:1030D000AE20FFF7B2FF2020FFF7AFFF0020FFF781
:1030E000ACFFB020FFF7A9FF4020FFF7A6FF0020AC
:1030F000FFF7A3FF1020FFF7A0FF4FF48064013C0F
:103100000020A4B2FFF770FF002CF8D18120FFF758
:1031100094FFC820FFF791FFAF20FFF78EFF01203B
:1031200010BD08B55038C0B2FFF787FF0020FFF789
:1031300084FFBDE8084010207FE710B504465039F1
:10314000C8B2FFF77AFF04EB4400400000F00E0025
:10315000FFF773FF06206043BDE81040C0F3031083
:1031600010306AE7012828BF01202DE9F04F0646FC
:10317000794F142000FB0671784BD1F8A4421E71E0
:103180001C60774BD1F8B422DD69B1F8AC822A43D8
:10319000DA61A288B1F8AEA222F44072D1F8A85246
:1031A000120489B0120C4AEA0809A28003A9C5F8E2
:1031B000109002228DF80E0028460193ADF80C9075
:1031C0008DF80F2001F097FF019B00971F464FF0ED
:1031D000080BAA6818EA020F03D10A2003F060FA6C
:1031E000F7E70A20C5F8148003F05AFAC5F81080F2
:1031F0000A2003F055FABBF1010BEAD1C5F814A07F
:103200000A2003F04DFAC5F814800A2003F048FAAA
:10321000C5F810800A2003F043FA0222C5F810A076
:1032200028468DF80F2003A91C228DF80E20ADF83A
:103230000C9001F060FF4B4A4B4994423A6903A855
:103240000BBF42F4001242F480023A613A610BBFB4
:103250003A693A6922F4001222F480023A61A388A2
:1032600023F440731B041B0CA380404B93F8008095
:103270003F4BB8F1000F14BF9846884623889BB295
:1032800043F001032380A58805F0E4F9059A394845
:1032900025F03F05B2FBF0F02D042D0C0543ADB237
:1032A000A580218808EB480321F001010904090CDD
:1032B00021804FF49671B2FBF3F301FB00F24FF45F
:1032C0007A7192FBF1F29BB2002B08BF012301320D
:1032D00043F4004392B22284A3832388009A9BB2D2
:1032E00043F0010323802388002523F4816323F026
:1032F00002031B041B0C23804FF4804323811423FF
:1033000003FB062696F8B132012403A88DF80C3091
:103310008DF80D508DF80E508DF80F4006F034FAF0
:1033200096F8B0329DF80F208DF80C308DF80D50C6
:103330008DF80E501AB103A806F026FA08E05A09D3
:1033400003F01F039C4002F120030B4A42F8234084
:1033500009B0BDE8F08F00BFC40801084C0C002084
:103360000010024000540040801A06006501002051
:1033700000350C0040420F0000E100E0914B70B5B9
:103380001A68908A80B2C1B2CE072ED5118821F476
:1033900000610904090C1180118889B241F480612F
:1033A000118000215971997999B1D97911B9197A96
:1033B000FF290ED10121D971597A022901BF118843
:1033C00089B241F400611180997A41F001011182C2
:1033D000E2E0997A01F0FE0111821A7AFF2A00F0E8
:1033E000DB80784AFF215171D6E08D073AD5BFF3D3
:1033F0005F8F587AC0B2012813D1997989B1D979F0
:1034000079B1118821F480610904090C1180BFF39E
:103410005F8F118B1188D87289B241F400711180CD
:103420001BE0118BBFF35F8F587A664902280AD1DF
:10343000887940B1C97931B1118821F480610904DA
:10344000090C1180A2E0587A5E49032805D18879D9
:1034500018B1C979002940F09980918889B241F466
:10346000806198E04C0757D50121D97299790029DC
:1034700038D0D979002935D0597A1088022959795C
:103480001ED920F480600004000C1080148ADD68CE
:10349000C8B2E4B249B26C541188DC6889B241F414
:1034A000007111801968821C5A710A8A0130D2B2E7
:1034B00040B222548A8892B242F480628A8026E026
:1034C00080B240F400701080148ADD68C8B2E4B2A3
:1034D00049B26C54128A411C49B2D2B203306A54C8
:1034E000587114E0D979374809B9017C41B1118884
:1034F00089B241F4007111805A7901325A7106E0A3
:10350000118889B241F4807111800122C271196859
:103510000A88D205FCD43FE001F0400101F0FF042D
:10352000E1B15879168ADD68C4B2611C40B2F6B2C6
:103530002E54C9B25D7A597149B2C81C854201BF87
:10354000908820F480600004000C08BF90805A7AB4
:103550008A4221D11B4A023454711DE006061BD554
:10356000597948B2451C0AD05C690131205CC9B266
:103570001082587A597149B288420DD106E0197A01
:103580005C711182997909B9597A29B9918821F424
:1035900080610904090C9180597A93F90500013181
:1035A0008842084A0CD10021D171D17A31B1116819
:1035B0008A8822F440721204120C8A8000221A7641
:1035C00070BD00BF4C0C002008B5084809F0EDFDA7
:1035D000C0B209280246054B04DC01302021C0B2EC
:1035E0009954F6E700221A5408BD00BF8024002039
:1035F00008B5074809F0D9FDC0B21428044B04D817
:10360000421C20211954D0B2F7E700221A5408BDF9
:10361000802400202DE9F04105460E46078A838963
:103620009BB21F40002F37D0B7FA87F24FF000430C
:10363000D340DB4399B21F40A2F11B032982042B24
:10364000F0D8DFE803F0221F1C190300746A24B1CC
:10365000013C0023A4B2736201E0AC8DA4B2D6F8A1
:103660002080B8F1000FDDD0D8F800304046214668
:103670009847D8F80480F4E73068A98E08E07068AD
:10368000298F05E0B068A98F02E0F068B5F8401016
:10369000036889B29847C5E7BDE8F0812DE9F74393
:1036A00002F0E2FFB54E3368C31A002BC0F2B082BD
:1036B00000F5433303F5A0733360B14B31791B78C8
:1036C000C3F38003591A18BF012133714BB100298C
:1036D00000F09E82AB4B5A789A7001225A701A7091
:1036E00025E0A84A29B1D37843F00203D370937838
:1036F0005370D47804F0020101F0FF0339B9A149F5
:103700008968411A002903DB04F0010300E001236A
:1037100003F001059B4915704BB1E40707D50B7900
:10372000994A013303F001030B71D35C4B70954D43
:10373000964F2B78002B40D0EB7823F00203EB70F0
:10374000934B0344AE20AB60FFF777FC08B1FFF763
:1037500079FC3870002800F05B82B020FFF76DFC28
:103760004020FFF76AFC0020FFF767FC1020FFF7FE
:1037700064FC4FF48064013C0020A4B2FFF734FCE9
:10378000002CF8D12046FFF7CCFC6A78032A0ED132
:10379000804BB3F9003043FA04F2D20703D57E4BD5
:1037A00053F8240007E001340A2CF4D105E07A4BE9
:1037B00003EB8203586AFFF737FC3B78002B00F0DD
:1037C00027826B78754C052B00F20F82DFE813F02F
:1037D00006000D0217007800FB013D017049714A97
:1037E000714B724806F03FF90120FFF79AFC6F48D1
:1037F000FFF71AFC0220FFF794FC6D48F3E1DFF8B5
:10380000DC81D8F800309F0756D5DFF8D49100222C
:1038100099F80030674900936448134606F023F98D
:10382000654FFFF7E5FE0120FFF77BFC5F48FFF7E0
:10383000FBFB396899F800200D79C97802FB05F384
:103840006FF063004D1B43435543B3FBF5F5022076
:10385000EDB2FFF766FC284606F0DCF8D8F8003039
:10386000180540F1C28100221346009253494F4887
:1038700006F0F9F8FFF7BCFE0320FFF752FC4B48B7
:10388000FFF7D2FB3B68988906F058FF05460420F5
:10389000FFF747FC28464A4906F0A4FF294607F0EF
:1038A00055F807F065F96428A8BF642020EAE070A5
:1038B000C0B206F0AFF898E1EB7843F00203C2E043
:1038C0000120FFF72EFC3F4B3F4F1B8813F0040FE6
:1038D00040F08A803D4B3E49B3F90020334806F062
:1038E000C2F8FFF785FE0220FFF71BFC2F48FFF709
:1038F0009BFBDFF8F08039682C4891FBF8F3002936
:10390000B4BF4FF0FF32012283EAE37EAEEBE37EE9
:1039100008FB1313002BB8BF5B420EFB02F22D49CC
:1039200006F0A1F8FFF764FE0320FFF7FAFB1F483B
:10393000FFF77AFB7B681D4893FBF8F181EAE17E93
:1039400008FB1133AEEBE17E39684FF00508002922
:10395000B4BF4FF0FF320122002B1F490EFB02F2D1
:10396000B8BF5B4206F07FF8FFF742FE0420FFF786
:10397000D8FB0E48FFF758FB38E000BF680C00206A
:10398000BC2C002004090020C81701080E030020E9
:10399000404B4C0014030020900B01085A180108FA
:1039A000CA170108D3170108D9170108802400207D
:1039B000E1170108E617010890080020FE1701082A
:1039C0000000C842F8180020A82300203809002071
:1039D000131801081E1801082D180108F4180020FA
:1039E0004C000020A08601004FF00208B7F9082023
:1039F000BB898949894806F036F8FFF7F9FD40464A
:103A0000FFF78FFB8548FFF70FFB854B7F895A89AE
:103A10000A23B2FBF3F28349B7FBF3F37F4806F0C6
:103A200022F8FFF7E5FD08F10100FFF77AFB7B487C
:103A3000FFF7FAFA7C4B1B6813F0820F40F0D58039
:103A4000EB7823F00103EB70CFE0774B1B6819068E
:103A50007FF532AF754BB1681B68754A8B421CBF4E
:103A60009360137B4FF001011CBF013303F003038C
:103A70004FF0000018BF1373FFF75FFB337B002587
:103A8000E05CFFF7B6FA02200121FFF756FB694B15
:103A90003620EB5C0135C3EBC30393FBF0F0C0B2FF
:103AA000062828BF06206038C0B2FFF7A2FA102D02
:103AB000EDD1614B61491B78584813F0020F604B00
:103AC0001A7814BF59234E2305F0CDFFFFF790FD60
:103AD0000220FFF726FB5148FFF7A6FA59495A4B37
:103AE0004D680A684D4892FBF3F2584995FBF3F391
:103AF00005F0B9FFFFF77CFD0320FFF712FB4748F5
:103B0000FFF792FA524B53491A88444805F0ABFF2D
:103B1000FFF75AFD0420FFF704FB4048FFF784FA43
:103B20004D4B4E491A883D4805F09DFFFFF74CFD6F
:103B300004210A20FFF701FB3848FFF775FA484BCC
:103B400048491A68354805F08EFF474DFFF73CFDA0
:103B50000520FFF7E6FA3148FFF766FA6A68AB68B6
:103B600042492E4805F07FFFFFF72EFD05210A2070
:103B7000FFF7E3FA2948FFF757FA2B69EA683C494F
:103B8000D21A264805F06FFFFFF71EFD0620FFF74B
:103B9000C8FA2248FFF748FAAA6836491F4805F0D4
:103BA00062FFFFF711FD06210A20FFF7C6FA1B4846
:103BB000FFF73AFA30491522184809F021FBFFF7C0
:103BC00003FD07200CE02D4B1B889A077FF574AE90
:103BD0000120FFF7A6FA1148294905F044FF022009
:103BE000FFF79FFA0D48FFF71FFA14200021FFF797
:103BF000A4FA757B605DFFF7FCF9224B1B781BB9BB
:103C00001E4B1B889B0703D5013505F00305757313
:103C100003B0BDE8F08300BF3C18010880240020F9
:103C2000B82300204D180108F4180020EC090020EA
:103C3000680C0020CA090020A82100205F18010894
:103C40005409002058090020809698007018010837
:103C50000C0A00207D1801080E0A002085180108B2
:103C6000080A00208C180108700900209318010828
:103C70009C180108A3180108F1090020F818002079
:103C8000AB1801083B0900200E49002370B5184607
:103C90000C6819460C4A9373D37325186D880DB9B7
:103CA000265C5EB12D0548BF013100F1040003F12F
:103CB000010348BFC9B28028DBB2EED19373D17340
:103CC00070BD00BF9C030020680C002010B5094B9C
:103CD000197C5A7C480801F001010144D97451084B
:103CE00002F00102441E0A44481E9C7418755A755D
:103CF00010BD00BF680C00200023F0B518461C461C
:103D00000B4A0C49967B0F685374C1B2B1420CD276
:103D100017F8201001300D099D4201F00F01A8BFD6
:103D20006B1CA142A8BF4C1CEFE753741474F0BD88
:103D3000680C00209C0300200449054B0968002200
:103D400018705A6199611A77704700BF6C2400207F
:103D500070090020F8B5101A0D461F4606F0EEFC5B
:103D60000446781B06F0EAFC174B079E196806F01C
:103D700039FD21460546204606F034FD2946074612
:103D8000284606F02FFD0146384606F023FC0AF0CF
:103D9000BDFC0E4906F026FD06F010FF069B2946E5
:103DA000186004F100400AF0AFFC094906F01AFD62
:103DB000084906F00FFC06F0DBFE0028BCBF00F54A
:103DC0000C40A0303060F8BD180000202C7D8E3FE4
:103DD000A00CB34500A00C4670B50446407906F02F
:103DE000A9FC1E4906F0B2FD1D4D1E4E2860E07B69
:103DF00006F0A0FC194906F0A9FDEE606860A07904
:103E000006F098FC184906F0A1FD184D2860207CAA
:103E100006F090FC114906F099FD6860A07E06F05E
:103E200089FC134906F092FDEE60A860E07906F087
:103E300081FC0D4906F08AFD0E4D2860607C06F07D
:103E400079FC064906F082FD6860E07E06F072FCAF
:103E5000074906F07BFDEE60A86070BD0000C84217
:103E6000100C00200000FA4400002041000C00204B
:103E700000007A44F00B002001480249FFF7CABB5A
:103E800000080040C819002001480249FFF7C2BBE2
:103E900000040040A01900204FF080400149FFF7C6
:103EA000B9BB00BF7819002001480249FFF7B2BB37
:103EB000002C01405019002001480249FFF7AABB1D
:103EC000002C014050190020254B10B55A43254BBA
:103ED000254C1B680139B3FBF2F20388013AA0427A
:103EE00089B292B29BB212D004F50064A0420ED007
:103EF000B0F1804F0BD0A4F59834A04207D004F560
:103F00008064A04203D004F58064A04202D123F073
:103F100070039BB2154CA04206D004F58064A04209
:103F20001CBF23F440739BB203800F4B81859842E2
:103F300002850FD003F5006398420BD003F5406370
:103F4000984207D003F58063984203D003F580635D
:103F5000984201D1002303860123838210BD00BF54
:103F600040420F0050000020002C01400010004093
:103F700073B505460068FFF7A7FF2A680124138878
:103F800000269BB243F001031380EB7A01A88DF861
:103F900004308DF805408DF806608DF8074005F077
:103FA000F3FBEB7A1B2B0BD1192301A88DF80430FE
:103FB0008DF805408DF806608DF8074005F0E4FBAC
:103FC00002B070BD0C4B800A98420CD004D8B0F5FA
:103FD000801F0CD101207047084B984205D049330F
:103FE000984206D003E00220704703207047FE206D
:103FF00070470020704700BF010010000200100051
:104000002DE9F84304680746204688469146FFF7A5
:10401000D9FF03284BD8BA7A9108B8F1000F06D11E
:10402000A589AEB202258D4026EA0505A5810A23A1
:1040300003FB00131F4A42F82380043342F8239005
:10404000B8F1000F07D0BD7AA189AD080223AB40BB
:104050000B439BB2A3812823434303F12001114466
:10406000EFF31286502585F3128803F10C051C33FB
:104070001544134455F8047F17B10F6029680431C3
:104080009D42F7D100230B60F3B283F311882823FC
:1040900003FB0020036A23B1A3899BB243F0010311
:1040A00004E0A38923F001031B041B0CA381BDE8DA
:1040B000F88300BF50190020014803F030B800BF5A
:1040C000800C0020014803F02AB800BFD40C002067
:1040D000014803F024B800BF280D00200C4B4FF41A
:1040E00000525A604FF6FE730A48D0F8F420116867
:1040F0000B401360D0F8E420D0F8E8309A4202D0A8
:10410000C03003F03EB8012380F80431704700BF8F
:1041100000000240680C00202DE9F04F83468DB06E
:104120000E46904600210C22A3481D46BDF958A01A
:1041300008F0DFFF00211022A04808F0DAFFA04AB3
:10414000A04B1178914603F11802012988BF13464C
:10415000994C002739460C222777677704F1200015
:10416000009308F0C6FF009B2320E36202F0A3FA4D
:10417000752001210DF10F02FEF706FCA0B1924B54
:1041800038466362914B0121A36204AA432384F859
:104190002030FEF7F9FB9DF8103003F07E038DF818
:1041A0001030002844D14BE094F830306BBB884A83
:1041B000884F9369384643F0080393611023032224
:1041C0008DF81A3006A94FF48053ADF818300093DB
:1041D0008DF81B2000F08FFF009B7F4A3B61138806
:1041E00023F040031B041B0C1380138823F03803B7
:1041F0001B041B0C43F00803138013889BB243F08D
:1042000040031380012384F830307520012106AA71
:10421000FEF786F99DF81830702B51D105232377CE
:10422000432384F820306D4B63626D4BA36247E0FB
:10423000682B05D1012323771D2384F820303FE02C
:104240009DF80F3003F07E03682B8DF80F3033D1CB
:104250000223062023770146636A06AA98479DF841
:104260001D1001F001029DF81B1001F001014B002F
:1042700043EA82019DF8192002F001030B4309D0A3
:104280005BB2012B01D1002302E0022B0DD10123EF
:10429000637715E0484B0C205B6A012105AA98471B
:1042A0009DF8143013F00F0303D1032002F01EFA1F
:1042B00006E0042BEBD1E6E7702B04BF0423237741
:1042C000227F0020022A3C4B84F8310009D1454965
:1042D000D9604549196145499961012183F8311037
:1042E0001BE0012A0BD1424983F83120D9603E49B5
:1042F000042219613F4959613C4999610DE0043A32
:10430000012A00F23C833C4ADA60374A1A61374A94
:104310009A61012283F831200722D4F8BC30374952
:1043200043F001030A70C4F8BC300091344F0023FD
:104330003B70082E00F2AF80DFE806F00AAD0A2BD2
:104340006C8A2B9F9F00012E40F2B18000263E70A8
:1043500099F80030012B1CD84FF0000C0CAB03F87F
:1043600018CD532061460122CDF804C0FEF72AFA89
:1043700078B19DF81830DDF804C0E52B09D1214B48
:1043800084F832C02360204B636004233B70022317
:1043900085E0227F084B022A3CD11C4A1A601C4A45
:1043A0005A605B7F002B0CBF6F236E2323720123A7
:1043B0003B70032373E000BF7C0D0020880D0020BC
:1043C000BF2C0020CC0B010889290008152C0008FF
:1043D00000100240000C0140003800402125000878
:1043E0004D250008312700085123000890C1793D70
:1043F0006D250008192300086D26000844000020E0
:10440000BE2C0020D52C00083D2A00089927000862
:104410009923000899F80030012B19D800220CAB21
:1044200003F8182D1C200D210122FEF7CBF978B1DD
:104430009DF818302A2B01D01A2B09D1C74A84F8CD
:1044400033302260C64A02233B706260042326E0B8
:1044500000210CAB03F8181D18200122FEF7B2F959
:1044600058B19DF81830FB2B07D1BE4B2360BE4BD3
:10447000636001233B70052311E0237FBB4A043BAB
:10448000012B3FF660AFBA4B1360BA4B5360012368
:104490003B70082303E0012E09D9002646E7009A65
:1044A0005370D4F8BC3043F00203C4F8BC3099F820
:1044B0000030012B05D105F0E1F9AF4B4FF400526C
:1044C0005A61042D00F2BD81DFE815F00500C60138
:1044D0006400050086010A2002F0EDF87720A02193
:1044E000012205ABFEF76EF9002853D01E210122F0
:1044F0007720FEF70BFB4FF42F6002F0D1F8002677
:10450000A6F160010025C9B2022206AB77208DF822
:1045100018508DF81950FEF755F99DF819309DF88F
:10452000182043EA0222914B03F134017252023601
:10453000102EE5D1B3F842102A4601F00F0601F41F
:104540007F41A3F842102B46012722F001002044AE
:10455000808E002818BF0027D50703D5C0B243407E
:10456000082002E083EA1023FAE71D0448BF83F421
:10457000C05301384FEA4303F7D10132102AE4D186
:1045800031437A4AA4F8421027B9C3F303339E4259
:1045900000F0D58194F84450002D40F0E981764E2A
:1045A00005F06CF928244FF48047304605A9ADF892
:1045B00014708DF8164000F09EFD4FF400533361E7
:1045C00020466E4902F0DCF80E21022000F07EFD4C
:1045D0000823069706A801278DF81D308DF81C507A
:1045E0008DF81E7004F0AAF94FF0030C04A88DF8A2
:1045F00011C0CDF800C08DF810408DF812508DF824
:10460000137005F0C1F8142002F055F8D02177207E
:104610003A4605ABFEF7D6F8544C3146002800F078
:10462000BB809DF81430DDF800C0552B84F85F3056
:10463000A4F868C040F0B080D1213A4605AB77209D
:10464000FEF7C0F89DF81430772003F00F021B0925
:1046500084F8602084F86130162206ABAA21FEF7A8
:10466000B1F89DF818209DF8193043EA0223A4F808
:1046700048309DF81A209DF81B3043EA0223A4F825
:104680004A309DF81C209DF81D3043EA0223A4F80F
:104690004C309DF81E209DF81F3043EA0223A4F8F9
:1046A0004E309DF820209DF8213043EA0223A4F8E3
:1046B00050309DF822209DF8233043EA0223A4F8CD
:1046C00052309DF824209DF8253043EA0223A4F8B7
:1046D00054309DF826209DF8273043EA0223A4F8A1
:1046E00056309DF828209DF8293043EA0223A4F88B
:1046F00058309DF82A209DF82B3043EA0223A4F875
:104700005A309DF82C209DF82D3043EA0223A4F85E
:104710005C3041F27073A4F86C3046F67813A4F85C
:104720006E30174B2367174B6367174BA367174B05
:10473000E367174BC4F8803094F8443043B9FEF770
:104740005FFA42F6E06001F0ABFFB568C5F3803573
:10475000104B1D70012384F8443009E11F2C000820
:104760009D290008B12C0008F72900087C0D0020C5
:104770001D2700089923000800100140D9240008D3
:10478000012C000855290008DD2B00080929000824
:104790003D220008280000207A4A136823F4804351
:1047A000136000237848DA0000F18404A5186E68CD
:1047B000764DAE420AD114F93340282C06D1831825
:1047C0000022C3F8882083F8842002E00133032B01
:1047D000E8D14FF400534B616B4C94F89C50002D82
:1047E00040F0C080142001F066FF04F19D037620A4
:1047F000D0210122FDF7E6FF94F89D30582B2BD1F4
:1048000004F1A003882118227620FDF7DBFF762033
:10481000F4213122FEF77AF9012384F89C305C4BB5
:10482000A4F86C5063675B4B236745F6D813A4F874
:104830006E30594BA367594BE367594BC4F880302E
:1048400090E0012D08D0574B4F4A9D70D2F8BC30F4
:1048500043F00403C2F8BC304B4CD4F8BC309A0788
:1048600001D523689847E368584698474E4B99F816
:10487000009003F11802B9F1010F94BF99469146D7
:1048800045464A4F00233B700DB1022D6CD10026E6
:104890000CAB03F8186D1E200A210122DFF8E88016
:1048A000C4F8C090FDF78EFFA8B19DF81830482BD2
:1048B00060D13F4B0222C8F8C4303E4BC8F8C83024
:1048C00003233B70374BDA70D4F8BC3043F0080355
:1048D000C4F8BC3001E006464CE0374B93F8542155
:1048E0000AB184F8312093F855210AB133490A708E
:1048F00093F8563103B13B70D4F8BC30224D1B07FE
:1049000018D564269AFBF6F4204605F017FF0746F3
:1049100006FB14A000B205F011FF294905F062FF63
:104920000146384605F056FE264905F05BFFC5F8FE
:10493000CC0002E00023C5F8CC3001201FE042F299
:104940001073A2F86C30A2F86E301F4B032513676A
:104950001E4B53671E4B93671E4BD3671E4BC2F80B
:10496000803070E704256EE7012DB6D91D4688E733
:10497000022568E7012DB0D900253E7087E70DB00C
:10498000BDE8F08F000401407C0D0020D924000810
:104990007D2000087F200008C52B0008752800082E
:1049A000BD1E000844000020FC0B0108C02C0020A4
:1049B000D52D00083D2D000898240020BE2C002095
:1049C0008988883C00002041D52B0008F928000880
:1049D000CD2B0008E928000881200008002303608F
:1049E00043608360C360036143618361C3610362A9
:1049F0004362836270478A6810B50C6A0368144387
:104A00000A6923F4FF4314434A6923F070031443F3
:104A10008A691443CA6914434A6A14438A6A22435E
:104A200013430360CB6843600B6883604B68C360CB
:104A300010BD4FF6FE73026813400360002303604D
:104A400043608360C360294B984201D1284A27E024
:104A5000284B984201D1264A2AE0274B984201D19F
:104A6000234A2DE0254B984201D1214A30E0244BC6
:104A7000984201D11E4A33E0224B984204D11C4A8D
:104A8000536843F470032EE01F4B984204D1184A38
:104A9000536843F0706326E01C4B984204D11C4AD3
:104AA000536843F00F031EE01A4B984204D1184A92
:104AB000536843F0F00316E0174B984204D1144AB0
:104AC000536843F470630EE0144B984204D1104ACB
:104AD000536843F4704306E0114B984204D10C4AEA
:104AE000536843F470235360704700BF08000240CE
:104AF000000002401C00024030000240440002401E
:104B0000580002406C00024080000240080402404D
:104B1000000402401C0402403004024044040240ED
:104B2000580402408379DB0748BFB1FA81F1D0F81D
:104B3000343148BF49095A681B8909B1136170476C
:104B40005361704710F80A3C0133DBB20A2B84BF73
:104B500010F8131C044A00F80A3C82BF002322F814
:104B6000113000F80A3C704790210020334A70B59C
:104B7000136C9068194440F68C23081A984291608F
:104B8000D060516013463BD9127893F94510104616
:104B90008A420BD1111F082908D893F8461018290A
:104BA00001D8013103E083F8442002E0002183F8BA
:104BB000461093F944402149A24219D191F8474047
:104BC000B4B10C310024944206DA51F8046F1C4D44
:104BD00025F814600134F6E70C2805D018490024A4
:104BE00021F810400130F7E71648017801310170D3
:104BF00083F84520002201211A7083F8471070BD08
:104C000092F84710C9B140F2DA51A0F2EF248C4279
:104C100008D811780B2905D80B1D0131117042F805
:104C2000230070BD002283F84720074B03F13002B8
:104C3000002143F8041F9342FAD170BDAC0100205B
:104C4000902100204C0E0020B8010020024A136C75
:104C50000133194411647047AC010020024B53F832
:104C600020301B6819807047F0190020074BA1F510
:104C70007A7153F820301A681B8959434FF47A73BC
:104C800091FBF3F189B21180704700BFF019002049
:104C900038B50C4B0C4D99680C4B1A681C46528861
:104CA000114203D001F0E0FC686006E001F0DCFC9A
:104CB0006B68984284BF01232B7223685A68044BA7
:104CC0005A6138BD000C01404C0E002090030020BA
:104CD0000004014090F83B3210B57BB990F83A32AD
:104CE00090F83942A34209D2B0F8401201229A400A
:104CF0000A430133A0F84022DBB2F3E710BD1FB531
:104D00000123ADF80830ADF80410002301A9ADF877
:104D10000A30ADF80C30ADF8062003F0FCFC05B00D
:104D20005DF804FB10B5A0F5127494F83C22BAB9F2
:104D3000A36A616A994228D0591CA069A162C35C28
:104D40002069DBB25B0043F400738142A4F83E3279
:104D50004FF00A0384F83D3228BFA262012312E01B
:104D600094F93D327BB1B4F83E1220464B08A4F8CA
:104D70003E3201F00101FFF7D5FE94F83D32013BD0
:104D800084F83D3201E084F83C3294F83832002B4C
:104D90004ED194F839320133DBB2092B84F8393221
:104DA00003D12046BDE8104094E70A2B40D194F887
:104DB0003B322BB9B4F8403243F00103A4F840323F
:104DC0006379D9071CD5B4F84002820501D4C30722
:104DD00005D4B4F844320133A4F8443210E0E36A55
:104DE000C0F347000BB198470AE0E3696269D05409
:104DF000E369E1680133B3FBF1F201FB1233E361D4
:104E0000012284F8382294F83B220023012A84F8F6
:104E100039320DD1A27984F83B32236B12F0010FA5
:104E20001868997A0CBF02220022BDE8104066E79C
:104E300010BD1FB50123ADF808300023ADF80C30CC
:104E4000ADF80A30084BADF804101B7801A9012B0E
:104E500008BF0323ADF8062008BFADF80C3003F0FF
:104E60005AFC05B05DF804FBA801002038B510F825
:104E70000E2C044650F8043C52B9012200F80E2CC6
:104E800020F80C1C997A18680222BDE83840D0E757
:104E900030F80C2C20F80A1C891A89B220F8081C5A
:104EA000074A10F80F0C002522F8101004F80E5CC9
:104EB0001868997A2A46FFF7BCFF04F8065C38BDEB
:104EC00090210020044B53F820301BB107289CBFD1
:104ED0001B681980704700BFD4020020D8E6D7E6CF
:104EE000D6E6084A13689B020BD5074B00211970C0
:104EF0004FF6FE730549086803400B604FF400133A
:104F00005360704700000240C12C00206C0002403A
:104F10002DE9F047664DEB686649581C0A788E46C5
:104F200002F0FF060AB10346F6E73746EB60687EFB
:104F30006B6995F81880AA7E39B2202900F09C8010
:104F4000DFF880C10CEB8103DC789B783CF8211002
:104F5000C3F1FF039BB2002B65D04FF03C0CB1FBBB
:104F6000FCF9C3F1FF0363431B12B9F1050F5DD8D0
:104F7000DFE809F0030B1A293A4AE01A4143B1FB72
:104F8000FCF0DAB21044C0B251E0B1FBFCF00CFB13
:104F9000101189B2DAB2C1F13C01E31A4B43B3FB01
:104FA000FCFC204694442CE0B1FBFCF00CFB1011FF
:104FB000E21A89B24A43B2FBFCF25FFA83F8424438
:104FC000D2B2204632E0B1FBFCF90CFB191189B2D8
:104FD000E01AC1F13C014843B0FBFCF05FFA83F8F2
:104FE0004044C0B2224621E0B1FBFCF80CFB181192
:104FF000D8B289B2E31A01FB03F2B2FBFCFC2246F1
:1050000084445FFA8CF412E0B1FBFCF80CFB18113D
:1050100089B2D8B2C1F13C01E31A4B43B3FBFCF2B5
:105020000244D2B203E02246204600E044464FEA62
:10503000042C4CEA004C4CEA020C17234FF00108F8
:1050400008FA03F806F1170118EA0C0FA1EB0301A7
:10505000DFF8748014BF4FF011094FF0090989B2CD
:1050600013F1FF3308F80190E8D218360137B6B2D1
:10507000BFB2114BA0465FE76B6101238EF8003091
:1050800040F22A33AA760D4A69820D4985F81880C4
:1050900068762E82536000238B840B889BB243F08A
:1050A00001030B80136843F001031360BDE8F08730
:1050B0004C0E0020C12C0020640E00206C00024029
:1050C00000040040D0060020A503002001F00303E7
:1050D00001F0FC0101F1804101F5803110B59B0028
:1050E0008C680F229A4024EA02028A608A689840FB
:1050F00002438A6010BDF0B5B1F800E000234EFA1B
:1051000003F2D50725D58E784FEAD30CF40648BFB5
:10511000CC7806F00F0203F0070748BF2243BF0018
:1051200050F82C500F24BC4025EA0404BA40224316
:10513000282E40F82C2005D1C46801229A4024EA88
:10514000020205E0482E04D1C46801229A4022439D
:10515000C2600133102BD2D1F0BD2DE9F04F1E46B5
:105160004FF414734343564D85B005F11C0480463B
:105170009146E718A24610B92B44524A03E0012891
:1051800005D1514A2B44DA641032C3F850214FF450
:10519000147303FB08F34D48EC180AEB030203F504
:1051A0009C7334325344E061A16422636363002240
:1051B0004FF480714FF0010BD4F850310320A162FD
:1051C000E263A263E1626264226484F8582284F894
:1051D00054B284F85522A4F85E22A4F86022C4F8E0
:1051E000249084F8210084F8226084F86282586850
:1051F0001B8904F5A6724FF0020CADF80C3003A920
:10520000102301928DF80E308DF80FC0CDF800C03C
:10521000FFF771FFE36CDDF800C0597B58681B890C
:105220008DF80E1003A9ADF80C308DF80FC0FFF704
:1052300062FF59463846FFF775FC322001F03BFA11
:10524000234B019A1B68D2F804B01A46B2FBF9F15D
:10525000B1F5803F03D3012AF8D95208F6E71D4A79
:105260004FF41474B3FBF2F204FB08F8584689B209
:10527000D2B2FEF77DFE05EB0809174B08F5127850
:105280000AEB08040022C9F8643258462146FEF7AA
:10529000B7FED9F84C5016F0010F0CBF02220022C5
:1052A0002868A97AFFF72BFD0C4B2846C9F868320D
:1052B000211D0022FEF7A4FE384605B0BDE8F08FA0
:1052C0004C0E0020C0140108E01401082C0C010849
:1052D0005000002040420F00254D0008817000085A
:1052E0002DE9F7438E460546DFF8A092114699F85E
:1052F000BC440068164698467246631C89F8BC3464
:10530000FEF7E2FD2B8901A9ADF8043018238DF8D2
:105310000630686802238DF80730FFF7ECFEAB7AA1
:1053200009F59867240127442A6849460C2B00F2A6
:10533000F680DFE813F00D00F400F400F4005100F3
:10534000F400F400F4008A00F400F400F400C20059
:10535000138CDFF83CC223F001031B041B0C1384E5
:10536000138CB2F804E0108B624520F073004FEA12
:1053700000404FEA10409BB21FFA8EFE40F07000D2
:1053800014D00CF5006C624510D00CF5406C6245F1
:105390000CD00CF5806C624508D00CF5806C624531
:1053A00004D023F0020343F0030307E023F00E03CD
:1053B0002EF4407E43F003034EF4807EA2F804E016
:1053C0001083A2F834801384138B23F008031B048A
:1053D0001B0C43F0080336E0138CDFF8B4C123F054
:1053E00010031B041B0C1384138CB2F804E0108B05
:1053F000624520F4E6404FEA00404FEA10409BB27D
:105400001FFA8EFE40F4E04008D00CF5006C6245B7
:1054100004D023F0200343F0300307E023F0E0033F
:105420002EF4406E43F030034EF4806EA2F804E098
:105430001083A2F838801384138B23F400631B04B9
:105440001B0C43F40063138369E0138CDFF840C145
:1054500023F480731B041B0C1384138CB2F804E038
:10546000908B624520F073004FEA00404FEA1040F5
:105470009BB21FFA8EFE40F0700008D00CF5006C55
:10548000624504D023F4007343F4407307E023F42F
:1054900060632EF4405E43F440734EF4805EA2F8E5
:1054A00004E09083A2F83C801384938B23F00803DC
:1054B0001B041B0C43F0080330E0138CDFF8D0C052
:1054C00023F480531B041B0C1384108CB2F804E0EB
:1054D000938B20F4005023F4E6431B0400041B0CC0
:1054E000000C62451FFA8EFE43F4E04340F4405046
:1054F00003D00CF5006C624503D12EF4804E4EF4BF
:10550000804EA2F804E09383A2F840801084938B2D
:1055100023F400631B041B0C43F4006393832B7B75
:1055200043B1B2F844306FEA43436FEA53439BB24E
:10553000A2F8443013889BB243F001031380AB7A86
:105540000C2B19D8DFE803F0071818180B181818D7
:105550000F18181813000B1902F134000AE00B1988
:1055600002F1380006E00B1902F13C0002E00B19D1
:1055700002F14000C3F8C00438460C44A4F8C864E3
:10558000C4F8C42403B0BDE8F08300BF4C0E002073
:10559000002C01400E4B1A786B2A15D15A88B2F5AF
:1055A000006F11D11A79BE2A0ED193F8DD270020A1
:1055B000EF2A0BD113F8012B5040064A9342F9D140
:1055C000B0FA80F04009704700207047704700BF74
:1055D00000F80108000002082DE9F84FB94C00213D
:1055E0004FF400622046B84E07F083FD04F53B738C
:1055F000B64A3360B64F0023137004F2B6723A60B5
:105600006B222270032262714FF41672A4F8622199
:10561000FA22A4F864212A22A4F860214FF4FA7235
:10562000A4F86A21012284F85E2184F87A2184F8A2
:105630008221052284F82B2240F2DC52A4F8942126
:1056400040F24C42A4F8962140F26C72A4F89821E2
:1056500040F27532A4F89A2140F6430225462021F3
:10566000A16084F866116E2184F878110A2184F80B
:1056700079112B2184F87B11212184F87C112321BD
:1056800084F87D114FF4C871A4F87E11A4F89C2110
:10569000032BCCBF0122002203F1010384F89E21D9
:1056A00014BF1E220522122B84F89F2104F102044C
:1056B000EED14FF47A73A5F8C231A5F8C631A5F83A
:1056C000CA31A5F8CE31A5F8443140F27E5340F2FC
:1056D0007E41A5F8483140F2EA53A5F84011A5F8FB
:1056E0004A3140F23A7140F2B4534FF4FA62A5F8ED
:1056F000C421A5F8C821A5F8CC21A5F8D021052200
:1057000085F8DE21C8224FF001084FF03209A5F8D4
:10571000E2214FF4C8724FF01E0A4FF0190B85F8C2
:10572000E08185F8E18185F8E481A5F8E621A5F816
:105730004211A5F84C31A5F84E9185F8938185F872
:10574000DD8185F8EA81A5F8502185F8ED8185F89D
:1057500091A185F8DFB1A5F8529104F065FA40F601
:10576000AC533468AB810F200023EB73AB736071D3
:105770002220A0710E20172120744FF00A0E352030
:105780006175A175A0765521212084F812E04FF0B3
:10579000640EE17060742D21532084F81CE04FF0FA
:1057A000780E28226173E07684F80AE05A20DFF848
:1057B00040E121754FF4FA7184F80080E375A3731A
:1057C0002376E3736376207284F81E80627084F817
:1057D0000BA0A27084F80CA084F8049084F807B0A1
:1057E0006272A4F84E103B49C4F838E0C4F83CE0BB
:1057F000DFF800E1E162216361633749C4F828E022
:10580000DFF8F4E02164DFF8F4C03449C4F848E07C
:105810004FF04B0E84F8523084F8513084F85030F9
:10582000C4F820C0C4F824C0616484F84CE085F852
:10583000B607412085F8B70740F2DC5085F8B93744
:1058400085F8BD3785F8BE3785F8BA3785F8BB3798
:1058500085F8BC3785F8B897A5F8C007A4F8583084
:10586000A4F85A30A4F85630042384F85C30152389
:1058700084F868301A4B216684F8642084F8652027
:10588000E366184B84F878802367174BDFF8708045
:10589000636718F8011F002936D0DFF86890484682
:1058A00007F075FC0028F4D009F1080398423FBFC7
:1058B0000E4BC9EB00004019C3EB080338BF80F85A
:1058C0008631E6E79824002018030020A018002065
:1058D00024200020CDCCCC3E0AD7233C0000A040A1
:1058E0009A99193FF6287C3F3D0A773F42190108F3
:1058F0008FC2F53C00006040000040403333B33FAE
:10590000411901084B1901082046282384F8133156
:10591000012384F814314FF44873A4F816310A2394
:1059200084F8111184F8121184F8181185F8D43113
:10593000C82385F8D5314FF47A73A5F8D63164239E
:1059400085F8D811A5F8DA310E2303FB01436FF077
:10595000170E83F819E14FF0030E83F81AE16FF088
:105960002F0E83F81BE14FF0070E83F81CE16FF058
:10597000230E83F81DE14FF0050E83F81EE101317F
:105980004FF05A0E80F820E180F821E164234FF0B7
:10599000FF0E082980F81F3180F822E14FF0000245
:1059A00000F10E00D0D1A4F890314FF49673A4F812
:1059B00092312823A4F894311346C821A4F88A11FF
:1059C000142184F88C111E2184F88D11012184F892
:1059D000892184F88E11EA1810334FF00008C02B8B
:1059E000C2F81080F7D14D480021402207F081FB1A
:1059F0000023DFF84091EA1853F8091004330868CF
:105A0000382B474CC2F8AC02F3D10021802204F5B8
:105A10000B7007F06EFB09F13801702204F50B7072
:105A200007F05CFBFEF730F9FEF766F9FEF74EF97A
:105A3000002384F8DC3784F8F23184F8EA3784F8FC
:105A4000EB37A4F84233374B40F6C412C3F800805A
:105A500040F21A43A4F8F03740F2E973A4F8F237A1
:105A6000282384F8F537042384F8F6370F232E48CB
:105A700084F8F73708234FF4BF61A4F8E027A4F8AF
:105A8000F8371422A36801803668A4F8E227A4F846
:105A9000E817FA22254926484FF00209A4F8E4271E
:105AA00043F400330A220125016084F8E627C4F894
:105AB000EC1784F8FA27A360314606234FF4CC7222
:105AC00084F8F69104F2844084F8FC3784F8DA57BD
:105AD00084F8DB5784F8F45707F000FB4FF4CC72DE
